{
	"src/VaultRouter.sol": {
		"VaultRouter": {
			"abi": [
				{
					"inputs": [
						{
							"internalType": "address",
							"name": "_depositToken",
							"type": "address"
						},
						{
							"internalType": "address",
							"name": "_riskNFT",
							"type": "address"
						},
						{
							"internalType": "address",
							"name": "_lowRiskVault",
							"type": "address"
						},
						{
							"internalType": "address",
							"name": "_medRiskVault",
							"type": "address"
						},
						{
							"internalType": "address",
							"name": "_highRiskVault",
							"type": "address"
						}
					],
					"stateMutability": "nonpayable",
					"type": "constructor"
				},
				{
					"inputs": [],
					"name": "InsufficientShares",
					"type": "error"
				},
				{
					"inputs": [],
					"name": "InvalidAddress",
					"type": "error"
				},
				{
					"inputs": [],
					"name": "InvalidPercentage",
					"type": "error"
				},
				{
					"inputs": [],
					"name": "NoPosition",
					"type": "error"
				},
				{
					"inputs": [],
					"name": "NoProfile",
					"type": "error"
				},
				{
					"inputs": [
						{
							"internalType": "address",
							"name": "owner",
							"type": "address"
						}
					],
					"name": "OwnableInvalidOwner",
					"type": "error"
				},
				{
					"inputs": [
						{
							"internalType": "address",
							"name": "account",
							"type": "address"
						}
					],
					"name": "OwnableUnauthorizedAccount",
					"type": "error"
				},
				{
					"inputs": [],
					"name": "ReentrancyGuardReentrantCall",
					"type": "error"
				},
				{
					"inputs": [
						{
							"internalType": "address",
							"name": "token",
							"type": "address"
						}
					],
					"name": "SafeERC20FailedOperation",
					"type": "error"
				},
				{
					"inputs": [],
					"name": "ZeroAmount",
					"type": "error"
				},
				{
					"anonymous": false,
					"inputs": [
						{
							"indexed": true,
							"internalType": "address",
							"name": "user",
							"type": "address"
						},
						{
							"indexed": false,
							"internalType": "uint256",
							"name": "amount",
							"type": "uint256"
						},
						{
							"indexed": false,
							"internalType": "uint256",
							"name": "lowShares",
							"type": "uint256"
						},
						{
							"indexed": false,
							"internalType": "uint256",
							"name": "medShares",
							"type": "uint256"
						},
						{
							"indexed": false,
							"internalType": "uint256",
							"name": "highShares",
							"type": "uint256"
						}
					],
					"name": "Deposited",
					"type": "event"
				},
				{
					"anonymous": false,
					"inputs": [
						{
							"indexed": true,
							"internalType": "address",
							"name": "previousOwner",
							"type": "address"
						},
						{
							"indexed": true,
							"internalType": "address",
							"name": "newOwner",
							"type": "address"
						}
					],
					"name": "OwnershipTransferred",
					"type": "event"
				},
				{
					"anonymous": false,
					"inputs": [
						{
							"indexed": true,
							"internalType": "address",
							"name": "user",
							"type": "address"
						},
						{
							"indexed": false,
							"internalType": "uint256",
							"name": "percentage",
							"type": "uint256"
						},
						{
							"indexed": false,
							"internalType": "uint256",
							"name": "amountReceived",
							"type": "uint256"
						}
					],
					"name": "PartialWithdrawal",
					"type": "event"
				},
				{
					"anonymous": false,
					"inputs": [
						{
							"indexed": true,
							"internalType": "address",
							"name": "user",
							"type": "address"
						},
						{
							"indexed": false,
							"internalType": "uint256",
							"name": "timestamp",
							"type": "uint256"
						}
					],
					"name": "Rebalanced",
					"type": "event"
				},
				{
					"anonymous": false,
					"inputs": [
						{
							"indexed": true,
							"internalType": "address",
							"name": "user",
							"type": "address"
						},
						{
							"indexed": false,
							"internalType": "uint256",
							"name": "amountReceived",
							"type": "uint256"
						},
						{
							"indexed": false,
							"internalType": "uint256",
							"name": "lowSharesBurned",
							"type": "uint256"
						},
						{
							"indexed": false,
							"internalType": "uint256",
							"name": "medSharesBurned",
							"type": "uint256"
						},
						{
							"indexed": false,
							"internalType": "uint256",
							"name": "highSharesBurned",
							"type": "uint256"
						}
					],
					"name": "Withdrawn",
					"type": "event"
				},
				{
					"inputs": [
						{
							"internalType": "uint256",
							"name": "amount",
							"type": "uint256"
						}
					],
					"name": "deposit",
					"outputs": [
						{
							"internalType": "uint256",
							"name": "lowShares",
							"type": "uint256"
						},
						{
							"internalType": "uint256",
							"name": "medShares",
							"type": "uint256"
						},
						{
							"internalType": "uint256",
							"name": "highShares",
							"type": "uint256"
						}
					],
					"stateMutability": "nonpayable",
					"type": "function"
				},
				{
					"inputs": [],
					"name": "depositToken",
					"outputs": [
						{
							"internalType": "contract IERC20",
							"name": "",
							"type": "address"
						}
					],
					"stateMutability": "view",
					"type": "function"
				},
				{
					"inputs": [],
					"name": "getProtocolStats",
					"outputs": [
						{
							"internalType": "uint256",
							"name": "totalValueLocked",
							"type": "uint256"
						},
						{
							"internalType": "uint256",
							"name": "lowVaultTVL",
							"type": "uint256"
						},
						{
							"internalType": "uint256",
							"name": "medVaultTVL",
							"type": "uint256"
						},
						{
							"internalType": "uint256",
							"name": "highVaultTVL",
							"type": "uint256"
						}
					],
					"stateMutability": "view",
					"type": "function"
				},
				{
					"inputs": [
						{
							"internalType": "address",
							"name": "user",
							"type": "address"
						}
					],
					"name": "getUserEstimatedAPY",
					"outputs": [
						{
							"internalType": "uint256",
							"name": "",
							"type": "uint256"
						}
					],
					"stateMutability": "view",
					"type": "function"
				},
				{
					"inputs": [
						{
							"internalType": "address",
							"name": "user",
							"type": "address"
						}
					],
					"name": "getUserPosition",
					"outputs": [
						{
							"internalType": "uint256",
							"name": "lowShares",
							"type": "uint256"
						},
						{
							"internalType": "uint256",
							"name": "medShares",
							"type": "uint256"
						},
						{
							"internalType": "uint256",
							"name": "highShares",
							"type": "uint256"
						},
						{
							"internalType": "uint256",
							"name": "lowValue",
							"type": "uint256"
						},
						{
							"internalType": "uint256",
							"name": "medValue",
							"type": "uint256"
						},
						{
							"internalType": "uint256",
							"name": "highValue",
							"type": "uint256"
						},
						{
							"internalType": "uint256",
							"name": "totalValue",
							"type": "uint256"
						},
						{
							"internalType": "uint256",
							"name": "totalDeposited",
							"type": "uint256"
						},
						{
							"internalType": "int256",
							"name": "profitLoss",
							"type": "int256"
						}
					],
					"stateMutability": "view",
					"type": "function"
				},
				{
					"inputs": [
						{
							"internalType": "address",
							"name": "user",
							"type": "address"
						}
					],
					"name": "getUserTotalValue",
					"outputs": [
						{
							"internalType": "uint256",
							"name": "",
							"type": "uint256"
						}
					],
					"stateMutability": "view",
					"type": "function"
				},
				{
					"inputs": [
						{
							"internalType": "address",
							"name": "user",
							"type": "address"
						}
					],
					"name": "getUserVaultShares",
					"outputs": [
						{
							"internalType": "uint256",
							"name": "lowShares",
							"type": "uint256"
						},
						{
							"internalType": "uint256",
							"name": "medShares",
							"type": "uint256"
						},
						{
							"internalType": "uint256",
							"name": "highShares",
							"type": "uint256"
						}
					],
					"stateMutability": "view",
					"type": "function"
				},
				{
					"inputs": [],
					"name": "getVaultAPYs",
					"outputs": [
						{
							"internalType": "uint256",
							"name": "lowAPY",
							"type": "uint256"
						},
						{
							"internalType": "uint256",
							"name": "medAPY",
							"type": "uint256"
						},
						{
							"internalType": "uint256",
							"name": "highAPY",
							"type": "uint256"
						}
					],
					"stateMutability": "view",
					"type": "function"
				},
				{
					"inputs": [],
					"name": "getVaults",
					"outputs": [
						{
							"internalType": "address",
							"name": "low",
							"type": "address"
						},
						{
							"internalType": "address",
							"name": "med",
							"type": "address"
						},
						{
							"internalType": "address",
							"name": "high",
							"type": "address"
						}
					],
					"stateMutability": "view",
					"type": "function"
				},
				{
					"inputs": [],
					"name": "highRiskVault",
					"outputs": [
						{
							"internalType": "contract IVault",
							"name": "",
							"type": "address"
						}
					],
					"stateMutability": "view",
					"type": "function"
				},
				{
					"inputs": [],
					"name": "lowRiskVault",
					"outputs": [
						{
							"internalType": "contract IVault",
							"name": "",
							"type": "address"
						}
					],
					"stateMutability": "view",
					"type": "function"
				},
				{
					"inputs": [],
					"name": "medRiskVault",
					"outputs": [
						{
							"internalType": "contract IVault",
							"name": "",
							"type": "address"
						}
					],
					"stateMutability": "view",
					"type": "function"
				},
				{
					"inputs": [],
					"name": "owner",
					"outputs": [
						{
							"internalType": "address",
							"name": "",
							"type": "address"
						}
					],
					"stateMutability": "view",
					"type": "function"
				},
				{
					"inputs": [],
					"name": "rebalance",
					"outputs": [],
					"stateMutability": "nonpayable",
					"type": "function"
				},
				{
					"inputs": [],
					"name": "renounceOwnership",
					"outputs": [],
					"stateMutability": "nonpayable",
					"type": "function"
				},
				{
					"inputs": [],
					"name": "riskNFT",
					"outputs": [
						{
							"internalType": "contract IRiskNFT",
							"name": "",
							"type": "address"
						}
					],
					"stateMutability": "view",
					"type": "function"
				},
				{
					"inputs": [
						{
							"internalType": "address",
							"name": "newOwner",
							"type": "address"
						}
					],
					"name": "transferOwnership",
					"outputs": [],
					"stateMutability": "nonpayable",
					"type": "function"
				},
				{
					"inputs": [
						{
							"internalType": "address",
							"name": "",
							"type": "address"
						}
					],
					"name": "userPositions",
					"outputs": [
						{
							"internalType": "uint256",
							"name": "lowShares",
							"type": "uint256"
						},
						{
							"internalType": "uint256",
							"name": "medShares",
							"type": "uint256"
						},
						{
							"internalType": "uint256",
							"name": "highShares",
							"type": "uint256"
						},
						{
							"internalType": "uint256",
							"name": "totalDeposited",
							"type": "uint256"
						},
						{
							"internalType": "uint256",
							"name": "depositTimestamp",
							"type": "uint256"
						}
					],
					"stateMutability": "view",
					"type": "function"
				},
				{
					"inputs": [],
					"name": "withdrawAll",
					"outputs": [
						{
							"internalType": "uint256",
							"name": "totalReceived",
							"type": "uint256"
						}
					],
					"stateMutability": "nonpayable",
					"type": "function"
				},
				{
					"inputs": [
						{
							"internalType": "uint256",
							"name": "percentageBps",
							"type": "uint256"
						}
					],
					"name": "withdrawPartial",
					"outputs": [
						{
							"internalType": "uint256",
							"name": "totalReceived",
							"type": "uint256"
						}
					],
					"stateMutability": "nonpayable",
					"type": "function"
				}
			],
			"devdoc": {
				"errors": {
					"OwnableInvalidOwner(address)": [
						{
							"details": "The owner is not a valid owner account. (eg. `address(0)`)"
						}
					],
					"OwnableUnauthorizedAccount(address)": [
						{
							"details": "The caller account is not authorized to perform an operation."
						}
					],
					"ReentrancyGuardReentrantCall()": [
						{
							"details": "Unauthorized reentrant call."
						}
					],
					"SafeERC20FailedOperation(address)": [
						{
							"details": "An operation with an ERC-20 token failed."
						}
					]
				},
				"kind": "dev",
				"methods": {
					"owner()": {
						"details": "Returns the address of the current owner."
					},
					"renounceOwnership()": {
						"details": "Leaves the contract without owner. It will not be possible to call `onlyOwner` functions. Can only be called by the current owner. NOTE: Renouncing ownership will leave the contract without an owner, thereby disabling any functionality that is only available to the owner."
					},
					"transferOwnership(address)": {
						"details": "Transfers ownership of the contract to a new account (`newOwner`). Can only be called by the current owner."
					}
				},
				"version": 1
			},
			"evm": {
				"assembly": "    /* \"src/VaultRouter.sol\":677:13861  contract VaultRouter is Ownable, ReentrancyGuard {... */\n  mstore(0x40, 0x0120)\n    /* \"src/VaultRouter.sol\":1920:2621  constructor(... */\n  callvalue\n  dup1\n  iszero\n  tag_1\n  jumpi\n  revert(0x00, 0x00)\ntag_1:\n  pop\n  mload(0x40)\n  sub(codesize, bytecodeSize)\n  dup1\n  bytecodeSize\n  dup4\n  codecopy\n  dup2\n  dup2\n  add\n  0x40\n  mstore\n  dup2\n  add\n  swap1\n  tag_2\n  swap2\n  swap1\n  tag_3\n  jump\t// in\ntag_2:\n    /* \"src/VaultRouter.sol\":2097:2107  msg.sender */\n  caller\n    /* \"@openzeppelin/contracts/access/Ownable.sol\":1297:1298  0 */\n  0x00\n    /* \"@openzeppelin/contracts/access/Ownable.sol\":1273:1299  initialOwner == address(0) */\n  0xffffffffffffffffffffffffffffffffffffffff\n  and\n    /* \"@openzeppelin/contracts/access/Ownable.sol\":1273:1285  initialOwner */\n  dup2\n    /* \"@openzeppelin/contracts/access/Ownable.sol\":1273:1299  initialOwner == address(0) */\n  0xffffffffffffffffffffffffffffffffffffffff\n  and\n  sub\n    /* \"@openzeppelin/contracts/access/Ownable.sol\":1269:1364  if (initialOwner == address(0)) {... */\n  tag_8\n  jumpi\n    /* \"@openzeppelin/contracts/access/Ownable.sol\":1350:1351  0 */\n  0x00\n    /* \"@openzeppelin/contracts/access/Ownable.sol\":1322:1353  OwnableInvalidOwner(address(0)) */\n  mload(0x40)\n  0x1e4fbdf700000000000000000000000000000000000000000000000000000000\n  dup2\n  mstore\n  0x04\n  add\n  tag_9\n  swap2\n  swap1\n  tag_10\n  jump\t// in\ntag_9:\n  mload(0x40)\n  dup1\n  swap2\n  sub\n  swap1\n  revert\n    /* \"@openzeppelin/contracts/access/Ownable.sol\":1269:1364  if (initialOwner == address(0)) {... */\ntag_8:\n    /* \"@openzeppelin/contracts/access/Ownable.sol\":1373:1405  _transferOwnership(initialOwner) */\n  tag_11\n    /* \"@openzeppelin/contracts/access/Ownable.sol\":1392:1404  initialOwner */\n  dup2\n    /* \"@openzeppelin/contracts/access/Ownable.sol\":1373:1391  _transferOwnership */\n  shl(0x20, tag_12)\n    /* \"@openzeppelin/contracts/access/Ownable.sol\":1373:1405  _transferOwnership(initialOwner) */\n  0x20\n  shr\n  jump\t// in\ntag_11:\n    /* \"@openzeppelin/contracts/access/Ownable.sol\":1225:1412  constructor(address initialOwner) {... */\n  pop\n    /* \"@openzeppelin/contracts/utils/ReentrancyGuard.sol\":2365:2366  1 */\n  0x01\n    /* \"@openzeppelin/contracts/utils/ReentrancyGuard.sol\":2539:2585  _reentrancyGuardStorageSlot().getUint256Slot() */\n  tag_14\n    /* \"@openzeppelin/contracts/utils/ReentrancyGuard.sol\":2539:2568  _reentrancyGuardStorageSlot() */\n  tag_15\n    /* \"@openzeppelin/contracts/utils/ReentrancyGuard.sol\":2539:2566  _reentrancyGuardStorageSlot */\n  shl(0x20, tag_16)\n    /* \"@openzeppelin/contracts/utils/ReentrancyGuard.sol\":2539:2568  _reentrancyGuardStorageSlot() */\n  0x20\n  shr\n  jump\t// in\ntag_15:\n    /* \"@openzeppelin/contracts/utils/ReentrancyGuard.sol\":2539:2583  _reentrancyGuardStorageSlot().getUint256Slot */\n  shl(0x20, tag_17)\n    /* \"@openzeppelin/contracts/utils/ReentrancyGuard.sol\":2539:2585  _reentrancyGuardStorageSlot().getUint256Slot() */\n  0x20\n  shr\n  jump\t// in\ntag_14:\n    /* \"@openzeppelin/contracts/utils/ReentrancyGuard.sol\":2539:2591  _reentrancyGuardStorageSlot().getUint256Slot().value */\n  0x00\n  add\n    /* \"@openzeppelin/contracts/utils/ReentrancyGuard.sol\":2539:2605  _reentrancyGuardStorageSlot().getUint256Slot().value = NOT_ENTERED */\n  dup2\n  swap1\n  sstore\n  pop\n    /* \"src/VaultRouter.sol\":2161:2162  0 */\n  0x00\n    /* \"src/VaultRouter.sol\":2136:2163  _depositToken == address(0) */\n  0xffffffffffffffffffffffffffffffffffffffff\n  and\n    /* \"src/VaultRouter.sol\":2136:2149  _depositToken */\n  dup6\n    /* \"src/VaultRouter.sol\":2136:2163  _depositToken == address(0) */\n  0xffffffffffffffffffffffffffffffffffffffff\n  and\n  eq\n    /* \"src/VaultRouter.sol\":2136:2201  _depositToken == address(0) ||... */\n  dup1\n  tag_19\n  jumpi\n  pop\n    /* \"src/VaultRouter.sol\":2199:2200  0 */\n  0x00\n    /* \"src/VaultRouter.sol\":2179:2201  _riskNFT == address(0) */\n  0xffffffffffffffffffffffffffffffffffffffff\n  and\n    /* \"src/VaultRouter.sol\":2179:2187  _riskNFT */\n  dup5\n    /* \"src/VaultRouter.sol\":2179:2201  _riskNFT == address(0) */\n  0xffffffffffffffffffffffffffffffffffffffff\n  and\n  eq\n    /* \"src/VaultRouter.sol\":2136:2201  _depositToken == address(0) ||... */\ntag_19:\n    /* \"src/VaultRouter.sol\":2136:2244  _depositToken == address(0) ||... */\n  dup1\n  tag_20\n  jumpi\n  pop\n    /* \"src/VaultRouter.sol\":2242:2243  0 */\n  0x00\n    /* \"src/VaultRouter.sol\":2217:2244  _lowRiskVault == address(0) */\n  0xffffffffffffffffffffffffffffffffffffffff\n  and\n    /* \"src/VaultRouter.sol\":2217:2230  _lowRiskVault */\n  dup4\n    /* \"src/VaultRouter.sol\":2217:2244  _lowRiskVault == address(0) */\n  0xffffffffffffffffffffffffffffffffffffffff\n  and\n  eq\n    /* \"src/VaultRouter.sol\":2136:2244  _depositToken == address(0) ||... */\ntag_20:\n    /* \"src/VaultRouter.sol\":2136:2287  _depositToken == address(0) ||... */\n  dup1\n  tag_21\n  jumpi\n  pop\n    /* \"src/VaultRouter.sol\":2285:2286  0 */\n  0x00\n    /* \"src/VaultRouter.sol\":2260:2287  _medRiskVault == address(0) */\n  0xffffffffffffffffffffffffffffffffffffffff\n  and\n    /* \"src/VaultRouter.sol\":2260:2273  _medRiskVault */\n  dup3\n    /* \"src/VaultRouter.sol\":2260:2287  _medRiskVault == address(0) */\n  0xffffffffffffffffffffffffffffffffffffffff\n  and\n  eq\n    /* \"src/VaultRouter.sol\":2136:2287  _depositToken == address(0) ||... */\ntag_21:\n    /* \"src/VaultRouter.sol\":2136:2331  _depositToken == address(0) ||... */\n  dup1\n  tag_22\n  jumpi\n  pop\n    /* \"src/VaultRouter.sol\":2329:2330  0 */\n  0x00\n    /* \"src/VaultRouter.sol\":2303:2331  _highRiskVault == address(0) */\n  0xffffffffffffffffffffffffffffffffffffffff\n  and\n    /* \"src/VaultRouter.sol\":2303:2317  _highRiskVault */\n  dup2\n    /* \"src/VaultRouter.sol\":2303:2331  _highRiskVault == address(0) */\n  0xffffffffffffffffffffffffffffffffffffffff\n  and\n  eq\n    /* \"src/VaultRouter.sol\":2136:2331  _depositToken == address(0) ||... */\ntag_22:\n    /* \"src/VaultRouter.sol\":2119:2390  if (... */\n  iszero\n  tag_23\n  jumpi\n    /* \"src/VaultRouter.sol\":2363:2379  InvalidAddress() */\n  mload(0x40)\n  0xe6c4247b00000000000000000000000000000000000000000000000000000000\n  dup2\n  mstore\n  0x04\n  add\n  mload(0x40)\n  dup1\n  swap2\n  sub\n  swap1\n  revert\n    /* \"src/VaultRouter.sol\":2119:2390  if (... */\ntag_23:\n    /* \"src/VaultRouter.sol\":2422:2435  _depositToken */\n  dup5\n    /* \"src/VaultRouter.sol\":2400:2436  depositToken = IERC20(_depositToken) */\n  0xffffffffffffffffffffffffffffffffffffffff\n  and\n  0x80\n  dup2\n  0xffffffffffffffffffffffffffffffffffffffff\n  and\n  dup2\n  mstore\n  pop\n  pop\n    /* \"src/VaultRouter.sol\":2465:2473  _riskNFT */\n  dup4\n    /* \"src/VaultRouter.sol\":2446:2474  riskNFT = IRiskNFT(_riskNFT) */\n  0xffffffffffffffffffffffffffffffffffffffff\n  and\n  0xa0\n  dup2\n  0xffffffffffffffffffffffffffffffffffffffff\n  and\n  dup2\n  mstore\n  pop\n  pop\n    /* \"src/VaultRouter.sol\":2506:2519  _lowRiskVault */\n  dup3\n    /* \"src/VaultRouter.sol\":2484:2520  lowRiskVault = IVault(_lowRiskVault) */\n  0xffffffffffffffffffffffffffffffffffffffff\n  and\n  0xc0\n  dup2\n  0xffffffffffffffffffffffffffffffffffffffff\n  and\n  dup2\n  mstore\n  pop\n  pop\n    /* \"src/VaultRouter.sol\":2552:2565  _medRiskVault */\n  dup2\n    /* \"src/VaultRouter.sol\":2530:2566  medRiskVault = IVault(_medRiskVault) */\n  0xffffffffffffffffffffffffffffffffffffffff\n  and\n  0xe0\n  dup2\n  0xffffffffffffffffffffffffffffffffffffffff\n  and\n  dup2\n  mstore\n  pop\n  pop\n    /* \"src/VaultRouter.sol\":2599:2613  _highRiskVault */\n  dup1\n    /* \"src/VaultRouter.sol\":2576:2614  highRiskVault = IVault(_highRiskVault) */\n  0xffffffffffffffffffffffffffffffffffffffff\n  and\n  0x0100\n  dup2\n  0xffffffffffffffffffffffffffffffffffffffff\n  and\n  dup2\n  mstore\n  pop\n  pop\n    /* \"src/VaultRouter.sol\":1920:2621  constructor(... */\n  pop\n  pop\n  pop\n  pop\n  pop\n    /* \"src/VaultRouter.sol\":677:13861  contract VaultRouter is Ownable, ReentrancyGuard {... */\n  jump(tag_24)\n    /* \"@openzeppelin/contracts/access/Ownable.sol\":2912:3099  function _transferOwnership(address newOwner) internal virtual {... */\ntag_12:\n    /* \"@openzeppelin/contracts/access/Ownable.sol\":2985:3001  address oldOwner */\n  0x00\n    /* \"@openzeppelin/contracts/access/Ownable.sol\":3004:3010  _owner */\n  0x00\n  0x00\n  swap1\n  sload\n  swap1\n  0x0100\n  exp\n  swap1\n  div\n  0xffffffffffffffffffffffffffffffffffffffff\n  and\n    /* \"@openzeppelin/contracts/access/Ownable.sol\":2985:3010  address oldOwner = _owner */\n  swap1\n  pop\n    /* \"@openzeppelin/contracts/access/Ownable.sol\":3029:3037  newOwner */\n  dup2\n    /* \"@openzeppelin/contracts/access/Ownable.sol\":3020:3026  _owner */\n  0x00\n  0x00\n    /* \"@openzeppelin/contracts/access/Ownable.sol\":3020:3037  _owner = newOwner */\n  0x0100\n  exp\n  dup2\n  sload\n  dup2\n  0xffffffffffffffffffffffffffffffffffffffff\n  mul\n  not\n  and\n  swap1\n  dup4\n  0xffffffffffffffffffffffffffffffffffffffff\n  and\n  mul\n  or\n  swap1\n  sstore\n  pop\n    /* \"@openzeppelin/contracts/access/Ownable.sol\":3083:3091  newOwner */\n  dup2\n    /* \"@openzeppelin/contracts/access/Ownable.sol\":3052:3092  OwnershipTransferred(oldOwner, newOwner) */\n  0xffffffffffffffffffffffffffffffffffffffff\n  and\n    /* \"@openzeppelin/contracts/access/Ownable.sol\":3073:3081  oldOwner */\n  dup2\n    /* \"@openzeppelin/contracts/access/Ownable.sol\":3052:3092  OwnershipTransferred(oldOwner, newOwner) */\n  0xffffffffffffffffffffffffffffffffffffffff\n  and\n  0x8be0079c531659141344cd1fd0a4f28419497f9722a3daafe3b4186f6b6457e0\n  mload(0x40)\n  mload(0x40)\n  dup1\n  swap2\n  sub\n  swap1\n  log3\n    /* \"@openzeppelin/contracts/access/Ownable.sol\":2975:3099  {... */\n  pop\n    /* \"@openzeppelin/contracts/access/Ownable.sol\":2912:3099  function _transferOwnership(address newOwner) internal virtual {... */\n  pop\n  jump\t// out\n    /* \"@openzeppelin/contracts/utils/ReentrancyGuard.sol\":4636:4763  function _reentrancyGuardStorageSlot() internal pure virtual returns (bytes32) {... */\ntag_16:\n    /* \"@openzeppelin/contracts/utils/ReentrancyGuard.sol\":4706:4713  bytes32 */\n  0x00\n    /* \"@openzeppelin/contracts/utils/ReentrancyGuard.sol\":1505:1571  0x9b779b17422d0df92223018b32b4d1fa46e071723d6817e2486d003becc55f00 */\n  0x9b779b17422d0df92223018b32b4d1fa46e071723d6817e2486d003becc55f00\n    /* \"@openzeppelin/contracts/utils/ReentrancyGuard.sol\":4732:4756  REENTRANCY_GUARD_STORAGE */\n  0x00\n  shl\n    /* \"@openzeppelin/contracts/utils/ReentrancyGuard.sol\":4725:4756  return REENTRANCY_GUARD_STORAGE */\n  swap1\n  pop\n    /* \"@openzeppelin/contracts/utils/ReentrancyGuard.sol\":4636:4763  function _reentrancyGuardStorageSlot() internal pure virtual returns (bytes32) {... */\n  swap1\n  jump\t// out\n    /* \"@openzeppelin/contracts/utils/StorageSlot.sol\":2679:2842  function getUint256Slot(bytes32 slot) internal pure returns (Uint256Slot storage r) {... */\ntag_17:\n    /* \"@openzeppelin/contracts/utils/StorageSlot.sol\":2740:2761  Uint256Slot storage r */\n  0x00\n    /* \"@openzeppelin/contracts/utils/StorageSlot.sol\":2822:2826  slot */\n  dup2\n    /* \"@openzeppelin/contracts/utils/StorageSlot.sol\":2812:2826  r.slot := slot */\n  swap1\n  pop\n    /* \"@openzeppelin/contracts/utils/StorageSlot.sol\":2679:2842  function getUint256Slot(bytes32 slot) internal pure returns (Uint256Slot storage r) {... */\n  swap2\n  swap1\n  pop\n  jump\t// out\n    /* \"#utility.yul\":88:205   */\ntag_29:\n    /* \"#utility.yul\":197:198   */\n  0x00\n    /* \"#utility.yul\":194:195   */\n  0x00\n    /* \"#utility.yul\":187:199   */\n  revert\n    /* \"#utility.yul\":334:460   */\ntag_31:\n    /* \"#utility.yul\":371:378   */\n  0x00\n    /* \"#utility.yul\":411:453   */\n  0xffffffffffffffffffffffffffffffffffffffff\n    /* \"#utility.yul\":404:409   */\n  dup3\n    /* \"#utility.yul\":400:454   */\n  and\n    /* \"#utility.yul\":389:454   */\n  swap1\n  pop\n    /* \"#utility.yul\":334:460   */\n  swap2\n  swap1\n  pop\n  jump\t// out\n    /* \"#utility.yul\":466:562   */\ntag_32:\n    /* \"#utility.yul\":503:510   */\n  0x00\n    /* \"#utility.yul\":532:556   */\n  tag_42\n    /* \"#utility.yul\":550:555   */\n  dup3\n    /* \"#utility.yul\":532:556   */\n  tag_31\n  jump\t// in\ntag_42:\n    /* \"#utility.yul\":521:556   */\n  swap1\n  pop\n    /* \"#utility.yul\":466:562   */\n  swap2\n  swap1\n  pop\n  jump\t// out\n    /* \"#utility.yul\":568:690   */\ntag_33:\n    /* \"#utility.yul\":641:665   */\n  tag_44\n    /* \"#utility.yul\":659:664   */\n  dup2\n    /* \"#utility.yul\":641:665   */\n  tag_32\n  jump\t// in\ntag_44:\n    /* \"#utility.yul\":634:639   */\n  dup2\n    /* \"#utility.yul\":631:666   */\n  eq\n    /* \"#utility.yul\":621:684   */\n  tag_45\n  jumpi\n    /* \"#utility.yul\":680:681   */\n  0x00\n    /* \"#utility.yul\":677:678   */\n  0x00\n    /* \"#utility.yul\":670:682   */\n  revert\n    /* \"#utility.yul\":621:684   */\ntag_45:\n    /* \"#utility.yul\":568:690   */\n  pop\n  jump\t// out\n    /* \"#utility.yul\":696:839   */\ntag_34:\n    /* \"#utility.yul\":753:758   */\n  0x00\n    /* \"#utility.yul\":784:790   */\n  dup2\n    /* \"#utility.yul\":778:791   */\n  mload\n    /* \"#utility.yul\":769:791   */\n  swap1\n  pop\n    /* \"#utility.yul\":800:833   */\n  tag_47\n    /* \"#utility.yul\":827:832   */\n  dup2\n    /* \"#utility.yul\":800:833   */\n  tag_33\n  jump\t// in\ntag_47:\n    /* \"#utility.yul\":696:839   */\n  swap3\n  swap2\n  pop\n  pop\n  jump\t// out\n    /* \"#utility.yul\":845:1822   */\ntag_3:\n    /* \"#utility.yul\":951:957   */\n  0x00\n    /* \"#utility.yul\":959:965   */\n  0x00\n    /* \"#utility.yul\":967:973   */\n  0x00\n    /* \"#utility.yul\":975:981   */\n  0x00\n    /* \"#utility.yul\":983:989   */\n  0x00\n    /* \"#utility.yul\":1032:1035   */\n  0xa0\n    /* \"#utility.yul\":1020:1029   */\n  dup7\n    /* \"#utility.yul\":1011:1018   */\n  dup9\n    /* \"#utility.yul\":1007:1030   */\n  sub\n    /* \"#utility.yul\":1003:1036   */\n  slt\n    /* \"#utility.yul\":1000:1120   */\n  iszero\n  tag_49\n  jumpi\n    /* \"#utility.yul\":1039:1118   */\n  tag_50\n  tag_29\n  jump\t// in\ntag_50:\n    /* \"#utility.yul\":1000:1120   */\ntag_49:\n    /* \"#utility.yul\":1159:1160   */\n  0x00\n    /* \"#utility.yul\":1184:1248   */\n  tag_51\n    /* \"#utility.yul\":1240:1247   */\n  dup9\n    /* \"#utility.yul\":1231:1237   */\n  dup3\n    /* \"#utility.yul\":1220:1229   */\n  dup10\n    /* \"#utility.yul\":1216:1238   */\n  add\n    /* \"#utility.yul\":1184:1248   */\n  tag_34\n  jump\t// in\ntag_51:\n    /* \"#utility.yul\":1174:1248   */\n  swap6\n  pop\n    /* \"#utility.yul\":1130:1258   */\n  pop\n    /* \"#utility.yul\":1297:1299   */\n  0x20\n    /* \"#utility.yul\":1323:1387   */\n  tag_52\n    /* \"#utility.yul\":1379:1386   */\n  dup9\n    /* \"#utility.yul\":1370:1376   */\n  dup3\n    /* \"#utility.yul\":1359:1368   */\n  dup10\n    /* \"#utility.yul\":1355:1377   */\n  add\n    /* \"#utility.yul\":1323:1387   */\n  tag_34\n  jump\t// in\ntag_52:\n    /* \"#utility.yul\":1313:1387   */\n  swap5\n  pop\n    /* \"#utility.yul\":1268:1397   */\n  pop\n    /* \"#utility.yul\":1436:1438   */\n  0x40\n    /* \"#utility.yul\":1462:1526   */\n  tag_53\n    /* \"#utility.yul\":1518:1525   */\n  dup9\n    /* \"#utility.yul\":1509:1515   */\n  dup3\n    /* \"#utility.yul\":1498:1507   */\n  dup10\n    /* \"#utility.yul\":1494:1516   */\n  add\n    /* \"#utility.yul\":1462:1526   */\n  tag_34\n  jump\t// in\ntag_53:\n    /* \"#utility.yul\":1452:1526   */\n  swap4\n  pop\n    /* \"#utility.yul\":1407:1536   */\n  pop\n    /* \"#utility.yul\":1575:1577   */\n  0x60\n    /* \"#utility.yul\":1601:1665   */\n  tag_54\n    /* \"#utility.yul\":1657:1664   */\n  dup9\n    /* \"#utility.yul\":1648:1654   */\n  dup3\n    /* \"#utility.yul\":1637:1646   */\n  dup10\n    /* \"#utility.yul\":1633:1655   */\n  add\n    /* \"#utility.yul\":1601:1665   */\n  tag_34\n  jump\t// in\ntag_54:\n    /* \"#utility.yul\":1591:1665   */\n  swap3\n  pop\n    /* \"#utility.yul\":1546:1675   */\n  pop\n    /* \"#utility.yul\":1714:1717   */\n  0x80\n    /* \"#utility.yul\":1741:1805   */\n  tag_55\n    /* \"#utility.yul\":1797:1804   */\n  dup9\n    /* \"#utility.yul\":1788:1794   */\n  dup3\n    /* \"#utility.yul\":1777:1786   */\n  dup10\n    /* \"#utility.yul\":1773:1795   */\n  add\n    /* \"#utility.yul\":1741:1805   */\n  tag_34\n  jump\t// in\ntag_55:\n    /* \"#utility.yul\":1731:1805   */\n  swap2\n  pop\n    /* \"#utility.yul\":1685:1815   */\n  pop\n    /* \"#utility.yul\":845:1822   */\n  swap3\n  swap6\n  pop\n  swap3\n  swap6\n  swap1\n  swap4\n  pop\n  jump\t// out\n    /* \"#utility.yul\":1828:1946   */\ntag_35:\n    /* \"#utility.yul\":1915:1939   */\n  tag_57\n    /* \"#utility.yul\":1933:1938   */\n  dup2\n    /* \"#utility.yul\":1915:1939   */\n  tag_32\n  jump\t// in\ntag_57:\n    /* \"#utility.yul\":1910:1913   */\n  dup3\n    /* \"#utility.yul\":1903:1940   */\n  mstore\n    /* \"#utility.yul\":1828:1946   */\n  pop\n  pop\n  jump\t// out\n    /* \"#utility.yul\":1952:2174   */\ntag_10:\n    /* \"#utility.yul\":2045:2049   */\n  0x00\n    /* \"#utility.yul\":2083:2085   */\n  0x20\n    /* \"#utility.yul\":2072:2081   */\n  dup3\n    /* \"#utility.yul\":2068:2086   */\n  add\n    /* \"#utility.yul\":2060:2086   */\n  swap1\n  pop\n    /* \"#utility.yul\":2096:2167   */\n  tag_59\n    /* \"#utility.yul\":2164:2165   */\n  0x00\n    /* \"#utility.yul\":2153:2162   */\n  dup4\n    /* \"#utility.yul\":2149:2166   */\n  add\n    /* \"#utility.yul\":2140:2146   */\n  dup5\n    /* \"#utility.yul\":2096:2167   */\n  tag_35\n  jump\t// in\ntag_59:\n    /* \"#utility.yul\":1952:2174   */\n  swap3\n  swap2\n  pop\n  pop\n  jump\t// out\n    /* \"src/VaultRouter.sol\":677:13861  contract VaultRouter is Ownable, ReentrancyGuard {... */\ntag_24:\n  mload(0x80)\n  mload(0xa0)\n  mload(0xc0)\n  mload(0xe0)\n  mload(0x0100)\n  codecopy(0x00, dataOffset(sub_0), dataSize(sub_0))\n  0x00\n  assignImmutable(\"0x574c9b24b1330b680473d85a29c8e5ee10c43b3c92431d577a8acff668b9d6f0\")\n  0x00\n  assignImmutable(\"0xa06d50e93635bb1f7f7f3a59783cc967db09d702f4506243a2828fafdfb3c2b8\")\n  0x00\n  assignImmutable(\"0x6f489c2bf7f347bf2b17ac1afc3fad1f74e54eb0820bc2f91d3826bbddcf88a7\")\n  0x00\n  assignImmutable(\"0x3b5e79d464b62561753d4e193bbf44b670e74a211dfadb82af01f3cae1ba996a\")\n  0x00\n  assignImmutable(\"0x39464b971e976f39f397b655477ab48e3c9a80307c286737f0e421ce6ddce354\")\n  return(0x00, dataSize(sub_0))\nstop\n\nsub_0: assembly {\n        /* \"src/VaultRouter.sol\":677:13861  contract VaultRouter is Ownable, ReentrancyGuard {... */\n      mstore(0x40, 0x80)\n      callvalue\n      dup1\n      iszero\n      tag_1\n      jumpi\n      revert(0x00, 0x00)\n    tag_1:\n      pop\n      jumpi(tag_2, lt(calldatasize, 0x04))\n      shr(0xe0, calldataload(0x00))\n      dup1\n      0x7ebb8971\n      gt\n      tag_23\n      jumpi\n      dup1\n      0x9e79f7e7\n      gt\n      tag_24\n      jumpi\n      dup1\n      0x9e79f7e7\n      eq\n      tag_18\n      jumpi\n      dup1\n      0xaf3f5e22\n      eq\n      tag_19\n      jumpi\n      dup1\n      0xb6b55f25\n      eq\n      tag_20\n      jumpi\n      dup1\n      0xc89039c5\n      eq\n      tag_21\n      jumpi\n      dup1\n      0xf2fde38b\n      eq\n      tag_22\n      jumpi\n      jump(tag_2)\n    tag_24:\n      dup1\n      0x7ebb8971\n      eq\n      tag_13\n      jumpi\n      dup1\n      0x853828b6\n      eq\n      tag_14\n      jumpi\n      dup1\n      0x8da5cb5b\n      eq\n      tag_15\n      jumpi\n      dup1\n      0x8febd76e\n      eq\n      tag_16\n      jumpi\n      dup1\n      0x996220eb\n      eq\n      tag_17\n      jumpi\n      jump(tag_2)\n    tag_23:\n      dup1\n      0x613cf420\n      gt\n      tag_25\n      jumpi\n      dup1\n      0x613cf420\n      eq\n      tag_8\n      jumpi\n      dup1\n      0x66c0757e\n      eq\n      tag_9\n      jumpi\n      dup1\n      0x715018a6\n      eq\n      tag_10\n      jumpi\n      dup1\n      0x771aceef\n      eq\n      tag_11\n      jumpi\n      dup1\n      0x7d7c2a1c\n      eq\n      tag_12\n      jumpi\n      jump(tag_2)\n    tag_25:\n      dup1\n      0x1211540c\n      eq\n      tag_3\n      jumpi\n      dup1\n      0x2ca8ab4c\n      eq\n      tag_4\n      jumpi\n      dup1\n      0x44d00f82\n      eq\n      tag_5\n      jumpi\n      dup1\n      0x59b9a642\n      eq\n      tag_6\n      jumpi\n      dup1\n      0x5b7c2dad\n      eq\n      tag_7\n      jumpi\n    tag_2:\n      revert(0x00, 0x00)\n        /* \"src/VaultRouter.sol\":5487:7292  function withdrawPartial(... */\n    tag_3:\n      tag_26\n      0x04\n      dup1\n      calldatasize\n      sub\n      dup2\n      add\n      swap1\n      tag_27\n      swap2\n      swap1\n      tag_28\n      jump\t// in\n    tag_27:\n      tag_29\n      jump\t// in\n    tag_26:\n      mload(0x40)\n      tag_30\n      swap2\n      swap1\n      tag_31\n      jump\t// in\n    tag_30:\n      mload(0x40)\n      dup1\n      swap2\n      sub\n      swap1\n      return\n        /* \"src/VaultRouter.sol\":1112:1149  IVault public immutable highRiskVault */\n    tag_4:\n      tag_32\n      tag_33\n      jump\t// in\n    tag_32:\n      mload(0x40)\n      tag_34\n      swap2\n      swap1\n      tag_35\n      jump\t// in\n    tag_34:\n      mload(0x40)\n      dup1\n      swap2\n      sub\n      swap1\n      return\n        /* \"src/VaultRouter.sol\":11725:11977  function getVaults()... */\n    tag_5:\n      tag_36\n      tag_37\n      jump\t// in\n    tag_36:\n      mload(0x40)\n      tag_38\n      swap4\n      swap3\n      swap2\n      swap1\n      tag_39\n      jump\t// in\n    tag_38:\n      mload(0x40)\n      dup1\n      swap2\n      sub\n      swap1\n      return\n        /* \"src/VaultRouter.sol\":13577:13859  function getVaultAPYs()... */\n    tag_6:\n      tag_40\n      tag_41\n      jump\t// in\n    tag_40:\n      mload(0x40)\n      tag_42\n      swap4\n      swap3\n      swap2\n      swap1\n      tag_43\n      jump\t// in\n    tag_42:\n      mload(0x40)\n      dup1\n      swap2\n      sub\n      swap1\n      return\n        /* \"src/VaultRouter.sol\":10348:11423  function getUserPosition(... */\n    tag_7:\n      tag_44\n      0x04\n      dup1\n      calldatasize\n      sub\n      dup2\n      add\n      swap1\n      tag_45\n      swap2\n      swap1\n      tag_46\n      jump\t// in\n    tag_45:\n      tag_47\n      jump\t// in\n    tag_44:\n      mload(0x40)\n      tag_48\n      swap10\n      swap9\n      swap8\n      swap7\n      swap6\n      swap5\n      swap4\n      swap3\n      swap2\n      swap1\n      tag_49\n      jump\t// in\n    tag_48:\n      mload(0x40)\n      dup1\n      swap2\n      sub\n      swap1\n      return\n        /* \"src/VaultRouter.sol\":1156:1209  mapping(address => UserPosition) public userPositions */\n    tag_8:\n      tag_50\n      0x04\n      dup1\n      calldatasize\n      sub\n      dup2\n      add\n      swap1\n      tag_51\n      swap2\n      swap1\n      tag_46\n      jump\t// in\n    tag_51:\n      tag_52\n      jump\t// in\n    tag_50:\n      mload(0x40)\n      tag_53\n      swap6\n      swap5\n      swap4\n      swap3\n      swap2\n      swap1\n      tag_54\n      jump\t// in\n    tag_53:\n      mload(0x40)\n      dup1\n      swap2\n      sub\n      swap1\n      return\n        /* \"src/VaultRouter.sol\":988:1021  IRiskNFT public immutable riskNFT */\n    tag_9:\n      tag_55\n      tag_56\n      jump\t// in\n    tag_55:\n      mload(0x40)\n      tag_57\n      swap2\n      swap1\n      tag_58\n      jump\t// in\n    tag_57:\n      mload(0x40)\n      dup1\n      swap2\n      sub\n      swap1\n      return\n        /* \"@openzeppelin/contracts/access/Ownable.sol\":2293:2394  function renounceOwnership() public virtual onlyOwner {... */\n    tag_10:\n      tag_59\n      tag_60\n      jump\t// in\n    tag_59:\n      stop\n        /* \"src/VaultRouter.sol\":13116:13571  function getProtocolStats()... */\n    tag_11:\n      tag_61\n      tag_62\n      jump\t// in\n    tag_61:\n      mload(0x40)\n      tag_63\n      swap5\n      swap4\n      swap3\n      swap2\n      swap1\n      tag_64\n      jump\t// in\n    tag_63:\n      mload(0x40)\n      dup1\n      swap2\n      sub\n      swap1\n      return\n        /* \"src/VaultRouter.sol\":7298:9789  function rebalance() external nonReentrant {... */\n    tag_12:\n      tag_65\n      tag_66\n      jump\t// in\n    tag_65:\n      stop\n        /* \"src/VaultRouter.sol\":11983:13110  function getUserEstimatedAPY(address user) external view returns (uint256) {... */\n    tag_13:\n      tag_67\n      0x04\n      dup1\n      calldatasize\n      sub\n      dup2\n      add\n      swap1\n      tag_68\n      swap2\n      swap1\n      tag_46\n      jump\t// in\n    tag_68:\n      tag_69\n      jump\t// in\n    tag_67:\n      mload(0x40)\n      tag_70\n      swap2\n      swap1\n      tag_31\n      jump\t// in\n    tag_70:\n      mload(0x40)\n      dup1\n      swap2\n      sub\n      swap1\n      return\n        /* \"src/VaultRouter.sol\":4164:5481  function withdrawAll()... */\n    tag_14:\n      tag_71\n      tag_72\n      jump\t// in\n    tag_71:\n      mload(0x40)\n      tag_73\n      swap2\n      swap1\n      tag_31\n      jump\t// in\n    tag_73:\n      mload(0x40)\n      dup1\n      swap2\n      sub\n      swap1\n      return\n        /* \"@openzeppelin/contracts/access/Ownable.sol\":1638:1723  function owner() public view virtual returns (address) {... */\n    tag_15:\n      tag_74\n      tag_75\n      jump\t// in\n    tag_74:\n      mload(0x40)\n      tag_76\n      swap2\n      swap1\n      tag_77\n      jump\t// in\n    tag_76:\n      mload(0x40)\n      dup1\n      swap2\n      sub\n      swap1\n      return\n        /* \"src/VaultRouter.sol\":1028:1064  IVault public immutable lowRiskVault */\n    tag_16:\n      tag_78\n      tag_79\n      jump\t// in\n    tag_78:\n      mload(0x40)\n      tag_80\n      swap2\n      swap1\n      tag_35\n      jump\t// in\n    tag_80:\n      mload(0x40)\n      dup1\n      swap2\n      sub\n      swap1\n      return\n        /* \"src/VaultRouter.sol\":11429:11719  function getUserVaultShares(... */\n    tag_17:\n      tag_81\n      0x04\n      dup1\n      calldatasize\n      sub\n      dup2\n      add\n      swap1\n      tag_82\n      swap2\n      swap1\n      tag_46\n      jump\t// in\n    tag_82:\n      tag_83\n      jump\t// in\n    tag_81:\n      mload(0x40)\n      tag_84\n      swap4\n      swap3\n      swap2\n      swap1\n      tag_43\n      jump\t// in\n    tag_84:\n      mload(0x40)\n      dup1\n      swap2\n      sub\n      swap1\n      return\n        /* \"src/VaultRouter.sol\":1070:1106  IVault public immutable medRiskVault */\n    tag_18:\n      tag_85\n      tag_86\n      jump\t// in\n    tag_85:\n      mload(0x40)\n      tag_87\n      swap2\n      swap1\n      tag_35\n      jump\t// in\n    tag_87:\n      mload(0x40)\n      dup1\n      swap2\n      sub\n      swap1\n      return\n        /* \"src/VaultRouter.sol\":9795:10342  function getUserTotalValue(address user) public view returns (uint256) {... */\n    tag_19:\n      tag_88\n      0x04\n      dup1\n      calldatasize\n      sub\n      dup2\n      add\n      swap1\n      tag_89\n      swap2\n      swap1\n      tag_46\n      jump\t// in\n    tag_89:\n      tag_90\n      jump\t// in\n    tag_88:\n      mload(0x40)\n      tag_91\n      swap2\n      swap1\n      tag_31\n      jump\t// in\n    tag_91:\n      mload(0x40)\n      dup1\n      swap2\n      sub\n      swap1\n      return\n        /* \"src/VaultRouter.sol\":2627:4158  function deposit(... */\n    tag_20:\n      tag_92\n      0x04\n      dup1\n      calldatasize\n      sub\n      dup2\n      add\n      swap1\n      tag_93\n      swap2\n      swap1\n      tag_28\n      jump\t// in\n    tag_93:\n      tag_94\n      jump\t// in\n    tag_92:\n      mload(0x40)\n      tag_95\n      swap4\n      swap3\n      swap2\n      swap1\n      tag_43\n      jump\t// in\n    tag_95:\n      mload(0x40)\n      dup1\n      swap2\n      sub\n      swap1\n      return\n        /* \"src/VaultRouter.sol\":946:982  IERC20 public immutable depositToken */\n    tag_21:\n      tag_96\n      tag_97\n      jump\t// in\n    tag_96:\n      mload(0x40)\n      tag_98\n      swap2\n      swap1\n      tag_99\n      jump\t// in\n    tag_98:\n      mload(0x40)\n      dup1\n      swap2\n      sub\n      swap1\n      return\n        /* \"@openzeppelin/contracts/access/Ownable.sol\":2543:2758  function transferOwnership(address newOwner) public virtual onlyOwner {... */\n    tag_22:\n      tag_100\n      0x04\n      dup1\n      calldatasize\n      sub\n      dup2\n      add\n      swap1\n      tag_101\n      swap2\n      swap1\n      tag_46\n      jump\t// in\n    tag_101:\n      tag_102\n      jump\t// in\n    tag_100:\n      stop\n        /* \"src/VaultRouter.sol\":5487:7292  function withdrawPartial(... */\n    tag_29:\n        /* \"src/VaultRouter.sol\":5580:5601  uint256 totalReceived */\n      0x00\n        /* \"@openzeppelin/contracts/utils/ReentrancyGuard.sol\":3023:3044  _nonReentrantBefore() */\n      tag_104\n        /* \"@openzeppelin/contracts/utils/ReentrancyGuard.sol\":3023:3042  _nonReentrantBefore */\n      tag_105\n        /* \"@openzeppelin/contracts/utils/ReentrancyGuard.sol\":3023:3044  _nonReentrantBefore() */\n      jump\t// in\n    tag_104:\n        /* \"src/VaultRouter.sol\":5634:5635  0 */\n      0x00\n        /* \"src/VaultRouter.sol\":5617:5630  percentageBps */\n      dup3\n        /* \"src/VaultRouter.sol\":5617:5635  percentageBps == 0 */\n      eq\n        /* \"src/VaultRouter.sol\":5617:5660  percentageBps == 0 || percentageBps > 10000 */\n      dup1\n      tag_107\n      jumpi\n      pop\n        /* \"src/VaultRouter.sol\":5655:5660  10000 */\n      0x2710\n        /* \"src/VaultRouter.sol\":5639:5652  percentageBps */\n      dup3\n        /* \"src/VaultRouter.sol\":5639:5660  percentageBps > 10000 */\n      gt\n        /* \"src/VaultRouter.sol\":5617:5660  percentageBps == 0 || percentageBps > 10000 */\n    tag_107:\n        /* \"src/VaultRouter.sol\":5613:5700  if (percentageBps == 0 || percentageBps > 10000)... */\n      iszero\n      tag_108\n      jumpi\n        /* \"src/VaultRouter.sol\":5681:5700  InvalidPercentage() */\n      mload(0x40)\n      0x1f3b85d300000000000000000000000000000000000000000000000000000000\n      dup2\n      mstore\n      0x04\n      add\n      mload(0x40)\n      dup1\n      swap2\n      sub\n      swap1\n      revert\n        /* \"src/VaultRouter.sol\":5613:5700  if (percentageBps == 0 || percentageBps > 10000)... */\n    tag_108:\n        /* \"src/VaultRouter.sol\":5711:5735  UserPosition storage pos */\n      0x00\n        /* \"src/VaultRouter.sol\":5738:5751  userPositions */\n      0x01\n        /* \"src/VaultRouter.sol\":5738:5763  userPositions[msg.sender] */\n      0x00\n        /* \"src/VaultRouter.sol\":5752:5762  msg.sender */\n      caller\n        /* \"src/VaultRouter.sol\":5738:5763  userPositions[msg.sender] */\n      0xffffffffffffffffffffffffffffffffffffffff\n      and\n      0xffffffffffffffffffffffffffffffffffffffff\n      and\n      dup2\n      mstore\n      0x20\n      add\n      swap1\n      dup2\n      mstore\n      0x20\n      add\n      0x00\n      keccak256\n        /* \"src/VaultRouter.sol\":5711:5763  UserPosition storage pos = userPositions[msg.sender] */\n      swap1\n      pop\n        /* \"src/VaultRouter.sol\":5794:5795  0 */\n      0x00\n        /* \"src/VaultRouter.sol\":5777:5780  pos */\n      dup2\n        /* \"src/VaultRouter.sol\":5777:5790  pos.lowShares */\n      0x00\n      add\n      sload\n        /* \"src/VaultRouter.sol\":5777:5795  pos.lowShares == 0 */\n      eq\n        /* \"src/VaultRouter.sol\":5777:5817  pos.lowShares == 0 && pos.medShares == 0 */\n      dup1\n      iszero\n      tag_109\n      jumpi\n      pop\n        /* \"src/VaultRouter.sol\":5816:5817  0 */\n      0x00\n        /* \"src/VaultRouter.sol\":5799:5802  pos */\n      dup2\n        /* \"src/VaultRouter.sol\":5799:5812  pos.medShares */\n      0x01\n      add\n      sload\n        /* \"src/VaultRouter.sol\":5799:5817  pos.medShares == 0 */\n      eq\n        /* \"src/VaultRouter.sol\":5777:5817  pos.lowShares == 0 && pos.medShares == 0 */\n    tag_109:\n        /* \"src/VaultRouter.sol\":5777:5840  pos.lowShares == 0 && pos.medShares == 0 && pos.highShares == 0 */\n      dup1\n      iszero\n      tag_110\n      jumpi\n      pop\n        /* \"src/VaultRouter.sol\":5839:5840  0 */\n      0x00\n        /* \"src/VaultRouter.sol\":5821:5824  pos */\n      dup2\n        /* \"src/VaultRouter.sol\":5821:5835  pos.highShares */\n      0x02\n      add\n      sload\n        /* \"src/VaultRouter.sol\":5821:5840  pos.highShares == 0 */\n      eq\n        /* \"src/VaultRouter.sol\":5777:5840  pos.lowShares == 0 && pos.medShares == 0 && pos.highShares == 0 */\n    tag_110:\n        /* \"src/VaultRouter.sol\":5773:5886  if (pos.lowShares == 0 && pos.medShares == 0 && pos.highShares == 0) {... */\n      iszero\n      tag_111\n      jumpi\n        /* \"src/VaultRouter.sol\":5863:5875  NoPosition() */\n      mload(0x40)\n      0xabf0f03400000000000000000000000000000000000000000000000000000000\n      dup2\n      mstore\n      0x04\n      add\n      mload(0x40)\n      dup1\n      swap2\n      sub\n      swap1\n      revert\n        /* \"src/VaultRouter.sol\":5773:5886  if (pos.lowShares == 0 && pos.medShares == 0 && pos.highShares == 0) {... */\n    tag_111:\n        /* \"src/VaultRouter.sol\":5896:5921  uint256 lowSharesToRedeem */\n      0x00\n        /* \"src/VaultRouter.sol\":5958:5963  10000 */\n      0x2710\n        /* \"src/VaultRouter.sol\":5941:5954  percentageBps */\n      dup5\n        /* \"src/VaultRouter.sol\":5925:5928  pos */\n      dup4\n        /* \"src/VaultRouter.sol\":5925:5938  pos.lowShares */\n      0x00\n      add\n      sload\n        /* \"src/VaultRouter.sol\":5925:5954  pos.lowShares * percentageBps */\n      tag_112\n      swap2\n      swap1\n      tag_113\n      jump\t// in\n    tag_112:\n        /* \"src/VaultRouter.sol\":5924:5963  (pos.lowShares * percentageBps) / 10000 */\n      tag_114\n      swap2\n      swap1\n      tag_115\n      jump\t// in\n    tag_114:\n        /* \"src/VaultRouter.sol\":5896:5963  uint256 lowSharesToRedeem = (pos.lowShares * percentageBps) / 10000 */\n      swap1\n      pop\n        /* \"src/VaultRouter.sol\":5973:5998  uint256 medSharesToRedeem */\n      0x00\n        /* \"src/VaultRouter.sol\":6035:6040  10000 */\n      0x2710\n        /* \"src/VaultRouter.sol\":6018:6031  percentageBps */\n      dup6\n        /* \"src/VaultRouter.sol\":6002:6005  pos */\n      dup5\n        /* \"src/VaultRouter.sol\":6002:6015  pos.medShares */\n      0x01\n      add\n      sload\n        /* \"src/VaultRouter.sol\":6002:6031  pos.medShares * percentageBps */\n      tag_116\n      swap2\n      swap1\n      tag_113\n      jump\t// in\n    tag_116:\n        /* \"src/VaultRouter.sol\":6001:6040  (pos.medShares * percentageBps) / 10000 */\n      tag_117\n      swap2\n      swap1\n      tag_115\n      jump\t// in\n    tag_117:\n        /* \"src/VaultRouter.sol\":5973:6040  uint256 medSharesToRedeem = (pos.medShares * percentageBps) / 10000 */\n      swap1\n      pop\n        /* \"src/VaultRouter.sol\":6050:6076  uint256 highSharesToRedeem */\n      0x00\n        /* \"src/VaultRouter.sol\":6114:6119  10000 */\n      0x2710\n        /* \"src/VaultRouter.sol\":6097:6110  percentageBps */\n      dup7\n        /* \"src/VaultRouter.sol\":6080:6083  pos */\n      dup6\n        /* \"src/VaultRouter.sol\":6080:6094  pos.highShares */\n      0x02\n      add\n      sload\n        /* \"src/VaultRouter.sol\":6080:6110  pos.highShares * percentageBps */\n      tag_118\n      swap2\n      swap1\n      tag_113\n      jump\t// in\n    tag_118:\n        /* \"src/VaultRouter.sol\":6079:6119  (pos.highShares * percentageBps) / 10000 */\n      tag_119\n      swap2\n      swap1\n      tag_115\n      jump\t// in\n    tag_119:\n        /* \"src/VaultRouter.sol\":6050:6119  uint256 highSharesToRedeem = (pos.highShares * percentageBps) / 10000 */\n      swap1\n      pop\n        /* \"src/VaultRouter.sol\":6130:6147  uint256 lowAssets */\n      0x00\n        /* \"src/VaultRouter.sol\":6150:6151  0 */\n      0x00\n        /* \"src/VaultRouter.sol\":6130:6151  uint256 lowAssets = 0 */\n      swap1\n      pop\n        /* \"src/VaultRouter.sol\":6161:6178  uint256 medAssets */\n      0x00\n        /* \"src/VaultRouter.sol\":6181:6182  0 */\n      0x00\n        /* \"src/VaultRouter.sol\":6161:6182  uint256 medAssets = 0 */\n      swap1\n      pop\n        /* \"src/VaultRouter.sol\":6192:6210  uint256 highAssets */\n      0x00\n        /* \"src/VaultRouter.sol\":6213:6214  0 */\n      0x00\n        /* \"src/VaultRouter.sol\":6192:6214  uint256 highAssets = 0 */\n      swap1\n      pop\n        /* \"src/VaultRouter.sol\":6249:6250  0 */\n      0x00\n        /* \"src/VaultRouter.sol\":6229:6246  lowSharesToRedeem */\n      dup7\n        /* \"src/VaultRouter.sol\":6229:6250  lowSharesToRedeem > 0 */\n      gt\n        /* \"src/VaultRouter.sol\":6225:6467  if (lowSharesToRedeem > 0) {... */\n      iszero\n      tag_120\n      jumpi\n        /* \"src/VaultRouter.sol\":6278:6290  lowRiskVault */\n      immutable(\"0x6f489c2bf7f347bf2b17ac1afc3fad1f74e54eb0820bc2f91d3826bbddcf88a7\")\n        /* \"src/VaultRouter.sol\":6278:6297  lowRiskVault.redeem */\n      0xffffffffffffffffffffffffffffffffffffffff\n      and\n      0xba087652\n        /* \"src/VaultRouter.sol\":6315:6332  lowSharesToRedeem */\n      dup8\n        /* \"src/VaultRouter.sol\":6358:6362  this */\n      address\n        /* \"src/VaultRouter.sol\":6389:6393  this */\n      address\n        /* \"src/VaultRouter.sol\":6278:6408  lowRiskVault.redeem(... */\n      mload(0x40)\n      dup5\n      0xffffffff\n      and\n      0xe0\n      shl\n      dup2\n      mstore\n      0x04\n      add\n      tag_121\n      swap4\n      swap3\n      swap2\n      swap1\n      tag_122\n      jump\t// in\n    tag_121:\n      0x20\n      mload(0x40)\n      dup1\n      dup4\n      sub\n      dup2\n      0x00\n      dup8\n      gas\n      call\n      iszero\n      dup1\n      iszero\n      tag_124\n      jumpi\n      returndatacopy(0x00, 0x00, returndatasize)\n      revert(0x00, returndatasize)\n    tag_124:\n      pop\n      pop\n      pop\n      pop\n      mload(0x40)\n      returndatasize\n      not(0x1f)\n      0x1f\n      dup3\n      add\n      and\n      dup3\n      add\n      dup1\n      0x40\n      mstore\n      pop\n      dup2\n      add\n      swap1\n      tag_125\n      swap2\n      swap1\n      tag_126\n      jump\t// in\n    tag_125:\n        /* \"src/VaultRouter.sol\":6266:6408  lowAssets = lowRiskVault.redeem(... */\n      swap3\n      pop\n        /* \"src/VaultRouter.sol\":6439:6456  lowSharesToRedeem */\n      dup6\n        /* \"src/VaultRouter.sol\":6422:6425  pos */\n      dup8\n        /* \"src/VaultRouter.sol\":6422:6435  pos.lowShares */\n      0x00\n      add\n      0x00\n        /* \"src/VaultRouter.sol\":6422:6456  pos.lowShares -= lowSharesToRedeem */\n      dup3\n      dup3\n      sload\n      tag_127\n      swap2\n      swap1\n      tag_128\n      jump\t// in\n    tag_127:\n      swap3\n      pop\n      pop\n      dup2\n      swap1\n      sstore\n      pop\n        /* \"src/VaultRouter.sol\":6225:6467  if (lowSharesToRedeem > 0) {... */\n    tag_120:\n        /* \"src/VaultRouter.sol\":6501:6502  0 */\n      0x00\n        /* \"src/VaultRouter.sol\":6481:6498  medSharesToRedeem */\n      dup6\n        /* \"src/VaultRouter.sol\":6481:6502  medSharesToRedeem > 0 */\n      gt\n        /* \"src/VaultRouter.sol\":6477:6719  if (medSharesToRedeem > 0) {... */\n      iszero\n      tag_129\n      jumpi\n        /* \"src/VaultRouter.sol\":6530:6542  medRiskVault */\n      immutable(\"0xa06d50e93635bb1f7f7f3a59783cc967db09d702f4506243a2828fafdfb3c2b8\")\n        /* \"src/VaultRouter.sol\":6530:6549  medRiskVault.redeem */\n      0xffffffffffffffffffffffffffffffffffffffff\n      and\n      0xba087652\n        /* \"src/VaultRouter.sol\":6567:6584  medSharesToRedeem */\n      dup7\n        /* \"src/VaultRouter.sol\":6610:6614  this */\n      address\n        /* \"src/VaultRouter.sol\":6641:6645  this */\n      address\n        /* \"src/VaultRouter.sol\":6530:6660  medRiskVault.redeem(... */\n      mload(0x40)\n      dup5\n      0xffffffff\n      and\n      0xe0\n      shl\n      dup2\n      mstore\n      0x04\n      add\n      tag_130\n      swap4\n      swap3\n      swap2\n      swap1\n      tag_122\n      jump\t// in\n    tag_130:\n      0x20\n      mload(0x40)\n      dup1\n      dup4\n      sub\n      dup2\n      0x00\n      dup8\n      gas\n      call\n      iszero\n      dup1\n      iszero\n      tag_132\n      jumpi\n      returndatacopy(0x00, 0x00, returndatasize)\n      revert(0x00, returndatasize)\n    tag_132:\n      pop\n      pop\n      pop\n      pop\n      mload(0x40)\n      returndatasize\n      not(0x1f)\n      0x1f\n      dup3\n      add\n      and\n      dup3\n      add\n      dup1\n      0x40\n      mstore\n      pop\n      dup2\n      add\n      swap1\n      tag_133\n      swap2\n      swap1\n      tag_126\n      jump\t// in\n    tag_133:\n        /* \"src/VaultRouter.sol\":6518:6660  medAssets = medRiskVault.redeem(... */\n      swap2\n      pop\n        /* \"src/VaultRouter.sol\":6691:6708  medSharesToRedeem */\n      dup5\n        /* \"src/VaultRouter.sol\":6674:6677  pos */\n      dup8\n        /* \"src/VaultRouter.sol\":6674:6687  pos.medShares */\n      0x01\n      add\n      0x00\n        /* \"src/VaultRouter.sol\":6674:6708  pos.medShares -= medSharesToRedeem */\n      dup3\n      dup3\n      sload\n      tag_134\n      swap2\n      swap1\n      tag_128\n      jump\t// in\n    tag_134:\n      swap3\n      pop\n      pop\n      dup2\n      swap1\n      sstore\n      pop\n        /* \"src/VaultRouter.sol\":6477:6719  if (medSharesToRedeem > 0) {... */\n    tag_129:\n        /* \"src/VaultRouter.sol\":6754:6755  0 */\n      0x00\n        /* \"src/VaultRouter.sol\":6733:6751  highSharesToRedeem */\n      dup5\n        /* \"src/VaultRouter.sol\":6733:6755  highSharesToRedeem > 0 */\n      gt\n        /* \"src/VaultRouter.sol\":6729:6977  if (highSharesToRedeem > 0) {... */\n      iszero\n      tag_135\n      jumpi\n        /* \"src/VaultRouter.sol\":6784:6797  highRiskVault */\n      immutable(\"0x574c9b24b1330b680473d85a29c8e5ee10c43b3c92431d577a8acff668b9d6f0\")\n        /* \"src/VaultRouter.sol\":6784:6804  highRiskVault.redeem */\n      0xffffffffffffffffffffffffffffffffffffffff\n      and\n      0xba087652\n        /* \"src/VaultRouter.sol\":6822:6840  highSharesToRedeem */\n      dup6\n        /* \"src/VaultRouter.sol\":6866:6870  this */\n      address\n        /* \"src/VaultRouter.sol\":6897:6901  this */\n      address\n        /* \"src/VaultRouter.sol\":6784:6916  highRiskVault.redeem(... */\n      mload(0x40)\n      dup5\n      0xffffffff\n      and\n      0xe0\n      shl\n      dup2\n      mstore\n      0x04\n      add\n      tag_136\n      swap4\n      swap3\n      swap2\n      swap1\n      tag_122\n      jump\t// in\n    tag_136:\n      0x20\n      mload(0x40)\n      dup1\n      dup4\n      sub\n      dup2\n      0x00\n      dup8\n      gas\n      call\n      iszero\n      dup1\n      iszero\n      tag_138\n      jumpi\n      returndatacopy(0x00, 0x00, returndatasize)\n      revert(0x00, returndatasize)\n    tag_138:\n      pop\n      pop\n      pop\n      pop\n      mload(0x40)\n      returndatasize\n      not(0x1f)\n      0x1f\n      dup3\n      add\n      and\n      dup3\n      add\n      dup1\n      0x40\n      mstore\n      pop\n      dup2\n      add\n      swap1\n      tag_139\n      swap2\n      swap1\n      tag_126\n      jump\t// in\n    tag_139:\n        /* \"src/VaultRouter.sol\":6771:6916  highAssets = highRiskVault.redeem(... */\n      swap1\n      pop\n        /* \"src/VaultRouter.sol\":6948:6966  highSharesToRedeem */\n      dup4\n        /* \"src/VaultRouter.sol\":6930:6933  pos */\n      dup8\n        /* \"src/VaultRouter.sol\":6930:6944  pos.highShares */\n      0x02\n      add\n      0x00\n        /* \"src/VaultRouter.sol\":6930:6966  pos.highShares -= highSharesToRedeem */\n      dup3\n      dup3\n      sload\n      tag_140\n      swap2\n      swap1\n      tag_128\n      jump\t// in\n    tag_140:\n      swap3\n      pop\n      pop\n      dup2\n      swap1\n      sstore\n      pop\n        /* \"src/VaultRouter.sol\":6729:6977  if (highSharesToRedeem > 0) {... */\n    tag_135:\n        /* \"src/VaultRouter.sol\":7027:7037  highAssets */\n      dup1\n        /* \"src/VaultRouter.sol\":7015:7024  medAssets */\n      dup3\n        /* \"src/VaultRouter.sol\":7003:7012  lowAssets */\n      dup5\n        /* \"src/VaultRouter.sol\":7003:7024  lowAssets + medAssets */\n      tag_141\n      swap2\n      swap1\n      tag_142\n      jump\t// in\n    tag_141:\n        /* \"src/VaultRouter.sol\":7003:7037  lowAssets + medAssets + highAssets */\n      tag_143\n      swap2\n      swap1\n      tag_142\n      jump\t// in\n    tag_143:\n        /* \"src/VaultRouter.sol\":6987:7037  totalReceived = lowAssets + medAssets + highAssets */\n      swap8\n      pop\n        /* \"src/VaultRouter.sol\":7142:7147  10000 */\n      0x2710\n        /* \"src/VaultRouter.sol\":7112:7125  percentageBps */\n      dup10\n        /* \"src/VaultRouter.sol\":7104:7109  10000 */\n      0x2710\n        /* \"src/VaultRouter.sol\":7104:7125  10000 - percentageBps */\n      tag_144\n      swap2\n      swap1\n      tag_128\n      jump\t// in\n    tag_144:\n        /* \"src/VaultRouter.sol\":7082:7085  pos */\n      dup9\n        /* \"src/VaultRouter.sol\":7082:7100  pos.totalDeposited */\n      0x03\n      add\n      sload\n        /* \"src/VaultRouter.sol\":7082:7126  pos.totalDeposited * (10000 - percentageBps) */\n      tag_145\n      swap2\n      swap1\n      tag_113\n      jump\t// in\n    tag_145:\n        /* \"src/VaultRouter.sol\":7081:7147  (pos.totalDeposited * (10000 - percentageBps)) /... */\n      tag_146\n      swap2\n      swap1\n      tag_115\n      jump\t// in\n    tag_146:\n        /* \"src/VaultRouter.sol\":7048:7051  pos */\n      dup8\n        /* \"src/VaultRouter.sol\":7048:7066  pos.totalDeposited */\n      0x03\n      add\n        /* \"src/VaultRouter.sol\":7048:7147  pos.totalDeposited =... */\n      dup2\n      swap1\n      sstore\n      pop\n        /* \"src/VaultRouter.sol\":7158:7210  depositToken.safeTransfer(msg.sender, totalReceived) */\n      tag_147\n        /* \"src/VaultRouter.sol\":7184:7194  msg.sender */\n      caller\n        /* \"src/VaultRouter.sol\":7196:7209  totalReceived */\n      dup10\n        /* \"src/VaultRouter.sol\":7158:7170  depositToken */\n      immutable(\"0x39464b971e976f39f397b655477ab48e3c9a80307c286737f0e421ce6ddce354\")\n        /* \"src/VaultRouter.sol\":7158:7183  depositToken.safeTransfer */\n      0xffffffffffffffffffffffffffffffffffffffff\n      and\n      tag_148\n      swap1\n        /* \"src/VaultRouter.sol\":7158:7210  depositToken.safeTransfer(msg.sender, totalReceived) */\n      swap3\n      swap2\n      swap1\n      0xffffffff\n      and\n      jump\t// in\n    tag_147:\n        /* \"src/VaultRouter.sol\":7244:7254  msg.sender */\n      caller\n        /* \"src/VaultRouter.sol\":7226:7285  PartialWithdrawal(msg.sender, percentageBps, totalReceived) */\n      0xffffffffffffffffffffffffffffffffffffffff\n      and\n      0x1fb6e47f83f7c0e64dd70b2c8ea3ff82b17d0ec3b1f704bf9ea38095a6bc7d58\n        /* \"src/VaultRouter.sol\":7256:7269  percentageBps */\n      dup11\n        /* \"src/VaultRouter.sol\":7271:7284  totalReceived */\n      dup11\n        /* \"src/VaultRouter.sol\":7226:7285  PartialWithdrawal(msg.sender, percentageBps, totalReceived) */\n      mload(0x40)\n      tag_149\n      swap3\n      swap2\n      swap1\n      tag_150\n      jump\t// in\n    tag_149:\n      mload(0x40)\n      dup1\n      swap2\n      sub\n      swap1\n      log2\n        /* \"src/VaultRouter.sol\":5603:7292  {... */\n      pop\n      pop\n      pop\n      pop\n      pop\n      pop\n      pop\n        /* \"@openzeppelin/contracts/utils/ReentrancyGuard.sol\":3065:3085  _nonReentrantAfter() */\n      tag_151\n        /* \"@openzeppelin/contracts/utils/ReentrancyGuard.sol\":3065:3083  _nonReentrantAfter */\n      tag_152\n        /* \"@openzeppelin/contracts/utils/ReentrancyGuard.sol\":3065:3085  _nonReentrantAfter() */\n      jump\t// in\n    tag_151:\n        /* \"src/VaultRouter.sol\":5487:7292  function withdrawPartial(... */\n      swap2\n      swap1\n      pop\n      jump\t// out\n        /* \"src/VaultRouter.sol\":1112:1149  IVault public immutable highRiskVault */\n    tag_33:\n      immutable(\"0x574c9b24b1330b680473d85a29c8e5ee10c43b3c92431d577a8acff668b9d6f0\")\n      dup2\n      jump\t// out\n        /* \"src/VaultRouter.sol\":11725:11977  function getVaults()... */\n    tag_37:\n        /* \"src/VaultRouter.sol\":11793:11804  address low */\n      0x00\n        /* \"src/VaultRouter.sol\":11806:11817  address med */\n      0x00\n        /* \"src/VaultRouter.sol\":11819:11831  address high */\n      0x00\n        /* \"src/VaultRouter.sol\":11876:11888  lowRiskVault */\n      immutable(\"0x6f489c2bf7f347bf2b17ac1afc3fad1f74e54eb0820bc2f91d3826bbddcf88a7\")\n        /* \"src/VaultRouter.sol\":11911:11923  medRiskVault */\n      immutable(\"0xa06d50e93635bb1f7f7f3a59783cc967db09d702f4506243a2828fafdfb3c2b8\")\n        /* \"src/VaultRouter.sol\":11946:11959  highRiskVault */\n      immutable(\"0x574c9b24b1330b680473d85a29c8e5ee10c43b3c92431d577a8acff668b9d6f0\")\n        /* \"src/VaultRouter.sol\":11847:11970  return (... */\n      swap3\n      pop\n      swap3\n      pop\n      swap3\n      pop\n        /* \"src/VaultRouter.sol\":11725:11977  function getVaults()... */\n      swap1\n      swap2\n      swap3\n      jump\t// out\n        /* \"src/VaultRouter.sol\":13577:13859  function getVaultAPYs()... */\n    tag_41:\n        /* \"src/VaultRouter.sol\":13648:13662  uint256 lowAPY */\n      0x00\n        /* \"src/VaultRouter.sol\":13664:13678  uint256 medAPY */\n      0x00\n        /* \"src/VaultRouter.sol\":13680:13695  uint256 highAPY */\n      0x00\n        /* \"src/VaultRouter.sol\":13732:13744  lowRiskVault */\n      immutable(\"0x6f489c2bf7f347bf2b17ac1afc3fad1f74e54eb0820bc2f91d3826bbddcf88a7\")\n        /* \"src/VaultRouter.sol\":13732:13757  lowRiskVault.estimatedAPY */\n      0xffffffffffffffffffffffffffffffffffffffff\n      and\n      0xf19993d7\n        /* \"src/VaultRouter.sol\":13732:13759  lowRiskVault.estimatedAPY() */\n      mload(0x40)\n      dup2\n      0xffffffff\n      and\n      0xe0\n      shl\n      dup2\n      mstore\n      0x04\n      add\n      0x20\n      mload(0x40)\n      dup1\n      dup4\n      sub\n      dup2\n      dup7\n      gas\n      staticcall\n      iszero\n      dup1\n      iszero\n      tag_156\n      jumpi\n      returndatacopy(0x00, 0x00, returndatasize)\n      revert(0x00, returndatasize)\n    tag_156:\n      pop\n      pop\n      pop\n      pop\n      mload(0x40)\n      returndatasize\n      not(0x1f)\n      0x1f\n      dup3\n      add\n      and\n      dup3\n      add\n      dup1\n      0x40\n      mstore\n      pop\n      dup2\n      add\n      swap1\n      tag_157\n      swap2\n      swap1\n      tag_126\n      jump\t// in\n    tag_157:\n        /* \"src/VaultRouter.sol\":13773:13785  medRiskVault */\n      immutable(\"0xa06d50e93635bb1f7f7f3a59783cc967db09d702f4506243a2828fafdfb3c2b8\")\n        /* \"src/VaultRouter.sol\":13773:13798  medRiskVault.estimatedAPY */\n      0xffffffffffffffffffffffffffffffffffffffff\n      and\n      0xf19993d7\n        /* \"src/VaultRouter.sol\":13773:13800  medRiskVault.estimatedAPY() */\n      mload(0x40)\n      dup2\n      0xffffffff\n      and\n      0xe0\n      shl\n      dup2\n      mstore\n      0x04\n      add\n      0x20\n      mload(0x40)\n      dup1\n      dup4\n      sub\n      dup2\n      dup7\n      gas\n      staticcall\n      iszero\n      dup1\n      iszero\n      tag_159\n      jumpi\n      returndatacopy(0x00, 0x00, returndatasize)\n      revert(0x00, returndatasize)\n    tag_159:\n      pop\n      pop\n      pop\n      pop\n      mload(0x40)\n      returndatasize\n      not(0x1f)\n      0x1f\n      dup3\n      add\n      and\n      dup3\n      add\n      dup1\n      0x40\n      mstore\n      pop\n      dup2\n      add\n      swap1\n      tag_160\n      swap2\n      swap1\n      tag_126\n      jump\t// in\n    tag_160:\n        /* \"src/VaultRouter.sol\":13814:13827  highRiskVault */\n      immutable(\"0x574c9b24b1330b680473d85a29c8e5ee10c43b3c92431d577a8acff668b9d6f0\")\n        /* \"src/VaultRouter.sol\":13814:13840  highRiskVault.estimatedAPY */\n      0xffffffffffffffffffffffffffffffffffffffff\n      and\n      0xf19993d7\n        /* \"src/VaultRouter.sol\":13814:13842  highRiskVault.estimatedAPY() */\n      mload(0x40)\n      dup2\n      0xffffffff\n      and\n      0xe0\n      shl\n      dup2\n      mstore\n      0x04\n      add\n      0x20\n      mload(0x40)\n      dup1\n      dup4\n      sub\n      dup2\n      dup7\n      gas\n      staticcall\n      iszero\n      dup1\n      iszero\n      tag_162\n      jumpi\n      returndatacopy(0x00, 0x00, returndatasize)\n      revert(0x00, returndatasize)\n    tag_162:\n      pop\n      pop\n      pop\n      pop\n      mload(0x40)\n      returndatasize\n      not(0x1f)\n      0x1f\n      dup3\n      add\n      and\n      dup3\n      add\n      dup1\n      0x40\n      mstore\n      pop\n      dup2\n      add\n      swap1\n      tag_163\n      swap2\n      swap1\n      tag_126\n      jump\t// in\n    tag_163:\n        /* \"src/VaultRouter.sol\":13711:13852  return (... */\n      swap3\n      pop\n      swap3\n      pop\n      swap3\n      pop\n        /* \"src/VaultRouter.sol\":13577:13859  function getVaultAPYs()... */\n      swap1\n      swap2\n      swap3\n      jump\t// out\n        /* \"src/VaultRouter.sol\":10348:11423  function getUserPosition(... */\n    tag_47:\n        /* \"src/VaultRouter.sol\":10461:10478  uint256 lowShares */\n      0x00\n        /* \"src/VaultRouter.sol\":10492:10509  uint256 medShares */\n      0x00\n        /* \"src/VaultRouter.sol\":10523:10541  uint256 highShares */\n      0x00\n        /* \"src/VaultRouter.sol\":10555:10571  uint256 lowValue */\n      0x00\n        /* \"src/VaultRouter.sol\":10585:10601  uint256 medValue */\n      0x00\n        /* \"src/VaultRouter.sol\":10615:10632  uint256 highValue */\n      0x00\n        /* \"src/VaultRouter.sol\":10646:10664  uint256 totalValue */\n      0x00\n        /* \"src/VaultRouter.sol\":10678:10700  uint256 totalDeposited */\n      0x00\n        /* \"src/VaultRouter.sol\":10714:10731  int256 profitLoss */\n      0x00\n        /* \"src/VaultRouter.sol\":10756:10779  UserPosition memory pos */\n      0x00\n        /* \"src/VaultRouter.sol\":10782:10795  userPositions */\n      0x01\n        /* \"src/VaultRouter.sol\":10782:10801  userPositions[user] */\n      0x00\n        /* \"src/VaultRouter.sol\":10796:10800  user */\n      dup13\n        /* \"src/VaultRouter.sol\":10782:10801  userPositions[user] */\n      0xffffffffffffffffffffffffffffffffffffffff\n      and\n      0xffffffffffffffffffffffffffffffffffffffff\n      and\n      dup2\n      mstore\n      0x20\n      add\n      swap1\n      dup2\n      mstore\n      0x20\n      add\n      0x00\n      keccak256\n        /* \"src/VaultRouter.sol\":10756:10801  UserPosition memory pos = userPositions[user] */\n      mload(0x40)\n      dup1\n      0xa0\n      add\n      0x40\n      mstore\n      swap1\n      dup2\n      0x00\n      dup3\n      add\n      sload\n      dup2\n      mstore\n      0x20\n      add\n      0x01\n      dup3\n      add\n      sload\n      dup2\n      mstore\n      0x20\n      add\n      0x02\n      dup3\n      add\n      sload\n      dup2\n      mstore\n      0x20\n      add\n      0x03\n      dup3\n      add\n      sload\n      dup2\n      mstore\n      0x20\n      add\n      0x04\n      dup3\n      add\n      sload\n      dup2\n      mstore\n      pop\n      pop\n      swap1\n      pop\n        /* \"src/VaultRouter.sol\":10824:10827  pos */\n      dup1\n        /* \"src/VaultRouter.sol\":10824:10837  pos.lowShares */\n      0x00\n      add\n      mload\n        /* \"src/VaultRouter.sol\":10812:10837  lowShares = pos.lowShares */\n      swap10\n      pop\n        /* \"src/VaultRouter.sol\":10859:10862  pos */\n      dup1\n        /* \"src/VaultRouter.sol\":10859:10872  pos.medShares */\n      0x20\n      add\n      mload\n        /* \"src/VaultRouter.sol\":10847:10872  medShares = pos.medShares */\n      swap9\n      pop\n        /* \"src/VaultRouter.sol\":10895:10898  pos */\n      dup1\n        /* \"src/VaultRouter.sol\":10895:10909  pos.highShares */\n      0x40\n      add\n      mload\n        /* \"src/VaultRouter.sol\":10882:10909  highShares = pos.highShares */\n      swap8\n      pop\n        /* \"src/VaultRouter.sol\":10947:10948  0 */\n      0x00\n        /* \"src/VaultRouter.sol\":10931:10934  pos */\n      dup2\n        /* \"src/VaultRouter.sol\":10931:10944  pos.lowShares */\n      0x00\n      add\n      mload\n        /* \"src/VaultRouter.sol\":10931:10948  pos.lowShares > 0 */\n      gt\n        /* \"src/VaultRouter.sol\":10931:11022  pos.lowShares > 0... */\n      tag_165\n      jumpi\n        /* \"src/VaultRouter.sol\":11021:11022  0 */\n      0x00\n        /* \"src/VaultRouter.sol\":10931:11022  pos.lowShares > 0... */\n      jump(tag_166)\n    tag_165:\n        /* \"src/VaultRouter.sol\":10963:10975  lowRiskVault */\n      immutable(\"0x6f489c2bf7f347bf2b17ac1afc3fad1f74e54eb0820bc2f91d3826bbddcf88a7\")\n        /* \"src/VaultRouter.sol\":10963:10991  lowRiskVault.convertToAssets */\n      0xffffffffffffffffffffffffffffffffffffffff\n      and\n      0x07a2d13a\n        /* \"src/VaultRouter.sol\":10992:10995  pos */\n      dup3\n        /* \"src/VaultRouter.sol\":10992:11005  pos.lowShares */\n      0x00\n      add\n      mload\n        /* \"src/VaultRouter.sol\":10963:11006  lowRiskVault.convertToAssets(pos.lowShares) */\n      mload(0x40)\n      dup3\n      0xffffffff\n      and\n      0xe0\n      shl\n      dup2\n      mstore\n      0x04\n      add\n      tag_167\n      swap2\n      swap1\n      tag_31\n      jump\t// in\n    tag_167:\n      0x20\n      mload(0x40)\n      dup1\n      dup4\n      sub\n      dup2\n      dup7\n      gas\n      staticcall\n      iszero\n      dup1\n      iszero\n      tag_169\n      jumpi\n      returndatacopy(0x00, 0x00, returndatasize)\n      revert(0x00, returndatasize)\n    tag_169:\n      pop\n      pop\n      pop\n      pop\n      mload(0x40)\n      returndatasize\n      not(0x1f)\n      0x1f\n      dup3\n      add\n      and\n      dup3\n      add\n      dup1\n      0x40\n      mstore\n      pop\n      dup2\n      add\n      swap1\n      tag_170\n      swap2\n      swap1\n      tag_126\n      jump\t// in\n    tag_170:\n        /* \"src/VaultRouter.sol\":10931:11022  pos.lowShares > 0... */\n    tag_166:\n        /* \"src/VaultRouter.sol\":10920:11022  lowValue = pos.lowShares > 0... */\n      swap7\n      pop\n        /* \"src/VaultRouter.sol\":11059:11060  0 */\n      0x00\n        /* \"src/VaultRouter.sol\":11043:11046  pos */\n      dup2\n        /* \"src/VaultRouter.sol\":11043:11056  pos.medShares */\n      0x20\n      add\n      mload\n        /* \"src/VaultRouter.sol\":11043:11060  pos.medShares > 0 */\n      gt\n        /* \"src/VaultRouter.sol\":11043:11134  pos.medShares > 0... */\n      tag_171\n      jumpi\n        /* \"src/VaultRouter.sol\":11133:11134  0 */\n      0x00\n        /* \"src/VaultRouter.sol\":11043:11134  pos.medShares > 0... */\n      jump(tag_172)\n    tag_171:\n        /* \"src/VaultRouter.sol\":11075:11087  medRiskVault */\n      immutable(\"0xa06d50e93635bb1f7f7f3a59783cc967db09d702f4506243a2828fafdfb3c2b8\")\n        /* \"src/VaultRouter.sol\":11075:11103  medRiskVault.convertToAssets */\n      0xffffffffffffffffffffffffffffffffffffffff\n      and\n      0x07a2d13a\n        /* \"src/VaultRouter.sol\":11104:11107  pos */\n      dup3\n        /* \"src/VaultRouter.sol\":11104:11117  pos.medShares */\n      0x20\n      add\n      mload\n        /* \"src/VaultRouter.sol\":11075:11118  medRiskVault.convertToAssets(pos.medShares) */\n      mload(0x40)\n      dup3\n      0xffffffff\n      and\n      0xe0\n      shl\n      dup2\n      mstore\n      0x04\n      add\n      tag_173\n      swap2\n      swap1\n      tag_31\n      jump\t// in\n    tag_173:\n      0x20\n      mload(0x40)\n      dup1\n      dup4\n      sub\n      dup2\n      dup7\n      gas\n      staticcall\n      iszero\n      dup1\n      iszero\n      tag_175\n      jumpi\n      returndatacopy(0x00, 0x00, returndatasize)\n      revert(0x00, returndatasize)\n    tag_175:\n      pop\n      pop\n      pop\n      pop\n      mload(0x40)\n      returndatasize\n      not(0x1f)\n      0x1f\n      dup3\n      add\n      and\n      dup3\n      add\n      dup1\n      0x40\n      mstore\n      pop\n      dup2\n      add\n      swap1\n      tag_176\n      swap2\n      swap1\n      tag_126\n      jump\t// in\n    tag_176:\n        /* \"src/VaultRouter.sol\":11043:11134  pos.medShares > 0... */\n    tag_172:\n        /* \"src/VaultRouter.sol\":11032:11134  medValue = pos.medShares > 0... */\n      swap6\n      pop\n        /* \"src/VaultRouter.sol\":11173:11174  0 */\n      0x00\n        /* \"src/VaultRouter.sol\":11156:11159  pos */\n      dup2\n        /* \"src/VaultRouter.sol\":11156:11170  pos.highShares */\n      0x40\n      add\n      mload\n        /* \"src/VaultRouter.sol\":11156:11174  pos.highShares > 0 */\n      gt\n        /* \"src/VaultRouter.sol\":11156:11250  pos.highShares > 0... */\n      tag_177\n      jumpi\n        /* \"src/VaultRouter.sol\":11249:11250  0 */\n      0x00\n        /* \"src/VaultRouter.sol\":11156:11250  pos.highShares > 0... */\n      jump(tag_178)\n    tag_177:\n        /* \"src/VaultRouter.sol\":11189:11202  highRiskVault */\n      immutable(\"0x574c9b24b1330b680473d85a29c8e5ee10c43b3c92431d577a8acff668b9d6f0\")\n        /* \"src/VaultRouter.sol\":11189:11218  highRiskVault.convertToAssets */\n      0xffffffffffffffffffffffffffffffffffffffff\n      and\n      0x07a2d13a\n        /* \"src/VaultRouter.sol\":11219:11222  pos */\n      dup3\n        /* \"src/VaultRouter.sol\":11219:11233  pos.highShares */\n      0x40\n      add\n      mload\n        /* \"src/VaultRouter.sol\":11189:11234  highRiskVault.convertToAssets(pos.highShares) */\n      mload(0x40)\n      dup3\n      0xffffffff\n      and\n      0xe0\n      shl\n      dup2\n      mstore\n      0x04\n      add\n      tag_179\n      swap2\n      swap1\n      tag_31\n      jump\t// in\n    tag_179:\n      0x20\n      mload(0x40)\n      dup1\n      dup4\n      sub\n      dup2\n      dup7\n      gas\n      staticcall\n      iszero\n      dup1\n      iszero\n      tag_181\n      jumpi\n      returndatacopy(0x00, 0x00, returndatasize)\n      revert(0x00, returndatasize)\n    tag_181:\n      pop\n      pop\n      pop\n      pop\n      mload(0x40)\n      returndatasize\n      not(0x1f)\n      0x1f\n      dup3\n      add\n      and\n      dup3\n      add\n      dup1\n      0x40\n      mstore\n      pop\n      dup2\n      add\n      swap1\n      tag_182\n      swap2\n      swap1\n      tag_126\n      jump\t// in\n    tag_182:\n        /* \"src/VaultRouter.sol\":11156:11250  pos.highShares > 0... */\n    tag_178:\n        /* \"src/VaultRouter.sol\":11144:11250  highValue = pos.highShares > 0... */\n      swap5\n      pop\n        /* \"src/VaultRouter.sol\":11296:11305  highValue */\n      dup5\n        /* \"src/VaultRouter.sol\":11285:11293  medValue */\n      dup7\n        /* \"src/VaultRouter.sol\":11274:11282  lowValue */\n      dup9\n        /* \"src/VaultRouter.sol\":11274:11293  lowValue + medValue */\n      tag_183\n      swap2\n      swap1\n      tag_142\n      jump\t// in\n    tag_183:\n        /* \"src/VaultRouter.sol\":11274:11305  lowValue + medValue + highValue */\n      tag_184\n      swap2\n      swap1\n      tag_142\n      jump\t// in\n    tag_184:\n        /* \"src/VaultRouter.sol\":11261:11305  totalValue = lowValue + medValue + highValue */\n      swap4\n      pop\n        /* \"src/VaultRouter.sol\":11332:11335  pos */\n      dup1\n        /* \"src/VaultRouter.sol\":11332:11350  pos.totalDeposited */\n      0x60\n      add\n      mload\n        /* \"src/VaultRouter.sol\":11315:11350  totalDeposited = pos.totalDeposited */\n      swap3\n      pop\n        /* \"src/VaultRouter.sol\":11401:11415  totalDeposited */\n      dup3\n        /* \"src/VaultRouter.sol\":11380:11390  totalValue */\n      dup5\n        /* \"src/VaultRouter.sol\":11373:11416  int256(totalValue) - int256(totalDeposited) */\n      tag_185\n      swap2\n      swap1\n      tag_186\n      jump\t// in\n    tag_185:\n        /* \"src/VaultRouter.sol\":11360:11416  profitLoss = int256(totalValue) - int256(totalDeposited) */\n      swap2\n      pop\n        /* \"src/VaultRouter.sol\":10746:11423  {... */\n      pop\n        /* \"src/VaultRouter.sol\":10348:11423  function getUserPosition(... */\n      swap2\n      swap4\n      swap6\n      swap8\n      swap10\n      swap1\n      swap3\n      swap5\n      swap7\n      swap9\n      pop\n      jump\t// out\n        /* \"src/VaultRouter.sol\":1156:1209  mapping(address => UserPosition) public userPositions */\n    tag_52:\n      mstore(0x20, 0x01)\n      dup1\n      0x00\n      mstore\n      keccak256(0x00, 0x40)\n      0x00\n      swap2\n      pop\n      swap1\n      pop\n      dup1\n      0x00\n      add\n      sload\n      swap1\n      dup1\n      0x01\n      add\n      sload\n      swap1\n      dup1\n      0x02\n      add\n      sload\n      swap1\n      dup1\n      0x03\n      add\n      sload\n      swap1\n      dup1\n      0x04\n      add\n      sload\n      swap1\n      pop\n      dup6\n      jump\t// out\n        /* \"src/VaultRouter.sol\":988:1021  IRiskNFT public immutable riskNFT */\n    tag_56:\n      immutable(\"0x3b5e79d464b62561753d4e193bbf44b670e74a211dfadb82af01f3cae1ba996a\")\n      dup2\n      jump\t// out\n        /* \"@openzeppelin/contracts/access/Ownable.sol\":2293:2394  function renounceOwnership() public virtual onlyOwner {... */\n    tag_60:\n        /* \"@openzeppelin/contracts/access/Ownable.sol\":1531:1544  _checkOwner() */\n      tag_188\n        /* \"@openzeppelin/contracts/access/Ownable.sol\":1531:1542  _checkOwner */\n      tag_189\n        /* \"@openzeppelin/contracts/access/Ownable.sol\":1531:1544  _checkOwner() */\n      jump\t// in\n    tag_188:\n        /* \"@openzeppelin/contracts/access/Ownable.sol\":2357:2387  _transferOwnership(address(0)) */\n      tag_191\n        /* \"@openzeppelin/contracts/access/Ownable.sol\":2384:2385  0 */\n      0x00\n        /* \"@openzeppelin/contracts/access/Ownable.sol\":2357:2375  _transferOwnership */\n      tag_192\n        /* \"@openzeppelin/contracts/access/Ownable.sol\":2357:2387  _transferOwnership(address(0)) */\n      jump\t// in\n    tag_191:\n        /* \"@openzeppelin/contracts/access/Ownable.sol\":2293:2394  function renounceOwnership() public virtual onlyOwner {... */\n      jump\t// out\n        /* \"src/VaultRouter.sol\":13116:13571  function getProtocolStats()... */\n    tag_62:\n        /* \"src/VaultRouter.sol\":13204:13228  uint256 totalValueLocked */\n      0x00\n        /* \"src/VaultRouter.sol\":13242:13261  uint256 lowVaultTVL */\n      0x00\n        /* \"src/VaultRouter.sol\":13275:13294  uint256 medVaultTVL */\n      0x00\n        /* \"src/VaultRouter.sol\":13308:13328  uint256 highVaultTVL */\n      0x00\n        /* \"src/VaultRouter.sol\":13367:13379  lowRiskVault */\n      immutable(\"0x6f489c2bf7f347bf2b17ac1afc3fad1f74e54eb0820bc2f91d3826bbddcf88a7\")\n        /* \"src/VaultRouter.sol\":13367:13391  lowRiskVault.totalAssets */\n      0xffffffffffffffffffffffffffffffffffffffff\n      and\n      0x01e1d114\n        /* \"src/VaultRouter.sol\":13367:13393  lowRiskVault.totalAssets() */\n      mload(0x40)\n      dup2\n      0xffffffff\n      and\n      0xe0\n      shl\n      dup2\n      mstore\n      0x04\n      add\n      0x20\n      mload(0x40)\n      dup1\n      dup4\n      sub\n      dup2\n      dup7\n      gas\n      staticcall\n      iszero\n      dup1\n      iszero\n      tag_195\n      jumpi\n      returndatacopy(0x00, 0x00, returndatasize)\n      revert(0x00, returndatasize)\n    tag_195:\n      pop\n      pop\n      pop\n      pop\n      mload(0x40)\n      returndatasize\n      not(0x1f)\n      0x1f\n      dup3\n      add\n      and\n      dup3\n      add\n      dup1\n      0x40\n      mstore\n      pop\n      dup2\n      add\n      swap1\n      tag_196\n      swap2\n      swap1\n      tag_126\n      jump\t// in\n    tag_196:\n        /* \"src/VaultRouter.sol\":13353:13393  lowVaultTVL = lowRiskVault.totalAssets() */\n      swap3\n      pop\n        /* \"src/VaultRouter.sol\":13417:13429  medRiskVault */\n      immutable(\"0xa06d50e93635bb1f7f7f3a59783cc967db09d702f4506243a2828fafdfb3c2b8\")\n        /* \"src/VaultRouter.sol\":13417:13441  medRiskVault.totalAssets */\n      0xffffffffffffffffffffffffffffffffffffffff\n      and\n      0x01e1d114\n        /* \"src/VaultRouter.sol\":13417:13443  medRiskVault.totalAssets() */\n      mload(0x40)\n      dup2\n      0xffffffff\n      and\n      0xe0\n      shl\n      dup2\n      mstore\n      0x04\n      add\n      0x20\n      mload(0x40)\n      dup1\n      dup4\n      sub\n      dup2\n      dup7\n      gas\n      staticcall\n      iszero\n      dup1\n      iszero\n      tag_198\n      jumpi\n      returndatacopy(0x00, 0x00, returndatasize)\n      revert(0x00, returndatasize)\n    tag_198:\n      pop\n      pop\n      pop\n      pop\n      mload(0x40)\n      returndatasize\n      not(0x1f)\n      0x1f\n      dup3\n      add\n      and\n      dup3\n      add\n      dup1\n      0x40\n      mstore\n      pop\n      dup2\n      add\n      swap1\n      tag_199\n      swap2\n      swap1\n      tag_126\n      jump\t// in\n    tag_199:\n        /* \"src/VaultRouter.sol\":13403:13443  medVaultTVL = medRiskVault.totalAssets() */\n      swap2\n      pop\n        /* \"src/VaultRouter.sol\":13468:13481  highRiskVault */\n      immutable(\"0x574c9b24b1330b680473d85a29c8e5ee10c43b3c92431d577a8acff668b9d6f0\")\n        /* \"src/VaultRouter.sol\":13468:13493  highRiskVault.totalAssets */\n      0xffffffffffffffffffffffffffffffffffffffff\n      and\n      0x01e1d114\n        /* \"src/VaultRouter.sol\":13468:13495  highRiskVault.totalAssets() */\n      mload(0x40)\n      dup2\n      0xffffffff\n      and\n      0xe0\n      shl\n      dup2\n      mstore\n      0x04\n      add\n      0x20\n      mload(0x40)\n      dup1\n      dup4\n      sub\n      dup2\n      dup7\n      gas\n      staticcall\n      iszero\n      dup1\n      iszero\n      tag_201\n      jumpi\n      returndatacopy(0x00, 0x00, returndatasize)\n      revert(0x00, returndatasize)\n    tag_201:\n      pop\n      pop\n      pop\n      pop\n      mload(0x40)\n      returndatasize\n      not(0x1f)\n      0x1f\n      dup3\n      add\n      and\n      dup3\n      add\n      dup1\n      0x40\n      mstore\n      pop\n      dup2\n      add\n      swap1\n      tag_202\n      swap2\n      swap1\n      tag_126\n      jump\t// in\n    tag_202:\n        /* \"src/VaultRouter.sol\":13453:13495  highVaultTVL = highRiskVault.totalAssets() */\n      swap1\n      pop\n        /* \"src/VaultRouter.sol\":13552:13564  highVaultTVL */\n      dup1\n        /* \"src/VaultRouter.sol\":13538:13549  medVaultTVL */\n      dup3\n        /* \"src/VaultRouter.sol\":13524:13535  lowVaultTVL */\n      dup5\n        /* \"src/VaultRouter.sol\":13524:13549  lowVaultTVL + medVaultTVL */\n      tag_203\n      swap2\n      swap1\n      tag_142\n      jump\t// in\n    tag_203:\n        /* \"src/VaultRouter.sol\":13524:13564  lowVaultTVL + medVaultTVL + highVaultTVL */\n      tag_204\n      swap2\n      swap1\n      tag_142\n      jump\t// in\n    tag_204:\n        /* \"src/VaultRouter.sol\":13505:13564  totalValueLocked = lowVaultTVL + medVaultTVL + highVaultTVL */\n      swap4\n      pop\n        /* \"src/VaultRouter.sol\":13116:13571  function getProtocolStats()... */\n      swap1\n      swap2\n      swap3\n      swap4\n      jump\t// out\n        /* \"src/VaultRouter.sol\":7298:9789  function rebalance() external nonReentrant {... */\n    tag_66:\n        /* \"@openzeppelin/contracts/utils/ReentrancyGuard.sol\":3023:3044  _nonReentrantBefore() */\n      tag_206\n        /* \"@openzeppelin/contracts/utils/ReentrancyGuard.sol\":3023:3042  _nonReentrantBefore */\n      tag_105\n        /* \"@openzeppelin/contracts/utils/ReentrancyGuard.sol\":3023:3044  _nonReentrantBefore() */\n      jump\t// in\n    tag_206:\n        /* \"src/VaultRouter.sol\":7356:7363  riskNFT */\n      immutable(\"0x3b5e79d464b62561753d4e193bbf44b670e74a211dfadb82af01f3cae1ba996a\")\n        /* \"src/VaultRouter.sol\":7356:7374  riskNFT.hasProfile */\n      0xffffffffffffffffffffffffffffffffffffffff\n      and\n      0xa787c80b\n        /* \"src/VaultRouter.sol\":7375:7385  msg.sender */\n      caller\n        /* \"src/VaultRouter.sol\":7356:7386  riskNFT.hasProfile(msg.sender) */\n      mload(0x40)\n      dup3\n      0xffffffff\n      and\n      0xe0\n      shl\n      dup2\n      mstore\n      0x04\n      add\n      tag_208\n      swap2\n      swap1\n      tag_77\n      jump\t// in\n    tag_208:\n      0x20\n      mload(0x40)\n      dup1\n      dup4\n      sub\n      dup2\n      dup7\n      gas\n      staticcall\n      iszero\n      dup1\n      iszero\n      tag_210\n      jumpi\n      returndatacopy(0x00, 0x00, returndatasize)\n      revert(0x00, returndatasize)\n    tag_210:\n      pop\n      pop\n      pop\n      pop\n      mload(0x40)\n      returndatasize\n      not(0x1f)\n      0x1f\n      dup3\n      add\n      and\n      dup3\n      add\n      dup1\n      0x40\n      mstore\n      pop\n      dup2\n      add\n      swap1\n      tag_211\n      swap2\n      swap1\n      tag_212\n      jump\t// in\n    tag_211:\n        /* \"src/VaultRouter.sol\":7351:7406  if (!riskNFT.hasProfile(msg.sender)) revert NoProfile() */\n      tag_213\n      jumpi\n        /* \"src/VaultRouter.sol\":7395:7406  NoProfile() */\n      mload(0x40)\n      0x6f86092700000000000000000000000000000000000000000000000000000000\n      dup2\n      mstore\n      0x04\n      add\n      mload(0x40)\n      dup1\n      swap2\n      sub\n      swap1\n      revert\n        /* \"src/VaultRouter.sol\":7351:7406  if (!riskNFT.hasProfile(msg.sender)) revert NoProfile() */\n    tag_213:\n        /* \"src/VaultRouter.sol\":7417:7443  UserPosition memory oldPos */\n      0x00\n        /* \"src/VaultRouter.sol\":7446:7459  userPositions */\n      0x01\n        /* \"src/VaultRouter.sol\":7446:7471  userPositions[msg.sender] */\n      0x00\n        /* \"src/VaultRouter.sol\":7460:7470  msg.sender */\n      caller\n        /* \"src/VaultRouter.sol\":7446:7471  userPositions[msg.sender] */\n      0xffffffffffffffffffffffffffffffffffffffff\n      and\n      0xffffffffffffffffffffffffffffffffffffffff\n      and\n      dup2\n      mstore\n      0x20\n      add\n      swap1\n      dup2\n      mstore\n      0x20\n      add\n      0x00\n      keccak256\n        /* \"src/VaultRouter.sol\":7417:7471  UserPosition memory oldPos = userPositions[msg.sender] */\n      mload(0x40)\n      dup1\n      0xa0\n      add\n      0x40\n      mstore\n      swap1\n      dup2\n      0x00\n      dup3\n      add\n      sload\n      dup2\n      mstore\n      0x20\n      add\n      0x01\n      dup3\n      add\n      sload\n      dup2\n      mstore\n      0x20\n      add\n      0x02\n      dup3\n      add\n      sload\n      dup2\n      mstore\n      0x20\n      add\n      0x03\n      dup3\n      add\n      sload\n      dup2\n      mstore\n      0x20\n      add\n      0x04\n      dup3\n      add\n      sload\n      dup2\n      mstore\n      pop\n      pop\n      swap1\n      pop\n        /* \"src/VaultRouter.sol\":7518:7519  0 */\n      0x00\n        /* \"src/VaultRouter.sol\":7498:7504  oldPos */\n      dup2\n        /* \"src/VaultRouter.sol\":7498:7514  oldPos.lowShares */\n      0x00\n      add\n      mload\n        /* \"src/VaultRouter.sol\":7498:7519  oldPos.lowShares == 0 */\n      eq\n        /* \"src/VaultRouter.sol\":7498:7556  oldPos.lowShares == 0 &&... */\n      dup1\n      iszero\n      tag_214\n      jumpi\n      pop\n        /* \"src/VaultRouter.sol\":7555:7556  0 */\n      0x00\n        /* \"src/VaultRouter.sol\":7535:7541  oldPos */\n      dup2\n        /* \"src/VaultRouter.sol\":7535:7551  oldPos.medShares */\n      0x20\n      add\n      mload\n        /* \"src/VaultRouter.sol\":7535:7556  oldPos.medShares == 0 */\n      eq\n        /* \"src/VaultRouter.sol\":7498:7556  oldPos.lowShares == 0 &&... */\n    tag_214:\n        /* \"src/VaultRouter.sol\":7498:7594  oldPos.lowShares == 0 &&... */\n      dup1\n      iszero\n      tag_215\n      jumpi\n      pop\n        /* \"src/VaultRouter.sol\":7593:7594  0 */\n      0x00\n        /* \"src/VaultRouter.sol\":7572:7578  oldPos */\n      dup2\n        /* \"src/VaultRouter.sol\":7572:7589  oldPos.highShares */\n      0x40\n      add\n      mload\n        /* \"src/VaultRouter.sol\":7572:7594  oldPos.highShares == 0 */\n      eq\n        /* \"src/VaultRouter.sol\":7498:7594  oldPos.lowShares == 0 &&... */\n    tag_215:\n        /* \"src/VaultRouter.sol\":7481:7649  if (... */\n      iszero\n      tag_216\n      jumpi\n        /* \"src/VaultRouter.sol\":7626:7638  NoPosition() */\n      mload(0x40)\n      0xabf0f03400000000000000000000000000000000000000000000000000000000\n      dup2\n      mstore\n      0x04\n      add\n      mload(0x40)\n      dup1\n      swap2\n      sub\n      swap1\n      revert\n        /* \"src/VaultRouter.sol\":7481:7649  if (... */\n    tag_216:\n        /* \"src/VaultRouter.sol\":7659:7679  uint256 currentValue */\n      0x00\n        /* \"src/VaultRouter.sol\":7682:7711  getUserTotalValue(msg.sender) */\n      tag_217\n        /* \"src/VaultRouter.sol\":7700:7710  msg.sender */\n      caller\n        /* \"src/VaultRouter.sol\":7682:7699  getUserTotalValue */\n      tag_90\n        /* \"src/VaultRouter.sol\":7682:7711  getUserTotalValue(msg.sender) */\n      jump\t// in\n    tag_217:\n        /* \"src/VaultRouter.sol\":7659:7711  uint256 currentValue = getUserTotalValue(msg.sender) */\n      swap1\n      pop\n        /* \"src/VaultRouter.sol\":7741:7742  0 */\n      0x00\n        /* \"src/VaultRouter.sol\":7725:7737  currentValue */\n      dup2\n        /* \"src/VaultRouter.sol\":7725:7742  currentValue == 0 */\n      sub\n        /* \"src/VaultRouter.sol\":7721:7763  if (currentValue == 0) revert ZeroAmount() */\n      tag_218\n      jumpi\n        /* \"src/VaultRouter.sol\":7751:7763  ZeroAmount() */\n      mload(0x40)\n      0x1f2a200500000000000000000000000000000000000000000000000000000000\n      dup2\n      mstore\n      0x04\n      add\n      mload(0x40)\n      dup1\n      swap2\n      sub\n      swap1\n      revert\n        /* \"src/VaultRouter.sol\":7721:7763  if (currentValue == 0) revert ZeroAmount() */\n    tag_218:\n        /* \"src/VaultRouter.sol\":7774:7791  uint256 lowAssets */\n      0x00\n        /* \"src/VaultRouter.sol\":7794:7795  0 */\n      0x00\n        /* \"src/VaultRouter.sol\":7774:7795  uint256 lowAssets = 0 */\n      swap1\n      pop\n        /* \"src/VaultRouter.sol\":7805:7822  uint256 medAssets */\n      0x00\n        /* \"src/VaultRouter.sol\":7825:7826  0 */\n      0x00\n        /* \"src/VaultRouter.sol\":7805:7826  uint256 medAssets = 0 */\n      swap1\n      pop\n        /* \"src/VaultRouter.sol\":7836:7854  uint256 highAssets */\n      0x00\n        /* \"src/VaultRouter.sol\":7857:7858  0 */\n      0x00\n        /* \"src/VaultRouter.sol\":7836:7858  uint256 highAssets = 0 */\n      swap1\n      pop\n        /* \"src/VaultRouter.sol\":7892:7893  0 */\n      0x00\n        /* \"src/VaultRouter.sol\":7873:7879  oldPos */\n      dup6\n        /* \"src/VaultRouter.sol\":7873:7889  oldPos.lowShares */\n      0x00\n      add\n      mload\n        /* \"src/VaultRouter.sol\":7873:7893  oldPos.lowShares > 0 */\n      gt\n        /* \"src/VaultRouter.sol\":7869:8061  if (oldPos.lowShares > 0) {... */\n      iszero\n      tag_219\n      jumpi\n        /* \"src/VaultRouter.sol\":7921:7933  lowRiskVault */\n      immutable(\"0x6f489c2bf7f347bf2b17ac1afc3fad1f74e54eb0820bc2f91d3826bbddcf88a7\")\n        /* \"src/VaultRouter.sol\":7921:7940  lowRiskVault.redeem */\n      0xffffffffffffffffffffffffffffffffffffffff\n      and\n      0xba087652\n        /* \"src/VaultRouter.sol\":7958:7964  oldPos */\n      dup7\n        /* \"src/VaultRouter.sol\":7958:7974  oldPos.lowShares */\n      0x00\n      add\n      mload\n        /* \"src/VaultRouter.sol\":8000:8004  this */\n      address\n        /* \"src/VaultRouter.sol\":8031:8035  this */\n      address\n        /* \"src/VaultRouter.sol\":7921:8050  lowRiskVault.redeem(... */\n      mload(0x40)\n      dup5\n      0xffffffff\n      and\n      0xe0\n      shl\n      dup2\n      mstore\n      0x04\n      add\n      tag_220\n      swap4\n      swap3\n      swap2\n      swap1\n      tag_122\n      jump\t// in\n    tag_220:\n      0x20\n      mload(0x40)\n      dup1\n      dup4\n      sub\n      dup2\n      0x00\n      dup8\n      gas\n      call\n      iszero\n      dup1\n      iszero\n      tag_222\n      jumpi\n      returndatacopy(0x00, 0x00, returndatasize)\n      revert(0x00, returndatasize)\n    tag_222:\n      pop\n      pop\n      pop\n      pop\n      mload(0x40)\n      returndatasize\n      not(0x1f)\n      0x1f\n      dup3\n      add\n      and\n      dup3\n      add\n      dup1\n      0x40\n      mstore\n      pop\n      dup2\n      add\n      swap1\n      tag_223\n      swap2\n      swap1\n      tag_126\n      jump\t// in\n    tag_223:\n        /* \"src/VaultRouter.sol\":7909:8050  lowAssets = lowRiskVault.redeem(... */\n      swap3\n      pop\n        /* \"src/VaultRouter.sol\":7869:8061  if (oldPos.lowShares > 0) {... */\n    tag_219:\n        /* \"src/VaultRouter.sol\":8093:8094  0 */\n      0x00\n        /* \"src/VaultRouter.sol\":8074:8080  oldPos */\n      dup6\n        /* \"src/VaultRouter.sol\":8074:8090  oldPos.medShares */\n      0x20\n      add\n      mload\n        /* \"src/VaultRouter.sol\":8074:8094  oldPos.medShares > 0 */\n      gt\n        /* \"src/VaultRouter.sol\":8070:8262  if (oldPos.medShares > 0) {... */\n      iszero\n      tag_224\n      jumpi\n        /* \"src/VaultRouter.sol\":8122:8134  medRiskVault */\n      immutable(\"0xa06d50e93635bb1f7f7f3a59783cc967db09d702f4506243a2828fafdfb3c2b8\")\n        /* \"src/VaultRouter.sol\":8122:8141  medRiskVault.redeem */\n      0xffffffffffffffffffffffffffffffffffffffff\n      and\n      0xba087652\n        /* \"src/VaultRouter.sol\":8159:8165  oldPos */\n      dup7\n        /* \"src/VaultRouter.sol\":8159:8175  oldPos.medShares */\n      0x20\n      add\n      mload\n        /* \"src/VaultRouter.sol\":8201:8205  this */\n      address\n        /* \"src/VaultRouter.sol\":8232:8236  this */\n      address\n        /* \"src/VaultRouter.sol\":8122:8251  medRiskVault.redeem(... */\n      mload(0x40)\n      dup5\n      0xffffffff\n      and\n      0xe0\n      shl\n      dup2\n      mstore\n      0x04\n      add\n      tag_225\n      swap4\n      swap3\n      swap2\n      swap1\n      tag_122\n      jump\t// in\n    tag_225:\n      0x20\n      mload(0x40)\n      dup1\n      dup4\n      sub\n      dup2\n      0x00\n      dup8\n      gas\n      call\n      iszero\n      dup1\n      iszero\n      tag_227\n      jumpi\n      returndatacopy(0x00, 0x00, returndatasize)\n      revert(0x00, returndatasize)\n    tag_227:\n      pop\n      pop\n      pop\n      pop\n      mload(0x40)\n      returndatasize\n      not(0x1f)\n      0x1f\n      dup3\n      add\n      and\n      dup3\n      add\n      dup1\n      0x40\n      mstore\n      pop\n      dup2\n      add\n      swap1\n      tag_228\n      swap2\n      swap1\n      tag_126\n      jump\t// in\n    tag_228:\n        /* \"src/VaultRouter.sol\":8110:8251  medAssets = medRiskVault.redeem(... */\n      swap2\n      pop\n        /* \"src/VaultRouter.sol\":8070:8262  if (oldPos.medShares > 0) {... */\n    tag_224:\n        /* \"src/VaultRouter.sol\":8295:8296  0 */\n      0x00\n        /* \"src/VaultRouter.sol\":8275:8281  oldPos */\n      dup6\n        /* \"src/VaultRouter.sol\":8275:8292  oldPos.highShares */\n      0x40\n      add\n      mload\n        /* \"src/VaultRouter.sol\":8275:8296  oldPos.highShares > 0 */\n      gt\n        /* \"src/VaultRouter.sol\":8271:8467  if (oldPos.highShares > 0) {... */\n      iszero\n      tag_229\n      jumpi\n        /* \"src/VaultRouter.sol\":8325:8338  highRiskVault */\n      immutable(\"0x574c9b24b1330b680473d85a29c8e5ee10c43b3c92431d577a8acff668b9d6f0\")\n        /* \"src/VaultRouter.sol\":8325:8345  highRiskVault.redeem */\n      0xffffffffffffffffffffffffffffffffffffffff\n      and\n      0xba087652\n        /* \"src/VaultRouter.sol\":8363:8369  oldPos */\n      dup7\n        /* \"src/VaultRouter.sol\":8363:8380  oldPos.highShares */\n      0x40\n      add\n      mload\n        /* \"src/VaultRouter.sol\":8406:8410  this */\n      address\n        /* \"src/VaultRouter.sol\":8437:8441  this */\n      address\n        /* \"src/VaultRouter.sol\":8325:8456  highRiskVault.redeem(... */\n      mload(0x40)\n      dup5\n      0xffffffff\n      and\n      0xe0\n      shl\n      dup2\n      mstore\n      0x04\n      add\n      tag_230\n      swap4\n      swap3\n      swap2\n      swap1\n      tag_122\n      jump\t// in\n    tag_230:\n      0x20\n      mload(0x40)\n      dup1\n      dup4\n      sub\n      dup2\n      0x00\n      dup8\n      gas\n      call\n      iszero\n      dup1\n      iszero\n      tag_232\n      jumpi\n      returndatacopy(0x00, 0x00, returndatasize)\n      revert(0x00, returndatasize)\n    tag_232:\n      pop\n      pop\n      pop\n      pop\n      mload(0x40)\n      returndatasize\n      not(0x1f)\n      0x1f\n      dup3\n      add\n      and\n      dup3\n      add\n      dup1\n      0x40\n      mstore\n      pop\n      dup2\n      add\n      swap1\n      tag_233\n      swap2\n      swap1\n      tag_126\n      jump\t// in\n    tag_233:\n        /* \"src/VaultRouter.sol\":8312:8456  highAssets = highRiskVault.redeem(... */\n      swap1\n      pop\n        /* \"src/VaultRouter.sol\":8271:8467  if (oldPos.highShares > 0) {... */\n    tag_229:\n        /* \"src/VaultRouter.sol\":8477:8496  uint256 totalAssets */\n      0x00\n        /* \"src/VaultRouter.sol\":8523:8533  highAssets */\n      dup2\n        /* \"src/VaultRouter.sol\":8511:8520  medAssets */\n      dup4\n        /* \"src/VaultRouter.sol\":8499:8508  lowAssets */\n      dup6\n        /* \"src/VaultRouter.sol\":8499:8520  lowAssets + medAssets */\n      tag_234\n      swap2\n      swap1\n      tag_142\n      jump\t// in\n    tag_234:\n        /* \"src/VaultRouter.sol\":8499:8533  lowAssets + medAssets + highAssets */\n      tag_235\n      swap2\n      swap1\n      tag_142\n      jump\t// in\n    tag_235:\n        /* \"src/VaultRouter.sol\":8477:8533  uint256 totalAssets = lowAssets + medAssets + highAssets */\n      swap1\n      pop\n        /* \"src/VaultRouter.sol\":8544:8582  IRiskNFT.RiskProfile memory newProfile */\n      0x00\n        /* \"src/VaultRouter.sol\":8585:8592  riskNFT */\n      immutable(\"0x3b5e79d464b62561753d4e193bbf44b670e74a211dfadb82af01f3cae1ba996a\")\n        /* \"src/VaultRouter.sol\":8585:8607  riskNFT.getRiskProfile */\n      0xffffffffffffffffffffffffffffffffffffffff\n      and\n      0xbaf1e57f\n        /* \"src/VaultRouter.sol\":8621:8631  msg.sender */\n      caller\n        /* \"src/VaultRouter.sol\":8585:8641  riskNFT.getRiskProfile(... */\n      mload(0x40)\n      dup3\n      0xffffffff\n      and\n      0xe0\n      shl\n      dup2\n      mstore\n      0x04\n      add\n      tag_236\n      swap2\n      swap1\n      tag_77\n      jump\t// in\n    tag_236:\n      0x60\n      mload(0x40)\n      dup1\n      dup4\n      sub\n      dup2\n      dup7\n      gas\n      staticcall\n      iszero\n      dup1\n      iszero\n      tag_238\n      jumpi\n      returndatacopy(0x00, 0x00, returndatasize)\n      revert(0x00, returndatasize)\n    tag_238:\n      pop\n      pop\n      pop\n      pop\n      mload(0x40)\n      returndatasize\n      not(0x1f)\n      0x1f\n      dup3\n      add\n      and\n      dup3\n      add\n      dup1\n      0x40\n      mstore\n      pop\n      dup2\n      add\n      swap1\n      tag_239\n      swap2\n      swap1\n      tag_240\n      jump\t// in\n    tag_239:\n        /* \"src/VaultRouter.sol\":8544:8641  IRiskNFT.RiskProfile memory newProfile = riskNFT.getRiskProfile(... */\n      swap1\n      pop\n        /* \"src/VaultRouter.sol\":8652:8671  uint256 newLowAlloc */\n      0x00\n        /* \"src/VaultRouter.sol\":8710:8713  100 */\n      0x64\n        /* \"src/VaultRouter.sol\":8689:8699  newProfile */\n      dup3\n        /* \"src/VaultRouter.sol\":8689:8706  newProfile.lowPct */\n      0x00\n      add\n      mload\n        /* \"src/VaultRouter.sol\":8675:8706  totalAssets * newProfile.lowPct */\n      0xff\n      and\n        /* \"src/VaultRouter.sol\":8675:8686  totalAssets */\n      dup5\n        /* \"src/VaultRouter.sol\":8675:8706  totalAssets * newProfile.lowPct */\n      tag_241\n      swap2\n      swap1\n      tag_113\n      jump\t// in\n    tag_241:\n        /* \"src/VaultRouter.sol\":8674:8713  (totalAssets * newProfile.lowPct) / 100 */\n      tag_242\n      swap2\n      swap1\n      tag_115\n      jump\t// in\n    tag_242:\n        /* \"src/VaultRouter.sol\":8652:8713  uint256 newLowAlloc = (totalAssets * newProfile.lowPct) / 100 */\n      swap1\n      pop\n        /* \"src/VaultRouter.sol\":8723:8742  uint256 newMedAlloc */\n      0x00\n        /* \"src/VaultRouter.sol\":8781:8784  100 */\n      0x64\n        /* \"src/VaultRouter.sol\":8760:8770  newProfile */\n      dup4\n        /* \"src/VaultRouter.sol\":8760:8777  newProfile.medPct */\n      0x20\n      add\n      mload\n        /* \"src/VaultRouter.sol\":8746:8777  totalAssets * newProfile.medPct */\n      0xff\n      and\n        /* \"src/VaultRouter.sol\":8746:8757  totalAssets */\n      dup6\n        /* \"src/VaultRouter.sol\":8746:8777  totalAssets * newProfile.medPct */\n      tag_243\n      swap2\n      swap1\n      tag_113\n      jump\t// in\n    tag_243:\n        /* \"src/VaultRouter.sol\":8745:8784  (totalAssets * newProfile.medPct) / 100 */\n      tag_244\n      swap2\n      swap1\n      tag_115\n      jump\t// in\n    tag_244:\n        /* \"src/VaultRouter.sol\":8723:8784  uint256 newMedAlloc = (totalAssets * newProfile.medPct) / 100 */\n      swap1\n      pop\n        /* \"src/VaultRouter.sol\":8794:8814  uint256 newHighAlloc */\n      0x00\n        /* \"src/VaultRouter.sol\":8845:8856  newMedAlloc */\n      dup2\n        /* \"src/VaultRouter.sol\":8831:8842  newLowAlloc */\n      dup4\n        /* \"src/VaultRouter.sol\":8817:8828  totalAssets */\n      dup7\n        /* \"src/VaultRouter.sol\":8817:8842  totalAssets - newLowAlloc */\n      tag_245\n      swap2\n      swap1\n      tag_128\n      jump\t// in\n    tag_245:\n        /* \"src/VaultRouter.sol\":8817:8856  totalAssets - newLowAlloc - newMedAlloc */\n      tag_246\n      swap2\n      swap1\n      tag_128\n      jump\t// in\n    tag_246:\n        /* \"src/VaultRouter.sol\":8794:8856  uint256 newHighAlloc = totalAssets - newLowAlloc - newMedAlloc */\n      swap1\n      pop\n        /* \"src/VaultRouter.sol\":8867:8887  uint256 newLowShares */\n      0x00\n        /* \"src/VaultRouter.sol\":8890:8891  0 */\n      0x00\n        /* \"src/VaultRouter.sol\":8867:8891  uint256 newLowShares = 0 */\n      swap1\n      pop\n        /* \"src/VaultRouter.sol\":8901:8921  uint256 newMedShares */\n      0x00\n        /* \"src/VaultRouter.sol\":8924:8925  0 */\n      0x00\n        /* \"src/VaultRouter.sol\":8901:8925  uint256 newMedShares = 0 */\n      swap1\n      pop\n        /* \"src/VaultRouter.sol\":8935:8956  uint256 newHighShares */\n      0x00\n        /* \"src/VaultRouter.sol\":8959:8960  0 */\n      0x00\n        /* \"src/VaultRouter.sol\":8935:8960  uint256 newHighShares = 0 */\n      swap1\n      pop\n        /* \"src/VaultRouter.sol\":8989:8990  0 */\n      0x00\n        /* \"src/VaultRouter.sol\":8975:8986  newLowAlloc */\n      dup7\n        /* \"src/VaultRouter.sol\":8975:8990  newLowAlloc > 0 */\n      gt\n        /* \"src/VaultRouter.sol\":8971:9155  if (newLowAlloc > 0) {... */\n      iszero\n      tag_247\n      jumpi\n        /* \"src/VaultRouter.sol\":9006:9067  depositToken.forceApprove(address(lowRiskVault), newLowAlloc) */\n      tag_248\n        /* \"src/VaultRouter.sol\":9040:9052  lowRiskVault */\n      immutable(\"0x6f489c2bf7f347bf2b17ac1afc3fad1f74e54eb0820bc2f91d3826bbddcf88a7\")\n        /* \"src/VaultRouter.sol\":9055:9066  newLowAlloc */\n      dup8\n        /* \"src/VaultRouter.sol\":9006:9018  depositToken */\n      immutable(\"0x39464b971e976f39f397b655477ab48e3c9a80307c286737f0e421ce6ddce354\")\n        /* \"src/VaultRouter.sol\":9006:9031  depositToken.forceApprove */\n      0xffffffffffffffffffffffffffffffffffffffff\n      and\n      tag_249\n      swap1\n        /* \"src/VaultRouter.sol\":9006:9067  depositToken.forceApprove(address(lowRiskVault), newLowAlloc) */\n      swap3\n      swap2\n      swap1\n      0xffffffff\n      and\n      jump\t// in\n    tag_248:\n        /* \"src/VaultRouter.sol\":9096:9108  lowRiskVault */\n      immutable(\"0x6f489c2bf7f347bf2b17ac1afc3fad1f74e54eb0820bc2f91d3826bbddcf88a7\")\n        /* \"src/VaultRouter.sol\":9096:9116  lowRiskVault.deposit */\n      0xffffffffffffffffffffffffffffffffffffffff\n      and\n      0x6e553f65\n        /* \"src/VaultRouter.sol\":9117:9128  newLowAlloc */\n      dup8\n        /* \"src/VaultRouter.sol\":9138:9142  this */\n      address\n        /* \"src/VaultRouter.sol\":9096:9144  lowRiskVault.deposit(newLowAlloc, address(this)) */\n      mload(0x40)\n      dup4\n      0xffffffff\n      and\n      0xe0\n      shl\n      dup2\n      mstore\n      0x04\n      add\n      tag_250\n      swap3\n      swap2\n      swap1\n      tag_251\n      jump\t// in\n    tag_250:\n      0x20\n      mload(0x40)\n      dup1\n      dup4\n      sub\n      dup2\n      0x00\n      dup8\n      gas\n      call\n      iszero\n      dup1\n      iszero\n      tag_253\n      jumpi\n      returndatacopy(0x00, 0x00, returndatasize)\n      revert(0x00, returndatasize)\n    tag_253:\n      pop\n      pop\n      pop\n      pop\n      mload(0x40)\n      returndatasize\n      not(0x1f)\n      0x1f\n      dup3\n      add\n      and\n      dup3\n      add\n      dup1\n      0x40\n      mstore\n      pop\n      dup2\n      add\n      swap1\n      tag_254\n      swap2\n      swap1\n      tag_126\n      jump\t// in\n    tag_254:\n        /* \"src/VaultRouter.sol\":9081:9144  newLowShares = lowRiskVault.deposit(newLowAlloc, address(this)) */\n      swap3\n      pop\n        /* \"src/VaultRouter.sol\":8971:9155  if (newLowAlloc > 0) {... */\n    tag_247:\n        /* \"src/VaultRouter.sol\":9183:9184  0 */\n      0x00\n        /* \"src/VaultRouter.sol\":9169:9180  newMedAlloc */\n      dup6\n        /* \"src/VaultRouter.sol\":9169:9184  newMedAlloc > 0 */\n      gt\n        /* \"src/VaultRouter.sol\":9165:9349  if (newMedAlloc > 0) {... */\n      iszero\n      tag_255\n      jumpi\n        /* \"src/VaultRouter.sol\":9200:9261  depositToken.forceApprove(address(medRiskVault), newMedAlloc) */\n      tag_256\n        /* \"src/VaultRouter.sol\":9234:9246  medRiskVault */\n      immutable(\"0xa06d50e93635bb1f7f7f3a59783cc967db09d702f4506243a2828fafdfb3c2b8\")\n        /* \"src/VaultRouter.sol\":9249:9260  newMedAlloc */\n      dup7\n        /* \"src/VaultRouter.sol\":9200:9212  depositToken */\n      immutable(\"0x39464b971e976f39f397b655477ab48e3c9a80307c286737f0e421ce6ddce354\")\n        /* \"src/VaultRouter.sol\":9200:9225  depositToken.forceApprove */\n      0xffffffffffffffffffffffffffffffffffffffff\n      and\n      tag_249\n      swap1\n        /* \"src/VaultRouter.sol\":9200:9261  depositToken.forceApprove(address(medRiskVault), newMedAlloc) */\n      swap3\n      swap2\n      swap1\n      0xffffffff\n      and\n      jump\t// in\n    tag_256:\n        /* \"src/VaultRouter.sol\":9290:9302  medRiskVault */\n      immutable(\"0xa06d50e93635bb1f7f7f3a59783cc967db09d702f4506243a2828fafdfb3c2b8\")\n        /* \"src/VaultRouter.sol\":9290:9310  medRiskVault.deposit */\n      0xffffffffffffffffffffffffffffffffffffffff\n      and\n      0x6e553f65\n        /* \"src/VaultRouter.sol\":9311:9322  newMedAlloc */\n      dup7\n        /* \"src/VaultRouter.sol\":9332:9336  this */\n      address\n        /* \"src/VaultRouter.sol\":9290:9338  medRiskVault.deposit(newMedAlloc, address(this)) */\n      mload(0x40)\n      dup4\n      0xffffffff\n      and\n      0xe0\n      shl\n      dup2\n      mstore\n      0x04\n      add\n      tag_257\n      swap3\n      swap2\n      swap1\n      tag_251\n      jump\t// in\n    tag_257:\n      0x20\n      mload(0x40)\n      dup1\n      dup4\n      sub\n      dup2\n      0x00\n      dup8\n      gas\n      call\n      iszero\n      dup1\n      iszero\n      tag_259\n      jumpi\n      returndatacopy(0x00, 0x00, returndatasize)\n      revert(0x00, returndatasize)\n    tag_259:\n      pop\n      pop\n      pop\n      pop\n      mload(0x40)\n      returndatasize\n      not(0x1f)\n      0x1f\n      dup3\n      add\n      and\n      dup3\n      add\n      dup1\n      0x40\n      mstore\n      pop\n      dup2\n      add\n      swap1\n      tag_260\n      swap2\n      swap1\n      tag_126\n      jump\t// in\n    tag_260:\n        /* \"src/VaultRouter.sol\":9275:9338  newMedShares = medRiskVault.deposit(newMedAlloc, address(this)) */\n      swap2\n      pop\n        /* \"src/VaultRouter.sol\":9165:9349  if (newMedAlloc > 0) {... */\n    tag_255:\n        /* \"src/VaultRouter.sol\":9378:9379  0 */\n      0x00\n        /* \"src/VaultRouter.sol\":9363:9375  newHighAlloc */\n      dup5\n        /* \"src/VaultRouter.sol\":9363:9379  newHighAlloc > 0 */\n      gt\n        /* \"src/VaultRouter.sol\":9359:9549  if (newHighAlloc > 0) {... */\n      iszero\n      tag_261\n      jumpi\n        /* \"src/VaultRouter.sol\":9395:9458  depositToken.forceApprove(address(highRiskVault), newHighAlloc) */\n      tag_262\n        /* \"src/VaultRouter.sol\":9429:9442  highRiskVault */\n      immutable(\"0x574c9b24b1330b680473d85a29c8e5ee10c43b3c92431d577a8acff668b9d6f0\")\n        /* \"src/VaultRouter.sol\":9445:9457  newHighAlloc */\n      dup6\n        /* \"src/VaultRouter.sol\":9395:9407  depositToken */\n      immutable(\"0x39464b971e976f39f397b655477ab48e3c9a80307c286737f0e421ce6ddce354\")\n        /* \"src/VaultRouter.sol\":9395:9420  depositToken.forceApprove */\n      0xffffffffffffffffffffffffffffffffffffffff\n      and\n      tag_249\n      swap1\n        /* \"src/VaultRouter.sol\":9395:9458  depositToken.forceApprove(address(highRiskVault), newHighAlloc) */\n      swap3\n      swap2\n      swap1\n      0xffffffff\n      and\n      jump\t// in\n    tag_262:\n        /* \"src/VaultRouter.sol\":9488:9501  highRiskVault */\n      immutable(\"0x574c9b24b1330b680473d85a29c8e5ee10c43b3c92431d577a8acff668b9d6f0\")\n        /* \"src/VaultRouter.sol\":9488:9509  highRiskVault.deposit */\n      0xffffffffffffffffffffffffffffffffffffffff\n      and\n      0x6e553f65\n        /* \"src/VaultRouter.sol\":9510:9522  newHighAlloc */\n      dup6\n        /* \"src/VaultRouter.sol\":9532:9536  this */\n      address\n        /* \"src/VaultRouter.sol\":9488:9538  highRiskVault.deposit(newHighAlloc, address(this)) */\n      mload(0x40)\n      dup4\n      0xffffffff\n      and\n      0xe0\n      shl\n      dup2\n      mstore\n      0x04\n      add\n      tag_263\n      swap3\n      swap2\n      swap1\n      tag_251\n      jump\t// in\n    tag_263:\n      0x20\n      mload(0x40)\n      dup1\n      dup4\n      sub\n      dup2\n      0x00\n      dup8\n      gas\n      call\n      iszero\n      dup1\n      iszero\n      tag_265\n      jumpi\n      returndatacopy(0x00, 0x00, returndatasize)\n      revert(0x00, returndatasize)\n    tag_265:\n      pop\n      pop\n      pop\n      pop\n      mload(0x40)\n      returndatasize\n      not(0x1f)\n      0x1f\n      dup3\n      add\n      and\n      dup3\n      add\n      dup1\n      0x40\n      mstore\n      pop\n      dup2\n      add\n      swap1\n      tag_266\n      swap2\n      swap1\n      tag_126\n      jump\t// in\n    tag_266:\n        /* \"src/VaultRouter.sol\":9472:9538  newHighShares = highRiskVault.deposit(newHighAlloc, address(this)) */\n      swap1\n      pop\n        /* \"src/VaultRouter.sol\":9359:9549  if (newHighAlloc > 0) {... */\n    tag_261:\n        /* \"src/VaultRouter.sol\":9559:9583  UserPosition storage pos */\n      0x00\n        /* \"src/VaultRouter.sol\":9586:9599  userPositions */\n      0x01\n        /* \"src/VaultRouter.sol\":9586:9611  userPositions[msg.sender] */\n      0x00\n        /* \"src/VaultRouter.sol\":9600:9610  msg.sender */\n      caller\n        /* \"src/VaultRouter.sol\":9586:9611  userPositions[msg.sender] */\n      0xffffffffffffffffffffffffffffffffffffffff\n      and\n      0xffffffffffffffffffffffffffffffffffffffff\n      and\n      dup2\n      mstore\n      0x20\n      add\n      swap1\n      dup2\n      mstore\n      0x20\n      add\n      0x00\n      keccak256\n        /* \"src/VaultRouter.sol\":9559:9611  UserPosition storage pos = userPositions[msg.sender] */\n      swap1\n      pop\n        /* \"src/VaultRouter.sol\":9637:9649  newLowShares */\n      dup4\n        /* \"src/VaultRouter.sol\":9621:9624  pos */\n      dup2\n        /* \"src/VaultRouter.sol\":9621:9634  pos.lowShares */\n      0x00\n      add\n        /* \"src/VaultRouter.sol\":9621:9649  pos.lowShares = newLowShares */\n      dup2\n      swap1\n      sstore\n      pop\n        /* \"src/VaultRouter.sol\":9675:9687  newMedShares */\n      dup3\n        /* \"src/VaultRouter.sol\":9659:9662  pos */\n      dup2\n        /* \"src/VaultRouter.sol\":9659:9672  pos.medShares */\n      0x01\n      add\n        /* \"src/VaultRouter.sol\":9659:9687  pos.medShares = newMedShares */\n      dup2\n      swap1\n      sstore\n      pop\n        /* \"src/VaultRouter.sol\":9714:9727  newHighShares */\n      dup2\n        /* \"src/VaultRouter.sol\":9697:9700  pos */\n      dup2\n        /* \"src/VaultRouter.sol\":9697:9711  pos.highShares */\n      0x02\n      add\n        /* \"src/VaultRouter.sol\":9697:9727  pos.highShares = newHighShares */\n      dup2\n      swap1\n      sstore\n      pop\n        /* \"src/VaultRouter.sol\":9754:9764  msg.sender */\n      caller\n        /* \"src/VaultRouter.sol\":9743:9782  Rebalanced(msg.sender, block.timestamp) */\n      0xffffffffffffffffffffffffffffffffffffffff\n      and\n      0x1427d1942829759938581ce754fd0f7f116bfb7a4b77f80f0cb32cd62c2138c7\n        /* \"src/VaultRouter.sol\":9766:9781  block.timestamp */\n      timestamp\n        /* \"src/VaultRouter.sol\":9743:9782  Rebalanced(msg.sender, block.timestamp) */\n      mload(0x40)\n      tag_267\n      swap2\n      swap1\n      tag_31\n      jump\t// in\n    tag_267:\n      mload(0x40)\n      dup1\n      swap2\n      sub\n      swap1\n      log2\n        /* \"src/VaultRouter.sol\":7341:9789  {... */\n      pop\n      pop\n      pop\n      pop\n      pop\n      pop\n      pop\n      pop\n      pop\n      pop\n      pop\n      pop\n      pop\n      pop\n        /* \"@openzeppelin/contracts/utils/ReentrancyGuard.sol\":3065:3085  _nonReentrantAfter() */\n      tag_268\n        /* \"@openzeppelin/contracts/utils/ReentrancyGuard.sol\":3065:3083  _nonReentrantAfter */\n      tag_152\n        /* \"@openzeppelin/contracts/utils/ReentrancyGuard.sol\":3065:3085  _nonReentrantAfter() */\n      jump\t// in\n    tag_268:\n        /* \"src/VaultRouter.sol\":7298:9789  function rebalance() external nonReentrant {... */\n      jump\t// out\n        /* \"src/VaultRouter.sol\":11983:13110  function getUserEstimatedAPY(address user) external view returns (uint256) {... */\n    tag_69:\n        /* \"src/VaultRouter.sol\":12049:12056  uint256 */\n      0x00\n        /* \"src/VaultRouter.sol\":12068:12091  UserPosition memory pos */\n      0x00\n        /* \"src/VaultRouter.sol\":12094:12107  userPositions */\n      0x01\n        /* \"src/VaultRouter.sol\":12094:12113  userPositions[user] */\n      0x00\n        /* \"src/VaultRouter.sol\":12108:12112  user */\n      dup5\n        /* \"src/VaultRouter.sol\":12094:12113  userPositions[user] */\n      0xffffffffffffffffffffffffffffffffffffffff\n      and\n      0xffffffffffffffffffffffffffffffffffffffff\n      and\n      dup2\n      mstore\n      0x20\n      add\n      swap1\n      dup2\n      mstore\n      0x20\n      add\n      0x00\n      keccak256\n        /* \"src/VaultRouter.sol\":12068:12113  UserPosition memory pos = userPositions[user] */\n      mload(0x40)\n      dup1\n      0xa0\n      add\n      0x40\n      mstore\n      swap1\n      dup2\n      0x00\n      dup3\n      add\n      sload\n      dup2\n      mstore\n      0x20\n      add\n      0x01\n      dup3\n      add\n      sload\n      dup2\n      mstore\n      0x20\n      add\n      0x02\n      dup3\n      add\n      sload\n      dup2\n      mstore\n      0x20\n      add\n      0x03\n      dup3\n      add\n      sload\n      dup2\n      mstore\n      0x20\n      add\n      0x04\n      dup3\n      add\n      sload\n      dup2\n      mstore\n      pop\n      pop\n      swap1\n      pop\n        /* \"src/VaultRouter.sol\":12124:12140  uint256 lowValue */\n      0x00\n        /* \"src/VaultRouter.sol\":12159:12160  0 */\n      0x00\n        /* \"src/VaultRouter.sol\":12143:12146  pos */\n      dup3\n        /* \"src/VaultRouter.sol\":12143:12156  pos.lowShares */\n      0x00\n      add\n      mload\n        /* \"src/VaultRouter.sol\":12143:12160  pos.lowShares > 0 */\n      gt\n        /* \"src/VaultRouter.sol\":12143:12234  pos.lowShares > 0... */\n      tag_270\n      jumpi\n        /* \"src/VaultRouter.sol\":12233:12234  0 */\n      0x00\n        /* \"src/VaultRouter.sol\":12143:12234  pos.lowShares > 0... */\n      jump(tag_271)\n    tag_270:\n        /* \"src/VaultRouter.sol\":12175:12187  lowRiskVault */\n      immutable(\"0x6f489c2bf7f347bf2b17ac1afc3fad1f74e54eb0820bc2f91d3826bbddcf88a7\")\n        /* \"src/VaultRouter.sol\":12175:12203  lowRiskVault.convertToAssets */\n      0xffffffffffffffffffffffffffffffffffffffff\n      and\n      0x07a2d13a\n        /* \"src/VaultRouter.sol\":12204:12207  pos */\n      dup4\n        /* \"src/VaultRouter.sol\":12204:12217  pos.lowShares */\n      0x00\n      add\n      mload\n        /* \"src/VaultRouter.sol\":12175:12218  lowRiskVault.convertToAssets(pos.lowShares) */\n      mload(0x40)\n      dup3\n      0xffffffff\n      and\n      0xe0\n      shl\n      dup2\n      mstore\n      0x04\n      add\n      tag_272\n      swap2\n      swap1\n      tag_31\n      jump\t// in\n    tag_272:\n      0x20\n      mload(0x40)\n      dup1\n      dup4\n      sub\n      dup2\n      dup7\n      gas\n      staticcall\n      iszero\n      dup1\n      iszero\n      tag_274\n      jumpi\n      returndatacopy(0x00, 0x00, returndatasize)\n      revert(0x00, returndatasize)\n    tag_274:\n      pop\n      pop\n      pop\n      pop\n      mload(0x40)\n      returndatasize\n      not(0x1f)\n      0x1f\n      dup3\n      add\n      and\n      dup3\n      add\n      dup1\n      0x40\n      mstore\n      pop\n      dup2\n      add\n      swap1\n      tag_275\n      swap2\n      swap1\n      tag_126\n      jump\t// in\n    tag_275:\n        /* \"src/VaultRouter.sol\":12143:12234  pos.lowShares > 0... */\n    tag_271:\n        /* \"src/VaultRouter.sol\":12124:12234  uint256 lowValue = pos.lowShares > 0... */\n      swap1\n      pop\n        /* \"src/VaultRouter.sol\":12244:12260  uint256 medValue */\n      0x00\n        /* \"src/VaultRouter.sol\":12279:12280  0 */\n      0x00\n        /* \"src/VaultRouter.sol\":12263:12266  pos */\n      dup4\n        /* \"src/VaultRouter.sol\":12263:12276  pos.medShares */\n      0x20\n      add\n      mload\n        /* \"src/VaultRouter.sol\":12263:12280  pos.medShares > 0 */\n      gt\n        /* \"src/VaultRouter.sol\":12263:12354  pos.medShares > 0... */\n      tag_276\n      jumpi\n        /* \"src/VaultRouter.sol\":12353:12354  0 */\n      0x00\n        /* \"src/VaultRouter.sol\":12263:12354  pos.medShares > 0... */\n      jump(tag_277)\n    tag_276:\n        /* \"src/VaultRouter.sol\":12295:12307  medRiskVault */\n      immutable(\"0xa06d50e93635bb1f7f7f3a59783cc967db09d702f4506243a2828fafdfb3c2b8\")\n        /* \"src/VaultRouter.sol\":12295:12323  medRiskVault.convertToAssets */\n      0xffffffffffffffffffffffffffffffffffffffff\n      and\n      0x07a2d13a\n        /* \"src/VaultRouter.sol\":12324:12327  pos */\n      dup5\n        /* \"src/VaultRouter.sol\":12324:12337  pos.medShares */\n      0x20\n      add\n      mload\n        /* \"src/VaultRouter.sol\":12295:12338  medRiskVault.convertToAssets(pos.medShares) */\n      mload(0x40)\n      dup3\n      0xffffffff\n      and\n      0xe0\n      shl\n      dup2\n      mstore\n      0x04\n      add\n      tag_278\n      swap2\n      swap1\n      tag_31\n      jump\t// in\n    tag_278:\n      0x20\n      mload(0x40)\n      dup1\n      dup4\n      sub\n      dup2\n      dup7\n      gas\n      staticcall\n      iszero\n      dup1\n      iszero\n      tag_280\n      jumpi\n      returndatacopy(0x00, 0x00, returndatasize)\n      revert(0x00, returndatasize)\n    tag_280:\n      pop\n      pop\n      pop\n      pop\n      mload(0x40)\n      returndatasize\n      not(0x1f)\n      0x1f\n      dup3\n      add\n      and\n      dup3\n      add\n      dup1\n      0x40\n      mstore\n      pop\n      dup2\n      add\n      swap1\n      tag_281\n      swap2\n      swap1\n      tag_126\n      jump\t// in\n    tag_281:\n        /* \"src/VaultRouter.sol\":12263:12354  pos.medShares > 0... */\n    tag_277:\n        /* \"src/VaultRouter.sol\":12244:12354  uint256 medValue = pos.medShares > 0... */\n      swap1\n      pop\n        /* \"src/VaultRouter.sol\":12364:12381  uint256 highValue */\n      0x00\n        /* \"src/VaultRouter.sol\":12401:12402  0 */\n      0x00\n        /* \"src/VaultRouter.sol\":12384:12387  pos */\n      dup5\n        /* \"src/VaultRouter.sol\":12384:12398  pos.highShares */\n      0x40\n      add\n      mload\n        /* \"src/VaultRouter.sol\":12384:12402  pos.highShares > 0 */\n      gt\n        /* \"src/VaultRouter.sol\":12384:12478  pos.highShares > 0... */\n      tag_282\n      jumpi\n        /* \"src/VaultRouter.sol\":12477:12478  0 */\n      0x00\n        /* \"src/VaultRouter.sol\":12384:12478  pos.highShares > 0... */\n      jump(tag_283)\n    tag_282:\n        /* \"src/VaultRouter.sol\":12417:12430  highRiskVault */\n      immutable(\"0x574c9b24b1330b680473d85a29c8e5ee10c43b3c92431d577a8acff668b9d6f0\")\n        /* \"src/VaultRouter.sol\":12417:12446  highRiskVault.convertToAssets */\n      0xffffffffffffffffffffffffffffffffffffffff\n      and\n      0x07a2d13a\n        /* \"src/VaultRouter.sol\":12447:12450  pos */\n      dup6\n        /* \"src/VaultRouter.sol\":12447:12461  pos.highShares */\n      0x40\n      add\n      mload\n        /* \"src/VaultRouter.sol\":12417:12462  highRiskVault.convertToAssets(pos.highShares) */\n      mload(0x40)\n      dup3\n      0xffffffff\n      and\n      0xe0\n      shl\n      dup2\n      mstore\n      0x04\n      add\n      tag_284\n      swap2\n      swap1\n      tag_31\n      jump\t// in\n    tag_284:\n      0x20\n      mload(0x40)\n      dup1\n      dup4\n      sub\n      dup2\n      dup7\n      gas\n      staticcall\n      iszero\n      dup1\n      iszero\n      tag_286\n      jumpi\n      returndatacopy(0x00, 0x00, returndatasize)\n      revert(0x00, returndatasize)\n    tag_286:\n      pop\n      pop\n      pop\n      pop\n      mload(0x40)\n      returndatasize\n      not(0x1f)\n      0x1f\n      dup3\n      add\n      and\n      dup3\n      add\n      dup1\n      0x40\n      mstore\n      pop\n      dup2\n      add\n      swap1\n      tag_287\n      swap2\n      swap1\n      tag_126\n      jump\t// in\n    tag_287:\n        /* \"src/VaultRouter.sol\":12384:12478  pos.highShares > 0... */\n    tag_283:\n        /* \"src/VaultRouter.sol\":12364:12478  uint256 highValue = pos.highShares > 0... */\n      swap1\n      pop\n        /* \"src/VaultRouter.sol\":12489:12507  uint256 totalValue */\n      0x00\n        /* \"src/VaultRouter.sol\":12532:12541  highValue */\n      dup2\n        /* \"src/VaultRouter.sol\":12521:12529  medValue */\n      dup4\n        /* \"src/VaultRouter.sol\":12510:12518  lowValue */\n      dup6\n        /* \"src/VaultRouter.sol\":12510:12529  lowValue + medValue */\n      tag_288\n      swap2\n      swap1\n      tag_142\n      jump\t// in\n    tag_288:\n        /* \"src/VaultRouter.sol\":12510:12541  lowValue + medValue + highValue */\n      tag_289\n      swap2\n      swap1\n      tag_142\n      jump\t// in\n    tag_289:\n        /* \"src/VaultRouter.sol\":12489:12541  uint256 totalValue = lowValue + medValue + highValue */\n      swap1\n      pop\n        /* \"src/VaultRouter.sol\":12569:12570  0 */\n      0x00\n        /* \"src/VaultRouter.sol\":12555:12565  totalValue */\n      dup2\n        /* \"src/VaultRouter.sol\":12555:12570  totalValue == 0 */\n      sub\n        /* \"src/VaultRouter.sol\":12551:12580  if (totalValue == 0) return 0 */\n      tag_290\n      jumpi\n        /* \"src/VaultRouter.sol\":12579:12580  0 */\n      0x00\n        /* \"src/VaultRouter.sol\":12572:12580  return 0 */\n      swap6\n      pop\n      pop\n      pop\n      pop\n      pop\n      pop\n      jump(tag_269)\n        /* \"src/VaultRouter.sol\":12551:12580  if (totalValue == 0) return 0 */\n    tag_290:\n        /* \"src/VaultRouter.sol\":12591:12610  uint256 weightedAPY */\n      0x00\n        /* \"src/VaultRouter.sol\":12613:12614  0 */\n      0x00\n        /* \"src/VaultRouter.sol\":12591:12614  uint256 weightedAPY = 0 */\n      swap1\n      pop\n        /* \"src/VaultRouter.sol\":12640:12641  0 */\n      0x00\n        /* \"src/VaultRouter.sol\":12629:12637  lowValue */\n      dup6\n        /* \"src/VaultRouter.sol\":12629:12641  lowValue > 0 */\n      gt\n        /* \"src/VaultRouter.sol\":12625:12768  if (lowValue > 0) {... */\n      iszero\n      tag_291\n      jumpi\n        /* \"src/VaultRouter.sol\":12747:12757  totalValue */\n      dup2\n        /* \"src/VaultRouter.sol\":12700:12712  lowRiskVault */\n      immutable(\"0x6f489c2bf7f347bf2b17ac1afc3fad1f74e54eb0820bc2f91d3826bbddcf88a7\")\n        /* \"src/VaultRouter.sol\":12700:12725  lowRiskVault.estimatedAPY */\n      0xffffffffffffffffffffffffffffffffffffffff\n      and\n      0xf19993d7\n        /* \"src/VaultRouter.sol\":12700:12727  lowRiskVault.estimatedAPY() */\n      mload(0x40)\n      dup2\n      0xffffffff\n      and\n      0xe0\n      shl\n      dup2\n      mstore\n      0x04\n      add\n      0x20\n      mload(0x40)\n      dup1\n      dup4\n      sub\n      dup2\n      dup7\n      gas\n      staticcall\n      iszero\n      dup1\n      iszero\n      tag_293\n      jumpi\n      returndatacopy(0x00, 0x00, returndatasize)\n      revert(0x00, returndatasize)\n    tag_293:\n      pop\n      pop\n      pop\n      pop\n      mload(0x40)\n      returndatasize\n      not(0x1f)\n      0x1f\n      dup3\n      add\n      and\n      dup3\n      add\n      dup1\n      0x40\n      mstore\n      pop\n      dup2\n      add\n      swap1\n      tag_294\n      swap2\n      swap1\n      tag_126\n      jump\t// in\n    tag_294:\n        /* \"src/VaultRouter.sol\":12689:12697  lowValue */\n      dup7\n        /* \"src/VaultRouter.sol\":12689:12727  lowValue * lowRiskVault.estimatedAPY() */\n      tag_295\n      swap2\n      swap1\n      tag_113\n      jump\t// in\n    tag_295:\n        /* \"src/VaultRouter.sol\":12688:12757  (lowValue * lowRiskVault.estimatedAPY()) /... */\n      tag_296\n      swap2\n      swap1\n      tag_115\n      jump\t// in\n    tag_296:\n        /* \"src/VaultRouter.sol\":12657:12757  weightedAPY +=... */\n      dup2\n      tag_297\n      swap2\n      swap1\n      tag_142\n      jump\t// in\n    tag_297:\n      swap1\n      pop\n        /* \"src/VaultRouter.sol\":12625:12768  if (lowValue > 0) {... */\n    tag_291:\n        /* \"src/VaultRouter.sol\":12792:12793  0 */\n      0x00\n        /* \"src/VaultRouter.sol\":12781:12789  medValue */\n      dup5\n        /* \"src/VaultRouter.sol\":12781:12793  medValue > 0 */\n      gt\n        /* \"src/VaultRouter.sol\":12777:12920  if (medValue > 0) {... */\n      iszero\n      tag_298\n      jumpi\n        /* \"src/VaultRouter.sol\":12899:12909  totalValue */\n      dup2\n        /* \"src/VaultRouter.sol\":12852:12864  medRiskVault */\n      immutable(\"0xa06d50e93635bb1f7f7f3a59783cc967db09d702f4506243a2828fafdfb3c2b8\")\n        /* \"src/VaultRouter.sol\":12852:12877  medRiskVault.estimatedAPY */\n      0xffffffffffffffffffffffffffffffffffffffff\n      and\n      0xf19993d7\n        /* \"src/VaultRouter.sol\":12852:12879  medRiskVault.estimatedAPY() */\n      mload(0x40)\n      dup2\n      0xffffffff\n      and\n      0xe0\n      shl\n      dup2\n      mstore\n      0x04\n      add\n      0x20\n      mload(0x40)\n      dup1\n      dup4\n      sub\n      dup2\n      dup7\n      gas\n      staticcall\n      iszero\n      dup1\n      iszero\n      tag_300\n      jumpi\n      returndatacopy(0x00, 0x00, returndatasize)\n      revert(0x00, returndatasize)\n    tag_300:\n      pop\n      pop\n      pop\n      pop\n      mload(0x40)\n      returndatasize\n      not(0x1f)\n      0x1f\n      dup3\n      add\n      and\n      dup3\n      add\n      dup1\n      0x40\n      mstore\n      pop\n      dup2\n      add\n      swap1\n      tag_301\n      swap2\n      swap1\n      tag_126\n      jump\t// in\n    tag_301:\n        /* \"src/VaultRouter.sol\":12841:12849  medValue */\n      dup6\n        /* \"src/VaultRouter.sol\":12841:12879  medValue * medRiskVault.estimatedAPY() */\n      tag_302\n      swap2\n      swap1\n      tag_113\n      jump\t// in\n    tag_302:\n        /* \"src/VaultRouter.sol\":12840:12909  (medValue * medRiskVault.estimatedAPY()) /... */\n      tag_303\n      swap2\n      swap1\n      tag_115\n      jump\t// in\n    tag_303:\n        /* \"src/VaultRouter.sol\":12809:12909  weightedAPY +=... */\n      dup2\n      tag_304\n      swap2\n      swap1\n      tag_142\n      jump\t// in\n    tag_304:\n      swap1\n      pop\n        /* \"src/VaultRouter.sol\":12777:12920  if (medValue > 0) {... */\n    tag_298:\n        /* \"src/VaultRouter.sol\":12945:12946  0 */\n      0x00\n        /* \"src/VaultRouter.sol\":12933:12942  highValue */\n      dup4\n        /* \"src/VaultRouter.sol\":12933:12946  highValue > 0 */\n      gt\n        /* \"src/VaultRouter.sol\":12929:13075  if (highValue > 0) {... */\n      iszero\n      tag_305\n      jumpi\n        /* \"src/VaultRouter.sol\":13054:13064  totalValue */\n      dup2\n        /* \"src/VaultRouter.sol\":13006:13019  highRiskVault */\n      immutable(\"0x574c9b24b1330b680473d85a29c8e5ee10c43b3c92431d577a8acff668b9d6f0\")\n        /* \"src/VaultRouter.sol\":13006:13032  highRiskVault.estimatedAPY */\n      0xffffffffffffffffffffffffffffffffffffffff\n      and\n      0xf19993d7\n        /* \"src/VaultRouter.sol\":13006:13034  highRiskVault.estimatedAPY() */\n      mload(0x40)\n      dup2\n      0xffffffff\n      and\n      0xe0\n      shl\n      dup2\n      mstore\n      0x04\n      add\n      0x20\n      mload(0x40)\n      dup1\n      dup4\n      sub\n      dup2\n      dup7\n      gas\n      staticcall\n      iszero\n      dup1\n      iszero\n      tag_307\n      jumpi\n      returndatacopy(0x00, 0x00, returndatasize)\n      revert(0x00, returndatasize)\n    tag_307:\n      pop\n      pop\n      pop\n      pop\n      mload(0x40)\n      returndatasize\n      not(0x1f)\n      0x1f\n      dup3\n      add\n      and\n      dup3\n      add\n      dup1\n      0x40\n      mstore\n      pop\n      dup2\n      add\n      swap1\n      tag_308\n      swap2\n      swap1\n      tag_126\n      jump\t// in\n    tag_308:\n        /* \"src/VaultRouter.sol\":12994:13003  highValue */\n      dup5\n        /* \"src/VaultRouter.sol\":12994:13034  highValue * highRiskVault.estimatedAPY() */\n      tag_309\n      swap2\n      swap1\n      tag_113\n      jump\t// in\n    tag_309:\n        /* \"src/VaultRouter.sol\":12993:13064  (highValue * highRiskVault.estimatedAPY()) /... */\n      tag_310\n      swap2\n      swap1\n      tag_115\n      jump\t// in\n    tag_310:\n        /* \"src/VaultRouter.sol\":12962:13064  weightedAPY +=... */\n      dup2\n      tag_311\n      swap2\n      swap1\n      tag_142\n      jump\t// in\n    tag_311:\n      swap1\n      pop\n        /* \"src/VaultRouter.sol\":12929:13075  if (highValue > 0) {... */\n    tag_305:\n        /* \"src/VaultRouter.sol\":13092:13103  weightedAPY */\n      dup1\n        /* \"src/VaultRouter.sol\":13085:13103  return weightedAPY */\n      swap7\n      pop\n      pop\n      pop\n      pop\n      pop\n      pop\n      pop\n        /* \"src/VaultRouter.sol\":11983:13110  function getUserEstimatedAPY(address user) external view returns (uint256) {... */\n    tag_269:\n      swap2\n      swap1\n      pop\n      jump\t// out\n        /* \"src/VaultRouter.sol\":4164:5481  function withdrawAll()... */\n    tag_72:\n        /* \"src/VaultRouter.sol\":4242:4263  uint256 totalReceived */\n      0x00\n        /* \"@openzeppelin/contracts/utils/ReentrancyGuard.sol\":3023:3044  _nonReentrantBefore() */\n      tag_313\n        /* \"@openzeppelin/contracts/utils/ReentrancyGuard.sol\":3023:3042  _nonReentrantBefore */\n      tag_105\n        /* \"@openzeppelin/contracts/utils/ReentrancyGuard.sol\":3023:3044  _nonReentrantBefore() */\n      jump\t// in\n    tag_313:\n        /* \"src/VaultRouter.sol\":4279:4302  UserPosition memory pos */\n      0x00\n        /* \"src/VaultRouter.sol\":4305:4318  userPositions */\n      0x01\n        /* \"src/VaultRouter.sol\":4305:4330  userPositions[msg.sender] */\n      0x00\n        /* \"src/VaultRouter.sol\":4319:4329  msg.sender */\n      caller\n        /* \"src/VaultRouter.sol\":4305:4330  userPositions[msg.sender] */\n      0xffffffffffffffffffffffffffffffffffffffff\n      and\n      0xffffffffffffffffffffffffffffffffffffffff\n      and\n      dup2\n      mstore\n      0x20\n      add\n      swap1\n      dup2\n      mstore\n      0x20\n      add\n      0x00\n      keccak256\n        /* \"src/VaultRouter.sol\":4279:4330  UserPosition memory pos = userPositions[msg.sender] */\n      mload(0x40)\n      dup1\n      0xa0\n      add\n      0x40\n      mstore\n      swap1\n      dup2\n      0x00\n      dup3\n      add\n      sload\n      dup2\n      mstore\n      0x20\n      add\n      0x01\n      dup3\n      add\n      sload\n      dup2\n      mstore\n      0x20\n      add\n      0x02\n      dup3\n      add\n      sload\n      dup2\n      mstore\n      0x20\n      add\n      0x03\n      dup3\n      add\n      sload\n      dup2\n      mstore\n      0x20\n      add\n      0x04\n      dup3\n      add\n      sload\n      dup2\n      mstore\n      pop\n      pop\n      swap1\n      pop\n        /* \"src/VaultRouter.sol\":4361:4362  0 */\n      0x00\n        /* \"src/VaultRouter.sol\":4344:4347  pos */\n      dup2\n        /* \"src/VaultRouter.sol\":4344:4357  pos.lowShares */\n      0x00\n      add\n      mload\n        /* \"src/VaultRouter.sol\":4344:4362  pos.lowShares == 0 */\n      eq\n        /* \"src/VaultRouter.sol\":4344:4384  pos.lowShares == 0 && pos.medShares == 0 */\n      dup1\n      iszero\n      tag_315\n      jumpi\n      pop\n        /* \"src/VaultRouter.sol\":4383:4384  0 */\n      0x00\n        /* \"src/VaultRouter.sol\":4366:4369  pos */\n      dup2\n        /* \"src/VaultRouter.sol\":4366:4379  pos.medShares */\n      0x20\n      add\n      mload\n        /* \"src/VaultRouter.sol\":4366:4384  pos.medShares == 0 */\n      eq\n        /* \"src/VaultRouter.sol\":4344:4384  pos.lowShares == 0 && pos.medShares == 0 */\n    tag_315:\n        /* \"src/VaultRouter.sol\":4344:4407  pos.lowShares == 0 && pos.medShares == 0 && pos.highShares == 0 */\n      dup1\n      iszero\n      tag_316\n      jumpi\n      pop\n        /* \"src/VaultRouter.sol\":4406:4407  0 */\n      0x00\n        /* \"src/VaultRouter.sol\":4388:4391  pos */\n      dup2\n        /* \"src/VaultRouter.sol\":4388:4402  pos.highShares */\n      0x40\n      add\n      mload\n        /* \"src/VaultRouter.sol\":4388:4407  pos.highShares == 0 */\n      eq\n        /* \"src/VaultRouter.sol\":4344:4407  pos.lowShares == 0 && pos.medShares == 0 && pos.highShares == 0 */\n    tag_316:\n        /* \"src/VaultRouter.sol\":4340:4453  if (pos.lowShares == 0 && pos.medShares == 0 && pos.highShares == 0) {... */\n      iszero\n      tag_317\n      jumpi\n        /* \"src/VaultRouter.sol\":4430:4442  NoPosition() */\n      mload(0x40)\n      0xabf0f03400000000000000000000000000000000000000000000000000000000\n      dup2\n      mstore\n      0x04\n      add\n      mload(0x40)\n      dup1\n      swap2\n      sub\n      swap1\n      revert\n        /* \"src/VaultRouter.sol\":4340:4453  if (pos.lowShares == 0 && pos.medShares == 0 && pos.highShares == 0) {... */\n    tag_317:\n        /* \"src/VaultRouter.sol\":4463:4480  uint256 lowAssets */\n      0x00\n        /* \"src/VaultRouter.sol\":4483:4484  0 */\n      0x00\n        /* \"src/VaultRouter.sol\":4463:4484  uint256 lowAssets = 0 */\n      swap1\n      pop\n        /* \"src/VaultRouter.sol\":4494:4511  uint256 medAssets */\n      0x00\n        /* \"src/VaultRouter.sol\":4514:4515  0 */\n      0x00\n        /* \"src/VaultRouter.sol\":4494:4515  uint256 medAssets = 0 */\n      swap1\n      pop\n        /* \"src/VaultRouter.sol\":4525:4543  uint256 highAssets */\n      0x00\n        /* \"src/VaultRouter.sol\":4546:4547  0 */\n      0x00\n        /* \"src/VaultRouter.sol\":4525:4547  uint256 highAssets = 0 */\n      swap1\n      pop\n        /* \"src/VaultRouter.sol\":4578:4579  0 */\n      0x00\n        /* \"src/VaultRouter.sol\":4562:4565  pos */\n      dup5\n        /* \"src/VaultRouter.sol\":4562:4575  pos.lowShares */\n      0x00\n      add\n      mload\n        /* \"src/VaultRouter.sol\":4562:4579  pos.lowShares > 0 */\n      gt\n        /* \"src/VaultRouter.sol\":4558:4744  if (pos.lowShares > 0) {... */\n      iszero\n      tag_318\n      jumpi\n        /* \"src/VaultRouter.sol\":4607:4619  lowRiskVault */\n      immutable(\"0x6f489c2bf7f347bf2b17ac1afc3fad1f74e54eb0820bc2f91d3826bbddcf88a7\")\n        /* \"src/VaultRouter.sol\":4607:4626  lowRiskVault.redeem */\n      0xffffffffffffffffffffffffffffffffffffffff\n      and\n      0xba087652\n        /* \"src/VaultRouter.sol\":4644:4647  pos */\n      dup6\n        /* \"src/VaultRouter.sol\":4644:4657  pos.lowShares */\n      0x00\n      add\n      mload\n        /* \"src/VaultRouter.sol\":4683:4687  this */\n      address\n        /* \"src/VaultRouter.sol\":4714:4718  this */\n      address\n        /* \"src/VaultRouter.sol\":4607:4733  lowRiskVault.redeem(... */\n      mload(0x40)\n      dup5\n      0xffffffff\n      and\n      0xe0\n      shl\n      dup2\n      mstore\n      0x04\n      add\n      tag_319\n      swap4\n      swap3\n      swap2\n      swap1\n      tag_122\n      jump\t// in\n    tag_319:\n      0x20\n      mload(0x40)\n      dup1\n      dup4\n      sub\n      dup2\n      0x00\n      dup8\n      gas\n      call\n      iszero\n      dup1\n      iszero\n      tag_321\n      jumpi\n      returndatacopy(0x00, 0x00, returndatasize)\n      revert(0x00, returndatasize)\n    tag_321:\n      pop\n      pop\n      pop\n      pop\n      mload(0x40)\n      returndatasize\n      not(0x1f)\n      0x1f\n      dup3\n      add\n      and\n      dup3\n      add\n      dup1\n      0x40\n      mstore\n      pop\n      dup2\n      add\n      swap1\n      tag_322\n      swap2\n      swap1\n      tag_126\n      jump\t// in\n    tag_322:\n        /* \"src/VaultRouter.sol\":4595:4733  lowAssets = lowRiskVault.redeem(... */\n      swap3\n      pop\n        /* \"src/VaultRouter.sol\":4558:4744  if (pos.lowShares > 0) {... */\n    tag_318:\n        /* \"src/VaultRouter.sol\":4774:4775  0 */\n      0x00\n        /* \"src/VaultRouter.sol\":4758:4761  pos */\n      dup5\n        /* \"src/VaultRouter.sol\":4758:4771  pos.medShares */\n      0x20\n      add\n      mload\n        /* \"src/VaultRouter.sol\":4758:4775  pos.medShares > 0 */\n      gt\n        /* \"src/VaultRouter.sol\":4754:4940  if (pos.medShares > 0) {... */\n      iszero\n      tag_323\n      jumpi\n        /* \"src/VaultRouter.sol\":4803:4815  medRiskVault */\n      immutable(\"0xa06d50e93635bb1f7f7f3a59783cc967db09d702f4506243a2828fafdfb3c2b8\")\n        /* \"src/VaultRouter.sol\":4803:4822  medRiskVault.redeem */\n      0xffffffffffffffffffffffffffffffffffffffff\n      and\n      0xba087652\n        /* \"src/VaultRouter.sol\":4840:4843  pos */\n      dup6\n        /* \"src/VaultRouter.sol\":4840:4853  pos.medShares */\n      0x20\n      add\n      mload\n        /* \"src/VaultRouter.sol\":4879:4883  this */\n      address\n        /* \"src/VaultRouter.sol\":4910:4914  this */\n      address\n        /* \"src/VaultRouter.sol\":4803:4929  medRiskVault.redeem(... */\n      mload(0x40)\n      dup5\n      0xffffffff\n      and\n      0xe0\n      shl\n      dup2\n      mstore\n      0x04\n      add\n      tag_324\n      swap4\n      swap3\n      swap2\n      swap1\n      tag_122\n      jump\t// in\n    tag_324:\n      0x20\n      mload(0x40)\n      dup1\n      dup4\n      sub\n      dup2\n      0x00\n      dup8\n      gas\n      call\n      iszero\n      dup1\n      iszero\n      tag_326\n      jumpi\n      returndatacopy(0x00, 0x00, returndatasize)\n      revert(0x00, returndatasize)\n    tag_326:\n      pop\n      pop\n      pop\n      pop\n      mload(0x40)\n      returndatasize\n      not(0x1f)\n      0x1f\n      dup3\n      add\n      and\n      dup3\n      add\n      dup1\n      0x40\n      mstore\n      pop\n      dup2\n      add\n      swap1\n      tag_327\n      swap2\n      swap1\n      tag_126\n      jump\t// in\n    tag_327:\n        /* \"src/VaultRouter.sol\":4791:4929  medAssets = medRiskVault.redeem(... */\n      swap2\n      pop\n        /* \"src/VaultRouter.sol\":4754:4940  if (pos.medShares > 0) {... */\n    tag_323:\n        /* \"src/VaultRouter.sol\":4971:4972  0 */\n      0x00\n        /* \"src/VaultRouter.sol\":4954:4957  pos */\n      dup5\n        /* \"src/VaultRouter.sol\":4954:4968  pos.highShares */\n      0x40\n      add\n      mload\n        /* \"src/VaultRouter.sol\":4954:4972  pos.highShares > 0 */\n      gt\n        /* \"src/VaultRouter.sol\":4950:5140  if (pos.highShares > 0) {... */\n      iszero\n      tag_328\n      jumpi\n        /* \"src/VaultRouter.sol\":5001:5014  highRiskVault */\n      immutable(\"0x574c9b24b1330b680473d85a29c8e5ee10c43b3c92431d577a8acff668b9d6f0\")\n        /* \"src/VaultRouter.sol\":5001:5021  highRiskVault.redeem */\n      0xffffffffffffffffffffffffffffffffffffffff\n      and\n      0xba087652\n        /* \"src/VaultRouter.sol\":5039:5042  pos */\n      dup6\n        /* \"src/VaultRouter.sol\":5039:5053  pos.highShares */\n      0x40\n      add\n      mload\n        /* \"src/VaultRouter.sol\":5079:5083  this */\n      address\n        /* \"src/VaultRouter.sol\":5110:5114  this */\n      address\n        /* \"src/VaultRouter.sol\":5001:5129  highRiskVault.redeem(... */\n      mload(0x40)\n      dup5\n      0xffffffff\n      and\n      0xe0\n      shl\n      dup2\n      mstore\n      0x04\n      add\n      tag_329\n      swap4\n      swap3\n      swap2\n      swap1\n      tag_122\n      jump\t// in\n    tag_329:\n      0x20\n      mload(0x40)\n      dup1\n      dup4\n      sub\n      dup2\n      0x00\n      dup8\n      gas\n      call\n      iszero\n      dup1\n      iszero\n      tag_331\n      jumpi\n      returndatacopy(0x00, 0x00, returndatasize)\n      revert(0x00, returndatasize)\n    tag_331:\n      pop\n      pop\n      pop\n      pop\n      mload(0x40)\n      returndatasize\n      not(0x1f)\n      0x1f\n      dup3\n      add\n      and\n      dup3\n      add\n      dup1\n      0x40\n      mstore\n      pop\n      dup2\n      add\n      swap1\n      tag_332\n      swap2\n      swap1\n      tag_126\n      jump\t// in\n    tag_332:\n        /* \"src/VaultRouter.sol\":4988:5129  highAssets = highRiskVault.redeem(... */\n      swap1\n      pop\n        /* \"src/VaultRouter.sol\":4950:5140  if (pos.highShares > 0) {... */\n    tag_328:\n        /* \"src/VaultRouter.sol\":5190:5200  highAssets */\n      dup1\n        /* \"src/VaultRouter.sol\":5178:5187  medAssets */\n      dup3\n        /* \"src/VaultRouter.sol\":5166:5175  lowAssets */\n      dup5\n        /* \"src/VaultRouter.sol\":5166:5187  lowAssets + medAssets */\n      tag_333\n      swap2\n      swap1\n      tag_142\n      jump\t// in\n    tag_333:\n        /* \"src/VaultRouter.sol\":5166:5200  lowAssets + medAssets + highAssets */\n      tag_334\n      swap2\n      swap1\n      tag_142\n      jump\t// in\n    tag_334:\n        /* \"src/VaultRouter.sol\":5150:5200  totalReceived = lowAssets + medAssets + highAssets */\n      swap5\n      pop\n        /* \"src/VaultRouter.sol\":5218:5231  userPositions */\n      0x01\n        /* \"src/VaultRouter.sol\":5218:5243  userPositions[msg.sender] */\n      0x00\n        /* \"src/VaultRouter.sol\":5232:5242  msg.sender */\n      caller\n        /* \"src/VaultRouter.sol\":5218:5243  userPositions[msg.sender] */\n      0xffffffffffffffffffffffffffffffffffffffff\n      and\n      0xffffffffffffffffffffffffffffffffffffffff\n      and\n      dup2\n      mstore\n      0x20\n      add\n      swap1\n      dup2\n      mstore\n      0x20\n      add\n      0x00\n      keccak256\n      0x00\n        /* \"src/VaultRouter.sol\":5211:5243  delete userPositions[msg.sender] */\n      0x00\n      dup3\n      add\n      0x00\n      swap1\n      sstore\n      0x01\n      dup3\n      add\n      0x00\n      swap1\n      sstore\n      0x02\n      dup3\n      add\n      0x00\n      swap1\n      sstore\n      0x03\n      dup3\n      add\n      0x00\n      swap1\n      sstore\n      0x04\n      dup3\n      add\n      0x00\n      swap1\n      sstore\n      pop\n      pop\n        /* \"src/VaultRouter.sol\":5254:5306  depositToken.safeTransfer(msg.sender, totalReceived) */\n      tag_335\n        /* \"src/VaultRouter.sol\":5280:5290  msg.sender */\n      caller\n        /* \"src/VaultRouter.sol\":5292:5305  totalReceived */\n      dup7\n        /* \"src/VaultRouter.sol\":5254:5266  depositToken */\n      immutable(\"0x39464b971e976f39f397b655477ab48e3c9a80307c286737f0e421ce6ddce354\")\n        /* \"src/VaultRouter.sol\":5254:5279  depositToken.safeTransfer */\n      0xffffffffffffffffffffffffffffffffffffffff\n      and\n      tag_148\n      swap1\n        /* \"src/VaultRouter.sol\":5254:5306  depositToken.safeTransfer(msg.sender, totalReceived) */\n      swap3\n      swap2\n      swap1\n      0xffffffff\n      and\n      jump\t// in\n    tag_335:\n        /* \"src/VaultRouter.sol\":5345:5355  msg.sender */\n      caller\n        /* \"src/VaultRouter.sol\":5322:5474  Withdrawn(... */\n      0xffffffffffffffffffffffffffffffffffffffff\n      and\n      0x94ffd6b85c71b847775c89ef6496b93cee961bdc6ff827fd117f174f06f745ae\n        /* \"src/VaultRouter.sol\":5369:5382  totalReceived */\n      dup7\n        /* \"src/VaultRouter.sol\":5396:5399  pos */\n      dup7\n        /* \"src/VaultRouter.sol\":5396:5409  pos.lowShares */\n      0x00\n      add\n      mload\n        /* \"src/VaultRouter.sol\":5423:5426  pos */\n      dup8\n        /* \"src/VaultRouter.sol\":5423:5436  pos.medShares */\n      0x20\n      add\n      mload\n        /* \"src/VaultRouter.sol\":5450:5453  pos */\n      dup9\n        /* \"src/VaultRouter.sol\":5450:5464  pos.highShares */\n      0x40\n      add\n      mload\n        /* \"src/VaultRouter.sol\":5322:5474  Withdrawn(... */\n      mload(0x40)\n      tag_336\n      swap5\n      swap4\n      swap3\n      swap2\n      swap1\n      tag_64\n      jump\t// in\n    tag_336:\n      mload(0x40)\n      dup1\n      swap2\n      sub\n      swap1\n      log2\n        /* \"src/VaultRouter.sol\":4269:5481  {... */\n      pop\n      pop\n      pop\n      pop\n        /* \"@openzeppelin/contracts/utils/ReentrancyGuard.sol\":3065:3085  _nonReentrantAfter() */\n      tag_337\n        /* \"@openzeppelin/contracts/utils/ReentrancyGuard.sol\":3065:3083  _nonReentrantAfter */\n      tag_152\n        /* \"@openzeppelin/contracts/utils/ReentrancyGuard.sol\":3065:3085  _nonReentrantAfter() */\n      jump\t// in\n    tag_337:\n        /* \"src/VaultRouter.sol\":4164:5481  function withdrawAll()... */\n      swap1\n      jump\t// out\n        /* \"@openzeppelin/contracts/access/Ownable.sol\":1638:1723  function owner() public view virtual returns (address) {... */\n    tag_75:\n        /* \"@openzeppelin/contracts/access/Ownable.sol\":1684:1691  address */\n      0x00\n        /* \"@openzeppelin/contracts/access/Ownable.sol\":1710:1716  _owner */\n      0x00\n      0x00\n      swap1\n      sload\n      swap1\n      0x0100\n      exp\n      swap1\n      div\n      0xffffffffffffffffffffffffffffffffffffffff\n      and\n        /* \"@openzeppelin/contracts/access/Ownable.sol\":1703:1716  return _owner */\n      swap1\n      pop\n        /* \"@openzeppelin/contracts/access/Ownable.sol\":1638:1723  function owner() public view virtual returns (address) {... */\n      swap1\n      jump\t// out\n        /* \"src/VaultRouter.sol\":1028:1064  IVault public immutable lowRiskVault */\n    tag_79:\n      immutable(\"0x6f489c2bf7f347bf2b17ac1afc3fad1f74e54eb0820bc2f91d3826bbddcf88a7\")\n      dup2\n      jump\t// out\n        /* \"src/VaultRouter.sol\":11429:11719  function getUserVaultShares(... */\n    tag_83:\n        /* \"src/VaultRouter.sol\":11532:11549  uint256 lowShares */\n      0x00\n        /* \"src/VaultRouter.sol\":11551:11568  uint256 medShares */\n      0x00\n        /* \"src/VaultRouter.sol\":11570:11588  uint256 highShares */\n      0x00\n        /* \"src/VaultRouter.sol\":11604:11627  UserPosition memory pos */\n      0x00\n        /* \"src/VaultRouter.sol\":11630:11643  userPositions */\n      0x01\n        /* \"src/VaultRouter.sol\":11630:11649  userPositions[user] */\n      0x00\n        /* \"src/VaultRouter.sol\":11644:11648  user */\n      dup7\n        /* \"src/VaultRouter.sol\":11630:11649  userPositions[user] */\n      0xffffffffffffffffffffffffffffffffffffffff\n      and\n      0xffffffffffffffffffffffffffffffffffffffff\n      and\n      dup2\n      mstore\n      0x20\n      add\n      swap1\n      dup2\n      mstore\n      0x20\n      add\n      0x00\n      keccak256\n        /* \"src/VaultRouter.sol\":11604:11649  UserPosition memory pos = userPositions[user] */\n      mload(0x40)\n      dup1\n      0xa0\n      add\n      0x40\n      mstore\n      swap1\n      dup2\n      0x00\n      dup3\n      add\n      sload\n      dup2\n      mstore\n      0x20\n      add\n      0x01\n      dup3\n      add\n      sload\n      dup2\n      mstore\n      0x20\n      add\n      0x02\n      dup3\n      add\n      sload\n      dup2\n      mstore\n      0x20\n      add\n      0x03\n      dup3\n      add\n      sload\n      dup2\n      mstore\n      0x20\n      add\n      0x04\n      dup3\n      add\n      sload\n      dup2\n      mstore\n      pop\n      pop\n      swap1\n      pop\n        /* \"src/VaultRouter.sol\":11667:11670  pos */\n      dup1\n        /* \"src/VaultRouter.sol\":11667:11680  pos.lowShares */\n      0x00\n      add\n      mload\n        /* \"src/VaultRouter.sol\":11682:11685  pos */\n      dup2\n        /* \"src/VaultRouter.sol\":11682:11695  pos.medShares */\n      0x20\n      add\n      mload\n        /* \"src/VaultRouter.sol\":11697:11700  pos */\n      dup3\n        /* \"src/VaultRouter.sol\":11697:11711  pos.highShares */\n      0x40\n      add\n      mload\n        /* \"src/VaultRouter.sol\":11659:11712  return (pos.lowShares, pos.medShares, pos.highShares) */\n      swap4\n      pop\n      swap4\n      pop\n      swap4\n      pop\n      pop\n        /* \"src/VaultRouter.sol\":11429:11719  function getUserVaultShares(... */\n      swap2\n      swap4\n      swap1\n      swap3\n      pop\n      jump\t// out\n        /* \"src/VaultRouter.sol\":1070:1106  IVault public immutable medRiskVault */\n    tag_86:\n      immutable(\"0xa06d50e93635bb1f7f7f3a59783cc967db09d702f4506243a2828fafdfb3c2b8\")\n      dup2\n      jump\t// out\n        /* \"src/VaultRouter.sol\":9795:10342  function getUserTotalValue(address user) public view returns (uint256) {... */\n    tag_90:\n        /* \"src/VaultRouter.sol\":9857:9864  uint256 */\n      0x00\n        /* \"src/VaultRouter.sol\":9876:9899  UserPosition memory pos */\n      0x00\n        /* \"src/VaultRouter.sol\":9902:9915  userPositions */\n      0x01\n        /* \"src/VaultRouter.sol\":9902:9921  userPositions[user] */\n      0x00\n        /* \"src/VaultRouter.sol\":9916:9920  user */\n      dup5\n        /* \"src/VaultRouter.sol\":9902:9921  userPositions[user] */\n      0xffffffffffffffffffffffffffffffffffffffff\n      and\n      0xffffffffffffffffffffffffffffffffffffffff\n      and\n      dup2\n      mstore\n      0x20\n      add\n      swap1\n      dup2\n      mstore\n      0x20\n      add\n      0x00\n      keccak256\n        /* \"src/VaultRouter.sol\":9876:9921  UserPosition memory pos = userPositions[user] */\n      mload(0x40)\n      dup1\n      0xa0\n      add\n      0x40\n      mstore\n      swap1\n      dup2\n      0x00\n      dup3\n      add\n      sload\n      dup2\n      mstore\n      0x20\n      add\n      0x01\n      dup3\n      add\n      sload\n      dup2\n      mstore\n      0x20\n      add\n      0x02\n      dup3\n      add\n      sload\n      dup2\n      mstore\n      0x20\n      add\n      0x03\n      dup3\n      add\n      sload\n      dup2\n      mstore\n      0x20\n      add\n      0x04\n      dup3\n      add\n      sload\n      dup2\n      mstore\n      pop\n      pop\n      swap1\n      pop\n        /* \"src/VaultRouter.sol\":9932:9948  uint256 lowValue */\n      0x00\n        /* \"src/VaultRouter.sol\":9967:9968  0 */\n      0x00\n        /* \"src/VaultRouter.sol\":9951:9954  pos */\n      dup3\n        /* \"src/VaultRouter.sol\":9951:9964  pos.lowShares */\n      0x00\n      add\n      mload\n        /* \"src/VaultRouter.sol\":9951:9968  pos.lowShares > 0 */\n      gt\n        /* \"src/VaultRouter.sol\":9951:10042  pos.lowShares > 0... */\n      tag_341\n      jumpi\n        /* \"src/VaultRouter.sol\":10041:10042  0 */\n      0x00\n        /* \"src/VaultRouter.sol\":9951:10042  pos.lowShares > 0... */\n      jump(tag_342)\n    tag_341:\n        /* \"src/VaultRouter.sol\":9983:9995  lowRiskVault */\n      immutable(\"0x6f489c2bf7f347bf2b17ac1afc3fad1f74e54eb0820bc2f91d3826bbddcf88a7\")\n        /* \"src/VaultRouter.sol\":9983:10011  lowRiskVault.convertToAssets */\n      0xffffffffffffffffffffffffffffffffffffffff\n      and\n      0x07a2d13a\n        /* \"src/VaultRouter.sol\":10012:10015  pos */\n      dup4\n        /* \"src/VaultRouter.sol\":10012:10025  pos.lowShares */\n      0x00\n      add\n      mload\n        /* \"src/VaultRouter.sol\":9983:10026  lowRiskVault.convertToAssets(pos.lowShares) */\n      mload(0x40)\n      dup3\n      0xffffffff\n      and\n      0xe0\n      shl\n      dup2\n      mstore\n      0x04\n      add\n      tag_343\n      swap2\n      swap1\n      tag_31\n      jump\t// in\n    tag_343:\n      0x20\n      mload(0x40)\n      dup1\n      dup4\n      sub\n      dup2\n      dup7\n      gas\n      staticcall\n      iszero\n      dup1\n      iszero\n      tag_345\n      jumpi\n      returndatacopy(0x00, 0x00, returndatasize)\n      revert(0x00, returndatasize)\n    tag_345:\n      pop\n      pop\n      pop\n      pop\n      mload(0x40)\n      returndatasize\n      not(0x1f)\n      0x1f\n      dup3\n      add\n      and\n      dup3\n      add\n      dup1\n      0x40\n      mstore\n      pop\n      dup2\n      add\n      swap1\n      tag_346\n      swap2\n      swap1\n      tag_126\n      jump\t// in\n    tag_346:\n        /* \"src/VaultRouter.sol\":9951:10042  pos.lowShares > 0... */\n    tag_342:\n        /* \"src/VaultRouter.sol\":9932:10042  uint256 lowValue = pos.lowShares > 0... */\n      swap1\n      pop\n        /* \"src/VaultRouter.sol\":10052:10068  uint256 medValue */\n      0x00\n        /* \"src/VaultRouter.sol\":10087:10088  0 */\n      0x00\n        /* \"src/VaultRouter.sol\":10071:10074  pos */\n      dup4\n        /* \"src/VaultRouter.sol\":10071:10084  pos.medShares */\n      0x20\n      add\n      mload\n        /* \"src/VaultRouter.sol\":10071:10088  pos.medShares > 0 */\n      gt\n        /* \"src/VaultRouter.sol\":10071:10162  pos.medShares > 0... */\n      tag_347\n      jumpi\n        /* \"src/VaultRouter.sol\":10161:10162  0 */\n      0x00\n        /* \"src/VaultRouter.sol\":10071:10162  pos.medShares > 0... */\n      jump(tag_348)\n    tag_347:\n        /* \"src/VaultRouter.sol\":10103:10115  medRiskVault */\n      immutable(\"0xa06d50e93635bb1f7f7f3a59783cc967db09d702f4506243a2828fafdfb3c2b8\")\n        /* \"src/VaultRouter.sol\":10103:10131  medRiskVault.convertToAssets */\n      0xffffffffffffffffffffffffffffffffffffffff\n      and\n      0x07a2d13a\n        /* \"src/VaultRouter.sol\":10132:10135  pos */\n      dup5\n        /* \"src/VaultRouter.sol\":10132:10145  pos.medShares */\n      0x20\n      add\n      mload\n        /* \"src/VaultRouter.sol\":10103:10146  medRiskVault.convertToAssets(pos.medShares) */\n      mload(0x40)\n      dup3\n      0xffffffff\n      and\n      0xe0\n      shl\n      dup2\n      mstore\n      0x04\n      add\n      tag_349\n      swap2\n      swap1\n      tag_31\n      jump\t// in\n    tag_349:\n      0x20\n      mload(0x40)\n      dup1\n      dup4\n      sub\n      dup2\n      dup7\n      gas\n      staticcall\n      iszero\n      dup1\n      iszero\n      tag_351\n      jumpi\n      returndatacopy(0x00, 0x00, returndatasize)\n      revert(0x00, returndatasize)\n    tag_351:\n      pop\n      pop\n      pop\n      pop\n      mload(0x40)\n      returndatasize\n      not(0x1f)\n      0x1f\n      dup3\n      add\n      and\n      dup3\n      add\n      dup1\n      0x40\n      mstore\n      pop\n      dup2\n      add\n      swap1\n      tag_352\n      swap2\n      swap1\n      tag_126\n      jump\t// in\n    tag_352:\n        /* \"src/VaultRouter.sol\":10071:10162  pos.medShares > 0... */\n    tag_348:\n        /* \"src/VaultRouter.sol\":10052:10162  uint256 medValue = pos.medShares > 0... */\n      swap1\n      pop\n        /* \"src/VaultRouter.sol\":10172:10189  uint256 highValue */\n      0x00\n        /* \"src/VaultRouter.sol\":10209:10210  0 */\n      0x00\n        /* \"src/VaultRouter.sol\":10192:10195  pos */\n      dup5\n        /* \"src/VaultRouter.sol\":10192:10206  pos.highShares */\n      0x40\n      add\n      mload\n        /* \"src/VaultRouter.sol\":10192:10210  pos.highShares > 0 */\n      gt\n        /* \"src/VaultRouter.sol\":10192:10286  pos.highShares > 0... */\n      tag_353\n      jumpi\n        /* \"src/VaultRouter.sol\":10285:10286  0 */\n      0x00\n        /* \"src/VaultRouter.sol\":10192:10286  pos.highShares > 0... */\n      jump(tag_354)\n    tag_353:\n        /* \"src/VaultRouter.sol\":10225:10238  highRiskVault */\n      immutable(\"0x574c9b24b1330b680473d85a29c8e5ee10c43b3c92431d577a8acff668b9d6f0\")\n        /* \"src/VaultRouter.sol\":10225:10254  highRiskVault.convertToAssets */\n      0xffffffffffffffffffffffffffffffffffffffff\n      and\n      0x07a2d13a\n        /* \"src/VaultRouter.sol\":10255:10258  pos */\n      dup6\n        /* \"src/VaultRouter.sol\":10255:10269  pos.highShares */\n      0x40\n      add\n      mload\n        /* \"src/VaultRouter.sol\":10225:10270  highRiskVault.convertToAssets(pos.highShares) */\n      mload(0x40)\n      dup3\n      0xffffffff\n      and\n      0xe0\n      shl\n      dup2\n      mstore\n      0x04\n      add\n      tag_355\n      swap2\n      swap1\n      tag_31\n      jump\t// in\n    tag_355:\n      0x20\n      mload(0x40)\n      dup1\n      dup4\n      sub\n      dup2\n      dup7\n      gas\n      staticcall\n      iszero\n      dup1\n      iszero\n      tag_357\n      jumpi\n      returndatacopy(0x00, 0x00, returndatasize)\n      revert(0x00, returndatasize)\n    tag_357:\n      pop\n      pop\n      pop\n      pop\n      mload(0x40)\n      returndatasize\n      not(0x1f)\n      0x1f\n      dup3\n      add\n      and\n      dup3\n      add\n      dup1\n      0x40\n      mstore\n      pop\n      dup2\n      add\n      swap1\n      tag_358\n      swap2\n      swap1\n      tag_126\n      jump\t// in\n    tag_358:\n        /* \"src/VaultRouter.sol\":10192:10286  pos.highShares > 0... */\n    tag_354:\n        /* \"src/VaultRouter.sol\":10172:10286  uint256 highValue = pos.highShares > 0... */\n      swap1\n      pop\n        /* \"src/VaultRouter.sol\":10326:10335  highValue */\n      dup1\n        /* \"src/VaultRouter.sol\":10315:10323  medValue */\n      dup3\n        /* \"src/VaultRouter.sol\":10304:10312  lowValue */\n      dup5\n        /* \"src/VaultRouter.sol\":10304:10323  lowValue + medValue */\n      tag_359\n      swap2\n      swap1\n      tag_142\n      jump\t// in\n    tag_359:\n        /* \"src/VaultRouter.sol\":10304:10335  lowValue + medValue + highValue */\n      tag_360\n      swap2\n      swap1\n      tag_142\n      jump\t// in\n    tag_360:\n        /* \"src/VaultRouter.sol\":10297:10335  return lowValue + medValue + highValue */\n      swap5\n      pop\n      pop\n      pop\n      pop\n      pop\n        /* \"src/VaultRouter.sol\":9795:10342  function getUserTotalValue(address user) public view returns (uint256) {... */\n      swap2\n      swap1\n      pop\n      jump\t// out\n        /* \"src/VaultRouter.sol\":2627:4158  function deposit(... */\n    tag_94:\n        /* \"src/VaultRouter.sol\":2729:2746  uint256 lowShares */\n      0x00\n        /* \"src/VaultRouter.sol\":2748:2765  uint256 medShares */\n      0x00\n        /* \"src/VaultRouter.sol\":2767:2785  uint256 highShares */\n      0x00\n        /* \"@openzeppelin/contracts/utils/ReentrancyGuard.sol\":3023:3044  _nonReentrantBefore() */\n      tag_362\n        /* \"@openzeppelin/contracts/utils/ReentrancyGuard.sol\":3023:3042  _nonReentrantBefore */\n      tag_105\n        /* \"@openzeppelin/contracts/utils/ReentrancyGuard.sol\":3023:3044  _nonReentrantBefore() */\n      jump\t// in\n    tag_362:\n        /* \"src/VaultRouter.sol\":2815:2816  0 */\n      0x00\n        /* \"src/VaultRouter.sol\":2805:2811  amount */\n      dup5\n        /* \"src/VaultRouter.sol\":2805:2816  amount == 0 */\n      sub\n        /* \"src/VaultRouter.sol\":2801:2837  if (amount == 0) revert ZeroAmount() */\n      tag_364\n      jumpi\n        /* \"src/VaultRouter.sol\":2825:2837  ZeroAmount() */\n      mload(0x40)\n      0x1f2a200500000000000000000000000000000000000000000000000000000000\n      dup2\n      mstore\n      0x04\n      add\n      mload(0x40)\n      dup1\n      swap2\n      sub\n      swap1\n      revert\n        /* \"src/VaultRouter.sol\":2801:2837  if (amount == 0) revert ZeroAmount() */\n    tag_364:\n        /* \"src/VaultRouter.sol\":2852:2859  riskNFT */\n      immutable(\"0x3b5e79d464b62561753d4e193bbf44b670e74a211dfadb82af01f3cae1ba996a\")\n        /* \"src/VaultRouter.sol\":2852:2870  riskNFT.hasProfile */\n      0xffffffffffffffffffffffffffffffffffffffff\n      and\n      0xa787c80b\n        /* \"src/VaultRouter.sol\":2871:2881  msg.sender */\n      caller\n        /* \"src/VaultRouter.sol\":2852:2882  riskNFT.hasProfile(msg.sender) */\n      mload(0x40)\n      dup3\n      0xffffffff\n      and\n      0xe0\n      shl\n      dup2\n      mstore\n      0x04\n      add\n      tag_365\n      swap2\n      swap1\n      tag_77\n      jump\t// in\n    tag_365:\n      0x20\n      mload(0x40)\n      dup1\n      dup4\n      sub\n      dup2\n      dup7\n      gas\n      staticcall\n      iszero\n      dup1\n      iszero\n      tag_367\n      jumpi\n      returndatacopy(0x00, 0x00, returndatasize)\n      revert(0x00, returndatasize)\n    tag_367:\n      pop\n      pop\n      pop\n      pop\n      mload(0x40)\n      returndatasize\n      not(0x1f)\n      0x1f\n      dup3\n      add\n      and\n      dup3\n      add\n      dup1\n      0x40\n      mstore\n      pop\n      dup2\n      add\n      swap1\n      tag_368\n      swap2\n      swap1\n      tag_212\n      jump\t// in\n    tag_368:\n        /* \"src/VaultRouter.sol\":2847:2902  if (!riskNFT.hasProfile(msg.sender)) revert NoProfile() */\n      tag_369\n      jumpi\n        /* \"src/VaultRouter.sol\":2891:2902  NoProfile() */\n      mload(0x40)\n      0x6f86092700000000000000000000000000000000000000000000000000000000\n      dup2\n      mstore\n      0x04\n      add\n      mload(0x40)\n      dup1\n      swap2\n      sub\n      swap1\n      revert\n        /* \"src/VaultRouter.sol\":2847:2902  if (!riskNFT.hasProfile(msg.sender)) revert NoProfile() */\n    tag_369:\n        /* \"src/VaultRouter.sol\":2913:2948  IRiskNFT.RiskProfile memory profile */\n      0x00\n        /* \"src/VaultRouter.sol\":2951:2958  riskNFT */\n      immutable(\"0x3b5e79d464b62561753d4e193bbf44b670e74a211dfadb82af01f3cae1ba996a\")\n        /* \"src/VaultRouter.sol\":2951:2973  riskNFT.getRiskProfile */\n      0xffffffffffffffffffffffffffffffffffffffff\n      and\n      0xbaf1e57f\n        /* \"src/VaultRouter.sol\":2987:2997  msg.sender */\n      caller\n        /* \"src/VaultRouter.sol\":2951:3007  riskNFT.getRiskProfile(... */\n      mload(0x40)\n      dup3\n      0xffffffff\n      and\n      0xe0\n      shl\n      dup2\n      mstore\n      0x04\n      add\n      tag_370\n      swap2\n      swap1\n      tag_77\n      jump\t// in\n    tag_370:\n      0x60\n      mload(0x40)\n      dup1\n      dup4\n      sub\n      dup2\n      dup7\n      gas\n      staticcall\n      iszero\n      dup1\n      iszero\n      tag_372\n      jumpi\n      returndatacopy(0x00, 0x00, returndatasize)\n      revert(0x00, returndatasize)\n    tag_372:\n      pop\n      pop\n      pop\n      pop\n      mload(0x40)\n      returndatasize\n      not(0x1f)\n      0x1f\n      dup3\n      add\n      and\n      dup3\n      add\n      dup1\n      0x40\n      mstore\n      pop\n      dup2\n      add\n      swap1\n      tag_373\n      swap2\n      swap1\n      tag_240\n      jump\t// in\n    tag_373:\n        /* \"src/VaultRouter.sol\":2913:3007  IRiskNFT.RiskProfile memory profile = riskNFT.getRiskProfile(... */\n      swap1\n      pop\n        /* \"src/VaultRouter.sol\":3018:3034  uint256 lowAlloc */\n      0x00\n        /* \"src/VaultRouter.sol\":3065:3068  100 */\n      0x64\n        /* \"src/VaultRouter.sol\":3047:3054  profile */\n      dup3\n        /* \"src/VaultRouter.sol\":3047:3061  profile.lowPct */\n      0x00\n      add\n      mload\n        /* \"src/VaultRouter.sol\":3038:3061  amount * profile.lowPct */\n      0xff\n      and\n        /* \"src/VaultRouter.sol\":3038:3044  amount */\n      dup8\n        /* \"src/VaultRouter.sol\":3038:3061  amount * profile.lowPct */\n      tag_374\n      swap2\n      swap1\n      tag_113\n      jump\t// in\n    tag_374:\n        /* \"src/VaultRouter.sol\":3037:3068  (amount * profile.lowPct) / 100 */\n      tag_375\n      swap2\n      swap1\n      tag_115\n      jump\t// in\n    tag_375:\n        /* \"src/VaultRouter.sol\":3018:3068  uint256 lowAlloc = (amount * profile.lowPct) / 100 */\n      swap1\n      pop\n        /* \"src/VaultRouter.sol\":3078:3094  uint256 medAlloc */\n      0x00\n        /* \"src/VaultRouter.sol\":3125:3128  100 */\n      0x64\n        /* \"src/VaultRouter.sol\":3107:3114  profile */\n      dup4\n        /* \"src/VaultRouter.sol\":3107:3121  profile.medPct */\n      0x20\n      add\n      mload\n        /* \"src/VaultRouter.sol\":3098:3121  amount * profile.medPct */\n      0xff\n      and\n        /* \"src/VaultRouter.sol\":3098:3104  amount */\n      dup9\n        /* \"src/VaultRouter.sol\":3098:3121  amount * profile.medPct */\n      tag_376\n      swap2\n      swap1\n      tag_113\n      jump\t// in\n    tag_376:\n        /* \"src/VaultRouter.sol\":3097:3128  (amount * profile.medPct) / 100 */\n      tag_377\n      swap2\n      swap1\n      tag_115\n      jump\t// in\n    tag_377:\n        /* \"src/VaultRouter.sol\":3078:3128  uint256 medAlloc = (amount * profile.medPct) / 100 */\n      swap1\n      pop\n        /* \"src/VaultRouter.sol\":3138:3155  uint256 highAlloc */\n      0x00\n        /* \"src/VaultRouter.sol\":3178:3186  medAlloc */\n      dup2\n        /* \"src/VaultRouter.sol\":3167:3175  lowAlloc */\n      dup4\n        /* \"src/VaultRouter.sol\":3158:3164  amount */\n      dup10\n        /* \"src/VaultRouter.sol\":3158:3175  amount - lowAlloc */\n      tag_378\n      swap2\n      swap1\n      tag_128\n      jump\t// in\n    tag_378:\n        /* \"src/VaultRouter.sol\":3158:3186  amount - lowAlloc - medAlloc */\n      tag_379\n      swap2\n      swap1\n      tag_128\n      jump\t// in\n    tag_379:\n        /* \"src/VaultRouter.sol\":3138:3186  uint256 highAlloc = amount - lowAlloc - medAlloc */\n      swap1\n      pop\n        /* \"src/VaultRouter.sol\":3197:3261  depositToken.safeTransferFrom(msg.sender, address(this), amount) */\n      tag_380\n        /* \"src/VaultRouter.sol\":3227:3237  msg.sender */\n      caller\n        /* \"src/VaultRouter.sol\":3247:3251  this */\n      address\n        /* \"src/VaultRouter.sol\":3254:3260  amount */\n      dup11\n        /* \"src/VaultRouter.sol\":3197:3209  depositToken */\n      immutable(\"0x39464b971e976f39f397b655477ab48e3c9a80307c286737f0e421ce6ddce354\")\n        /* \"src/VaultRouter.sol\":3197:3226  depositToken.safeTransferFrom */\n      0xffffffffffffffffffffffffffffffffffffffff\n      and\n      tag_381\n      swap1\n        /* \"src/VaultRouter.sol\":3197:3261  depositToken.safeTransferFrom(msg.sender, address(this), amount) */\n      swap4\n      swap3\n      swap2\n      swap1\n      0xffffffff\n      and\n      jump\t// in\n    tag_380:\n        /* \"src/VaultRouter.sol\":3287:3288  0 */\n      0x00\n        /* \"src/VaultRouter.sol\":3276:3284  lowAlloc */\n      dup4\n        /* \"src/VaultRouter.sol\":3276:3288  lowAlloc > 0 */\n      gt\n        /* \"src/VaultRouter.sol\":3272:3444  if (lowAlloc > 0) {... */\n      iszero\n      tag_382\n      jumpi\n        /* \"src/VaultRouter.sol\":3304:3362  depositToken.forceApprove(address(lowRiskVault), lowAlloc) */\n      tag_383\n        /* \"src/VaultRouter.sol\":3338:3350  lowRiskVault */\n      immutable(\"0x6f489c2bf7f347bf2b17ac1afc3fad1f74e54eb0820bc2f91d3826bbddcf88a7\")\n        /* \"src/VaultRouter.sol\":3353:3361  lowAlloc */\n      dup5\n        /* \"src/VaultRouter.sol\":3304:3316  depositToken */\n      immutable(\"0x39464b971e976f39f397b655477ab48e3c9a80307c286737f0e421ce6ddce354\")\n        /* \"src/VaultRouter.sol\":3304:3329  depositToken.forceApprove */\n      0xffffffffffffffffffffffffffffffffffffffff\n      and\n      tag_249\n      swap1\n        /* \"src/VaultRouter.sol\":3304:3362  depositToken.forceApprove(address(lowRiskVault), lowAlloc) */\n      swap3\n      swap2\n      swap1\n      0xffffffff\n      and\n      jump\t// in\n    tag_383:\n        /* \"src/VaultRouter.sol\":3388:3400  lowRiskVault */\n      immutable(\"0x6f489c2bf7f347bf2b17ac1afc3fad1f74e54eb0820bc2f91d3826bbddcf88a7\")\n        /* \"src/VaultRouter.sol\":3388:3408  lowRiskVault.deposit */\n      0xffffffffffffffffffffffffffffffffffffffff\n      and\n      0x6e553f65\n        /* \"src/VaultRouter.sol\":3409:3417  lowAlloc */\n      dup5\n        /* \"src/VaultRouter.sol\":3427:3431  this */\n      address\n        /* \"src/VaultRouter.sol\":3388:3433  lowRiskVault.deposit(lowAlloc, address(this)) */\n      mload(0x40)\n      dup4\n      0xffffffff\n      and\n      0xe0\n      shl\n      dup2\n      mstore\n      0x04\n      add\n      tag_384\n      swap3\n      swap2\n      swap1\n      tag_251\n      jump\t// in\n    tag_384:\n      0x20\n      mload(0x40)\n      dup1\n      dup4\n      sub\n      dup2\n      0x00\n      dup8\n      gas\n      call\n      iszero\n      dup1\n      iszero\n      tag_386\n      jumpi\n      returndatacopy(0x00, 0x00, returndatasize)\n      revert(0x00, returndatasize)\n    tag_386:\n      pop\n      pop\n      pop\n      pop\n      mload(0x40)\n      returndatasize\n      not(0x1f)\n      0x1f\n      dup3\n      add\n      and\n      dup3\n      add\n      dup1\n      0x40\n      mstore\n      pop\n      dup2\n      add\n      swap1\n      tag_387\n      swap2\n      swap1\n      tag_126\n      jump\t// in\n    tag_387:\n        /* \"src/VaultRouter.sol\":3376:3433  lowShares = lowRiskVault.deposit(lowAlloc, address(this)) */\n      swap7\n      pop\n        /* \"src/VaultRouter.sol\":3272:3444  if (lowAlloc > 0) {... */\n    tag_382:\n        /* \"src/VaultRouter.sol\":3469:3470  0 */\n      0x00\n        /* \"src/VaultRouter.sol\":3458:3466  medAlloc */\n      dup3\n        /* \"src/VaultRouter.sol\":3458:3470  medAlloc > 0 */\n      gt\n        /* \"src/VaultRouter.sol\":3454:3626  if (medAlloc > 0) {... */\n      iszero\n      tag_388\n      jumpi\n        /* \"src/VaultRouter.sol\":3486:3544  depositToken.forceApprove(address(medRiskVault), medAlloc) */\n      tag_389\n        /* \"src/VaultRouter.sol\":3520:3532  medRiskVault */\n      immutable(\"0xa06d50e93635bb1f7f7f3a59783cc967db09d702f4506243a2828fafdfb3c2b8\")\n        /* \"src/VaultRouter.sol\":3535:3543  medAlloc */\n      dup4\n        /* \"src/VaultRouter.sol\":3486:3498  depositToken */\n      immutable(\"0x39464b971e976f39f397b655477ab48e3c9a80307c286737f0e421ce6ddce354\")\n        /* \"src/VaultRouter.sol\":3486:3511  depositToken.forceApprove */\n      0xffffffffffffffffffffffffffffffffffffffff\n      and\n      tag_249\n      swap1\n        /* \"src/VaultRouter.sol\":3486:3544  depositToken.forceApprove(address(medRiskVault), medAlloc) */\n      swap3\n      swap2\n      swap1\n      0xffffffff\n      and\n      jump\t// in\n    tag_389:\n        /* \"src/VaultRouter.sol\":3570:3582  medRiskVault */\n      immutable(\"0xa06d50e93635bb1f7f7f3a59783cc967db09d702f4506243a2828fafdfb3c2b8\")\n        /* \"src/VaultRouter.sol\":3570:3590  medRiskVault.deposit */\n      0xffffffffffffffffffffffffffffffffffffffff\n      and\n      0x6e553f65\n        /* \"src/VaultRouter.sol\":3591:3599  medAlloc */\n      dup4\n        /* \"src/VaultRouter.sol\":3609:3613  this */\n      address\n        /* \"src/VaultRouter.sol\":3570:3615  medRiskVault.deposit(medAlloc, address(this)) */\n      mload(0x40)\n      dup4\n      0xffffffff\n      and\n      0xe0\n      shl\n      dup2\n      mstore\n      0x04\n      add\n      tag_390\n      swap3\n      swap2\n      swap1\n      tag_251\n      jump\t// in\n    tag_390:\n      0x20\n      mload(0x40)\n      dup1\n      dup4\n      sub\n      dup2\n      0x00\n      dup8\n      gas\n      call\n      iszero\n      dup1\n      iszero\n      tag_392\n      jumpi\n      returndatacopy(0x00, 0x00, returndatasize)\n      revert(0x00, returndatasize)\n    tag_392:\n      pop\n      pop\n      pop\n      pop\n      mload(0x40)\n      returndatasize\n      not(0x1f)\n      0x1f\n      dup3\n      add\n      and\n      dup3\n      add\n      dup1\n      0x40\n      mstore\n      pop\n      dup2\n      add\n      swap1\n      tag_393\n      swap2\n      swap1\n      tag_126\n      jump\t// in\n    tag_393:\n        /* \"src/VaultRouter.sol\":3558:3615  medShares = medRiskVault.deposit(medAlloc, address(this)) */\n      swap6\n      pop\n        /* \"src/VaultRouter.sol\":3454:3626  if (medAlloc > 0) {... */\n    tag_388:\n        /* \"src/VaultRouter.sol\":3652:3653  0 */\n      0x00\n        /* \"src/VaultRouter.sol\":3640:3649  highAlloc */\n      dup2\n        /* \"src/VaultRouter.sol\":3640:3653  highAlloc > 0 */\n      gt\n        /* \"src/VaultRouter.sol\":3636:3814  if (highAlloc > 0) {... */\n      iszero\n      tag_394\n      jumpi\n        /* \"src/VaultRouter.sol\":3669:3729  depositToken.forceApprove(address(highRiskVault), highAlloc) */\n      tag_395\n        /* \"src/VaultRouter.sol\":3703:3716  highRiskVault */\n      immutable(\"0x574c9b24b1330b680473d85a29c8e5ee10c43b3c92431d577a8acff668b9d6f0\")\n        /* \"src/VaultRouter.sol\":3719:3728  highAlloc */\n      dup3\n        /* \"src/VaultRouter.sol\":3669:3681  depositToken */\n      immutable(\"0x39464b971e976f39f397b655477ab48e3c9a80307c286737f0e421ce6ddce354\")\n        /* \"src/VaultRouter.sol\":3669:3694  depositToken.forceApprove */\n      0xffffffffffffffffffffffffffffffffffffffff\n      and\n      tag_249\n      swap1\n        /* \"src/VaultRouter.sol\":3669:3729  depositToken.forceApprove(address(highRiskVault), highAlloc) */\n      swap3\n      swap2\n      swap1\n      0xffffffff\n      and\n      jump\t// in\n    tag_395:\n        /* \"src/VaultRouter.sol\":3756:3769  highRiskVault */\n      immutable(\"0x574c9b24b1330b680473d85a29c8e5ee10c43b3c92431d577a8acff668b9d6f0\")\n        /* \"src/VaultRouter.sol\":3756:3777  highRiskVault.deposit */\n      0xffffffffffffffffffffffffffffffffffffffff\n      and\n      0x6e553f65\n        /* \"src/VaultRouter.sol\":3778:3787  highAlloc */\n      dup3\n        /* \"src/VaultRouter.sol\":3797:3801  this */\n      address\n        /* \"src/VaultRouter.sol\":3756:3803  highRiskVault.deposit(highAlloc, address(this)) */\n      mload(0x40)\n      dup4\n      0xffffffff\n      and\n      0xe0\n      shl\n      dup2\n      mstore\n      0x04\n      add\n      tag_396\n      swap3\n      swap2\n      swap1\n      tag_251\n      jump\t// in\n    tag_396:\n      0x20\n      mload(0x40)\n      dup1\n      dup4\n      sub\n      dup2\n      0x00\n      dup8\n      gas\n      call\n      iszero\n      dup1\n      iszero\n      tag_398\n      jumpi\n      returndatacopy(0x00, 0x00, returndatasize)\n      revert(0x00, returndatasize)\n    tag_398:\n      pop\n      pop\n      pop\n      pop\n      mload(0x40)\n      returndatasize\n      not(0x1f)\n      0x1f\n      dup3\n      add\n      and\n      dup3\n      add\n      dup1\n      0x40\n      mstore\n      pop\n      dup2\n      add\n      swap1\n      tag_399\n      swap2\n      swap1\n      tag_126\n      jump\t// in\n    tag_399:\n        /* \"src/VaultRouter.sol\":3743:3803  highShares = highRiskVault.deposit(highAlloc, address(this)) */\n      swap5\n      pop\n        /* \"src/VaultRouter.sol\":3636:3814  if (highAlloc > 0) {... */\n    tag_394:\n        /* \"src/VaultRouter.sol\":3824:3848  UserPosition storage pos */\n      0x00\n        /* \"src/VaultRouter.sol\":3851:3864  userPositions */\n      0x01\n        /* \"src/VaultRouter.sol\":3851:3876  userPositions[msg.sender] */\n      0x00\n        /* \"src/VaultRouter.sol\":3865:3875  msg.sender */\n      caller\n        /* \"src/VaultRouter.sol\":3851:3876  userPositions[msg.sender] */\n      0xffffffffffffffffffffffffffffffffffffffff\n      and\n      0xffffffffffffffffffffffffffffffffffffffff\n      and\n      dup2\n      mstore\n      0x20\n      add\n      swap1\n      dup2\n      mstore\n      0x20\n      add\n      0x00\n      keccak256\n        /* \"src/VaultRouter.sol\":3824:3876  UserPosition storage pos = userPositions[msg.sender] */\n      swap1\n      pop\n        /* \"src/VaultRouter.sol\":3903:3912  lowShares */\n      dup8\n        /* \"src/VaultRouter.sol\":3886:3889  pos */\n      dup2\n        /* \"src/VaultRouter.sol\":3886:3899  pos.lowShares */\n      0x00\n      add\n      0x00\n        /* \"src/VaultRouter.sol\":3886:3912  pos.lowShares += lowShares */\n      dup3\n      dup3\n      sload\n      tag_400\n      swap2\n      swap1\n      tag_142\n      jump\t// in\n    tag_400:\n      swap3\n      pop\n      pop\n      dup2\n      swap1\n      sstore\n      pop\n        /* \"src/VaultRouter.sol\":3939:3948  medShares */\n      dup7\n        /* \"src/VaultRouter.sol\":3922:3925  pos */\n      dup2\n        /* \"src/VaultRouter.sol\":3922:3935  pos.medShares */\n      0x01\n      add\n      0x00\n        /* \"src/VaultRouter.sol\":3922:3948  pos.medShares += medShares */\n      dup3\n      dup3\n      sload\n      tag_401\n      swap2\n      swap1\n      tag_142\n      jump\t// in\n    tag_401:\n      swap3\n      pop\n      pop\n      dup2\n      swap1\n      sstore\n      pop\n        /* \"src/VaultRouter.sol\":3976:3986  highShares */\n      dup6\n        /* \"src/VaultRouter.sol\":3958:3961  pos */\n      dup2\n        /* \"src/VaultRouter.sol\":3958:3972  pos.highShares */\n      0x02\n      add\n      0x00\n        /* \"src/VaultRouter.sol\":3958:3986  pos.highShares += highShares */\n      dup3\n      dup3\n      sload\n      tag_402\n      swap2\n      swap1\n      tag_142\n      jump\t// in\n    tag_402:\n      swap3\n      pop\n      pop\n      dup2\n      swap1\n      sstore\n      pop\n        /* \"src/VaultRouter.sol\":4018:4024  amount */\n      dup9\n        /* \"src/VaultRouter.sol\":3996:3999  pos */\n      dup2\n        /* \"src/VaultRouter.sol\":3996:4014  pos.totalDeposited */\n      0x03\n      add\n      0x00\n        /* \"src/VaultRouter.sol\":3996:4024  pos.totalDeposited += amount */\n      dup3\n      dup3\n      sload\n      tag_403\n      swap2\n      swap1\n      tag_142\n      jump\t// in\n    tag_403:\n      swap3\n      pop\n      pop\n      dup2\n      swap1\n      sstore\n      pop\n        /* \"src/VaultRouter.sol\":4057:4072  block.timestamp */\n      timestamp\n        /* \"src/VaultRouter.sol\":4034:4037  pos */\n      dup2\n        /* \"src/VaultRouter.sol\":4034:4054  pos.depositTimestamp */\n      0x04\n      add\n        /* \"src/VaultRouter.sol\":4034:4072  pos.depositTimestamp = block.timestamp */\n      dup2\n      swap1\n      sstore\n      pop\n        /* \"src/VaultRouter.sol\":4098:4108  msg.sender */\n      caller\n        /* \"src/VaultRouter.sol\":4088:4151  Deposited(msg.sender, amount, lowShares, medShares, highShares) */\n      0xffffffffffffffffffffffffffffffffffffffff\n      and\n      0xe3b53cd1a44fbf11535e145d80b8ef1ed6d57a73bf5daa7e939b6b01657d6549\n        /* \"src/VaultRouter.sol\":4110:4116  amount */\n      dup11\n        /* \"src/VaultRouter.sol\":4118:4127  lowShares */\n      dup11\n        /* \"src/VaultRouter.sol\":4129:4138  medShares */\n      dup11\n        /* \"src/VaultRouter.sol\":4140:4150  highShares */\n      dup11\n        /* \"src/VaultRouter.sol\":4088:4151  Deposited(msg.sender, amount, lowShares, medShares, highShares) */\n      mload(0x40)\n      tag_404\n      swap5\n      swap4\n      swap3\n      swap2\n      swap1\n      tag_64\n      jump\t// in\n    tag_404:\n      mload(0x40)\n      dup1\n      swap2\n      sub\n      swap1\n      log2\n        /* \"src/VaultRouter.sol\":2791:4158  {... */\n      pop\n      pop\n      pop\n      pop\n      pop\n        /* \"@openzeppelin/contracts/utils/ReentrancyGuard.sol\":3065:3085  _nonReentrantAfter() */\n      tag_405\n        /* \"@openzeppelin/contracts/utils/ReentrancyGuard.sol\":3065:3083  _nonReentrantAfter */\n      tag_152\n        /* \"@openzeppelin/contracts/utils/ReentrancyGuard.sol\":3065:3085  _nonReentrantAfter() */\n      jump\t// in\n    tag_405:\n        /* \"src/VaultRouter.sol\":2627:4158  function deposit(... */\n      swap2\n      swap4\n      swap1\n      swap3\n      pop\n      jump\t// out\n        /* \"src/VaultRouter.sol\":946:982  IERC20 public immutable depositToken */\n    tag_97:\n      immutable(\"0x39464b971e976f39f397b655477ab48e3c9a80307c286737f0e421ce6ddce354\")\n      dup2\n      jump\t// out\n        /* \"@openzeppelin/contracts/access/Ownable.sol\":2543:2758  function transferOwnership(address newOwner) public virtual onlyOwner {... */\n    tag_102:\n        /* \"@openzeppelin/contracts/access/Ownable.sol\":1531:1544  _checkOwner() */\n      tag_407\n        /* \"@openzeppelin/contracts/access/Ownable.sol\":1531:1542  _checkOwner */\n      tag_189\n        /* \"@openzeppelin/contracts/access/Ownable.sol\":1531:1544  _checkOwner() */\n      jump\t// in\n    tag_407:\n        /* \"@openzeppelin/contracts/access/Ownable.sol\":2647:2648  0 */\n      0x00\n        /* \"@openzeppelin/contracts/access/Ownable.sol\":2627:2649  newOwner == address(0) */\n      0xffffffffffffffffffffffffffffffffffffffff\n      and\n        /* \"@openzeppelin/contracts/access/Ownable.sol\":2627:2635  newOwner */\n      dup2\n        /* \"@openzeppelin/contracts/access/Ownable.sol\":2627:2649  newOwner == address(0) */\n      0xffffffffffffffffffffffffffffffffffffffff\n      and\n      sub\n        /* \"@openzeppelin/contracts/access/Ownable.sol\":2623:2714  if (newOwner == address(0)) {... */\n      tag_409\n      jumpi\n        /* \"@openzeppelin/contracts/access/Ownable.sol\":2700:2701  0 */\n      0x00\n        /* \"@openzeppelin/contracts/access/Ownable.sol\":2672:2703  OwnableInvalidOwner(address(0)) */\n      mload(0x40)\n      0x1e4fbdf700000000000000000000000000000000000000000000000000000000\n      dup2\n      mstore\n      0x04\n      add\n      tag_410\n      swap2\n      swap1\n      tag_77\n      jump\t// in\n    tag_410:\n      mload(0x40)\n      dup1\n      swap2\n      sub\n      swap1\n      revert\n        /* \"@openzeppelin/contracts/access/Ownable.sol\":2623:2714  if (newOwner == address(0)) {... */\n    tag_409:\n        /* \"@openzeppelin/contracts/access/Ownable.sol\":2723:2751  _transferOwnership(newOwner) */\n      tag_411\n        /* \"@openzeppelin/contracts/access/Ownable.sol\":2742:2750  newOwner */\n      dup2\n        /* \"@openzeppelin/contracts/access/Ownable.sol\":2723:2741  _transferOwnership */\n      tag_192\n        /* \"@openzeppelin/contracts/access/Ownable.sol\":2723:2751  _transferOwnership(newOwner) */\n      jump\t// in\n    tag_411:\n        /* \"@openzeppelin/contracts/access/Ownable.sol\":2543:2758  function transferOwnership(address newOwner) public virtual onlyOwner {... */\n      pop\n      jump\t// out\n        /* \"@openzeppelin/contracts/utils/ReentrancyGuard.sol\":3749:4041  function _nonReentrantBefore() private {... */\n    tag_105:\n        /* \"@openzeppelin/contracts/utils/ReentrancyGuard.sol\":3872:3897  _nonReentrantBeforeView() */\n      tag_413\n        /* \"@openzeppelin/contracts/utils/ReentrancyGuard.sol\":3872:3895  _nonReentrantBeforeView */\n      tag_414\n        /* \"@openzeppelin/contracts/utils/ReentrancyGuard.sol\":3872:3897  _nonReentrantBeforeView() */\n      jump\t// in\n    tag_413:\n        /* \"@openzeppelin/contracts/utils/ReentrancyGuard.sol\":2407:2408  2 */\n      0x02\n        /* \"@openzeppelin/contracts/utils/ReentrancyGuard.sol\":3972:4018  _reentrancyGuardStorageSlot().getUint256Slot() */\n      tag_415\n        /* \"@openzeppelin/contracts/utils/ReentrancyGuard.sol\":3972:4001  _reentrancyGuardStorageSlot() */\n      tag_416\n        /* \"@openzeppelin/contracts/utils/ReentrancyGuard.sol\":3972:3999  _reentrancyGuardStorageSlot */\n      tag_417\n        /* \"@openzeppelin/contracts/utils/ReentrancyGuard.sol\":3972:4001  _reentrancyGuardStorageSlot() */\n      jump\t// in\n    tag_416:\n        /* \"@openzeppelin/contracts/utils/ReentrancyGuard.sol\":3972:4016  _reentrancyGuardStorageSlot().getUint256Slot */\n      tag_418\n        /* \"@openzeppelin/contracts/utils/ReentrancyGuard.sol\":3972:4018  _reentrancyGuardStorageSlot().getUint256Slot() */\n      jump\t// in\n    tag_415:\n        /* \"@openzeppelin/contracts/utils/ReentrancyGuard.sol\":3972:4024  _reentrancyGuardStorageSlot().getUint256Slot().value */\n      0x00\n      add\n        /* \"@openzeppelin/contracts/utils/ReentrancyGuard.sol\":3972:4034  _reentrancyGuardStorageSlot().getUint256Slot().value = ENTERED */\n      dup2\n      swap1\n      sstore\n      pop\n        /* \"@openzeppelin/contracts/utils/ReentrancyGuard.sol\":3749:4041  function _nonReentrantBefore() private {... */\n      jump\t// out\n        /* \"@openzeppelin/contracts/token/ERC20/utils/SafeERC20.sol\":1219:1423  function safeTransfer(IERC20 token, address to, uint256 value) internal {... */\n    tag_148:\n        /* \"@openzeppelin/contracts/token/ERC20/utils/SafeERC20.sol\":1306:1343  _safeTransfer(token, to, value, true) */\n      tag_420\n        /* \"@openzeppelin/contracts/token/ERC20/utils/SafeERC20.sol\":1320:1325  token */\n      dup4\n        /* \"@openzeppelin/contracts/token/ERC20/utils/SafeERC20.sol\":1327:1329  to */\n      dup4\n        /* \"@openzeppelin/contracts/token/ERC20/utils/SafeERC20.sol\":1331:1336  value */\n      dup4\n        /* \"@openzeppelin/contracts/token/ERC20/utils/SafeERC20.sol\":1338:1342  true */\n      0x01\n        /* \"@openzeppelin/contracts/token/ERC20/utils/SafeERC20.sol\":1306:1319  _safeTransfer */\n      tag_421\n        /* \"@openzeppelin/contracts/token/ERC20/utils/SafeERC20.sol\":1306:1343  _safeTransfer(token, to, value, true) */\n      jump\t// in\n    tag_420:\n        /* \"@openzeppelin/contracts/token/ERC20/utils/SafeERC20.sol\":1301:1417  if (!_safeTransfer(token, to, value, true)) {... */\n      tag_422\n      jumpi\n        /* \"@openzeppelin/contracts/token/ERC20/utils/SafeERC20.sol\":1399:1404  token */\n      dup3\n        /* \"@openzeppelin/contracts/token/ERC20/utils/SafeERC20.sol\":1366:1406  SafeERC20FailedOperation(address(token)) */\n      mload(0x40)\n      0x5274afe700000000000000000000000000000000000000000000000000000000\n      dup2\n      mstore\n      0x04\n      add\n      tag_423\n      swap2\n      swap1\n      tag_77\n      jump\t// in\n    tag_423:\n      mload(0x40)\n      dup1\n      swap2\n      sub\n      swap1\n      revert\n        /* \"@openzeppelin/contracts/token/ERC20/utils/SafeERC20.sol\":1301:1417  if (!_safeTransfer(token, to, value, true)) {... */\n    tag_422:\n        /* \"@openzeppelin/contracts/token/ERC20/utils/SafeERC20.sol\":1219:1423  function safeTransfer(IERC20 token, address to, uint256 value) internal {... */\n      pop\n      pop\n      pop\n      jump\t// out\n        /* \"@openzeppelin/contracts/utils/ReentrancyGuard.sol\":4047:4300  function _nonReentrantAfter() private {... */\n    tag_152:\n        /* \"@openzeppelin/contracts/utils/ReentrancyGuard.sol\":2365:2366  1 */\n      0x01\n        /* \"@openzeppelin/contracts/utils/ReentrancyGuard.sol\":4227:4273  _reentrancyGuardStorageSlot().getUint256Slot() */\n      tag_425\n        /* \"@openzeppelin/contracts/utils/ReentrancyGuard.sol\":4227:4256  _reentrancyGuardStorageSlot() */\n      tag_426\n        /* \"@openzeppelin/contracts/utils/ReentrancyGuard.sol\":4227:4254  _reentrancyGuardStorageSlot */\n      tag_417\n        /* \"@openzeppelin/contracts/utils/ReentrancyGuard.sol\":4227:4256  _reentrancyGuardStorageSlot() */\n      jump\t// in\n    tag_426:\n        /* \"@openzeppelin/contracts/utils/ReentrancyGuard.sol\":4227:4271  _reentrancyGuardStorageSlot().getUint256Slot */\n      tag_418\n        /* \"@openzeppelin/contracts/utils/ReentrancyGuard.sol\":4227:4273  _reentrancyGuardStorageSlot().getUint256Slot() */\n      jump\t// in\n    tag_425:\n        /* \"@openzeppelin/contracts/utils/ReentrancyGuard.sol\":4227:4279  _reentrancyGuardStorageSlot().getUint256Slot().value */\n      0x00\n      add\n        /* \"@openzeppelin/contracts/utils/ReentrancyGuard.sol\":4227:4293  _reentrancyGuardStorageSlot().getUint256Slot().value = NOT_ENTERED */\n      dup2\n      swap1\n      sstore\n      pop\n        /* \"@openzeppelin/contracts/utils/ReentrancyGuard.sol\":4047:4300  function _nonReentrantAfter() private {... */\n      jump\t// out\n        /* \"@openzeppelin/contracts/access/Ownable.sol\":1796:1958  function _checkOwner() internal view virtual {... */\n    tag_189:\n        /* \"@openzeppelin/contracts/access/Ownable.sol\":1866:1878  _msgSender() */\n      tag_428\n        /* \"@openzeppelin/contracts/access/Ownable.sol\":1866:1876  _msgSender */\n      tag_429\n        /* \"@openzeppelin/contracts/access/Ownable.sol\":1866:1878  _msgSender() */\n      jump\t// in\n    tag_428:\n        /* \"@openzeppelin/contracts/access/Ownable.sol\":1855:1878  owner() != _msgSender() */\n      0xffffffffffffffffffffffffffffffffffffffff\n      and\n        /* \"@openzeppelin/contracts/access/Ownable.sol\":1855:1862  owner() */\n      tag_430\n        /* \"@openzeppelin/contracts/access/Ownable.sol\":1855:1860  owner */\n      tag_75\n        /* \"@openzeppelin/contracts/access/Ownable.sol\":1855:1862  owner() */\n      jump\t// in\n    tag_430:\n        /* \"@openzeppelin/contracts/access/Ownable.sol\":1855:1878  owner() != _msgSender() */\n      0xffffffffffffffffffffffffffffffffffffffff\n      and\n      eq\n        /* \"@openzeppelin/contracts/access/Ownable.sol\":1851:1952  if (owner() != _msgSender()) {... */\n      tag_431\n      jumpi\n        /* \"@openzeppelin/contracts/access/Ownable.sol\":1928:1940  _msgSender() */\n      tag_432\n        /* \"@openzeppelin/contracts/access/Ownable.sol\":1928:1938  _msgSender */\n      tag_429\n        /* \"@openzeppelin/contracts/access/Ownable.sol\":1928:1940  _msgSender() */\n      jump\t// in\n    tag_432:\n        /* \"@openzeppelin/contracts/access/Ownable.sol\":1901:1941  OwnableUnauthorizedAccount(_msgSender()) */\n      mload(0x40)\n      0x118cdaa700000000000000000000000000000000000000000000000000000000\n      dup2\n      mstore\n      0x04\n      add\n      tag_433\n      swap2\n      swap1\n      tag_77\n      jump\t// in\n    tag_433:\n      mload(0x40)\n      dup1\n      swap2\n      sub\n      swap1\n      revert\n        /* \"@openzeppelin/contracts/access/Ownable.sol\":1851:1952  if (owner() != _msgSender()) {... */\n    tag_431:\n        /* \"@openzeppelin/contracts/access/Ownable.sol\":1796:1958  function _checkOwner() internal view virtual {... */\n      jump\t// out\n        /* \"@openzeppelin/contracts/access/Ownable.sol\":2912:3099  function _transferOwnership(address newOwner) internal virtual {... */\n    tag_192:\n        /* \"@openzeppelin/contracts/access/Ownable.sol\":2985:3001  address oldOwner */\n      0x00\n        /* \"@openzeppelin/contracts/access/Ownable.sol\":3004:3010  _owner */\n      0x00\n      0x00\n      swap1\n      sload\n      swap1\n      0x0100\n      exp\n      swap1\n      div\n      0xffffffffffffffffffffffffffffffffffffffff\n      and\n        /* \"@openzeppelin/contracts/access/Ownable.sol\":2985:3010  address oldOwner = _owner */\n      swap1\n      pop\n        /* \"@openzeppelin/contracts/access/Ownable.sol\":3029:3037  newOwner */\n      dup2\n        /* \"@openzeppelin/contracts/access/Ownable.sol\":3020:3026  _owner */\n      0x00\n      0x00\n        /* \"@openzeppelin/contracts/access/Ownable.sol\":3020:3037  _owner = newOwner */\n      0x0100\n      exp\n      dup2\n      sload\n      dup2\n      0xffffffffffffffffffffffffffffffffffffffff\n      mul\n      not\n      and\n      swap1\n      dup4\n      0xffffffffffffffffffffffffffffffffffffffff\n      and\n      mul\n      or\n      swap1\n      sstore\n      pop\n        /* \"@openzeppelin/contracts/access/Ownable.sol\":3083:3091  newOwner */\n      dup2\n        /* \"@openzeppelin/contracts/access/Ownable.sol\":3052:3092  OwnershipTransferred(oldOwner, newOwner) */\n      0xffffffffffffffffffffffffffffffffffffffff\n      and\n        /* \"@openzeppelin/contracts/access/Ownable.sol\":3073:3081  oldOwner */\n      dup2\n        /* \"@openzeppelin/contracts/access/Ownable.sol\":3052:3092  OwnershipTransferred(oldOwner, newOwner) */\n      0xffffffffffffffffffffffffffffffffffffffff\n      and\n      0x8be0079c531659141344cd1fd0a4f28419497f9722a3daafe3b4186f6b6457e0\n      mload(0x40)\n      mload(0x40)\n      dup1\n      swap2\n      sub\n      swap1\n      log3\n        /* \"@openzeppelin/contracts/access/Ownable.sol\":2975:3099  {... */\n      pop\n        /* \"@openzeppelin/contracts/access/Ownable.sol\":2912:3099  function _transferOwnership(address newOwner) internal virtual {... */\n      pop\n      jump\t// out\n        /* \"@openzeppelin/contracts/token/ERC20/utils/SafeERC20.sol\":5098:5465  function forceApprove(IERC20 token, address spender, uint256 value) internal {... */\n    tag_249:\n        /* \"@openzeppelin/contracts/token/ERC20/utils/SafeERC20.sol\":5190:5232  _safeApprove(token, spender, value, false) */\n      tag_436\n        /* \"@openzeppelin/contracts/token/ERC20/utils/SafeERC20.sol\":5203:5208  token */\n      dup4\n        /* \"@openzeppelin/contracts/token/ERC20/utils/SafeERC20.sol\":5210:5217  spender */\n      dup4\n        /* \"@openzeppelin/contracts/token/ERC20/utils/SafeERC20.sol\":5219:5224  value */\n      dup4\n        /* \"@openzeppelin/contracts/token/ERC20/utils/SafeERC20.sol\":5226:5231  false */\n      0x00\n        /* \"@openzeppelin/contracts/token/ERC20/utils/SafeERC20.sol\":5190:5202  _safeApprove */\n      tag_437\n        /* \"@openzeppelin/contracts/token/ERC20/utils/SafeERC20.sol\":5190:5232  _safeApprove(token, spender, value, false) */\n      jump\t// in\n    tag_436:\n        /* \"@openzeppelin/contracts/token/ERC20/utils/SafeERC20.sol\":5185:5459  if (!_safeApprove(token, spender, value, false)) {... */\n      tag_438\n      jumpi\n        /* \"@openzeppelin/contracts/token/ERC20/utils/SafeERC20.sol\":5253:5290  _safeApprove(token, spender, 0, true) */\n      tag_439\n        /* \"@openzeppelin/contracts/token/ERC20/utils/SafeERC20.sol\":5266:5271  token */\n      dup4\n        /* \"@openzeppelin/contracts/token/ERC20/utils/SafeERC20.sol\":5273:5280  spender */\n      dup4\n        /* \"@openzeppelin/contracts/token/ERC20/utils/SafeERC20.sol\":5282:5283  0 */\n      0x00\n        /* \"@openzeppelin/contracts/token/ERC20/utils/SafeERC20.sol\":5285:5289  true */\n      0x01\n        /* \"@openzeppelin/contracts/token/ERC20/utils/SafeERC20.sol\":5253:5265  _safeApprove */\n      tag_437\n        /* \"@openzeppelin/contracts/token/ERC20/utils/SafeERC20.sol\":5253:5290  _safeApprove(token, spender, 0, true) */\n      jump\t// in\n    tag_439:\n        /* \"@openzeppelin/contracts/token/ERC20/utils/SafeERC20.sol\":5248:5339  if (!_safeApprove(token, spender, 0, true)) revert SafeERC20FailedOperation(address(token)) */\n      tag_440\n      jumpi\n        /* \"@openzeppelin/contracts/token/ERC20/utils/SafeERC20.sol\":5332:5337  token */\n      dup3\n        /* \"@openzeppelin/contracts/token/ERC20/utils/SafeERC20.sol\":5299:5339  SafeERC20FailedOperation(address(token)) */\n      mload(0x40)\n      0x5274afe700000000000000000000000000000000000000000000000000000000\n      dup2\n      mstore\n      0x04\n      add\n      tag_441\n      swap2\n      swap1\n      tag_77\n      jump\t// in\n    tag_441:\n      mload(0x40)\n      dup1\n      swap2\n      sub\n      swap1\n      revert\n        /* \"@openzeppelin/contracts/token/ERC20/utils/SafeERC20.sol\":5248:5339  if (!_safeApprove(token, spender, 0, true)) revert SafeERC20FailedOperation(address(token)) */\n    tag_440:\n        /* \"@openzeppelin/contracts/token/ERC20/utils/SafeERC20.sol\":5358:5399  _safeApprove(token, spender, value, true) */\n      tag_442\n        /* \"@openzeppelin/contracts/token/ERC20/utils/SafeERC20.sol\":5371:5376  token */\n      dup4\n        /* \"@openzeppelin/contracts/token/ERC20/utils/SafeERC20.sol\":5378:5385  spender */\n      dup4\n        /* \"@openzeppelin/contracts/token/ERC20/utils/SafeERC20.sol\":5387:5392  value */\n      dup4\n        /* \"@openzeppelin/contracts/token/ERC20/utils/SafeERC20.sol\":5394:5398  true */\n      0x01\n        /* \"@openzeppelin/contracts/token/ERC20/utils/SafeERC20.sol\":5358:5370  _safeApprove */\n      tag_437\n        /* \"@openzeppelin/contracts/token/ERC20/utils/SafeERC20.sol\":5358:5399  _safeApprove(token, spender, value, true) */\n      jump\t// in\n    tag_442:\n        /* \"@openzeppelin/contracts/token/ERC20/utils/SafeERC20.sol\":5353:5448  if (!_safeApprove(token, spender, value, true)) revert SafeERC20FailedOperation(address(token)) */\n      tag_443\n      jumpi\n        /* \"@openzeppelin/contracts/token/ERC20/utils/SafeERC20.sol\":5441:5446  token */\n      dup3\n        /* \"@openzeppelin/contracts/token/ERC20/utils/SafeERC20.sol\":5408:5448  SafeERC20FailedOperation(address(token)) */\n      mload(0x40)\n      0x5274afe700000000000000000000000000000000000000000000000000000000\n      dup2\n      mstore\n      0x04\n      add\n      tag_444\n      swap2\n      swap1\n      tag_77\n      jump\t// in\n    tag_444:\n      mload(0x40)\n      dup1\n      swap2\n      sub\n      swap1\n      revert\n        /* \"@openzeppelin/contracts/token/ERC20/utils/SafeERC20.sol\":5353:5448  if (!_safeApprove(token, spender, value, true)) revert SafeERC20FailedOperation(address(token)) */\n    tag_443:\n        /* \"@openzeppelin/contracts/token/ERC20/utils/SafeERC20.sol\":5185:5459  if (!_safeApprove(token, spender, value, false)) {... */\n    tag_438:\n        /* \"@openzeppelin/contracts/token/ERC20/utils/SafeERC20.sol\":5098:5465  function forceApprove(IERC20 token, address spender, uint256 value) internal {... */\n      pop\n      pop\n      pop\n      jump\t// out\n        /* \"@openzeppelin/contracts/token/ERC20/utils/SafeERC20.sol\":1662:1894  function safeTransferFrom(IERC20 token, address from, address to, uint256 value) internal {... */\n    tag_381:\n        /* \"@openzeppelin/contracts/token/ERC20/utils/SafeERC20.sol\":1767:1814  _safeTransferFrom(token, from, to, value, true) */\n      tag_446\n        /* \"@openzeppelin/contracts/token/ERC20/utils/SafeERC20.sol\":1785:1790  token */\n      dup5\n        /* \"@openzeppelin/contracts/token/ERC20/utils/SafeERC20.sol\":1792:1796  from */\n      dup5\n        /* \"@openzeppelin/contracts/token/ERC20/utils/SafeERC20.sol\":1798:1800  to */\n      dup5\n        /* \"@openzeppelin/contracts/token/ERC20/utils/SafeERC20.sol\":1802:1807  value */\n      dup5\n        /* \"@openzeppelin/contracts/token/ERC20/utils/SafeERC20.sol\":1809:1813  true */\n      0x01\n        /* \"@openzeppelin/contracts/token/ERC20/utils/SafeERC20.sol\":1767:1784  _safeTransferFrom */\n      tag_447\n        /* \"@openzeppelin/contracts/token/ERC20/utils/SafeERC20.sol\":1767:1814  _safeTransferFrom(token, from, to, value, true) */\n      jump\t// in\n    tag_446:\n        /* \"@openzeppelin/contracts/token/ERC20/utils/SafeERC20.sol\":1762:1888  if (!_safeTransferFrom(token, from, to, value, true)) {... */\n      tag_448\n      jumpi\n        /* \"@openzeppelin/contracts/token/ERC20/utils/SafeERC20.sol\":1870:1875  token */\n      dup4\n        /* \"@openzeppelin/contracts/token/ERC20/utils/SafeERC20.sol\":1837:1877  SafeERC20FailedOperation(address(token)) */\n      mload(0x40)\n      0x5274afe700000000000000000000000000000000000000000000000000000000\n      dup2\n      mstore\n      0x04\n      add\n      tag_449\n      swap2\n      swap1\n      tag_77\n      jump\t// in\n    tag_449:\n      mload(0x40)\n      dup1\n      swap2\n      sub\n      swap1\n      revert\n        /* \"@openzeppelin/contracts/token/ERC20/utils/SafeERC20.sol\":1762:1888  if (!_safeTransferFrom(token, from, to, value, true)) {... */\n    tag_448:\n        /* \"@openzeppelin/contracts/token/ERC20/utils/SafeERC20.sol\":1662:1894  function safeTransferFrom(IERC20 token, address from, address to, uint256 value) internal {... */\n      pop\n      pop\n      pop\n      pop\n      jump\t// out\n        /* \"@openzeppelin/contracts/utils/ReentrancyGuard.sol\":3586:3743  function _nonReentrantBeforeView() private view {... */\n    tag_414:\n        /* \"@openzeppelin/contracts/utils/ReentrancyGuard.sol\":3648:3673  _reentrancyGuardEntered() */\n      tag_451\n        /* \"@openzeppelin/contracts/utils/ReentrancyGuard.sol\":3648:3671  _reentrancyGuardEntered */\n      tag_452\n        /* \"@openzeppelin/contracts/utils/ReentrancyGuard.sol\":3648:3673  _reentrancyGuardEntered() */\n      jump\t// in\n    tag_451:\n        /* \"@openzeppelin/contracts/utils/ReentrancyGuard.sol\":3644:3737  if (_reentrancyGuardEntered()) {... */\n      iszero\n      tag_453\n      jumpi\n        /* \"@openzeppelin/contracts/utils/ReentrancyGuard.sol\":3696:3726  ReentrancyGuardReentrantCall() */\n      mload(0x40)\n      0x3ee5aeb500000000000000000000000000000000000000000000000000000000\n      dup2\n      mstore\n      0x04\n      add\n      mload(0x40)\n      dup1\n      swap2\n      sub\n      swap1\n      revert\n        /* \"@openzeppelin/contracts/utils/ReentrancyGuard.sol\":3644:3737  if (_reentrancyGuardEntered()) {... */\n    tag_453:\n        /* \"@openzeppelin/contracts/utils/ReentrancyGuard.sol\":3586:3743  function _nonReentrantBeforeView() private view {... */\n      jump\t// out\n        /* \"@openzeppelin/contracts/utils/ReentrancyGuard.sol\":4636:4763  function _reentrancyGuardStorageSlot() internal pure virtual returns (bytes32) {... */\n    tag_417:\n        /* \"@openzeppelin/contracts/utils/ReentrancyGuard.sol\":4706:4713  bytes32 */\n      0x00\n        /* \"@openzeppelin/contracts/utils/ReentrancyGuard.sol\":1505:1571  0x9b779b17422d0df92223018b32b4d1fa46e071723d6817e2486d003becc55f00 */\n      0x9b779b17422d0df92223018b32b4d1fa46e071723d6817e2486d003becc55f00\n        /* \"@openzeppelin/contracts/utils/ReentrancyGuard.sol\":4732:4756  REENTRANCY_GUARD_STORAGE */\n      0x00\n      shl\n        /* \"@openzeppelin/contracts/utils/ReentrancyGuard.sol\":4725:4756  return REENTRANCY_GUARD_STORAGE */\n      swap1\n      pop\n        /* \"@openzeppelin/contracts/utils/ReentrancyGuard.sol\":4636:4763  function _reentrancyGuardStorageSlot() internal pure virtual returns (bytes32) {... */\n      swap1\n      jump\t// out\n        /* \"@openzeppelin/contracts/utils/StorageSlot.sol\":2679:2842  function getUint256Slot(bytes32 slot) internal pure returns (Uint256Slot storage r) {... */\n    tag_418:\n        /* \"@openzeppelin/contracts/utils/StorageSlot.sol\":2740:2761  Uint256Slot storage r */\n      0x00\n        /* \"@openzeppelin/contracts/utils/StorageSlot.sol\":2822:2826  slot */\n      dup2\n        /* \"@openzeppelin/contracts/utils/StorageSlot.sol\":2812:2826  r.slot := slot */\n      swap1\n      pop\n        /* \"@openzeppelin/contracts/utils/StorageSlot.sol\":2679:2842  function getUint256Slot(bytes32 slot) internal pure returns (Uint256Slot storage r) {... */\n      swap2\n      swap1\n      pop\n      jump\t// out\n        /* \"@openzeppelin/contracts/token/ERC20/utils/SafeERC20.sol\":8373:9617  function _safeTransfer(IERC20 token, address to, uint256 value, bool bubble) private returns (bool success) {... */\n    tag_421:\n        /* \"@openzeppelin/contracts/token/ERC20/utils/SafeERC20.sol\":8467:8479  bool success */\n      0x00\n        /* \"@openzeppelin/contracts/token/ERC20/utils/SafeERC20.sol\":8491:8506  bytes4 selector */\n      0x00\n        /* \"@openzeppelin/contracts/token/ERC20/utils/SafeERC20.sol\":8509:8533  IERC20.transfer.selector */\n      shl(0xe0, 0xa9059cbb)\n        /* \"@openzeppelin/contracts/token/ERC20/utils/SafeERC20.sol\":8491:8533  bytes4 selector = IERC20.transfer.selector */\n      swap1\n      pop\n        /* \"@openzeppelin/contracts/token/ERC20/utils/SafeERC20.sol\":8600:8604  0x40 */\n      0x40\n        /* \"@openzeppelin/contracts/token/ERC20/utils/SafeERC20.sol\":8594:8605  mload(0x40) */\n      mload\n        /* \"@openzeppelin/contracts/token/ERC20/utils/SafeERC20.sol\":8631:8639  selector */\n      dup2\n        /* \"@openzeppelin/contracts/token/ERC20/utils/SafeERC20.sol\":8625:8629  0x00 */\n      0x00\n        /* \"@openzeppelin/contracts/token/ERC20/utils/SafeERC20.sol\":8618:8640  mstore(0x00, selector) */\n      mstore\n        /* \"@openzeppelin/contracts/token/ERC20/utils/SafeERC20.sol\":8686:8687  0 */\n      0x00\n        /* \"@openzeppelin/contracts/token/ERC20/utils/SafeERC20.sol\":8682:8688  not(0) */\n      not\n        /* \"@openzeppelin/contracts/token/ERC20/utils/SafeERC20.sol\":8678:8680  96 */\n      0x60\n        /* \"@openzeppelin/contracts/token/ERC20/utils/SafeERC20.sol\":8674:8689  shr(96, not(0)) */\n      shr\n        /* \"@openzeppelin/contracts/token/ERC20/utils/SafeERC20.sol\":8670:8672  to */\n      dup7\n        /* \"@openzeppelin/contracts/token/ERC20/utils/SafeERC20.sol\":8666:8690  and(to, shr(96, not(0))) */\n      and\n        /* \"@openzeppelin/contracts/token/ERC20/utils/SafeERC20.sol\":8660:8664  0x04 */\n      0x04\n        /* \"@openzeppelin/contracts/token/ERC20/utils/SafeERC20.sol\":8653:8691  mstore(0x04, and(to, shr(96, not(0)))) */\n      mstore\n        /* \"@openzeppelin/contracts/token/ERC20/utils/SafeERC20.sol\":8717:8722  value */\n      dup5\n        /* \"@openzeppelin/contracts/token/ERC20/utils/SafeERC20.sol\":8711:8715  0x24 */\n      0x24\n        /* \"@openzeppelin/contracts/token/ERC20/utils/SafeERC20.sol\":8704:8723  mstore(0x24, value) */\n      mstore\n        /* \"@openzeppelin/contracts/token/ERC20/utils/SafeERC20.sol\":8787:8791  0x20 */\n      0x20\n        /* \"@openzeppelin/contracts/token/ERC20/utils/SafeERC20.sol\":8781:8785  0x00 */\n      0x00\n        /* \"@openzeppelin/contracts/token/ERC20/utils/SafeERC20.sol\":8775:8779  0x44 */\n      0x44\n        /* \"@openzeppelin/contracts/token/ERC20/utils/SafeERC20.sol\":8769:8773  0x00 */\n      0x00\n        /* \"@openzeppelin/contracts/token/ERC20/utils/SafeERC20.sol\":8766:8767  0 */\n      0x00\n        /* \"@openzeppelin/contracts/token/ERC20/utils/SafeERC20.sol\":8759:8764  token */\n      dup12\n        /* \"@openzeppelin/contracts/token/ERC20/utils/SafeERC20.sol\":8752:8757  gas() */\n      gas\n        /* \"@openzeppelin/contracts/token/ERC20/utils/SafeERC20.sol\":8747:8792  call(gas(), token, 0, 0x00, 0x44, 0x00, 0x20) */\n      call\n        /* \"@openzeppelin/contracts/token/ERC20/utils/SafeERC20.sol\":8736:8792  success := call(gas(), token, 0, 0x00, 0x44, 0x00, 0x20) */\n      swap3\n      pop\n        /* \"@openzeppelin/contracts/token/ERC20/utils/SafeERC20.sol\":9004:9005  1 */\n      0x01\n        /* \"@openzeppelin/contracts/token/ERC20/utils/SafeERC20.sol\":8997:9001  0x00 */\n      0x00\n        /* \"@openzeppelin/contracts/token/ERC20/utils/SafeERC20.sol\":8991:9002  mload(0x00) */\n      mload\n        /* \"@openzeppelin/contracts/token/ERC20/utils/SafeERC20.sol\":8988:9006  eq(mload(0x00), 1) */\n      eq\n        /* \"@openzeppelin/contracts/token/ERC20/utils/SafeERC20.sol\":8979:8986  success */\n      dup4\n        /* \"@openzeppelin/contracts/token/ERC20/utils/SafeERC20.sol\":8975:9007  and(success, eq(mload(0x00), 1)) */\n      and\n        /* \"@openzeppelin/contracts/token/ERC20/utils/SafeERC20.sol\":8965:9571  if iszero(and(success, eq(mload(0x00), 1))) {... */\n      tag_457\n      jumpi\n        /* \"@openzeppelin/contracts/token/ERC20/utils/SafeERC20.sol\":9136:9142  bubble */\n      dup4\n        /* \"@openzeppelin/contracts/token/ERC20/utils/SafeERC20.sol\":9126:9133  success */\n      dup4\n        /* \"@openzeppelin/contracts/token/ERC20/utils/SafeERC20.sol\":9119:9134  iszero(success) */\n      iszero\n        /* \"@openzeppelin/contracts/token/ERC20/utils/SafeERC20.sol\":9115:9143  and(iszero(success), bubble) */\n      and\n        /* \"@openzeppelin/contracts/token/ERC20/utils/SafeERC20.sol\":9112:9277  if and(iszero(success), bubble) {... */\n      iszero\n      tag_458\n      jumpi\n        /* \"@openzeppelin/contracts/token/ERC20/utils/SafeERC20.sol\":9192:9208  returndatasize() */\n      returndatasize\n        /* \"@openzeppelin/contracts/token/ERC20/utils/SafeERC20.sol\":9186:9190  0x00 */\n      0x00\n        /* \"@openzeppelin/contracts/token/ERC20/utils/SafeERC20.sol\":9181:9184  fmp */\n      dup3\n        /* \"@openzeppelin/contracts/token/ERC20/utils/SafeERC20.sol\":9166:9209  returndatacopy(fmp, 0x00, returndatasize()) */\n      returndatacopy\n        /* \"@openzeppelin/contracts/token/ERC20/utils/SafeERC20.sol\":9242:9258  returndatasize() */\n      returndatasize\n        /* \"@openzeppelin/contracts/token/ERC20/utils/SafeERC20.sol\":9237:9240  fmp */\n      dup2\n        /* \"@openzeppelin/contracts/token/ERC20/utils/SafeERC20.sol\":9230:9259  revert(fmp, returndatasize()) */\n      revert\n        /* \"@openzeppelin/contracts/token/ERC20/utils/SafeERC20.sol\":9112:9277  if and(iszero(success), bubble) {... */\n    tag_458:\n        /* \"@openzeppelin/contracts/token/ERC20/utils/SafeERC20.sol\":9553:9554  0 */\n      0x00\n        /* \"@openzeppelin/contracts/token/ERC20/utils/SafeERC20.sol\":9545:9550  token */\n      dup8\n        /* \"@openzeppelin/contracts/token/ERC20/utils/SafeERC20.sol\":9533:9551  extcodesize(token) */\n      extcodesize\n        /* \"@openzeppelin/contracts/token/ERC20/utils/SafeERC20.sol\":9530:9555  gt(extcodesize(token), 0) */\n      gt\n        /* \"@openzeppelin/contracts/token/ERC20/utils/SafeERC20.sol\":9511:9527  returndatasize() */\n      returndatasize\n        /* \"@openzeppelin/contracts/token/ERC20/utils/SafeERC20.sol\":9504:9528  iszero(returndatasize()) */\n      iszero\n        /* \"@openzeppelin/contracts/token/ERC20/utils/SafeERC20.sol\":9500:9556  and(iszero(returndatasize()), gt(extcodesize(token), 0)) */\n      and\n        /* \"@openzeppelin/contracts/token/ERC20/utils/SafeERC20.sol\":9491:9498  success */\n      dup4\n        /* \"@openzeppelin/contracts/token/ERC20/utils/SafeERC20.sol\":9487:9557  and(success, and(iszero(returndatasize()), gt(extcodesize(token), 0))) */\n      and\n        /* \"@openzeppelin/contracts/token/ERC20/utils/SafeERC20.sol\":9476:9557  success := and(success, and(iszero(returndatasize()), gt(extcodesize(token), 0))) */\n      swap3\n      pop\n        /* \"@openzeppelin/contracts/token/ERC20/utils/SafeERC20.sol\":8965:9571  if iszero(and(success, eq(mload(0x00), 1))) {... */\n    tag_457:\n        /* \"@openzeppelin/contracts/token/ERC20/utils/SafeERC20.sol\":9597:9600  fmp */\n      dup1\n        /* \"@openzeppelin/contracts/token/ERC20/utils/SafeERC20.sol\":9591:9595  0x40 */\n      0x40\n        /* \"@openzeppelin/contracts/token/ERC20/utils/SafeERC20.sol\":9584:9601  mstore(0x40, fmp) */\n      mstore\n        /* \"@openzeppelin/contracts/token/ERC20/utils/SafeERC20.sol\":8569:9611  {... */\n      pop\n      pop\n        /* \"@openzeppelin/contracts/token/ERC20/utils/SafeERC20.sol\":8373:9617  function _safeTransfer(IERC20 token, address to, uint256 value, bool bubble) private returns (bool success) {... */\n      swap5\n      swap4\n      pop\n      pop\n      pop\n      pop\n      jump\t// out\n        /* \"@openzeppelin/contracts/utils/Context.sol\":656:752  function _msgSender() internal view virtual returns (address) {... */\n    tag_429:\n        /* \"@openzeppelin/contracts/utils/Context.sol\":709:716  address */\n      0x00\n        /* \"@openzeppelin/contracts/utils/Context.sol\":735:745  msg.sender */\n      caller\n        /* \"@openzeppelin/contracts/utils/Context.sol\":728:745  return msg.sender */\n      swap1\n      pop\n        /* \"@openzeppelin/contracts/utils/Context.sol\":656:752  function _msgSender() internal view virtual returns (address) {... */\n      swap1\n      jump\t// out\n        /* \"@openzeppelin/contracts/token/ERC20/utils/SafeERC20.sol\":12059:13311  function _safeApprove(IERC20 token, address spender, uint256 value, bool bubble) private returns (bool success) {... */\n    tag_437:\n        /* \"@openzeppelin/contracts/token/ERC20/utils/SafeERC20.sol\":12157:12169  bool success */\n      0x00\n        /* \"@openzeppelin/contracts/token/ERC20/utils/SafeERC20.sol\":12181:12196  bytes4 selector */\n      0x00\n        /* \"@openzeppelin/contracts/token/ERC20/utils/SafeERC20.sol\":12199:12222  IERC20.approve.selector */\n      shl(0xe0, 0x095ea7b3)\n        /* \"@openzeppelin/contracts/token/ERC20/utils/SafeERC20.sol\":12181:12222  bytes4 selector = IERC20.approve.selector */\n      swap1\n      pop\n        /* \"@openzeppelin/contracts/token/ERC20/utils/SafeERC20.sol\":12289:12293  0x40 */\n      0x40\n        /* \"@openzeppelin/contracts/token/ERC20/utils/SafeERC20.sol\":12283:12294  mload(0x40) */\n      mload\n        /* \"@openzeppelin/contracts/token/ERC20/utils/SafeERC20.sol\":12320:12328  selector */\n      dup2\n        /* \"@openzeppelin/contracts/token/ERC20/utils/SafeERC20.sol\":12314:12318  0x00 */\n      0x00\n        /* \"@openzeppelin/contracts/token/ERC20/utils/SafeERC20.sol\":12307:12329  mstore(0x00, selector) */\n      mstore\n        /* \"@openzeppelin/contracts/token/ERC20/utils/SafeERC20.sol\":12380:12381  0 */\n      0x00\n        /* \"@openzeppelin/contracts/token/ERC20/utils/SafeERC20.sol\":12376:12382  not(0) */\n      not\n        /* \"@openzeppelin/contracts/token/ERC20/utils/SafeERC20.sol\":12372:12374  96 */\n      0x60\n        /* \"@openzeppelin/contracts/token/ERC20/utils/SafeERC20.sol\":12368:12383  shr(96, not(0)) */\n      shr\n        /* \"@openzeppelin/contracts/token/ERC20/utils/SafeERC20.sol\":12359:12366  spender */\n      dup7\n        /* \"@openzeppelin/contracts/token/ERC20/utils/SafeERC20.sol\":12355:12384  and(spender, shr(96, not(0))) */\n      and\n        /* \"@openzeppelin/contracts/token/ERC20/utils/SafeERC20.sol\":12349:12353  0x04 */\n      0x04\n        /* \"@openzeppelin/contracts/token/ERC20/utils/SafeERC20.sol\":12342:12385  mstore(0x04, and(spender, shr(96, not(0)))) */\n      mstore\n        /* \"@openzeppelin/contracts/token/ERC20/utils/SafeERC20.sol\":12411:12416  value */\n      dup5\n        /* \"@openzeppelin/contracts/token/ERC20/utils/SafeERC20.sol\":12405:12409  0x24 */\n      0x24\n        /* \"@openzeppelin/contracts/token/ERC20/utils/SafeERC20.sol\":12398:12417  mstore(0x24, value) */\n      mstore\n        /* \"@openzeppelin/contracts/token/ERC20/utils/SafeERC20.sol\":12481:12485  0x20 */\n      0x20\n        /* \"@openzeppelin/contracts/token/ERC20/utils/SafeERC20.sol\":12475:12479  0x00 */\n      0x00\n        /* \"@openzeppelin/contracts/token/ERC20/utils/SafeERC20.sol\":12469:12473  0x44 */\n      0x44\n        /* \"@openzeppelin/contracts/token/ERC20/utils/SafeERC20.sol\":12463:12467  0x00 */\n      0x00\n        /* \"@openzeppelin/contracts/token/ERC20/utils/SafeERC20.sol\":12460:12461  0 */\n      0x00\n        /* \"@openzeppelin/contracts/token/ERC20/utils/SafeERC20.sol\":12453:12458  token */\n      dup12\n        /* \"@openzeppelin/contracts/token/ERC20/utils/SafeERC20.sol\":12446:12451  gas() */\n      gas\n        /* \"@openzeppelin/contracts/token/ERC20/utils/SafeERC20.sol\":12441:12486  call(gas(), token, 0, 0x00, 0x44, 0x00, 0x20) */\n      call\n        /* \"@openzeppelin/contracts/token/ERC20/utils/SafeERC20.sol\":12430:12486  success := call(gas(), token, 0, 0x00, 0x44, 0x00, 0x20) */\n      swap3\n      pop\n        /* \"@openzeppelin/contracts/token/ERC20/utils/SafeERC20.sol\":12698:12699  1 */\n      0x01\n        /* \"@openzeppelin/contracts/token/ERC20/utils/SafeERC20.sol\":12691:12695  0x00 */\n      0x00\n        /* \"@openzeppelin/contracts/token/ERC20/utils/SafeERC20.sol\":12685:12696  mload(0x00) */\n      mload\n        /* \"@openzeppelin/contracts/token/ERC20/utils/SafeERC20.sol\":12682:12700  eq(mload(0x00), 1) */\n      eq\n        /* \"@openzeppelin/contracts/token/ERC20/utils/SafeERC20.sol\":12673:12680  success */\n      dup4\n        /* \"@openzeppelin/contracts/token/ERC20/utils/SafeERC20.sol\":12669:12701  and(success, eq(mload(0x00), 1)) */\n      and\n        /* \"@openzeppelin/contracts/token/ERC20/utils/SafeERC20.sol\":12659:13265  if iszero(and(success, eq(mload(0x00), 1))) {... */\n      tag_461\n      jumpi\n        /* \"@openzeppelin/contracts/token/ERC20/utils/SafeERC20.sol\":12830:12836  bubble */\n      dup4\n        /* \"@openzeppelin/contracts/token/ERC20/utils/SafeERC20.sol\":12820:12827  success */\n      dup4\n        /* \"@openzeppelin/contracts/token/ERC20/utils/SafeERC20.sol\":12813:12828  iszero(success) */\n      iszero\n        /* \"@openzeppelin/contracts/token/ERC20/utils/SafeERC20.sol\":12809:12837  and(iszero(success), bubble) */\n      and\n        /* \"@openzeppelin/contracts/token/ERC20/utils/SafeERC20.sol\":12806:12971  if and(iszero(success), bubble) {... */\n      iszero\n      tag_462\n      jumpi\n        /* \"@openzeppelin/contracts/token/ERC20/utils/SafeERC20.sol\":12886:12902  returndatasize() */\n      returndatasize\n        /* \"@openzeppelin/contracts/token/ERC20/utils/SafeERC20.sol\":12880:12884  0x00 */\n      0x00\n        /* \"@openzeppelin/contracts/token/ERC20/utils/SafeERC20.sol\":12875:12878  fmp */\n      dup3\n        /* \"@openzeppelin/contracts/token/ERC20/utils/SafeERC20.sol\":12860:12903  returndatacopy(fmp, 0x00, returndatasize()) */\n      returndatacopy\n        /* \"@openzeppelin/contracts/token/ERC20/utils/SafeERC20.sol\":12936:12952  returndatasize() */\n      returndatasize\n        /* \"@openzeppelin/contracts/token/ERC20/utils/SafeERC20.sol\":12931:12934  fmp */\n      dup2\n        /* \"@openzeppelin/contracts/token/ERC20/utils/SafeERC20.sol\":12924:12953  revert(fmp, returndatasize()) */\n      revert\n        /* \"@openzeppelin/contracts/token/ERC20/utils/SafeERC20.sol\":12806:12971  if and(iszero(success), bubble) {... */\n    tag_462:\n        /* \"@openzeppelin/contracts/token/ERC20/utils/SafeERC20.sol\":13247:13248  0 */\n      0x00\n        /* \"@openzeppelin/contracts/token/ERC20/utils/SafeERC20.sol\":13239:13244  token */\n      dup8\n        /* \"@openzeppelin/contracts/token/ERC20/utils/SafeERC20.sol\":13227:13245  extcodesize(token) */\n      extcodesize\n        /* \"@openzeppelin/contracts/token/ERC20/utils/SafeERC20.sol\":13224:13249  gt(extcodesize(token), 0) */\n      gt\n        /* \"@openzeppelin/contracts/token/ERC20/utils/SafeERC20.sol\":13205:13221  returndatasize() */\n      returndatasize\n        /* \"@openzeppelin/contracts/token/ERC20/utils/SafeERC20.sol\":13198:13222  iszero(returndatasize()) */\n      iszero\n        /* \"@openzeppelin/contracts/token/ERC20/utils/SafeERC20.sol\":13194:13250  and(iszero(returndatasize()), gt(extcodesize(token), 0)) */\n      and\n        /* \"@openzeppelin/contracts/token/ERC20/utils/SafeERC20.sol\":13185:13192  success */\n      dup4\n        /* \"@openzeppelin/contracts/token/ERC20/utils/SafeERC20.sol\":13181:13251  and(success, and(iszero(returndatasize()), gt(extcodesize(token), 0))) */\n      and\n        /* \"@openzeppelin/contracts/token/ERC20/utils/SafeERC20.sol\":13170:13251  success := and(success, and(iszero(returndatasize()), gt(extcodesize(token), 0))) */\n      swap3\n      pop\n        /* \"@openzeppelin/contracts/token/ERC20/utils/SafeERC20.sol\":12659:13265  if iszero(and(success, eq(mload(0x00), 1))) {... */\n    tag_461:\n        /* \"@openzeppelin/contracts/token/ERC20/utils/SafeERC20.sol\":13291:13294  fmp */\n      dup1\n        /* \"@openzeppelin/contracts/token/ERC20/utils/SafeERC20.sol\":13285:13289  0x40 */\n      0x40\n        /* \"@openzeppelin/contracts/token/ERC20/utils/SafeERC20.sol\":13278:13295  mstore(0x40, fmp) */\n      mstore\n        /* \"@openzeppelin/contracts/token/ERC20/utils/SafeERC20.sol\":12258:13305  {... */\n      pop\n      pop\n        /* \"@openzeppelin/contracts/token/ERC20/utils/SafeERC20.sol\":12059:13311  function _safeApprove(IERC20 token, address spender, uint256 value, bool bubble) private returns (bool success) {... */\n      swap5\n      swap4\n      pop\n      pop\n      pop\n      pop\n      jump\t// out\n        /* \"@openzeppelin/contracts/token/ERC20/utils/SafeERC20.sol\":10165:11558  function _safeTransferFrom(... */\n    tag_447:\n        /* \"@openzeppelin/contracts/token/ERC20/utils/SafeERC20.sol\":10323:10335  bool success */\n      0x00\n        /* \"@openzeppelin/contracts/token/ERC20/utils/SafeERC20.sol\":10347:10362  bytes4 selector */\n      0x00\n        /* \"@openzeppelin/contracts/token/ERC20/utils/SafeERC20.sol\":10365:10393  IERC20.transferFrom.selector */\n      shl(0xe0, 0x23b872dd)\n        /* \"@openzeppelin/contracts/token/ERC20/utils/SafeERC20.sol\":10347:10393  bytes4 selector = IERC20.transferFrom.selector */\n      swap1\n      pop\n        /* \"@openzeppelin/contracts/token/ERC20/utils/SafeERC20.sol\":10460:10464  0x40 */\n      0x40\n        /* \"@openzeppelin/contracts/token/ERC20/utils/SafeERC20.sol\":10454:10465  mload(0x40) */\n      mload\n        /* \"@openzeppelin/contracts/token/ERC20/utils/SafeERC20.sol\":10491:10499  selector */\n      dup2\n        /* \"@openzeppelin/contracts/token/ERC20/utils/SafeERC20.sol\":10485:10489  0x00 */\n      0x00\n        /* \"@openzeppelin/contracts/token/ERC20/utils/SafeERC20.sol\":10478:10500  mstore(0x00, selector) */\n      mstore\n        /* \"@openzeppelin/contracts/token/ERC20/utils/SafeERC20.sol\":10548:10549  0 */\n      0x00\n        /* \"@openzeppelin/contracts/token/ERC20/utils/SafeERC20.sol\":10544:10550  not(0) */\n      not\n        /* \"@openzeppelin/contracts/token/ERC20/utils/SafeERC20.sol\":10540:10542  96 */\n      0x60\n        /* \"@openzeppelin/contracts/token/ERC20/utils/SafeERC20.sol\":10536:10551  shr(96, not(0)) */\n      shr\n        /* \"@openzeppelin/contracts/token/ERC20/utils/SafeERC20.sol\":10530:10534  from */\n      dup8\n        /* \"@openzeppelin/contracts/token/ERC20/utils/SafeERC20.sol\":10526:10552  and(from, shr(96, not(0))) */\n      and\n        /* \"@openzeppelin/contracts/token/ERC20/utils/SafeERC20.sol\":10520:10524  0x04 */\n      0x04\n        /* \"@openzeppelin/contracts/token/ERC20/utils/SafeERC20.sol\":10513:10553  mstore(0x04, and(from, shr(96, not(0)))) */\n      mstore\n        /* \"@openzeppelin/contracts/token/ERC20/utils/SafeERC20.sol\":10599:10600  0 */\n      0x00\n        /* \"@openzeppelin/contracts/token/ERC20/utils/SafeERC20.sol\":10595:10601  not(0) */\n      not\n        /* \"@openzeppelin/contracts/token/ERC20/utils/SafeERC20.sol\":10591:10593  96 */\n      0x60\n        /* \"@openzeppelin/contracts/token/ERC20/utils/SafeERC20.sol\":10587:10602  shr(96, not(0)) */\n      shr\n        /* \"@openzeppelin/contracts/token/ERC20/utils/SafeERC20.sol\":10583:10585  to */\n      dup7\n        /* \"@openzeppelin/contracts/token/ERC20/utils/SafeERC20.sol\":10579:10603  and(to, shr(96, not(0))) */\n      and\n        /* \"@openzeppelin/contracts/token/ERC20/utils/SafeERC20.sol\":10573:10577  0x24 */\n      0x24\n        /* \"@openzeppelin/contracts/token/ERC20/utils/SafeERC20.sol\":10566:10604  mstore(0x24, and(to, shr(96, not(0)))) */\n      mstore\n        /* \"@openzeppelin/contracts/token/ERC20/utils/SafeERC20.sol\":10630:10635  value */\n      dup5\n        /* \"@openzeppelin/contracts/token/ERC20/utils/SafeERC20.sol\":10624:10628  0x44 */\n      0x44\n        /* \"@openzeppelin/contracts/token/ERC20/utils/SafeERC20.sol\":10617:10636  mstore(0x44, value) */\n      mstore\n        /* \"@openzeppelin/contracts/token/ERC20/utils/SafeERC20.sol\":10700:10704  0x20 */\n      0x20\n        /* \"@openzeppelin/contracts/token/ERC20/utils/SafeERC20.sol\":10694:10698  0x00 */\n      0x00\n        /* \"@openzeppelin/contracts/token/ERC20/utils/SafeERC20.sol\":10688:10692  0x64 */\n      0x64\n        /* \"@openzeppelin/contracts/token/ERC20/utils/SafeERC20.sol\":10682:10686  0x00 */\n      0x00\n        /* \"@openzeppelin/contracts/token/ERC20/utils/SafeERC20.sol\":10679:10680  0 */\n      0x00\n        /* \"@openzeppelin/contracts/token/ERC20/utils/SafeERC20.sol\":10672:10677  token */\n      dup13\n        /* \"@openzeppelin/contracts/token/ERC20/utils/SafeERC20.sol\":10665:10670  gas() */\n      gas\n        /* \"@openzeppelin/contracts/token/ERC20/utils/SafeERC20.sol\":10660:10705  call(gas(), token, 0, 0x00, 0x64, 0x00, 0x20) */\n      call\n        /* \"@openzeppelin/contracts/token/ERC20/utils/SafeERC20.sol\":10649:10705  success := call(gas(), token, 0, 0x00, 0x64, 0x00, 0x20) */\n      swap3\n      pop\n        /* \"@openzeppelin/contracts/token/ERC20/utils/SafeERC20.sol\":10917:10918  1 */\n      0x01\n        /* \"@openzeppelin/contracts/token/ERC20/utils/SafeERC20.sol\":10910:10914  0x00 */\n      0x00\n        /* \"@openzeppelin/contracts/token/ERC20/utils/SafeERC20.sol\":10904:10915  mload(0x00) */\n      mload\n        /* \"@openzeppelin/contracts/token/ERC20/utils/SafeERC20.sol\":10901:10919  eq(mload(0x00), 1) */\n      eq\n        /* \"@openzeppelin/contracts/token/ERC20/utils/SafeERC20.sol\":10892:10899  success */\n      dup4\n        /* \"@openzeppelin/contracts/token/ERC20/utils/SafeERC20.sol\":10888:10920  and(success, eq(mload(0x00), 1)) */\n      and\n        /* \"@openzeppelin/contracts/token/ERC20/utils/SafeERC20.sol\":10878:11484  if iszero(and(success, eq(mload(0x00), 1))) {... */\n      tag_464\n      jumpi\n        /* \"@openzeppelin/contracts/token/ERC20/utils/SafeERC20.sol\":11049:11055  bubble */\n      dup4\n        /* \"@openzeppelin/contracts/token/ERC20/utils/SafeERC20.sol\":11039:11046  success */\n      dup4\n        /* \"@openzeppelin/contracts/token/ERC20/utils/SafeERC20.sol\":11032:11047  iszero(success) */\n      iszero\n        /* \"@openzeppelin/contracts/token/ERC20/utils/SafeERC20.sol\":11028:11056  and(iszero(success), bubble) */\n      and\n        /* \"@openzeppelin/contracts/token/ERC20/utils/SafeERC20.sol\":11025:11190  if and(iszero(success), bubble) {... */\n      iszero\n      tag_465\n      jumpi\n        /* \"@openzeppelin/contracts/token/ERC20/utils/SafeERC20.sol\":11105:11121  returndatasize() */\n      returndatasize\n        /* \"@openzeppelin/contracts/token/ERC20/utils/SafeERC20.sol\":11099:11103  0x00 */\n      0x00\n        /* \"@openzeppelin/contracts/token/ERC20/utils/SafeERC20.sol\":11094:11097  fmp */\n      dup3\n        /* \"@openzeppelin/contracts/token/ERC20/utils/SafeERC20.sol\":11079:11122  returndatacopy(fmp, 0x00, returndatasize()) */\n      returndatacopy\n        /* \"@openzeppelin/contracts/token/ERC20/utils/SafeERC20.sol\":11155:11171  returndatasize() */\n      returndatasize\n        /* \"@openzeppelin/contracts/token/ERC20/utils/SafeERC20.sol\":11150:11153  fmp */\n      dup2\n        /* \"@openzeppelin/contracts/token/ERC20/utils/SafeERC20.sol\":11143:11172  revert(fmp, returndatasize()) */\n      revert\n        /* \"@openzeppelin/contracts/token/ERC20/utils/SafeERC20.sol\":11025:11190  if and(iszero(success), bubble) {... */\n    tag_465:\n        /* \"@openzeppelin/contracts/token/ERC20/utils/SafeERC20.sol\":11466:11467  0 */\n      0x00\n        /* \"@openzeppelin/contracts/token/ERC20/utils/SafeERC20.sol\":11458:11463  token */\n      dup9\n        /* \"@openzeppelin/contracts/token/ERC20/utils/SafeERC20.sol\":11446:11464  extcodesize(token) */\n      extcodesize\n        /* \"@openzeppelin/contracts/token/ERC20/utils/SafeERC20.sol\":11443:11468  gt(extcodesize(token), 0) */\n      gt\n        /* \"@openzeppelin/contracts/token/ERC20/utils/SafeERC20.sol\":11424:11440  returndatasize() */\n      returndatasize\n        /* \"@openzeppelin/contracts/token/ERC20/utils/SafeERC20.sol\":11417:11441  iszero(returndatasize()) */\n      iszero\n        /* \"@openzeppelin/contracts/token/ERC20/utils/SafeERC20.sol\":11413:11469  and(iszero(returndatasize()), gt(extcodesize(token), 0)) */\n      and\n        /* \"@openzeppelin/contracts/token/ERC20/utils/SafeERC20.sol\":11404:11411  success */\n      dup4\n        /* \"@openzeppelin/contracts/token/ERC20/utils/SafeERC20.sol\":11400:11470  and(success, and(iszero(returndatasize()), gt(extcodesize(token), 0))) */\n      and\n        /* \"@openzeppelin/contracts/token/ERC20/utils/SafeERC20.sol\":11389:11470  success := and(success, and(iszero(returndatasize()), gt(extcodesize(token), 0))) */\n      swap3\n      pop\n        /* \"@openzeppelin/contracts/token/ERC20/utils/SafeERC20.sol\":10878:11484  if iszero(and(success, eq(mload(0x00), 1))) {... */\n    tag_464:\n        /* \"@openzeppelin/contracts/token/ERC20/utils/SafeERC20.sol\":11510:11513  fmp */\n      dup1\n        /* \"@openzeppelin/contracts/token/ERC20/utils/SafeERC20.sol\":11504:11508  0x40 */\n      0x40\n        /* \"@openzeppelin/contracts/token/ERC20/utils/SafeERC20.sol\":11497:11514  mstore(0x40, fmp) */\n      mstore\n        /* \"@openzeppelin/contracts/token/ERC20/utils/SafeERC20.sol\":11540:11541  0 */\n      0x00\n        /* \"@openzeppelin/contracts/token/ERC20/utils/SafeERC20.sol\":11534:11538  0x60 */\n      0x60\n        /* \"@openzeppelin/contracts/token/ERC20/utils/SafeERC20.sol\":11527:11542  mstore(0x60, 0) */\n      mstore\n        /* \"@openzeppelin/contracts/token/ERC20/utils/SafeERC20.sol\":10429:11552  {... */\n      pop\n      pop\n        /* \"@openzeppelin/contracts/token/ERC20/utils/SafeERC20.sol\":10165:11558  function _safeTransferFrom(... */\n      swap6\n      swap5\n      pop\n      pop\n      pop\n      pop\n      pop\n      jump\t// out\n        /* \"@openzeppelin/contracts/utils/ReentrancyGuard.sol\":4479:4630  function _reentrancyGuardEntered() internal view returns (bool) {... */\n    tag_452:\n        /* \"@openzeppelin/contracts/utils/ReentrancyGuard.sol\":4537:4541  bool */\n      0x00\n        /* \"@openzeppelin/contracts/utils/ReentrancyGuard.sol\":2407:2408  2 */\n      0x02\n        /* \"@openzeppelin/contracts/utils/ReentrancyGuard.sol\":4560:4606  _reentrancyGuardStorageSlot().getUint256Slot() */\n      tag_467\n        /* \"@openzeppelin/contracts/utils/ReentrancyGuard.sol\":4560:4589  _reentrancyGuardStorageSlot() */\n      tag_468\n        /* \"@openzeppelin/contracts/utils/ReentrancyGuard.sol\":4560:4587  _reentrancyGuardStorageSlot */\n      tag_417\n        /* \"@openzeppelin/contracts/utils/ReentrancyGuard.sol\":4560:4589  _reentrancyGuardStorageSlot() */\n      jump\t// in\n    tag_468:\n        /* \"@openzeppelin/contracts/utils/ReentrancyGuard.sol\":4560:4604  _reentrancyGuardStorageSlot().getUint256Slot */\n      tag_418\n        /* \"@openzeppelin/contracts/utils/ReentrancyGuard.sol\":4560:4606  _reentrancyGuardStorageSlot().getUint256Slot() */\n      jump\t// in\n    tag_467:\n        /* \"@openzeppelin/contracts/utils/ReentrancyGuard.sol\":4560:4612  _reentrancyGuardStorageSlot().getUint256Slot().value */\n      0x00\n      add\n      sload\n        /* \"@openzeppelin/contracts/utils/ReentrancyGuard.sol\":4560:4623  _reentrancyGuardStorageSlot().getUint256Slot().value == ENTERED */\n      eq\n        /* \"@openzeppelin/contracts/utils/ReentrancyGuard.sol\":4553:4623  return _reentrancyGuardStorageSlot().getUint256Slot().value == ENTERED */\n      swap1\n      pop\n        /* \"@openzeppelin/contracts/utils/ReentrancyGuard.sol\":4479:4630  function _reentrancyGuardEntered() internal view returns (bool) {... */\n      swap1\n      jump\t// out\n        /* \"#utility.yul\":7:82   */\n    tag_469:\n        /* \"#utility.yul\":40:46   */\n      0x00\n        /* \"#utility.yul\":73:75   */\n      0x40\n        /* \"#utility.yul\":67:76   */\n      mload\n        /* \"#utility.yul\":57:76   */\n      swap1\n      pop\n        /* \"#utility.yul\":7:82   */\n      swap1\n      jump\t// out\n        /* \"#utility.yul\":88:205   */\n    tag_470:\n        /* \"#utility.yul\":197:198   */\n      0x00\n        /* \"#utility.yul\":194:195   */\n      0x00\n        /* \"#utility.yul\":187:199   */\n      revert\n        /* \"#utility.yul\":334:411   */\n    tag_472:\n        /* \"#utility.yul\":371:378   */\n      0x00\n        /* \"#utility.yul\":400:405   */\n      dup2\n        /* \"#utility.yul\":389:405   */\n      swap1\n      pop\n        /* \"#utility.yul\":334:411   */\n      swap2\n      swap1\n      pop\n      jump\t// out\n        /* \"#utility.yul\":417:539   */\n    tag_473:\n        /* \"#utility.yul\":490:514   */\n      tag_514\n        /* \"#utility.yul\":508:513   */\n      dup2\n        /* \"#utility.yul\":490:514   */\n      tag_472\n      jump\t// in\n    tag_514:\n        /* \"#utility.yul\":483:488   */\n      dup2\n        /* \"#utility.yul\":480:515   */\n      eq\n        /* \"#utility.yul\":470:533   */\n      tag_515\n      jumpi\n        /* \"#utility.yul\":529:530   */\n      0x00\n        /* \"#utility.yul\":526:527   */\n      0x00\n        /* \"#utility.yul\":519:531   */\n      revert\n        /* \"#utility.yul\":470:533   */\n    tag_515:\n        /* \"#utility.yul\":417:539   */\n      pop\n      jump\t// out\n        /* \"#utility.yul\":545:684   */\n    tag_474:\n        /* \"#utility.yul\":591:596   */\n      0x00\n        /* \"#utility.yul\":629:635   */\n      dup2\n        /* \"#utility.yul\":616:636   */\n      calldataload\n        /* \"#utility.yul\":607:636   */\n      swap1\n      pop\n        /* \"#utility.yul\":645:678   */\n      tag_517\n        /* \"#utility.yul\":672:677   */\n      dup2\n        /* \"#utility.yul\":645:678   */\n      tag_473\n      jump\t// in\n    tag_517:\n        /* \"#utility.yul\":545:684   */\n      swap3\n      swap2\n      pop\n      pop\n      jump\t// out\n        /* \"#utility.yul\":690:1019   */\n    tag_28:\n        /* \"#utility.yul\":749:755   */\n      0x00\n        /* \"#utility.yul\":798:800   */\n      0x20\n        /* \"#utility.yul\":786:795   */\n      dup3\n        /* \"#utility.yul\":777:784   */\n      dup5\n        /* \"#utility.yul\":773:796   */\n      sub\n        /* \"#utility.yul\":769:801   */\n      slt\n        /* \"#utility.yul\":766:885   */\n      iszero\n      tag_519\n      jumpi\n        /* \"#utility.yul\":804:883   */\n      tag_520\n      tag_470\n      jump\t// in\n    tag_520:\n        /* \"#utility.yul\":766:885   */\n    tag_519:\n        /* \"#utility.yul\":924:925   */\n      0x00\n        /* \"#utility.yul\":949:1002   */\n      tag_521\n        /* \"#utility.yul\":994:1001   */\n      dup5\n        /* \"#utility.yul\":985:991   */\n      dup3\n        /* \"#utility.yul\":974:983   */\n      dup6\n        /* \"#utility.yul\":970:992   */\n      add\n        /* \"#utility.yul\":949:1002   */\n      tag_474\n      jump\t// in\n    tag_521:\n        /* \"#utility.yul\":939:1002   */\n      swap2\n      pop\n        /* \"#utility.yul\":895:1012   */\n      pop\n        /* \"#utility.yul\":690:1019   */\n      swap3\n      swap2\n      pop\n      pop\n      jump\t// out\n        /* \"#utility.yul\":1025:1143   */\n    tag_475:\n        /* \"#utility.yul\":1112:1136   */\n      tag_523\n        /* \"#utility.yul\":1130:1135   */\n      dup2\n        /* \"#utility.yul\":1112:1136   */\n      tag_472\n      jump\t// in\n    tag_523:\n        /* \"#utility.yul\":1107:1110   */\n      dup3\n        /* \"#utility.yul\":1100:1137   */\n      mstore\n        /* \"#utility.yul\":1025:1143   */\n      pop\n      pop\n      jump\t// out\n        /* \"#utility.yul\":1149:1371   */\n    tag_31:\n        /* \"#utility.yul\":1242:1246   */\n      0x00\n        /* \"#utility.yul\":1280:1282   */\n      0x20\n        /* \"#utility.yul\":1269:1278   */\n      dup3\n        /* \"#utility.yul\":1265:1283   */\n      add\n        /* \"#utility.yul\":1257:1283   */\n      swap1\n      pop\n        /* \"#utility.yul\":1293:1364   */\n      tag_525\n        /* \"#utility.yul\":1361:1362   */\n      0x00\n        /* \"#utility.yul\":1350:1359   */\n      dup4\n        /* \"#utility.yul\":1346:1363   */\n      add\n        /* \"#utility.yul\":1337:1343   */\n      dup5\n        /* \"#utility.yul\":1293:1364   */\n      tag_475\n      jump\t// in\n    tag_525:\n        /* \"#utility.yul\":1149:1371   */\n      swap3\n      swap2\n      pop\n      pop\n      jump\t// out\n        /* \"#utility.yul\":1377:1503   */\n    tag_476:\n        /* \"#utility.yul\":1414:1421   */\n      0x00\n        /* \"#utility.yul\":1454:1496   */\n      0xffffffffffffffffffffffffffffffffffffffff\n        /* \"#utility.yul\":1447:1452   */\n      dup3\n        /* \"#utility.yul\":1443:1497   */\n      and\n        /* \"#utility.yul\":1432:1497   */\n      swap1\n      pop\n        /* \"#utility.yul\":1377:1503   */\n      swap2\n      swap1\n      pop\n      jump\t// out\n        /* \"#utility.yul\":1509:1569   */\n    tag_477:\n        /* \"#utility.yul\":1537:1540   */\n      0x00\n        /* \"#utility.yul\":1558:1563   */\n      dup2\n        /* \"#utility.yul\":1551:1563   */\n      swap1\n      pop\n        /* \"#utility.yul\":1509:1569   */\n      swap2\n      swap1\n      pop\n      jump\t// out\n        /* \"#utility.yul\":1575:1717   */\n    tag_478:\n        /* \"#utility.yul\":1625:1634   */\n      0x00\n        /* \"#utility.yul\":1658:1711   */\n      tag_529\n        /* \"#utility.yul\":1676:1710   */\n      tag_530\n        /* \"#utility.yul\":1685:1709   */\n      tag_531\n        /* \"#utility.yul\":1703:1708   */\n      dup5\n        /* \"#utility.yul\":1685:1709   */\n      tag_476\n      jump\t// in\n    tag_531:\n        /* \"#utility.yul\":1676:1710   */\n      tag_477\n      jump\t// in\n    tag_530:\n        /* \"#utility.yul\":1658:1711   */\n      tag_476\n      jump\t// in\n    tag_529:\n        /* \"#utility.yul\":1645:1711   */\n      swap1\n      pop\n        /* \"#utility.yul\":1575:1717   */\n      swap2\n      swap1\n      pop\n      jump\t// out\n        /* \"#utility.yul\":1723:1849   */\n    tag_479:\n        /* \"#utility.yul\":1773:1782   */\n      0x00\n        /* \"#utility.yul\":1806:1843   */\n      tag_533\n        /* \"#utility.yul\":1837:1842   */\n      dup3\n        /* \"#utility.yul\":1806:1843   */\n      tag_478\n      jump\t// in\n    tag_533:\n        /* \"#utility.yul\":1793:1843   */\n      swap1\n      pop\n        /* \"#utility.yul\":1723:1849   */\n      swap2\n      swap1\n      pop\n      jump\t// out\n        /* \"#utility.yul\":1855:1996   */\n    tag_480:\n        /* \"#utility.yul\":1920:1929   */\n      0x00\n        /* \"#utility.yul\":1953:1990   */\n      tag_535\n        /* \"#utility.yul\":1984:1989   */\n      dup3\n        /* \"#utility.yul\":1953:1990   */\n      tag_479\n      jump\t// in\n    tag_535:\n        /* \"#utility.yul\":1940:1990   */\n      swap1\n      pop\n        /* \"#utility.yul\":1855:1996   */\n      swap2\n      swap1\n      pop\n      jump\t// out\n        /* \"#utility.yul\":2002:2163   */\n    tag_481:\n        /* \"#utility.yul\":2104:2156   */\n      tag_537\n        /* \"#utility.yul\":2150:2155   */\n      dup2\n        /* \"#utility.yul\":2104:2156   */\n      tag_480\n      jump\t// in\n    tag_537:\n        /* \"#utility.yul\":2099:2102   */\n      dup3\n        /* \"#utility.yul\":2092:2157   */\n      mstore\n        /* \"#utility.yul\":2002:2163   */\n      pop\n      pop\n      jump\t// out\n        /* \"#utility.yul\":2169:2421   */\n    tag_35:\n        /* \"#utility.yul\":2277:2281   */\n      0x00\n        /* \"#utility.yul\":2315:2317   */\n      0x20\n        /* \"#utility.yul\":2304:2313   */\n      dup3\n        /* \"#utility.yul\":2300:2318   */\n      add\n        /* \"#utility.yul\":2292:2318   */\n      swap1\n      pop\n        /* \"#utility.yul\":2328:2414   */\n      tag_539\n        /* \"#utility.yul\":2411:2412   */\n      0x00\n        /* \"#utility.yul\":2400:2409   */\n      dup4\n        /* \"#utility.yul\":2396:2413   */\n      add\n        /* \"#utility.yul\":2387:2393   */\n      dup5\n        /* \"#utility.yul\":2328:2414   */\n      tag_481\n      jump\t// in\n    tag_539:\n        /* \"#utility.yul\":2169:2421   */\n      swap3\n      swap2\n      pop\n      pop\n      jump\t// out\n        /* \"#utility.yul\":2427:2523   */\n    tag_482:\n        /* \"#utility.yul\":2464:2471   */\n      0x00\n        /* \"#utility.yul\":2493:2517   */\n      tag_541\n        /* \"#utility.yul\":2511:2516   */\n      dup3\n        /* \"#utility.yul\":2493:2517   */\n      tag_476\n      jump\t// in\n    tag_541:\n        /* \"#utility.yul\":2482:2517   */\n      swap1\n      pop\n        /* \"#utility.yul\":2427:2523   */\n      swap2\n      swap1\n      pop\n      jump\t// out\n        /* \"#utility.yul\":2529:2647   */\n    tag_483:\n        /* \"#utility.yul\":2616:2640   */\n      tag_543\n        /* \"#utility.yul\":2634:2639   */\n      dup2\n        /* \"#utility.yul\":2616:2640   */\n      tag_482\n      jump\t// in\n    tag_543:\n        /* \"#utility.yul\":2611:2614   */\n      dup3\n        /* \"#utility.yul\":2604:2641   */\n      mstore\n        /* \"#utility.yul\":2529:2647   */\n      pop\n      pop\n      jump\t// out\n        /* \"#utility.yul\":2653:3095   */\n    tag_39:\n        /* \"#utility.yul\":2802:2806   */\n      0x00\n        /* \"#utility.yul\":2840:2842   */\n      0x60\n        /* \"#utility.yul\":2829:2838   */\n      dup3\n        /* \"#utility.yul\":2825:2843   */\n      add\n        /* \"#utility.yul\":2817:2843   */\n      swap1\n      pop\n        /* \"#utility.yul\":2853:2924   */\n      tag_545\n        /* \"#utility.yul\":2921:2922   */\n      0x00\n        /* \"#utility.yul\":2910:2919   */\n      dup4\n        /* \"#utility.yul\":2906:2923   */\n      add\n        /* \"#utility.yul\":2897:2903   */\n      dup7\n        /* \"#utility.yul\":2853:2924   */\n      tag_483\n      jump\t// in\n    tag_545:\n        /* \"#utility.yul\":2934:3006   */\n      tag_546\n        /* \"#utility.yul\":3002:3004   */\n      0x20\n        /* \"#utility.yul\":2991:3000   */\n      dup4\n        /* \"#utility.yul\":2987:3005   */\n      add\n        /* \"#utility.yul\":2978:2984   */\n      dup6\n        /* \"#utility.yul\":2934:3006   */\n      tag_483\n      jump\t// in\n    tag_546:\n        /* \"#utility.yul\":3016:3088   */\n      tag_547\n        /* \"#utility.yul\":3084:3086   */\n      0x40\n        /* \"#utility.yul\":3073:3082   */\n      dup4\n        /* \"#utility.yul\":3069:3087   */\n      add\n        /* \"#utility.yul\":3060:3066   */\n      dup5\n        /* \"#utility.yul\":3016:3088   */\n      tag_483\n      jump\t// in\n    tag_547:\n        /* \"#utility.yul\":2653:3095   */\n      swap5\n      swap4\n      pop\n      pop\n      pop\n      pop\n      jump\t// out\n        /* \"#utility.yul\":3101:3543   */\n    tag_43:\n        /* \"#utility.yul\":3250:3254   */\n      0x00\n        /* \"#utility.yul\":3288:3290   */\n      0x60\n        /* \"#utility.yul\":3277:3286   */\n      dup3\n        /* \"#utility.yul\":3273:3291   */\n      add\n        /* \"#utility.yul\":3265:3291   */\n      swap1\n      pop\n        /* \"#utility.yul\":3301:3372   */\n      tag_549\n        /* \"#utility.yul\":3369:3370   */\n      0x00\n        /* \"#utility.yul\":3358:3367   */\n      dup4\n        /* \"#utility.yul\":3354:3371   */\n      add\n        /* \"#utility.yul\":3345:3351   */\n      dup7\n        /* \"#utility.yul\":3301:3372   */\n      tag_475\n      jump\t// in\n    tag_549:\n        /* \"#utility.yul\":3382:3454   */\n      tag_550\n        /* \"#utility.yul\":3450:3452   */\n      0x20\n        /* \"#utility.yul\":3439:3448   */\n      dup4\n        /* \"#utility.yul\":3435:3453   */\n      add\n        /* \"#utility.yul\":3426:3432   */\n      dup6\n        /* \"#utility.yul\":3382:3454   */\n      tag_475\n      jump\t// in\n    tag_550:\n        /* \"#utility.yul\":3464:3536   */\n      tag_551\n        /* \"#utility.yul\":3532:3534   */\n      0x40\n        /* \"#utility.yul\":3521:3530   */\n      dup4\n        /* \"#utility.yul\":3517:3535   */\n      add\n        /* \"#utility.yul\":3508:3514   */\n      dup5\n        /* \"#utility.yul\":3464:3536   */\n      tag_475\n      jump\t// in\n    tag_551:\n        /* \"#utility.yul\":3101:3543   */\n      swap5\n      swap4\n      pop\n      pop\n      pop\n      pop\n      jump\t// out\n        /* \"#utility.yul\":3549:3671   */\n    tag_484:\n        /* \"#utility.yul\":3622:3646   */\n      tag_553\n        /* \"#utility.yul\":3640:3645   */\n      dup2\n        /* \"#utility.yul\":3622:3646   */\n      tag_482\n      jump\t// in\n    tag_553:\n        /* \"#utility.yul\":3615:3620   */\n      dup2\n        /* \"#utility.yul\":3612:3647   */\n      eq\n        /* \"#utility.yul\":3602:3665   */\n      tag_554\n      jumpi\n        /* \"#utility.yul\":3661:3662   */\n      0x00\n        /* \"#utility.yul\":3658:3659   */\n      0x00\n        /* \"#utility.yul\":3651:3663   */\n      revert\n        /* \"#utility.yul\":3602:3665   */\n    tag_554:\n        /* \"#utility.yul\":3549:3671   */\n      pop\n      jump\t// out\n        /* \"#utility.yul\":3677:3816   */\n    tag_485:\n        /* \"#utility.yul\":3723:3728   */\n      0x00\n        /* \"#utility.yul\":3761:3767   */\n      dup2\n        /* \"#utility.yul\":3748:3768   */\n      calldataload\n        /* \"#utility.yul\":3739:3768   */\n      swap1\n      pop\n        /* \"#utility.yul\":3777:3810   */\n      tag_556\n        /* \"#utility.yul\":3804:3809   */\n      dup2\n        /* \"#utility.yul\":3777:3810   */\n      tag_484\n      jump\t// in\n    tag_556:\n        /* \"#utility.yul\":3677:3816   */\n      swap3\n      swap2\n      pop\n      pop\n      jump\t// out\n        /* \"#utility.yul\":3822:4151   */\n    tag_46:\n        /* \"#utility.yul\":3881:3887   */\n      0x00\n        /* \"#utility.yul\":3930:3932   */\n      0x20\n        /* \"#utility.yul\":3918:3927   */\n      dup3\n        /* \"#utility.yul\":3909:3916   */\n      dup5\n        /* \"#utility.yul\":3905:3928   */\n      sub\n        /* \"#utility.yul\":3901:3933   */\n      slt\n        /* \"#utility.yul\":3898:4017   */\n      iszero\n      tag_558\n      jumpi\n        /* \"#utility.yul\":3936:4015   */\n      tag_559\n      tag_470\n      jump\t// in\n    tag_559:\n        /* \"#utility.yul\":3898:4017   */\n    tag_558:\n        /* \"#utility.yul\":4056:4057   */\n      0x00\n        /* \"#utility.yul\":4081:4134   */\n      tag_560\n        /* \"#utility.yul\":4126:4133   */\n      dup5\n        /* \"#utility.yul\":4117:4123   */\n      dup3\n        /* \"#utility.yul\":4106:4115   */\n      dup6\n        /* \"#utility.yul\":4102:4124   */\n      add\n        /* \"#utility.yul\":4081:4134   */\n      tag_485\n      jump\t// in\n    tag_560:\n        /* \"#utility.yul\":4071:4134   */\n      swap2\n      pop\n        /* \"#utility.yul\":4027:4144   */\n      pop\n        /* \"#utility.yul\":3822:4151   */\n      swap3\n      swap2\n      pop\n      pop\n      jump\t// out\n        /* \"#utility.yul\":4157:4233   */\n    tag_486:\n        /* \"#utility.yul\":4193:4200   */\n      0x00\n        /* \"#utility.yul\":4222:4227   */\n      dup2\n        /* \"#utility.yul\":4211:4227   */\n      swap1\n      pop\n        /* \"#utility.yul\":4157:4233   */\n      swap2\n      swap1\n      pop\n      jump\t// out\n        /* \"#utility.yul\":4239:4354   */\n    tag_487:\n        /* \"#utility.yul\":4324:4347   */\n      tag_563\n        /* \"#utility.yul\":4341:4346   */\n      dup2\n        /* \"#utility.yul\":4324:4347   */\n      tag_486\n      jump\t// in\n    tag_563:\n        /* \"#utility.yul\":4319:4322   */\n      dup3\n        /* \"#utility.yul\":4312:4348   */\n      mstore\n        /* \"#utility.yul\":4239:4354   */\n      pop\n      pop\n      jump\t// out\n        /* \"#utility.yul\":4360:5464   */\n    tag_49:\n        /* \"#utility.yul\":4675:4679   */\n      0x00\n        /* \"#utility.yul\":4713:4716   */\n      0x0120\n        /* \"#utility.yul\":4702:4711   */\n      dup3\n        /* \"#utility.yul\":4698:4717   */\n      add\n        /* \"#utility.yul\":4690:4717   */\n      swap1\n      pop\n        /* \"#utility.yul\":4727:4798   */\n      tag_565\n        /* \"#utility.yul\":4795:4796   */\n      0x00\n        /* \"#utility.yul\":4784:4793   */\n      dup4\n        /* \"#utility.yul\":4780:4797   */\n      add\n        /* \"#utility.yul\":4771:4777   */\n      dup13\n        /* \"#utility.yul\":4727:4798   */\n      tag_475\n      jump\t// in\n    tag_565:\n        /* \"#utility.yul\":4808:4880   */\n      tag_566\n        /* \"#utility.yul\":4876:4878   */\n      0x20\n        /* \"#utility.yul\":4865:4874   */\n      dup4\n        /* \"#utility.yul\":4861:4879   */\n      add\n        /* \"#utility.yul\":4852:4858   */\n      dup12\n        /* \"#utility.yul\":4808:4880   */\n      tag_475\n      jump\t// in\n    tag_566:\n        /* \"#utility.yul\":4890:4962   */\n      tag_567\n        /* \"#utility.yul\":4958:4960   */\n      0x40\n        /* \"#utility.yul\":4947:4956   */\n      dup4\n        /* \"#utility.yul\":4943:4961   */\n      add\n        /* \"#utility.yul\":4934:4940   */\n      dup11\n        /* \"#utility.yul\":4890:4962   */\n      tag_475\n      jump\t// in\n    tag_567:\n        /* \"#utility.yul\":4972:5044   */\n      tag_568\n        /* \"#utility.yul\":5040:5042   */\n      0x60\n        /* \"#utility.yul\":5029:5038   */\n      dup4\n        /* \"#utility.yul\":5025:5043   */\n      add\n        /* \"#utility.yul\":5016:5022   */\n      dup10\n        /* \"#utility.yul\":4972:5044   */\n      tag_475\n      jump\t// in\n    tag_568:\n        /* \"#utility.yul\":5054:5127   */\n      tag_569\n        /* \"#utility.yul\":5122:5125   */\n      0x80\n        /* \"#utility.yul\":5111:5120   */\n      dup4\n        /* \"#utility.yul\":5107:5126   */\n      add\n        /* \"#utility.yul\":5098:5104   */\n      dup9\n        /* \"#utility.yul\":5054:5127   */\n      tag_475\n      jump\t// in\n    tag_569:\n        /* \"#utility.yul\":5137:5210   */\n      tag_570\n        /* \"#utility.yul\":5205:5208   */\n      0xa0\n        /* \"#utility.yul\":5194:5203   */\n      dup4\n        /* \"#utility.yul\":5190:5209   */\n      add\n        /* \"#utility.yul\":5181:5187   */\n      dup8\n        /* \"#utility.yul\":5137:5210   */\n      tag_475\n      jump\t// in\n    tag_570:\n        /* \"#utility.yul\":5220:5293   */\n      tag_571\n        /* \"#utility.yul\":5288:5291   */\n      0xc0\n        /* \"#utility.yul\":5277:5286   */\n      dup4\n        /* \"#utility.yul\":5273:5292   */\n      add\n        /* \"#utility.yul\":5264:5270   */\n      dup7\n        /* \"#utility.yul\":5220:5293   */\n      tag_475\n      jump\t// in\n    tag_571:\n        /* \"#utility.yul\":5303:5376   */\n      tag_572\n        /* \"#utility.yul\":5371:5374   */\n      0xe0\n        /* \"#utility.yul\":5360:5369   */\n      dup4\n        /* \"#utility.yul\":5356:5375   */\n      add\n        /* \"#utility.yul\":5347:5353   */\n      dup6\n        /* \"#utility.yul\":5303:5376   */\n      tag_475\n      jump\t// in\n    tag_572:\n        /* \"#utility.yul\":5386:5457   */\n      tag_573\n        /* \"#utility.yul\":5452:5455   */\n      0x0100\n        /* \"#utility.yul\":5441:5450   */\n      dup4\n        /* \"#utility.yul\":5437:5456   */\n      add\n        /* \"#utility.yul\":5428:5434   */\n      dup5\n        /* \"#utility.yul\":5386:5457   */\n      tag_487\n      jump\t// in\n    tag_573:\n        /* \"#utility.yul\":4360:5464   */\n      swap11\n      swap10\n      pop\n      pop\n      pop\n      pop\n      pop\n      pop\n      pop\n      pop\n      pop\n      pop\n      jump\t// out\n        /* \"#utility.yul\":5470:6134   */\n    tag_54:\n        /* \"#utility.yul\":5675:5679   */\n      0x00\n        /* \"#utility.yul\":5713:5716   */\n      0xa0\n        /* \"#utility.yul\":5702:5711   */\n      dup3\n        /* \"#utility.yul\":5698:5717   */\n      add\n        /* \"#utility.yul\":5690:5717   */\n      swap1\n      pop\n        /* \"#utility.yul\":5727:5798   */\n      tag_575\n        /* \"#utility.yul\":5795:5796   */\n      0x00\n        /* \"#utility.yul\":5784:5793   */\n      dup4\n        /* \"#utility.yul\":5780:5797   */\n      add\n        /* \"#utility.yul\":5771:5777   */\n      dup9\n        /* \"#utility.yul\":5727:5798   */\n      tag_475\n      jump\t// in\n    tag_575:\n        /* \"#utility.yul\":5808:5880   */\n      tag_576\n        /* \"#utility.yul\":5876:5878   */\n      0x20\n        /* \"#utility.yul\":5865:5874   */\n      dup4\n        /* \"#utility.yul\":5861:5879   */\n      add\n        /* \"#utility.yul\":5852:5858   */\n      dup8\n        /* \"#utility.yul\":5808:5880   */\n      tag_475\n      jump\t// in\n    tag_576:\n        /* \"#utility.yul\":5890:5962   */\n      tag_577\n        /* \"#utility.yul\":5958:5960   */\n      0x40\n        /* \"#utility.yul\":5947:5956   */\n      dup4\n        /* \"#utility.yul\":5943:5961   */\n      add\n        /* \"#utility.yul\":5934:5940   */\n      dup7\n        /* \"#utility.yul\":5890:5962   */\n      tag_475\n      jump\t// in\n    tag_577:\n        /* \"#utility.yul\":5972:6044   */\n      tag_578\n        /* \"#utility.yul\":6040:6042   */\n      0x60\n        /* \"#utility.yul\":6029:6038   */\n      dup4\n        /* \"#utility.yul\":6025:6043   */\n      add\n        /* \"#utility.yul\":6016:6022   */\n      dup6\n        /* \"#utility.yul\":5972:6044   */\n      tag_475\n      jump\t// in\n    tag_578:\n        /* \"#utility.yul\":6054:6127   */\n      tag_579\n        /* \"#utility.yul\":6122:6125   */\n      0x80\n        /* \"#utility.yul\":6111:6120   */\n      dup4\n        /* \"#utility.yul\":6107:6126   */\n      add\n        /* \"#utility.yul\":6098:6104   */\n      dup5\n        /* \"#utility.yul\":6054:6127   */\n      tag_475\n      jump\t// in\n    tag_579:\n        /* \"#utility.yul\":5470:6134   */\n      swap7\n      swap6\n      pop\n      pop\n      pop\n      pop\n      pop\n      pop\n      jump\t// out\n        /* \"#utility.yul\":6140:6283   */\n    tag_488:\n        /* \"#utility.yul\":6207:6216   */\n      0x00\n        /* \"#utility.yul\":6240:6277   */\n      tag_581\n        /* \"#utility.yul\":6271:6276   */\n      dup3\n        /* \"#utility.yul\":6240:6277   */\n      tag_479\n      jump\t// in\n    tag_581:\n        /* \"#utility.yul\":6227:6277   */\n      swap1\n      pop\n        /* \"#utility.yul\":6140:6283   */\n      swap2\n      swap1\n      pop\n      jump\t// out\n        /* \"#utility.yul\":6289:6454   */\n    tag_489:\n        /* \"#utility.yul\":6393:6447   */\n      tag_583\n        /* \"#utility.yul\":6441:6446   */\n      dup2\n        /* \"#utility.yul\":6393:6447   */\n      tag_488\n      jump\t// in\n    tag_583:\n        /* \"#utility.yul\":6388:6391   */\n      dup3\n        /* \"#utility.yul\":6381:6448   */\n      mstore\n        /* \"#utility.yul\":6289:6454   */\n      pop\n      pop\n      jump\t// out\n        /* \"#utility.yul\":6460:6716   */\n    tag_58:\n        /* \"#utility.yul\":6570:6574   */\n      0x00\n        /* \"#utility.yul\":6608:6610   */\n      0x20\n        /* \"#utility.yul\":6597:6606   */\n      dup3\n        /* \"#utility.yul\":6593:6611   */\n      add\n        /* \"#utility.yul\":6585:6611   */\n      swap1\n      pop\n        /* \"#utility.yul\":6621:6709   */\n      tag_585\n        /* \"#utility.yul\":6706:6707   */\n      0x00\n        /* \"#utility.yul\":6695:6704   */\n      dup4\n        /* \"#utility.yul\":6691:6708   */\n      add\n        /* \"#utility.yul\":6682:6688   */\n      dup5\n        /* \"#utility.yul\":6621:6709   */\n      tag_489\n      jump\t// in\n    tag_585:\n        /* \"#utility.yul\":6460:6716   */\n      swap3\n      swap2\n      pop\n      pop\n      jump\t// out\n        /* \"#utility.yul\":6722:7275   */\n    tag_64:\n        /* \"#utility.yul\":6899:6903   */\n      0x00\n        /* \"#utility.yul\":6937:6940   */\n      0x80\n        /* \"#utility.yul\":6926:6935   */\n      dup3\n        /* \"#utility.yul\":6922:6941   */\n      add\n        /* \"#utility.yul\":6914:6941   */\n      swap1\n      pop\n        /* \"#utility.yul\":6951:7022   */\n      tag_587\n        /* \"#utility.yul\":7019:7020   */\n      0x00\n        /* \"#utility.yul\":7008:7017   */\n      dup4\n        /* \"#utility.yul\":7004:7021   */\n      add\n        /* \"#utility.yul\":6995:7001   */\n      dup8\n        /* \"#utility.yul\":6951:7022   */\n      tag_475\n      jump\t// in\n    tag_587:\n        /* \"#utility.yul\":7032:7104   */\n      tag_588\n        /* \"#utility.yul\":7100:7102   */\n      0x20\n        /* \"#utility.yul\":7089:7098   */\n      dup4\n        /* \"#utility.yul\":7085:7103   */\n      add\n        /* \"#utility.yul\":7076:7082   */\n      dup7\n        /* \"#utility.yul\":7032:7104   */\n      tag_475\n      jump\t// in\n    tag_588:\n        /* \"#utility.yul\":7114:7186   */\n      tag_589\n        /* \"#utility.yul\":7182:7184   */\n      0x40\n        /* \"#utility.yul\":7171:7180   */\n      dup4\n        /* \"#utility.yul\":7167:7185   */\n      add\n        /* \"#utility.yul\":7158:7164   */\n      dup6\n        /* \"#utility.yul\":7114:7186   */\n      tag_475\n      jump\t// in\n    tag_589:\n        /* \"#utility.yul\":7196:7268   */\n      tag_590\n        /* \"#utility.yul\":7264:7266   */\n      0x60\n        /* \"#utility.yul\":7253:7262   */\n      dup4\n        /* \"#utility.yul\":7249:7267   */\n      add\n        /* \"#utility.yul\":7240:7246   */\n      dup5\n        /* \"#utility.yul\":7196:7268   */\n      tag_475\n      jump\t// in\n    tag_590:\n        /* \"#utility.yul\":6722:7275   */\n      swap6\n      swap5\n      pop\n      pop\n      pop\n      pop\n      pop\n      jump\t// out\n        /* \"#utility.yul\":7281:7503   */\n    tag_77:\n        /* \"#utility.yul\":7374:7378   */\n      0x00\n        /* \"#utility.yul\":7412:7414   */\n      0x20\n        /* \"#utility.yul\":7401:7410   */\n      dup3\n        /* \"#utility.yul\":7397:7415   */\n      add\n        /* \"#utility.yul\":7389:7415   */\n      swap1\n      pop\n        /* \"#utility.yul\":7425:7496   */\n      tag_592\n        /* \"#utility.yul\":7493:7494   */\n      0x00\n        /* \"#utility.yul\":7482:7491   */\n      dup4\n        /* \"#utility.yul\":7478:7495   */\n      add\n        /* \"#utility.yul\":7469:7475   */\n      dup5\n        /* \"#utility.yul\":7425:7496   */\n      tag_483\n      jump\t// in\n    tag_592:\n        /* \"#utility.yul\":7281:7503   */\n      swap3\n      swap2\n      pop\n      pop\n      jump\t// out\n        /* \"#utility.yul\":7509:7649   */\n    tag_490:\n        /* \"#utility.yul\":7573:7582   */\n      0x00\n        /* \"#utility.yul\":7606:7643   */\n      tag_594\n        /* \"#utility.yul\":7637:7642   */\n      dup3\n        /* \"#utility.yul\":7606:7643   */\n      tag_479\n      jump\t// in\n    tag_594:\n        /* \"#utility.yul\":7593:7643   */\n      swap1\n      pop\n        /* \"#utility.yul\":7509:7649   */\n      swap2\n      swap1\n      pop\n      jump\t// out\n        /* \"#utility.yul\":7655:7814   */\n    tag_491:\n        /* \"#utility.yul\":7756:7807   */\n      tag_596\n        /* \"#utility.yul\":7801:7806   */\n      dup2\n        /* \"#utility.yul\":7756:7807   */\n      tag_490\n      jump\t// in\n    tag_596:\n        /* \"#utility.yul\":7751:7754   */\n      dup3\n        /* \"#utility.yul\":7744:7808   */\n      mstore\n        /* \"#utility.yul\":7655:7814   */\n      pop\n      pop\n      jump\t// out\n        /* \"#utility.yul\":7820:8070   */\n    tag_99:\n        /* \"#utility.yul\":7927:7931   */\n      0x00\n        /* \"#utility.yul\":7965:7967   */\n      0x20\n        /* \"#utility.yul\":7954:7963   */\n      dup3\n        /* \"#utility.yul\":7950:7968   */\n      add\n        /* \"#utility.yul\":7942:7968   */\n      swap1\n      pop\n        /* \"#utility.yul\":7978:8063   */\n      tag_598\n        /* \"#utility.yul\":8060:8061   */\n      0x00\n        /* \"#utility.yul\":8049:8058   */\n      dup4\n        /* \"#utility.yul\":8045:8062   */\n      add\n        /* \"#utility.yul\":8036:8042   */\n      dup5\n        /* \"#utility.yul\":7978:8063   */\n      tag_491\n      jump\t// in\n    tag_598:\n        /* \"#utility.yul\":7820:8070   */\n      swap3\n      swap2\n      pop\n      pop\n      jump\t// out\n        /* \"#utility.yul\":8076:8256   */\n    tag_492:\n        /* \"#utility.yul\":8124:8201   */\n      0x4e487b7100000000000000000000000000000000000000000000000000000000\n        /* \"#utility.yul\":8121:8122   */\n      0x00\n        /* \"#utility.yul\":8114:8202   */\n      mstore\n        /* \"#utility.yul\":8221:8225   */\n      0x11\n        /* \"#utility.yul\":8218:8219   */\n      0x04\n        /* \"#utility.yul\":8211:8226   */\n      mstore\n        /* \"#utility.yul\":8245:8249   */\n      0x24\n        /* \"#utility.yul\":8242:8243   */\n      0x00\n        /* \"#utility.yul\":8235:8250   */\n      revert\n        /* \"#utility.yul\":8262:8672   */\n    tag_113:\n        /* \"#utility.yul\":8302:8309   */\n      0x00\n        /* \"#utility.yul\":8325:8345   */\n      tag_601\n        /* \"#utility.yul\":8343:8344   */\n      dup3\n        /* \"#utility.yul\":8325:8345   */\n      tag_472\n      jump\t// in\n    tag_601:\n        /* \"#utility.yul\":8320:8345   */\n      swap2\n      pop\n        /* \"#utility.yul\":8359:8379   */\n      tag_602\n        /* \"#utility.yul\":8377:8378   */\n      dup4\n        /* \"#utility.yul\":8359:8379   */\n      tag_472\n      jump\t// in\n    tag_602:\n        /* \"#utility.yul\":8354:8379   */\n      swap3\n      pop\n        /* \"#utility.yul\":8414:8415   */\n      dup3\n        /* \"#utility.yul\":8411:8412   */\n      dup3\n        /* \"#utility.yul\":8407:8416   */\n      mul\n        /* \"#utility.yul\":8436:8466   */\n      tag_603\n        /* \"#utility.yul\":8454:8465   */\n      dup2\n        /* \"#utility.yul\":8436:8466   */\n      tag_472\n      jump\t// in\n    tag_603:\n        /* \"#utility.yul\":8425:8466   */\n      swap2\n      pop\n        /* \"#utility.yul\":8615:8616   */\n      dup3\n        /* \"#utility.yul\":8606:8613   */\n      dup3\n        /* \"#utility.yul\":8602:8617   */\n      div\n        /* \"#utility.yul\":8599:8600   */\n      dup5\n        /* \"#utility.yul\":8596:8618   */\n      eq\n        /* \"#utility.yul\":8576:8577   */\n      dup4\n        /* \"#utility.yul\":8569:8578   */\n      iszero\n        /* \"#utility.yul\":8549:8632   */\n      or\n        /* \"#utility.yul\":8526:8665   */\n      tag_604\n      jumpi\n        /* \"#utility.yul\":8645:8663   */\n      tag_605\n      tag_492\n      jump\t// in\n    tag_605:\n        /* \"#utility.yul\":8526:8665   */\n    tag_604:\n        /* \"#utility.yul\":8310:8672   */\n      pop\n        /* \"#utility.yul\":8262:8672   */\n      swap3\n      swap2\n      pop\n      pop\n      jump\t// out\n        /* \"#utility.yul\":8678:8858   */\n    tag_493:\n        /* \"#utility.yul\":8726:8803   */\n      0x4e487b7100000000000000000000000000000000000000000000000000000000\n        /* \"#utility.yul\":8723:8724   */\n      0x00\n        /* \"#utility.yul\":8716:8804   */\n      mstore\n        /* \"#utility.yul\":8823:8827   */\n      0x12\n        /* \"#utility.yul\":8820:8821   */\n      0x04\n        /* \"#utility.yul\":8813:8828   */\n      mstore\n        /* \"#utility.yul\":8847:8851   */\n      0x24\n        /* \"#utility.yul\":8844:8845   */\n      0x00\n        /* \"#utility.yul\":8837:8852   */\n      revert\n        /* \"#utility.yul\":8864:9049   */\n    tag_115:\n        /* \"#utility.yul\":8904:8905   */\n      0x00\n        /* \"#utility.yul\":8921:8941   */\n      tag_608\n        /* \"#utility.yul\":8939:8940   */\n      dup3\n        /* \"#utility.yul\":8921:8941   */\n      tag_472\n      jump\t// in\n    tag_608:\n        /* \"#utility.yul\":8916:8941   */\n      swap2\n      pop\n        /* \"#utility.yul\":8955:8975   */\n      tag_609\n        /* \"#utility.yul\":8973:8974   */\n      dup4\n        /* \"#utility.yul\":8955:8975   */\n      tag_472\n      jump\t// in\n    tag_609:\n        /* \"#utility.yul\":8950:8975   */\n      swap3\n      pop\n        /* \"#utility.yul\":8994:8995   */\n      dup3\n        /* \"#utility.yul\":8984:9019   */\n      tag_610\n      jumpi\n        /* \"#utility.yul\":8999:9017   */\n      tag_611\n      tag_493\n      jump\t// in\n    tag_611:\n        /* \"#utility.yul\":8984:9019   */\n    tag_610:\n        /* \"#utility.yul\":9041:9042   */\n      dup3\n        /* \"#utility.yul\":9038:9039   */\n      dup3\n        /* \"#utility.yul\":9034:9043   */\n      div\n        /* \"#utility.yul\":9029:9043   */\n      swap1\n      pop\n        /* \"#utility.yul\":8864:9049   */\n      swap3\n      swap2\n      pop\n      pop\n      jump\t// out\n        /* \"#utility.yul\":9055:9497   */\n    tag_122:\n        /* \"#utility.yul\":9204:9208   */\n      0x00\n        /* \"#utility.yul\":9242:9244   */\n      0x60\n        /* \"#utility.yul\":9231:9240   */\n      dup3\n        /* \"#utility.yul\":9227:9245   */\n      add\n        /* \"#utility.yul\":9219:9245   */\n      swap1\n      pop\n        /* \"#utility.yul\":9255:9326   */\n      tag_613\n        /* \"#utility.yul\":9323:9324   */\n      0x00\n        /* \"#utility.yul\":9312:9321   */\n      dup4\n        /* \"#utility.yul\":9308:9325   */\n      add\n        /* \"#utility.yul\":9299:9305   */\n      dup7\n        /* \"#utility.yul\":9255:9326   */\n      tag_475\n      jump\t// in\n    tag_613:\n        /* \"#utility.yul\":9336:9408   */\n      tag_614\n        /* \"#utility.yul\":9404:9406   */\n      0x20\n        /* \"#utility.yul\":9393:9402   */\n      dup4\n        /* \"#utility.yul\":9389:9407   */\n      add\n        /* \"#utility.yul\":9380:9386   */\n      dup6\n        /* \"#utility.yul\":9336:9408   */\n      tag_483\n      jump\t// in\n    tag_614:\n        /* \"#utility.yul\":9418:9490   */\n      tag_615\n        /* \"#utility.yul\":9486:9488   */\n      0x40\n        /* \"#utility.yul\":9475:9484   */\n      dup4\n        /* \"#utility.yul\":9471:9489   */\n      add\n        /* \"#utility.yul\":9462:9468   */\n      dup5\n        /* \"#utility.yul\":9418:9490   */\n      tag_483\n      jump\t// in\n    tag_615:\n        /* \"#utility.yul\":9055:9497   */\n      swap5\n      swap4\n      pop\n      pop\n      pop\n      pop\n      jump\t// out\n        /* \"#utility.yul\":9503:9646   */\n    tag_494:\n        /* \"#utility.yul\":9560:9565   */\n      0x00\n        /* \"#utility.yul\":9591:9597   */\n      dup2\n        /* \"#utility.yul\":9585:9598   */\n      mload\n        /* \"#utility.yul\":9576:9598   */\n      swap1\n      pop\n        /* \"#utility.yul\":9607:9640   */\n      tag_617\n        /* \"#utility.yul\":9634:9639   */\n      dup2\n        /* \"#utility.yul\":9607:9640   */\n      tag_473\n      jump\t// in\n    tag_617:\n        /* \"#utility.yul\":9503:9646   */\n      swap3\n      swap2\n      pop\n      pop\n      jump\t// out\n        /* \"#utility.yul\":9652:10003   */\n    tag_126:\n        /* \"#utility.yul\":9722:9728   */\n      0x00\n        /* \"#utility.yul\":9771:9773   */\n      0x20\n        /* \"#utility.yul\":9759:9768   */\n      dup3\n        /* \"#utility.yul\":9750:9757   */\n      dup5\n        /* \"#utility.yul\":9746:9769   */\n      sub\n        /* \"#utility.yul\":9742:9774   */\n      slt\n        /* \"#utility.yul\":9739:9858   */\n      iszero\n      tag_619\n      jumpi\n        /* \"#utility.yul\":9777:9856   */\n      tag_620\n      tag_470\n      jump\t// in\n    tag_620:\n        /* \"#utility.yul\":9739:9858   */\n    tag_619:\n        /* \"#utility.yul\":9897:9898   */\n      0x00\n        /* \"#utility.yul\":9922:9986   */\n      tag_621\n        /* \"#utility.yul\":9978:9985   */\n      dup5\n        /* \"#utility.yul\":9969:9975   */\n      dup3\n        /* \"#utility.yul\":9958:9967   */\n      dup6\n        /* \"#utility.yul\":9954:9976   */\n      add\n        /* \"#utility.yul\":9922:9986   */\n      tag_494\n      jump\t// in\n    tag_621:\n        /* \"#utility.yul\":9912:9986   */\n      swap2\n      pop\n        /* \"#utility.yul\":9868:9996   */\n      pop\n        /* \"#utility.yul\":9652:10003   */\n      swap3\n      swap2\n      pop\n      pop\n      jump\t// out\n        /* \"#utility.yul\":10009:10203   */\n    tag_128:\n        /* \"#utility.yul\":10049:10053   */\n      0x00\n        /* \"#utility.yul\":10069:10089   */\n      tag_623\n        /* \"#utility.yul\":10087:10088   */\n      dup3\n        /* \"#utility.yul\":10069:10089   */\n      tag_472\n      jump\t// in\n    tag_623:\n        /* \"#utility.yul\":10064:10089   */\n      swap2\n      pop\n        /* \"#utility.yul\":10103:10123   */\n      tag_624\n        /* \"#utility.yul\":10121:10122   */\n      dup4\n        /* \"#utility.yul\":10103:10123   */\n      tag_472\n      jump\t// in\n    tag_624:\n        /* \"#utility.yul\":10098:10123   */\n      swap3\n      pop\n        /* \"#utility.yul\":10147:10148   */\n      dup3\n        /* \"#utility.yul\":10144:10145   */\n      dup3\n        /* \"#utility.yul\":10140:10149   */\n      sub\n        /* \"#utility.yul\":10132:10149   */\n      swap1\n      pop\n        /* \"#utility.yul\":10171:10172   */\n      dup2\n        /* \"#utility.yul\":10165:10169   */\n      dup2\n        /* \"#utility.yul\":10162:10173   */\n      gt\n        /* \"#utility.yul\":10159:10196   */\n      iszero\n      tag_625\n      jumpi\n        /* \"#utility.yul\":10176:10194   */\n      tag_626\n      tag_492\n      jump\t// in\n    tag_626:\n        /* \"#utility.yul\":10159:10196   */\n    tag_625:\n        /* \"#utility.yul\":10009:10203   */\n      swap3\n      swap2\n      pop\n      pop\n      jump\t// out\n        /* \"#utility.yul\":10209:10400   */\n    tag_142:\n        /* \"#utility.yul\":10249:10252   */\n      0x00\n        /* \"#utility.yul\":10268:10288   */\n      tag_628\n        /* \"#utility.yul\":10286:10287   */\n      dup3\n        /* \"#utility.yul\":10268:10288   */\n      tag_472\n      jump\t// in\n    tag_628:\n        /* \"#utility.yul\":10263:10288   */\n      swap2\n      pop\n        /* \"#utility.yul\":10302:10322   */\n      tag_629\n        /* \"#utility.yul\":10320:10321   */\n      dup4\n        /* \"#utility.yul\":10302:10322   */\n      tag_472\n      jump\t// in\n    tag_629:\n        /* \"#utility.yul\":10297:10322   */\n      swap3\n      pop\n        /* \"#utility.yul\":10345:10346   */\n      dup3\n        /* \"#utility.yul\":10342:10343   */\n      dup3\n        /* \"#utility.yul\":10338:10347   */\n      add\n        /* \"#utility.yul\":10331:10347   */\n      swap1\n      pop\n        /* \"#utility.yul\":10366:10369   */\n      dup1\n        /* \"#utility.yul\":10363:10364   */\n      dup3\n        /* \"#utility.yul\":10360:10370   */\n      gt\n        /* \"#utility.yul\":10357:10393   */\n      iszero\n      tag_630\n      jumpi\n        /* \"#utility.yul\":10373:10391   */\n      tag_631\n      tag_492\n      jump\t// in\n    tag_631:\n        /* \"#utility.yul\":10357:10393   */\n    tag_630:\n        /* \"#utility.yul\":10209:10400   */\n      swap3\n      swap2\n      pop\n      pop\n      jump\t// out\n        /* \"#utility.yul\":10406:10738   */\n    tag_150:\n        /* \"#utility.yul\":10527:10531   */\n      0x00\n        /* \"#utility.yul\":10565:10567   */\n      0x40\n        /* \"#utility.yul\":10554:10563   */\n      dup3\n        /* \"#utility.yul\":10550:10568   */\n      add\n        /* \"#utility.yul\":10542:10568   */\n      swap1\n      pop\n        /* \"#utility.yul\":10578:10649   */\n      tag_633\n        /* \"#utility.yul\":10646:10647   */\n      0x00\n        /* \"#utility.yul\":10635:10644   */\n      dup4\n        /* \"#utility.yul\":10631:10648   */\n      add\n        /* \"#utility.yul\":10622:10628   */\n      dup6\n        /* \"#utility.yul\":10578:10649   */\n      tag_475\n      jump\t// in\n    tag_633:\n        /* \"#utility.yul\":10659:10731   */\n      tag_634\n        /* \"#utility.yul\":10727:10729   */\n      0x20\n        /* \"#utility.yul\":10716:10725   */\n      dup4\n        /* \"#utility.yul\":10712:10730   */\n      add\n        /* \"#utility.yul\":10703:10709   */\n      dup5\n        /* \"#utility.yul\":10659:10731   */\n      tag_475\n      jump\t// in\n    tag_634:\n        /* \"#utility.yul\":10406:10738   */\n      swap4\n      swap3\n      pop\n      pop\n      pop\n      jump\t// out\n        /* \"#utility.yul\":10744:11116   */\n    tag_186:\n        /* \"#utility.yul\":10783:10787   */\n      0x00\n        /* \"#utility.yul\":10803:10822   */\n      tag_636\n        /* \"#utility.yul\":10820:10821   */\n      dup3\n        /* \"#utility.yul\":10803:10822   */\n      tag_486\n      jump\t// in\n    tag_636:\n        /* \"#utility.yul\":10798:10822   */\n      swap2\n      pop\n        /* \"#utility.yul\":10836:10855   */\n      tag_637\n        /* \"#utility.yul\":10853:10854   */\n      dup4\n        /* \"#utility.yul\":10836:10855   */\n      tag_486\n      jump\t// in\n    tag_637:\n        /* \"#utility.yul\":10831:10855   */\n      swap3\n      pop\n        /* \"#utility.yul\":10879:10880   */\n      dup3\n        /* \"#utility.yul\":10876:10877   */\n      dup3\n        /* \"#utility.yul\":10872:10881   */\n      sub\n        /* \"#utility.yul\":10864:10881   */\n      swap1\n      pop\n        /* \"#utility.yul\":11073:11074   */\n      dup2\n        /* \"#utility.yul\":11067:11071   */\n      dup2\n        /* \"#utility.yul\":11063:11075   */\n      slt\n        /* \"#utility.yul\":11059:11060   */\n      0x00\n        /* \"#utility.yul\":11056:11057   */\n      dup5\n        /* \"#utility.yul\":11052:11061   */\n      slt\n        /* \"#utility.yul\":11048:11076   */\n      and\n        /* \"#utility.yul\":11031:11032   */\n      dup3\n        /* \"#utility.yul\":11025:11029   */\n      dup3\n        /* \"#utility.yul\":11021:11033   */\n      sgt\n        /* \"#utility.yul\":11016:11017   */\n      0x00\n        /* \"#utility.yul\":11013:11014   */\n      dup6\n        /* \"#utility.yul\":11009:11018   */\n      slt\n        /* \"#utility.yul\":11002:11019   */\n      iszero\n        /* \"#utility.yul\":10998:11034   */\n      and\n        /* \"#utility.yul\":10982:11086   */\n      or\n        /* \"#utility.yul\":10979:11109   */\n      iszero\n      tag_638\n      jumpi\n        /* \"#utility.yul\":11089:11107   */\n      tag_639\n      tag_492\n      jump\t// in\n    tag_639:\n        /* \"#utility.yul\":10979:11109   */\n    tag_638:\n        /* \"#utility.yul\":10744:11116   */\n      swap3\n      swap2\n      pop\n      pop\n      jump\t// out\n        /* \"#utility.yul\":11122:11212   */\n    tag_495:\n        /* \"#utility.yul\":11156:11163   */\n      0x00\n        /* \"#utility.yul\":11199:11204   */\n      dup2\n        /* \"#utility.yul\":11192:11205   */\n      iszero\n        /* \"#utility.yul\":11185:11206   */\n      iszero\n        /* \"#utility.yul\":11174:11206   */\n      swap1\n      pop\n        /* \"#utility.yul\":11122:11212   */\n      swap2\n      swap1\n      pop\n      jump\t// out\n        /* \"#utility.yul\":11218:11334   */\n    tag_496:\n        /* \"#utility.yul\":11288:11309   */\n      tag_642\n        /* \"#utility.yul\":11303:11308   */\n      dup2\n        /* \"#utility.yul\":11288:11309   */\n      tag_495\n      jump\t// in\n    tag_642:\n        /* \"#utility.yul\":11281:11286   */\n      dup2\n        /* \"#utility.yul\":11278:11310   */\n      eq\n        /* \"#utility.yul\":11268:11328   */\n      tag_643\n      jumpi\n        /* \"#utility.yul\":11324:11325   */\n      0x00\n        /* \"#utility.yul\":11321:11322   */\n      0x00\n        /* \"#utility.yul\":11314:11326   */\n      revert\n        /* \"#utility.yul\":11268:11328   */\n    tag_643:\n        /* \"#utility.yul\":11218:11334   */\n      pop\n      jump\t// out\n        /* \"#utility.yul\":11340:11477   */\n    tag_497:\n        /* \"#utility.yul\":11394:11399   */\n      0x00\n        /* \"#utility.yul\":11425:11431   */\n      dup2\n        /* \"#utility.yul\":11419:11432   */\n      mload\n        /* \"#utility.yul\":11410:11432   */\n      swap1\n      pop\n        /* \"#utility.yul\":11441:11471   */\n      tag_645\n        /* \"#utility.yul\":11465:11470   */\n      dup2\n        /* \"#utility.yul\":11441:11471   */\n      tag_496\n      jump\t// in\n    tag_645:\n        /* \"#utility.yul\":11340:11477   */\n      swap3\n      swap2\n      pop\n      pop\n      jump\t// out\n        /* \"#utility.yul\":11483:11828   */\n    tag_212:\n        /* \"#utility.yul\":11550:11556   */\n      0x00\n        /* \"#utility.yul\":11599:11601   */\n      0x20\n        /* \"#utility.yul\":11587:11596   */\n      dup3\n        /* \"#utility.yul\":11578:11585   */\n      dup5\n        /* \"#utility.yul\":11574:11597   */\n      sub\n        /* \"#utility.yul\":11570:11602   */\n      slt\n        /* \"#utility.yul\":11567:11686   */\n      iszero\n      tag_647\n      jumpi\n        /* \"#utility.yul\":11605:11684   */\n      tag_648\n      tag_470\n      jump\t// in\n    tag_648:\n        /* \"#utility.yul\":11567:11686   */\n    tag_647:\n        /* \"#utility.yul\":11725:11726   */\n      0x00\n        /* \"#utility.yul\":11750:11811   */\n      tag_649\n        /* \"#utility.yul\":11803:11810   */\n      dup5\n        /* \"#utility.yul\":11794:11800   */\n      dup3\n        /* \"#utility.yul\":11783:11792   */\n      dup6\n        /* \"#utility.yul\":11779:11801   */\n      add\n        /* \"#utility.yul\":11750:11811   */\n      tag_497\n      jump\t// in\n    tag_649:\n        /* \"#utility.yul\":11740:11811   */\n      swap2\n      pop\n        /* \"#utility.yul\":11696:11821   */\n      pop\n        /* \"#utility.yul\":11483:11828   */\n      swap3\n      swap2\n      pop\n      pop\n      jump\t// out\n        /* \"#utility.yul\":11834:11951   */\n    tag_498:\n        /* \"#utility.yul\":11943:11944   */\n      0x00\n        /* \"#utility.yul\":11940:11941   */\n      0x00\n        /* \"#utility.yul\":11933:11945   */\n      revert\n        /* \"#utility.yul\":11957:12059   */\n    tag_499:\n        /* \"#utility.yul\":11998:12004   */\n      0x00\n        /* \"#utility.yul\":12049:12051   */\n      0x1f\n        /* \"#utility.yul\":12045:12052   */\n      not\n        /* \"#utility.yul\":12040:12042   */\n      0x1f\n        /* \"#utility.yul\":12033:12038   */\n      dup4\n        /* \"#utility.yul\":12029:12043   */\n      add\n        /* \"#utility.yul\":12025:12053   */\n      and\n        /* \"#utility.yul\":12015:12053   */\n      swap1\n      pop\n        /* \"#utility.yul\":11957:12059   */\n      swap2\n      swap1\n      pop\n      jump\t// out\n        /* \"#utility.yul\":12065:12245   */\n    tag_500:\n        /* \"#utility.yul\":12113:12190   */\n      0x4e487b7100000000000000000000000000000000000000000000000000000000\n        /* \"#utility.yul\":12110:12111   */\n      0x00\n        /* \"#utility.yul\":12103:12191   */\n      mstore\n        /* \"#utility.yul\":12210:12214   */\n      0x41\n        /* \"#utility.yul\":12207:12208   */\n      0x04\n        /* \"#utility.yul\":12200:12215   */\n      mstore\n        /* \"#utility.yul\":12234:12238   */\n      0x24\n        /* \"#utility.yul\":12231:12232   */\n      0x00\n        /* \"#utility.yul\":12224:12239   */\n      revert\n        /* \"#utility.yul\":12251:12532   */\n    tag_501:\n        /* \"#utility.yul\":12334:12361   */\n      tag_654\n        /* \"#utility.yul\":12356:12360   */\n      dup3\n        /* \"#utility.yul\":12334:12361   */\n      tag_499\n      jump\t// in\n    tag_654:\n        /* \"#utility.yul\":12326:12332   */\n      dup2\n        /* \"#utility.yul\":12322:12362   */\n      add\n        /* \"#utility.yul\":12464:12470   */\n      dup2\n        /* \"#utility.yul\":12452:12462   */\n      dup2\n        /* \"#utility.yul\":12449:12471   */\n      lt\n        /* \"#utility.yul\":12428:12446   */\n      0xffffffffffffffff\n        /* \"#utility.yul\":12416:12426   */\n      dup3\n        /* \"#utility.yul\":12413:12447   */\n      gt\n        /* \"#utility.yul\":12410:12472   */\n      or\n        /* \"#utility.yul\":12407:12495   */\n      iszero\n      tag_655\n      jumpi\n        /* \"#utility.yul\":12475:12493   */\n      tag_656\n      tag_500\n      jump\t// in\n    tag_656:\n        /* \"#utility.yul\":12407:12495   */\n    tag_655:\n        /* \"#utility.yul\":12515:12525   */\n      dup1\n        /* \"#utility.yul\":12511:12513   */\n      0x40\n        /* \"#utility.yul\":12504:12526   */\n      mstore\n        /* \"#utility.yul\":12294:12532   */\n      pop\n        /* \"#utility.yul\":12251:12532   */\n      pop\n      pop\n      jump\t// out\n        /* \"#utility.yul\":12538:12667   */\n    tag_502:\n        /* \"#utility.yul\":12572:12578   */\n      0x00\n        /* \"#utility.yul\":12599:12619   */\n      tag_658\n      tag_469\n      jump\t// in\n    tag_658:\n        /* \"#utility.yul\":12589:12619   */\n      swap1\n      pop\n        /* \"#utility.yul\":12628:12661   */\n      tag_659\n        /* \"#utility.yul\":12656:12660   */\n      dup3\n        /* \"#utility.yul\":12648:12654   */\n      dup3\n        /* \"#utility.yul\":12628:12661   */\n      tag_501\n      jump\t// in\n    tag_659:\n        /* \"#utility.yul\":12538:12667   */\n      swap2\n      swap1\n      pop\n      jump\t// out\n        /* \"#utility.yul\":12796:12882   */\n    tag_504:\n        /* \"#utility.yul\":12831:12838   */\n      0x00\n        /* \"#utility.yul\":12871:12875   */\n      0xff\n        /* \"#utility.yul\":12864:12869   */\n      dup3\n        /* \"#utility.yul\":12860:12876   */\n      and\n        /* \"#utility.yul\":12849:12876   */\n      swap1\n      pop\n        /* \"#utility.yul\":12796:12882   */\n      swap2\n      swap1\n      pop\n      jump\t// out\n        /* \"#utility.yul\":12888:13006   */\n    tag_505:\n        /* \"#utility.yul\":12959:12981   */\n      tag_663\n        /* \"#utility.yul\":12975:12980   */\n      dup2\n        /* \"#utility.yul\":12959:12981   */\n      tag_504\n      jump\t// in\n    tag_663:\n        /* \"#utility.yul\":12952:12957   */\n      dup2\n        /* \"#utility.yul\":12949:12982   */\n      eq\n        /* \"#utility.yul\":12939:13000   */\n      tag_664\n      jumpi\n        /* \"#utility.yul\":12996:12997   */\n      0x00\n        /* \"#utility.yul\":12993:12994   */\n      0x00\n        /* \"#utility.yul\":12986:12998   */\n      revert\n        /* \"#utility.yul\":12939:13000   */\n    tag_664:\n        /* \"#utility.yul\":12888:13006   */\n      pop\n      jump\t// out\n        /* \"#utility.yul\":13012:13151   */\n    tag_506:\n        /* \"#utility.yul\":13067:13072   */\n      0x00\n        /* \"#utility.yul\":13098:13104   */\n      dup2\n        /* \"#utility.yul\":13092:13105   */\n      mload\n        /* \"#utility.yul\":13083:13105   */\n      swap1\n      pop\n        /* \"#utility.yul\":13114:13145   */\n      tag_666\n        /* \"#utility.yul\":13139:13144   */\n      dup2\n        /* \"#utility.yul\":13114:13145   */\n      tag_505\n      jump\t// in\n    tag_666:\n        /* \"#utility.yul\":13012:13151   */\n      swap3\n      swap2\n      pop\n      pop\n      jump\t// out\n        /* \"#utility.yul\":13192:13976   */\n    tag_507:\n        /* \"#utility.yul\":13281:13286   */\n      0x00\n        /* \"#utility.yul\":13325:13329   */\n      0x60\n        /* \"#utility.yul\":13313:13322   */\n      dup3\n        /* \"#utility.yul\":13308:13311   */\n      dup5\n        /* \"#utility.yul\":13304:13323   */\n      sub\n        /* \"#utility.yul\":13300:13330   */\n      slt\n        /* \"#utility.yul\":13297:13414   */\n      iszero\n      tag_668\n      jumpi\n        /* \"#utility.yul\":13333:13412   */\n      tag_669\n      tag_498\n      jump\t// in\n    tag_669:\n        /* \"#utility.yul\":13297:13414   */\n    tag_668:\n        /* \"#utility.yul\":13432:13453   */\n      tag_670\n        /* \"#utility.yul\":13448:13452   */\n      0x60\n        /* \"#utility.yul\":13432:13453   */\n      tag_502\n      jump\t// in\n    tag_670:\n        /* \"#utility.yul\":13423:13453   */\n      swap1\n      pop\n        /* \"#utility.yul\":13514:13515   */\n      0x00\n        /* \"#utility.yul\":13554:13612   */\n      tag_671\n        /* \"#utility.yul\":13608:13611   */\n      dup5\n        /* \"#utility.yul\":13599:13605   */\n      dup3\n        /* \"#utility.yul\":13588:13597   */\n      dup6\n        /* \"#utility.yul\":13584:13606   */\n      add\n        /* \"#utility.yul\":13554:13612   */\n      tag_506\n      jump\t// in\n    tag_671:\n        /* \"#utility.yul\":13547:13551   */\n      0x00\n        /* \"#utility.yul\":13540:13545   */\n      dup4\n        /* \"#utility.yul\":13536:13552   */\n      add\n        /* \"#utility.yul\":13529:13613   */\n      mstore\n        /* \"#utility.yul\":13463:13624   */\n      pop\n        /* \"#utility.yul\":13685:13687   */\n      0x20\n        /* \"#utility.yul\":13726:13784   */\n      tag_672\n        /* \"#utility.yul\":13780:13783   */\n      dup5\n        /* \"#utility.yul\":13771:13777   */\n      dup3\n        /* \"#utility.yul\":13760:13769   */\n      dup6\n        /* \"#utility.yul\":13756:13778   */\n      add\n        /* \"#utility.yul\":13726:13784   */\n      tag_506\n      jump\t// in\n    tag_672:\n        /* \"#utility.yul\":13719:13723   */\n      0x20\n        /* \"#utility.yul\":13712:13717   */\n      dup4\n        /* \"#utility.yul\":13708:13724   */\n      add\n        /* \"#utility.yul\":13701:13785   */\n      mstore\n        /* \"#utility.yul\":13634:13796   */\n      pop\n        /* \"#utility.yul\":13858:13860   */\n      0x40\n        /* \"#utility.yul\":13899:13957   */\n      tag_673\n        /* \"#utility.yul\":13953:13956   */\n      dup5\n        /* \"#utility.yul\":13944:13950   */\n      dup3\n        /* \"#utility.yul\":13933:13942   */\n      dup6\n        /* \"#utility.yul\":13929:13951   */\n      add\n        /* \"#utility.yul\":13899:13957   */\n      tag_506\n      jump\t// in\n    tag_673:\n        /* \"#utility.yul\":13892:13896   */\n      0x40\n        /* \"#utility.yul\":13885:13890   */\n      dup4\n        /* \"#utility.yul\":13881:13897   */\n      add\n        /* \"#utility.yul\":13874:13958   */\n      mstore\n        /* \"#utility.yul\":13806:13969   */\n      pop\n        /* \"#utility.yul\":13192:13976   */\n      swap3\n      swap2\n      pop\n      pop\n      jump\t// out\n        /* \"#utility.yul\":13982:14391   */\n    tag_240:\n        /* \"#utility.yul\":14081:14087   */\n      0x00\n        /* \"#utility.yul\":14130:14132   */\n      0x60\n        /* \"#utility.yul\":14118:14127   */\n      dup3\n        /* \"#utility.yul\":14109:14116   */\n      dup5\n        /* \"#utility.yul\":14105:14128   */\n      sub\n        /* \"#utility.yul\":14101:14133   */\n      slt\n        /* \"#utility.yul\":14098:14217   */\n      iszero\n      tag_675\n      jumpi\n        /* \"#utility.yul\":14136:14215   */\n      tag_676\n      tag_470\n      jump\t// in\n    tag_676:\n        /* \"#utility.yul\":14098:14217   */\n    tag_675:\n        /* \"#utility.yul\":14256:14257   */\n      0x00\n        /* \"#utility.yul\":14281:14374   */\n      tag_677\n        /* \"#utility.yul\":14366:14373   */\n      dup5\n        /* \"#utility.yul\":14357:14363   */\n      dup3\n        /* \"#utility.yul\":14346:14355   */\n      dup6\n        /* \"#utility.yul\":14342:14364   */\n      add\n        /* \"#utility.yul\":14281:14374   */\n      tag_507\n      jump\t// in\n    tag_677:\n        /* \"#utility.yul\":14271:14374   */\n      swap2\n      pop\n        /* \"#utility.yul\":14227:14384   */\n      pop\n        /* \"#utility.yul\":13982:14391   */\n      swap3\n      swap2\n      pop\n      pop\n      jump\t// out\n        /* \"#utility.yul\":14397:14729   */\n    tag_251:\n        /* \"#utility.yul\":14518:14522   */\n      0x00\n        /* \"#utility.yul\":14556:14558   */\n      0x40\n        /* \"#utility.yul\":14545:14554   */\n      dup3\n        /* \"#utility.yul\":14541:14559   */\n      add\n        /* \"#utility.yul\":14533:14559   */\n      swap1\n      pop\n        /* \"#utility.yul\":14569:14640   */\n      tag_679\n        /* \"#utility.yul\":14637:14638   */\n      0x00\n        /* \"#utility.yul\":14626:14635   */\n      dup4\n        /* \"#utility.yul\":14622:14639   */\n      add\n        /* \"#utility.yul\":14613:14619   */\n      dup6\n        /* \"#utility.yul\":14569:14640   */\n      tag_475\n      jump\t// in\n    tag_679:\n        /* \"#utility.yul\":14650:14722   */\n      tag_680\n        /* \"#utility.yul\":14718:14720   */\n      0x20\n        /* \"#utility.yul\":14707:14716   */\n      dup4\n        /* \"#utility.yul\":14703:14721   */\n      add\n        /* \"#utility.yul\":14694:14700   */\n      dup5\n        /* \"#utility.yul\":14650:14722   */\n      tag_483\n      jump\t// in\n    tag_680:\n        /* \"#utility.yul\":14397:14729   */\n      swap4\n      swap3\n      pop\n      pop\n      pop\n      jump\t// out\n\n    auxdata: 0xa2646970667358221220bff8290564dfea5f2d652f12b97b564b847cc5be39a579f77d727d1b70bd642664736f6c634300081e0033\n}\n",
				"bytecode": {
					"linkReferences": {},
					"object": "610120604052348015610010575f5ffd5b5060405161408d38038061408d83398181016040528101906100329190610475565b335f73ffffffffffffffffffffffffffffffffffffffff168173ffffffffffffffffffffffffffffffffffffffff16036100a3575f6040517f1e4fbdf700000000000000000000000000000000000000000000000000000000815260040161009a91906104fb565b60405180910390fd5b6100b28161032460201b60201c565b5060016100d16100c66103e560201b60201c565b61040e60201b60201c565b5f01819055505f73ffffffffffffffffffffffffffffffffffffffff168573ffffffffffffffffffffffffffffffffffffffff16148061013c57505f73ffffffffffffffffffffffffffffffffffffffff168473ffffffffffffffffffffffffffffffffffffffff16145b8061017257505f73ffffffffffffffffffffffffffffffffffffffff168373ffffffffffffffffffffffffffffffffffffffff16145b806101a857505f73ffffffffffffffffffffffffffffffffffffffff168273ffffffffffffffffffffffffffffffffffffffff16145b806101de57505f73ffffffffffffffffffffffffffffffffffffffff168173ffffffffffffffffffffffffffffffffffffffff16145b15610215576040517fe6c4247b00000000000000000000000000000000000000000000000000000000815260040160405180910390fd5b8473ffffffffffffffffffffffffffffffffffffffff1660808173ffffffffffffffffffffffffffffffffffffffff16815250508373ffffffffffffffffffffffffffffffffffffffff1660a08173ffffffffffffffffffffffffffffffffffffffff16815250508273ffffffffffffffffffffffffffffffffffffffff1660c08173ffffffffffffffffffffffffffffffffffffffff16815250508173ffffffffffffffffffffffffffffffffffffffff1660e08173ffffffffffffffffffffffffffffffffffffffff16815250508073ffffffffffffffffffffffffffffffffffffffff166101008173ffffffffffffffffffffffffffffffffffffffff16815250505050505050610514565b5f5f5f9054906101000a900473ffffffffffffffffffffffffffffffffffffffff169050815f5f6101000a81548173ffffffffffffffffffffffffffffffffffffffff021916908373ffffffffffffffffffffffffffffffffffffffff1602179055508173ffffffffffffffffffffffffffffffffffffffff168173ffffffffffffffffffffffffffffffffffffffff167f8be0079c531659141344cd1fd0a4f28419497f9722a3daafe3b4186f6b6457e060405160405180910390a35050565b5f7f9b779b17422d0df92223018b32b4d1fa46e071723d6817e2486d003becc55f005f1b905090565b5f819050919050565b5f5ffd5b5f73ffffffffffffffffffffffffffffffffffffffff82169050919050565b5f6104448261041b565b9050919050565b6104548161043a565b811461045e575f5ffd5b50565b5f8151905061046f8161044b565b92915050565b5f5f5f5f5f60a0868803121561048e5761048d610417565b5b5f61049b88828901610461565b95505060206104ac88828901610461565b94505060406104bd88828901610461565b93505060606104ce88828901610461565b92505060806104df88828901610461565b9150509295509295909350565b6104f58161043a565b82525050565b5f60208201905061050e5f8301846104ec565b92915050565b60805160a05160c05160e051610100516139bb6106d25f395f81816106d301528181610887015281816108f001528181610a3901528181610cd901528181610f3f0152818161135501528181611744015281816117ac01528181611af901528181611d450152818161205a0152818161252b01528181612a700152612ad801525f8181610611015281816108cf015281816109ac01528181610c2901528181610eb0015281816112a5015281816116330152818161169b01528181611a4801528181611c8c01528181611faa015281816123180152818161247a0152818161295f01526129c701525f8181610550015281816108ae0152818161091f01528181610b7a01528181610e21015281816111f6015281816115220152818161158a0152818161199801528181611bd301528181611efb01528181612259015281816123ca0152818161284e01526128b601525f8181610de601528181610ff5015281816114140152818161263001526126ff01525f81816107dd0152818161154401528181611655015281816117660152818161217e015281816127fc015281816128700152818161298101528181612a920152612c8e01526139bb5ff3fe608060405234801561000f575f5ffd5b506004361061012a575f3560e01c80637ebb8971116100ab5780639e79f7e71161006f5780639e79f7e714610337578063af3f5e2214610355578063b6b55f2514610385578063c89039c5146103b7578063f2fde38b146103d55761012a565b80637ebb89711461027b578063853828b6146102ab5780638da5cb5b146102c95780638febd76e146102e7578063996220eb146103055761012a565b8063613cf420116100f2578063613cf420146101f457806366c0757e14610228578063715018a614610246578063771aceef146102505780637d7c2a1c146102715761012a565b80631211540c1461012e5780632ca8ab4c1461015e57806344d00f821461017c57806359b9a6421461019c5780635b7c2dad146101bc575b5f5ffd5b6101486004803603810190610143919061321d565b6103f1565b6040516101559190613257565b60405180910390f35b610166610885565b60405161017391906132ea565b60405180910390f35b6101846108a9565b60405161019393929190613323565b60405180910390f35b6101a461091a565b6040516101b393929190613358565b60405180910390f35b6101d660048036038101906101d191906133b7565b610acf565b6040516101eb999897969594939291906133fa565b60405180910390f35b61020e600480360381019061020991906133b7565b610db2565b60405161021f959493929190613485565b60405180910390f35b610230610de4565b60405161023d91906134f6565b60405180910390f35b61024e610e08565b005b610258610e1b565b604051610268949392919061350f565b60405180910390f35b610279610feb565b005b610295600480360381019061029091906133b7565b611908565b6040516102a29190613257565b60405180910390f35b6102b3611e02565b6040516102c09190613257565b60405180910390f35b6102d1612230565b6040516102de9190613552565b60405180910390f35b6102ef612257565b6040516102fc91906132ea565b60405180910390f35b61031f600480360381019061031a91906133b7565b61227b565b60405161032e93929190613358565b60405180910390f35b61033f612316565b60405161034c91906132ea565b60405180910390f35b61036f600480360381019061036a91906133b7565b61233a565b60405161037c9190613257565b60405180910390f35b61039f600480360381019061039a919061321d565b6125ea565b6040516103ae93929190613358565b60405180910390f35b6103bf612c8c565b6040516103cc919061358b565b60405180910390f35b6103ef60048036038101906103ea91906133b7565b612cb0565b005b5f6103fa612d34565b5f821480610409575061271082115b15610440576040517f1f3b85d300000000000000000000000000000000000000000000000000000000815260040160405180910390fd5b5f60015f3373ffffffffffffffffffffffffffffffffffffffff1673ffffffffffffffffffffffffffffffffffffffff1681526020019081526020015f2090505f815f015414801561049557505f8160010154145b80156104a457505f8160020154145b156104db576040517fabf0f03400000000000000000000000000000000000000000000000000000000815260040160405180910390fd5b5f61271084835f01546104ee91906135d1565b6104f8919061363f565b90505f61271085846001015461050e91906135d1565b610518919061363f565b90505f61271086856002015461052e91906135d1565b610538919061363f565b90505f5f90505f5f90505f5f90505f861115610607577f000000000000000000000000000000000000000000000000000000000000000073ffffffffffffffffffffffffffffffffffffffff1663ba0876528730306040518463ffffffff1660e01b81526004016105ab9392919061366f565b6020604051808303815f875af11580156105c7573d5f5f3e3d5ffd5b505050506040513d601f19601f820116820180604052508101906105eb91906136b8565b925085875f015f8282546105ff91906136e3565b925050819055505b5f8511156106c9577f000000000000000000000000000000000000000000000000000000000000000073ffffffffffffffffffffffffffffffffffffffff1663ba0876528630306040518463ffffffff1660e01b815260040161066c9392919061366f565b6020604051808303815f875af1158015610688573d5f5f3e3d5ffd5b505050506040513d601f19601f820116820180604052508101906106ac91906136b8565b915084876001015f8282546106c191906136e3565b925050819055505b5f84111561078b577f000000000000000000000000000000000000000000000000000000000000000073ffffffffffffffffffffffffffffffffffffffff1663ba0876528530306040518463ffffffff1660e01b815260040161072e9392919061366f565b6020604051808303815f875af115801561074a573d5f5f3e3d5ffd5b505050506040513d601f19601f8201168201806040525081019061076e91906136b8565b905083876002015f82825461078391906136e3565b925050819055505b8082846107989190613716565b6107a29190613716565b9750612710896127106107b591906136e3565b88600301546107c491906135d1565b6107ce919061363f565b876003018190555061082133897f000000000000000000000000000000000000000000000000000000000000000073ffffffffffffffffffffffffffffffffffffffff16612d569092919063ffffffff16565b3373ffffffffffffffffffffffffffffffffffffffff167f1fb6e47f83f7c0e64dd70b2c8ea3ff82b17d0ec3b1f704bf9ea38095a6bc7d588a8a604051610869929190613749565b60405180910390a250505050505050610880612da9565b919050565b7f000000000000000000000000000000000000000000000000000000000000000081565b5f5f5f7f00000000000000000000000000000000000000000000000000000000000000007f00000000000000000000000000000000000000000000000000000000000000007f0000000000000000000000000000000000000000000000000000000000000000925092509250909192565b5f5f5f7f000000000000000000000000000000000000000000000000000000000000000073ffffffffffffffffffffffffffffffffffffffff1663f19993d76040518163ffffffff1660e01b8152600401602060405180830381865afa158015610986573d5f5f3e3d5ffd5b505050506040513d601f19601f820116820180604052508101906109aa91906136b8565b7f000000000000000000000000000000000000000000000000000000000000000073ffffffffffffffffffffffffffffffffffffffff1663f19993d76040518163ffffffff1660e01b8152600401602060405180830381865afa158015610a13573d5f5f3e3d5ffd5b505050506040513d601f19601f82011682018060405250810190610a3791906136b8565b7f000000000000000000000000000000000000000000000000000000000000000073ffffffffffffffffffffffffffffffffffffffff1663f19993d76040518163ffffffff1660e01b8152600401602060405180830381865afa158015610aa0573d5f5f3e3d5ffd5b505050506040513d601f19601f82011682018060405250810190610ac491906136b8565b925092509250909192565b5f5f5f5f5f5f5f5f5f5f60015f8c73ffffffffffffffffffffffffffffffffffffffff1673ffffffffffffffffffffffffffffffffffffffff1681526020019081526020015f206040518060a00160405290815f82015481526020016001820154815260200160028201548152602001600382015481526020016004820154815250509050805f0151995080602001519850806040015197505f815f015111610b78575f610c14565b7f000000000000000000000000000000000000000000000000000000000000000073ffffffffffffffffffffffffffffffffffffffff166307a2d13a825f01516040518263ffffffff1660e01b8152600401610bd49190613257565b602060405180830381865afa158015610bef573d5f5f3e3d5ffd5b505050506040513d601f19601f82011682018060405250810190610c1391906136b8565b5b96505f816020015111610c27575f610cc4565b7f000000000000000000000000000000000000000000000000000000000000000073ffffffffffffffffffffffffffffffffffffffff166307a2d13a82602001516040518263ffffffff1660e01b8152600401610c849190613257565b602060405180830381865afa158015610c9f573d5f5f3e3d5ffd5b505050506040513d601f19601f82011682018060405250810190610cc391906136b8565b5b95505f816040015111610cd7575f610d74565b7f000000000000000000000000000000000000000000000000000000000000000073ffffffffffffffffffffffffffffffffffffffff166307a2d13a82604001516040518263ffffffff1660e01b8152600401610d349190613257565b602060405180830381865afa158015610d4f573d5f5f3e3d5ffd5b505050506040513d601f19601f82011682018060405250810190610d7391906136b8565b5b9450848688610d839190613716565b610d8d9190613716565b9350806060015192508284610da29190613770565b9150509193959799909294969850565b6001602052805f5260405f205f91509050805f0154908060010154908060020154908060030154908060040154905085565b7f000000000000000000000000000000000000000000000000000000000000000081565b610e10612dc3565b610e195f612e4a565b565b5f5f5f5f7f000000000000000000000000000000000000000000000000000000000000000073ffffffffffffffffffffffffffffffffffffffff166301e1d1146040518163ffffffff1660e01b8152600401602060405180830381865afa158015610e88573d5f5f3e3d5ffd5b505050506040513d601f19601f82011682018060405250810190610eac91906136b8565b92507f000000000000000000000000000000000000000000000000000000000000000073ffffffffffffffffffffffffffffffffffffffff166301e1d1146040518163ffffffff1660e01b8152600401602060405180830381865afa158015610f17573d5f5f3e3d5ffd5b505050506040513d601f19601f82011682018060405250810190610f3b91906136b8565b91507f000000000000000000000000000000000000000000000000000000000000000073ffffffffffffffffffffffffffffffffffffffff166301e1d1146040518163ffffffff1660e01b8152600401602060405180830381865afa158015610fa6573d5f5f3e3d5ffd5b505050506040513d601f19601f82011682018060405250810190610fca91906136b8565b9050808284610fd99190613716565b610fe39190613716565b935090919293565b610ff3612d34565b7f000000000000000000000000000000000000000000000000000000000000000073ffffffffffffffffffffffffffffffffffffffff1663a787c80b336040518263ffffffff1660e01b815260040161104c9190613552565b602060405180830381865afa158015611067573d5f5f3e3d5ffd5b505050506040513d601f19601f8201168201806040525081019061108b91906137e5565b6110c1576040517f6f86092700000000000000000000000000000000000000000000000000000000815260040160405180910390fd5b5f60015f3373ffffffffffffffffffffffffffffffffffffffff1673ffffffffffffffffffffffffffffffffffffffff1681526020019081526020015f206040518060a00160405290815f820154815260200160018201548152602001600282015481526020016003820154815260200160048201548152505090505f815f015114801561115257505f8160200151145b801561116157505f8160400151145b15611198576040517fabf0f03400000000000000000000000000000000000000000000000000000000815260040160405180910390fd5b5f6111a23361233a565b90505f81036111dd576040517f1f2a200500000000000000000000000000000000000000000000000000000000815260040160405180910390fd5b5f5f90505f5f90505f5f90505f855f01511115611297577f000000000000000000000000000000000000000000000000000000000000000073ffffffffffffffffffffffffffffffffffffffff1663ba087652865f015130306040518463ffffffff1660e01b81526004016112549392919061366f565b6020604051808303815f875af1158015611270573d5f5f3e3d5ffd5b505050506040513d601f19601f8201168201806040525081019061129491906136b8565b92505b5f85602001511115611347577f000000000000000000000000000000000000000000000000000000000000000073ffffffffffffffffffffffffffffffffffffffff1663ba087652866020015130306040518463ffffffff1660e01b81526004016113049392919061366f565b6020604051808303815f875af1158015611320573d5f5f3e3d5ffd5b505050506040513d601f19601f8201168201806040525081019061134491906136b8565b91505b5f856040015111156113f7577f000000000000000000000000000000000000000000000000000000000000000073ffffffffffffffffffffffffffffffffffffffff1663ba087652866040015130306040518463ffffffff1660e01b81526004016113b49392919061366f565b6020604051808303815f875af11580156113d0573d5f5f3e3d5ffd5b505050506040513d601f19601f820116820180604052508101906113f491906136b8565b90505b5f8183856114059190613716565b61140f9190613716565b90505f7f000000000000000000000000000000000000000000000000000000000000000073ffffffffffffffffffffffffffffffffffffffff1663baf1e57f336040518263ffffffff1660e01b815260040161146b9190613552565b606060405180830381865afa158015611486573d5f5f3e3d5ffd5b505050506040513d601f19601f820116820180604052508101906114aa9190613933565b90505f6064825f015160ff16846114c191906135d1565b6114cb919061363f565b90505f6064836020015160ff16856114e391906135d1565b6114ed919061363f565b90505f8183866114fd91906136e3565b61150791906136e3565b90505f5f90505f5f90505f5f90505f861115611626576115887f0000000000000000000000000000000000000000000000000000000000000000877f000000000000000000000000000000000000000000000000000000000000000073ffffffffffffffffffffffffffffffffffffffff16612f0b9092919063ffffffff16565b7f000000000000000000000000000000000000000000000000000000000000000073ffffffffffffffffffffffffffffffffffffffff16636e553f6587306040518363ffffffff1660e01b81526004016115e392919061395e565b6020604051808303815f875af11580156115ff573d5f5f3e3d5ffd5b505050506040513d601f19601f8201168201806040525081019061162391906136b8565b92505b5f851115611737576116997f0000000000000000000000000000000000000000000000000000000000000000867f000000000000000000000000000000000000000000000000000000000000000073ffffffffffffffffffffffffffffffffffffffff16612f0b9092919063ffffffff16565b7f000000000000000000000000000000000000000000000000000000000000000073ffffffffffffffffffffffffffffffffffffffff16636e553f6586306040518363ffffffff1660e01b81526004016116f492919061395e565b6020604051808303815f875af1158015611710573d5f5f3e3d5ffd5b505050506040513d601f19601f8201168201806040525081019061173491906136b8565b91505b5f841115611848576117aa7f0000000000000000000000000000000000000000000000000000000000000000857f000000000000000000000000000000000000000000000000000000000000000073ffffffffffffffffffffffffffffffffffffffff16612f0b9092919063ffffffff16565b7f000000000000000000000000000000000000000000000000000000000000000073ffffffffffffffffffffffffffffffffffffffff16636e553f6585306040518363ffffffff1660e01b815260040161180592919061395e565b6020604051808303815f875af1158015611821573d5f5f3e3d5ffd5b505050506040513d601f19601f8201168201806040525081019061184591906136b8565b90505b5f60015f3373ffffffffffffffffffffffffffffffffffffffff1673ffffffffffffffffffffffffffffffffffffffff1681526020019081526020015f20905083815f01819055508281600101819055508181600201819055503373ffffffffffffffffffffffffffffffffffffffff167f1427d1942829759938581ce754fd0f7f116bfb7a4b77f80f0cb32cd62c2138c7426040516118e89190613257565b60405180910390a25050505050505050505050505050611906612da9565b565b5f5f60015f8473ffffffffffffffffffffffffffffffffffffffff1673ffffffffffffffffffffffffffffffffffffffff1681526020019081526020015f206040518060a00160405290815f820154815260200160018201548152602001600282015481526020016003820154815260200160048201548152505090505f5f825f015111611996575f611a32565b7f000000000000000000000000000000000000000000000000000000000000000073ffffffffffffffffffffffffffffffffffffffff166307a2d13a835f01516040518263ffffffff1660e01b81526004016119f29190613257565b602060405180830381865afa158015611a0d573d5f5f3e3d5ffd5b505050506040513d601f19601f82011682018060405250810190611a3191906136b8565b5b90505f5f836020015111611a46575f611ae3565b7f000000000000000000000000000000000000000000000000000000000000000073ffffffffffffffffffffffffffffffffffffffff166307a2d13a84602001516040518263ffffffff1660e01b8152600401611aa39190613257565b602060405180830381865afa158015611abe573d5f5f3e3d5ffd5b505050506040513d601f19601f82011682018060405250810190611ae291906136b8565b5b90505f5f846040015111611af7575f611b94565b7f000000000000000000000000000000000000000000000000000000000000000073ffffffffffffffffffffffffffffffffffffffff166307a2d13a85604001516040518263ffffffff1660e01b8152600401611b549190613257565b602060405180830381865afa158015611b6f573d5f5f3e3d5ffd5b505050506040513d601f19601f82011682018060405250810190611b9391906136b8565b5b90505f818385611ba49190613716565b611bae9190613716565b90505f8103611bc4575f95505050505050611dfd565b5f5f90505f851115611c8157817f000000000000000000000000000000000000000000000000000000000000000073ffffffffffffffffffffffffffffffffffffffff1663f19993d76040518163ffffffff1660e01b8152600401602060405180830381865afa158015611c3a573d5f5f3e3d5ffd5b505050506040513d601f19601f82011682018060405250810190611c5e91906136b8565b86611c6991906135d1565b611c73919061363f565b81611c7e9190613716565b90505b5f841115611d3a57817f000000000000000000000000000000000000000000000000000000000000000073ffffffffffffffffffffffffffffffffffffffff1663f19993d76040518163ffffffff1660e01b8152600401602060405180830381865afa158015611cf3573d5f5f3e3d5ffd5b505050506040513d601f19601f82011682018060405250810190611d1791906136b8565b85611d2291906135d1565b611d2c919061363f565b81611d379190613716565b90505b5f831115611df357817f000000000000000000000000000000000000000000000000000000000000000073ffffffffffffffffffffffffffffffffffffffff1663f19993d76040518163ffffffff1660e01b8152600401602060405180830381865afa158015611dac573d5f5f3e3d5ffd5b505050506040513d601f19601f82011682018060405250810190611dd091906136b8565b84611ddb91906135d1565b611de5919061363f565b81611df09190613716565b90505b8096505050505050505b919050565b5f611e0b612d34565b5f60015f3373ffffffffffffffffffffffffffffffffffffffff1673ffffffffffffffffffffffffffffffffffffffff1681526020019081526020015f206040518060a00160405290815f820154815260200160018201548152602001600282015481526020016003820154815260200160048201548152505090505f815f0151148015611e9c57505f8160200151145b8015611eab57505f8160400151145b15611ee2576040517fabf0f03400000000000000000000000000000000000000000000000000000000815260040160405180910390fd5b5f5f90505f5f90505f5f90505f845f01511115611f9c577f000000000000000000000000000000000000000000000000000000000000000073ffffffffffffffffffffffffffffffffffffffff1663ba087652855f015130306040518463ffffffff1660e01b8152600401611f599392919061366f565b6020604051808303815f875af1158015611f75573d5f5f3e3d5ffd5b505050506040513d601f19601f82011682018060405250810190611f9991906136b8565b92505b5f8460200151111561204c577f000000000000000000000000000000000000000000000000000000000000000073ffffffffffffffffffffffffffffffffffffffff1663ba087652856020015130306040518463ffffffff1660e01b81526004016120099392919061366f565b6020604051808303815f875af1158015612025573d5f5f3e3d5ffd5b505050506040513d601f19601f8201168201806040525081019061204991906136b8565b91505b5f846040015111156120fc577f000000000000000000000000000000000000000000000000000000000000000073ffffffffffffffffffffffffffffffffffffffff1663ba087652856040015130306040518463ffffffff1660e01b81526004016120b99392919061366f565b6020604051808303815f875af11580156120d5573d5f5f3e3d5ffd5b505050506040513d601f19601f820116820180604052508101906120f991906136b8565b90505b8082846121099190613716565b6121139190613716565b945060015f3373ffffffffffffffffffffffffffffffffffffffff1673ffffffffffffffffffffffffffffffffffffffff1681526020019081526020015f205f5f82015f9055600182015f9055600282015f9055600382015f9055600482015f905550506121c233867f000000000000000000000000000000000000000000000000000000000000000073ffffffffffffffffffffffffffffffffffffffff16612d569092919063ffffffff16565b3373ffffffffffffffffffffffffffffffffffffffff167f94ffd6b85c71b847775c89ef6496b93cee961bdc6ff827fd117f174f06f745ae86865f015187602001518860400151604051612219949392919061350f565b60405180910390a25050505061222d612da9565b90565b5f5f5f9054906101000a900473ffffffffffffffffffffffffffffffffffffffff16905090565b7f000000000000000000000000000000000000000000000000000000000000000081565b5f5f5f5f60015f8673ffffffffffffffffffffffffffffffffffffffff1673ffffffffffffffffffffffffffffffffffffffff1681526020019081526020015f206040518060a00160405290815f82015481526020016001820154815260200160028201548152602001600382015481526020016004820154815250509050805f015181602001518260400151935093509350509193909250565b7f000000000000000000000000000000000000000000000000000000000000000081565b5f5f60015f8473ffffffffffffffffffffffffffffffffffffffff1673ffffffffffffffffffffffffffffffffffffffff1681526020019081526020015f206040518060a00160405290815f820154815260200160018201548152602001600282015481526020016003820154815260200160048201548152505090505f5f825f0151116123c8575f612464565b7f000000000000000000000000000000000000000000000000000000000000000073ffffffffffffffffffffffffffffffffffffffff166307a2d13a835f01516040518263ffffffff1660e01b81526004016124249190613257565b602060405180830381865afa15801561243f573d5f5f3e3d5ffd5b505050506040513d601f19601f8201168201806040525081019061246391906136b8565b5b90505f5f836020015111612478575f612515565b7f000000000000000000000000000000000000000000000000000000000000000073ffffffffffffffffffffffffffffffffffffffff166307a2d13a84602001516040518263ffffffff1660e01b81526004016124d59190613257565b602060405180830381865afa1580156124f0573d5f5f3e3d5ffd5b505050506040513d601f19601f8201168201806040525081019061251491906136b8565b5b90505f5f846040015111612529575f6125c6565b7f000000000000000000000000000000000000000000000000000000000000000073ffffffffffffffffffffffffffffffffffffffff166307a2d13a85604001516040518263ffffffff1660e01b81526004016125869190613257565b602060405180830381865afa1580156125a1573d5f5f3e3d5ffd5b505050506040513d601f19601f820116820180604052508101906125c591906136b8565b5b90508082846125d59190613716565b6125df9190613716565b945050505050919050565b5f5f5f6125f5612d34565b5f840361262e576040517f1f2a200500000000000000000000000000000000000000000000000000000000815260040160405180910390fd5b7f000000000000000000000000000000000000000000000000000000000000000073ffffffffffffffffffffffffffffffffffffffff1663a787c80b336040518263ffffffff1660e01b81526004016126879190613552565b602060405180830381865afa1580156126a2573d5f5f3e3d5ffd5b505050506040513d601f19601f820116820180604052508101906126c691906137e5565b6126fc576040517f6f86092700000000000000000000000000000000000000000000000000000000815260040160405180910390fd5b5f7f000000000000000000000000000000000000000000000000000000000000000073ffffffffffffffffffffffffffffffffffffffff1663baf1e57f336040518263ffffffff1660e01b81526004016127569190613552565b606060405180830381865afa158015612771573d5f5f3e3d5ffd5b505050506040513d601f19601f820116820180604052508101906127959190613933565b90505f6064825f015160ff16876127ac91906135d1565b6127b6919061363f565b90505f6064836020015160ff16886127ce91906135d1565b6127d8919061363f565b90505f8183896127e891906136e3565b6127f291906136e3565b905061284133308a7f000000000000000000000000000000000000000000000000000000000000000073ffffffffffffffffffffffffffffffffffffffff16612fbd909392919063ffffffff16565b5f831115612952576128b47f0000000000000000000000000000000000000000000000000000000000000000847f000000000000000000000000000000000000000000000000000000000000000073ffffffffffffffffffffffffffffffffffffffff16612f0b9092919063ffffffff16565b7f000000000000000000000000000000000000000000000000000000000000000073ffffffffffffffffffffffffffffffffffffffff16636e553f6584306040518363ffffffff1660e01b815260040161290f92919061395e565b6020604051808303815f875af115801561292b573d5f5f3e3d5ffd5b505050506040513d601f19601f8201168201806040525081019061294f91906136b8565b96505b5f821115612a63576129c57f0000000000000000000000000000000000000000000000000000000000000000837f000000000000000000000000000000000000000000000000000000000000000073ffffffffffffffffffffffffffffffffffffffff16612f0b9092919063ffffffff16565b7f000000000000000000000000000000000000000000000000000000000000000073ffffffffffffffffffffffffffffffffffffffff16636e553f6583306040518363ffffffff1660e01b8152600401612a2092919061395e565b6020604051808303815f875af1158015612a3c573d5f5f3e3d5ffd5b505050506040513d601f19601f82011682018060405250810190612a6091906136b8565b95505b5f811115612b7457612ad67f0000000000000000000000000000000000000000000000000000000000000000827f000000000000000000000000000000000000000000000000000000000000000073ffffffffffffffffffffffffffffffffffffffff16612f0b9092919063ffffffff16565b7f000000000000000000000000000000000000000000000000000000000000000073ffffffffffffffffffffffffffffffffffffffff16636e553f6582306040518363ffffffff1660e01b8152600401612b3192919061395e565b6020604051808303815f875af1158015612b4d573d5f5f3e3d5ffd5b505050506040513d601f19601f82011682018060405250810190612b7191906136b8565b94505b5f60015f3373ffffffffffffffffffffffffffffffffffffffff1673ffffffffffffffffffffffffffffffffffffffff1681526020019081526020015f20905087815f015f828254612bc69190613716565b9250508190555086816001015f828254612be09190613716565b9250508190555085816002015f828254612bfa9190613716565b9250508190555088816003015f828254612c149190613716565b925050819055504281600401819055503373ffffffffffffffffffffffffffffffffffffffff167fe3b53cd1a44fbf11535e145d80b8ef1ed6d57a73bf5daa7e939b6b01657d65498a8a8a8a604051612c70949392919061350f565b60405180910390a25050505050612c85612da9565b9193909250565b7f000000000000000000000000000000000000000000000000000000000000000081565b612cb8612dc3565b5f73ffffffffffffffffffffffffffffffffffffffff168173ffffffffffffffffffffffffffffffffffffffff1603612d28575f6040517f1e4fbdf7000000000000000000000000000000000000000000000000000000008152600401612d1f9190613552565b60405180910390fd5b612d3181612e4a565b50565b612d3c613012565b6002612d4e612d49613053565b61307c565b5f0181905550565b612d638383836001613085565b612da457826040517f5274afe7000000000000000000000000000000000000000000000000000000008152600401612d9b9190613552565b60405180910390fd5b505050565b6001612dbb612db6613053565b61307c565b5f0181905550565b612dcb6130e7565b73ffffffffffffffffffffffffffffffffffffffff16612de9612230565b73ffffffffffffffffffffffffffffffffffffffff1614612e4857612e0c6130e7565b6040517f118cdaa7000000000000000000000000000000000000000000000000000000008152600401612e3f9190613552565b60405180910390fd5b565b5f5f5f9054906101000a900473ffffffffffffffffffffffffffffffffffffffff169050815f5f6101000a81548173ffffffffffffffffffffffffffffffffffffffff021916908373ffffffffffffffffffffffffffffffffffffffff1602179055508173ffffffffffffffffffffffffffffffffffffffff168173ffffffffffffffffffffffffffffffffffffffff167f8be0079c531659141344cd1fd0a4f28419497f9722a3daafe3b4186f6b6457e060405160405180910390a35050565b612f178383835f6130ee565b612fb857612f2883835f60016130ee565b612f6957826040517f5274afe7000000000000000000000000000000000000000000000000000000008152600401612f609190613552565b60405180910390fd5b612f7683838360016130ee565b612fb757826040517f5274afe7000000000000000000000000000000000000000000000000000000008152600401612fae9190613552565b60405180910390fd5b5b505050565b612fcb848484846001613150565b61300c57836040517f5274afe70000000000000000000000000000000000000000000000000000000081526004016130039190613552565b60405180910390fd5b50505050565b61301a6131c1565b15613051576040517f3ee5aeb500000000000000000000000000000000000000000000000000000000815260040160405180910390fd5b565b5f7f9b779b17422d0df92223018b32b4d1fa46e071723d6817e2486d003becc55f005f1b905090565b5f819050919050565b5f5f63a9059cbb60e01b9050604051815f525f1960601c86166004528460245260205f60445f5f8b5af1925060015f511483166130d95783831516156130cd573d5f823e3d81fd5b5f873b113d1516831692505b806040525050949350505050565b5f33905090565b5f5f63095ea7b360e01b9050604051815f525f1960601c86166004528460245260205f60445f5f8b5af1925060015f51148316613142578383151615613136573d5f823e3d81fd5b5f873b113d1516831692505b806040525050949350505050565b5f5f6323b872dd60e01b9050604051815f525f1960601c87166004525f1960601c86166024528460445260205f60645f5f8c5af1925060015f511483166131ae5783831516156131a2573d5f823e3d81fd5b5f883b113d1516831692505b806040525f606052505095945050505050565b5f60026131d46131cf613053565b61307c565b5f015414905090565b5f604051905090565b5f5ffd5b5f819050919050565b6131fc816131ea565b8114613206575f5ffd5b50565b5f81359050613217816131f3565b92915050565b5f60208284031215613232576132316131e6565b5b5f61323f84828501613209565b91505092915050565b613251816131ea565b82525050565b5f60208201905061326a5f830184613248565b92915050565b5f73ffffffffffffffffffffffffffffffffffffffff82169050919050565b5f819050919050565b5f6132b26132ad6132a884613270565b61328f565b613270565b9050919050565b5f6132c382613298565b9050919050565b5f6132d4826132b9565b9050919050565b6132e4816132ca565b82525050565b5f6020820190506132fd5f8301846132db565b92915050565b5f61330d82613270565b9050919050565b61331d81613303565b82525050565b5f6060820190506133365f830186613314565b6133436020830185613314565b6133506040830184613314565b949350505050565b5f60608201905061336b5f830186613248565b6133786020830185613248565b6133856040830184613248565b949350505050565b61339681613303565b81146133a0575f5ffd5b50565b5f813590506133b18161338d565b92915050565b5f602082840312156133cc576133cb6131e6565b5b5f6133d9848285016133a3565b91505092915050565b5f819050919050565b6133f4816133e2565b82525050565b5f6101208201905061340e5f83018c613248565b61341b602083018b613248565b613428604083018a613248565b6134356060830189613248565b6134426080830188613248565b61344f60a0830187613248565b61345c60c0830186613248565b61346960e0830185613248565b6134776101008301846133eb565b9a9950505050505050505050565b5f60a0820190506134985f830188613248565b6134a56020830187613248565b6134b26040830186613248565b6134bf6060830185613248565b6134cc6080830184613248565b9695505050505050565b5f6134e0826132b9565b9050919050565b6134f0816134d6565b82525050565b5f6020820190506135095f8301846134e7565b92915050565b5f6080820190506135225f830187613248565b61352f6020830186613248565b61353c6040830185613248565b6135496060830184613248565b95945050505050565b5f6020820190506135655f830184613314565b92915050565b5f613575826132b9565b9050919050565b6135858161356b565b82525050565b5f60208201905061359e5f83018461357c565b92915050565b7f4e487b71000000000000000000000000000000000000000000000000000000005f52601160045260245ffd5b5f6135db826131ea565b91506135e6836131ea565b92508282026135f4816131ea565b9150828204841483151761360b5761360a6135a4565b5b5092915050565b7f4e487b71000000000000000000000000000000000000000000000000000000005f52601260045260245ffd5b5f613649826131ea565b9150613654836131ea565b92508261366457613663613612565b5b828204905092915050565b5f6060820190506136825f830186613248565b61368f6020830185613314565b61369c6040830184613314565b949350505050565b5f815190506136b2816131f3565b92915050565b5f602082840312156136cd576136cc6131e6565b5b5f6136da848285016136a4565b91505092915050565b5f6136ed826131ea565b91506136f8836131ea565b92508282039050818111156137105761370f6135a4565b5b92915050565b5f613720826131ea565b915061372b836131ea565b9250828201905080821115613743576137426135a4565b5b92915050565b5f60408201905061375c5f830185613248565b6137696020830184613248565b9392505050565b5f61377a826133e2565b9150613785836133e2565b925082820390508181125f8412168282135f8512151617156137aa576137a96135a4565b5b92915050565b5f8115159050919050565b6137c4816137b0565b81146137ce575f5ffd5b50565b5f815190506137df816137bb565b92915050565b5f602082840312156137fa576137f96131e6565b5b5f613807848285016137d1565b91505092915050565b5f5ffd5b5f601f19601f8301169050919050565b7f4e487b71000000000000000000000000000000000000000000000000000000005f52604160045260245ffd5b61385a82613814565b810181811067ffffffffffffffff8211171561387957613878613824565b5b80604052505050565b5f61388b6131dd565b90506138978282613851565b919050565b5f60ff82169050919050565b6138b18161389c565b81146138bb575f5ffd5b50565b5f815190506138cc816138a8565b92915050565b5f606082840312156138e7576138e6613810565b5b6138f16060613882565b90505f613900848285016138be565b5f830152506020613913848285016138be565b6020830152506040613927848285016138be565b60408301525092915050565b5f60608284031215613948576139476131e6565b5b5f613955848285016138d2565b91505092915050565b5f6040820190506139715f830185613248565b61397e6020830184613314565b939250505056fea2646970667358221220bff8290564dfea5f2d652f12b97b564b847cc5be39a579f77d727d1b70bd642664736f6c634300081e0033",
					"opcodes": "PUSH2 0x120 PUSH1 0x40 MSTORE CALLVALUE DUP1 ISZERO PUSH2 0x10 JUMPI PUSH0 PUSH0 REVERT JUMPDEST POP PUSH1 0x40 MLOAD PUSH2 0x408D CODESIZE SUB DUP1 PUSH2 0x408D DUP4 CODECOPY DUP2 DUP2 ADD PUSH1 0x40 MSTORE DUP2 ADD SWAP1 PUSH2 0x32 SWAP2 SWAP1 PUSH2 0x475 JUMP JUMPDEST CALLER PUSH0 PUSH20 0xFFFFFFFFFFFFFFFFFFFFFFFFFFFFFFFFFFFFFFFF AND DUP2 PUSH20 0xFFFFFFFFFFFFFFFFFFFFFFFFFFFFFFFFFFFFFFFF AND SUB PUSH2 0xA3 JUMPI PUSH0 PUSH1 0x40 MLOAD PUSH32 0x1E4FBDF700000000000000000000000000000000000000000000000000000000 DUP2 MSTORE PUSH1 0x4 ADD PUSH2 0x9A SWAP2 SWAP1 PUSH2 0x4FB JUMP JUMPDEST PUSH1 0x40 MLOAD DUP1 SWAP2 SUB SWAP1 REVERT JUMPDEST PUSH2 0xB2 DUP2 PUSH2 0x324 PUSH1 0x20 SHL PUSH1 0x20 SHR JUMP JUMPDEST POP PUSH1 0x1 PUSH2 0xD1 PUSH2 0xC6 PUSH2 0x3E5 PUSH1 0x20 SHL PUSH1 0x20 SHR JUMP JUMPDEST PUSH2 0x40E PUSH1 0x20 SHL PUSH1 0x20 SHR JUMP JUMPDEST PUSH0 ADD DUP2 SWAP1 SSTORE POP PUSH0 PUSH20 0xFFFFFFFFFFFFFFFFFFFFFFFFFFFFFFFFFFFFFFFF AND DUP6 PUSH20 0xFFFFFFFFFFFFFFFFFFFFFFFFFFFFFFFFFFFFFFFF AND EQ DUP1 PUSH2 0x13C JUMPI POP PUSH0 PUSH20 0xFFFFFFFFFFFFFFFFFFFFFFFFFFFFFFFFFFFFFFFF AND DUP5 PUSH20 0xFFFFFFFFFFFFFFFFFFFFFFFFFFFFFFFFFFFFFFFF AND EQ JUMPDEST DUP1 PUSH2 0x172 JUMPI POP PUSH0 PUSH20 0xFFFFFFFFFFFFFFFFFFFFFFFFFFFFFFFFFFFFFFFF AND DUP4 PUSH20 0xFFFFFFFFFFFFFFFFFFFFFFFFFFFFFFFFFFFFFFFF AND EQ JUMPDEST DUP1 PUSH2 0x1A8 JUMPI POP PUSH0 PUSH20 0xFFFFFFFFFFFFFFFFFFFFFFFFFFFFFFFFFFFFFFFF AND DUP3 PUSH20 0xFFFFFFFFFFFFFFFFFFFFFFFFFFFFFFFFFFFFFFFF AND EQ JUMPDEST DUP1 PUSH2 0x1DE JUMPI POP PUSH0 PUSH20 0xFFFFFFFFFFFFFFFFFFFFFFFFFFFFFFFFFFFFFFFF AND DUP2 PUSH20 0xFFFFFFFFFFFFFFFFFFFFFFFFFFFFFFFFFFFFFFFF AND EQ JUMPDEST ISZERO PUSH2 0x215 JUMPI PUSH1 0x40 MLOAD PUSH32 0xE6C4247B00000000000000000000000000000000000000000000000000000000 DUP2 MSTORE PUSH1 0x4 ADD PUSH1 0x40 MLOAD DUP1 SWAP2 SUB SWAP1 REVERT JUMPDEST DUP5 PUSH20 0xFFFFFFFFFFFFFFFFFFFFFFFFFFFFFFFFFFFFFFFF AND PUSH1 0x80 DUP2 PUSH20 0xFFFFFFFFFFFFFFFFFFFFFFFFFFFFFFFFFFFFFFFF AND DUP2 MSTORE POP POP DUP4 PUSH20 0xFFFFFFFFFFFFFFFFFFFFFFFFFFFFFFFFFFFFFFFF AND PUSH1 0xA0 DUP2 PUSH20 0xFFFFFFFFFFFFFFFFFFFFFFFFFFFFFFFFFFFFFFFF AND DUP2 MSTORE POP POP DUP3 PUSH20 0xFFFFFFFFFFFFFFFFFFFFFFFFFFFFFFFFFFFFFFFF AND PUSH1 0xC0 DUP2 PUSH20 0xFFFFFFFFFFFFFFFFFFFFFFFFFFFFFFFFFFFFFFFF AND DUP2 MSTORE POP POP DUP2 PUSH20 0xFFFFFFFFFFFFFFFFFFFFFFFFFFFFFFFFFFFFFFFF AND PUSH1 0xE0 DUP2 PUSH20 0xFFFFFFFFFFFFFFFFFFFFFFFFFFFFFFFFFFFFFFFF AND DUP2 MSTORE POP POP DUP1 PUSH20 0xFFFFFFFFFFFFFFFFFFFFFFFFFFFFFFFFFFFFFFFF AND PUSH2 0x100 DUP2 PUSH20 0xFFFFFFFFFFFFFFFFFFFFFFFFFFFFFFFFFFFFFFFF AND DUP2 MSTORE POP POP POP POP POP POP POP PUSH2 0x514 JUMP JUMPDEST PUSH0 PUSH0 PUSH0 SWAP1 SLOAD SWAP1 PUSH2 0x100 EXP SWAP1 DIV PUSH20 0xFFFFFFFFFFFFFFFFFFFFFFFFFFFFFFFFFFFFFFFF AND SWAP1 POP DUP2 PUSH0 PUSH0 PUSH2 0x100 EXP DUP2 SLOAD DUP2 PUSH20 0xFFFFFFFFFFFFFFFFFFFFFFFFFFFFFFFFFFFFFFFF MUL NOT AND SWAP1 DUP4 PUSH20 0xFFFFFFFFFFFFFFFFFFFFFFFFFFFFFFFFFFFFFFFF AND MUL OR SWAP1 SSTORE POP DUP2 PUSH20 0xFFFFFFFFFFFFFFFFFFFFFFFFFFFFFFFFFFFFFFFF AND DUP2 PUSH20 0xFFFFFFFFFFFFFFFFFFFFFFFFFFFFFFFFFFFFFFFF AND PUSH32 0x8BE0079C531659141344CD1FD0A4F28419497F9722A3DAAFE3B4186F6B6457E0 PUSH1 0x40 MLOAD PUSH1 0x40 MLOAD DUP1 SWAP2 SUB SWAP1 LOG3 POP POP JUMP JUMPDEST PUSH0 PUSH32 0x9B779B17422D0DF92223018B32B4D1FA46E071723D6817E2486D003BECC55F00 PUSH0 SHL SWAP1 POP SWAP1 JUMP JUMPDEST PUSH0 DUP2 SWAP1 POP SWAP2 SWAP1 POP JUMP JUMPDEST PUSH0 PUSH0 REVERT JUMPDEST PUSH0 PUSH20 0xFFFFFFFFFFFFFFFFFFFFFFFFFFFFFFFFFFFFFFFF DUP3 AND SWAP1 POP SWAP2 SWAP1 POP JUMP JUMPDEST PUSH0 PUSH2 0x444 DUP3 PUSH2 0x41B JUMP JUMPDEST SWAP1 POP SWAP2 SWAP1 POP JUMP JUMPDEST PUSH2 0x454 DUP2 PUSH2 0x43A JUMP JUMPDEST DUP2 EQ PUSH2 0x45E JUMPI PUSH0 PUSH0 REVERT JUMPDEST POP JUMP JUMPDEST PUSH0 DUP2 MLOAD SWAP1 POP PUSH2 0x46F DUP2 PUSH2 0x44B JUMP JUMPDEST SWAP3 SWAP2 POP POP JUMP JUMPDEST PUSH0 PUSH0 PUSH0 PUSH0 PUSH0 PUSH1 0xA0 DUP7 DUP9 SUB SLT ISZERO PUSH2 0x48E JUMPI PUSH2 0x48D PUSH2 0x417 JUMP JUMPDEST JUMPDEST PUSH0 PUSH2 0x49B DUP9 DUP3 DUP10 ADD PUSH2 0x461 JUMP JUMPDEST SWAP6 POP POP PUSH1 0x20 PUSH2 0x4AC DUP9 DUP3 DUP10 ADD PUSH2 0x461 JUMP JUMPDEST SWAP5 POP POP PUSH1 0x40 PUSH2 0x4BD DUP9 DUP3 DUP10 ADD PUSH2 0x461 JUMP JUMPDEST SWAP4 POP POP PUSH1 0x60 PUSH2 0x4CE DUP9 DUP3 DUP10 ADD PUSH2 0x461 JUMP JUMPDEST SWAP3 POP POP PUSH1 0x80 PUSH2 0x4DF DUP9 DUP3 DUP10 ADD PUSH2 0x461 JUMP JUMPDEST SWAP2 POP POP SWAP3 SWAP6 POP SWAP3 SWAP6 SWAP1 SWAP4 POP JUMP JUMPDEST PUSH2 0x4F5 DUP2 PUSH2 0x43A JUMP JUMPDEST DUP3 MSTORE POP POP JUMP JUMPDEST PUSH0 PUSH1 0x20 DUP3 ADD SWAP1 POP PUSH2 0x50E PUSH0 DUP4 ADD DUP5 PUSH2 0x4EC JUMP JUMPDEST SWAP3 SWAP2 POP POP JUMP JUMPDEST PUSH1 0x80 MLOAD PUSH1 0xA0 MLOAD PUSH1 0xC0 MLOAD PUSH1 0xE0 MLOAD PUSH2 0x100 MLOAD PUSH2 0x39BB PUSH2 0x6D2 PUSH0 CODECOPY PUSH0 DUP2 DUP2 PUSH2 0x6D3 ADD MSTORE DUP2 DUP2 PUSH2 0x887 ADD MSTORE DUP2 DUP2 PUSH2 0x8F0 ADD MSTORE DUP2 DUP2 PUSH2 0xA39 ADD MSTORE DUP2 DUP2 PUSH2 0xCD9 ADD MSTORE DUP2 DUP2 PUSH2 0xF3F ADD MSTORE DUP2 DUP2 PUSH2 0x1355 ADD MSTORE DUP2 DUP2 PUSH2 0x1744 ADD MSTORE DUP2 DUP2 PUSH2 0x17AC ADD MSTORE DUP2 DUP2 PUSH2 0x1AF9 ADD MSTORE DUP2 DUP2 PUSH2 0x1D45 ADD MSTORE DUP2 DUP2 PUSH2 0x205A ADD MSTORE DUP2 DUP2 PUSH2 0x252B ADD MSTORE DUP2 DUP2 PUSH2 0x2A70 ADD MSTORE PUSH2 0x2AD8 ADD MSTORE PUSH0 DUP2 DUP2 PUSH2 0x611 ADD MSTORE DUP2 DUP2 PUSH2 0x8CF ADD MSTORE DUP2 DUP2 PUSH2 0x9AC ADD MSTORE DUP2 DUP2 PUSH2 0xC29 ADD MSTORE DUP2 DUP2 PUSH2 0xEB0 ADD MSTORE DUP2 DUP2 PUSH2 0x12A5 ADD MSTORE DUP2 DUP2 PUSH2 0x1633 ADD MSTORE DUP2 DUP2 PUSH2 0x169B ADD MSTORE DUP2 DUP2 PUSH2 0x1A48 ADD MSTORE DUP2 DUP2 PUSH2 0x1C8C ADD MSTORE DUP2 DUP2 PUSH2 0x1FAA ADD MSTORE DUP2 DUP2 PUSH2 0x2318 ADD MSTORE DUP2 DUP2 PUSH2 0x247A ADD MSTORE DUP2 DUP2 PUSH2 0x295F ADD MSTORE PUSH2 0x29C7 ADD MSTORE PUSH0 DUP2 DUP2 PUSH2 0x550 ADD MSTORE DUP2 DUP2 PUSH2 0x8AE ADD MSTORE DUP2 DUP2 PUSH2 0x91F ADD MSTORE DUP2 DUP2 PUSH2 0xB7A ADD MSTORE DUP2 DUP2 PUSH2 0xE21 ADD MSTORE DUP2 DUP2 PUSH2 0x11F6 ADD MSTORE DUP2 DUP2 PUSH2 0x1522 ADD MSTORE DUP2 DUP2 PUSH2 0x158A ADD MSTORE DUP2 DUP2 PUSH2 0x1998 ADD MSTORE DUP2 DUP2 PUSH2 0x1BD3 ADD MSTORE DUP2 DUP2 PUSH2 0x1EFB ADD MSTORE DUP2 DUP2 PUSH2 0x2259 ADD MSTORE DUP2 DUP2 PUSH2 0x23CA ADD MSTORE DUP2 DUP2 PUSH2 0x284E ADD MSTORE PUSH2 0x28B6 ADD MSTORE PUSH0 DUP2 DUP2 PUSH2 0xDE6 ADD MSTORE DUP2 DUP2 PUSH2 0xFF5 ADD MSTORE DUP2 DUP2 PUSH2 0x1414 ADD MSTORE DUP2 DUP2 PUSH2 0x2630 ADD MSTORE PUSH2 0x26FF ADD MSTORE PUSH0 DUP2 DUP2 PUSH2 0x7DD ADD MSTORE DUP2 DUP2 PUSH2 0x1544 ADD MSTORE DUP2 DUP2 PUSH2 0x1655 ADD MSTORE DUP2 DUP2 PUSH2 0x1766 ADD MSTORE DUP2 DUP2 PUSH2 0x217E ADD MSTORE DUP2 DUP2 PUSH2 0x27FC ADD MSTORE DUP2 DUP2 PUSH2 0x2870 ADD MSTORE DUP2 DUP2 PUSH2 0x2981 ADD MSTORE DUP2 DUP2 PUSH2 0x2A92 ADD MSTORE PUSH2 0x2C8E ADD MSTORE PUSH2 0x39BB PUSH0 RETURN INVALID PUSH1 0x80 PUSH1 0x40 MSTORE CALLVALUE DUP1 ISZERO PUSH2 0xF JUMPI PUSH0 PUSH0 REVERT JUMPDEST POP PUSH1 0x4 CALLDATASIZE LT PUSH2 0x12A JUMPI PUSH0 CALLDATALOAD PUSH1 0xE0 SHR DUP1 PUSH4 0x7EBB8971 GT PUSH2 0xAB JUMPI DUP1 PUSH4 0x9E79F7E7 GT PUSH2 0x6F JUMPI DUP1 PUSH4 0x9E79F7E7 EQ PUSH2 0x337 JUMPI DUP1 PUSH4 0xAF3F5E22 EQ PUSH2 0x355 JUMPI DUP1 PUSH4 0xB6B55F25 EQ PUSH2 0x385 JUMPI DUP1 PUSH4 0xC89039C5 EQ PUSH2 0x3B7 JUMPI DUP1 PUSH4 0xF2FDE38B EQ PUSH2 0x3D5 JUMPI PUSH2 0x12A JUMP JUMPDEST DUP1 PUSH4 0x7EBB8971 EQ PUSH2 0x27B JUMPI DUP1 PUSH4 0x853828B6 EQ PUSH2 0x2AB JUMPI DUP1 PUSH4 0x8DA5CB5B EQ PUSH2 0x2C9 JUMPI DUP1 PUSH4 0x8FEBD76E EQ PUSH2 0x2E7 JUMPI DUP1 PUSH4 0x996220EB EQ PUSH2 0x305 JUMPI PUSH2 0x12A JUMP JUMPDEST DUP1 PUSH4 0x613CF420 GT PUSH2 0xF2 JUMPI DUP1 PUSH4 0x613CF420 EQ PUSH2 0x1F4 JUMPI DUP1 PUSH4 0x66C0757E EQ PUSH2 0x228 JUMPI DUP1 PUSH4 0x715018A6 EQ PUSH2 0x246 JUMPI DUP1 PUSH4 0x771ACEEF EQ PUSH2 0x250 JUMPI DUP1 PUSH4 0x7D7C2A1C EQ PUSH2 0x271 JUMPI PUSH2 0x12A JUMP JUMPDEST DUP1 PUSH4 0x1211540C EQ PUSH2 0x12E JUMPI DUP1 PUSH4 0x2CA8AB4C EQ PUSH2 0x15E JUMPI DUP1 PUSH4 0x44D00F82 EQ PUSH2 0x17C JUMPI DUP1 PUSH4 0x59B9A642 EQ PUSH2 0x19C JUMPI DUP1 PUSH4 0x5B7C2DAD EQ PUSH2 0x1BC JUMPI JUMPDEST PUSH0 PUSH0 REVERT JUMPDEST PUSH2 0x148 PUSH1 0x4 DUP1 CALLDATASIZE SUB DUP2 ADD SWAP1 PUSH2 0x143 SWAP2 SWAP1 PUSH2 0x321D JUMP JUMPDEST PUSH2 0x3F1 JUMP JUMPDEST PUSH1 0x40 MLOAD PUSH2 0x155 SWAP2 SWAP1 PUSH2 0x3257 JUMP JUMPDEST PUSH1 0x40 MLOAD DUP1 SWAP2 SUB SWAP1 RETURN JUMPDEST PUSH2 0x166 PUSH2 0x885 JUMP JUMPDEST PUSH1 0x40 MLOAD PUSH2 0x173 SWAP2 SWAP1 PUSH2 0x32EA JUMP JUMPDEST PUSH1 0x40 MLOAD DUP1 SWAP2 SUB SWAP1 RETURN JUMPDEST PUSH2 0x184 PUSH2 0x8A9 JUMP JUMPDEST PUSH1 0x40 MLOAD PUSH2 0x193 SWAP4 SWAP3 SWAP2 SWAP1 PUSH2 0x3323 JUMP JUMPDEST PUSH1 0x40 MLOAD DUP1 SWAP2 SUB SWAP1 RETURN JUMPDEST PUSH2 0x1A4 PUSH2 0x91A JUMP JUMPDEST PUSH1 0x40 MLOAD PUSH2 0x1B3 SWAP4 SWAP3 SWAP2 SWAP1 PUSH2 0x3358 JUMP JUMPDEST PUSH1 0x40 MLOAD DUP1 SWAP2 SUB SWAP1 RETURN JUMPDEST PUSH2 0x1D6 PUSH1 0x4 DUP1 CALLDATASIZE SUB DUP2 ADD SWAP1 PUSH2 0x1D1 SWAP2 SWAP1 PUSH2 0x33B7 JUMP JUMPDEST PUSH2 0xACF JUMP JUMPDEST PUSH1 0x40 MLOAD PUSH2 0x1EB SWAP10 SWAP9 SWAP8 SWAP7 SWAP6 SWAP5 SWAP4 SWAP3 SWAP2 SWAP1 PUSH2 0x33FA JUMP JUMPDEST PUSH1 0x40 MLOAD DUP1 SWAP2 SUB SWAP1 RETURN JUMPDEST PUSH2 0x20E PUSH1 0x4 DUP1 CALLDATASIZE SUB DUP2 ADD SWAP1 PUSH2 0x209 SWAP2 SWAP1 PUSH2 0x33B7 JUMP JUMPDEST PUSH2 0xDB2 JUMP JUMPDEST PUSH1 0x40 MLOAD PUSH2 0x21F SWAP6 SWAP5 SWAP4 SWAP3 SWAP2 SWAP1 PUSH2 0x3485 JUMP JUMPDEST PUSH1 0x40 MLOAD DUP1 SWAP2 SUB SWAP1 RETURN JUMPDEST PUSH2 0x230 PUSH2 0xDE4 JUMP JUMPDEST PUSH1 0x40 MLOAD PUSH2 0x23D SWAP2 SWAP1 PUSH2 0x34F6 JUMP JUMPDEST PUSH1 0x40 MLOAD DUP1 SWAP2 SUB SWAP1 RETURN JUMPDEST PUSH2 0x24E PUSH2 0xE08 JUMP JUMPDEST STOP JUMPDEST PUSH2 0x258 PUSH2 0xE1B JUMP JUMPDEST PUSH1 0x40 MLOAD PUSH2 0x268 SWAP5 SWAP4 SWAP3 SWAP2 SWAP1 PUSH2 0x350F JUMP JUMPDEST PUSH1 0x40 MLOAD DUP1 SWAP2 SUB SWAP1 RETURN JUMPDEST PUSH2 0x279 PUSH2 0xFEB JUMP JUMPDEST STOP JUMPDEST PUSH2 0x295 PUSH1 0x4 DUP1 CALLDATASIZE SUB DUP2 ADD SWAP1 PUSH2 0x290 SWAP2 SWAP1 PUSH2 0x33B7 JUMP JUMPDEST PUSH2 0x1908 JUMP JUMPDEST PUSH1 0x40 MLOAD PUSH2 0x2A2 SWAP2 SWAP1 PUSH2 0x3257 JUMP JUMPDEST PUSH1 0x40 MLOAD DUP1 SWAP2 SUB SWAP1 RETURN JUMPDEST PUSH2 0x2B3 PUSH2 0x1E02 JUMP JUMPDEST PUSH1 0x40 MLOAD PUSH2 0x2C0 SWAP2 SWAP1 PUSH2 0x3257 JUMP JUMPDEST PUSH1 0x40 MLOAD DUP1 SWAP2 SUB SWAP1 RETURN JUMPDEST PUSH2 0x2D1 PUSH2 0x2230 JUMP JUMPDEST PUSH1 0x40 MLOAD PUSH2 0x2DE SWAP2 SWAP1 PUSH2 0x3552 JUMP JUMPDEST PUSH1 0x40 MLOAD DUP1 SWAP2 SUB SWAP1 RETURN JUMPDEST PUSH2 0x2EF PUSH2 0x2257 JUMP JUMPDEST PUSH1 0x40 MLOAD PUSH2 0x2FC SWAP2 SWAP1 PUSH2 0x32EA JUMP JUMPDEST PUSH1 0x40 MLOAD DUP1 SWAP2 SUB SWAP1 RETURN JUMPDEST PUSH2 0x31F PUSH1 0x4 DUP1 CALLDATASIZE SUB DUP2 ADD SWAP1 PUSH2 0x31A SWAP2 SWAP1 PUSH2 0x33B7 JUMP JUMPDEST PUSH2 0x227B JUMP JUMPDEST PUSH1 0x40 MLOAD PUSH2 0x32E SWAP4 SWAP3 SWAP2 SWAP1 PUSH2 0x3358 JUMP JUMPDEST PUSH1 0x40 MLOAD DUP1 SWAP2 SUB SWAP1 RETURN JUMPDEST PUSH2 0x33F PUSH2 0x2316 JUMP JUMPDEST PUSH1 0x40 MLOAD PUSH2 0x34C SWAP2 SWAP1 PUSH2 0x32EA JUMP JUMPDEST PUSH1 0x40 MLOAD DUP1 SWAP2 SUB SWAP1 RETURN JUMPDEST PUSH2 0x36F PUSH1 0x4 DUP1 CALLDATASIZE SUB DUP2 ADD SWAP1 PUSH2 0x36A SWAP2 SWAP1 PUSH2 0x33B7 JUMP JUMPDEST PUSH2 0x233A JUMP JUMPDEST PUSH1 0x40 MLOAD PUSH2 0x37C SWAP2 SWAP1 PUSH2 0x3257 JUMP JUMPDEST PUSH1 0x40 MLOAD DUP1 SWAP2 SUB SWAP1 RETURN JUMPDEST PUSH2 0x39F PUSH1 0x4 DUP1 CALLDATASIZE SUB DUP2 ADD SWAP1 PUSH2 0x39A SWAP2 SWAP1 PUSH2 0x321D JUMP JUMPDEST PUSH2 0x25EA JUMP JUMPDEST PUSH1 0x40 MLOAD PUSH2 0x3AE SWAP4 SWAP3 SWAP2 SWAP1 PUSH2 0x3358 JUMP JUMPDEST PUSH1 0x40 MLOAD DUP1 SWAP2 SUB SWAP1 RETURN JUMPDEST PUSH2 0x3BF PUSH2 0x2C8C JUMP JUMPDEST PUSH1 0x40 MLOAD PUSH2 0x3CC SWAP2 SWAP1 PUSH2 0x358B JUMP JUMPDEST PUSH1 0x40 MLOAD DUP1 SWAP2 SUB SWAP1 RETURN JUMPDEST PUSH2 0x3EF PUSH1 0x4 DUP1 CALLDATASIZE SUB DUP2 ADD SWAP1 PUSH2 0x3EA SWAP2 SWAP1 PUSH2 0x33B7 JUMP JUMPDEST PUSH2 0x2CB0 JUMP JUMPDEST STOP JUMPDEST PUSH0 PUSH2 0x3FA PUSH2 0x2D34 JUMP JUMPDEST PUSH0 DUP3 EQ DUP1 PUSH2 0x409 JUMPI POP PUSH2 0x2710 DUP3 GT JUMPDEST ISZERO PUSH2 0x440 JUMPI PUSH1 0x40 MLOAD PUSH32 0x1F3B85D300000000000000000000000000000000000000000000000000000000 DUP2 MSTORE PUSH1 0x4 ADD PUSH1 0x40 MLOAD DUP1 SWAP2 SUB SWAP1 REVERT JUMPDEST PUSH0 PUSH1 0x1 PUSH0 CALLER PUSH20 0xFFFFFFFFFFFFFFFFFFFFFFFFFFFFFFFFFFFFFFFF AND PUSH20 0xFFFFFFFFFFFFFFFFFFFFFFFFFFFFFFFFFFFFFFFF AND DUP2 MSTORE PUSH1 0x20 ADD SWAP1 DUP2 MSTORE PUSH1 0x20 ADD PUSH0 KECCAK256 SWAP1 POP PUSH0 DUP2 PUSH0 ADD SLOAD EQ DUP1 ISZERO PUSH2 0x495 JUMPI POP PUSH0 DUP2 PUSH1 0x1 ADD SLOAD EQ JUMPDEST DUP1 ISZERO PUSH2 0x4A4 JUMPI POP PUSH0 DUP2 PUSH1 0x2 ADD SLOAD EQ JUMPDEST ISZERO PUSH2 0x4DB JUMPI PUSH1 0x40 MLOAD PUSH32 0xABF0F03400000000000000000000000000000000000000000000000000000000 DUP2 MSTORE PUSH1 0x4 ADD PUSH1 0x40 MLOAD DUP1 SWAP2 SUB SWAP1 REVERT JUMPDEST PUSH0 PUSH2 0x2710 DUP5 DUP4 PUSH0 ADD SLOAD PUSH2 0x4EE SWAP2 SWAP1 PUSH2 0x35D1 JUMP JUMPDEST PUSH2 0x4F8 SWAP2 SWAP1 PUSH2 0x363F JUMP JUMPDEST SWAP1 POP PUSH0 PUSH2 0x2710 DUP6 DUP5 PUSH1 0x1 ADD SLOAD PUSH2 0x50E SWAP2 SWAP1 PUSH2 0x35D1 JUMP JUMPDEST PUSH2 0x518 SWAP2 SWAP1 PUSH2 0x363F JUMP JUMPDEST SWAP1 POP PUSH0 PUSH2 0x2710 DUP7 DUP6 PUSH1 0x2 ADD SLOAD PUSH2 0x52E SWAP2 SWAP1 PUSH2 0x35D1 JUMP JUMPDEST PUSH2 0x538 SWAP2 SWAP1 PUSH2 0x363F JUMP JUMPDEST SWAP1 POP PUSH0 PUSH0 SWAP1 POP PUSH0 PUSH0 SWAP1 POP PUSH0 PUSH0 SWAP1 POP PUSH0 DUP7 GT ISZERO PUSH2 0x607 JUMPI PUSH32 0x0 PUSH20 0xFFFFFFFFFFFFFFFFFFFFFFFFFFFFFFFFFFFFFFFF AND PUSH4 0xBA087652 DUP8 ADDRESS ADDRESS PUSH1 0x40 MLOAD DUP5 PUSH4 0xFFFFFFFF AND PUSH1 0xE0 SHL DUP2 MSTORE PUSH1 0x4 ADD PUSH2 0x5AB SWAP4 SWAP3 SWAP2 SWAP1 PUSH2 0x366F JUMP JUMPDEST PUSH1 0x20 PUSH1 0x40 MLOAD DUP1 DUP4 SUB DUP2 PUSH0 DUP8 GAS CALL ISZERO DUP1 ISZERO PUSH2 0x5C7 JUMPI RETURNDATASIZE PUSH0 PUSH0 RETURNDATACOPY RETURNDATASIZE PUSH0 REVERT JUMPDEST POP POP POP POP PUSH1 0x40 MLOAD RETURNDATASIZE PUSH1 0x1F NOT PUSH1 0x1F DUP3 ADD AND DUP3 ADD DUP1 PUSH1 0x40 MSTORE POP DUP2 ADD SWAP1 PUSH2 0x5EB SWAP2 SWAP1 PUSH2 0x36B8 JUMP JUMPDEST SWAP3 POP DUP6 DUP8 PUSH0 ADD PUSH0 DUP3 DUP3 SLOAD PUSH2 0x5FF SWAP2 SWAP1 PUSH2 0x36E3 JUMP JUMPDEST SWAP3 POP POP DUP2 SWAP1 SSTORE POP JUMPDEST PUSH0 DUP6 GT ISZERO PUSH2 0x6C9 JUMPI PUSH32 0x0 PUSH20 0xFFFFFFFFFFFFFFFFFFFFFFFFFFFFFFFFFFFFFFFF AND PUSH4 0xBA087652 DUP7 ADDRESS ADDRESS PUSH1 0x40 MLOAD DUP5 PUSH4 0xFFFFFFFF AND PUSH1 0xE0 SHL DUP2 MSTORE PUSH1 0x4 ADD PUSH2 0x66C SWAP4 SWAP3 SWAP2 SWAP1 PUSH2 0x366F JUMP JUMPDEST PUSH1 0x20 PUSH1 0x40 MLOAD DUP1 DUP4 SUB DUP2 PUSH0 DUP8 GAS CALL ISZERO DUP1 ISZERO PUSH2 0x688 JUMPI RETURNDATASIZE PUSH0 PUSH0 RETURNDATACOPY RETURNDATASIZE PUSH0 REVERT JUMPDEST POP POP POP POP PUSH1 0x40 MLOAD RETURNDATASIZE PUSH1 0x1F NOT PUSH1 0x1F DUP3 ADD AND DUP3 ADD DUP1 PUSH1 0x40 MSTORE POP DUP2 ADD SWAP1 PUSH2 0x6AC SWAP2 SWAP1 PUSH2 0x36B8 JUMP JUMPDEST SWAP2 POP DUP5 DUP8 PUSH1 0x1 ADD PUSH0 DUP3 DUP3 SLOAD PUSH2 0x6C1 SWAP2 SWAP1 PUSH2 0x36E3 JUMP JUMPDEST SWAP3 POP POP DUP2 SWAP1 SSTORE POP JUMPDEST PUSH0 DUP5 GT ISZERO PUSH2 0x78B JUMPI PUSH32 0x0 PUSH20 0xFFFFFFFFFFFFFFFFFFFFFFFFFFFFFFFFFFFFFFFF AND PUSH4 0xBA087652 DUP6 ADDRESS ADDRESS PUSH1 0x40 MLOAD DUP5 PUSH4 0xFFFFFFFF AND PUSH1 0xE0 SHL DUP2 MSTORE PUSH1 0x4 ADD PUSH2 0x72E SWAP4 SWAP3 SWAP2 SWAP1 PUSH2 0x366F JUMP JUMPDEST PUSH1 0x20 PUSH1 0x40 MLOAD DUP1 DUP4 SUB DUP2 PUSH0 DUP8 GAS CALL ISZERO DUP1 ISZERO PUSH2 0x74A JUMPI RETURNDATASIZE PUSH0 PUSH0 RETURNDATACOPY RETURNDATASIZE PUSH0 REVERT JUMPDEST POP POP POP POP PUSH1 0x40 MLOAD RETURNDATASIZE PUSH1 0x1F NOT PUSH1 0x1F DUP3 ADD AND DUP3 ADD DUP1 PUSH1 0x40 MSTORE POP DUP2 ADD SWAP1 PUSH2 0x76E SWAP2 SWAP1 PUSH2 0x36B8 JUMP JUMPDEST SWAP1 POP DUP4 DUP8 PUSH1 0x2 ADD PUSH0 DUP3 DUP3 SLOAD PUSH2 0x783 SWAP2 SWAP1 PUSH2 0x36E3 JUMP JUMPDEST SWAP3 POP POP DUP2 SWAP1 SSTORE POP JUMPDEST DUP1 DUP3 DUP5 PUSH2 0x798 SWAP2 SWAP1 PUSH2 0x3716 JUMP JUMPDEST PUSH2 0x7A2 SWAP2 SWAP1 PUSH2 0x3716 JUMP JUMPDEST SWAP8 POP PUSH2 0x2710 DUP10 PUSH2 0x2710 PUSH2 0x7B5 SWAP2 SWAP1 PUSH2 0x36E3 JUMP JUMPDEST DUP9 PUSH1 0x3 ADD SLOAD PUSH2 0x7C4 SWAP2 SWAP1 PUSH2 0x35D1 JUMP JUMPDEST PUSH2 0x7CE SWAP2 SWAP1 PUSH2 0x363F JUMP JUMPDEST DUP8 PUSH1 0x3 ADD DUP2 SWAP1 SSTORE POP PUSH2 0x821 CALLER DUP10 PUSH32 0x0 PUSH20 0xFFFFFFFFFFFFFFFFFFFFFFFFFFFFFFFFFFFFFFFF AND PUSH2 0x2D56 SWAP1 SWAP3 SWAP2 SWAP1 PUSH4 0xFFFFFFFF AND JUMP JUMPDEST CALLER PUSH20 0xFFFFFFFFFFFFFFFFFFFFFFFFFFFFFFFFFFFFFFFF AND PUSH32 0x1FB6E47F83F7C0E64DD70B2C8EA3FF82B17D0EC3B1F704BF9EA38095A6BC7D58 DUP11 DUP11 PUSH1 0x40 MLOAD PUSH2 0x869 SWAP3 SWAP2 SWAP1 PUSH2 0x3749 JUMP JUMPDEST PUSH1 0x40 MLOAD DUP1 SWAP2 SUB SWAP1 LOG2 POP POP POP POP POP POP POP PUSH2 0x880 PUSH2 0x2DA9 JUMP JUMPDEST SWAP2 SWAP1 POP JUMP JUMPDEST PUSH32 0x0 DUP2 JUMP JUMPDEST PUSH0 PUSH0 PUSH0 PUSH32 0x0 PUSH32 0x0 PUSH32 0x0 SWAP3 POP SWAP3 POP SWAP3 POP SWAP1 SWAP2 SWAP3 JUMP JUMPDEST PUSH0 PUSH0 PUSH0 PUSH32 0x0 PUSH20 0xFFFFFFFFFFFFFFFFFFFFFFFFFFFFFFFFFFFFFFFF AND PUSH4 0xF19993D7 PUSH1 0x40 MLOAD DUP2 PUSH4 0xFFFFFFFF AND PUSH1 0xE0 SHL DUP2 MSTORE PUSH1 0x4 ADD PUSH1 0x20 PUSH1 0x40 MLOAD DUP1 DUP4 SUB DUP2 DUP7 GAS STATICCALL ISZERO DUP1 ISZERO PUSH2 0x986 JUMPI RETURNDATASIZE PUSH0 PUSH0 RETURNDATACOPY RETURNDATASIZE PUSH0 REVERT JUMPDEST POP POP POP POP PUSH1 0x40 MLOAD RETURNDATASIZE PUSH1 0x1F NOT PUSH1 0x1F DUP3 ADD AND DUP3 ADD DUP1 PUSH1 0x40 MSTORE POP DUP2 ADD SWAP1 PUSH2 0x9AA SWAP2 SWAP1 PUSH2 0x36B8 JUMP JUMPDEST PUSH32 0x0 PUSH20 0xFFFFFFFFFFFFFFFFFFFFFFFFFFFFFFFFFFFFFFFF AND PUSH4 0xF19993D7 PUSH1 0x40 MLOAD DUP2 PUSH4 0xFFFFFFFF AND PUSH1 0xE0 SHL DUP2 MSTORE PUSH1 0x4 ADD PUSH1 0x20 PUSH1 0x40 MLOAD DUP1 DUP4 SUB DUP2 DUP7 GAS STATICCALL ISZERO DUP1 ISZERO PUSH2 0xA13 JUMPI RETURNDATASIZE PUSH0 PUSH0 RETURNDATACOPY RETURNDATASIZE PUSH0 REVERT JUMPDEST POP POP POP POP PUSH1 0x40 MLOAD RETURNDATASIZE PUSH1 0x1F NOT PUSH1 0x1F DUP3 ADD AND DUP3 ADD DUP1 PUSH1 0x40 MSTORE POP DUP2 ADD SWAP1 PUSH2 0xA37 SWAP2 SWAP1 PUSH2 0x36B8 JUMP JUMPDEST PUSH32 0x0 PUSH20 0xFFFFFFFFFFFFFFFFFFFFFFFFFFFFFFFFFFFFFFFF AND PUSH4 0xF19993D7 PUSH1 0x40 MLOAD DUP2 PUSH4 0xFFFFFFFF AND PUSH1 0xE0 SHL DUP2 MSTORE PUSH1 0x4 ADD PUSH1 0x20 PUSH1 0x40 MLOAD DUP1 DUP4 SUB DUP2 DUP7 GAS STATICCALL ISZERO DUP1 ISZERO PUSH2 0xAA0 JUMPI RETURNDATASIZE PUSH0 PUSH0 RETURNDATACOPY RETURNDATASIZE PUSH0 REVERT JUMPDEST POP POP POP POP PUSH1 0x40 MLOAD RETURNDATASIZE PUSH1 0x1F NOT PUSH1 0x1F DUP3 ADD AND DUP3 ADD DUP1 PUSH1 0x40 MSTORE POP DUP2 ADD SWAP1 PUSH2 0xAC4 SWAP2 SWAP1 PUSH2 0x36B8 JUMP JUMPDEST SWAP3 POP SWAP3 POP SWAP3 POP SWAP1 SWAP2 SWAP3 JUMP JUMPDEST PUSH0 PUSH0 PUSH0 PUSH0 PUSH0 PUSH0 PUSH0 PUSH0 PUSH0 PUSH0 PUSH1 0x1 PUSH0 DUP13 PUSH20 0xFFFFFFFFFFFFFFFFFFFFFFFFFFFFFFFFFFFFFFFF AND PUSH20 0xFFFFFFFFFFFFFFFFFFFFFFFFFFFFFFFFFFFFFFFF AND DUP2 MSTORE PUSH1 0x20 ADD SWAP1 DUP2 MSTORE PUSH1 0x20 ADD PUSH0 KECCAK256 PUSH1 0x40 MLOAD DUP1 PUSH1 0xA0 ADD PUSH1 0x40 MSTORE SWAP1 DUP2 PUSH0 DUP3 ADD SLOAD DUP2 MSTORE PUSH1 0x20 ADD PUSH1 0x1 DUP3 ADD SLOAD DUP2 MSTORE PUSH1 0x20 ADD PUSH1 0x2 DUP3 ADD SLOAD DUP2 MSTORE PUSH1 0x20 ADD PUSH1 0x3 DUP3 ADD SLOAD DUP2 MSTORE PUSH1 0x20 ADD PUSH1 0x4 DUP3 ADD SLOAD DUP2 MSTORE POP POP SWAP1 POP DUP1 PUSH0 ADD MLOAD SWAP10 POP DUP1 PUSH1 0x20 ADD MLOAD SWAP9 POP DUP1 PUSH1 0x40 ADD MLOAD SWAP8 POP PUSH0 DUP2 PUSH0 ADD MLOAD GT PUSH2 0xB78 JUMPI PUSH0 PUSH2 0xC14 JUMP JUMPDEST PUSH32 0x0 PUSH20 0xFFFFFFFFFFFFFFFFFFFFFFFFFFFFFFFFFFFFFFFF AND PUSH4 0x7A2D13A DUP3 PUSH0 ADD MLOAD PUSH1 0x40 MLOAD DUP3 PUSH4 0xFFFFFFFF AND PUSH1 0xE0 SHL DUP2 MSTORE PUSH1 0x4 ADD PUSH2 0xBD4 SWAP2 SWAP1 PUSH2 0x3257 JUMP JUMPDEST PUSH1 0x20 PUSH1 0x40 MLOAD DUP1 DUP4 SUB DUP2 DUP7 GAS STATICCALL ISZERO DUP1 ISZERO PUSH2 0xBEF JUMPI RETURNDATASIZE PUSH0 PUSH0 RETURNDATACOPY RETURNDATASIZE PUSH0 REVERT JUMPDEST POP POP POP POP PUSH1 0x40 MLOAD RETURNDATASIZE PUSH1 0x1F NOT PUSH1 0x1F DUP3 ADD AND DUP3 ADD DUP1 PUSH1 0x40 MSTORE POP DUP2 ADD SWAP1 PUSH2 0xC13 SWAP2 SWAP1 PUSH2 0x36B8 JUMP JUMPDEST JUMPDEST SWAP7 POP PUSH0 DUP2 PUSH1 0x20 ADD MLOAD GT PUSH2 0xC27 JUMPI PUSH0 PUSH2 0xCC4 JUMP JUMPDEST PUSH32 0x0 PUSH20 0xFFFFFFFFFFFFFFFFFFFFFFFFFFFFFFFFFFFFFFFF AND PUSH4 0x7A2D13A DUP3 PUSH1 0x20 ADD MLOAD PUSH1 0x40 MLOAD DUP3 PUSH4 0xFFFFFFFF AND PUSH1 0xE0 SHL DUP2 MSTORE PUSH1 0x4 ADD PUSH2 0xC84 SWAP2 SWAP1 PUSH2 0x3257 JUMP JUMPDEST PUSH1 0x20 PUSH1 0x40 MLOAD DUP1 DUP4 SUB DUP2 DUP7 GAS STATICCALL ISZERO DUP1 ISZERO PUSH2 0xC9F JUMPI RETURNDATASIZE PUSH0 PUSH0 RETURNDATACOPY RETURNDATASIZE PUSH0 REVERT JUMPDEST POP POP POP POP PUSH1 0x40 MLOAD RETURNDATASIZE PUSH1 0x1F NOT PUSH1 0x1F DUP3 ADD AND DUP3 ADD DUP1 PUSH1 0x40 MSTORE POP DUP2 ADD SWAP1 PUSH2 0xCC3 SWAP2 SWAP1 PUSH2 0x36B8 JUMP JUMPDEST JUMPDEST SWAP6 POP PUSH0 DUP2 PUSH1 0x40 ADD MLOAD GT PUSH2 0xCD7 JUMPI PUSH0 PUSH2 0xD74 JUMP JUMPDEST PUSH32 0x0 PUSH20 0xFFFFFFFFFFFFFFFFFFFFFFFFFFFFFFFFFFFFFFFF AND PUSH4 0x7A2D13A DUP3 PUSH1 0x40 ADD MLOAD PUSH1 0x40 MLOAD DUP3 PUSH4 0xFFFFFFFF AND PUSH1 0xE0 SHL DUP2 MSTORE PUSH1 0x4 ADD PUSH2 0xD34 SWAP2 SWAP1 PUSH2 0x3257 JUMP JUMPDEST PUSH1 0x20 PUSH1 0x40 MLOAD DUP1 DUP4 SUB DUP2 DUP7 GAS STATICCALL ISZERO DUP1 ISZERO PUSH2 0xD4F JUMPI RETURNDATASIZE PUSH0 PUSH0 RETURNDATACOPY RETURNDATASIZE PUSH0 REVERT JUMPDEST POP POP POP POP PUSH1 0x40 MLOAD RETURNDATASIZE PUSH1 0x1F NOT PUSH1 0x1F DUP3 ADD AND DUP3 ADD DUP1 PUSH1 0x40 MSTORE POP DUP2 ADD SWAP1 PUSH2 0xD73 SWAP2 SWAP1 PUSH2 0x36B8 JUMP JUMPDEST JUMPDEST SWAP5 POP DUP5 DUP7 DUP9 PUSH2 0xD83 SWAP2 SWAP1 PUSH2 0x3716 JUMP JUMPDEST PUSH2 0xD8D SWAP2 SWAP1 PUSH2 0x3716 JUMP JUMPDEST SWAP4 POP DUP1 PUSH1 0x60 ADD MLOAD SWAP3 POP DUP3 DUP5 PUSH2 0xDA2 SWAP2 SWAP1 PUSH2 0x3770 JUMP JUMPDEST SWAP2 POP POP SWAP2 SWAP4 SWAP6 SWAP8 SWAP10 SWAP1 SWAP3 SWAP5 SWAP7 SWAP9 POP JUMP JUMPDEST PUSH1 0x1 PUSH1 0x20 MSTORE DUP1 PUSH0 MSTORE PUSH1 0x40 PUSH0 KECCAK256 PUSH0 SWAP2 POP SWAP1 POP DUP1 PUSH0 ADD SLOAD SWAP1 DUP1 PUSH1 0x1 ADD SLOAD SWAP1 DUP1 PUSH1 0x2 ADD SLOAD SWAP1 DUP1 PUSH1 0x3 ADD SLOAD SWAP1 DUP1 PUSH1 0x4 ADD SLOAD SWAP1 POP DUP6 JUMP JUMPDEST PUSH32 0x0 DUP2 JUMP JUMPDEST PUSH2 0xE10 PUSH2 0x2DC3 JUMP JUMPDEST PUSH2 0xE19 PUSH0 PUSH2 0x2E4A JUMP JUMPDEST JUMP JUMPDEST PUSH0 PUSH0 PUSH0 PUSH0 PUSH32 0x0 PUSH20 0xFFFFFFFFFFFFFFFFFFFFFFFFFFFFFFFFFFFFFFFF AND PUSH4 0x1E1D114 PUSH1 0x40 MLOAD DUP2 PUSH4 0xFFFFFFFF AND PUSH1 0xE0 SHL DUP2 MSTORE PUSH1 0x4 ADD PUSH1 0x20 PUSH1 0x40 MLOAD DUP1 DUP4 SUB DUP2 DUP7 GAS STATICCALL ISZERO DUP1 ISZERO PUSH2 0xE88 JUMPI RETURNDATASIZE PUSH0 PUSH0 RETURNDATACOPY RETURNDATASIZE PUSH0 REVERT JUMPDEST POP POP POP POP PUSH1 0x40 MLOAD RETURNDATASIZE PUSH1 0x1F NOT PUSH1 0x1F DUP3 ADD AND DUP3 ADD DUP1 PUSH1 0x40 MSTORE POP DUP2 ADD SWAP1 PUSH2 0xEAC SWAP2 SWAP1 PUSH2 0x36B8 JUMP JUMPDEST SWAP3 POP PUSH32 0x0 PUSH20 0xFFFFFFFFFFFFFFFFFFFFFFFFFFFFFFFFFFFFFFFF AND PUSH4 0x1E1D114 PUSH1 0x40 MLOAD DUP2 PUSH4 0xFFFFFFFF AND PUSH1 0xE0 SHL DUP2 MSTORE PUSH1 0x4 ADD PUSH1 0x20 PUSH1 0x40 MLOAD DUP1 DUP4 SUB DUP2 DUP7 GAS STATICCALL ISZERO DUP1 ISZERO PUSH2 0xF17 JUMPI RETURNDATASIZE PUSH0 PUSH0 RETURNDATACOPY RETURNDATASIZE PUSH0 REVERT JUMPDEST POP POP POP POP PUSH1 0x40 MLOAD RETURNDATASIZE PUSH1 0x1F NOT PUSH1 0x1F DUP3 ADD AND DUP3 ADD DUP1 PUSH1 0x40 MSTORE POP DUP2 ADD SWAP1 PUSH2 0xF3B SWAP2 SWAP1 PUSH2 0x36B8 JUMP JUMPDEST SWAP2 POP PUSH32 0x0 PUSH20 0xFFFFFFFFFFFFFFFFFFFFFFFFFFFFFFFFFFFFFFFF AND PUSH4 0x1E1D114 PUSH1 0x40 MLOAD DUP2 PUSH4 0xFFFFFFFF AND PUSH1 0xE0 SHL DUP2 MSTORE PUSH1 0x4 ADD PUSH1 0x20 PUSH1 0x40 MLOAD DUP1 DUP4 SUB DUP2 DUP7 GAS STATICCALL ISZERO DUP1 ISZERO PUSH2 0xFA6 JUMPI RETURNDATASIZE PUSH0 PUSH0 RETURNDATACOPY RETURNDATASIZE PUSH0 REVERT JUMPDEST POP POP POP POP PUSH1 0x40 MLOAD RETURNDATASIZE PUSH1 0x1F NOT PUSH1 0x1F DUP3 ADD AND DUP3 ADD DUP1 PUSH1 0x40 MSTORE POP DUP2 ADD SWAP1 PUSH2 0xFCA SWAP2 SWAP1 PUSH2 0x36B8 JUMP JUMPDEST SWAP1 POP DUP1 DUP3 DUP5 PUSH2 0xFD9 SWAP2 SWAP1 PUSH2 0x3716 JUMP JUMPDEST PUSH2 0xFE3 SWAP2 SWAP1 PUSH2 0x3716 JUMP JUMPDEST SWAP4 POP SWAP1 SWAP2 SWAP3 SWAP4 JUMP JUMPDEST PUSH2 0xFF3 PUSH2 0x2D34 JUMP JUMPDEST PUSH32 0x0 PUSH20 0xFFFFFFFFFFFFFFFFFFFFFFFFFFFFFFFFFFFFFFFF AND PUSH4 0xA787C80B CALLER PUSH1 0x40 MLOAD DUP3 PUSH4 0xFFFFFFFF AND PUSH1 0xE0 SHL DUP2 MSTORE PUSH1 0x4 ADD PUSH2 0x104C SWAP2 SWAP1 PUSH2 0x3552 JUMP JUMPDEST PUSH1 0x20 PUSH1 0x40 MLOAD DUP1 DUP4 SUB DUP2 DUP7 GAS STATICCALL ISZERO DUP1 ISZERO PUSH2 0x1067 JUMPI RETURNDATASIZE PUSH0 PUSH0 RETURNDATACOPY RETURNDATASIZE PUSH0 REVERT JUMPDEST POP POP POP POP PUSH1 0x40 MLOAD RETURNDATASIZE PUSH1 0x1F NOT PUSH1 0x1F DUP3 ADD AND DUP3 ADD DUP1 PUSH1 0x40 MSTORE POP DUP2 ADD SWAP1 PUSH2 0x108B SWAP2 SWAP1 PUSH2 0x37E5 JUMP JUMPDEST PUSH2 0x10C1 JUMPI PUSH1 0x40 MLOAD PUSH32 0x6F86092700000000000000000000000000000000000000000000000000000000 DUP2 MSTORE PUSH1 0x4 ADD PUSH1 0x40 MLOAD DUP1 SWAP2 SUB SWAP1 REVERT JUMPDEST PUSH0 PUSH1 0x1 PUSH0 CALLER PUSH20 0xFFFFFFFFFFFFFFFFFFFFFFFFFFFFFFFFFFFFFFFF AND PUSH20 0xFFFFFFFFFFFFFFFFFFFFFFFFFFFFFFFFFFFFFFFF AND DUP2 MSTORE PUSH1 0x20 ADD SWAP1 DUP2 MSTORE PUSH1 0x20 ADD PUSH0 KECCAK256 PUSH1 0x40 MLOAD DUP1 PUSH1 0xA0 ADD PUSH1 0x40 MSTORE SWAP1 DUP2 PUSH0 DUP3 ADD SLOAD DUP2 MSTORE PUSH1 0x20 ADD PUSH1 0x1 DUP3 ADD SLOAD DUP2 MSTORE PUSH1 0x20 ADD PUSH1 0x2 DUP3 ADD SLOAD DUP2 MSTORE PUSH1 0x20 ADD PUSH1 0x3 DUP3 ADD SLOAD DUP2 MSTORE PUSH1 0x20 ADD PUSH1 0x4 DUP3 ADD SLOAD DUP2 MSTORE POP POP SWAP1 POP PUSH0 DUP2 PUSH0 ADD MLOAD EQ DUP1 ISZERO PUSH2 0x1152 JUMPI POP PUSH0 DUP2 PUSH1 0x20 ADD MLOAD EQ JUMPDEST DUP1 ISZERO PUSH2 0x1161 JUMPI POP PUSH0 DUP2 PUSH1 0x40 ADD MLOAD EQ JUMPDEST ISZERO PUSH2 0x1198 JUMPI PUSH1 0x40 MLOAD PUSH32 0xABF0F03400000000000000000000000000000000000000000000000000000000 DUP2 MSTORE PUSH1 0x4 ADD PUSH1 0x40 MLOAD DUP1 SWAP2 SUB SWAP1 REVERT JUMPDEST PUSH0 PUSH2 0x11A2 CALLER PUSH2 0x233A JUMP JUMPDEST SWAP1 POP PUSH0 DUP2 SUB PUSH2 0x11DD JUMPI PUSH1 0x40 MLOAD PUSH32 0x1F2A200500000000000000000000000000000000000000000000000000000000 DUP2 MSTORE PUSH1 0x4 ADD PUSH1 0x40 MLOAD DUP1 SWAP2 SUB SWAP1 REVERT JUMPDEST PUSH0 PUSH0 SWAP1 POP PUSH0 PUSH0 SWAP1 POP PUSH0 PUSH0 SWAP1 POP PUSH0 DUP6 PUSH0 ADD MLOAD GT ISZERO PUSH2 0x1297 JUMPI PUSH32 0x0 PUSH20 0xFFFFFFFFFFFFFFFFFFFFFFFFFFFFFFFFFFFFFFFF AND PUSH4 0xBA087652 DUP7 PUSH0 ADD MLOAD ADDRESS ADDRESS PUSH1 0x40 MLOAD DUP5 PUSH4 0xFFFFFFFF AND PUSH1 0xE0 SHL DUP2 MSTORE PUSH1 0x4 ADD PUSH2 0x1254 SWAP4 SWAP3 SWAP2 SWAP1 PUSH2 0x366F JUMP JUMPDEST PUSH1 0x20 PUSH1 0x40 MLOAD DUP1 DUP4 SUB DUP2 PUSH0 DUP8 GAS CALL ISZERO DUP1 ISZERO PUSH2 0x1270 JUMPI RETURNDATASIZE PUSH0 PUSH0 RETURNDATACOPY RETURNDATASIZE PUSH0 REVERT JUMPDEST POP POP POP POP PUSH1 0x40 MLOAD RETURNDATASIZE PUSH1 0x1F NOT PUSH1 0x1F DUP3 ADD AND DUP3 ADD DUP1 PUSH1 0x40 MSTORE POP DUP2 ADD SWAP1 PUSH2 0x1294 SWAP2 SWAP1 PUSH2 0x36B8 JUMP JUMPDEST SWAP3 POP JUMPDEST PUSH0 DUP6 PUSH1 0x20 ADD MLOAD GT ISZERO PUSH2 0x1347 JUMPI PUSH32 0x0 PUSH20 0xFFFFFFFFFFFFFFFFFFFFFFFFFFFFFFFFFFFFFFFF AND PUSH4 0xBA087652 DUP7 PUSH1 0x20 ADD MLOAD ADDRESS ADDRESS PUSH1 0x40 MLOAD DUP5 PUSH4 0xFFFFFFFF AND PUSH1 0xE0 SHL DUP2 MSTORE PUSH1 0x4 ADD PUSH2 0x1304 SWAP4 SWAP3 SWAP2 SWAP1 PUSH2 0x366F JUMP JUMPDEST PUSH1 0x20 PUSH1 0x40 MLOAD DUP1 DUP4 SUB DUP2 PUSH0 DUP8 GAS CALL ISZERO DUP1 ISZERO PUSH2 0x1320 JUMPI RETURNDATASIZE PUSH0 PUSH0 RETURNDATACOPY RETURNDATASIZE PUSH0 REVERT JUMPDEST POP POP POP POP PUSH1 0x40 MLOAD RETURNDATASIZE PUSH1 0x1F NOT PUSH1 0x1F DUP3 ADD AND DUP3 ADD DUP1 PUSH1 0x40 MSTORE POP DUP2 ADD SWAP1 PUSH2 0x1344 SWAP2 SWAP1 PUSH2 0x36B8 JUMP JUMPDEST SWAP2 POP JUMPDEST PUSH0 DUP6 PUSH1 0x40 ADD MLOAD GT ISZERO PUSH2 0x13F7 JUMPI PUSH32 0x0 PUSH20 0xFFFFFFFFFFFFFFFFFFFFFFFFFFFFFFFFFFFFFFFF AND PUSH4 0xBA087652 DUP7 PUSH1 0x40 ADD MLOAD ADDRESS ADDRESS PUSH1 0x40 MLOAD DUP5 PUSH4 0xFFFFFFFF AND PUSH1 0xE0 SHL DUP2 MSTORE PUSH1 0x4 ADD PUSH2 0x13B4 SWAP4 SWAP3 SWAP2 SWAP1 PUSH2 0x366F JUMP JUMPDEST PUSH1 0x20 PUSH1 0x40 MLOAD DUP1 DUP4 SUB DUP2 PUSH0 DUP8 GAS CALL ISZERO DUP1 ISZERO PUSH2 0x13D0 JUMPI RETURNDATASIZE PUSH0 PUSH0 RETURNDATACOPY RETURNDATASIZE PUSH0 REVERT JUMPDEST POP POP POP POP PUSH1 0x40 MLOAD RETURNDATASIZE PUSH1 0x1F NOT PUSH1 0x1F DUP3 ADD AND DUP3 ADD DUP1 PUSH1 0x40 MSTORE POP DUP2 ADD SWAP1 PUSH2 0x13F4 SWAP2 SWAP1 PUSH2 0x36B8 JUMP JUMPDEST SWAP1 POP JUMPDEST PUSH0 DUP2 DUP4 DUP6 PUSH2 0x1405 SWAP2 SWAP1 PUSH2 0x3716 JUMP JUMPDEST PUSH2 0x140F SWAP2 SWAP1 PUSH2 0x3716 JUMP JUMPDEST SWAP1 POP PUSH0 PUSH32 0x0 PUSH20 0xFFFFFFFFFFFFFFFFFFFFFFFFFFFFFFFFFFFFFFFF AND PUSH4 0xBAF1E57F CALLER PUSH1 0x40 MLOAD DUP3 PUSH4 0xFFFFFFFF AND PUSH1 0xE0 SHL DUP2 MSTORE PUSH1 0x4 ADD PUSH2 0x146B SWAP2 SWAP1 PUSH2 0x3552 JUMP JUMPDEST PUSH1 0x60 PUSH1 0x40 MLOAD DUP1 DUP4 SUB DUP2 DUP7 GAS STATICCALL ISZERO DUP1 ISZERO PUSH2 0x1486 JUMPI RETURNDATASIZE PUSH0 PUSH0 RETURNDATACOPY RETURNDATASIZE PUSH0 REVERT JUMPDEST POP POP POP POP PUSH1 0x40 MLOAD RETURNDATASIZE PUSH1 0x1F NOT PUSH1 0x1F DUP3 ADD AND DUP3 ADD DUP1 PUSH1 0x40 MSTORE POP DUP2 ADD SWAP1 PUSH2 0x14AA SWAP2 SWAP1 PUSH2 0x3933 JUMP JUMPDEST SWAP1 POP PUSH0 PUSH1 0x64 DUP3 PUSH0 ADD MLOAD PUSH1 0xFF AND DUP5 PUSH2 0x14C1 SWAP2 SWAP1 PUSH2 0x35D1 JUMP JUMPDEST PUSH2 0x14CB SWAP2 SWAP1 PUSH2 0x363F JUMP JUMPDEST SWAP1 POP PUSH0 PUSH1 0x64 DUP4 PUSH1 0x20 ADD MLOAD PUSH1 0xFF AND DUP6 PUSH2 0x14E3 SWAP2 SWAP1 PUSH2 0x35D1 JUMP JUMPDEST PUSH2 0x14ED SWAP2 SWAP1 PUSH2 0x363F JUMP JUMPDEST SWAP1 POP PUSH0 DUP2 DUP4 DUP7 PUSH2 0x14FD SWAP2 SWAP1 PUSH2 0x36E3 JUMP JUMPDEST PUSH2 0x1507 SWAP2 SWAP1 PUSH2 0x36E3 JUMP JUMPDEST SWAP1 POP PUSH0 PUSH0 SWAP1 POP PUSH0 PUSH0 SWAP1 POP PUSH0 PUSH0 SWAP1 POP PUSH0 DUP7 GT ISZERO PUSH2 0x1626 JUMPI PUSH2 0x1588 PUSH32 0x0 DUP8 PUSH32 0x0 PUSH20 0xFFFFFFFFFFFFFFFFFFFFFFFFFFFFFFFFFFFFFFFF AND PUSH2 0x2F0B SWAP1 SWAP3 SWAP2 SWAP1 PUSH4 0xFFFFFFFF AND JUMP JUMPDEST PUSH32 0x0 PUSH20 0xFFFFFFFFFFFFFFFFFFFFFFFFFFFFFFFFFFFFFFFF AND PUSH4 0x6E553F65 DUP8 ADDRESS PUSH1 0x40 MLOAD DUP4 PUSH4 0xFFFFFFFF AND PUSH1 0xE0 SHL DUP2 MSTORE PUSH1 0x4 ADD PUSH2 0x15E3 SWAP3 SWAP2 SWAP1 PUSH2 0x395E JUMP JUMPDEST PUSH1 0x20 PUSH1 0x40 MLOAD DUP1 DUP4 SUB DUP2 PUSH0 DUP8 GAS CALL ISZERO DUP1 ISZERO PUSH2 0x15FF JUMPI RETURNDATASIZE PUSH0 PUSH0 RETURNDATACOPY RETURNDATASIZE PUSH0 REVERT JUMPDEST POP POP POP POP PUSH1 0x40 MLOAD RETURNDATASIZE PUSH1 0x1F NOT PUSH1 0x1F DUP3 ADD AND DUP3 ADD DUP1 PUSH1 0x40 MSTORE POP DUP2 ADD SWAP1 PUSH2 0x1623 SWAP2 SWAP1 PUSH2 0x36B8 JUMP JUMPDEST SWAP3 POP JUMPDEST PUSH0 DUP6 GT ISZERO PUSH2 0x1737 JUMPI PUSH2 0x1699 PUSH32 0x0 DUP7 PUSH32 0x0 PUSH20 0xFFFFFFFFFFFFFFFFFFFFFFFFFFFFFFFFFFFFFFFF AND PUSH2 0x2F0B SWAP1 SWAP3 SWAP2 SWAP1 PUSH4 0xFFFFFFFF AND JUMP JUMPDEST PUSH32 0x0 PUSH20 0xFFFFFFFFFFFFFFFFFFFFFFFFFFFFFFFFFFFFFFFF AND PUSH4 0x6E553F65 DUP7 ADDRESS PUSH1 0x40 MLOAD DUP4 PUSH4 0xFFFFFFFF AND PUSH1 0xE0 SHL DUP2 MSTORE PUSH1 0x4 ADD PUSH2 0x16F4 SWAP3 SWAP2 SWAP1 PUSH2 0x395E JUMP JUMPDEST PUSH1 0x20 PUSH1 0x40 MLOAD DUP1 DUP4 SUB DUP2 PUSH0 DUP8 GAS CALL ISZERO DUP1 ISZERO PUSH2 0x1710 JUMPI RETURNDATASIZE PUSH0 PUSH0 RETURNDATACOPY RETURNDATASIZE PUSH0 REVERT JUMPDEST POP POP POP POP PUSH1 0x40 MLOAD RETURNDATASIZE PUSH1 0x1F NOT PUSH1 0x1F DUP3 ADD AND DUP3 ADD DUP1 PUSH1 0x40 MSTORE POP DUP2 ADD SWAP1 PUSH2 0x1734 SWAP2 SWAP1 PUSH2 0x36B8 JUMP JUMPDEST SWAP2 POP JUMPDEST PUSH0 DUP5 GT ISZERO PUSH2 0x1848 JUMPI PUSH2 0x17AA PUSH32 0x0 DUP6 PUSH32 0x0 PUSH20 0xFFFFFFFFFFFFFFFFFFFFFFFFFFFFFFFFFFFFFFFF AND PUSH2 0x2F0B SWAP1 SWAP3 SWAP2 SWAP1 PUSH4 0xFFFFFFFF AND JUMP JUMPDEST PUSH32 0x0 PUSH20 0xFFFFFFFFFFFFFFFFFFFFFFFFFFFFFFFFFFFFFFFF AND PUSH4 0x6E553F65 DUP6 ADDRESS PUSH1 0x40 MLOAD DUP4 PUSH4 0xFFFFFFFF AND PUSH1 0xE0 SHL DUP2 MSTORE PUSH1 0x4 ADD PUSH2 0x1805 SWAP3 SWAP2 SWAP1 PUSH2 0x395E JUMP JUMPDEST PUSH1 0x20 PUSH1 0x40 MLOAD DUP1 DUP4 SUB DUP2 PUSH0 DUP8 GAS CALL ISZERO DUP1 ISZERO PUSH2 0x1821 JUMPI RETURNDATASIZE PUSH0 PUSH0 RETURNDATACOPY RETURNDATASIZE PUSH0 REVERT JUMPDEST POP POP POP POP PUSH1 0x40 MLOAD RETURNDATASIZE PUSH1 0x1F NOT PUSH1 0x1F DUP3 ADD AND DUP3 ADD DUP1 PUSH1 0x40 MSTORE POP DUP2 ADD SWAP1 PUSH2 0x1845 SWAP2 SWAP1 PUSH2 0x36B8 JUMP JUMPDEST SWAP1 POP JUMPDEST PUSH0 PUSH1 0x1 PUSH0 CALLER PUSH20 0xFFFFFFFFFFFFFFFFFFFFFFFFFFFFFFFFFFFFFFFF AND PUSH20 0xFFFFFFFFFFFFFFFFFFFFFFFFFFFFFFFFFFFFFFFF AND DUP2 MSTORE PUSH1 0x20 ADD SWAP1 DUP2 MSTORE PUSH1 0x20 ADD PUSH0 KECCAK256 SWAP1 POP DUP4 DUP2 PUSH0 ADD DUP2 SWAP1 SSTORE POP DUP3 DUP2 PUSH1 0x1 ADD DUP2 SWAP1 SSTORE POP DUP2 DUP2 PUSH1 0x2 ADD DUP2 SWAP1 SSTORE POP CALLER PUSH20 0xFFFFFFFFFFFFFFFFFFFFFFFFFFFFFFFFFFFFFFFF AND PUSH32 0x1427D1942829759938581CE754FD0F7F116BFB7A4B77F80F0CB32CD62C2138C7 TIMESTAMP PUSH1 0x40 MLOAD PUSH2 0x18E8 SWAP2 SWAP1 PUSH2 0x3257 JUMP JUMPDEST PUSH1 0x40 MLOAD DUP1 SWAP2 SUB SWAP1 LOG2 POP POP POP POP POP POP POP POP POP POP POP POP POP POP PUSH2 0x1906 PUSH2 0x2DA9 JUMP JUMPDEST JUMP JUMPDEST PUSH0 PUSH0 PUSH1 0x1 PUSH0 DUP5 PUSH20 0xFFFFFFFFFFFFFFFFFFFFFFFFFFFFFFFFFFFFFFFF AND PUSH20 0xFFFFFFFFFFFFFFFFFFFFFFFFFFFFFFFFFFFFFFFF AND DUP2 MSTORE PUSH1 0x20 ADD SWAP1 DUP2 MSTORE PUSH1 0x20 ADD PUSH0 KECCAK256 PUSH1 0x40 MLOAD DUP1 PUSH1 0xA0 ADD PUSH1 0x40 MSTORE SWAP1 DUP2 PUSH0 DUP3 ADD SLOAD DUP2 MSTORE PUSH1 0x20 ADD PUSH1 0x1 DUP3 ADD SLOAD DUP2 MSTORE PUSH1 0x20 ADD PUSH1 0x2 DUP3 ADD SLOAD DUP2 MSTORE PUSH1 0x20 ADD PUSH1 0x3 DUP3 ADD SLOAD DUP2 MSTORE PUSH1 0x20 ADD PUSH1 0x4 DUP3 ADD SLOAD DUP2 MSTORE POP POP SWAP1 POP PUSH0 PUSH0 DUP3 PUSH0 ADD MLOAD GT PUSH2 0x1996 JUMPI PUSH0 PUSH2 0x1A32 JUMP JUMPDEST PUSH32 0x0 PUSH20 0xFFFFFFFFFFFFFFFFFFFFFFFFFFFFFFFFFFFFFFFF AND PUSH4 0x7A2D13A DUP4 PUSH0 ADD MLOAD PUSH1 0x40 MLOAD DUP3 PUSH4 0xFFFFFFFF AND PUSH1 0xE0 SHL DUP2 MSTORE PUSH1 0x4 ADD PUSH2 0x19F2 SWAP2 SWAP1 PUSH2 0x3257 JUMP JUMPDEST PUSH1 0x20 PUSH1 0x40 MLOAD DUP1 DUP4 SUB DUP2 DUP7 GAS STATICCALL ISZERO DUP1 ISZERO PUSH2 0x1A0D JUMPI RETURNDATASIZE PUSH0 PUSH0 RETURNDATACOPY RETURNDATASIZE PUSH0 REVERT JUMPDEST POP POP POP POP PUSH1 0x40 MLOAD RETURNDATASIZE PUSH1 0x1F NOT PUSH1 0x1F DUP3 ADD AND DUP3 ADD DUP1 PUSH1 0x40 MSTORE POP DUP2 ADD SWAP1 PUSH2 0x1A31 SWAP2 SWAP1 PUSH2 0x36B8 JUMP JUMPDEST JUMPDEST SWAP1 POP PUSH0 PUSH0 DUP4 PUSH1 0x20 ADD MLOAD GT PUSH2 0x1A46 JUMPI PUSH0 PUSH2 0x1AE3 JUMP JUMPDEST PUSH32 0x0 PUSH20 0xFFFFFFFFFFFFFFFFFFFFFFFFFFFFFFFFFFFFFFFF AND PUSH4 0x7A2D13A DUP5 PUSH1 0x20 ADD MLOAD PUSH1 0x40 MLOAD DUP3 PUSH4 0xFFFFFFFF AND PUSH1 0xE0 SHL DUP2 MSTORE PUSH1 0x4 ADD PUSH2 0x1AA3 SWAP2 SWAP1 PUSH2 0x3257 JUMP JUMPDEST PUSH1 0x20 PUSH1 0x40 MLOAD DUP1 DUP4 SUB DUP2 DUP7 GAS STATICCALL ISZERO DUP1 ISZERO PUSH2 0x1ABE JUMPI RETURNDATASIZE PUSH0 PUSH0 RETURNDATACOPY RETURNDATASIZE PUSH0 REVERT JUMPDEST POP POP POP POP PUSH1 0x40 MLOAD RETURNDATASIZE PUSH1 0x1F NOT PUSH1 0x1F DUP3 ADD AND DUP3 ADD DUP1 PUSH1 0x40 MSTORE POP DUP2 ADD SWAP1 PUSH2 0x1AE2 SWAP2 SWAP1 PUSH2 0x36B8 JUMP JUMPDEST JUMPDEST SWAP1 POP PUSH0 PUSH0 DUP5 PUSH1 0x40 ADD MLOAD GT PUSH2 0x1AF7 JUMPI PUSH0 PUSH2 0x1B94 JUMP JUMPDEST PUSH32 0x0 PUSH20 0xFFFFFFFFFFFFFFFFFFFFFFFFFFFFFFFFFFFFFFFF AND PUSH4 0x7A2D13A DUP6 PUSH1 0x40 ADD MLOAD PUSH1 0x40 MLOAD DUP3 PUSH4 0xFFFFFFFF AND PUSH1 0xE0 SHL DUP2 MSTORE PUSH1 0x4 ADD PUSH2 0x1B54 SWAP2 SWAP1 PUSH2 0x3257 JUMP JUMPDEST PUSH1 0x20 PUSH1 0x40 MLOAD DUP1 DUP4 SUB DUP2 DUP7 GAS STATICCALL ISZERO DUP1 ISZERO PUSH2 0x1B6F JUMPI RETURNDATASIZE PUSH0 PUSH0 RETURNDATACOPY RETURNDATASIZE PUSH0 REVERT JUMPDEST POP POP POP POP PUSH1 0x40 MLOAD RETURNDATASIZE PUSH1 0x1F NOT PUSH1 0x1F DUP3 ADD AND DUP3 ADD DUP1 PUSH1 0x40 MSTORE POP DUP2 ADD SWAP1 PUSH2 0x1B93 SWAP2 SWAP1 PUSH2 0x36B8 JUMP JUMPDEST JUMPDEST SWAP1 POP PUSH0 DUP2 DUP4 DUP6 PUSH2 0x1BA4 SWAP2 SWAP1 PUSH2 0x3716 JUMP JUMPDEST PUSH2 0x1BAE SWAP2 SWAP1 PUSH2 0x3716 JUMP JUMPDEST SWAP1 POP PUSH0 DUP2 SUB PUSH2 0x1BC4 JUMPI PUSH0 SWAP6 POP POP POP POP POP POP PUSH2 0x1DFD JUMP JUMPDEST PUSH0 PUSH0 SWAP1 POP PUSH0 DUP6 GT ISZERO PUSH2 0x1C81 JUMPI DUP2 PUSH32 0x0 PUSH20 0xFFFFFFFFFFFFFFFFFFFFFFFFFFFFFFFFFFFFFFFF AND PUSH4 0xF19993D7 PUSH1 0x40 MLOAD DUP2 PUSH4 0xFFFFFFFF AND PUSH1 0xE0 SHL DUP2 MSTORE PUSH1 0x4 ADD PUSH1 0x20 PUSH1 0x40 MLOAD DUP1 DUP4 SUB DUP2 DUP7 GAS STATICCALL ISZERO DUP1 ISZERO PUSH2 0x1C3A JUMPI RETURNDATASIZE PUSH0 PUSH0 RETURNDATACOPY RETURNDATASIZE PUSH0 REVERT JUMPDEST POP POP POP POP PUSH1 0x40 MLOAD RETURNDATASIZE PUSH1 0x1F NOT PUSH1 0x1F DUP3 ADD AND DUP3 ADD DUP1 PUSH1 0x40 MSTORE POP DUP2 ADD SWAP1 PUSH2 0x1C5E SWAP2 SWAP1 PUSH2 0x36B8 JUMP JUMPDEST DUP7 PUSH2 0x1C69 SWAP2 SWAP1 PUSH2 0x35D1 JUMP JUMPDEST PUSH2 0x1C73 SWAP2 SWAP1 PUSH2 0x363F JUMP JUMPDEST DUP2 PUSH2 0x1C7E SWAP2 SWAP1 PUSH2 0x3716 JUMP JUMPDEST SWAP1 POP JUMPDEST PUSH0 DUP5 GT ISZERO PUSH2 0x1D3A JUMPI DUP2 PUSH32 0x0 PUSH20 0xFFFFFFFFFFFFFFFFFFFFFFFFFFFFFFFFFFFFFFFF AND PUSH4 0xF19993D7 PUSH1 0x40 MLOAD DUP2 PUSH4 0xFFFFFFFF AND PUSH1 0xE0 SHL DUP2 MSTORE PUSH1 0x4 ADD PUSH1 0x20 PUSH1 0x40 MLOAD DUP1 DUP4 SUB DUP2 DUP7 GAS STATICCALL ISZERO DUP1 ISZERO PUSH2 0x1CF3 JUMPI RETURNDATASIZE PUSH0 PUSH0 RETURNDATACOPY RETURNDATASIZE PUSH0 REVERT JUMPDEST POP POP POP POP PUSH1 0x40 MLOAD RETURNDATASIZE PUSH1 0x1F NOT PUSH1 0x1F DUP3 ADD AND DUP3 ADD DUP1 PUSH1 0x40 MSTORE POP DUP2 ADD SWAP1 PUSH2 0x1D17 SWAP2 SWAP1 PUSH2 0x36B8 JUMP JUMPDEST DUP6 PUSH2 0x1D22 SWAP2 SWAP1 PUSH2 0x35D1 JUMP JUMPDEST PUSH2 0x1D2C SWAP2 SWAP1 PUSH2 0x363F JUMP JUMPDEST DUP2 PUSH2 0x1D37 SWAP2 SWAP1 PUSH2 0x3716 JUMP JUMPDEST SWAP1 POP JUMPDEST PUSH0 DUP4 GT ISZERO PUSH2 0x1DF3 JUMPI DUP2 PUSH32 0x0 PUSH20 0xFFFFFFFFFFFFFFFFFFFFFFFFFFFFFFFFFFFFFFFF AND PUSH4 0xF19993D7 PUSH1 0x40 MLOAD DUP2 PUSH4 0xFFFFFFFF AND PUSH1 0xE0 SHL DUP2 MSTORE PUSH1 0x4 ADD PUSH1 0x20 PUSH1 0x40 MLOAD DUP1 DUP4 SUB DUP2 DUP7 GAS STATICCALL ISZERO DUP1 ISZERO PUSH2 0x1DAC JUMPI RETURNDATASIZE PUSH0 PUSH0 RETURNDATACOPY RETURNDATASIZE PUSH0 REVERT JUMPDEST POP POP POP POP PUSH1 0x40 MLOAD RETURNDATASIZE PUSH1 0x1F NOT PUSH1 0x1F DUP3 ADD AND DUP3 ADD DUP1 PUSH1 0x40 MSTORE POP DUP2 ADD SWAP1 PUSH2 0x1DD0 SWAP2 SWAP1 PUSH2 0x36B8 JUMP JUMPDEST DUP5 PUSH2 0x1DDB SWAP2 SWAP1 PUSH2 0x35D1 JUMP JUMPDEST PUSH2 0x1DE5 SWAP2 SWAP1 PUSH2 0x363F JUMP JUMPDEST DUP2 PUSH2 0x1DF0 SWAP2 SWAP1 PUSH2 0x3716 JUMP JUMPDEST SWAP1 POP JUMPDEST DUP1 SWAP7 POP POP POP POP POP POP POP JUMPDEST SWAP2 SWAP1 POP JUMP JUMPDEST PUSH0 PUSH2 0x1E0B PUSH2 0x2D34 JUMP JUMPDEST PUSH0 PUSH1 0x1 PUSH0 CALLER PUSH20 0xFFFFFFFFFFFFFFFFFFFFFFFFFFFFFFFFFFFFFFFF AND PUSH20 0xFFFFFFFFFFFFFFFFFFFFFFFFFFFFFFFFFFFFFFFF AND DUP2 MSTORE PUSH1 0x20 ADD SWAP1 DUP2 MSTORE PUSH1 0x20 ADD PUSH0 KECCAK256 PUSH1 0x40 MLOAD DUP1 PUSH1 0xA0 ADD PUSH1 0x40 MSTORE SWAP1 DUP2 PUSH0 DUP3 ADD SLOAD DUP2 MSTORE PUSH1 0x20 ADD PUSH1 0x1 DUP3 ADD SLOAD DUP2 MSTORE PUSH1 0x20 ADD PUSH1 0x2 DUP3 ADD SLOAD DUP2 MSTORE PUSH1 0x20 ADD PUSH1 0x3 DUP3 ADD SLOAD DUP2 MSTORE PUSH1 0x20 ADD PUSH1 0x4 DUP3 ADD SLOAD DUP2 MSTORE POP POP SWAP1 POP PUSH0 DUP2 PUSH0 ADD MLOAD EQ DUP1 ISZERO PUSH2 0x1E9C JUMPI POP PUSH0 DUP2 PUSH1 0x20 ADD MLOAD EQ JUMPDEST DUP1 ISZERO PUSH2 0x1EAB JUMPI POP PUSH0 DUP2 PUSH1 0x40 ADD MLOAD EQ JUMPDEST ISZERO PUSH2 0x1EE2 JUMPI PUSH1 0x40 MLOAD PUSH32 0xABF0F03400000000000000000000000000000000000000000000000000000000 DUP2 MSTORE PUSH1 0x4 ADD PUSH1 0x40 MLOAD DUP1 SWAP2 SUB SWAP1 REVERT JUMPDEST PUSH0 PUSH0 SWAP1 POP PUSH0 PUSH0 SWAP1 POP PUSH0 PUSH0 SWAP1 POP PUSH0 DUP5 PUSH0 ADD MLOAD GT ISZERO PUSH2 0x1F9C JUMPI PUSH32 0x0 PUSH20 0xFFFFFFFFFFFFFFFFFFFFFFFFFFFFFFFFFFFFFFFF AND PUSH4 0xBA087652 DUP6 PUSH0 ADD MLOAD ADDRESS ADDRESS PUSH1 0x40 MLOAD DUP5 PUSH4 0xFFFFFFFF AND PUSH1 0xE0 SHL DUP2 MSTORE PUSH1 0x4 ADD PUSH2 0x1F59 SWAP4 SWAP3 SWAP2 SWAP1 PUSH2 0x366F JUMP JUMPDEST PUSH1 0x20 PUSH1 0x40 MLOAD DUP1 DUP4 SUB DUP2 PUSH0 DUP8 GAS CALL ISZERO DUP1 ISZERO PUSH2 0x1F75 JUMPI RETURNDATASIZE PUSH0 PUSH0 RETURNDATACOPY RETURNDATASIZE PUSH0 REVERT JUMPDEST POP POP POP POP PUSH1 0x40 MLOAD RETURNDATASIZE PUSH1 0x1F NOT PUSH1 0x1F DUP3 ADD AND DUP3 ADD DUP1 PUSH1 0x40 MSTORE POP DUP2 ADD SWAP1 PUSH2 0x1F99 SWAP2 SWAP1 PUSH2 0x36B8 JUMP JUMPDEST SWAP3 POP JUMPDEST PUSH0 DUP5 PUSH1 0x20 ADD MLOAD GT ISZERO PUSH2 0x204C JUMPI PUSH32 0x0 PUSH20 0xFFFFFFFFFFFFFFFFFFFFFFFFFFFFFFFFFFFFFFFF AND PUSH4 0xBA087652 DUP6 PUSH1 0x20 ADD MLOAD ADDRESS ADDRESS PUSH1 0x40 MLOAD DUP5 PUSH4 0xFFFFFFFF AND PUSH1 0xE0 SHL DUP2 MSTORE PUSH1 0x4 ADD PUSH2 0x2009 SWAP4 SWAP3 SWAP2 SWAP1 PUSH2 0x366F JUMP JUMPDEST PUSH1 0x20 PUSH1 0x40 MLOAD DUP1 DUP4 SUB DUP2 PUSH0 DUP8 GAS CALL ISZERO DUP1 ISZERO PUSH2 0x2025 JUMPI RETURNDATASIZE PUSH0 PUSH0 RETURNDATACOPY RETURNDATASIZE PUSH0 REVERT JUMPDEST POP POP POP POP PUSH1 0x40 MLOAD RETURNDATASIZE PUSH1 0x1F NOT PUSH1 0x1F DUP3 ADD AND DUP3 ADD DUP1 PUSH1 0x40 MSTORE POP DUP2 ADD SWAP1 PUSH2 0x2049 SWAP2 SWAP1 PUSH2 0x36B8 JUMP JUMPDEST SWAP2 POP JUMPDEST PUSH0 DUP5 PUSH1 0x40 ADD MLOAD GT ISZERO PUSH2 0x20FC JUMPI PUSH32 0x0 PUSH20 0xFFFFFFFFFFFFFFFFFFFFFFFFFFFFFFFFFFFFFFFF AND PUSH4 0xBA087652 DUP6 PUSH1 0x40 ADD MLOAD ADDRESS ADDRESS PUSH1 0x40 MLOAD DUP5 PUSH4 0xFFFFFFFF AND PUSH1 0xE0 SHL DUP2 MSTORE PUSH1 0x4 ADD PUSH2 0x20B9 SWAP4 SWAP3 SWAP2 SWAP1 PUSH2 0x366F JUMP JUMPDEST PUSH1 0x20 PUSH1 0x40 MLOAD DUP1 DUP4 SUB DUP2 PUSH0 DUP8 GAS CALL ISZERO DUP1 ISZERO PUSH2 0x20D5 JUMPI RETURNDATASIZE PUSH0 PUSH0 RETURNDATACOPY RETURNDATASIZE PUSH0 REVERT JUMPDEST POP POP POP POP PUSH1 0x40 MLOAD RETURNDATASIZE PUSH1 0x1F NOT PUSH1 0x1F DUP3 ADD AND DUP3 ADD DUP1 PUSH1 0x40 MSTORE POP DUP2 ADD SWAP1 PUSH2 0x20F9 SWAP2 SWAP1 PUSH2 0x36B8 JUMP JUMPDEST SWAP1 POP JUMPDEST DUP1 DUP3 DUP5 PUSH2 0x2109 SWAP2 SWAP1 PUSH2 0x3716 JUMP JUMPDEST PUSH2 0x2113 SWAP2 SWAP1 PUSH2 0x3716 JUMP JUMPDEST SWAP5 POP PUSH1 0x1 PUSH0 CALLER PUSH20 0xFFFFFFFFFFFFFFFFFFFFFFFFFFFFFFFFFFFFFFFF AND PUSH20 0xFFFFFFFFFFFFFFFFFFFFFFFFFFFFFFFFFFFFFFFF AND DUP2 MSTORE PUSH1 0x20 ADD SWAP1 DUP2 MSTORE PUSH1 0x20 ADD PUSH0 KECCAK256 PUSH0 PUSH0 DUP3 ADD PUSH0 SWAP1 SSTORE PUSH1 0x1 DUP3 ADD PUSH0 SWAP1 SSTORE PUSH1 0x2 DUP3 ADD PUSH0 SWAP1 SSTORE PUSH1 0x3 DUP3 ADD PUSH0 SWAP1 SSTORE PUSH1 0x4 DUP3 ADD PUSH0 SWAP1 SSTORE POP POP PUSH2 0x21C2 CALLER DUP7 PUSH32 0x0 PUSH20 0xFFFFFFFFFFFFFFFFFFFFFFFFFFFFFFFFFFFFFFFF AND PUSH2 0x2D56 SWAP1 SWAP3 SWAP2 SWAP1 PUSH4 0xFFFFFFFF AND JUMP JUMPDEST CALLER PUSH20 0xFFFFFFFFFFFFFFFFFFFFFFFFFFFFFFFFFFFFFFFF AND PUSH32 0x94FFD6B85C71B847775C89EF6496B93CEE961BDC6FF827FD117F174F06F745AE DUP7 DUP7 PUSH0 ADD MLOAD DUP8 PUSH1 0x20 ADD MLOAD DUP9 PUSH1 0x40 ADD MLOAD PUSH1 0x40 MLOAD PUSH2 0x2219 SWAP5 SWAP4 SWAP3 SWAP2 SWAP1 PUSH2 0x350F JUMP JUMPDEST PUSH1 0x40 MLOAD DUP1 SWAP2 SUB SWAP1 LOG2 POP POP POP POP PUSH2 0x222D PUSH2 0x2DA9 JUMP JUMPDEST SWAP1 JUMP JUMPDEST PUSH0 PUSH0 PUSH0 SWAP1 SLOAD SWAP1 PUSH2 0x100 EXP SWAP1 DIV PUSH20 0xFFFFFFFFFFFFFFFFFFFFFFFFFFFFFFFFFFFFFFFF AND SWAP1 POP SWAP1 JUMP JUMPDEST PUSH32 0x0 DUP2 JUMP JUMPDEST PUSH0 PUSH0 PUSH0 PUSH0 PUSH1 0x1 PUSH0 DUP7 PUSH20 0xFFFFFFFFFFFFFFFFFFFFFFFFFFFFFFFFFFFFFFFF AND PUSH20 0xFFFFFFFFFFFFFFFFFFFFFFFFFFFFFFFFFFFFFFFF AND DUP2 MSTORE PUSH1 0x20 ADD SWAP1 DUP2 MSTORE PUSH1 0x20 ADD PUSH0 KECCAK256 PUSH1 0x40 MLOAD DUP1 PUSH1 0xA0 ADD PUSH1 0x40 MSTORE SWAP1 DUP2 PUSH0 DUP3 ADD SLOAD DUP2 MSTORE PUSH1 0x20 ADD PUSH1 0x1 DUP3 ADD SLOAD DUP2 MSTORE PUSH1 0x20 ADD PUSH1 0x2 DUP3 ADD SLOAD DUP2 MSTORE PUSH1 0x20 ADD PUSH1 0x3 DUP3 ADD SLOAD DUP2 MSTORE PUSH1 0x20 ADD PUSH1 0x4 DUP3 ADD SLOAD DUP2 MSTORE POP POP SWAP1 POP DUP1 PUSH0 ADD MLOAD DUP2 PUSH1 0x20 ADD MLOAD DUP3 PUSH1 0x40 ADD MLOAD SWAP4 POP SWAP4 POP SWAP4 POP POP SWAP2 SWAP4 SWAP1 SWAP3 POP JUMP JUMPDEST PUSH32 0x0 DUP2 JUMP JUMPDEST PUSH0 PUSH0 PUSH1 0x1 PUSH0 DUP5 PUSH20 0xFFFFFFFFFFFFFFFFFFFFFFFFFFFFFFFFFFFFFFFF AND PUSH20 0xFFFFFFFFFFFFFFFFFFFFFFFFFFFFFFFFFFFFFFFF AND DUP2 MSTORE PUSH1 0x20 ADD SWAP1 DUP2 MSTORE PUSH1 0x20 ADD PUSH0 KECCAK256 PUSH1 0x40 MLOAD DUP1 PUSH1 0xA0 ADD PUSH1 0x40 MSTORE SWAP1 DUP2 PUSH0 DUP3 ADD SLOAD DUP2 MSTORE PUSH1 0x20 ADD PUSH1 0x1 DUP3 ADD SLOAD DUP2 MSTORE PUSH1 0x20 ADD PUSH1 0x2 DUP3 ADD SLOAD DUP2 MSTORE PUSH1 0x20 ADD PUSH1 0x3 DUP3 ADD SLOAD DUP2 MSTORE PUSH1 0x20 ADD PUSH1 0x4 DUP3 ADD SLOAD DUP2 MSTORE POP POP SWAP1 POP PUSH0 PUSH0 DUP3 PUSH0 ADD MLOAD GT PUSH2 0x23C8 JUMPI PUSH0 PUSH2 0x2464 JUMP JUMPDEST PUSH32 0x0 PUSH20 0xFFFFFFFFFFFFFFFFFFFFFFFFFFFFFFFFFFFFFFFF AND PUSH4 0x7A2D13A DUP4 PUSH0 ADD MLOAD PUSH1 0x40 MLOAD DUP3 PUSH4 0xFFFFFFFF AND PUSH1 0xE0 SHL DUP2 MSTORE PUSH1 0x4 ADD PUSH2 0x2424 SWAP2 SWAP1 PUSH2 0x3257 JUMP JUMPDEST PUSH1 0x20 PUSH1 0x40 MLOAD DUP1 DUP4 SUB DUP2 DUP7 GAS STATICCALL ISZERO DUP1 ISZERO PUSH2 0x243F JUMPI RETURNDATASIZE PUSH0 PUSH0 RETURNDATACOPY RETURNDATASIZE PUSH0 REVERT JUMPDEST POP POP POP POP PUSH1 0x40 MLOAD RETURNDATASIZE PUSH1 0x1F NOT PUSH1 0x1F DUP3 ADD AND DUP3 ADD DUP1 PUSH1 0x40 MSTORE POP DUP2 ADD SWAP1 PUSH2 0x2463 SWAP2 SWAP1 PUSH2 0x36B8 JUMP JUMPDEST JUMPDEST SWAP1 POP PUSH0 PUSH0 DUP4 PUSH1 0x20 ADD MLOAD GT PUSH2 0x2478 JUMPI PUSH0 PUSH2 0x2515 JUMP JUMPDEST PUSH32 0x0 PUSH20 0xFFFFFFFFFFFFFFFFFFFFFFFFFFFFFFFFFFFFFFFF AND PUSH4 0x7A2D13A DUP5 PUSH1 0x20 ADD MLOAD PUSH1 0x40 MLOAD DUP3 PUSH4 0xFFFFFFFF AND PUSH1 0xE0 SHL DUP2 MSTORE PUSH1 0x4 ADD PUSH2 0x24D5 SWAP2 SWAP1 PUSH2 0x3257 JUMP JUMPDEST PUSH1 0x20 PUSH1 0x40 MLOAD DUP1 DUP4 SUB DUP2 DUP7 GAS STATICCALL ISZERO DUP1 ISZERO PUSH2 0x24F0 JUMPI RETURNDATASIZE PUSH0 PUSH0 RETURNDATACOPY RETURNDATASIZE PUSH0 REVERT JUMPDEST POP POP POP POP PUSH1 0x40 MLOAD RETURNDATASIZE PUSH1 0x1F NOT PUSH1 0x1F DUP3 ADD AND DUP3 ADD DUP1 PUSH1 0x40 MSTORE POP DUP2 ADD SWAP1 PUSH2 0x2514 SWAP2 SWAP1 PUSH2 0x36B8 JUMP JUMPDEST JUMPDEST SWAP1 POP PUSH0 PUSH0 DUP5 PUSH1 0x40 ADD MLOAD GT PUSH2 0x2529 JUMPI PUSH0 PUSH2 0x25C6 JUMP JUMPDEST PUSH32 0x0 PUSH20 0xFFFFFFFFFFFFFFFFFFFFFFFFFFFFFFFFFFFFFFFF AND PUSH4 0x7A2D13A DUP6 PUSH1 0x40 ADD MLOAD PUSH1 0x40 MLOAD DUP3 PUSH4 0xFFFFFFFF AND PUSH1 0xE0 SHL DUP2 MSTORE PUSH1 0x4 ADD PUSH2 0x2586 SWAP2 SWAP1 PUSH2 0x3257 JUMP JUMPDEST PUSH1 0x20 PUSH1 0x40 MLOAD DUP1 DUP4 SUB DUP2 DUP7 GAS STATICCALL ISZERO DUP1 ISZERO PUSH2 0x25A1 JUMPI RETURNDATASIZE PUSH0 PUSH0 RETURNDATACOPY RETURNDATASIZE PUSH0 REVERT JUMPDEST POP POP POP POP PUSH1 0x40 MLOAD RETURNDATASIZE PUSH1 0x1F NOT PUSH1 0x1F DUP3 ADD AND DUP3 ADD DUP1 PUSH1 0x40 MSTORE POP DUP2 ADD SWAP1 PUSH2 0x25C5 SWAP2 SWAP1 PUSH2 0x36B8 JUMP JUMPDEST JUMPDEST SWAP1 POP DUP1 DUP3 DUP5 PUSH2 0x25D5 SWAP2 SWAP1 PUSH2 0x3716 JUMP JUMPDEST PUSH2 0x25DF SWAP2 SWAP1 PUSH2 0x3716 JUMP JUMPDEST SWAP5 POP POP POP POP POP SWAP2 SWAP1 POP JUMP JUMPDEST PUSH0 PUSH0 PUSH0 PUSH2 0x25F5 PUSH2 0x2D34 JUMP JUMPDEST PUSH0 DUP5 SUB PUSH2 0x262E JUMPI PUSH1 0x40 MLOAD PUSH32 0x1F2A200500000000000000000000000000000000000000000000000000000000 DUP2 MSTORE PUSH1 0x4 ADD PUSH1 0x40 MLOAD DUP1 SWAP2 SUB SWAP1 REVERT JUMPDEST PUSH32 0x0 PUSH20 0xFFFFFFFFFFFFFFFFFFFFFFFFFFFFFFFFFFFFFFFF AND PUSH4 0xA787C80B CALLER PUSH1 0x40 MLOAD DUP3 PUSH4 0xFFFFFFFF AND PUSH1 0xE0 SHL DUP2 MSTORE PUSH1 0x4 ADD PUSH2 0x2687 SWAP2 SWAP1 PUSH2 0x3552 JUMP JUMPDEST PUSH1 0x20 PUSH1 0x40 MLOAD DUP1 DUP4 SUB DUP2 DUP7 GAS STATICCALL ISZERO DUP1 ISZERO PUSH2 0x26A2 JUMPI RETURNDATASIZE PUSH0 PUSH0 RETURNDATACOPY RETURNDATASIZE PUSH0 REVERT JUMPDEST POP POP POP POP PUSH1 0x40 MLOAD RETURNDATASIZE PUSH1 0x1F NOT PUSH1 0x1F DUP3 ADD AND DUP3 ADD DUP1 PUSH1 0x40 MSTORE POP DUP2 ADD SWAP1 PUSH2 0x26C6 SWAP2 SWAP1 PUSH2 0x37E5 JUMP JUMPDEST PUSH2 0x26FC JUMPI PUSH1 0x40 MLOAD PUSH32 0x6F86092700000000000000000000000000000000000000000000000000000000 DUP2 MSTORE PUSH1 0x4 ADD PUSH1 0x40 MLOAD DUP1 SWAP2 SUB SWAP1 REVERT JUMPDEST PUSH0 PUSH32 0x0 PUSH20 0xFFFFFFFFFFFFFFFFFFFFFFFFFFFFFFFFFFFFFFFF AND PUSH4 0xBAF1E57F CALLER PUSH1 0x40 MLOAD DUP3 PUSH4 0xFFFFFFFF AND PUSH1 0xE0 SHL DUP2 MSTORE PUSH1 0x4 ADD PUSH2 0x2756 SWAP2 SWAP1 PUSH2 0x3552 JUMP JUMPDEST PUSH1 0x60 PUSH1 0x40 MLOAD DUP1 DUP4 SUB DUP2 DUP7 GAS STATICCALL ISZERO DUP1 ISZERO PUSH2 0x2771 JUMPI RETURNDATASIZE PUSH0 PUSH0 RETURNDATACOPY RETURNDATASIZE PUSH0 REVERT JUMPDEST POP POP POP POP PUSH1 0x40 MLOAD RETURNDATASIZE PUSH1 0x1F NOT PUSH1 0x1F DUP3 ADD AND DUP3 ADD DUP1 PUSH1 0x40 MSTORE POP DUP2 ADD SWAP1 PUSH2 0x2795 SWAP2 SWAP1 PUSH2 0x3933 JUMP JUMPDEST SWAP1 POP PUSH0 PUSH1 0x64 DUP3 PUSH0 ADD MLOAD PUSH1 0xFF AND DUP8 PUSH2 0x27AC SWAP2 SWAP1 PUSH2 0x35D1 JUMP JUMPDEST PUSH2 0x27B6 SWAP2 SWAP1 PUSH2 0x363F JUMP JUMPDEST SWAP1 POP PUSH0 PUSH1 0x64 DUP4 PUSH1 0x20 ADD MLOAD PUSH1 0xFF AND DUP9 PUSH2 0x27CE SWAP2 SWAP1 PUSH2 0x35D1 JUMP JUMPDEST PUSH2 0x27D8 SWAP2 SWAP1 PUSH2 0x363F JUMP JUMPDEST SWAP1 POP PUSH0 DUP2 DUP4 DUP10 PUSH2 0x27E8 SWAP2 SWAP1 PUSH2 0x36E3 JUMP JUMPDEST PUSH2 0x27F2 SWAP2 SWAP1 PUSH2 0x36E3 JUMP JUMPDEST SWAP1 POP PUSH2 0x2841 CALLER ADDRESS DUP11 PUSH32 0x0 PUSH20 0xFFFFFFFFFFFFFFFFFFFFFFFFFFFFFFFFFFFFFFFF AND PUSH2 0x2FBD SWAP1 SWAP4 SWAP3 SWAP2 SWAP1 PUSH4 0xFFFFFFFF AND JUMP JUMPDEST PUSH0 DUP4 GT ISZERO PUSH2 0x2952 JUMPI PUSH2 0x28B4 PUSH32 0x0 DUP5 PUSH32 0x0 PUSH20 0xFFFFFFFFFFFFFFFFFFFFFFFFFFFFFFFFFFFFFFFF AND PUSH2 0x2F0B SWAP1 SWAP3 SWAP2 SWAP1 PUSH4 0xFFFFFFFF AND JUMP JUMPDEST PUSH32 0x0 PUSH20 0xFFFFFFFFFFFFFFFFFFFFFFFFFFFFFFFFFFFFFFFF AND PUSH4 0x6E553F65 DUP5 ADDRESS PUSH1 0x40 MLOAD DUP4 PUSH4 0xFFFFFFFF AND PUSH1 0xE0 SHL DUP2 MSTORE PUSH1 0x4 ADD PUSH2 0x290F SWAP3 SWAP2 SWAP1 PUSH2 0x395E JUMP JUMPDEST PUSH1 0x20 PUSH1 0x40 MLOAD DUP1 DUP4 SUB DUP2 PUSH0 DUP8 GAS CALL ISZERO DUP1 ISZERO PUSH2 0x292B JUMPI RETURNDATASIZE PUSH0 PUSH0 RETURNDATACOPY RETURNDATASIZE PUSH0 REVERT JUMPDEST POP POP POP POP PUSH1 0x40 MLOAD RETURNDATASIZE PUSH1 0x1F NOT PUSH1 0x1F DUP3 ADD AND DUP3 ADD DUP1 PUSH1 0x40 MSTORE POP DUP2 ADD SWAP1 PUSH2 0x294F SWAP2 SWAP1 PUSH2 0x36B8 JUMP JUMPDEST SWAP7 POP JUMPDEST PUSH0 DUP3 GT ISZERO PUSH2 0x2A63 JUMPI PUSH2 0x29C5 PUSH32 0x0 DUP4 PUSH32 0x0 PUSH20 0xFFFFFFFFFFFFFFFFFFFFFFFFFFFFFFFFFFFFFFFF AND PUSH2 0x2F0B SWAP1 SWAP3 SWAP2 SWAP1 PUSH4 0xFFFFFFFF AND JUMP JUMPDEST PUSH32 0x0 PUSH20 0xFFFFFFFFFFFFFFFFFFFFFFFFFFFFFFFFFFFFFFFF AND PUSH4 0x6E553F65 DUP4 ADDRESS PUSH1 0x40 MLOAD DUP4 PUSH4 0xFFFFFFFF AND PUSH1 0xE0 SHL DUP2 MSTORE PUSH1 0x4 ADD PUSH2 0x2A20 SWAP3 SWAP2 SWAP1 PUSH2 0x395E JUMP JUMPDEST PUSH1 0x20 PUSH1 0x40 MLOAD DUP1 DUP4 SUB DUP2 PUSH0 DUP8 GAS CALL ISZERO DUP1 ISZERO PUSH2 0x2A3C JUMPI RETURNDATASIZE PUSH0 PUSH0 RETURNDATACOPY RETURNDATASIZE PUSH0 REVERT JUMPDEST POP POP POP POP PUSH1 0x40 MLOAD RETURNDATASIZE PUSH1 0x1F NOT PUSH1 0x1F DUP3 ADD AND DUP3 ADD DUP1 PUSH1 0x40 MSTORE POP DUP2 ADD SWAP1 PUSH2 0x2A60 SWAP2 SWAP1 PUSH2 0x36B8 JUMP JUMPDEST SWAP6 POP JUMPDEST PUSH0 DUP2 GT ISZERO PUSH2 0x2B74 JUMPI PUSH2 0x2AD6 PUSH32 0x0 DUP3 PUSH32 0x0 PUSH20 0xFFFFFFFFFFFFFFFFFFFFFFFFFFFFFFFFFFFFFFFF AND PUSH2 0x2F0B SWAP1 SWAP3 SWAP2 SWAP1 PUSH4 0xFFFFFFFF AND JUMP JUMPDEST PUSH32 0x0 PUSH20 0xFFFFFFFFFFFFFFFFFFFFFFFFFFFFFFFFFFFFFFFF AND PUSH4 0x6E553F65 DUP3 ADDRESS PUSH1 0x40 MLOAD DUP4 PUSH4 0xFFFFFFFF AND PUSH1 0xE0 SHL DUP2 MSTORE PUSH1 0x4 ADD PUSH2 0x2B31 SWAP3 SWAP2 SWAP1 PUSH2 0x395E JUMP JUMPDEST PUSH1 0x20 PUSH1 0x40 MLOAD DUP1 DUP4 SUB DUP2 PUSH0 DUP8 GAS CALL ISZERO DUP1 ISZERO PUSH2 0x2B4D JUMPI RETURNDATASIZE PUSH0 PUSH0 RETURNDATACOPY RETURNDATASIZE PUSH0 REVERT JUMPDEST POP POP POP POP PUSH1 0x40 MLOAD RETURNDATASIZE PUSH1 0x1F NOT PUSH1 0x1F DUP3 ADD AND DUP3 ADD DUP1 PUSH1 0x40 MSTORE POP DUP2 ADD SWAP1 PUSH2 0x2B71 SWAP2 SWAP1 PUSH2 0x36B8 JUMP JUMPDEST SWAP5 POP JUMPDEST PUSH0 PUSH1 0x1 PUSH0 CALLER PUSH20 0xFFFFFFFFFFFFFFFFFFFFFFFFFFFFFFFFFFFFFFFF AND PUSH20 0xFFFFFFFFFFFFFFFFFFFFFFFFFFFFFFFFFFFFFFFF AND DUP2 MSTORE PUSH1 0x20 ADD SWAP1 DUP2 MSTORE PUSH1 0x20 ADD PUSH0 KECCAK256 SWAP1 POP DUP8 DUP2 PUSH0 ADD PUSH0 DUP3 DUP3 SLOAD PUSH2 0x2BC6 SWAP2 SWAP1 PUSH2 0x3716 JUMP JUMPDEST SWAP3 POP POP DUP2 SWAP1 SSTORE POP DUP7 DUP2 PUSH1 0x1 ADD PUSH0 DUP3 DUP3 SLOAD PUSH2 0x2BE0 SWAP2 SWAP1 PUSH2 0x3716 JUMP JUMPDEST SWAP3 POP POP DUP2 SWAP1 SSTORE POP DUP6 DUP2 PUSH1 0x2 ADD PUSH0 DUP3 DUP3 SLOAD PUSH2 0x2BFA SWAP2 SWAP1 PUSH2 0x3716 JUMP JUMPDEST SWAP3 POP POP DUP2 SWAP1 SSTORE POP DUP9 DUP2 PUSH1 0x3 ADD PUSH0 DUP3 DUP3 SLOAD PUSH2 0x2C14 SWAP2 SWAP1 PUSH2 0x3716 JUMP JUMPDEST SWAP3 POP POP DUP2 SWAP1 SSTORE POP TIMESTAMP DUP2 PUSH1 0x4 ADD DUP2 SWAP1 SSTORE POP CALLER PUSH20 0xFFFFFFFFFFFFFFFFFFFFFFFFFFFFFFFFFFFFFFFF AND PUSH32 0xE3B53CD1A44FBF11535E145D80B8EF1ED6D57A73BF5DAA7E939B6B01657D6549 DUP11 DUP11 DUP11 DUP11 PUSH1 0x40 MLOAD PUSH2 0x2C70 SWAP5 SWAP4 SWAP3 SWAP2 SWAP1 PUSH2 0x350F JUMP JUMPDEST PUSH1 0x40 MLOAD DUP1 SWAP2 SUB SWAP1 LOG2 POP POP POP POP POP PUSH2 0x2C85 PUSH2 0x2DA9 JUMP JUMPDEST SWAP2 SWAP4 SWAP1 SWAP3 POP JUMP JUMPDEST PUSH32 0x0 DUP2 JUMP JUMPDEST PUSH2 0x2CB8 PUSH2 0x2DC3 JUMP JUMPDEST PUSH0 PUSH20 0xFFFFFFFFFFFFFFFFFFFFFFFFFFFFFFFFFFFFFFFF AND DUP2 PUSH20 0xFFFFFFFFFFFFFFFFFFFFFFFFFFFFFFFFFFFFFFFF AND SUB PUSH2 0x2D28 JUMPI PUSH0 PUSH1 0x40 MLOAD PUSH32 0x1E4FBDF700000000000000000000000000000000000000000000000000000000 DUP2 MSTORE PUSH1 0x4 ADD PUSH2 0x2D1F SWAP2 SWAP1 PUSH2 0x3552 JUMP JUMPDEST PUSH1 0x40 MLOAD DUP1 SWAP2 SUB SWAP1 REVERT JUMPDEST PUSH2 0x2D31 DUP2 PUSH2 0x2E4A JUMP JUMPDEST POP JUMP JUMPDEST PUSH2 0x2D3C PUSH2 0x3012 JUMP JUMPDEST PUSH1 0x2 PUSH2 0x2D4E PUSH2 0x2D49 PUSH2 0x3053 JUMP JUMPDEST PUSH2 0x307C JUMP JUMPDEST PUSH0 ADD DUP2 SWAP1 SSTORE POP JUMP JUMPDEST PUSH2 0x2D63 DUP4 DUP4 DUP4 PUSH1 0x1 PUSH2 0x3085 JUMP JUMPDEST PUSH2 0x2DA4 JUMPI DUP3 PUSH1 0x40 MLOAD PUSH32 0x5274AFE700000000000000000000000000000000000000000000000000000000 DUP2 MSTORE PUSH1 0x4 ADD PUSH2 0x2D9B SWAP2 SWAP1 PUSH2 0x3552 JUMP JUMPDEST PUSH1 0x40 MLOAD DUP1 SWAP2 SUB SWAP1 REVERT JUMPDEST POP POP POP JUMP JUMPDEST PUSH1 0x1 PUSH2 0x2DBB PUSH2 0x2DB6 PUSH2 0x3053 JUMP JUMPDEST PUSH2 0x307C JUMP JUMPDEST PUSH0 ADD DUP2 SWAP1 SSTORE POP JUMP JUMPDEST PUSH2 0x2DCB PUSH2 0x30E7 JUMP JUMPDEST PUSH20 0xFFFFFFFFFFFFFFFFFFFFFFFFFFFFFFFFFFFFFFFF AND PUSH2 0x2DE9 PUSH2 0x2230 JUMP JUMPDEST PUSH20 0xFFFFFFFFFFFFFFFFFFFFFFFFFFFFFFFFFFFFFFFF AND EQ PUSH2 0x2E48 JUMPI PUSH2 0x2E0C PUSH2 0x30E7 JUMP JUMPDEST PUSH1 0x40 MLOAD PUSH32 0x118CDAA700000000000000000000000000000000000000000000000000000000 DUP2 MSTORE PUSH1 0x4 ADD PUSH2 0x2E3F SWAP2 SWAP1 PUSH2 0x3552 JUMP JUMPDEST PUSH1 0x40 MLOAD DUP1 SWAP2 SUB SWAP1 REVERT JUMPDEST JUMP JUMPDEST PUSH0 PUSH0 PUSH0 SWAP1 SLOAD SWAP1 PUSH2 0x100 EXP SWAP1 DIV PUSH20 0xFFFFFFFFFFFFFFFFFFFFFFFFFFFFFFFFFFFFFFFF AND SWAP1 POP DUP2 PUSH0 PUSH0 PUSH2 0x100 EXP DUP2 SLOAD DUP2 PUSH20 0xFFFFFFFFFFFFFFFFFFFFFFFFFFFFFFFFFFFFFFFF MUL NOT AND SWAP1 DUP4 PUSH20 0xFFFFFFFFFFFFFFFFFFFFFFFFFFFFFFFFFFFFFFFF AND MUL OR SWAP1 SSTORE POP DUP2 PUSH20 0xFFFFFFFFFFFFFFFFFFFFFFFFFFFFFFFFFFFFFFFF AND DUP2 PUSH20 0xFFFFFFFFFFFFFFFFFFFFFFFFFFFFFFFFFFFFFFFF AND PUSH32 0x8BE0079C531659141344CD1FD0A4F28419497F9722A3DAAFE3B4186F6B6457E0 PUSH1 0x40 MLOAD PUSH1 0x40 MLOAD DUP1 SWAP2 SUB SWAP1 LOG3 POP POP JUMP JUMPDEST PUSH2 0x2F17 DUP4 DUP4 DUP4 PUSH0 PUSH2 0x30EE JUMP JUMPDEST PUSH2 0x2FB8 JUMPI PUSH2 0x2F28 DUP4 DUP4 PUSH0 PUSH1 0x1 PUSH2 0x30EE JUMP JUMPDEST PUSH2 0x2F69 JUMPI DUP3 PUSH1 0x40 MLOAD PUSH32 0x5274AFE700000000000000000000000000000000000000000000000000000000 DUP2 MSTORE PUSH1 0x4 ADD PUSH2 0x2F60 SWAP2 SWAP1 PUSH2 0x3552 JUMP JUMPDEST PUSH1 0x40 MLOAD DUP1 SWAP2 SUB SWAP1 REVERT JUMPDEST PUSH2 0x2F76 DUP4 DUP4 DUP4 PUSH1 0x1 PUSH2 0x30EE JUMP JUMPDEST PUSH2 0x2FB7 JUMPI DUP3 PUSH1 0x40 MLOAD PUSH32 0x5274AFE700000000000000000000000000000000000000000000000000000000 DUP2 MSTORE PUSH1 0x4 ADD PUSH2 0x2FAE SWAP2 SWAP1 PUSH2 0x3552 JUMP JUMPDEST PUSH1 0x40 MLOAD DUP1 SWAP2 SUB SWAP1 REVERT JUMPDEST JUMPDEST POP POP POP JUMP JUMPDEST PUSH2 0x2FCB DUP5 DUP5 DUP5 DUP5 PUSH1 0x1 PUSH2 0x3150 JUMP JUMPDEST PUSH2 0x300C JUMPI DUP4 PUSH1 0x40 MLOAD PUSH32 0x5274AFE700000000000000000000000000000000000000000000000000000000 DUP2 MSTORE PUSH1 0x4 ADD PUSH2 0x3003 SWAP2 SWAP1 PUSH2 0x3552 JUMP JUMPDEST PUSH1 0x40 MLOAD DUP1 SWAP2 SUB SWAP1 REVERT JUMPDEST POP POP POP POP JUMP JUMPDEST PUSH2 0x301A PUSH2 0x31C1 JUMP JUMPDEST ISZERO PUSH2 0x3051 JUMPI PUSH1 0x40 MLOAD PUSH32 0x3EE5AEB500000000000000000000000000000000000000000000000000000000 DUP2 MSTORE PUSH1 0x4 ADD PUSH1 0x40 MLOAD DUP1 SWAP2 SUB SWAP1 REVERT JUMPDEST JUMP JUMPDEST PUSH0 PUSH32 0x9B779B17422D0DF92223018B32B4D1FA46E071723D6817E2486D003BECC55F00 PUSH0 SHL SWAP1 POP SWAP1 JUMP JUMPDEST PUSH0 DUP2 SWAP1 POP SWAP2 SWAP1 POP JUMP JUMPDEST PUSH0 PUSH0 PUSH4 0xA9059CBB PUSH1 0xE0 SHL SWAP1 POP PUSH1 0x40 MLOAD DUP2 PUSH0 MSTORE PUSH0 NOT PUSH1 0x60 SHR DUP7 AND PUSH1 0x4 MSTORE DUP5 PUSH1 0x24 MSTORE PUSH1 0x20 PUSH0 PUSH1 0x44 PUSH0 PUSH0 DUP12 GAS CALL SWAP3 POP PUSH1 0x1 PUSH0 MLOAD EQ DUP4 AND PUSH2 0x30D9 JUMPI DUP4 DUP4 ISZERO AND ISZERO PUSH2 0x30CD JUMPI RETURNDATASIZE PUSH0 DUP3 RETURNDATACOPY RETURNDATASIZE DUP2 REVERT JUMPDEST PUSH0 DUP8 EXTCODESIZE GT RETURNDATASIZE ISZERO AND DUP4 AND SWAP3 POP JUMPDEST DUP1 PUSH1 0x40 MSTORE POP POP SWAP5 SWAP4 POP POP POP POP JUMP JUMPDEST PUSH0 CALLER SWAP1 POP SWAP1 JUMP JUMPDEST PUSH0 PUSH0 PUSH4 0x95EA7B3 PUSH1 0xE0 SHL SWAP1 POP PUSH1 0x40 MLOAD DUP2 PUSH0 MSTORE PUSH0 NOT PUSH1 0x60 SHR DUP7 AND PUSH1 0x4 MSTORE DUP5 PUSH1 0x24 MSTORE PUSH1 0x20 PUSH0 PUSH1 0x44 PUSH0 PUSH0 DUP12 GAS CALL SWAP3 POP PUSH1 0x1 PUSH0 MLOAD EQ DUP4 AND PUSH2 0x3142 JUMPI DUP4 DUP4 ISZERO AND ISZERO PUSH2 0x3136 JUMPI RETURNDATASIZE PUSH0 DUP3 RETURNDATACOPY RETURNDATASIZE DUP2 REVERT JUMPDEST PUSH0 DUP8 EXTCODESIZE GT RETURNDATASIZE ISZERO AND DUP4 AND SWAP3 POP JUMPDEST DUP1 PUSH1 0x40 MSTORE POP POP SWAP5 SWAP4 POP POP POP POP JUMP JUMPDEST PUSH0 PUSH0 PUSH4 0x23B872DD PUSH1 0xE0 SHL SWAP1 POP PUSH1 0x40 MLOAD DUP2 PUSH0 MSTORE PUSH0 NOT PUSH1 0x60 SHR DUP8 AND PUSH1 0x4 MSTORE PUSH0 NOT PUSH1 0x60 SHR DUP7 AND PUSH1 0x24 MSTORE DUP5 PUSH1 0x44 MSTORE PUSH1 0x20 PUSH0 PUSH1 0x64 PUSH0 PUSH0 DUP13 GAS CALL SWAP3 POP PUSH1 0x1 PUSH0 MLOAD EQ DUP4 AND PUSH2 0x31AE JUMPI DUP4 DUP4 ISZERO AND ISZERO PUSH2 0x31A2 JUMPI RETURNDATASIZE PUSH0 DUP3 RETURNDATACOPY RETURNDATASIZE DUP2 REVERT JUMPDEST PUSH0 DUP9 EXTCODESIZE GT RETURNDATASIZE ISZERO AND DUP4 AND SWAP3 POP JUMPDEST DUP1 PUSH1 0x40 MSTORE PUSH0 PUSH1 0x60 MSTORE POP POP SWAP6 SWAP5 POP POP POP POP POP JUMP JUMPDEST PUSH0 PUSH1 0x2 PUSH2 0x31D4 PUSH2 0x31CF PUSH2 0x3053 JUMP JUMPDEST PUSH2 0x307C JUMP JUMPDEST PUSH0 ADD SLOAD EQ SWAP1 POP SWAP1 JUMP JUMPDEST PUSH0 PUSH1 0x40 MLOAD SWAP1 POP SWAP1 JUMP JUMPDEST PUSH0 PUSH0 REVERT JUMPDEST PUSH0 DUP2 SWAP1 POP SWAP2 SWAP1 POP JUMP JUMPDEST PUSH2 0x31FC DUP2 PUSH2 0x31EA JUMP JUMPDEST DUP2 EQ PUSH2 0x3206 JUMPI PUSH0 PUSH0 REVERT JUMPDEST POP JUMP JUMPDEST PUSH0 DUP2 CALLDATALOAD SWAP1 POP PUSH2 0x3217 DUP2 PUSH2 0x31F3 JUMP JUMPDEST SWAP3 SWAP2 POP POP JUMP JUMPDEST PUSH0 PUSH1 0x20 DUP3 DUP5 SUB SLT ISZERO PUSH2 0x3232 JUMPI PUSH2 0x3231 PUSH2 0x31E6 JUMP JUMPDEST JUMPDEST PUSH0 PUSH2 0x323F DUP5 DUP3 DUP6 ADD PUSH2 0x3209 JUMP JUMPDEST SWAP2 POP POP SWAP3 SWAP2 POP POP JUMP JUMPDEST PUSH2 0x3251 DUP2 PUSH2 0x31EA JUMP JUMPDEST DUP3 MSTORE POP POP JUMP JUMPDEST PUSH0 PUSH1 0x20 DUP3 ADD SWAP1 POP PUSH2 0x326A PUSH0 DUP4 ADD DUP5 PUSH2 0x3248 JUMP JUMPDEST SWAP3 SWAP2 POP POP JUMP JUMPDEST PUSH0 PUSH20 0xFFFFFFFFFFFFFFFFFFFFFFFFFFFFFFFFFFFFFFFF DUP3 AND SWAP1 POP SWAP2 SWAP1 POP JUMP JUMPDEST PUSH0 DUP2 SWAP1 POP SWAP2 SWAP1 POP JUMP JUMPDEST PUSH0 PUSH2 0x32B2 PUSH2 0x32AD PUSH2 0x32A8 DUP5 PUSH2 0x3270 JUMP JUMPDEST PUSH2 0x328F JUMP JUMPDEST PUSH2 0x3270 JUMP JUMPDEST SWAP1 POP SWAP2 SWAP1 POP JUMP JUMPDEST PUSH0 PUSH2 0x32C3 DUP3 PUSH2 0x3298 JUMP JUMPDEST SWAP1 POP SWAP2 SWAP1 POP JUMP JUMPDEST PUSH0 PUSH2 0x32D4 DUP3 PUSH2 0x32B9 JUMP JUMPDEST SWAP1 POP SWAP2 SWAP1 POP JUMP JUMPDEST PUSH2 0x32E4 DUP2 PUSH2 0x32CA JUMP JUMPDEST DUP3 MSTORE POP POP JUMP JUMPDEST PUSH0 PUSH1 0x20 DUP3 ADD SWAP1 POP PUSH2 0x32FD PUSH0 DUP4 ADD DUP5 PUSH2 0x32DB JUMP JUMPDEST SWAP3 SWAP2 POP POP JUMP JUMPDEST PUSH0 PUSH2 0x330D DUP3 PUSH2 0x3270 JUMP JUMPDEST SWAP1 POP SWAP2 SWAP1 POP JUMP JUMPDEST PUSH2 0x331D DUP2 PUSH2 0x3303 JUMP JUMPDEST DUP3 MSTORE POP POP JUMP JUMPDEST PUSH0 PUSH1 0x60 DUP3 ADD SWAP1 POP PUSH2 0x3336 PUSH0 DUP4 ADD DUP7 PUSH2 0x3314 JUMP JUMPDEST PUSH2 0x3343 PUSH1 0x20 DUP4 ADD DUP6 PUSH2 0x3314 JUMP JUMPDEST PUSH2 0x3350 PUSH1 0x40 DUP4 ADD DUP5 PUSH2 0x3314 JUMP JUMPDEST SWAP5 SWAP4 POP POP POP POP JUMP JUMPDEST PUSH0 PUSH1 0x60 DUP3 ADD SWAP1 POP PUSH2 0x336B PUSH0 DUP4 ADD DUP7 PUSH2 0x3248 JUMP JUMPDEST PUSH2 0x3378 PUSH1 0x20 DUP4 ADD DUP6 PUSH2 0x3248 JUMP JUMPDEST PUSH2 0x3385 PUSH1 0x40 DUP4 ADD DUP5 PUSH2 0x3248 JUMP JUMPDEST SWAP5 SWAP4 POP POP POP POP JUMP JUMPDEST PUSH2 0x3396 DUP2 PUSH2 0x3303 JUMP JUMPDEST DUP2 EQ PUSH2 0x33A0 JUMPI PUSH0 PUSH0 REVERT JUMPDEST POP JUMP JUMPDEST PUSH0 DUP2 CALLDATALOAD SWAP1 POP PUSH2 0x33B1 DUP2 PUSH2 0x338D JUMP JUMPDEST SWAP3 SWAP2 POP POP JUMP JUMPDEST PUSH0 PUSH1 0x20 DUP3 DUP5 SUB SLT ISZERO PUSH2 0x33CC JUMPI PUSH2 0x33CB PUSH2 0x31E6 JUMP JUMPDEST JUMPDEST PUSH0 PUSH2 0x33D9 DUP5 DUP3 DUP6 ADD PUSH2 0x33A3 JUMP JUMPDEST SWAP2 POP POP SWAP3 SWAP2 POP POP JUMP JUMPDEST PUSH0 DUP2 SWAP1 POP SWAP2 SWAP1 POP JUMP JUMPDEST PUSH2 0x33F4 DUP2 PUSH2 0x33E2 JUMP JUMPDEST DUP3 MSTORE POP POP JUMP JUMPDEST PUSH0 PUSH2 0x120 DUP3 ADD SWAP1 POP PUSH2 0x340E PUSH0 DUP4 ADD DUP13 PUSH2 0x3248 JUMP JUMPDEST PUSH2 0x341B PUSH1 0x20 DUP4 ADD DUP12 PUSH2 0x3248 JUMP JUMPDEST PUSH2 0x3428 PUSH1 0x40 DUP4 ADD DUP11 PUSH2 0x3248 JUMP JUMPDEST PUSH2 0x3435 PUSH1 0x60 DUP4 ADD DUP10 PUSH2 0x3248 JUMP JUMPDEST PUSH2 0x3442 PUSH1 0x80 DUP4 ADD DUP9 PUSH2 0x3248 JUMP JUMPDEST PUSH2 0x344F PUSH1 0xA0 DUP4 ADD DUP8 PUSH2 0x3248 JUMP JUMPDEST PUSH2 0x345C PUSH1 0xC0 DUP4 ADD DUP7 PUSH2 0x3248 JUMP JUMPDEST PUSH2 0x3469 PUSH1 0xE0 DUP4 ADD DUP6 PUSH2 0x3248 JUMP JUMPDEST PUSH2 0x3477 PUSH2 0x100 DUP4 ADD DUP5 PUSH2 0x33EB JUMP JUMPDEST SWAP11 SWAP10 POP POP POP POP POP POP POP POP POP POP JUMP JUMPDEST PUSH0 PUSH1 0xA0 DUP3 ADD SWAP1 POP PUSH2 0x3498 PUSH0 DUP4 ADD DUP9 PUSH2 0x3248 JUMP JUMPDEST PUSH2 0x34A5 PUSH1 0x20 DUP4 ADD DUP8 PUSH2 0x3248 JUMP JUMPDEST PUSH2 0x34B2 PUSH1 0x40 DUP4 ADD DUP7 PUSH2 0x3248 JUMP JUMPDEST PUSH2 0x34BF PUSH1 0x60 DUP4 ADD DUP6 PUSH2 0x3248 JUMP JUMPDEST PUSH2 0x34CC PUSH1 0x80 DUP4 ADD DUP5 PUSH2 0x3248 JUMP JUMPDEST SWAP7 SWAP6 POP POP POP POP POP POP JUMP JUMPDEST PUSH0 PUSH2 0x34E0 DUP3 PUSH2 0x32B9 JUMP JUMPDEST SWAP1 POP SWAP2 SWAP1 POP JUMP JUMPDEST PUSH2 0x34F0 DUP2 PUSH2 0x34D6 JUMP JUMPDEST DUP3 MSTORE POP POP JUMP JUMPDEST PUSH0 PUSH1 0x20 DUP3 ADD SWAP1 POP PUSH2 0x3509 PUSH0 DUP4 ADD DUP5 PUSH2 0x34E7 JUMP JUMPDEST SWAP3 SWAP2 POP POP JUMP JUMPDEST PUSH0 PUSH1 0x80 DUP3 ADD SWAP1 POP PUSH2 0x3522 PUSH0 DUP4 ADD DUP8 PUSH2 0x3248 JUMP JUMPDEST PUSH2 0x352F PUSH1 0x20 DUP4 ADD DUP7 PUSH2 0x3248 JUMP JUMPDEST PUSH2 0x353C PUSH1 0x40 DUP4 ADD DUP6 PUSH2 0x3248 JUMP JUMPDEST PUSH2 0x3549 PUSH1 0x60 DUP4 ADD DUP5 PUSH2 0x3248 JUMP JUMPDEST SWAP6 SWAP5 POP POP POP POP POP JUMP JUMPDEST PUSH0 PUSH1 0x20 DUP3 ADD SWAP1 POP PUSH2 0x3565 PUSH0 DUP4 ADD DUP5 PUSH2 0x3314 JUMP JUMPDEST SWAP3 SWAP2 POP POP JUMP JUMPDEST PUSH0 PUSH2 0x3575 DUP3 PUSH2 0x32B9 JUMP JUMPDEST SWAP1 POP SWAP2 SWAP1 POP JUMP JUMPDEST PUSH2 0x3585 DUP2 PUSH2 0x356B JUMP JUMPDEST DUP3 MSTORE POP POP JUMP JUMPDEST PUSH0 PUSH1 0x20 DUP3 ADD SWAP1 POP PUSH2 0x359E PUSH0 DUP4 ADD DUP5 PUSH2 0x357C JUMP JUMPDEST SWAP3 SWAP2 POP POP JUMP JUMPDEST PUSH32 0x4E487B7100000000000000000000000000000000000000000000000000000000 PUSH0 MSTORE PUSH1 0x11 PUSH1 0x4 MSTORE PUSH1 0x24 PUSH0 REVERT JUMPDEST PUSH0 PUSH2 0x35DB DUP3 PUSH2 0x31EA JUMP JUMPDEST SWAP2 POP PUSH2 0x35E6 DUP4 PUSH2 0x31EA JUMP JUMPDEST SWAP3 POP DUP3 DUP3 MUL PUSH2 0x35F4 DUP2 PUSH2 0x31EA JUMP JUMPDEST SWAP2 POP DUP3 DUP3 DIV DUP5 EQ DUP4 ISZERO OR PUSH2 0x360B JUMPI PUSH2 0x360A PUSH2 0x35A4 JUMP JUMPDEST JUMPDEST POP SWAP3 SWAP2 POP POP JUMP JUMPDEST PUSH32 0x4E487B7100000000000000000000000000000000000000000000000000000000 PUSH0 MSTORE PUSH1 0x12 PUSH1 0x4 MSTORE PUSH1 0x24 PUSH0 REVERT JUMPDEST PUSH0 PUSH2 0x3649 DUP3 PUSH2 0x31EA JUMP JUMPDEST SWAP2 POP PUSH2 0x3654 DUP4 PUSH2 0x31EA JUMP JUMPDEST SWAP3 POP DUP3 PUSH2 0x3664 JUMPI PUSH2 0x3663 PUSH2 0x3612 JUMP JUMPDEST JUMPDEST DUP3 DUP3 DIV SWAP1 POP SWAP3 SWAP2 POP POP JUMP JUMPDEST PUSH0 PUSH1 0x60 DUP3 ADD SWAP1 POP PUSH2 0x3682 PUSH0 DUP4 ADD DUP7 PUSH2 0x3248 JUMP JUMPDEST PUSH2 0x368F PUSH1 0x20 DUP4 ADD DUP6 PUSH2 0x3314 JUMP JUMPDEST PUSH2 0x369C PUSH1 0x40 DUP4 ADD DUP5 PUSH2 0x3314 JUMP JUMPDEST SWAP5 SWAP4 POP POP POP POP JUMP JUMPDEST PUSH0 DUP2 MLOAD SWAP1 POP PUSH2 0x36B2 DUP2 PUSH2 0x31F3 JUMP JUMPDEST SWAP3 SWAP2 POP POP JUMP JUMPDEST PUSH0 PUSH1 0x20 DUP3 DUP5 SUB SLT ISZERO PUSH2 0x36CD JUMPI PUSH2 0x36CC PUSH2 0x31E6 JUMP JUMPDEST JUMPDEST PUSH0 PUSH2 0x36DA DUP5 DUP3 DUP6 ADD PUSH2 0x36A4 JUMP JUMPDEST SWAP2 POP POP SWAP3 SWAP2 POP POP JUMP JUMPDEST PUSH0 PUSH2 0x36ED DUP3 PUSH2 0x31EA JUMP JUMPDEST SWAP2 POP PUSH2 0x36F8 DUP4 PUSH2 0x31EA JUMP JUMPDEST SWAP3 POP DUP3 DUP3 SUB SWAP1 POP DUP2 DUP2 GT ISZERO PUSH2 0x3710 JUMPI PUSH2 0x370F PUSH2 0x35A4 JUMP JUMPDEST JUMPDEST SWAP3 SWAP2 POP POP JUMP JUMPDEST PUSH0 PUSH2 0x3720 DUP3 PUSH2 0x31EA JUMP JUMPDEST SWAP2 POP PUSH2 0x372B DUP4 PUSH2 0x31EA JUMP JUMPDEST SWAP3 POP DUP3 DUP3 ADD SWAP1 POP DUP1 DUP3 GT ISZERO PUSH2 0x3743 JUMPI PUSH2 0x3742 PUSH2 0x35A4 JUMP JUMPDEST JUMPDEST SWAP3 SWAP2 POP POP JUMP JUMPDEST PUSH0 PUSH1 0x40 DUP3 ADD SWAP1 POP PUSH2 0x375C PUSH0 DUP4 ADD DUP6 PUSH2 0x3248 JUMP JUMPDEST PUSH2 0x3769 PUSH1 0x20 DUP4 ADD DUP5 PUSH2 0x3248 JUMP JUMPDEST SWAP4 SWAP3 POP POP POP JUMP JUMPDEST PUSH0 PUSH2 0x377A DUP3 PUSH2 0x33E2 JUMP JUMPDEST SWAP2 POP PUSH2 0x3785 DUP4 PUSH2 0x33E2 JUMP JUMPDEST SWAP3 POP DUP3 DUP3 SUB SWAP1 POP DUP2 DUP2 SLT PUSH0 DUP5 SLT AND DUP3 DUP3 SGT PUSH0 DUP6 SLT ISZERO AND OR ISZERO PUSH2 0x37AA JUMPI PUSH2 0x37A9 PUSH2 0x35A4 JUMP JUMPDEST JUMPDEST SWAP3 SWAP2 POP POP JUMP JUMPDEST PUSH0 DUP2 ISZERO ISZERO SWAP1 POP SWAP2 SWAP1 POP JUMP JUMPDEST PUSH2 0x37C4 DUP2 PUSH2 0x37B0 JUMP JUMPDEST DUP2 EQ PUSH2 0x37CE JUMPI PUSH0 PUSH0 REVERT JUMPDEST POP JUMP JUMPDEST PUSH0 DUP2 MLOAD SWAP1 POP PUSH2 0x37DF DUP2 PUSH2 0x37BB JUMP JUMPDEST SWAP3 SWAP2 POP POP JUMP JUMPDEST PUSH0 PUSH1 0x20 DUP3 DUP5 SUB SLT ISZERO PUSH2 0x37FA JUMPI PUSH2 0x37F9 PUSH2 0x31E6 JUMP JUMPDEST JUMPDEST PUSH0 PUSH2 0x3807 DUP5 DUP3 DUP6 ADD PUSH2 0x37D1 JUMP JUMPDEST SWAP2 POP POP SWAP3 SWAP2 POP POP JUMP JUMPDEST PUSH0 PUSH0 REVERT JUMPDEST PUSH0 PUSH1 0x1F NOT PUSH1 0x1F DUP4 ADD AND SWAP1 POP SWAP2 SWAP1 POP JUMP JUMPDEST PUSH32 0x4E487B7100000000000000000000000000000000000000000000000000000000 PUSH0 MSTORE PUSH1 0x41 PUSH1 0x4 MSTORE PUSH1 0x24 PUSH0 REVERT JUMPDEST PUSH2 0x385A DUP3 PUSH2 0x3814 JUMP JUMPDEST DUP2 ADD DUP2 DUP2 LT PUSH8 0xFFFFFFFFFFFFFFFF DUP3 GT OR ISZERO PUSH2 0x3879 JUMPI PUSH2 0x3878 PUSH2 0x3824 JUMP JUMPDEST JUMPDEST DUP1 PUSH1 0x40 MSTORE POP POP POP JUMP JUMPDEST PUSH0 PUSH2 0x388B PUSH2 0x31DD JUMP JUMPDEST SWAP1 POP PUSH2 0x3897 DUP3 DUP3 PUSH2 0x3851 JUMP JUMPDEST SWAP2 SWAP1 POP JUMP JUMPDEST PUSH0 PUSH1 0xFF DUP3 AND SWAP1 POP SWAP2 SWAP1 POP JUMP JUMPDEST PUSH2 0x38B1 DUP2 PUSH2 0x389C JUMP JUMPDEST DUP2 EQ PUSH2 0x38BB JUMPI PUSH0 PUSH0 REVERT JUMPDEST POP JUMP JUMPDEST PUSH0 DUP2 MLOAD SWAP1 POP PUSH2 0x38CC DUP2 PUSH2 0x38A8 JUMP JUMPDEST SWAP3 SWAP2 POP POP JUMP JUMPDEST PUSH0 PUSH1 0x60 DUP3 DUP5 SUB SLT ISZERO PUSH2 0x38E7 JUMPI PUSH2 0x38E6 PUSH2 0x3810 JUMP JUMPDEST JUMPDEST PUSH2 0x38F1 PUSH1 0x60 PUSH2 0x3882 JUMP JUMPDEST SWAP1 POP PUSH0 PUSH2 0x3900 DUP5 DUP3 DUP6 ADD PUSH2 0x38BE JUMP JUMPDEST PUSH0 DUP4 ADD MSTORE POP PUSH1 0x20 PUSH2 0x3913 DUP5 DUP3 DUP6 ADD PUSH2 0x38BE JUMP JUMPDEST PUSH1 0x20 DUP4 ADD MSTORE POP PUSH1 0x40 PUSH2 0x3927 DUP5 DUP3 DUP6 ADD PUSH2 0x38BE JUMP JUMPDEST PUSH1 0x40 DUP4 ADD MSTORE POP SWAP3 SWAP2 POP POP JUMP JUMPDEST PUSH0 PUSH1 0x60 DUP3 DUP5 SUB SLT ISZERO PUSH2 0x3948 JUMPI PUSH2 0x3947 PUSH2 0x31E6 JUMP JUMPDEST JUMPDEST PUSH0 PUSH2 0x3955 DUP5 DUP3 DUP6 ADD PUSH2 0x38D2 JUMP JUMPDEST SWAP2 POP POP SWAP3 SWAP2 POP POP JUMP JUMPDEST PUSH0 PUSH1 0x40 DUP3 ADD SWAP1 POP PUSH2 0x3971 PUSH0 DUP4 ADD DUP6 PUSH2 0x3248 JUMP JUMPDEST PUSH2 0x397E PUSH1 0x20 DUP4 ADD DUP5 PUSH2 0x3314 JUMP JUMPDEST SWAP4 SWAP3 POP POP POP JUMP INVALID LOG2 PUSH5 0x6970667358 0x22 SLT KECCAK256 0xBF EXTCALL 0x29 SDIV PUSH5 0xDFEA5F2D65 0x2F SLT 0xB9 PUSH28 0x564B847CC5BE39A579F77D727D1B70BD642664736F6C634300081E00 CALLER "
				},
				"gasEstimates": {
					"creation": {
						"codeDepositCost": "2955800",
						"executionCost": "infinite",
						"totalCost": "infinite"
					},
					"external": {
						"deposit(uint256)": "infinite",
						"depositToken()": "infinite",
						"getProtocolStats()": "infinite",
						"getUserEstimatedAPY(address)": "infinite",
						"getUserPosition(address)": "infinite",
						"getUserTotalValue(address)": "infinite",
						"getUserVaultShares(address)": "infinite",
						"getVaultAPYs()": "infinite",
						"getVaults()": "infinite",
						"highRiskVault()": "infinite",
						"lowRiskVault()": "infinite",
						"medRiskVault()": "infinite",
						"owner()": "2581",
						"rebalance()": "infinite",
						"renounceOwnership()": "infinite",
						"riskNFT()": "infinite",
						"transferOwnership(address)": "infinite",
						"userPositions(address)": "infinite",
						"withdrawAll()": "infinite",
						"withdrawPartial(uint256)": "infinite"
					}
				},
				"methodIdentifiers": {
					"deposit(uint256)": "b6b55f25",
					"depositToken()": "c89039c5",
					"getProtocolStats()": "771aceef",
					"getUserEstimatedAPY(address)": "7ebb8971",
					"getUserPosition(address)": "5b7c2dad",
					"getUserTotalValue(address)": "af3f5e22",
					"getUserVaultShares(address)": "996220eb",
					"getVaultAPYs()": "59b9a642",
					"getVaults()": "44d00f82",
					"highRiskVault()": "2ca8ab4c",
					"lowRiskVault()": "8febd76e",
					"medRiskVault()": "9e79f7e7",
					"owner()": "8da5cb5b",
					"rebalance()": "7d7c2a1c",
					"renounceOwnership()": "715018a6",
					"riskNFT()": "66c0757e",
					"transferOwnership(address)": "f2fde38b",
					"userPositions(address)": "613cf420",
					"withdrawAll()": "853828b6",
					"withdrawPartial(uint256)": "1211540c"
				}
			},
			"storageLayout": {
				"storage": [
					{
						"astId": 8,
						"contract": "src/VaultRouter.sol:VaultRouter",
						"label": "_owner",
						"offset": 0,
						"slot": "0",
						"type": "t_address"
					},
					{
						"astId": 1315,
						"contract": "src/VaultRouter.sol:VaultRouter",
						"label": "userPositions",
						"offset": 0,
						"slot": "1",
						"type": "t_mapping(t_address,t_struct(UserPosition)1295_storage)"
					}
				],
				"types": {
					"t_address": {
						"encoding": "inplace",
						"label": "address",
						"numberOfBytes": "20"
					},
					"t_mapping(t_address,t_struct(UserPosition)1295_storage)": {
						"encoding": "mapping",
						"key": "t_address",
						"label": "mapping(address => struct VaultRouter.UserPosition)",
						"numberOfBytes": "32",
						"value": "t_struct(UserPosition)1295_storage"
					},
					"t_struct(UserPosition)1295_storage": {
						"encoding": "inplace",
						"label": "struct VaultRouter.UserPosition",
						"members": [
							{
								"astId": 1286,
								"contract": "src/VaultRouter.sol:VaultRouter",
								"label": "lowShares",
								"offset": 0,
								"slot": "0",
								"type": "t_uint256"
							},
							{
								"astId": 1288,
								"contract": "src/VaultRouter.sol:VaultRouter",
								"label": "medShares",
								"offset": 0,
								"slot": "1",
								"type": "t_uint256"
							},
							{
								"astId": 1290,
								"contract": "src/VaultRouter.sol:VaultRouter",
								"label": "highShares",
								"offset": 0,
								"slot": "2",
								"type": "t_uint256"
							},
							{
								"astId": 1292,
								"contract": "src/VaultRouter.sol:VaultRouter",
								"label": "totalDeposited",
								"offset": 0,
								"slot": "3",
								"type": "t_uint256"
							},
							{
								"astId": 1294,
								"contract": "src/VaultRouter.sol:VaultRouter",
								"label": "depositTimestamp",
								"offset": 0,
								"slot": "4",
								"type": "t_uint256"
							}
						],
						"numberOfBytes": "160"
					},
					"t_uint256": {
						"encoding": "inplace",
						"label": "uint256",
						"numberOfBytes": "32"
					}
				}
			},
			"userdoc": {
				"kind": "user",
				"methods": {},
				"version": 1
			}
		}
	}
}