{
	"data": {
		"bytecode": {
			"linkReferences": {},
			"object": "60c06040526103e8600855348015610015575f5ffd5b50604051615e1b380380615e1b833981810160405281019061003791906105f1565b33848484816003908161004a919061089d565b50806004908161005a919061089d565b5050505f5f61006e8361021660201b60201c565b915091508161007e576012610080565b805b60ff1660a08160ff16815250508273ffffffffffffffffffffffffffffffffffffffff1660808173ffffffffffffffffffffffffffffffffffffffff16815250505050505f73ffffffffffffffffffffffffffffffffffffffff168173ffffffffffffffffffffffffffffffffffffffff1603610134575f6040517f1e4fbdf700000000000000000000000000000000000000000000000000000000815260040161012b919061097b565b60405180910390fd5b610143816102e260201b60201c565b5060016101626101576103a560201b60201c565b6103ce60201b60201c565b5f01819055505f73ffffffffffffffffffffffffffffffffffffffff168173ffffffffffffffffffffffffffffffffffffffff16036101cd576040517fe6c4247b00000000000000000000000000000000000000000000000000000000815260040160405180910390fd5b8060095f6101000a81548173ffffffffffffffffffffffffffffffffffffffff021916908373ffffffffffffffffffffffffffffffffffffffff16021790555050505050610994565b5f5f5f6102276103d760201b60201c565b90505f5f6102858660405160240160405160208183030381529060405263313ce56760e01b6020820180517bffffffffffffffffffffffffffffffffffffffffffffffffffffffff83818316178352505050506103e060201b60201c565b50915091506102998361040160201b60201c565b8180156102b4575060206102b161040860201b60201c565b10155b80156102c5575060ff8016815f1c11155b6102d0575f5f6102d6565b6001815f1c5b94509450505050915091565b5f60055f9054906101000a900473ffffffffffffffffffffffffffffffffffffffff1690508160055f6101000a81548173ffffffffffffffffffffffffffffffffffffffff021916908373ffffffffffffffffffffffffffffffffffffffff1602179055508173ffffffffffffffffffffffffffffffffffffffff168173ffffffffffffffffffffffffffffffffffffffff167f8be0079c531659141344cd1fd0a4f28419497f9722a3daafe3b4186f6b6457e060405160405180910390a35050565b5f7f9b779b17422d0df92223018b32b4d1fa46e071723d6817e2486d003becc55f005f1b905090565b5f819050919050565b5f604051905090565b5f5f5f60405f855160208701885afa92505f51915060205190509250925092565b8060405250565b5f3d905090565b5f604051905090565b5f5ffd5b5f5ffd5b5f73ffffffffffffffffffffffffffffffffffffffff82169050919050565b5f61044982610420565b9050919050565b5f61045a8261043f565b9050919050565b61046a81610450565b8114610474575f5ffd5b50565b5f8151905061048581610461565b92915050565b5f5ffd5b5f5ffd5b5f601f19601f8301169050919050565b7f4e487b71000000000000000000000000000000000000000000000000000000005f52604160045260245ffd5b6104d982610493565b810181811067ffffffffffffffff821117156104f8576104f76104a3565b5b80604052505050565b5f61050a61040f565b905061051682826104d0565b919050565b5f67ffffffffffffffff821115610535576105346104a3565b5b61053e82610493565b9050602081019050919050565b8281835e5f83830152505050565b5f61056b6105668461051b565b610501565b9050828152602081018484840111156105875761058661048f565b5b61059284828561054b565b509392505050565b5f82601f8301126105ae576105ad61048b565b5b81516105be848260208601610559565b91505092915050565b6105d08161043f565b81146105da575f5ffd5b50565b5f815190506105eb816105c7565b92915050565b5f5f5f5f6080858703121561060957610608610418565b5b5f61061687828801610477565b945050602085015167ffffffffffffffff8111156106375761063661041c565b5b6106438782880161059a565b935050604085015167ffffffffffffffff8111156106645761066361041c565b5b6106708782880161059a565b9250506060610681878288016105dd565b91505092959194509250565b5f81519050919050565b7f4e487b71000000000000000000000000000000000000000000000000000000005f52602260045260245ffd5b5f60028204905060018216806106db57607f821691505b6020821081036106ee576106ed610697565b5b50919050565b5f819050815f5260205f209050919050565b5f6020601f8301049050919050565b5f82821b905092915050565b5f600883026107507fffffffffffffffffffffffffffffffffffffffffffffffffffffffffffffffff82610715565b61075a8683610715565b95508019841693508086168417925050509392505050565b5f819050919050565b5f819050919050565b5f61079e61079961079484610772565b61077b565b610772565b9050919050565b5f819050919050565b6107b783610784565b6107cb6107c3826107a5565b848454610721565b825550505050565b5f5f905090565b6107e26107d3565b6107ed8184846107ae565b505050565b5b81811015610810576108055f826107da565b6001810190506107f3565b5050565b601f82111561085557610826816106f4565b61082f84610706565b8101602085101561083e578190505b61085261084a85610706565b8301826107f2565b50505b505050565b5f82821c905092915050565b5f6108755f198460080261085a565b1980831691505092915050565b5f61088d8383610866565b9150826002028217905092915050565b6108a68261068d565b67ffffffffffffffff8111156108bf576108be6104a3565b5b6108c982546106c4565b6108d4828285610814565b5f60209050601f831160018114610905575f84156108f3578287015190505b6108fd8582610882565b865550610964565b601f198416610913866106f4565b5f5b8281101561093a57848901518255600182019150602085019450602081019050610915565b868310156109575784890151610953601f891682610866565b8355505b6001600288020188555050505b505050505050565b6109758161043f565b82525050565b5f60208201905061098e5f83018461096c565b92915050565b60805160a0516154666109b55f395f610c8301525f610cb401526154665ff3fe608060405234801561000f575f5ffd5b50600436106102b9575f3560e01c806394bf804d11610180578063ce96cb77116100e7578063dd62ed3e116100a0578063f11e7a4f1161007a578063f11e7a4f1461095f578063f19993d71461097b578063f2fde38b14610999578063fde6e8d5146109b5576102b9565b8063dd62ed3e146108e3578063e74b981b14610913578063ef8b30f71461092f576102b9565b8063ce96cb77146107e4578063ceb0f62614610814578063cfc0cc3414610832578063d11f519c14610865578063d574ea3d14610881578063d905777e146108b3576102b9565b8063ba08765211610139578063ba087652146106ea578063bb4cc6761461071a578063c0cbbca61461074a578063c3b2886414610766578063c63d75b614610784578063c6e6f592146107b4576102b9565b806394bf804d146105ee57806395d89b411461061e578063a9059cbb1461063c578063b3d7f6b91461066c578063b460af941461069c578063b9d4e879146106cc576102b9565b8063469048401161022457806370897b23116101dd57806370897b231461055157806370a082311461056d578063715018a61461059d5780637d7c2a1c146105a7578063810eb980146105b15780638da5cb5b146105d0576102b9565b8063469048401461047f5780634b1cf0de1461049d5780634cdad506146104b95780635312ea8e146104e95780636643de84146105055780636e553f6514610521576102b9565b806323b872dd1161027657806323b872dd146103a757806323dc1142146103d7578063313ce567146103f557806338d52e0f14610413578063402d267d146104315780634641257d14610461576102b9565b806301e1d114146102bd57806306fdde03146102db57806307a2d13a146102f9578063095ea7b3146103295780630a28a4771461035957806318160ddd14610389575b5f5ffd5b6102c56109d1565b6040516102d291906142c3565b60405180910390f35b6102e3610b64565b6040516102f0919061434c565b60405180910390f35b610313600480360381019061030e91906143a7565b610bf4565b60405161032091906142c3565b60405180910390f35b610343600480360381019061033e919061442c565b610c06565b6040516103509190614484565b60405180910390f35b610373600480360381019061036e91906143a7565b610c28565b60405161038091906142c3565b60405180910390f35b610391610c3b565b60405161039e91906142c3565b60405180910390f35b6103c160048036038101906103bc919061449d565b610c44565b6040516103ce9190614484565b60405180910390f35b6103df610c72565b6040516103ec91906142c3565b60405180910390f35b6103fd610c78565b60405161040a9190614508565b60405180910390f35b61041b610cb1565b6040516104289190614530565b60405180910390f35b61044b60048036038101906104469190614549565b610cd8565b60405161045891906142c3565b60405180910390f35b610469610d01565b60405161047691906142c3565b60405180910390f35b610487611039565b6040516104949190614530565b60405180910390f35b6104b760048036038101906104b2919061459e565b61105e565b005b6104d360048036038101906104ce91906143a7565b611122565b6040516104e091906142c3565b60405180910390f35b61050360048036038101906104fe91906143a7565b611134565b005b61051f600480360381019061051a91906145ee565b6112d6565b005b61053b6004803603810190610536919061462c565b611384565b60405161054891906142c3565b60405180910390f35b61056b600480360381019061056691906143a7565b611454565b005b61058760048036038101906105829190614549565b6114e2565b60405161059491906142c3565b60405180910390f35b6105a5611527565b005b6105af61153a565b005b6105b9611731565b6040516105c792919061466a565b60405180910390f35b6105d86117d6565b6040516105e59190614530565b60405180910390f35b6106086004803603810190610603919061462c565b6117fe565b60405161061591906142c3565b60405180910390f35b61062661187e565b604051610633919061434c565b60405180910390f35b6106566004803603810190610651919061442c565b61190e565b6040516106639190614484565b60405180910390f35b610686600480360381019061068191906143a7565b611930565b60405161069391906142c3565b60405180910390f35b6106b660048036038101906106b19190614691565b611943565b6040516106c391906142c3565b60405180910390f35b6106d4611b8c565b6040516106e191906142c3565b60405180910390f35b61070460048036038101906106ff9190614691565b611b92565b60405161071191906142c3565b60405180910390f35b610734600480360381019061072f9190614549565b611ddb565b6040516107419190614484565b60405180910390f35b610764600480360381019061075f91906143a7565b611df8565b005b61076e611ffb565b60405161077b9190614803565b60405180910390f35b61079e60048036038101906107999190614549565b6120e0565b6040516107ab91906142c3565b60405180910390f35b6107ce60048036038101906107c991906143a7565b612109565b6040516107db91906142c3565b60405180910390f35b6107fe60048036038101906107f99190614549565b61211b565b60405161080b91906142c3565b60405180910390f35b61081c612134565b60405161082991906142c3565b60405180910390f35b61084c600480360381019061084791906143a7565b61213a565b60405161085c9493929190614832565b60405180910390f35b61087f600480360381019061087a919061489f565b6122cd565b005b61089b600480360381019061089691906143a7565b612544565b6040516108aa939291906148dd565b60405180910390f35b6108cd60048036038101906108c89190614549565b6125ad565b6040516108da91906142c3565b60405180910390f35b6108fd60048036038101906108f89190614912565b6125be565b60405161090a91906142c3565b60405180910390f35b61092d60048036038101906109289190614549565b612640565b005b610949600480360381019061094491906143a7565b612770565b60405161095691906142c3565b60405180910390f35b61097960048036038101906109749190614ae9565b612782565b005b610983612ade565b60405161099091906142c3565b60405180910390f35b6109b360048036038101906109ae9190614549565b612cdd565b005b6109cf60048036038101906109ca9190614be1565b612d61565b005b5f5f6109db610cb1565b73ffffffffffffffffffffffffffffffffffffffff166370a08231306040518263ffffffff1660e01b8152600401610a139190614530565b602060405180830381865afa158015610a2e573d5f5f3e3d5ffd5b505050506040513d601f19601f82011682018060405250810190610a529190614c86565b90505f5f90505b600780549050811015610b5c5760078181548110610a7a57610a79614cb1565b5b905f5260205f20015f0160169054906101000a900460ff1615610b4f5760078181548110610aab57610aaa614cb1565b5b905f5260205f20015f015f9054906101000a900473ffffffffffffffffffffffffffffffffffffffff1673ffffffffffffffffffffffffffffffffffffffff166301e1d1146040518163ffffffff1660e01b8152600401602060405180830381865afa158015610b1d573d5f5f3e3d5ffd5b505050506040513d601f19601f82011682018060405250810190610b419190614c86565b82610b4c9190614d0b565b91505b8080600101915050610a59565b508091505090565b606060038054610b7390614d6b565b80601f0160208091040260200160405190810160405280929190818152602001828054610b9f90614d6b565b8015610bea5780601f10610bc157610100808354040283529160200191610bea565b820191905f5260205f20905b815481529060010190602001808311610bcd57829003601f168201915b5050505050905090565b5f610bff825f612eca565b9050919050565b5f5f610c10612f22565b9050610c1d818585612f29565b600191505092915050565b5f610c34826001612f3b565b9050919050565b5f600254905090565b5f5f610c4e612f22565b9050610c5b858285612f93565b610c66858585613026565b60019150509392505050565b600a5481565b5f610c81613116565b7f0000000000000000000000000000000000000000000000000000000000000000610cac9190614d9b565b905090565b5f7f0000000000000000000000000000000000000000000000000000000000000000905090565b5f7fffffffffffffffffffffffffffffffffffffffffffffffffffffffffffffffff9050919050565b5f610d0a61311d565b610d1261313f565b5f610d1b610cb1565b73ffffffffffffffffffffffffffffffffffffffff166370a08231306040518263ffffffff1660e01b8152600401610d539190614530565b602060405180830381865afa158015610d6e573d5f5f3e3d5ffd5b505050506040513d601f19601f82011682018060405250810190610d929190614c86565b90505f5f90505b600780549050811015610e915760078181548110610dba57610db9614cb1565b5b905f5260205f20015f0160169054906101000a900460ff1615610e845760078181548110610deb57610dea614cb1565b5b905f5260205f20015f015f9054906101000a900473ffffffffffffffffffffffffffffffffffffffff1673ffffffffffffffffffffffffffffffffffffffff16634641257d6040518163ffffffff1660e01b81526004016020604051808303815f875af1158015610e5e573d5f5f3e3d5ffd5b505050506040513d601f19601f82011682018060405250810190610e829190614c86565b505b8080600101915050610d99565b505f610e9b610cb1565b73ffffffffffffffffffffffffffffffffffffffff166370a08231306040518263ffffffff1660e01b8152600401610ed39190614530565b602060405180830381865afa158015610eee573d5f5f3e3d5ffd5b505050506040513d601f19601f82011682018060405250810190610f129190614c86565b90505f828211610f22575f610f2f565b8282610f2e9190614dcf565b5b90505f5f90505f821115610fb75761271060085483610f4e9190614e02565b610f589190614e70565b90505f811115610fb657610fb560095f9054906101000a900473ffffffffffffffffffffffffffffffffffffffff1682610f90610cb1565b73ffffffffffffffffffffffffffffffffffffffff166131c69092919063ffffffff16565b5b5b8082610fc39190614dcf565b600a5f828254610fd39190614d0b565b9250508190555042600b819055507febdd323f18ba49318367d0c92a04d5c51a67f15a60ad50d46523db464661a30282824260405161101493929190614ea0565b60405180910390a180826110289190614dcf565b945050505050611036613219565b90565b60095f9054906101000a900473ffffffffffffffffffffffffffffffffffffffff1681565b60065f3373ffffffffffffffffffffffffffffffffffffffff1673ffffffffffffffffffffffffffffffffffffffff1681526020019081526020015f205f9054906101000a900460ff166110e7576040517f08c379a00000000000000000000000000000000000000000000000000000000081526004016110de90614f45565b60405180910390fd5b6040517f08c379a000000000000000000000000000000000000000000000000000000000815260040161111990614fad565b60405180910390fd5b5f61112d825f612eca565b9050919050565b61113c61313f565b61114461311d565b6007805490508110611182576040517f4e236e9a00000000000000000000000000000000000000000000000000000000815260040160405180910390fd5b6007818154811061119657611195614cb1565b5b905f5260205f20015f0160169054906101000a900460ff166111e4576040517fdc974a9800000000000000000000000000000000000000000000000000000000815260040160405180910390fd5b5f600782815481106111f9576111f8614cb1565b5b905f5260205f20015f015f9054906101000a900473ffffffffffffffffffffffffffffffffffffffff1673ffffffffffffffffffffffffffffffffffffffff1663853828b66040518163ffffffff1660e01b81526004016020604051808303815f875af115801561126c573d5f5f3e3d5ffd5b505050506040513d601f19601f820116820180604052508101906112909190614c86565b9050817fe69aa2e435ec063c41ddc8d262f8672906549b0cff0e2fcdec03de8a590a6329826040516112c291906142c3565b60405180910390a2506112d3613219565b50565b6112de61313f565b8060065f8473ffffffffffffffffffffffffffffffffffffffff1673ffffffffffffffffffffffffffffffffffffffff1681526020019081526020015f205f6101000a81548160ff0219169083151502179055508173ffffffffffffffffffffffffffffffffffffffff167fb338d10520859221c6d9e8d59d1a52e3c2ccbd676a0d93bad3784f9f40ebcacf826040516113789190614484565b60405180910390a25050565b5f61138d61311d565b61139683612770565b90506113cc3330856113a6610cb1565b73ffffffffffffffffffffffffffffffffffffffff16613233909392919063ffffffff16565b6113d68282613288565b6113df83613307565b8173ffffffffffffffffffffffffffffffffffffffff163373ffffffffffffffffffffffffffffffffffffffff167fdcbc1c05240f31ff3ad067ef1ee35ce4997762752e3a095284754544f4c709d7858460405161143e929190614fcb565b60405180910390a361144e613219565b92915050565b61145c61313f565b6107d0811115611498576040517fcd4e616700000000000000000000000000000000000000000000000000000000815260040160405180910390fd5b5f6008549050816008819055507f607b1c943753982194530bf7133a5972ea2626e028005410efa54ab20035caf881836040516114d6929190614fcb565b60405180910390a15050565b5f5f5f8373ffffffffffffffffffffffffffffffffffffffff1673ffffffffffffffffffffffffffffffffffffffff1681526020019081526020015f20549050919050565b61152f61313f565b6115385f6134e3565b565b61154261311d565b61154a61313f565b5f6115536109d1565b90505f81036115625750611727565b5f5f90505b60078054905081101561165f576007818154811061158857611587614cb1565b5b905f5260205f20015f0160169054906101000a900460ff161561165257600781815481106115b9576115b8614cb1565b5b905f5260205f20015f015f9054906101000a900473ffffffffffffffffffffffffffffffffffffffff1673ffffffffffffffffffffffffffffffffffffffff1663853828b66040518163ffffffff1660e01b81526004016020604051808303815f875af115801561162c573d5f5f3e3d5ffd5b505050506040513d601f19601f820116820180604052508101906116509190614c86565b505b8080600101915050611567565b505f611669610cb1565b73ffffffffffffffffffffffffffffffffffffffff166370a08231306040518263ffffffff1660e01b81526004016116a19190614530565b602060405180830381865afa1580156116bc573d5f5f3e3d5ffd5b505050506040513d601f19601f820116820180604052508101906116e09190614c86565b90506116eb81613307565b7fc257294ad49c215e1a248c91a86bc2612b4781d9677285cc9c14498f485ef122428360405161171c929190614fcb565b60405180910390a150505b61172f613219565b565b5f5f5f5f90505f5f90505b6007805490508110156117c6576007818154811061175d5761175c614cb1565b5b905f5260205f20015f0160169054906101000a900460ff16156117b9576007818154811061178e5761178d614cb1565b5b905f5260205f20015f0160149054906101000a900461ffff1661ffff16826117b69190614d0b565b91505b808060010191505061173c565b5061271081148192509250509091565b5f60055f9054906101000a900473ffffffffffffffffffffffffffffffffffffffff16905090565b5f5f611809836120e0565b905080841115611854578284826040517f284ff66700000000000000000000000000000000000000000000000000000000815260040161184b93929190614ff2565b60405180910390fd5b5f61185e85611930565b905061187361186b612f22565b8583886135a6565b809250505092915050565b60606004805461188d90614d6b565b80601f01602080910402602001604051908101604052809291908181526020018280546118b990614d6b565b80156119045780601f106118db57610100808354040283529160200191611904565b820191905f5260205f20905b8154815290600101906020018083116118e757829003601f168201915b5050505050905090565b5f5f611918612f22565b9050611925818585613026565b600191505092915050565b5f61193c826001612eca565b9050919050565b5f61194c61311d565b61195584610c28565b90508173ffffffffffffffffffffffffffffffffffffffff163373ffffffffffffffffffffffffffffffffffffffff161461199657611995823383612f93565b5b5f61199f610cb1565b73ffffffffffffffffffffffffffffffffffffffff166370a08231306040518263ffffffff1660e01b81526004016119d79190614530565b602060405180830381865afa1580156119f2573d5f5f3e3d5ffd5b505050506040513d601f19601f82011682018060405250810190611a169190614c86565b905084811015611ab657611a348186611a2f9190614dcf565b613630565b611a3c610cb1565b73ffffffffffffffffffffffffffffffffffffffff166370a08231306040518263ffffffff1660e01b8152600401611a749190614530565b602060405180830381865afa158015611a8f573d5f5f3e3d5ffd5b505050506040513d601f19601f82011682018060405250810190611ab39190614c86565b90505b80851115611ac2578094505b611acc8383613a23565b611afe8486611ad9610cb1565b73ffffffffffffffffffffffffffffffffffffffff166131c69092919063ffffffff16565b8273ffffffffffffffffffffffffffffffffffffffff168473ffffffffffffffffffffffffffffffffffffffff163373ffffffffffffffffffffffffffffffffffffffff167ffbde797d201c681b91056529119e0b02407c7bb96a4a2c75c01fc9667232c8db8886604051611b74929190614fcb565b60405180910390a450611b85613219565b9392505050565b60085481565b5f611b9b61311d565b8173ffffffffffffffffffffffffffffffffffffffff163373ffffffffffffffffffffffffffffffffffffffff1614611bda57611bd9823386612f93565b5b611be384611122565b90505f611bee610cb1565b73ffffffffffffffffffffffffffffffffffffffff166370a08231306040518263ffffffff1660e01b8152600401611c269190614530565b602060405180830381865afa158015611c41573d5f5f3e3d5ffd5b505050506040513d601f19601f82011682018060405250810190611c659190614c86565b905081811015611d0557611c838183611c7e9190614dcf565b613630565b611c8b610cb1565b73ffffffffffffffffffffffffffffffffffffffff166370a08231306040518263ffffffff1660e01b8152600401611cc39190614530565b602060405180830381865afa158015611cde573d5f5f3e3d5ffd5b505050506040513d601f19601f82011682018060405250810190611d029190614c86565b90505b80821115611d11578091505b611d1b8386613a23565b611d4d8483611d28610cb1565b73ffffffffffffffffffffffffffffffffffffffff166131c69092919063ffffffff16565b8273ffffffffffffffffffffffffffffffffffffffff168473ffffffffffffffffffffffffffffffffffffffff163373ffffffffffffffffffffffffffffffffffffffff167ffbde797d201c681b91056529119e0b02407c7bb96a4a2c75c01fc9667232c8db8589604051611dc3929190614fcb565b60405180910390a450611dd4613219565b9392505050565b6006602052805f5260405f205f915054906101000a900460ff1681565b611e0061313f565b611e0861311d565b6007805490508110611e46576040517f4e236e9a00000000000000000000000000000000000000000000000000000000815260040160405180910390fd5b60078181548110611e5a57611e59614cb1565b5b905f5260205f20015f0160169054906101000a900460ff16611ea8576040517fdc974a9800000000000000000000000000000000000000000000000000000000815260040160405180910390fd5b60078181548110611ebc57611ebb614cb1565b5b905f5260205f20015f015f9054906101000a900473ffffffffffffffffffffffffffffffffffffffff1673ffffffffffffffffffffffffffffffffffffffff1663853828b66040518163ffffffff1660e01b81526004016020604051808303815f875af1158015611f2f573d5f5f3e3d5ffd5b505050506040513d601f19601f82011682018060405250810190611f539190614c86565b505f60078281548110611f6957611f68614cb1565b5b905f5260205f20015f0160166101000a81548160ff0219169083151502179055505f60078281548110611f9f57611f9e614cb1565b5b905f5260205f20015f0160146101000a81548161ffff021916908361ffff160217905550807fd75105a2aa4d0e369051dafafb95bda6d8633cb084ab8f4db5ebc096f880f54560405160405180910390a2611ff8613219565b50565b60606007805480602002602001604051908101604052809291908181526020015f905b828210156120d7578382905f5260205f20016040518060600160405290815f82015f9054906101000a900473ffffffffffffffffffffffffffffffffffffffff1673ffffffffffffffffffffffffffffffffffffffff1673ffffffffffffffffffffffffffffffffffffffff1681526020015f820160149054906101000a900461ffff1661ffff1661ffff1681526020015f820160169054906101000a900460ff1615151515815250508152602001906001019061201e565b50505050905090565b5f7fffffffffffffffffffffffffffffffffffffffffffffffffffffffffffffffff9050919050565b5f612114825f612f3b565b9050919050565b5f61212d612128836125ad565b611122565b9050919050565b600b5481565b5f5f5f5f600780549050851061217c576040517f4e236e9a00000000000000000000000000000000000000000000000000000000815260040160405180910390fd5b5f6007868154811061219157612190614cb1565b5b905f5260205f20016040518060600160405290815f82015f9054906101000a900473ffffffffffffffffffffffffffffffffffffffff1673ffffffffffffffffffffffffffffffffffffffff1673ffffffffffffffffffffffffffffffffffffffff1681526020015f820160149054906101000a900461ffff1661ffff1661ffff1681526020015f820160169054906101000a900460ff1615151515815250509050805f01519450806020015193508060400151925082612252575f6122c3565b805f015173ffffffffffffffffffffffffffffffffffffffff166301e1d1146040518163ffffffff1660e01b8152600401602060405180830381865afa15801561229e573d5f5f3e3d5ffd5b505050506040513d601f19601f820116820180604052508101906122c29190614c86565b5b9150509193509193565b6122d561313f565b5f73ffffffffffffffffffffffffffffffffffffffff168273ffffffffffffffffffffffffffffffffffffffff160361233a576040517f4e236e9a00000000000000000000000000000000000000000000000000000000815260040160405180910390fd5b5f8161ffff1690505f5f90505b6007805490508110156123d1576007818154811061236857612367614cb1565b5b905f5260205f20015f0160169054906101000a900460ff16156123c4576007818154811061239957612398614cb1565b5b905f5260205f20015f0160149054906101000a900461ffff1661ffff16826123c19190614d0b565b91505b8080600101915050612347565b5061271081111561240e576040517f0baf743200000000000000000000000000000000000000000000000000000000815260040160405180910390fd5b600760405180606001604052808573ffffffffffffffffffffffffffffffffffffffff1681526020018461ffff16815260200160011515815250908060018154018082558091505060019003905f5260205f20015f909190919091505f820151815f015f6101000a81548173ffffffffffffffffffffffffffffffffffffffff021916908373ffffffffffffffffffffffffffffffffffffffff1602179055506020820151815f0160146101000a81548161ffff021916908361ffff1602179055506040820151815f0160166101000a81548160ff02191690831515021790555050508273ffffffffffffffffffffffffffffffffffffffff167f7d2d4379af12247620003f4a65947a4f4abb63df796175c8aa023875f0743ef6836040516125379190615027565b60405180910390a2505050565b60078181548110612553575f80fd5b905f5260205f20015f91509050805f015f9054906101000a900473ffffffffffffffffffffffffffffffffffffffff1690805f0160149054906101000a900461ffff1690805f0160169054906101000a900460ff16905083565b5f6125b7826114e2565b9050919050565b5f60015f8473ffffffffffffffffffffffffffffffffffffffff1673ffffffffffffffffffffffffffffffffffffffff1681526020019081526020015f205f8373ffffffffffffffffffffffffffffffffffffffff1673ffffffffffffffffffffffffffffffffffffffff1681526020019081526020015f2054905092915050565b61264861313f565b5f73ffffffffffffffffffffffffffffffffffffffff168173ffffffffffffffffffffffffffffffffffffffff16036126ad576040517fe6c4247b00000000000000000000000000000000000000000000000000000000815260040160405180910390fd5b5f60095f9054906101000a900473ffffffffffffffffffffffffffffffffffffffff1690508160095f6101000a81548173ffffffffffffffffffffffffffffffffffffffff021916908373ffffffffffffffffffffffffffffffffffffffff1602179055508173ffffffffffffffffffffffffffffffffffffffff168173ffffffffffffffffffffffffffffffffffffffff167faaebcf1bfa00580e41d966056b48521fa9f202645c86d4ddf28113e617c1b1d360405160405180910390a35050565b5f61277b825f612f3b565b9050919050565b61278a61313f565b80518383905014158061279f57505f83839050145b156127d6576040517f0baf743200000000000000000000000000000000000000000000000000000000815260040160405180910390fd5b5f5f90505f5f90505b848490508110156128f55760078054905085858381811061280357612802614cb1565b5b9050602002013510612841576040517f4e236e9a00000000000000000000000000000000000000000000000000000000815260040160405180910390fd5b600785858381811061285657612855614cb1565b5b905060200201358154811061286e5761286d614cb1565b5b905f5260205f20015f0160169054906101000a900460ff166128bc576040517fdc974a9800000000000000000000000000000000000000000000000000000000815260040160405180910390fd5b8281815181106128cf576128ce614cb1565b5b602002602001015161ffff16826128e69190614d0b565b915080806001019150506127df565b505f5f90505b6007805490508110156129d7576007818154811061291c5761291b614cb1565b5b905f5260205f20015f0160169054906101000a900460ff16156129ca575f5f90505f5f90505b86869050811015612983578287878381811061296157612960614cb1565b5b90506020020135036129765760019150612983565b8080600101915050612942565b50806129c8576007828154811061299d5761299c614cb1565b5b905f5260205f20015f0160149054906101000a900461ffff1661ffff16836129c59190614d0b565b92505b505b80806001019150506128fb565b506127108114612a13576040517fd9c1bedb00000000000000000000000000000000000000000000000000000000815260040160405180910390fd5b5f5f90505b84849050811015612a9c57828181518110612a3657612a35614cb1565b5b60200260200101516007868684818110612a5357612a52614cb1565b5b9050602002013581548110612a6b57612a6a614cb1565b5b905f5260205f20015f0160146101000a81548161ffff021916908361ffff1602179055508080600101915050612a18565b507f60bfa88326122b3d74bea3fb7879a885efb5bf0cc29979d492cf8001de30afb0848484604051612ad093929190615160565b60405180910390a150505050565b5f5f5f90505f5f90505f5f90505b600780549050811015612cbb5760078181548110612b0d57612b0c614cb1565b5b905f5260205f20015f0160169054906101000a900460ff1615612cae575f60078281548110612b3f57612b3e614cb1565b5b905f5260205f20015f015f9054906101000a900473ffffffffffffffffffffffffffffffffffffffff1673ffffffffffffffffffffffffffffffffffffffff166301e1d1146040518163ffffffff1660e01b8152600401602060405180830381865afa158015612bb1573d5f5f3e3d5ffd5b505050506040513d601f19601f82011682018060405250810190612bd59190614c86565b90505f60078381548110612bec57612beb614cb1565b5b905f5260205f20015f015f9054906101000a900473ffffffffffffffffffffffffffffffffffffffff1673ffffffffffffffffffffffffffffffffffffffff1663f19993d76040518163ffffffff1660e01b8152600401602060405180830381865afa158015612c5e573d5f5f3e3d5ffd5b505050506040513d601f19601f82011682018060405250810190612c829190614c86565b90508082612c909190614e02565b85612c9b9190614d0b565b94508184612ca99190614d0b565b935050505b8080600101915050612aec565b505f8114612cd4578082612ccf9190614e70565b612cd6565b5f5b9250505090565b612ce561313f565b5f73ffffffffffffffffffffffffffffffffffffffff168173ffffffffffffffffffffffffffffffffffffffff1603612d55575f6040517f1e4fbdf7000000000000000000000000000000000000000000000000000000008152600401612d4c9190614530565b60405180910390fd5b612d5e816134e3565b50565b60065f3373ffffffffffffffffffffffffffffffffffffffff1673ffffffffffffffffffffffffffffffffffffffff1681526020019081526020015f205f9054906101000a900460ff16612dea576040517f08c379a0000000000000000000000000000000000000000000000000000000008152600401612de190614f45565b60405180910390fd5b5f8282905067ffffffffffffffff811115612e0857612e076149b1565b5b604051908082528060200260200182016040528015612e365781602001602082028036833780820191505090505b5090505f5f90505b83839050811015612eb6576064848483818110612e5e57612e5d614cb1565b5b9050602002016020810190612e739190615197565b60ff16612e8091906151c2565b828281518110612e9357612e92614cb1565b5b602002602001019061ffff16908161ffff16815250508080600101915050612e3e565b50612ec2858583612782565b505050505050565b5f612f1a6001612ed86109d1565b612ee29190614d0b565b612eea613116565b600a612ef6919061532d565b612efe610c3b565b612f089190614d0b565b8486613aa2909392919063ffffffff16565b905092915050565b5f33905090565b612f368383836001613aef565b505050565b5f612f8b612f47613116565b600a612f53919061532d565b612f5b610c3b565b612f659190614d0b565b6001612f6f6109d1565b612f799190614d0b565b8486613aa2909392919063ffffffff16565b905092915050565b5f612f9e84846125be565b90507fffffffffffffffffffffffffffffffffffffffffffffffffffffffffffffffff8110156130205781811015613011578281836040517ffb8f41b200000000000000000000000000000000000000000000000000000000815260040161300893929190614ff2565b60405180910390fd5b61301f84848484035f613aef565b5b50505050565b5f73ffffffffffffffffffffffffffffffffffffffff168373ffffffffffffffffffffffffffffffffffffffff1603613096575f6040517f96c6fd1e00000000000000000000000000000000000000000000000000000000815260040161308d9190614530565b60405180910390fd5b5f73ffffffffffffffffffffffffffffffffffffffff168273ffffffffffffffffffffffffffffffffffffffff1603613106575f6040517fec442f050000000000000000000000000000000000000000000000000000000081526004016130fd9190614530565b60405180910390fd5b613111838383613cbe565b505050565b5f5f905090565b613125613ed7565b6002613137613132613f18565b613f41565b5f0181905550565b613147612f22565b73ffffffffffffffffffffffffffffffffffffffff166131656117d6565b73ffffffffffffffffffffffffffffffffffffffff16146131c457613188612f22565b6040517f118cdaa70000000000000000000000000000000000000000000000000000000081526004016131bb9190614530565b60405180910390fd5b565b6131d38383836001613f4a565b61321457826040517f5274afe700000000000000000000000000000000000000000000000000000000815260040161320b9190614530565b60405180910390fd5b505050565b600161322b613226613f18565b613f41565b5f0181905550565b613241848484846001613fac565b61328257836040517f5274afe70000000000000000000000000000000000000000000000000000000081526004016132799190614530565b60405180910390fd5b50505050565b5f73ffffffffffffffffffffffffffffffffffffffff168273ffffffffffffffffffffffffffffffffffffffff16036132f8575f6040517fec442f050000000000000000000000000000000000000000000000000000000081526004016132ef9190614530565b60405180910390fd5b6133035f8383613cbe565b5050565b5f8103156134e0575f5f90505b6007805490508110156134de576007818154811061333557613334614cb1565b5b905f5260205f20015f0160169054906101000a900460ff16156134d1575f6127106007838154811061336a57613369614cb1565b5b905f5260205f20015f0160149054906101000a900461ffff1661ffff16846133929190614e02565b61339c9190614e70565b90505f8111156134cf57613415600783815481106133bd576133bc614cb1565b5b905f5260205f20015f015f9054906101000a900473ffffffffffffffffffffffffffffffffffffffff16826133f0610cb1565b73ffffffffffffffffffffffffffffffffffffffff1661401d9092919063ffffffff16565b6007828154811061342957613428614cb1565b5b905f5260205f20015f015f9054906101000a900473ffffffffffffffffffffffffffffffffffffffff1673ffffffffffffffffffffffffffffffffffffffff16636e553f6582306040518363ffffffff1660e01b815260040161348d929190615377565b6020604051808303815f875af11580156134a9573d5f5f3e3d5ffd5b505050506040513d601f19601f820116820180604052508101906134cd9190614c86565b505b505b8080600101915050613314565b505b50565b5f60055f9054906101000a900473ffffffffffffffffffffffffffffffffffffffff1690508160055f6101000a81548173ffffffffffffffffffffffffffffffffffffffff021916908373ffffffffffffffffffffffffffffffffffffffff1602179055508173ffffffffffffffffffffffffffffffffffffffff168173ffffffffffffffffffffffffffffffffffffffff167f8be0079c531659141344cd1fd0a4f28419497f9722a3daafe3b4186f6b6457e060405160405180910390a35050565b6135b96135b1610cb1565b853085613233565b6135c38382613288565b8273ffffffffffffffffffffffffffffffffffffffff168473ffffffffffffffffffffffffffffffffffffffff167fdcbc1c05240f31ff3ad067ef1ee35ce4997762752e3a095284754544f4c709d78484604051613622929190614fcb565b60405180910390a350505050565b5f810315613a20575f5f90505f60078054905067ffffffffffffffff81111561365c5761365b6149b1565b5b60405190808252806020026020018201604052801561368a5781602001602082028036833780820191505090505b5090505f5f90505b6007805490508110156137cf57600781815481106136b3576136b2614cb1565b5b905f5260205f20015f0160169054906101000a900460ff16156137c257600781815481106136e4576136e3614cb1565b5b905f5260205f20015f015f9054906101000a900473ffffffffffffffffffffffffffffffffffffffff1673ffffffffffffffffffffffffffffffffffffffff166301e1d1146040518163ffffffff1660e01b8152600401602060405180830381865afa158015613756573d5f5f3e3d5ffd5b505050506040513d601f19601f8201168201806040525081019061377a9190614c86565b82828151811061378d5761378c614cb1565b5b6020026020010181815250508181815181106137ac576137ab614cb1565b5b6020026020010151836137bf9190614d0b565b92505b8080600101915050613692565b505f5f90505f5f90505b60078054905081101561398f57600781815481106137fa576137f9614cb1565b5b905f5260205f20015f0160169054906101000a900460ff16801561383757505f83828151811061382d5761382c614cb1565b5b6020026020010151115b15613982575f8484838151811061385157613850614cb1565b5b6020026020010151876138649190614e02565b61386e9190614e70565b905083828151811061388357613882614cb1565b5b60200260200101518111156138b0578382815181106138a5576138a4614cb1565b5b602002602001015190505b5f81111561398057600782815481106138cc576138cb614cb1565b5b905f5260205f20015f015f9054906101000a900473ffffffffffffffffffffffffffffffffffffffff1673ffffffffffffffffffffffffffffffffffffffff1663b460af948230306040518463ffffffff1660e01b81526004016139329392919061539e565b6020604051808303815f875af115801561394e573d5f5f3e3d5ffd5b505050506040513d601f19601f820116820180604052508101906139729190614c86565b8361397d9190614d0b565b92505b505b80806001019150506137d9565b5083811015613a1c575f6139a1610cb1565b73ffffffffffffffffffffffffffffffffffffffff166370a08231306040518263ffffffff1660e01b81526004016139d99190614530565b602060405180830381865afa1580156139f4573d5f5f3e3d5ffd5b505050506040513d601f19601f82011682018060405250810190613a189190614c86565b9050505b5050505b50565b5f73ffffffffffffffffffffffffffffffffffffffff168273ffffffffffffffffffffffffffffffffffffffff1603613a93575f6040517f96c6fd1e000000000000000000000000000000000000000000000000000000008152600401613a8a9190614530565b60405180910390fd5b613a9e825f83613cbe565b5050565b5f613ad0613aaf836140cf565b8015613acb57505f8480613ac657613ac5614e43565b5b868809115b6140fc565b613adb868686614107565b613ae59190614d0b565b9050949350505050565b5f73ffffffffffffffffffffffffffffffffffffffff168473ffffffffffffffffffffffffffffffffffffffff1603613b5f575f6040517fe602df05000000000000000000000000000000000000000000000000000000008152600401613b569190614530565b60405180910390fd5b5f73ffffffffffffffffffffffffffffffffffffffff168373ffffffffffffffffffffffffffffffffffffffff1603613bcf575f6040517f94280d62000000000000000000000000000000000000000000000000000000008152600401613bc69190614530565b60405180910390fd5b8160015f8673ffffffffffffffffffffffffffffffffffffffff1673ffffffffffffffffffffffffffffffffffffffff1681526020019081526020015f205f8573ffffffffffffffffffffffffffffffffffffffff1673ffffffffffffffffffffffffffffffffffffffff1681526020019081526020015f20819055508015613cb8578273ffffffffffffffffffffffffffffffffffffffff168473ffffffffffffffffffffffffffffffffffffffff167f8c5be1e5ebec7d5bd14f71427d1e84f3dd0314c0f7b2291e5b200ac8c7c3b92584604051613caf91906142c3565b60405180910390a35b50505050565b5f73ffffffffffffffffffffffffffffffffffffffff168373ffffffffffffffffffffffffffffffffffffffff1603613d0e578060025f828254613d029190614d0b565b92505081905550613ddc565b5f5f5f8573ffffffffffffffffffffffffffffffffffffffff1673ffffffffffffffffffffffffffffffffffffffff1681526020019081526020015f2054905081811015613d97578381836040517fe450d38c000000000000000000000000000000000000000000000000000000008152600401613d8e93929190614ff2565b60405180910390fd5b8181035f5f8673ffffffffffffffffffffffffffffffffffffffff1673ffffffffffffffffffffffffffffffffffffffff1681526020019081526020015f2081905550505b5f73ffffffffffffffffffffffffffffffffffffffff168273ffffffffffffffffffffffffffffffffffffffff1603613e23578060025f8282540392505081905550613e6d565b805f5f8473ffffffffffffffffffffffffffffffffffffffff1673ffffffffffffffffffffffffffffffffffffffff1681526020019081526020015f205f82825401925050819055505b8173ffffffffffffffffffffffffffffffffffffffff168373ffffffffffffffffffffffffffffffffffffffff167fddf252ad1be2c89b69c2b068fc378daa952ba7f163c4a11628f55a4df523b3ef83604051613eca91906142c3565b60405180910390a3505050565b613edf6141e6565b15613f16576040517f3ee5aeb500000000000000000000000000000000000000000000000000000000815260040160405180910390fd5b565b5f7f9b779b17422d0df92223018b32b4d1fa46e071723d6817e2486d003becc55f005f1b905090565b5f819050919050565b5f5f63a9059cbb60e01b9050604051815f525f1960601c86166004528460245260205f60445f5f8b5af1925060015f51148316613f9e578383151615613f92573d5f823e3d81fd5b5f873b113d1516831692505b806040525050949350505050565b5f5f6323b872dd60e01b9050604051815f525f1960601c87166004525f1960601c86166024528460445260205f60645f5f8c5af1925060015f5114831661400a578383151615613ffe573d5f823e3d81fd5b5f883b113d1516831692505b806040525f606052505095945050505050565b6140298383835f614202565b6140ca5761403a83835f6001614202565b61407b57826040517f5274afe70000000000000000000000000000000000000000000000000000000081526004016140729190614530565b60405180910390fd5b6140888383836001614202565b6140c957826040517f5274afe70000000000000000000000000000000000000000000000000000000081526004016140c09190614530565b60405180910390fd5b5b505050565b5f600160028360038111156140e7576140e66153d3565b5b6140f19190615400565b60ff16149050919050565b5f8115159050919050565b5f5f5f6141148686614264565b915091505f82036141395783818161412f5761412e614e43565b5b04925050506141df565b818411614158576141576141525f861460126011614281565b61429a565b5b5f8486880990508181118303925080820391505f855f038616905080860495508083049250600181825f0304019050808402831792505f600287600302189050808702600203810290508087026002038102905080870260020381029050808702600203810290508087026002038102905080870260020381029050808402955050505050505b9392505050565b5f60026141f96141f4613f18565b613f41565b5f015414905090565b5f5f63095ea7b360e01b9050604051815f525f1960601c86166004528460245260205f60445f5f8b5af1925060015f5114831661425657838315161561424a573d5f823e3d81fd5b5f873b113d1516831692505b806040525050949350505050565b5f5f5f198385098385029150818110828203039250509250929050565b5f61428b846140fc565b82841802821890509392505050565b634e487b715f52806020526024601cfd5b5f819050919050565b6142bd816142ab565b82525050565b5f6020820190506142d65f8301846142b4565b92915050565b5f81519050919050565b5f82825260208201905092915050565b8281835e5f83830152505050565b5f601f19601f8301169050919050565b5f61431e826142dc565b61432881856142e6565b93506143388185602086016142f6565b61434181614304565b840191505092915050565b5f6020820190508181035f8301526143648184614314565b905092915050565b5f604051905090565b5f5ffd5b5f5ffd5b614386816142ab565b8114614390575f5ffd5b50565b5f813590506143a18161437d565b92915050565b5f602082840312156143bc576143bb614375565b5b5f6143c984828501614393565b91505092915050565b5f73ffffffffffffffffffffffffffffffffffffffff82169050919050565b5f6143fb826143d2565b9050919050565b61440b816143f1565b8114614415575f5ffd5b50565b5f8135905061442681614402565b92915050565b5f5f6040838503121561444257614441614375565b5b5f61444f85828601614418565b925050602061446085828601614393565b9150509250929050565b5f8115159050919050565b61447e8161446a565b82525050565b5f6020820190506144975f830184614475565b92915050565b5f5f5f606084860312156144b4576144b3614375565b5b5f6144c186828701614418565b93505060206144d286828701614418565b92505060406144e386828701614393565b9150509250925092565b5f60ff82169050919050565b614502816144ed565b82525050565b5f60208201905061451b5f8301846144f9565b92915050565b61452a816143f1565b82525050565b5f6020820190506145435f830184614521565b92915050565b5f6020828403121561455e5761455d614375565b5b5f61456b84828501614418565b91505092915050565b61457d8161446a565b8114614587575f5ffd5b50565b5f8135905061459881614574565b92915050565b5f5f5f606084860312156145b5576145b4614375565b5b5f6145c286828701614418565b93505060206145d386828701614393565b92505060406145e48682870161458a565b9150509250925092565b5f5f6040838503121561460457614603614375565b5b5f61461185828601614418565b92505060206146228582860161458a565b9150509250929050565b5f5f6040838503121561464257614641614375565b5b5f61464f85828601614393565b925050602061466085828601614418565b9150509250929050565b5f60408201905061467d5f830185614475565b61468a60208301846142b4565b9392505050565b5f5f5f606084860312156146a8576146a7614375565b5b5f6146b586828701614393565b93505060206146c686828701614418565b92505060406146d786828701614418565b9150509250925092565b5f81519050919050565b5f82825260208201905092915050565b5f819050602082019050919050565b614713816143f1565b82525050565b5f61ffff82169050919050565b61472f81614719565b82525050565b61473e8161446a565b82525050565b606082015f8201516147585f85018261470a565b50602082015161476b6020850182614726565b50604082015161477e6040850182614735565b50505050565b5f61478f8383614744565b60608301905092915050565b5f602082019050919050565b5f6147b1826146e1565b6147bb81856146eb565b93506147c6836146fb565b805f5b838110156147f65781516147dd8882614784565b97506147e88361479b565b9250506001810190506147c9565b5085935050505092915050565b5f6020820190508181035f83015261481b81846147a7565b905092915050565b61482c81614719565b82525050565b5f6080820190506148455f830187614521565b6148526020830186614823565b61485f6040830185614475565b61486c60608301846142b4565b95945050505050565b61487e81614719565b8114614888575f5ffd5b50565b5f8135905061489981614875565b92915050565b5f5f604083850312156148b5576148b4614375565b5b5f6148c285828601614418565b92505060206148d38582860161488b565b9150509250929050565b5f6060820190506148f05f830186614521565b6148fd6020830185614823565b61490a6040830184614475565b949350505050565b5f5f6040838503121561492857614927614375565b5b5f61493585828601614418565b925050602061494685828601614418565b9150509250929050565b5f5ffd5b5f5ffd5b5f5ffd5b5f5f83601f84011261497157614970614950565b5b8235905067ffffffffffffffff81111561498e5761498d614954565b5b6020830191508360208202830111156149aa576149a9614958565b5b9250929050565b7f4e487b71000000000000000000000000000000000000000000000000000000005f52604160045260245ffd5b6149e782614304565b810181811067ffffffffffffffff82111715614a0657614a056149b1565b5b80604052505050565b5f614a1861436c565b9050614a2482826149de565b919050565b5f67ffffffffffffffff821115614a4357614a426149b1565b5b602082029050602081019050919050565b5f614a66614a6184614a29565b614a0f565b90508083825260208201905060208402830185811115614a8957614a88614958565b5b835b81811015614ab25780614a9e888261488b565b845260208401935050602081019050614a8b565b5050509392505050565b5f82601f830112614ad057614acf614950565b5b8135614ae0848260208601614a54565b91505092915050565b5f5f5f60408486031215614b0057614aff614375565b5b5f84013567ffffffffffffffff811115614b1d57614b1c614379565b5b614b298682870161495c565b9350935050602084013567ffffffffffffffff811115614b4c57614b4b614379565b5b614b5886828701614abc565b9150509250925092565b614b6b816144ed565b8114614b75575f5ffd5b50565b5f81359050614b8681614b62565b92915050565b5f5f83601f840112614ba157614ba0614950565b5b8235905067ffffffffffffffff811115614bbe57614bbd614954565b5b602083019150836020820283011115614bda57614bd9614958565b5b9250929050565b5f5f5f5f5f60608688031215614bfa57614bf9614375565b5b5f614c0788828901614b78565b955050602086013567ffffffffffffffff811115614c2857614c27614379565b5b614c348882890161495c565b9450945050604086013567ffffffffffffffff811115614c5757614c56614379565b5b614c6388828901614b8c565b92509250509295509295909350565b5f81519050614c808161437d565b92915050565b5f60208284031215614c9b57614c9a614375565b5b5f614ca884828501614c72565b91505092915050565b7f4e487b71000000000000000000000000000000000000000000000000000000005f52603260045260245ffd5b7f4e487b71000000000000000000000000000000000000000000000000000000005f52601160045260245ffd5b5f614d15826142ab565b9150614d20836142ab565b9250828201905080821115614d3857614d37614cde565b5b92915050565b7f4e487b71000000000000000000000000000000000000000000000000000000005f52602260045260245ffd5b5f6002820490506001821680614d8257607f821691505b602082108103614d9557614d94614d3e565b5b50919050565b5f614da5826144ed565b9150614db0836144ed565b9250828201905060ff811115614dc957614dc8614cde565b5b92915050565b5f614dd9826142ab565b9150614de4836142ab565b9250828203905081811115614dfc57614dfb614cde565b5b92915050565b5f614e0c826142ab565b9150614e17836142ab565b9250828202614e25816142ab565b91508282048414831517614e3c57614e3b614cde565b5b5092915050565b7f4e487b71000000000000000000000000000000000000000000000000000000005f52601260045260245ffd5b5f614e7a826142ab565b9150614e85836142ab565b925082614e9557614e94614e43565b5b828204905092915050565b5f606082019050614eb35f8301866142b4565b614ec060208301856142b4565b614ecd60408301846142b4565b949350505050565b7f4e6f742061207665726966696564204e6974726f6c697465206f70657261746f5f8201527f7200000000000000000000000000000000000000000000000000000000000000602082015250565b5f614f2f6021836142e6565b9150614f3a82614ed5565b604082019050919050565b5f6020820190508181035f830152614f5c81614f23565b9050919050565b7f4e6f7420696d706c656d656e74656400000000000000000000000000000000005f82015250565b5f614f97600f836142e6565b9150614fa282614f63565b602082019050919050565b5f6020820190508181035f830152614fc481614f8b565b9050919050565b5f604082019050614fde5f8301856142b4565b614feb60208301846142b4565b9392505050565b5f6060820190506150055f830186614521565b61501260208301856142b4565b61501f60408301846142b4565b949350505050565b5f60208201905061503a5f830184614823565b92915050565b5f82825260208201905092915050565b5f5ffd5b82818337505050565b5f6150688385615040565b93507f07ffffffffffffffffffffffffffffffffffffffffffffffffffffffffffffff83111561509b5761509a615050565b5b6020830292506150ac838584615054565b82840190509392505050565b5f81519050919050565b5f82825260208201905092915050565b5f819050602082019050919050565b5f6150ec8383614726565b60208301905092915050565b5f602082019050919050565b5f61510e826150b8565b61511881856150c2565b9350615123836150d2565b805f5b8381101561515357815161513a88826150e1565b9750615145836150f8565b925050600181019050615126565b5085935050505092915050565b5f6040820190508181035f83015261517981858761505d565b9050818103602083015261518d8184615104565b9050949350505050565b5f602082840312156151ac576151ab614375565b5b5f6151b984828501614b78565b91505092915050565b5f6151cc82614719565b91506151d783614719565b92508282026151e581614719565b91508082146151f7576151f6614cde565b5b5092915050565b5f8160011c9050919050565b5f5f8291508390505b60018511156152535780860481111561522f5761522e614cde565b5b600185161561523e5780820291505b808102905061524c856151fe565b9450615213565b94509492505050565b5f8261526b5760019050615326565b81615278575f9050615326565b816001811461528e5760028114615298576152c7565b6001915050615326565b60ff8411156152aa576152a9614cde565b5b8360020a9150848211156152c1576152c0614cde565b5b50615326565b5060208310610133831016604e8410600b84101617156152fc5782820a9050838111156152f7576152f6614cde565b5b615326565b615309848484600161520a565b925090508184048111156153205761531f614cde565b5b81810290505b9392505050565b5f615337826142ab565b9150615342836144ed565b925061536f7fffffffffffffffffffffffffffffffffffffffffffffffffffffffffffffffff848461525c565b905092915050565b5f60408201905061538a5f8301856142b4565b6153976020830184614521565b9392505050565b5f6060820190506153b15f8301866142b4565b6153be6020830185614521565b6153cb6040830184614521565b949350505050565b7f4e487b71000000000000000000000000000000000000000000000000000000005f52602160045260245ffd5b5f61540a826144ed565b9150615415836144ed565b92508261542557615424614e43565b5b82820690509291505056fea2646970667358221220f1934b665bfc2dac335af0706be5f101f33770a4c32dc20b1d992fa89cb6f35964736f6c634300081e0033",
			"opcodes": "PUSH1 0xC0 PUSH1 0x40 MSTORE PUSH2 0x3E8 PUSH1 0x8 SSTORE CALLVALUE DUP1 ISZERO PUSH2 0x15 JUMPI PUSH0 PUSH0 REVERT JUMPDEST POP PUSH1 0x40 MLOAD PUSH2 0x5E1B CODESIZE SUB DUP1 PUSH2 0x5E1B DUP4 CODECOPY DUP2 DUP2 ADD PUSH1 0x40 MSTORE DUP2 ADD SWAP1 PUSH2 0x37 SWAP2 SWAP1 PUSH2 0x5F1 JUMP JUMPDEST CALLER DUP5 DUP5 DUP5 DUP2 PUSH1 0x3 SWAP1 DUP2 PUSH2 0x4A SWAP2 SWAP1 PUSH2 0x89D JUMP JUMPDEST POP DUP1 PUSH1 0x4 SWAP1 DUP2 PUSH2 0x5A SWAP2 SWAP1 PUSH2 0x89D JUMP JUMPDEST POP POP POP PUSH0 PUSH0 PUSH2 0x6E DUP4 PUSH2 0x216 PUSH1 0x20 SHL PUSH1 0x20 SHR JUMP JUMPDEST SWAP2 POP SWAP2 POP DUP2 PUSH2 0x7E JUMPI PUSH1 0x12 PUSH2 0x80 JUMP JUMPDEST DUP1 JUMPDEST PUSH1 0xFF AND PUSH1 0xA0 DUP2 PUSH1 0xFF AND DUP2 MSTORE POP POP DUP3 PUSH20 0xFFFFFFFFFFFFFFFFFFFFFFFFFFFFFFFFFFFFFFFF AND PUSH1 0x80 DUP2 PUSH20 0xFFFFFFFFFFFFFFFFFFFFFFFFFFFFFFFFFFFFFFFF AND DUP2 MSTORE POP POP POP POP POP PUSH0 PUSH20 0xFFFFFFFFFFFFFFFFFFFFFFFFFFFFFFFFFFFFFFFF AND DUP2 PUSH20 0xFFFFFFFFFFFFFFFFFFFFFFFFFFFFFFFFFFFFFFFF AND SUB PUSH2 0x134 JUMPI PUSH0 PUSH1 0x40 MLOAD PUSH32 0x1E4FBDF700000000000000000000000000000000000000000000000000000000 DUP2 MSTORE PUSH1 0x4 ADD PUSH2 0x12B SWAP2 SWAP1 PUSH2 0x97B JUMP JUMPDEST PUSH1 0x40 MLOAD DUP1 SWAP2 SUB SWAP1 REVERT JUMPDEST PUSH2 0x143 DUP2 PUSH2 0x2E2 PUSH1 0x20 SHL PUSH1 0x20 SHR JUMP JUMPDEST POP PUSH1 0x1 PUSH2 0x162 PUSH2 0x157 PUSH2 0x3A5 PUSH1 0x20 SHL PUSH1 0x20 SHR JUMP JUMPDEST PUSH2 0x3CE PUSH1 0x20 SHL PUSH1 0x20 SHR JUMP JUMPDEST PUSH0 ADD DUP2 SWAP1 SSTORE POP PUSH0 PUSH20 0xFFFFFFFFFFFFFFFFFFFFFFFFFFFFFFFFFFFFFFFF AND DUP2 PUSH20 0xFFFFFFFFFFFFFFFFFFFFFFFFFFFFFFFFFFFFFFFF AND SUB PUSH2 0x1CD JUMPI PUSH1 0x40 MLOAD PUSH32 0xE6C4247B00000000000000000000000000000000000000000000000000000000 DUP2 MSTORE PUSH1 0x4 ADD PUSH1 0x40 MLOAD DUP1 SWAP2 SUB SWAP1 REVERT JUMPDEST DUP1 PUSH1 0x9 PUSH0 PUSH2 0x100 EXP DUP2 SLOAD DUP2 PUSH20 0xFFFFFFFFFFFFFFFFFFFFFFFFFFFFFFFFFFFFFFFF MUL NOT AND SWAP1 DUP4 PUSH20 0xFFFFFFFFFFFFFFFFFFFFFFFFFFFFFFFFFFFFFFFF AND MUL OR SWAP1 SSTORE POP POP POP POP POP PUSH2 0x994 JUMP JUMPDEST PUSH0 PUSH0 PUSH0 PUSH2 0x227 PUSH2 0x3D7 PUSH1 0x20 SHL PUSH1 0x20 SHR JUMP JUMPDEST SWAP1 POP PUSH0 PUSH0 PUSH2 0x285 DUP7 PUSH1 0x40 MLOAD PUSH1 0x24 ADD PUSH1 0x40 MLOAD PUSH1 0x20 DUP2 DUP4 SUB SUB DUP2 MSTORE SWAP1 PUSH1 0x40 MSTORE PUSH4 0x313CE567 PUSH1 0xE0 SHL PUSH1 0x20 DUP3 ADD DUP1 MLOAD PUSH28 0xFFFFFFFFFFFFFFFFFFFFFFFFFFFFFFFFFFFFFFFFFFFFFFFFFFFFFFFF DUP4 DUP2 DUP4 AND OR DUP4 MSTORE POP POP POP POP PUSH2 0x3E0 PUSH1 0x20 SHL PUSH1 0x20 SHR JUMP JUMPDEST POP SWAP2 POP SWAP2 POP PUSH2 0x299 DUP4 PUSH2 0x401 PUSH1 0x20 SHL PUSH1 0x20 SHR JUMP JUMPDEST DUP2 DUP1 ISZERO PUSH2 0x2B4 JUMPI POP PUSH1 0x20 PUSH2 0x2B1 PUSH2 0x408 PUSH1 0x20 SHL PUSH1 0x20 SHR JUMP JUMPDEST LT ISZERO JUMPDEST DUP1 ISZERO PUSH2 0x2C5 JUMPI POP PUSH1 0xFF DUP1 AND DUP2 PUSH0 SHR GT ISZERO JUMPDEST PUSH2 0x2D0 JUMPI PUSH0 PUSH0 PUSH2 0x2D6 JUMP JUMPDEST PUSH1 0x1 DUP2 PUSH0 SHR JUMPDEST SWAP5 POP SWAP5 POP POP POP POP SWAP2 POP SWAP2 JUMP JUMPDEST PUSH0 PUSH1 0x5 PUSH0 SWAP1 SLOAD SWAP1 PUSH2 0x100 EXP SWAP1 DIV PUSH20 0xFFFFFFFFFFFFFFFFFFFFFFFFFFFFFFFFFFFFFFFF AND SWAP1 POP DUP2 PUSH1 0x5 PUSH0 PUSH2 0x100 EXP DUP2 SLOAD DUP2 PUSH20 0xFFFFFFFFFFFFFFFFFFFFFFFFFFFFFFFFFFFFFFFF MUL NOT AND SWAP1 DUP4 PUSH20 0xFFFFFFFFFFFFFFFFFFFFFFFFFFFFFFFFFFFFFFFF AND MUL OR SWAP1 SSTORE POP DUP2 PUSH20 0xFFFFFFFFFFFFFFFFFFFFFFFFFFFFFFFFFFFFFFFF AND DUP2 PUSH20 0xFFFFFFFFFFFFFFFFFFFFFFFFFFFFFFFFFFFFFFFF AND PUSH32 0x8BE0079C531659141344CD1FD0A4F28419497F9722A3DAAFE3B4186F6B6457E0 PUSH1 0x40 MLOAD PUSH1 0x40 MLOAD DUP1 SWAP2 SUB SWAP1 LOG3 POP POP JUMP JUMPDEST PUSH0 PUSH32 0x9B779B17422D0DF92223018B32B4D1FA46E071723D6817E2486D003BECC55F00 PUSH0 SHL SWAP1 POP SWAP1 JUMP JUMPDEST PUSH0 DUP2 SWAP1 POP SWAP2 SWAP1 POP JUMP JUMPDEST PUSH0 PUSH1 0x40 MLOAD SWAP1 POP SWAP1 JUMP JUMPDEST PUSH0 PUSH0 PUSH0 PUSH1 0x40 PUSH0 DUP6 MLOAD PUSH1 0x20 DUP8 ADD DUP9 GAS STATICCALL SWAP3 POP PUSH0 MLOAD SWAP2 POP PUSH1 0x20 MLOAD SWAP1 POP SWAP3 POP SWAP3 POP SWAP3 JUMP JUMPDEST DUP1 PUSH1 0x40 MSTORE POP JUMP JUMPDEST PUSH0 RETURNDATASIZE SWAP1 POP SWAP1 JUMP JUMPDEST PUSH0 PUSH1 0x40 MLOAD SWAP1 POP SWAP1 JUMP JUMPDEST PUSH0 PUSH0 REVERT JUMPDEST PUSH0 PUSH0 REVERT JUMPDEST PUSH0 PUSH20 0xFFFFFFFFFFFFFFFFFFFFFFFFFFFFFFFFFFFFFFFF DUP3 AND SWAP1 POP SWAP2 SWAP1 POP JUMP JUMPDEST PUSH0 PUSH2 0x449 DUP3 PUSH2 0x420 JUMP JUMPDEST SWAP1 POP SWAP2 SWAP1 POP JUMP JUMPDEST PUSH0 PUSH2 0x45A DUP3 PUSH2 0x43F JUMP JUMPDEST SWAP1 POP SWAP2 SWAP1 POP JUMP JUMPDEST PUSH2 0x46A DUP2 PUSH2 0x450 JUMP JUMPDEST DUP2 EQ PUSH2 0x474 JUMPI PUSH0 PUSH0 REVERT JUMPDEST POP JUMP JUMPDEST PUSH0 DUP2 MLOAD SWAP1 POP PUSH2 0x485 DUP2 PUSH2 0x461 JUMP JUMPDEST SWAP3 SWAP2 POP POP JUMP JUMPDEST PUSH0 PUSH0 REVERT JUMPDEST PUSH0 PUSH0 REVERT JUMPDEST PUSH0 PUSH1 0x1F NOT PUSH1 0x1F DUP4 ADD AND SWAP1 POP SWAP2 SWAP1 POP JUMP JUMPDEST PUSH32 0x4E487B7100000000000000000000000000000000000000000000000000000000 PUSH0 MSTORE PUSH1 0x41 PUSH1 0x4 MSTORE PUSH1 0x24 PUSH0 REVERT JUMPDEST PUSH2 0x4D9 DUP3 PUSH2 0x493 JUMP JUMPDEST DUP2 ADD DUP2 DUP2 LT PUSH8 0xFFFFFFFFFFFFFFFF DUP3 GT OR ISZERO PUSH2 0x4F8 JUMPI PUSH2 0x4F7 PUSH2 0x4A3 JUMP JUMPDEST JUMPDEST DUP1 PUSH1 0x40 MSTORE POP POP POP JUMP JUMPDEST PUSH0 PUSH2 0x50A PUSH2 0x40F JUMP JUMPDEST SWAP1 POP PUSH2 0x516 DUP3 DUP3 PUSH2 0x4D0 JUMP JUMPDEST SWAP2 SWAP1 POP JUMP JUMPDEST PUSH0 PUSH8 0xFFFFFFFFFFFFFFFF DUP3 GT ISZERO PUSH2 0x535 JUMPI PUSH2 0x534 PUSH2 0x4A3 JUMP JUMPDEST JUMPDEST PUSH2 0x53E DUP3 PUSH2 0x493 JUMP JUMPDEST SWAP1 POP PUSH1 0x20 DUP2 ADD SWAP1 POP SWAP2 SWAP1 POP JUMP JUMPDEST DUP3 DUP2 DUP4 MCOPY PUSH0 DUP4 DUP4 ADD MSTORE POP POP POP JUMP JUMPDEST PUSH0 PUSH2 0x56B PUSH2 0x566 DUP5 PUSH2 0x51B JUMP JUMPDEST PUSH2 0x501 JUMP JUMPDEST SWAP1 POP DUP3 DUP2 MSTORE PUSH1 0x20 DUP2 ADD DUP5 DUP5 DUP5 ADD GT ISZERO PUSH2 0x587 JUMPI PUSH2 0x586 PUSH2 0x48F JUMP JUMPDEST JUMPDEST PUSH2 0x592 DUP5 DUP3 DUP6 PUSH2 0x54B JUMP JUMPDEST POP SWAP4 SWAP3 POP POP POP JUMP JUMPDEST PUSH0 DUP3 PUSH1 0x1F DUP4 ADD SLT PUSH2 0x5AE JUMPI PUSH2 0x5AD PUSH2 0x48B JUMP JUMPDEST JUMPDEST DUP2 MLOAD PUSH2 0x5BE DUP5 DUP3 PUSH1 0x20 DUP7 ADD PUSH2 0x559 JUMP JUMPDEST SWAP2 POP POP SWAP3 SWAP2 POP POP JUMP JUMPDEST PUSH2 0x5D0 DUP2 PUSH2 0x43F JUMP JUMPDEST DUP2 EQ PUSH2 0x5DA JUMPI PUSH0 PUSH0 REVERT JUMPDEST POP JUMP JUMPDEST PUSH0 DUP2 MLOAD SWAP1 POP PUSH2 0x5EB DUP2 PUSH2 0x5C7 JUMP JUMPDEST SWAP3 SWAP2 POP POP JUMP JUMPDEST PUSH0 PUSH0 PUSH0 PUSH0 PUSH1 0x80 DUP6 DUP8 SUB SLT ISZERO PUSH2 0x609 JUMPI PUSH2 0x608 PUSH2 0x418 JUMP JUMPDEST JUMPDEST PUSH0 PUSH2 0x616 DUP8 DUP3 DUP9 ADD PUSH2 0x477 JUMP JUMPDEST SWAP5 POP POP PUSH1 0x20 DUP6 ADD MLOAD PUSH8 0xFFFFFFFFFFFFFFFF DUP2 GT ISZERO PUSH2 0x637 JUMPI PUSH2 0x636 PUSH2 0x41C JUMP JUMPDEST JUMPDEST PUSH2 0x643 DUP8 DUP3 DUP9 ADD PUSH2 0x59A JUMP JUMPDEST SWAP4 POP POP PUSH1 0x40 DUP6 ADD MLOAD PUSH8 0xFFFFFFFFFFFFFFFF DUP2 GT ISZERO PUSH2 0x664 JUMPI PUSH2 0x663 PUSH2 0x41C JUMP JUMPDEST JUMPDEST PUSH2 0x670 DUP8 DUP3 DUP9 ADD PUSH2 0x59A JUMP JUMPDEST SWAP3 POP POP PUSH1 0x60 PUSH2 0x681 DUP8 DUP3 DUP9 ADD PUSH2 0x5DD JUMP JUMPDEST SWAP2 POP POP SWAP3 SWAP6 SWAP2 SWAP5 POP SWAP3 POP JUMP JUMPDEST PUSH0 DUP2 MLOAD SWAP1 POP SWAP2 SWAP1 POP JUMP JUMPDEST PUSH32 0x4E487B7100000000000000000000000000000000000000000000000000000000 PUSH0 MSTORE PUSH1 0x22 PUSH1 0x4 MSTORE PUSH1 0x24 PUSH0 REVERT JUMPDEST PUSH0 PUSH1 0x2 DUP3 DIV SWAP1 POP PUSH1 0x1 DUP3 AND DUP1 PUSH2 0x6DB JUMPI PUSH1 0x7F DUP3 AND SWAP2 POP JUMPDEST PUSH1 0x20 DUP3 LT DUP2 SUB PUSH2 0x6EE JUMPI PUSH2 0x6ED PUSH2 0x697 JUMP JUMPDEST JUMPDEST POP SWAP2 SWAP1 POP JUMP JUMPDEST PUSH0 DUP2 SWAP1 POP DUP2 PUSH0 MSTORE PUSH1 0x20 PUSH0 KECCAK256 SWAP1 POP SWAP2 SWAP1 POP JUMP JUMPDEST PUSH0 PUSH1 0x20 PUSH1 0x1F DUP4 ADD DIV SWAP1 POP SWAP2 SWAP1 POP JUMP JUMPDEST PUSH0 DUP3 DUP3 SHL SWAP1 POP SWAP3 SWAP2 POP POP JUMP JUMPDEST PUSH0 PUSH1 0x8 DUP4 MUL PUSH2 0x750 PUSH32 0xFFFFFFFFFFFFFFFFFFFFFFFFFFFFFFFFFFFFFFFFFFFFFFFFFFFFFFFFFFFFFFFF DUP3 PUSH2 0x715 JUMP JUMPDEST PUSH2 0x75A DUP7 DUP4 PUSH2 0x715 JUMP JUMPDEST SWAP6 POP DUP1 NOT DUP5 AND SWAP4 POP DUP1 DUP7 AND DUP5 OR SWAP3 POP POP POP SWAP4 SWAP3 POP POP POP JUMP JUMPDEST PUSH0 DUP2 SWAP1 POP SWAP2 SWAP1 POP JUMP JUMPDEST PUSH0 DUP2 SWAP1 POP SWAP2 SWAP1 POP JUMP JUMPDEST PUSH0 PUSH2 0x79E PUSH2 0x799 PUSH2 0x794 DUP5 PUSH2 0x772 JUMP JUMPDEST PUSH2 0x77B JUMP JUMPDEST PUSH2 0x772 JUMP JUMPDEST SWAP1 POP SWAP2 SWAP1 POP JUMP JUMPDEST PUSH0 DUP2 SWAP1 POP SWAP2 SWAP1 POP JUMP JUMPDEST PUSH2 0x7B7 DUP4 PUSH2 0x784 JUMP JUMPDEST PUSH2 0x7CB PUSH2 0x7C3 DUP3 PUSH2 0x7A5 JUMP JUMPDEST DUP5 DUP5 SLOAD PUSH2 0x721 JUMP JUMPDEST DUP3 SSTORE POP POP POP POP JUMP JUMPDEST PUSH0 PUSH0 SWAP1 POP SWAP1 JUMP JUMPDEST PUSH2 0x7E2 PUSH2 0x7D3 JUMP JUMPDEST PUSH2 0x7ED DUP2 DUP5 DUP5 PUSH2 0x7AE JUMP JUMPDEST POP POP POP JUMP JUMPDEST JUMPDEST DUP2 DUP2 LT ISZERO PUSH2 0x810 JUMPI PUSH2 0x805 PUSH0 DUP3 PUSH2 0x7DA JUMP JUMPDEST PUSH1 0x1 DUP2 ADD SWAP1 POP PUSH2 0x7F3 JUMP JUMPDEST POP POP JUMP JUMPDEST PUSH1 0x1F DUP3 GT ISZERO PUSH2 0x855 JUMPI PUSH2 0x826 DUP2 PUSH2 0x6F4 JUMP JUMPDEST PUSH2 0x82F DUP5 PUSH2 0x706 JUMP JUMPDEST DUP2 ADD PUSH1 0x20 DUP6 LT ISZERO PUSH2 0x83E JUMPI DUP2 SWAP1 POP JUMPDEST PUSH2 0x852 PUSH2 0x84A DUP6 PUSH2 0x706 JUMP JUMPDEST DUP4 ADD DUP3 PUSH2 0x7F2 JUMP JUMPDEST POP POP JUMPDEST POP POP POP JUMP JUMPDEST PUSH0 DUP3 DUP3 SHR SWAP1 POP SWAP3 SWAP2 POP POP JUMP JUMPDEST PUSH0 PUSH2 0x875 PUSH0 NOT DUP5 PUSH1 0x8 MUL PUSH2 0x85A JUMP JUMPDEST NOT DUP1 DUP4 AND SWAP2 POP POP SWAP3 SWAP2 POP POP JUMP JUMPDEST PUSH0 PUSH2 0x88D DUP4 DUP4 PUSH2 0x866 JUMP JUMPDEST SWAP2 POP DUP3 PUSH1 0x2 MUL DUP3 OR SWAP1 POP SWAP3 SWAP2 POP POP JUMP JUMPDEST PUSH2 0x8A6 DUP3 PUSH2 0x68D JUMP JUMPDEST PUSH8 0xFFFFFFFFFFFFFFFF DUP2 GT ISZERO PUSH2 0x8BF JUMPI PUSH2 0x8BE PUSH2 0x4A3 JUMP JUMPDEST JUMPDEST PUSH2 0x8C9 DUP3 SLOAD PUSH2 0x6C4 JUMP JUMPDEST PUSH2 0x8D4 DUP3 DUP3 DUP6 PUSH2 0x814 JUMP JUMPDEST PUSH0 PUSH1 0x20 SWAP1 POP PUSH1 0x1F DUP4 GT PUSH1 0x1 DUP2 EQ PUSH2 0x905 JUMPI PUSH0 DUP5 ISZERO PUSH2 0x8F3 JUMPI DUP3 DUP8 ADD MLOAD SWAP1 POP JUMPDEST PUSH2 0x8FD DUP6 DUP3 PUSH2 0x882 JUMP JUMPDEST DUP7 SSTORE POP PUSH2 0x964 JUMP JUMPDEST PUSH1 0x1F NOT DUP5 AND PUSH2 0x913 DUP7 PUSH2 0x6F4 JUMP JUMPDEST PUSH0 JUMPDEST DUP3 DUP2 LT ISZERO PUSH2 0x93A JUMPI DUP5 DUP10 ADD MLOAD DUP3 SSTORE PUSH1 0x1 DUP3 ADD SWAP2 POP PUSH1 0x20 DUP6 ADD SWAP5 POP PUSH1 0x20 DUP2 ADD SWAP1 POP PUSH2 0x915 JUMP JUMPDEST DUP7 DUP4 LT ISZERO PUSH2 0x957 JUMPI DUP5 DUP10 ADD MLOAD PUSH2 0x953 PUSH1 0x1F DUP10 AND DUP3 PUSH2 0x866 JUMP JUMPDEST DUP4 SSTORE POP JUMPDEST PUSH1 0x1 PUSH1 0x2 DUP9 MUL ADD DUP9 SSTORE POP POP POP JUMPDEST POP POP POP POP POP POP JUMP JUMPDEST PUSH2 0x975 DUP2 PUSH2 0x43F JUMP JUMPDEST DUP3 MSTORE POP POP JUMP JUMPDEST PUSH0 PUSH1 0x20 DUP3 ADD SWAP1 POP PUSH2 0x98E PUSH0 DUP4 ADD DUP5 PUSH2 0x96C JUMP JUMPDEST SWAP3 SWAP2 POP POP JUMP JUMPDEST PUSH1 0x80 MLOAD PUSH1 0xA0 MLOAD PUSH2 0x5466 PUSH2 0x9B5 PUSH0 CODECOPY PUSH0 PUSH2 0xC83 ADD MSTORE PUSH0 PUSH2 0xCB4 ADD MSTORE PUSH2 0x5466 PUSH0 RETURN INVALID PUSH1 0x80 PUSH1 0x40 MSTORE CALLVALUE DUP1 ISZERO PUSH2 0xF JUMPI PUSH0 PUSH0 REVERT JUMPDEST POP PUSH1 0x4 CALLDATASIZE LT PUSH2 0x2B9 JUMPI PUSH0 CALLDATALOAD PUSH1 0xE0 SHR DUP1 PUSH4 0x94BF804D GT PUSH2 0x180 JUMPI DUP1 PUSH4 0xCE96CB77 GT PUSH2 0xE7 JUMPI DUP1 PUSH4 0xDD62ED3E GT PUSH2 0xA0 JUMPI DUP1 PUSH4 0xF11E7A4F GT PUSH2 0x7A JUMPI DUP1 PUSH4 0xF11E7A4F EQ PUSH2 0x95F JUMPI DUP1 PUSH4 0xF19993D7 EQ PUSH2 0x97B JUMPI DUP1 PUSH4 0xF2FDE38B EQ PUSH2 0x999 JUMPI DUP1 PUSH4 0xFDE6E8D5 EQ PUSH2 0x9B5 JUMPI PUSH2 0x2B9 JUMP JUMPDEST DUP1 PUSH4 0xDD62ED3E EQ PUSH2 0x8E3 JUMPI DUP1 PUSH4 0xE74B981B EQ PUSH2 0x913 JUMPI DUP1 PUSH4 0xEF8B30F7 EQ PUSH2 0x92F JUMPI PUSH2 0x2B9 JUMP JUMPDEST DUP1 PUSH4 0xCE96CB77 EQ PUSH2 0x7E4 JUMPI DUP1 PUSH4 0xCEB0F626 EQ PUSH2 0x814 JUMPI DUP1 PUSH4 0xCFC0CC34 EQ PUSH2 0x832 JUMPI DUP1 PUSH4 0xD11F519C EQ PUSH2 0x865 JUMPI DUP1 PUSH4 0xD574EA3D EQ PUSH2 0x881 JUMPI DUP1 PUSH4 0xD905777E EQ PUSH2 0x8B3 JUMPI PUSH2 0x2B9 JUMP JUMPDEST DUP1 PUSH4 0xBA087652 GT PUSH2 0x139 JUMPI DUP1 PUSH4 0xBA087652 EQ PUSH2 0x6EA JUMPI DUP1 PUSH4 0xBB4CC676 EQ PUSH2 0x71A JUMPI DUP1 PUSH4 0xC0CBBCA6 EQ PUSH2 0x74A JUMPI DUP1 PUSH4 0xC3B28864 EQ PUSH2 0x766 JUMPI DUP1 PUSH4 0xC63D75B6 EQ PUSH2 0x784 JUMPI DUP1 PUSH4 0xC6E6F592 EQ PUSH2 0x7B4 JUMPI PUSH2 0x2B9 JUMP JUMPDEST DUP1 PUSH4 0x94BF804D EQ PUSH2 0x5EE JUMPI DUP1 PUSH4 0x95D89B41 EQ PUSH2 0x61E JUMPI DUP1 PUSH4 0xA9059CBB EQ PUSH2 0x63C JUMPI DUP1 PUSH4 0xB3D7F6B9 EQ PUSH2 0x66C JUMPI DUP1 PUSH4 0xB460AF94 EQ PUSH2 0x69C JUMPI DUP1 PUSH4 0xB9D4E879 EQ PUSH2 0x6CC JUMPI PUSH2 0x2B9 JUMP JUMPDEST DUP1 PUSH4 0x46904840 GT PUSH2 0x224 JUMPI DUP1 PUSH4 0x70897B23 GT PUSH2 0x1DD JUMPI DUP1 PUSH4 0x70897B23 EQ PUSH2 0x551 JUMPI DUP1 PUSH4 0x70A08231 EQ PUSH2 0x56D JUMPI DUP1 PUSH4 0x715018A6 EQ PUSH2 0x59D JUMPI DUP1 PUSH4 0x7D7C2A1C EQ PUSH2 0x5A7 JUMPI DUP1 PUSH4 0x810EB980 EQ PUSH2 0x5B1 JUMPI DUP1 PUSH4 0x8DA5CB5B EQ PUSH2 0x5D0 JUMPI PUSH2 0x2B9 JUMP JUMPDEST DUP1 PUSH4 0x46904840 EQ PUSH2 0x47F JUMPI DUP1 PUSH4 0x4B1CF0DE EQ PUSH2 0x49D JUMPI DUP1 PUSH4 0x4CDAD506 EQ PUSH2 0x4B9 JUMPI DUP1 PUSH4 0x5312EA8E EQ PUSH2 0x4E9 JUMPI DUP1 PUSH4 0x6643DE84 EQ PUSH2 0x505 JUMPI DUP1 PUSH4 0x6E553F65 EQ PUSH2 0x521 JUMPI PUSH2 0x2B9 JUMP JUMPDEST DUP1 PUSH4 0x23B872DD GT PUSH2 0x276 JUMPI DUP1 PUSH4 0x23B872DD EQ PUSH2 0x3A7 JUMPI DUP1 PUSH4 0x23DC1142 EQ PUSH2 0x3D7 JUMPI DUP1 PUSH4 0x313CE567 EQ PUSH2 0x3F5 JUMPI DUP1 PUSH4 0x38D52E0F EQ PUSH2 0x413 JUMPI DUP1 PUSH4 0x402D267D EQ PUSH2 0x431 JUMPI DUP1 PUSH4 0x4641257D EQ PUSH2 0x461 JUMPI PUSH2 0x2B9 JUMP JUMPDEST DUP1 PUSH4 0x1E1D114 EQ PUSH2 0x2BD JUMPI DUP1 PUSH4 0x6FDDE03 EQ PUSH2 0x2DB JUMPI DUP1 PUSH4 0x7A2D13A EQ PUSH2 0x2F9 JUMPI DUP1 PUSH4 0x95EA7B3 EQ PUSH2 0x329 JUMPI DUP1 PUSH4 0xA28A477 EQ PUSH2 0x359 JUMPI DUP1 PUSH4 0x18160DDD EQ PUSH2 0x389 JUMPI JUMPDEST PUSH0 PUSH0 REVERT JUMPDEST PUSH2 0x2C5 PUSH2 0x9D1 JUMP JUMPDEST PUSH1 0x40 MLOAD PUSH2 0x2D2 SWAP2 SWAP1 PUSH2 0x42C3 JUMP JUMPDEST PUSH1 0x40 MLOAD DUP1 SWAP2 SUB SWAP1 RETURN JUMPDEST PUSH2 0x2E3 PUSH2 0xB64 JUMP JUMPDEST PUSH1 0x40 MLOAD PUSH2 0x2F0 SWAP2 SWAP1 PUSH2 0x434C JUMP JUMPDEST PUSH1 0x40 MLOAD DUP1 SWAP2 SUB SWAP1 RETURN JUMPDEST PUSH2 0x313 PUSH1 0x4 DUP1 CALLDATASIZE SUB DUP2 ADD SWAP1 PUSH2 0x30E SWAP2 SWAP1 PUSH2 0x43A7 JUMP JUMPDEST PUSH2 0xBF4 JUMP JUMPDEST PUSH1 0x40 MLOAD PUSH2 0x320 SWAP2 SWAP1 PUSH2 0x42C3 JUMP JUMPDEST PUSH1 0x40 MLOAD DUP1 SWAP2 SUB SWAP1 RETURN JUMPDEST PUSH2 0x343 PUSH1 0x4 DUP1 CALLDATASIZE SUB DUP2 ADD SWAP1 PUSH2 0x33E SWAP2 SWAP1 PUSH2 0x442C JUMP JUMPDEST PUSH2 0xC06 JUMP JUMPDEST PUSH1 0x40 MLOAD PUSH2 0x350 SWAP2 SWAP1 PUSH2 0x4484 JUMP JUMPDEST PUSH1 0x40 MLOAD DUP1 SWAP2 SUB SWAP1 RETURN JUMPDEST PUSH2 0x373 PUSH1 0x4 DUP1 CALLDATASIZE SUB DUP2 ADD SWAP1 PUSH2 0x36E SWAP2 SWAP1 PUSH2 0x43A7 JUMP JUMPDEST PUSH2 0xC28 JUMP JUMPDEST PUSH1 0x40 MLOAD PUSH2 0x380 SWAP2 SWAP1 PUSH2 0x42C3 JUMP JUMPDEST PUSH1 0x40 MLOAD DUP1 SWAP2 SUB SWAP1 RETURN JUMPDEST PUSH2 0x391 PUSH2 0xC3B JUMP JUMPDEST PUSH1 0x40 MLOAD PUSH2 0x39E SWAP2 SWAP1 PUSH2 0x42C3 JUMP JUMPDEST PUSH1 0x40 MLOAD DUP1 SWAP2 SUB SWAP1 RETURN JUMPDEST PUSH2 0x3C1 PUSH1 0x4 DUP1 CALLDATASIZE SUB DUP2 ADD SWAP1 PUSH2 0x3BC SWAP2 SWAP1 PUSH2 0x449D JUMP JUMPDEST PUSH2 0xC44 JUMP JUMPDEST PUSH1 0x40 MLOAD PUSH2 0x3CE SWAP2 SWAP1 PUSH2 0x4484 JUMP JUMPDEST PUSH1 0x40 MLOAD DUP1 SWAP2 SUB SWAP1 RETURN JUMPDEST PUSH2 0x3DF PUSH2 0xC72 JUMP JUMPDEST PUSH1 0x40 MLOAD PUSH2 0x3EC SWAP2 SWAP1 PUSH2 0x42C3 JUMP JUMPDEST PUSH1 0x40 MLOAD DUP1 SWAP2 SUB SWAP1 RETURN JUMPDEST PUSH2 0x3FD PUSH2 0xC78 JUMP JUMPDEST PUSH1 0x40 MLOAD PUSH2 0x40A SWAP2 SWAP1 PUSH2 0x4508 JUMP JUMPDEST PUSH1 0x40 MLOAD DUP1 SWAP2 SUB SWAP1 RETURN JUMPDEST PUSH2 0x41B PUSH2 0xCB1 JUMP JUMPDEST PUSH1 0x40 MLOAD PUSH2 0x428 SWAP2 SWAP1 PUSH2 0x4530 JUMP JUMPDEST PUSH1 0x40 MLOAD DUP1 SWAP2 SUB SWAP1 RETURN JUMPDEST PUSH2 0x44B PUSH1 0x4 DUP1 CALLDATASIZE SUB DUP2 ADD SWAP1 PUSH2 0x446 SWAP2 SWAP1 PUSH2 0x4549 JUMP JUMPDEST PUSH2 0xCD8 JUMP JUMPDEST PUSH1 0x40 MLOAD PUSH2 0x458 SWAP2 SWAP1 PUSH2 0x42C3 JUMP JUMPDEST PUSH1 0x40 MLOAD DUP1 SWAP2 SUB SWAP1 RETURN JUMPDEST PUSH2 0x469 PUSH2 0xD01 JUMP JUMPDEST PUSH1 0x40 MLOAD PUSH2 0x476 SWAP2 SWAP1 PUSH2 0x42C3 JUMP JUMPDEST PUSH1 0x40 MLOAD DUP1 SWAP2 SUB SWAP1 RETURN JUMPDEST PUSH2 0x487 PUSH2 0x1039 JUMP JUMPDEST PUSH1 0x40 MLOAD PUSH2 0x494 SWAP2 SWAP1 PUSH2 0x4530 JUMP JUMPDEST PUSH1 0x40 MLOAD DUP1 SWAP2 SUB SWAP1 RETURN JUMPDEST PUSH2 0x4B7 PUSH1 0x4 DUP1 CALLDATASIZE SUB DUP2 ADD SWAP1 PUSH2 0x4B2 SWAP2 SWAP1 PUSH2 0x459E JUMP JUMPDEST PUSH2 0x105E JUMP JUMPDEST STOP JUMPDEST PUSH2 0x4D3 PUSH1 0x4 DUP1 CALLDATASIZE SUB DUP2 ADD SWAP1 PUSH2 0x4CE SWAP2 SWAP1 PUSH2 0x43A7 JUMP JUMPDEST PUSH2 0x1122 JUMP JUMPDEST PUSH1 0x40 MLOAD PUSH2 0x4E0 SWAP2 SWAP1 PUSH2 0x42C3 JUMP JUMPDEST PUSH1 0x40 MLOAD DUP1 SWAP2 SUB SWAP1 RETURN JUMPDEST PUSH2 0x503 PUSH1 0x4 DUP1 CALLDATASIZE SUB DUP2 ADD SWAP1 PUSH2 0x4FE SWAP2 SWAP1 PUSH2 0x43A7 JUMP JUMPDEST PUSH2 0x1134 JUMP JUMPDEST STOP JUMPDEST PUSH2 0x51F PUSH1 0x4 DUP1 CALLDATASIZE SUB DUP2 ADD SWAP1 PUSH2 0x51A SWAP2 SWAP1 PUSH2 0x45EE JUMP JUMPDEST PUSH2 0x12D6 JUMP JUMPDEST STOP JUMPDEST PUSH2 0x53B PUSH1 0x4 DUP1 CALLDATASIZE SUB DUP2 ADD SWAP1 PUSH2 0x536 SWAP2 SWAP1 PUSH2 0x462C JUMP JUMPDEST PUSH2 0x1384 JUMP JUMPDEST PUSH1 0x40 MLOAD PUSH2 0x548 SWAP2 SWAP1 PUSH2 0x42C3 JUMP JUMPDEST PUSH1 0x40 MLOAD DUP1 SWAP2 SUB SWAP1 RETURN JUMPDEST PUSH2 0x56B PUSH1 0x4 DUP1 CALLDATASIZE SUB DUP2 ADD SWAP1 PUSH2 0x566 SWAP2 SWAP1 PUSH2 0x43A7 JUMP JUMPDEST PUSH2 0x1454 JUMP JUMPDEST STOP JUMPDEST PUSH2 0x587 PUSH1 0x4 DUP1 CALLDATASIZE SUB DUP2 ADD SWAP1 PUSH2 0x582 SWAP2 SWAP1 PUSH2 0x4549 JUMP JUMPDEST PUSH2 0x14E2 JUMP JUMPDEST PUSH1 0x40 MLOAD PUSH2 0x594 SWAP2 SWAP1 PUSH2 0x42C3 JUMP JUMPDEST PUSH1 0x40 MLOAD DUP1 SWAP2 SUB SWAP1 RETURN JUMPDEST PUSH2 0x5A5 PUSH2 0x1527 JUMP JUMPDEST STOP JUMPDEST PUSH2 0x5AF PUSH2 0x153A JUMP JUMPDEST STOP JUMPDEST PUSH2 0x5B9 PUSH2 0x1731 JUMP JUMPDEST PUSH1 0x40 MLOAD PUSH2 0x5C7 SWAP3 SWAP2 SWAP1 PUSH2 0x466A JUMP JUMPDEST PUSH1 0x40 MLOAD DUP1 SWAP2 SUB SWAP1 RETURN JUMPDEST PUSH2 0x5D8 PUSH2 0x17D6 JUMP JUMPDEST PUSH1 0x40 MLOAD PUSH2 0x5E5 SWAP2 SWAP1 PUSH2 0x4530 JUMP JUMPDEST PUSH1 0x40 MLOAD DUP1 SWAP2 SUB SWAP1 RETURN JUMPDEST PUSH2 0x608 PUSH1 0x4 DUP1 CALLDATASIZE SUB DUP2 ADD SWAP1 PUSH2 0x603 SWAP2 SWAP1 PUSH2 0x462C JUMP JUMPDEST PUSH2 0x17FE JUMP JUMPDEST PUSH1 0x40 MLOAD PUSH2 0x615 SWAP2 SWAP1 PUSH2 0x42C3 JUMP JUMPDEST PUSH1 0x40 MLOAD DUP1 SWAP2 SUB SWAP1 RETURN JUMPDEST PUSH2 0x626 PUSH2 0x187E JUMP JUMPDEST PUSH1 0x40 MLOAD PUSH2 0x633 SWAP2 SWAP1 PUSH2 0x434C JUMP JUMPDEST PUSH1 0x40 MLOAD DUP1 SWAP2 SUB SWAP1 RETURN JUMPDEST PUSH2 0x656 PUSH1 0x4 DUP1 CALLDATASIZE SUB DUP2 ADD SWAP1 PUSH2 0x651 SWAP2 SWAP1 PUSH2 0x442C JUMP JUMPDEST PUSH2 0x190E JUMP JUMPDEST PUSH1 0x40 MLOAD PUSH2 0x663 SWAP2 SWAP1 PUSH2 0x4484 JUMP JUMPDEST PUSH1 0x40 MLOAD DUP1 SWAP2 SUB SWAP1 RETURN JUMPDEST PUSH2 0x686 PUSH1 0x4 DUP1 CALLDATASIZE SUB DUP2 ADD SWAP1 PUSH2 0x681 SWAP2 SWAP1 PUSH2 0x43A7 JUMP JUMPDEST PUSH2 0x1930 JUMP JUMPDEST PUSH1 0x40 MLOAD PUSH2 0x693 SWAP2 SWAP1 PUSH2 0x42C3 JUMP JUMPDEST PUSH1 0x40 MLOAD DUP1 SWAP2 SUB SWAP1 RETURN JUMPDEST PUSH2 0x6B6 PUSH1 0x4 DUP1 CALLDATASIZE SUB DUP2 ADD SWAP1 PUSH2 0x6B1 SWAP2 SWAP1 PUSH2 0x4691 JUMP JUMPDEST PUSH2 0x1943 JUMP JUMPDEST PUSH1 0x40 MLOAD PUSH2 0x6C3 SWAP2 SWAP1 PUSH2 0x42C3 JUMP JUMPDEST PUSH1 0x40 MLOAD DUP1 SWAP2 SUB SWAP1 RETURN JUMPDEST PUSH2 0x6D4 PUSH2 0x1B8C JUMP JUMPDEST PUSH1 0x40 MLOAD PUSH2 0x6E1 SWAP2 SWAP1 PUSH2 0x42C3 JUMP JUMPDEST PUSH1 0x40 MLOAD DUP1 SWAP2 SUB SWAP1 RETURN JUMPDEST PUSH2 0x704 PUSH1 0x4 DUP1 CALLDATASIZE SUB DUP2 ADD SWAP1 PUSH2 0x6FF SWAP2 SWAP1 PUSH2 0x4691 JUMP JUMPDEST PUSH2 0x1B92 JUMP JUMPDEST PUSH1 0x40 MLOAD PUSH2 0x711 SWAP2 SWAP1 PUSH2 0x42C3 JUMP JUMPDEST PUSH1 0x40 MLOAD DUP1 SWAP2 SUB SWAP1 RETURN JUMPDEST PUSH2 0x734 PUSH1 0x4 DUP1 CALLDATASIZE SUB DUP2 ADD SWAP1 PUSH2 0x72F SWAP2 SWAP1 PUSH2 0x4549 JUMP JUMPDEST PUSH2 0x1DDB JUMP JUMPDEST PUSH1 0x40 MLOAD PUSH2 0x741 SWAP2 SWAP1 PUSH2 0x4484 JUMP JUMPDEST PUSH1 0x40 MLOAD DUP1 SWAP2 SUB SWAP1 RETURN JUMPDEST PUSH2 0x764 PUSH1 0x4 DUP1 CALLDATASIZE SUB DUP2 ADD SWAP1 PUSH2 0x75F SWAP2 SWAP1 PUSH2 0x43A7 JUMP JUMPDEST PUSH2 0x1DF8 JUMP JUMPDEST STOP JUMPDEST PUSH2 0x76E PUSH2 0x1FFB JUMP JUMPDEST PUSH1 0x40 MLOAD PUSH2 0x77B SWAP2 SWAP1 PUSH2 0x4803 JUMP JUMPDEST PUSH1 0x40 MLOAD DUP1 SWAP2 SUB SWAP1 RETURN JUMPDEST PUSH2 0x79E PUSH1 0x4 DUP1 CALLDATASIZE SUB DUP2 ADD SWAP1 PUSH2 0x799 SWAP2 SWAP1 PUSH2 0x4549 JUMP JUMPDEST PUSH2 0x20E0 JUMP JUMPDEST PUSH1 0x40 MLOAD PUSH2 0x7AB SWAP2 SWAP1 PUSH2 0x42C3 JUMP JUMPDEST PUSH1 0x40 MLOAD DUP1 SWAP2 SUB SWAP1 RETURN JUMPDEST PUSH2 0x7CE PUSH1 0x4 DUP1 CALLDATASIZE SUB DUP2 ADD SWAP1 PUSH2 0x7C9 SWAP2 SWAP1 PUSH2 0x43A7 JUMP JUMPDEST PUSH2 0x2109 JUMP JUMPDEST PUSH1 0x40 MLOAD PUSH2 0x7DB SWAP2 SWAP1 PUSH2 0x42C3 JUMP JUMPDEST PUSH1 0x40 MLOAD DUP1 SWAP2 SUB SWAP1 RETURN JUMPDEST PUSH2 0x7FE PUSH1 0x4 DUP1 CALLDATASIZE SUB DUP2 ADD SWAP1 PUSH2 0x7F9 SWAP2 SWAP1 PUSH2 0x4549 JUMP JUMPDEST PUSH2 0x211B JUMP JUMPDEST PUSH1 0x40 MLOAD PUSH2 0x80B SWAP2 SWAP1 PUSH2 0x42C3 JUMP JUMPDEST PUSH1 0x40 MLOAD DUP1 SWAP2 SUB SWAP1 RETURN JUMPDEST PUSH2 0x81C PUSH2 0x2134 JUMP JUMPDEST PUSH1 0x40 MLOAD PUSH2 0x829 SWAP2 SWAP1 PUSH2 0x42C3 JUMP JUMPDEST PUSH1 0x40 MLOAD DUP1 SWAP2 SUB SWAP1 RETURN JUMPDEST PUSH2 0x84C PUSH1 0x4 DUP1 CALLDATASIZE SUB DUP2 ADD SWAP1 PUSH2 0x847 SWAP2 SWAP1 PUSH2 0x43A7 JUMP JUMPDEST PUSH2 0x213A JUMP JUMPDEST PUSH1 0x40 MLOAD PUSH2 0x85C SWAP5 SWAP4 SWAP3 SWAP2 SWAP1 PUSH2 0x4832 JUMP JUMPDEST PUSH1 0x40 MLOAD DUP1 SWAP2 SUB SWAP1 RETURN JUMPDEST PUSH2 0x87F PUSH1 0x4 DUP1 CALLDATASIZE SUB DUP2 ADD SWAP1 PUSH2 0x87A SWAP2 SWAP1 PUSH2 0x489F JUMP JUMPDEST PUSH2 0x22CD JUMP JUMPDEST STOP JUMPDEST PUSH2 0x89B PUSH1 0x4 DUP1 CALLDATASIZE SUB DUP2 ADD SWAP1 PUSH2 0x896 SWAP2 SWAP1 PUSH2 0x43A7 JUMP JUMPDEST PUSH2 0x2544 JUMP JUMPDEST PUSH1 0x40 MLOAD PUSH2 0x8AA SWAP4 SWAP3 SWAP2 SWAP1 PUSH2 0x48DD JUMP JUMPDEST PUSH1 0x40 MLOAD DUP1 SWAP2 SUB SWAP1 RETURN JUMPDEST PUSH2 0x8CD PUSH1 0x4 DUP1 CALLDATASIZE SUB DUP2 ADD SWAP1 PUSH2 0x8C8 SWAP2 SWAP1 PUSH2 0x4549 JUMP JUMPDEST PUSH2 0x25AD JUMP JUMPDEST PUSH1 0x40 MLOAD PUSH2 0x8DA SWAP2 SWAP1 PUSH2 0x42C3 JUMP JUMPDEST PUSH1 0x40 MLOAD DUP1 SWAP2 SUB SWAP1 RETURN JUMPDEST PUSH2 0x8FD PUSH1 0x4 DUP1 CALLDATASIZE SUB DUP2 ADD SWAP1 PUSH2 0x8F8 SWAP2 SWAP1 PUSH2 0x4912 JUMP JUMPDEST PUSH2 0x25BE JUMP JUMPDEST PUSH1 0x40 MLOAD PUSH2 0x90A SWAP2 SWAP1 PUSH2 0x42C3 JUMP JUMPDEST PUSH1 0x40 MLOAD DUP1 SWAP2 SUB SWAP1 RETURN JUMPDEST PUSH2 0x92D PUSH1 0x4 DUP1 CALLDATASIZE SUB DUP2 ADD SWAP1 PUSH2 0x928 SWAP2 SWAP1 PUSH2 0x4549 JUMP JUMPDEST PUSH2 0x2640 JUMP JUMPDEST STOP JUMPDEST PUSH2 0x949 PUSH1 0x4 DUP1 CALLDATASIZE SUB DUP2 ADD SWAP1 PUSH2 0x944 SWAP2 SWAP1 PUSH2 0x43A7 JUMP JUMPDEST PUSH2 0x2770 JUMP JUMPDEST PUSH1 0x40 MLOAD PUSH2 0x956 SWAP2 SWAP1 PUSH2 0x42C3 JUMP JUMPDEST PUSH1 0x40 MLOAD DUP1 SWAP2 SUB SWAP1 RETURN JUMPDEST PUSH2 0x979 PUSH1 0x4 DUP1 CALLDATASIZE SUB DUP2 ADD SWAP1 PUSH2 0x974 SWAP2 SWAP1 PUSH2 0x4AE9 JUMP JUMPDEST PUSH2 0x2782 JUMP JUMPDEST STOP JUMPDEST PUSH2 0x983 PUSH2 0x2ADE JUMP JUMPDEST PUSH1 0x40 MLOAD PUSH2 0x990 SWAP2 SWAP1 PUSH2 0x42C3 JUMP JUMPDEST PUSH1 0x40 MLOAD DUP1 SWAP2 SUB SWAP1 RETURN JUMPDEST PUSH2 0x9B3 PUSH1 0x4 DUP1 CALLDATASIZE SUB DUP2 ADD SWAP1 PUSH2 0x9AE SWAP2 SWAP1 PUSH2 0x4549 JUMP JUMPDEST PUSH2 0x2CDD JUMP JUMPDEST STOP JUMPDEST PUSH2 0x9CF PUSH1 0x4 DUP1 CALLDATASIZE SUB DUP2 ADD SWAP1 PUSH2 0x9CA SWAP2 SWAP1 PUSH2 0x4BE1 JUMP JUMPDEST PUSH2 0x2D61 JUMP JUMPDEST STOP JUMPDEST PUSH0 PUSH0 PUSH2 0x9DB PUSH2 0xCB1 JUMP JUMPDEST PUSH20 0xFFFFFFFFFFFFFFFFFFFFFFFFFFFFFFFFFFFFFFFF AND PUSH4 0x70A08231 ADDRESS PUSH1 0x40 MLOAD DUP3 PUSH4 0xFFFFFFFF AND PUSH1 0xE0 SHL DUP2 MSTORE PUSH1 0x4 ADD PUSH2 0xA13 SWAP2 SWAP1 PUSH2 0x4530 JUMP JUMPDEST PUSH1 0x20 PUSH1 0x40 MLOAD DUP1 DUP4 SUB DUP2 DUP7 GAS STATICCALL ISZERO DUP1 ISZERO PUSH2 0xA2E JUMPI RETURNDATASIZE PUSH0 PUSH0 RETURNDATACOPY RETURNDATASIZE PUSH0 REVERT JUMPDEST POP POP POP POP PUSH1 0x40 MLOAD RETURNDATASIZE PUSH1 0x1F NOT PUSH1 0x1F DUP3 ADD AND DUP3 ADD DUP1 PUSH1 0x40 MSTORE POP DUP2 ADD SWAP1 PUSH2 0xA52 SWAP2 SWAP1 PUSH2 0x4C86 JUMP JUMPDEST SWAP1 POP PUSH0 PUSH0 SWAP1 POP JUMPDEST PUSH1 0x7 DUP1 SLOAD SWAP1 POP DUP2 LT ISZERO PUSH2 0xB5C JUMPI PUSH1 0x7 DUP2 DUP2 SLOAD DUP2 LT PUSH2 0xA7A JUMPI PUSH2 0xA79 PUSH2 0x4CB1 JUMP JUMPDEST JUMPDEST SWAP1 PUSH0 MSTORE PUSH1 0x20 PUSH0 KECCAK256 ADD PUSH0 ADD PUSH1 0x16 SWAP1 SLOAD SWAP1 PUSH2 0x100 EXP SWAP1 DIV PUSH1 0xFF AND ISZERO PUSH2 0xB4F JUMPI PUSH1 0x7 DUP2 DUP2 SLOAD DUP2 LT PUSH2 0xAAB JUMPI PUSH2 0xAAA PUSH2 0x4CB1 JUMP JUMPDEST JUMPDEST SWAP1 PUSH0 MSTORE PUSH1 0x20 PUSH0 KECCAK256 ADD PUSH0 ADD PUSH0 SWAP1 SLOAD SWAP1 PUSH2 0x100 EXP SWAP1 DIV PUSH20 0xFFFFFFFFFFFFFFFFFFFFFFFFFFFFFFFFFFFFFFFF AND PUSH20 0xFFFFFFFFFFFFFFFFFFFFFFFFFFFFFFFFFFFFFFFF AND PUSH4 0x1E1D114 PUSH1 0x40 MLOAD DUP2 PUSH4 0xFFFFFFFF AND PUSH1 0xE0 SHL DUP2 MSTORE PUSH1 0x4 ADD PUSH1 0x20 PUSH1 0x40 MLOAD DUP1 DUP4 SUB DUP2 DUP7 GAS STATICCALL ISZERO DUP1 ISZERO PUSH2 0xB1D JUMPI RETURNDATASIZE PUSH0 PUSH0 RETURNDATACOPY RETURNDATASIZE PUSH0 REVERT JUMPDEST POP POP POP POP PUSH1 0x40 MLOAD RETURNDATASIZE PUSH1 0x1F NOT PUSH1 0x1F DUP3 ADD AND DUP3 ADD DUP1 PUSH1 0x40 MSTORE POP DUP2 ADD SWAP1 PUSH2 0xB41 SWAP2 SWAP1 PUSH2 0x4C86 JUMP JUMPDEST DUP3 PUSH2 0xB4C SWAP2 SWAP1 PUSH2 0x4D0B JUMP JUMPDEST SWAP2 POP JUMPDEST DUP1 DUP1 PUSH1 0x1 ADD SWAP2 POP POP PUSH2 0xA59 JUMP JUMPDEST POP DUP1 SWAP2 POP POP SWAP1 JUMP JUMPDEST PUSH1 0x60 PUSH1 0x3 DUP1 SLOAD PUSH2 0xB73 SWAP1 PUSH2 0x4D6B JUMP JUMPDEST DUP1 PUSH1 0x1F ADD PUSH1 0x20 DUP1 SWAP2 DIV MUL PUSH1 0x20 ADD PUSH1 0x40 MLOAD SWAP1 DUP2 ADD PUSH1 0x40 MSTORE DUP1 SWAP3 SWAP2 SWAP1 DUP2 DUP2 MSTORE PUSH1 0x20 ADD DUP3 DUP1 SLOAD PUSH2 0xB9F SWAP1 PUSH2 0x4D6B JUMP JUMPDEST DUP1 ISZERO PUSH2 0xBEA JUMPI DUP1 PUSH1 0x1F LT PUSH2 0xBC1 JUMPI PUSH2 0x100 DUP1 DUP4 SLOAD DIV MUL DUP4 MSTORE SWAP2 PUSH1 0x20 ADD SWAP2 PUSH2 0xBEA JUMP JUMPDEST DUP3 ADD SWAP2 SWAP1 PUSH0 MSTORE PUSH1 0x20 PUSH0 KECCAK256 SWAP1 JUMPDEST DUP2 SLOAD DUP2 MSTORE SWAP1 PUSH1 0x1 ADD SWAP1 PUSH1 0x20 ADD DUP1 DUP4 GT PUSH2 0xBCD JUMPI DUP3 SWAP1 SUB PUSH1 0x1F AND DUP3 ADD SWAP2 JUMPDEST POP POP POP POP POP SWAP1 POP SWAP1 JUMP JUMPDEST PUSH0 PUSH2 0xBFF DUP3 PUSH0 PUSH2 0x2ECA JUMP JUMPDEST SWAP1 POP SWAP2 SWAP1 POP JUMP JUMPDEST PUSH0 PUSH0 PUSH2 0xC10 PUSH2 0x2F22 JUMP JUMPDEST SWAP1 POP PUSH2 0xC1D DUP2 DUP6 DUP6 PUSH2 0x2F29 JUMP JUMPDEST PUSH1 0x1 SWAP2 POP POP SWAP3 SWAP2 POP POP JUMP JUMPDEST PUSH0 PUSH2 0xC34 DUP3 PUSH1 0x1 PUSH2 0x2F3B JUMP JUMPDEST SWAP1 POP SWAP2 SWAP1 POP JUMP JUMPDEST PUSH0 PUSH1 0x2 SLOAD SWAP1 POP SWAP1 JUMP JUMPDEST PUSH0 PUSH0 PUSH2 0xC4E PUSH2 0x2F22 JUMP JUMPDEST SWAP1 POP PUSH2 0xC5B DUP6 DUP3 DUP6 PUSH2 0x2F93 JUMP JUMPDEST PUSH2 0xC66 DUP6 DUP6 DUP6 PUSH2 0x3026 JUMP JUMPDEST PUSH1 0x1 SWAP2 POP POP SWAP4 SWAP3 POP POP POP JUMP JUMPDEST PUSH1 0xA SLOAD DUP2 JUMP JUMPDEST PUSH0 PUSH2 0xC81 PUSH2 0x3116 JUMP JUMPDEST PUSH32 0x0 PUSH2 0xCAC SWAP2 SWAP1 PUSH2 0x4D9B JUMP JUMPDEST SWAP1 POP SWAP1 JUMP JUMPDEST PUSH0 PUSH32 0x0 SWAP1 POP SWAP1 JUMP JUMPDEST PUSH0 PUSH32 0xFFFFFFFFFFFFFFFFFFFFFFFFFFFFFFFFFFFFFFFFFFFFFFFFFFFFFFFFFFFFFFFF SWAP1 POP SWAP2 SWAP1 POP JUMP JUMPDEST PUSH0 PUSH2 0xD0A PUSH2 0x311D JUMP JUMPDEST PUSH2 0xD12 PUSH2 0x313F JUMP JUMPDEST PUSH0 PUSH2 0xD1B PUSH2 0xCB1 JUMP JUMPDEST PUSH20 0xFFFFFFFFFFFFFFFFFFFFFFFFFFFFFFFFFFFFFFFF AND PUSH4 0x70A08231 ADDRESS PUSH1 0x40 MLOAD DUP3 PUSH4 0xFFFFFFFF AND PUSH1 0xE0 SHL DUP2 MSTORE PUSH1 0x4 ADD PUSH2 0xD53 SWAP2 SWAP1 PUSH2 0x4530 JUMP JUMPDEST PUSH1 0x20 PUSH1 0x40 MLOAD DUP1 DUP4 SUB DUP2 DUP7 GAS STATICCALL ISZERO DUP1 ISZERO PUSH2 0xD6E JUMPI RETURNDATASIZE PUSH0 PUSH0 RETURNDATACOPY RETURNDATASIZE PUSH0 REVERT JUMPDEST POP POP POP POP PUSH1 0x40 MLOAD RETURNDATASIZE PUSH1 0x1F NOT PUSH1 0x1F DUP3 ADD AND DUP3 ADD DUP1 PUSH1 0x40 MSTORE POP DUP2 ADD SWAP1 PUSH2 0xD92 SWAP2 SWAP1 PUSH2 0x4C86 JUMP JUMPDEST SWAP1 POP PUSH0 PUSH0 SWAP1 POP JUMPDEST PUSH1 0x7 DUP1 SLOAD SWAP1 POP DUP2 LT ISZERO PUSH2 0xE91 JUMPI PUSH1 0x7 DUP2 DUP2 SLOAD DUP2 LT PUSH2 0xDBA JUMPI PUSH2 0xDB9 PUSH2 0x4CB1 JUMP JUMPDEST JUMPDEST SWAP1 PUSH0 MSTORE PUSH1 0x20 PUSH0 KECCAK256 ADD PUSH0 ADD PUSH1 0x16 SWAP1 SLOAD SWAP1 PUSH2 0x100 EXP SWAP1 DIV PUSH1 0xFF AND ISZERO PUSH2 0xE84 JUMPI PUSH1 0x7 DUP2 DUP2 SLOAD DUP2 LT PUSH2 0xDEB JUMPI PUSH2 0xDEA PUSH2 0x4CB1 JUMP JUMPDEST JUMPDEST SWAP1 PUSH0 MSTORE PUSH1 0x20 PUSH0 KECCAK256 ADD PUSH0 ADD PUSH0 SWAP1 SLOAD SWAP1 PUSH2 0x100 EXP SWAP1 DIV PUSH20 0xFFFFFFFFFFFFFFFFFFFFFFFFFFFFFFFFFFFFFFFF AND PUSH20 0xFFFFFFFFFFFFFFFFFFFFFFFFFFFFFFFFFFFFFFFF AND PUSH4 0x4641257D PUSH1 0x40 MLOAD DUP2 PUSH4 0xFFFFFFFF AND PUSH1 0xE0 SHL DUP2 MSTORE PUSH1 0x4 ADD PUSH1 0x20 PUSH1 0x40 MLOAD DUP1 DUP4 SUB DUP2 PUSH0 DUP8 GAS CALL ISZERO DUP1 ISZERO PUSH2 0xE5E JUMPI RETURNDATASIZE PUSH0 PUSH0 RETURNDATACOPY RETURNDATASIZE PUSH0 REVERT JUMPDEST POP POP POP POP PUSH1 0x40 MLOAD RETURNDATASIZE PUSH1 0x1F NOT PUSH1 0x1F DUP3 ADD AND DUP3 ADD DUP1 PUSH1 0x40 MSTORE POP DUP2 ADD SWAP1 PUSH2 0xE82 SWAP2 SWAP1 PUSH2 0x4C86 JUMP JUMPDEST POP JUMPDEST DUP1 DUP1 PUSH1 0x1 ADD SWAP2 POP POP PUSH2 0xD99 JUMP JUMPDEST POP PUSH0 PUSH2 0xE9B PUSH2 0xCB1 JUMP JUMPDEST PUSH20 0xFFFFFFFFFFFFFFFFFFFFFFFFFFFFFFFFFFFFFFFF AND PUSH4 0x70A08231 ADDRESS PUSH1 0x40 MLOAD DUP3 PUSH4 0xFFFFFFFF AND PUSH1 0xE0 SHL DUP2 MSTORE PUSH1 0x4 ADD PUSH2 0xED3 SWAP2 SWAP1 PUSH2 0x4530 JUMP JUMPDEST PUSH1 0x20 PUSH1 0x40 MLOAD DUP1 DUP4 SUB DUP2 DUP7 GAS STATICCALL ISZERO DUP1 ISZERO PUSH2 0xEEE JUMPI RETURNDATASIZE PUSH0 PUSH0 RETURNDATACOPY RETURNDATASIZE PUSH0 REVERT JUMPDEST POP POP POP POP PUSH1 0x40 MLOAD RETURNDATASIZE PUSH1 0x1F NOT PUSH1 0x1F DUP3 ADD AND DUP3 ADD DUP1 PUSH1 0x40 MSTORE POP DUP2 ADD SWAP1 PUSH2 0xF12 SWAP2 SWAP1 PUSH2 0x4C86 JUMP JUMPDEST SWAP1 POP PUSH0 DUP3 DUP3 GT PUSH2 0xF22 JUMPI PUSH0 PUSH2 0xF2F JUMP JUMPDEST DUP3 DUP3 PUSH2 0xF2E SWAP2 SWAP1 PUSH2 0x4DCF JUMP JUMPDEST JUMPDEST SWAP1 POP PUSH0 PUSH0 SWAP1 POP PUSH0 DUP3 GT ISZERO PUSH2 0xFB7 JUMPI PUSH2 0x2710 PUSH1 0x8 SLOAD DUP4 PUSH2 0xF4E SWAP2 SWAP1 PUSH2 0x4E02 JUMP JUMPDEST PUSH2 0xF58 SWAP2 SWAP1 PUSH2 0x4E70 JUMP JUMPDEST SWAP1 POP PUSH0 DUP2 GT ISZERO PUSH2 0xFB6 JUMPI PUSH2 0xFB5 PUSH1 0x9 PUSH0 SWAP1 SLOAD SWAP1 PUSH2 0x100 EXP SWAP1 DIV PUSH20 0xFFFFFFFFFFFFFFFFFFFFFFFFFFFFFFFFFFFFFFFF AND DUP3 PUSH2 0xF90 PUSH2 0xCB1 JUMP JUMPDEST PUSH20 0xFFFFFFFFFFFFFFFFFFFFFFFFFFFFFFFFFFFFFFFF AND PUSH2 0x31C6 SWAP1 SWAP3 SWAP2 SWAP1 PUSH4 0xFFFFFFFF AND JUMP JUMPDEST JUMPDEST JUMPDEST DUP1 DUP3 PUSH2 0xFC3 SWAP2 SWAP1 PUSH2 0x4DCF JUMP JUMPDEST PUSH1 0xA PUSH0 DUP3 DUP3 SLOAD PUSH2 0xFD3 SWAP2 SWAP1 PUSH2 0x4D0B JUMP JUMPDEST SWAP3 POP POP DUP2 SWAP1 SSTORE POP TIMESTAMP PUSH1 0xB DUP2 SWAP1 SSTORE POP PUSH32 0xEBDD323F18BA49318367D0C92A04D5C51A67F15A60AD50D46523DB464661A302 DUP3 DUP3 TIMESTAMP PUSH1 0x40 MLOAD PUSH2 0x1014 SWAP4 SWAP3 SWAP2 SWAP1 PUSH2 0x4EA0 JUMP JUMPDEST PUSH1 0x40 MLOAD DUP1 SWAP2 SUB SWAP1 LOG1 DUP1 DUP3 PUSH2 0x1028 SWAP2 SWAP1 PUSH2 0x4DCF JUMP JUMPDEST SWAP5 POP POP POP POP POP PUSH2 0x1036 PUSH2 0x3219 JUMP JUMPDEST SWAP1 JUMP JUMPDEST PUSH1 0x9 PUSH0 SWAP1 SLOAD SWAP1 PUSH2 0x100 EXP SWAP1 DIV PUSH20 0xFFFFFFFFFFFFFFFFFFFFFFFFFFFFFFFFFFFFFFFF AND DUP2 JUMP JUMPDEST PUSH1 0x6 PUSH0 CALLER PUSH20 0xFFFFFFFFFFFFFFFFFFFFFFFFFFFFFFFFFFFFFFFF AND PUSH20 0xFFFFFFFFFFFFFFFFFFFFFFFFFFFFFFFFFFFFFFFF AND DUP2 MSTORE PUSH1 0x20 ADD SWAP1 DUP2 MSTORE PUSH1 0x20 ADD PUSH0 KECCAK256 PUSH0 SWAP1 SLOAD SWAP1 PUSH2 0x100 EXP SWAP1 DIV PUSH1 0xFF AND PUSH2 0x10E7 JUMPI PUSH1 0x40 MLOAD PUSH32 0x8C379A000000000000000000000000000000000000000000000000000000000 DUP2 MSTORE PUSH1 0x4 ADD PUSH2 0x10DE SWAP1 PUSH2 0x4F45 JUMP JUMPDEST PUSH1 0x40 MLOAD DUP1 SWAP2 SUB SWAP1 REVERT JUMPDEST PUSH1 0x40 MLOAD PUSH32 0x8C379A000000000000000000000000000000000000000000000000000000000 DUP2 MSTORE PUSH1 0x4 ADD PUSH2 0x1119 SWAP1 PUSH2 0x4FAD JUMP JUMPDEST PUSH1 0x40 MLOAD DUP1 SWAP2 SUB SWAP1 REVERT JUMPDEST PUSH0 PUSH2 0x112D DUP3 PUSH0 PUSH2 0x2ECA JUMP JUMPDEST SWAP1 POP SWAP2 SWAP1 POP JUMP JUMPDEST PUSH2 0x113C PUSH2 0x313F JUMP JUMPDEST PUSH2 0x1144 PUSH2 0x311D JUMP JUMPDEST PUSH1 0x7 DUP1 SLOAD SWAP1 POP DUP2 LT PUSH2 0x1182 JUMPI PUSH1 0x40 MLOAD PUSH32 0x4E236E9A00000000000000000000000000000000000000000000000000000000 DUP2 MSTORE PUSH1 0x4 ADD PUSH1 0x40 MLOAD DUP1 SWAP2 SUB SWAP1 REVERT JUMPDEST PUSH1 0x7 DUP2 DUP2 SLOAD DUP2 LT PUSH2 0x1196 JUMPI PUSH2 0x1195 PUSH2 0x4CB1 JUMP JUMPDEST JUMPDEST SWAP1 PUSH0 MSTORE PUSH1 0x20 PUSH0 KECCAK256 ADD PUSH0 ADD PUSH1 0x16 SWAP1 SLOAD SWAP1 PUSH2 0x100 EXP SWAP1 DIV PUSH1 0xFF AND PUSH2 0x11E4 JUMPI PUSH1 0x40 MLOAD PUSH32 0xDC974A9800000000000000000000000000000000000000000000000000000000 DUP2 MSTORE PUSH1 0x4 ADD PUSH1 0x40 MLOAD DUP1 SWAP2 SUB SWAP1 REVERT JUMPDEST PUSH0 PUSH1 0x7 DUP3 DUP2 SLOAD DUP2 LT PUSH2 0x11F9 JUMPI PUSH2 0x11F8 PUSH2 0x4CB1 JUMP JUMPDEST JUMPDEST SWAP1 PUSH0 MSTORE PUSH1 0x20 PUSH0 KECCAK256 ADD PUSH0 ADD PUSH0 SWAP1 SLOAD SWAP1 PUSH2 0x100 EXP SWAP1 DIV PUSH20 0xFFFFFFFFFFFFFFFFFFFFFFFFFFFFFFFFFFFFFFFF AND PUSH20 0xFFFFFFFFFFFFFFFFFFFFFFFFFFFFFFFFFFFFFFFF AND PUSH4 0x853828B6 PUSH1 0x40 MLOAD DUP2 PUSH4 0xFFFFFFFF AND PUSH1 0xE0 SHL DUP2 MSTORE PUSH1 0x4 ADD PUSH1 0x20 PUSH1 0x40 MLOAD DUP1 DUP4 SUB DUP2 PUSH0 DUP8 GAS CALL ISZERO DUP1 ISZERO PUSH2 0x126C JUMPI RETURNDATASIZE PUSH0 PUSH0 RETURNDATACOPY RETURNDATASIZE PUSH0 REVERT JUMPDEST POP POP POP POP PUSH1 0x40 MLOAD RETURNDATASIZE PUSH1 0x1F NOT PUSH1 0x1F DUP3 ADD AND DUP3 ADD DUP1 PUSH1 0x40 MSTORE POP DUP2 ADD SWAP1 PUSH2 0x1290 SWAP2 SWAP1 PUSH2 0x4C86 JUMP JUMPDEST SWAP1 POP DUP2 PUSH32 0xE69AA2E435EC063C41DDC8D262F8672906549B0CFF0E2FCDEC03DE8A590A6329 DUP3 PUSH1 0x40 MLOAD PUSH2 0x12C2 SWAP2 SWAP1 PUSH2 0x42C3 JUMP JUMPDEST PUSH1 0x40 MLOAD DUP1 SWAP2 SUB SWAP1 LOG2 POP PUSH2 0x12D3 PUSH2 0x3219 JUMP JUMPDEST POP JUMP JUMPDEST PUSH2 0x12DE PUSH2 0x313F JUMP JUMPDEST DUP1 PUSH1 0x6 PUSH0 DUP5 PUSH20 0xFFFFFFFFFFFFFFFFFFFFFFFFFFFFFFFFFFFFFFFF AND PUSH20 0xFFFFFFFFFFFFFFFFFFFFFFFFFFFFFFFFFFFFFFFF AND DUP2 MSTORE PUSH1 0x20 ADD SWAP1 DUP2 MSTORE PUSH1 0x20 ADD PUSH0 KECCAK256 PUSH0 PUSH2 0x100 EXP DUP2 SLOAD DUP2 PUSH1 0xFF MUL NOT AND SWAP1 DUP4 ISZERO ISZERO MUL OR SWAP1 SSTORE POP DUP2 PUSH20 0xFFFFFFFFFFFFFFFFFFFFFFFFFFFFFFFFFFFFFFFF AND PUSH32 0xB338D10520859221C6D9E8D59D1A52E3C2CCBD676A0D93BAD3784F9F40EBCACF DUP3 PUSH1 0x40 MLOAD PUSH2 0x1378 SWAP2 SWAP1 PUSH2 0x4484 JUMP JUMPDEST PUSH1 0x40 MLOAD DUP1 SWAP2 SUB SWAP1 LOG2 POP POP JUMP JUMPDEST PUSH0 PUSH2 0x138D PUSH2 0x311D JUMP JUMPDEST PUSH2 0x1396 DUP4 PUSH2 0x2770 JUMP JUMPDEST SWAP1 POP PUSH2 0x13CC CALLER ADDRESS DUP6 PUSH2 0x13A6 PUSH2 0xCB1 JUMP JUMPDEST PUSH20 0xFFFFFFFFFFFFFFFFFFFFFFFFFFFFFFFFFFFFFFFF AND PUSH2 0x3233 SWAP1 SWAP4 SWAP3 SWAP2 SWAP1 PUSH4 0xFFFFFFFF AND JUMP JUMPDEST PUSH2 0x13D6 DUP3 DUP3 PUSH2 0x3288 JUMP JUMPDEST PUSH2 0x13DF DUP4 PUSH2 0x3307 JUMP JUMPDEST DUP2 PUSH20 0xFFFFFFFFFFFFFFFFFFFFFFFFFFFFFFFFFFFFFFFF AND CALLER PUSH20 0xFFFFFFFFFFFFFFFFFFFFFFFFFFFFFFFFFFFFFFFF AND PUSH32 0xDCBC1C05240F31FF3AD067EF1EE35CE4997762752E3A095284754544F4C709D7 DUP6 DUP5 PUSH1 0x40 MLOAD PUSH2 0x143E SWAP3 SWAP2 SWAP1 PUSH2 0x4FCB JUMP JUMPDEST PUSH1 0x40 MLOAD DUP1 SWAP2 SUB SWAP1 LOG3 PUSH2 0x144E PUSH2 0x3219 JUMP JUMPDEST SWAP3 SWAP2 POP POP JUMP JUMPDEST PUSH2 0x145C PUSH2 0x313F JUMP JUMPDEST PUSH2 0x7D0 DUP2 GT ISZERO PUSH2 0x1498 JUMPI PUSH1 0x40 MLOAD PUSH32 0xCD4E616700000000000000000000000000000000000000000000000000000000 DUP2 MSTORE PUSH1 0x4 ADD PUSH1 0x40 MLOAD DUP1 SWAP2 SUB SWAP1 REVERT JUMPDEST PUSH0 PUSH1 0x8 SLOAD SWAP1 POP DUP2 PUSH1 0x8 DUP2 SWAP1 SSTORE POP PUSH32 0x607B1C943753982194530BF7133A5972EA2626E028005410EFA54AB20035CAF8 DUP2 DUP4 PUSH1 0x40 MLOAD PUSH2 0x14D6 SWAP3 SWAP2 SWAP1 PUSH2 0x4FCB JUMP JUMPDEST PUSH1 0x40 MLOAD DUP1 SWAP2 SUB SWAP1 LOG1 POP POP JUMP JUMPDEST PUSH0 PUSH0 PUSH0 DUP4 PUSH20 0xFFFFFFFFFFFFFFFFFFFFFFFFFFFFFFFFFFFFFFFF AND PUSH20 0xFFFFFFFFFFFFFFFFFFFFFFFFFFFFFFFFFFFFFFFF AND DUP2 MSTORE PUSH1 0x20 ADD SWAP1 DUP2 MSTORE PUSH1 0x20 ADD PUSH0 KECCAK256 SLOAD SWAP1 POP SWAP2 SWAP1 POP JUMP JUMPDEST PUSH2 0x152F PUSH2 0x313F JUMP JUMPDEST PUSH2 0x1538 PUSH0 PUSH2 0x34E3 JUMP JUMPDEST JUMP JUMPDEST PUSH2 0x1542 PUSH2 0x311D JUMP JUMPDEST PUSH2 0x154A PUSH2 0x313F JUMP JUMPDEST PUSH0 PUSH2 0x1553 PUSH2 0x9D1 JUMP JUMPDEST SWAP1 POP PUSH0 DUP2 SUB PUSH2 0x1562 JUMPI POP PUSH2 0x1727 JUMP JUMPDEST PUSH0 PUSH0 SWAP1 POP JUMPDEST PUSH1 0x7 DUP1 SLOAD SWAP1 POP DUP2 LT ISZERO PUSH2 0x165F JUMPI PUSH1 0x7 DUP2 DUP2 SLOAD DUP2 LT PUSH2 0x1588 JUMPI PUSH2 0x1587 PUSH2 0x4CB1 JUMP JUMPDEST JUMPDEST SWAP1 PUSH0 MSTORE PUSH1 0x20 PUSH0 KECCAK256 ADD PUSH0 ADD PUSH1 0x16 SWAP1 SLOAD SWAP1 PUSH2 0x100 EXP SWAP1 DIV PUSH1 0xFF AND ISZERO PUSH2 0x1652 JUMPI PUSH1 0x7 DUP2 DUP2 SLOAD DUP2 LT PUSH2 0x15B9 JUMPI PUSH2 0x15B8 PUSH2 0x4CB1 JUMP JUMPDEST JUMPDEST SWAP1 PUSH0 MSTORE PUSH1 0x20 PUSH0 KECCAK256 ADD PUSH0 ADD PUSH0 SWAP1 SLOAD SWAP1 PUSH2 0x100 EXP SWAP1 DIV PUSH20 0xFFFFFFFFFFFFFFFFFFFFFFFFFFFFFFFFFFFFFFFF AND PUSH20 0xFFFFFFFFFFFFFFFFFFFFFFFFFFFFFFFFFFFFFFFF AND PUSH4 0x853828B6 PUSH1 0x40 MLOAD DUP2 PUSH4 0xFFFFFFFF AND PUSH1 0xE0 SHL DUP2 MSTORE PUSH1 0x4 ADD PUSH1 0x20 PUSH1 0x40 MLOAD DUP1 DUP4 SUB DUP2 PUSH0 DUP8 GAS CALL ISZERO DUP1 ISZERO PUSH2 0x162C JUMPI RETURNDATASIZE PUSH0 PUSH0 RETURNDATACOPY RETURNDATASIZE PUSH0 REVERT JUMPDEST POP POP POP POP PUSH1 0x40 MLOAD RETURNDATASIZE PUSH1 0x1F NOT PUSH1 0x1F DUP3 ADD AND DUP3 ADD DUP1 PUSH1 0x40 MSTORE POP DUP2 ADD SWAP1 PUSH2 0x1650 SWAP2 SWAP1 PUSH2 0x4C86 JUMP JUMPDEST POP JUMPDEST DUP1 DUP1 PUSH1 0x1 ADD SWAP2 POP POP PUSH2 0x1567 JUMP JUMPDEST POP PUSH0 PUSH2 0x1669 PUSH2 0xCB1 JUMP JUMPDEST PUSH20 0xFFFFFFFFFFFFFFFFFFFFFFFFFFFFFFFFFFFFFFFF AND PUSH4 0x70A08231 ADDRESS PUSH1 0x40 MLOAD DUP3 PUSH4 0xFFFFFFFF AND PUSH1 0xE0 SHL DUP2 MSTORE PUSH1 0x4 ADD PUSH2 0x16A1 SWAP2 SWAP1 PUSH2 0x4530 JUMP JUMPDEST PUSH1 0x20 PUSH1 0x40 MLOAD DUP1 DUP4 SUB DUP2 DUP7 GAS STATICCALL ISZERO DUP1 ISZERO PUSH2 0x16BC JUMPI RETURNDATASIZE PUSH0 PUSH0 RETURNDATACOPY RETURNDATASIZE PUSH0 REVERT JUMPDEST POP POP POP POP PUSH1 0x40 MLOAD RETURNDATASIZE PUSH1 0x1F NOT PUSH1 0x1F DUP3 ADD AND DUP3 ADD DUP1 PUSH1 0x40 MSTORE POP DUP2 ADD SWAP1 PUSH2 0x16E0 SWAP2 SWAP1 PUSH2 0x4C86 JUMP JUMPDEST SWAP1 POP PUSH2 0x16EB DUP2 PUSH2 0x3307 JUMP JUMPDEST PUSH32 0xC257294AD49C215E1A248C91A86BC2612B4781D9677285CC9C14498F485EF122 TIMESTAMP DUP4 PUSH1 0x40 MLOAD PUSH2 0x171C SWAP3 SWAP2 SWAP1 PUSH2 0x4FCB JUMP JUMPDEST PUSH1 0x40 MLOAD DUP1 SWAP2 SUB SWAP1 LOG1 POP POP JUMPDEST PUSH2 0x172F PUSH2 0x3219 JUMP JUMPDEST JUMP JUMPDEST PUSH0 PUSH0 PUSH0 PUSH0 SWAP1 POP PUSH0 PUSH0 SWAP1 POP JUMPDEST PUSH1 0x7 DUP1 SLOAD SWAP1 POP DUP2 LT ISZERO PUSH2 0x17C6 JUMPI PUSH1 0x7 DUP2 DUP2 SLOAD DUP2 LT PUSH2 0x175D JUMPI PUSH2 0x175C PUSH2 0x4CB1 JUMP JUMPDEST JUMPDEST SWAP1 PUSH0 MSTORE PUSH1 0x20 PUSH0 KECCAK256 ADD PUSH0 ADD PUSH1 0x16 SWAP1 SLOAD SWAP1 PUSH2 0x100 EXP SWAP1 DIV PUSH1 0xFF AND ISZERO PUSH2 0x17B9 JUMPI PUSH1 0x7 DUP2 DUP2 SLOAD DUP2 LT PUSH2 0x178E JUMPI PUSH2 0x178D PUSH2 0x4CB1 JUMP JUMPDEST JUMPDEST SWAP1 PUSH0 MSTORE PUSH1 0x20 PUSH0 KECCAK256 ADD PUSH0 ADD PUSH1 0x14 SWAP1 SLOAD SWAP1 PUSH2 0x100 EXP SWAP1 DIV PUSH2 0xFFFF AND PUSH2 0xFFFF AND DUP3 PUSH2 0x17B6 SWAP2 SWAP1 PUSH2 0x4D0B JUMP JUMPDEST SWAP2 POP JUMPDEST DUP1 DUP1 PUSH1 0x1 ADD SWAP2 POP POP PUSH2 0x173C JUMP JUMPDEST POP PUSH2 0x2710 DUP2 EQ DUP2 SWAP3 POP SWAP3 POP POP SWAP1 SWAP2 JUMP JUMPDEST PUSH0 PUSH1 0x5 PUSH0 SWAP1 SLOAD SWAP1 PUSH2 0x100 EXP SWAP1 DIV PUSH20 0xFFFFFFFFFFFFFFFFFFFFFFFFFFFFFFFFFFFFFFFF AND SWAP1 POP SWAP1 JUMP JUMPDEST PUSH0 PUSH0 PUSH2 0x1809 DUP4 PUSH2 0x20E0 JUMP JUMPDEST SWAP1 POP DUP1 DUP5 GT ISZERO PUSH2 0x1854 JUMPI DUP3 DUP5 DUP3 PUSH1 0x40 MLOAD PUSH32 0x284FF66700000000000000000000000000000000000000000000000000000000 DUP2 MSTORE PUSH1 0x4 ADD PUSH2 0x184B SWAP4 SWAP3 SWAP2 SWAP1 PUSH2 0x4FF2 JUMP JUMPDEST PUSH1 0x40 MLOAD DUP1 SWAP2 SUB SWAP1 REVERT JUMPDEST PUSH0 PUSH2 0x185E DUP6 PUSH2 0x1930 JUMP JUMPDEST SWAP1 POP PUSH2 0x1873 PUSH2 0x186B PUSH2 0x2F22 JUMP JUMPDEST DUP6 DUP4 DUP9 PUSH2 0x35A6 JUMP JUMPDEST DUP1 SWAP3 POP POP POP SWAP3 SWAP2 POP POP JUMP JUMPDEST PUSH1 0x60 PUSH1 0x4 DUP1 SLOAD PUSH2 0x188D SWAP1 PUSH2 0x4D6B JUMP JUMPDEST DUP1 PUSH1 0x1F ADD PUSH1 0x20 DUP1 SWAP2 DIV MUL PUSH1 0x20 ADD PUSH1 0x40 MLOAD SWAP1 DUP2 ADD PUSH1 0x40 MSTORE DUP1 SWAP3 SWAP2 SWAP1 DUP2 DUP2 MSTORE PUSH1 0x20 ADD DUP3 DUP1 SLOAD PUSH2 0x18B9 SWAP1 PUSH2 0x4D6B JUMP JUMPDEST DUP1 ISZERO PUSH2 0x1904 JUMPI DUP1 PUSH1 0x1F LT PUSH2 0x18DB JUMPI PUSH2 0x100 DUP1 DUP4 SLOAD DIV MUL DUP4 MSTORE SWAP2 PUSH1 0x20 ADD SWAP2 PUSH2 0x1904 JUMP JUMPDEST DUP3 ADD SWAP2 SWAP1 PUSH0 MSTORE PUSH1 0x20 PUSH0 KECCAK256 SWAP1 JUMPDEST DUP2 SLOAD DUP2 MSTORE SWAP1 PUSH1 0x1 ADD SWAP1 PUSH1 0x20 ADD DUP1 DUP4 GT PUSH2 0x18E7 JUMPI DUP3 SWAP1 SUB PUSH1 0x1F AND DUP3 ADD SWAP2 JUMPDEST POP POP POP POP POP SWAP1 POP SWAP1 JUMP JUMPDEST PUSH0 PUSH0 PUSH2 0x1918 PUSH2 0x2F22 JUMP JUMPDEST SWAP1 POP PUSH2 0x1925 DUP2 DUP6 DUP6 PUSH2 0x3026 JUMP JUMPDEST PUSH1 0x1 SWAP2 POP POP SWAP3 SWAP2 POP POP JUMP JUMPDEST PUSH0 PUSH2 0x193C DUP3 PUSH1 0x1 PUSH2 0x2ECA JUMP JUMPDEST SWAP1 POP SWAP2 SWAP1 POP JUMP JUMPDEST PUSH0 PUSH2 0x194C PUSH2 0x311D JUMP JUMPDEST PUSH2 0x1955 DUP5 PUSH2 0xC28 JUMP JUMPDEST SWAP1 POP DUP2 PUSH20 0xFFFFFFFFFFFFFFFFFFFFFFFFFFFFFFFFFFFFFFFF AND CALLER PUSH20 0xFFFFFFFFFFFFFFFFFFFFFFFFFFFFFFFFFFFFFFFF AND EQ PUSH2 0x1996 JUMPI PUSH2 0x1995 DUP3 CALLER DUP4 PUSH2 0x2F93 JUMP JUMPDEST JUMPDEST PUSH0 PUSH2 0x199F PUSH2 0xCB1 JUMP JUMPDEST PUSH20 0xFFFFFFFFFFFFFFFFFFFFFFFFFFFFFFFFFFFFFFFF AND PUSH4 0x70A08231 ADDRESS PUSH1 0x40 MLOAD DUP3 PUSH4 0xFFFFFFFF AND PUSH1 0xE0 SHL DUP2 MSTORE PUSH1 0x4 ADD PUSH2 0x19D7 SWAP2 SWAP1 PUSH2 0x4530 JUMP JUMPDEST PUSH1 0x20 PUSH1 0x40 MLOAD DUP1 DUP4 SUB DUP2 DUP7 GAS STATICCALL ISZERO DUP1 ISZERO PUSH2 0x19F2 JUMPI RETURNDATASIZE PUSH0 PUSH0 RETURNDATACOPY RETURNDATASIZE PUSH0 REVERT JUMPDEST POP POP POP POP PUSH1 0x40 MLOAD RETURNDATASIZE PUSH1 0x1F NOT PUSH1 0x1F DUP3 ADD AND DUP3 ADD DUP1 PUSH1 0x40 MSTORE POP DUP2 ADD SWAP1 PUSH2 0x1A16 SWAP2 SWAP1 PUSH2 0x4C86 JUMP JUMPDEST SWAP1 POP DUP5 DUP2 LT ISZERO PUSH2 0x1AB6 JUMPI PUSH2 0x1A34 DUP2 DUP7 PUSH2 0x1A2F SWAP2 SWAP1 PUSH2 0x4DCF JUMP JUMPDEST PUSH2 0x3630 JUMP JUMPDEST PUSH2 0x1A3C PUSH2 0xCB1 JUMP JUMPDEST PUSH20 0xFFFFFFFFFFFFFFFFFFFFFFFFFFFFFFFFFFFFFFFF AND PUSH4 0x70A08231 ADDRESS PUSH1 0x40 MLOAD DUP3 PUSH4 0xFFFFFFFF AND PUSH1 0xE0 SHL DUP2 MSTORE PUSH1 0x4 ADD PUSH2 0x1A74 SWAP2 SWAP1 PUSH2 0x4530 JUMP JUMPDEST PUSH1 0x20 PUSH1 0x40 MLOAD DUP1 DUP4 SUB DUP2 DUP7 GAS STATICCALL ISZERO DUP1 ISZERO PUSH2 0x1A8F JUMPI RETURNDATASIZE PUSH0 PUSH0 RETURNDATACOPY RETURNDATASIZE PUSH0 REVERT JUMPDEST POP POP POP POP PUSH1 0x40 MLOAD RETURNDATASIZE PUSH1 0x1F NOT PUSH1 0x1F DUP3 ADD AND DUP3 ADD DUP1 PUSH1 0x40 MSTORE POP DUP2 ADD SWAP1 PUSH2 0x1AB3 SWAP2 SWAP1 PUSH2 0x4C86 JUMP JUMPDEST SWAP1 POP JUMPDEST DUP1 DUP6 GT ISZERO PUSH2 0x1AC2 JUMPI DUP1 SWAP5 POP JUMPDEST PUSH2 0x1ACC DUP4 DUP4 PUSH2 0x3A23 JUMP JUMPDEST PUSH2 0x1AFE DUP5 DUP7 PUSH2 0x1AD9 PUSH2 0xCB1 JUMP JUMPDEST PUSH20 0xFFFFFFFFFFFFFFFFFFFFFFFFFFFFFFFFFFFFFFFF AND PUSH2 0x31C6 SWAP1 SWAP3 SWAP2 SWAP1 PUSH4 0xFFFFFFFF AND JUMP JUMPDEST DUP3 PUSH20 0xFFFFFFFFFFFFFFFFFFFFFFFFFFFFFFFFFFFFFFFF AND DUP5 PUSH20 0xFFFFFFFFFFFFFFFFFFFFFFFFFFFFFFFFFFFFFFFF AND CALLER PUSH20 0xFFFFFFFFFFFFFFFFFFFFFFFFFFFFFFFFFFFFFFFF AND PUSH32 0xFBDE797D201C681B91056529119E0B02407C7BB96A4A2C75C01FC9667232C8DB DUP9 DUP7 PUSH1 0x40 MLOAD PUSH2 0x1B74 SWAP3 SWAP2 SWAP1 PUSH2 0x4FCB JUMP JUMPDEST PUSH1 0x40 MLOAD DUP1 SWAP2 SUB SWAP1 LOG4 POP PUSH2 0x1B85 PUSH2 0x3219 JUMP JUMPDEST SWAP4 SWAP3 POP POP POP JUMP JUMPDEST PUSH1 0x8 SLOAD DUP2 JUMP JUMPDEST PUSH0 PUSH2 0x1B9B PUSH2 0x311D JUMP JUMPDEST DUP2 PUSH20 0xFFFFFFFFFFFFFFFFFFFFFFFFFFFFFFFFFFFFFFFF AND CALLER PUSH20 0xFFFFFFFFFFFFFFFFFFFFFFFFFFFFFFFFFFFFFFFF AND EQ PUSH2 0x1BDA JUMPI PUSH2 0x1BD9 DUP3 CALLER DUP7 PUSH2 0x2F93 JUMP JUMPDEST JUMPDEST PUSH2 0x1BE3 DUP5 PUSH2 0x1122 JUMP JUMPDEST SWAP1 POP PUSH0 PUSH2 0x1BEE PUSH2 0xCB1 JUMP JUMPDEST PUSH20 0xFFFFFFFFFFFFFFFFFFFFFFFFFFFFFFFFFFFFFFFF AND PUSH4 0x70A08231 ADDRESS PUSH1 0x40 MLOAD DUP3 PUSH4 0xFFFFFFFF AND PUSH1 0xE0 SHL DUP2 MSTORE PUSH1 0x4 ADD PUSH2 0x1C26 SWAP2 SWAP1 PUSH2 0x4530 JUMP JUMPDEST PUSH1 0x20 PUSH1 0x40 MLOAD DUP1 DUP4 SUB DUP2 DUP7 GAS STATICCALL ISZERO DUP1 ISZERO PUSH2 0x1C41 JUMPI RETURNDATASIZE PUSH0 PUSH0 RETURNDATACOPY RETURNDATASIZE PUSH0 REVERT JUMPDEST POP POP POP POP PUSH1 0x40 MLOAD RETURNDATASIZE PUSH1 0x1F NOT PUSH1 0x1F DUP3 ADD AND DUP3 ADD DUP1 PUSH1 0x40 MSTORE POP DUP2 ADD SWAP1 PUSH2 0x1C65 SWAP2 SWAP1 PUSH2 0x4C86 JUMP JUMPDEST SWAP1 POP DUP2 DUP2 LT ISZERO PUSH2 0x1D05 JUMPI PUSH2 0x1C83 DUP2 DUP4 PUSH2 0x1C7E SWAP2 SWAP1 PUSH2 0x4DCF JUMP JUMPDEST PUSH2 0x3630 JUMP JUMPDEST PUSH2 0x1C8B PUSH2 0xCB1 JUMP JUMPDEST PUSH20 0xFFFFFFFFFFFFFFFFFFFFFFFFFFFFFFFFFFFFFFFF AND PUSH4 0x70A08231 ADDRESS PUSH1 0x40 MLOAD DUP3 PUSH4 0xFFFFFFFF AND PUSH1 0xE0 SHL DUP2 MSTORE PUSH1 0x4 ADD PUSH2 0x1CC3 SWAP2 SWAP1 PUSH2 0x4530 JUMP JUMPDEST PUSH1 0x20 PUSH1 0x40 MLOAD DUP1 DUP4 SUB DUP2 DUP7 GAS STATICCALL ISZERO DUP1 ISZERO PUSH2 0x1CDE JUMPI RETURNDATASIZE PUSH0 PUSH0 RETURNDATACOPY RETURNDATASIZE PUSH0 REVERT JUMPDEST POP POP POP POP PUSH1 0x40 MLOAD RETURNDATASIZE PUSH1 0x1F NOT PUSH1 0x1F DUP3 ADD AND DUP3 ADD DUP1 PUSH1 0x40 MSTORE POP DUP2 ADD SWAP1 PUSH2 0x1D02 SWAP2 SWAP1 PUSH2 0x4C86 JUMP JUMPDEST SWAP1 POP JUMPDEST DUP1 DUP3 GT ISZERO PUSH2 0x1D11 JUMPI DUP1 SWAP2 POP JUMPDEST PUSH2 0x1D1B DUP4 DUP7 PUSH2 0x3A23 JUMP JUMPDEST PUSH2 0x1D4D DUP5 DUP4 PUSH2 0x1D28 PUSH2 0xCB1 JUMP JUMPDEST PUSH20 0xFFFFFFFFFFFFFFFFFFFFFFFFFFFFFFFFFFFFFFFF AND PUSH2 0x31C6 SWAP1 SWAP3 SWAP2 SWAP1 PUSH4 0xFFFFFFFF AND JUMP JUMPDEST DUP3 PUSH20 0xFFFFFFFFFFFFFFFFFFFFFFFFFFFFFFFFFFFFFFFF AND DUP5 PUSH20 0xFFFFFFFFFFFFFFFFFFFFFFFFFFFFFFFFFFFFFFFF AND CALLER PUSH20 0xFFFFFFFFFFFFFFFFFFFFFFFFFFFFFFFFFFFFFFFF AND PUSH32 0xFBDE797D201C681B91056529119E0B02407C7BB96A4A2C75C01FC9667232C8DB DUP6 DUP10 PUSH1 0x40 MLOAD PUSH2 0x1DC3 SWAP3 SWAP2 SWAP1 PUSH2 0x4FCB JUMP JUMPDEST PUSH1 0x40 MLOAD DUP1 SWAP2 SUB SWAP1 LOG4 POP PUSH2 0x1DD4 PUSH2 0x3219 JUMP JUMPDEST SWAP4 SWAP3 POP POP POP JUMP JUMPDEST PUSH1 0x6 PUSH1 0x20 MSTORE DUP1 PUSH0 MSTORE PUSH1 0x40 PUSH0 KECCAK256 PUSH0 SWAP2 POP SLOAD SWAP1 PUSH2 0x100 EXP SWAP1 DIV PUSH1 0xFF AND DUP2 JUMP JUMPDEST PUSH2 0x1E00 PUSH2 0x313F JUMP JUMPDEST PUSH2 0x1E08 PUSH2 0x311D JUMP JUMPDEST PUSH1 0x7 DUP1 SLOAD SWAP1 POP DUP2 LT PUSH2 0x1E46 JUMPI PUSH1 0x40 MLOAD PUSH32 0x4E236E9A00000000000000000000000000000000000000000000000000000000 DUP2 MSTORE PUSH1 0x4 ADD PUSH1 0x40 MLOAD DUP1 SWAP2 SUB SWAP1 REVERT JUMPDEST PUSH1 0x7 DUP2 DUP2 SLOAD DUP2 LT PUSH2 0x1E5A JUMPI PUSH2 0x1E59 PUSH2 0x4CB1 JUMP JUMPDEST JUMPDEST SWAP1 PUSH0 MSTORE PUSH1 0x20 PUSH0 KECCAK256 ADD PUSH0 ADD PUSH1 0x16 SWAP1 SLOAD SWAP1 PUSH2 0x100 EXP SWAP1 DIV PUSH1 0xFF AND PUSH2 0x1EA8 JUMPI PUSH1 0x40 MLOAD PUSH32 0xDC974A9800000000000000000000000000000000000000000000000000000000 DUP2 MSTORE PUSH1 0x4 ADD PUSH1 0x40 MLOAD DUP1 SWAP2 SUB SWAP1 REVERT JUMPDEST PUSH1 0x7 DUP2 DUP2 SLOAD DUP2 LT PUSH2 0x1EBC JUMPI PUSH2 0x1EBB PUSH2 0x4CB1 JUMP JUMPDEST JUMPDEST SWAP1 PUSH0 MSTORE PUSH1 0x20 PUSH0 KECCAK256 ADD PUSH0 ADD PUSH0 SWAP1 SLOAD SWAP1 PUSH2 0x100 EXP SWAP1 DIV PUSH20 0xFFFFFFFFFFFFFFFFFFFFFFFFFFFFFFFFFFFFFFFF AND PUSH20 0xFFFFFFFFFFFFFFFFFFFFFFFFFFFFFFFFFFFFFFFF AND PUSH4 0x853828B6 PUSH1 0x40 MLOAD DUP2 PUSH4 0xFFFFFFFF AND PUSH1 0xE0 SHL DUP2 MSTORE PUSH1 0x4 ADD PUSH1 0x20 PUSH1 0x40 MLOAD DUP1 DUP4 SUB DUP2 PUSH0 DUP8 GAS CALL ISZERO DUP1 ISZERO PUSH2 0x1F2F JUMPI RETURNDATASIZE PUSH0 PUSH0 RETURNDATACOPY RETURNDATASIZE PUSH0 REVERT JUMPDEST POP POP POP POP PUSH1 0x40 MLOAD RETURNDATASIZE PUSH1 0x1F NOT PUSH1 0x1F DUP3 ADD AND DUP3 ADD DUP1 PUSH1 0x40 MSTORE POP DUP2 ADD SWAP1 PUSH2 0x1F53 SWAP2 SWAP1 PUSH2 0x4C86 JUMP JUMPDEST POP PUSH0 PUSH1 0x7 DUP3 DUP2 SLOAD DUP2 LT PUSH2 0x1F69 JUMPI PUSH2 0x1F68 PUSH2 0x4CB1 JUMP JUMPDEST JUMPDEST SWAP1 PUSH0 MSTORE PUSH1 0x20 PUSH0 KECCAK256 ADD PUSH0 ADD PUSH1 0x16 PUSH2 0x100 EXP DUP2 SLOAD DUP2 PUSH1 0xFF MUL NOT AND SWAP1 DUP4 ISZERO ISZERO MUL OR SWAP1 SSTORE POP PUSH0 PUSH1 0x7 DUP3 DUP2 SLOAD DUP2 LT PUSH2 0x1F9F JUMPI PUSH2 0x1F9E PUSH2 0x4CB1 JUMP JUMPDEST JUMPDEST SWAP1 PUSH0 MSTORE PUSH1 0x20 PUSH0 KECCAK256 ADD PUSH0 ADD PUSH1 0x14 PUSH2 0x100 EXP DUP2 SLOAD DUP2 PUSH2 0xFFFF MUL NOT AND SWAP1 DUP4 PUSH2 0xFFFF AND MUL OR SWAP1 SSTORE POP DUP1 PUSH32 0xD75105A2AA4D0E369051DAFAFB95BDA6D8633CB084AB8F4DB5EBC096F880F545 PUSH1 0x40 MLOAD PUSH1 0x40 MLOAD DUP1 SWAP2 SUB SWAP1 LOG2 PUSH2 0x1FF8 PUSH2 0x3219 JUMP JUMPDEST POP JUMP JUMPDEST PUSH1 0x60 PUSH1 0x7 DUP1 SLOAD DUP1 PUSH1 0x20 MUL PUSH1 0x20 ADD PUSH1 0x40 MLOAD SWAP1 DUP2 ADD PUSH1 0x40 MSTORE DUP1 SWAP3 SWAP2 SWAP1 DUP2 DUP2 MSTORE PUSH1 0x20 ADD PUSH0 SWAP1 JUMPDEST DUP3 DUP3 LT ISZERO PUSH2 0x20D7 JUMPI DUP4 DUP3 SWAP1 PUSH0 MSTORE PUSH1 0x20 PUSH0 KECCAK256 ADD PUSH1 0x40 MLOAD DUP1 PUSH1 0x60 ADD PUSH1 0x40 MSTORE SWAP1 DUP2 PUSH0 DUP3 ADD PUSH0 SWAP1 SLOAD SWAP1 PUSH2 0x100 EXP SWAP1 DIV PUSH20 0xFFFFFFFFFFFFFFFFFFFFFFFFFFFFFFFFFFFFFFFF AND PUSH20 0xFFFFFFFFFFFFFFFFFFFFFFFFFFFFFFFFFFFFFFFF AND PUSH20 0xFFFFFFFFFFFFFFFFFFFFFFFFFFFFFFFFFFFFFFFF AND DUP2 MSTORE PUSH1 0x20 ADD PUSH0 DUP3 ADD PUSH1 0x14 SWAP1 SLOAD SWAP1 PUSH2 0x100 EXP SWAP1 DIV PUSH2 0xFFFF AND PUSH2 0xFFFF AND PUSH2 0xFFFF AND DUP2 MSTORE PUSH1 0x20 ADD PUSH0 DUP3 ADD PUSH1 0x16 SWAP1 SLOAD SWAP1 PUSH2 0x100 EXP SWAP1 DIV PUSH1 0xFF AND ISZERO ISZERO ISZERO ISZERO DUP2 MSTORE POP POP DUP2 MSTORE PUSH1 0x20 ADD SWAP1 PUSH1 0x1 ADD SWAP1 PUSH2 0x201E JUMP JUMPDEST POP POP POP POP SWAP1 POP SWAP1 JUMP JUMPDEST PUSH0 PUSH32 0xFFFFFFFFFFFFFFFFFFFFFFFFFFFFFFFFFFFFFFFFFFFFFFFFFFFFFFFFFFFFFFFF SWAP1 POP SWAP2 SWAP1 POP JUMP JUMPDEST PUSH0 PUSH2 0x2114 DUP3 PUSH0 PUSH2 0x2F3B JUMP JUMPDEST SWAP1 POP SWAP2 SWAP1 POP JUMP JUMPDEST PUSH0 PUSH2 0x212D PUSH2 0x2128 DUP4 PUSH2 0x25AD JUMP JUMPDEST PUSH2 0x1122 JUMP JUMPDEST SWAP1 POP SWAP2 SWAP1 POP JUMP JUMPDEST PUSH1 0xB SLOAD DUP2 JUMP JUMPDEST PUSH0 PUSH0 PUSH0 PUSH0 PUSH1 0x7 DUP1 SLOAD SWAP1 POP DUP6 LT PUSH2 0x217C JUMPI PUSH1 0x40 MLOAD PUSH32 0x4E236E9A00000000000000000000000000000000000000000000000000000000 DUP2 MSTORE PUSH1 0x4 ADD PUSH1 0x40 MLOAD DUP1 SWAP2 SUB SWAP1 REVERT JUMPDEST PUSH0 PUSH1 0x7 DUP7 DUP2 SLOAD DUP2 LT PUSH2 0x2191 JUMPI PUSH2 0x2190 PUSH2 0x4CB1 JUMP JUMPDEST JUMPDEST SWAP1 PUSH0 MSTORE PUSH1 0x20 PUSH0 KECCAK256 ADD PUSH1 0x40 MLOAD DUP1 PUSH1 0x60 ADD PUSH1 0x40 MSTORE SWAP1 DUP2 PUSH0 DUP3 ADD PUSH0 SWAP1 SLOAD SWAP1 PUSH2 0x100 EXP SWAP1 DIV PUSH20 0xFFFFFFFFFFFFFFFFFFFFFFFFFFFFFFFFFFFFFFFF AND PUSH20 0xFFFFFFFFFFFFFFFFFFFFFFFFFFFFFFFFFFFFFFFF AND PUSH20 0xFFFFFFFFFFFFFFFFFFFFFFFFFFFFFFFFFFFFFFFF AND DUP2 MSTORE PUSH1 0x20 ADD PUSH0 DUP3 ADD PUSH1 0x14 SWAP1 SLOAD SWAP1 PUSH2 0x100 EXP SWAP1 DIV PUSH2 0xFFFF AND PUSH2 0xFFFF AND PUSH2 0xFFFF AND DUP2 MSTORE PUSH1 0x20 ADD PUSH0 DUP3 ADD PUSH1 0x16 SWAP1 SLOAD SWAP1 PUSH2 0x100 EXP SWAP1 DIV PUSH1 0xFF AND ISZERO ISZERO ISZERO ISZERO DUP2 MSTORE POP POP SWAP1 POP DUP1 PUSH0 ADD MLOAD SWAP5 POP DUP1 PUSH1 0x20 ADD MLOAD SWAP4 POP DUP1 PUSH1 0x40 ADD MLOAD SWAP3 POP DUP3 PUSH2 0x2252 JUMPI PUSH0 PUSH2 0x22C3 JUMP JUMPDEST DUP1 PUSH0 ADD MLOAD PUSH20 0xFFFFFFFFFFFFFFFFFFFFFFFFFFFFFFFFFFFFFFFF AND PUSH4 0x1E1D114 PUSH1 0x40 MLOAD DUP2 PUSH4 0xFFFFFFFF AND PUSH1 0xE0 SHL DUP2 MSTORE PUSH1 0x4 ADD PUSH1 0x20 PUSH1 0x40 MLOAD DUP1 DUP4 SUB DUP2 DUP7 GAS STATICCALL ISZERO DUP1 ISZERO PUSH2 0x229E JUMPI RETURNDATASIZE PUSH0 PUSH0 RETURNDATACOPY RETURNDATASIZE PUSH0 REVERT JUMPDEST POP POP POP POP PUSH1 0x40 MLOAD RETURNDATASIZE PUSH1 0x1F NOT PUSH1 0x1F DUP3 ADD AND DUP3 ADD DUP1 PUSH1 0x40 MSTORE POP DUP2 ADD SWAP1 PUSH2 0x22C2 SWAP2 SWAP1 PUSH2 0x4C86 JUMP JUMPDEST JUMPDEST SWAP2 POP POP SWAP2 SWAP4 POP SWAP2 SWAP4 JUMP JUMPDEST PUSH2 0x22D5 PUSH2 0x313F JUMP JUMPDEST PUSH0 PUSH20 0xFFFFFFFFFFFFFFFFFFFFFFFFFFFFFFFFFFFFFFFF AND DUP3 PUSH20 0xFFFFFFFFFFFFFFFFFFFFFFFFFFFFFFFFFFFFFFFF AND SUB PUSH2 0x233A JUMPI PUSH1 0x40 MLOAD PUSH32 0x4E236E9A00000000000000000000000000000000000000000000000000000000 DUP2 MSTORE PUSH1 0x4 ADD PUSH1 0x40 MLOAD DUP1 SWAP2 SUB SWAP1 REVERT JUMPDEST PUSH0 DUP2 PUSH2 0xFFFF AND SWAP1 POP PUSH0 PUSH0 SWAP1 POP JUMPDEST PUSH1 0x7 DUP1 SLOAD SWAP1 POP DUP2 LT ISZERO PUSH2 0x23D1 JUMPI PUSH1 0x7 DUP2 DUP2 SLOAD DUP2 LT PUSH2 0x2368 JUMPI PUSH2 0x2367 PUSH2 0x4CB1 JUMP JUMPDEST JUMPDEST SWAP1 PUSH0 MSTORE PUSH1 0x20 PUSH0 KECCAK256 ADD PUSH0 ADD PUSH1 0x16 SWAP1 SLOAD SWAP1 PUSH2 0x100 EXP SWAP1 DIV PUSH1 0xFF AND ISZERO PUSH2 0x23C4 JUMPI PUSH1 0x7 DUP2 DUP2 SLOAD DUP2 LT PUSH2 0x2399 JUMPI PUSH2 0x2398 PUSH2 0x4CB1 JUMP JUMPDEST JUMPDEST SWAP1 PUSH0 MSTORE PUSH1 0x20 PUSH0 KECCAK256 ADD PUSH0 ADD PUSH1 0x14 SWAP1 SLOAD SWAP1 PUSH2 0x100 EXP SWAP1 DIV PUSH2 0xFFFF AND PUSH2 0xFFFF AND DUP3 PUSH2 0x23C1 SWAP2 SWAP1 PUSH2 0x4D0B JUMP JUMPDEST SWAP2 POP JUMPDEST DUP1 DUP1 PUSH1 0x1 ADD SWAP2 POP POP PUSH2 0x2347 JUMP JUMPDEST POP PUSH2 0x2710 DUP2 GT ISZERO PUSH2 0x240E JUMPI PUSH1 0x40 MLOAD PUSH32 0xBAF743200000000000000000000000000000000000000000000000000000000 DUP2 MSTORE PUSH1 0x4 ADD PUSH1 0x40 MLOAD DUP1 SWAP2 SUB SWAP1 REVERT JUMPDEST PUSH1 0x7 PUSH1 0x40 MLOAD DUP1 PUSH1 0x60 ADD PUSH1 0x40 MSTORE DUP1 DUP6 PUSH20 0xFFFFFFFFFFFFFFFFFFFFFFFFFFFFFFFFFFFFFFFF AND DUP2 MSTORE PUSH1 0x20 ADD DUP5 PUSH2 0xFFFF AND DUP2 MSTORE PUSH1 0x20 ADD PUSH1 0x1 ISZERO ISZERO DUP2 MSTORE POP SWAP1 DUP1 PUSH1 0x1 DUP2 SLOAD ADD DUP1 DUP3 SSTORE DUP1 SWAP2 POP POP PUSH1 0x1 SWAP1 SUB SWAP1 PUSH0 MSTORE PUSH1 0x20 PUSH0 KECCAK256 ADD PUSH0 SWAP1 SWAP2 SWAP1 SWAP2 SWAP1 SWAP2 POP PUSH0 DUP3 ADD MLOAD DUP2 PUSH0 ADD PUSH0 PUSH2 0x100 EXP DUP2 SLOAD DUP2 PUSH20 0xFFFFFFFFFFFFFFFFFFFFFFFFFFFFFFFFFFFFFFFF MUL NOT AND SWAP1 DUP4 PUSH20 0xFFFFFFFFFFFFFFFFFFFFFFFFFFFFFFFFFFFFFFFF AND MUL OR SWAP1 SSTORE POP PUSH1 0x20 DUP3 ADD MLOAD DUP2 PUSH0 ADD PUSH1 0x14 PUSH2 0x100 EXP DUP2 SLOAD DUP2 PUSH2 0xFFFF MUL NOT AND SWAP1 DUP4 PUSH2 0xFFFF AND MUL OR SWAP1 SSTORE POP PUSH1 0x40 DUP3 ADD MLOAD DUP2 PUSH0 ADD PUSH1 0x16 PUSH2 0x100 EXP DUP2 SLOAD DUP2 PUSH1 0xFF MUL NOT AND SWAP1 DUP4 ISZERO ISZERO MUL OR SWAP1 SSTORE POP POP POP DUP3 PUSH20 0xFFFFFFFFFFFFFFFFFFFFFFFFFFFFFFFFFFFFFFFF AND PUSH32 0x7D2D4379AF12247620003F4A65947A4F4ABB63DF796175C8AA023875F0743EF6 DUP4 PUSH1 0x40 MLOAD PUSH2 0x2537 SWAP2 SWAP1 PUSH2 0x5027 JUMP JUMPDEST PUSH1 0x40 MLOAD DUP1 SWAP2 SUB SWAP1 LOG2 POP POP POP JUMP JUMPDEST PUSH1 0x7 DUP2 DUP2 SLOAD DUP2 LT PUSH2 0x2553 JUMPI PUSH0 DUP1 REVERT JUMPDEST SWAP1 PUSH0 MSTORE PUSH1 0x20 PUSH0 KECCAK256 ADD PUSH0 SWAP2 POP SWAP1 POP DUP1 PUSH0 ADD PUSH0 SWAP1 SLOAD SWAP1 PUSH2 0x100 EXP SWAP1 DIV PUSH20 0xFFFFFFFFFFFFFFFFFFFFFFFFFFFFFFFFFFFFFFFF AND SWAP1 DUP1 PUSH0 ADD PUSH1 0x14 SWAP1 SLOAD SWAP1 PUSH2 0x100 EXP SWAP1 DIV PUSH2 0xFFFF AND SWAP1 DUP1 PUSH0 ADD PUSH1 0x16 SWAP1 SLOAD SWAP1 PUSH2 0x100 EXP SWAP1 DIV PUSH1 0xFF AND SWAP1 POP DUP4 JUMP JUMPDEST PUSH0 PUSH2 0x25B7 DUP3 PUSH2 0x14E2 JUMP JUMPDEST SWAP1 POP SWAP2 SWAP1 POP JUMP JUMPDEST PUSH0 PUSH1 0x1 PUSH0 DUP5 PUSH20 0xFFFFFFFFFFFFFFFFFFFFFFFFFFFFFFFFFFFFFFFF AND PUSH20 0xFFFFFFFFFFFFFFFFFFFFFFFFFFFFFFFFFFFFFFFF AND DUP2 MSTORE PUSH1 0x20 ADD SWAP1 DUP2 MSTORE PUSH1 0x20 ADD PUSH0 KECCAK256 PUSH0 DUP4 PUSH20 0xFFFFFFFFFFFFFFFFFFFFFFFFFFFFFFFFFFFFFFFF AND PUSH20 0xFFFFFFFFFFFFFFFFFFFFFFFFFFFFFFFFFFFFFFFF AND DUP2 MSTORE PUSH1 0x20 ADD SWAP1 DUP2 MSTORE PUSH1 0x20 ADD PUSH0 KECCAK256 SLOAD SWAP1 POP SWAP3 SWAP2 POP POP JUMP JUMPDEST PUSH2 0x2648 PUSH2 0x313F JUMP JUMPDEST PUSH0 PUSH20 0xFFFFFFFFFFFFFFFFFFFFFFFFFFFFFFFFFFFFFFFF AND DUP2 PUSH20 0xFFFFFFFFFFFFFFFFFFFFFFFFFFFFFFFFFFFFFFFF AND SUB PUSH2 0x26AD JUMPI PUSH1 0x40 MLOAD PUSH32 0xE6C4247B00000000000000000000000000000000000000000000000000000000 DUP2 MSTORE PUSH1 0x4 ADD PUSH1 0x40 MLOAD DUP1 SWAP2 SUB SWAP1 REVERT JUMPDEST PUSH0 PUSH1 0x9 PUSH0 SWAP1 SLOAD SWAP1 PUSH2 0x100 EXP SWAP1 DIV PUSH20 0xFFFFFFFFFFFFFFFFFFFFFFFFFFFFFFFFFFFFFFFF AND SWAP1 POP DUP2 PUSH1 0x9 PUSH0 PUSH2 0x100 EXP DUP2 SLOAD DUP2 PUSH20 0xFFFFFFFFFFFFFFFFFFFFFFFFFFFFFFFFFFFFFFFF MUL NOT AND SWAP1 DUP4 PUSH20 0xFFFFFFFFFFFFFFFFFFFFFFFFFFFFFFFFFFFFFFFF AND MUL OR SWAP1 SSTORE POP DUP2 PUSH20 0xFFFFFFFFFFFFFFFFFFFFFFFFFFFFFFFFFFFFFFFF AND DUP2 PUSH20 0xFFFFFFFFFFFFFFFFFFFFFFFFFFFFFFFFFFFFFFFF AND PUSH32 0xAAEBCF1BFA00580E41D966056B48521FA9F202645C86D4DDF28113E617C1B1D3 PUSH1 0x40 MLOAD PUSH1 0x40 MLOAD DUP1 SWAP2 SUB SWAP1 LOG3 POP POP JUMP JUMPDEST PUSH0 PUSH2 0x277B DUP3 PUSH0 PUSH2 0x2F3B JUMP JUMPDEST SWAP1 POP SWAP2 SWAP1 POP JUMP JUMPDEST PUSH2 0x278A PUSH2 0x313F JUMP JUMPDEST DUP1 MLOAD DUP4 DUP4 SWAP1 POP EQ ISZERO DUP1 PUSH2 0x279F JUMPI POP PUSH0 DUP4 DUP4 SWAP1 POP EQ JUMPDEST ISZERO PUSH2 0x27D6 JUMPI PUSH1 0x40 MLOAD PUSH32 0xBAF743200000000000000000000000000000000000000000000000000000000 DUP2 MSTORE PUSH1 0x4 ADD PUSH1 0x40 MLOAD DUP1 SWAP2 SUB SWAP1 REVERT JUMPDEST PUSH0 PUSH0 SWAP1 POP PUSH0 PUSH0 SWAP1 POP JUMPDEST DUP5 DUP5 SWAP1 POP DUP2 LT ISZERO PUSH2 0x28F5 JUMPI PUSH1 0x7 DUP1 SLOAD SWAP1 POP DUP6 DUP6 DUP4 DUP2 DUP2 LT PUSH2 0x2803 JUMPI PUSH2 0x2802 PUSH2 0x4CB1 JUMP JUMPDEST JUMPDEST SWAP1 POP PUSH1 0x20 MUL ADD CALLDATALOAD LT PUSH2 0x2841 JUMPI PUSH1 0x40 MLOAD PUSH32 0x4E236E9A00000000000000000000000000000000000000000000000000000000 DUP2 MSTORE PUSH1 0x4 ADD PUSH1 0x40 MLOAD DUP1 SWAP2 SUB SWAP1 REVERT JUMPDEST PUSH1 0x7 DUP6 DUP6 DUP4 DUP2 DUP2 LT PUSH2 0x2856 JUMPI PUSH2 0x2855 PUSH2 0x4CB1 JUMP JUMPDEST JUMPDEST SWAP1 POP PUSH1 0x20 MUL ADD CALLDATALOAD DUP2 SLOAD DUP2 LT PUSH2 0x286E JUMPI PUSH2 0x286D PUSH2 0x4CB1 JUMP JUMPDEST JUMPDEST SWAP1 PUSH0 MSTORE PUSH1 0x20 PUSH0 KECCAK256 ADD PUSH0 ADD PUSH1 0x16 SWAP1 SLOAD SWAP1 PUSH2 0x100 EXP SWAP1 DIV PUSH1 0xFF AND PUSH2 0x28BC JUMPI PUSH1 0x40 MLOAD PUSH32 0xDC974A9800000000000000000000000000000000000000000000000000000000 DUP2 MSTORE PUSH1 0x4 ADD PUSH1 0x40 MLOAD DUP1 SWAP2 SUB SWAP1 REVERT JUMPDEST DUP3 DUP2 DUP2 MLOAD DUP2 LT PUSH2 0x28CF JUMPI PUSH2 0x28CE PUSH2 0x4CB1 JUMP JUMPDEST JUMPDEST PUSH1 0x20 MUL PUSH1 0x20 ADD ADD MLOAD PUSH2 0xFFFF AND DUP3 PUSH2 0x28E6 SWAP2 SWAP1 PUSH2 0x4D0B JUMP JUMPDEST SWAP2 POP DUP1 DUP1 PUSH1 0x1 ADD SWAP2 POP POP PUSH2 0x27DF JUMP JUMPDEST POP PUSH0 PUSH0 SWAP1 POP JUMPDEST PUSH1 0x7 DUP1 SLOAD SWAP1 POP DUP2 LT ISZERO PUSH2 0x29D7 JUMPI PUSH1 0x7 DUP2 DUP2 SLOAD DUP2 LT PUSH2 0x291C JUMPI PUSH2 0x291B PUSH2 0x4CB1 JUMP JUMPDEST JUMPDEST SWAP1 PUSH0 MSTORE PUSH1 0x20 PUSH0 KECCAK256 ADD PUSH0 ADD PUSH1 0x16 SWAP1 SLOAD SWAP1 PUSH2 0x100 EXP SWAP1 DIV PUSH1 0xFF AND ISZERO PUSH2 0x29CA JUMPI PUSH0 PUSH0 SWAP1 POP PUSH0 PUSH0 SWAP1 POP JUMPDEST DUP7 DUP7 SWAP1 POP DUP2 LT ISZERO PUSH2 0x2983 JUMPI DUP3 DUP8 DUP8 DUP4 DUP2 DUP2 LT PUSH2 0x2961 JUMPI PUSH2 0x2960 PUSH2 0x4CB1 JUMP JUMPDEST JUMPDEST SWAP1 POP PUSH1 0x20 MUL ADD CALLDATALOAD SUB PUSH2 0x2976 JUMPI PUSH1 0x1 SWAP2 POP PUSH2 0x2983 JUMP JUMPDEST DUP1 DUP1 PUSH1 0x1 ADD SWAP2 POP POP PUSH2 0x2942 JUMP JUMPDEST POP DUP1 PUSH2 0x29C8 JUMPI PUSH1 0x7 DUP3 DUP2 SLOAD DUP2 LT PUSH2 0x299D JUMPI PUSH2 0x299C PUSH2 0x4CB1 JUMP JUMPDEST JUMPDEST SWAP1 PUSH0 MSTORE PUSH1 0x20 PUSH0 KECCAK256 ADD PUSH0 ADD PUSH1 0x14 SWAP1 SLOAD SWAP1 PUSH2 0x100 EXP SWAP1 DIV PUSH2 0xFFFF AND PUSH2 0xFFFF AND DUP4 PUSH2 0x29C5 SWAP2 SWAP1 PUSH2 0x4D0B JUMP JUMPDEST SWAP3 POP JUMPDEST POP JUMPDEST DUP1 DUP1 PUSH1 0x1 ADD SWAP2 POP POP PUSH2 0x28FB JUMP JUMPDEST POP PUSH2 0x2710 DUP2 EQ PUSH2 0x2A13 JUMPI PUSH1 0x40 MLOAD PUSH32 0xD9C1BEDB00000000000000000000000000000000000000000000000000000000 DUP2 MSTORE PUSH1 0x4 ADD PUSH1 0x40 MLOAD DUP1 SWAP2 SUB SWAP1 REVERT JUMPDEST PUSH0 PUSH0 SWAP1 POP JUMPDEST DUP5 DUP5 SWAP1 POP DUP2 LT ISZERO PUSH2 0x2A9C JUMPI DUP3 DUP2 DUP2 MLOAD DUP2 LT PUSH2 0x2A36 JUMPI PUSH2 0x2A35 PUSH2 0x4CB1 JUMP JUMPDEST JUMPDEST PUSH1 0x20 MUL PUSH1 0x20 ADD ADD MLOAD PUSH1 0x7 DUP7 DUP7 DUP5 DUP2 DUP2 LT PUSH2 0x2A53 JUMPI PUSH2 0x2A52 PUSH2 0x4CB1 JUMP JUMPDEST JUMPDEST SWAP1 POP PUSH1 0x20 MUL ADD CALLDATALOAD DUP2 SLOAD DUP2 LT PUSH2 0x2A6B JUMPI PUSH2 0x2A6A PUSH2 0x4CB1 JUMP JUMPDEST JUMPDEST SWAP1 PUSH0 MSTORE PUSH1 0x20 PUSH0 KECCAK256 ADD PUSH0 ADD PUSH1 0x14 PUSH2 0x100 EXP DUP2 SLOAD DUP2 PUSH2 0xFFFF MUL NOT AND SWAP1 DUP4 PUSH2 0xFFFF AND MUL OR SWAP1 SSTORE POP DUP1 DUP1 PUSH1 0x1 ADD SWAP2 POP POP PUSH2 0x2A18 JUMP JUMPDEST POP PUSH32 0x60BFA88326122B3D74BEA3FB7879A885EFB5BF0CC29979D492CF8001DE30AFB0 DUP5 DUP5 DUP5 PUSH1 0x40 MLOAD PUSH2 0x2AD0 SWAP4 SWAP3 SWAP2 SWAP1 PUSH2 0x5160 JUMP JUMPDEST PUSH1 0x40 MLOAD DUP1 SWAP2 SUB SWAP1 LOG1 POP POP POP POP JUMP JUMPDEST PUSH0 PUSH0 PUSH0 SWAP1 POP PUSH0 PUSH0 SWAP1 POP PUSH0 PUSH0 SWAP1 POP JUMPDEST PUSH1 0x7 DUP1 SLOAD SWAP1 POP DUP2 LT ISZERO PUSH2 0x2CBB JUMPI PUSH1 0x7 DUP2 DUP2 SLOAD DUP2 LT PUSH2 0x2B0D JUMPI PUSH2 0x2B0C PUSH2 0x4CB1 JUMP JUMPDEST JUMPDEST SWAP1 PUSH0 MSTORE PUSH1 0x20 PUSH0 KECCAK256 ADD PUSH0 ADD PUSH1 0x16 SWAP1 SLOAD SWAP1 PUSH2 0x100 EXP SWAP1 DIV PUSH1 0xFF AND ISZERO PUSH2 0x2CAE JUMPI PUSH0 PUSH1 0x7 DUP3 DUP2 SLOAD DUP2 LT PUSH2 0x2B3F JUMPI PUSH2 0x2B3E PUSH2 0x4CB1 JUMP JUMPDEST JUMPDEST SWAP1 PUSH0 MSTORE PUSH1 0x20 PUSH0 KECCAK256 ADD PUSH0 ADD PUSH0 SWAP1 SLOAD SWAP1 PUSH2 0x100 EXP SWAP1 DIV PUSH20 0xFFFFFFFFFFFFFFFFFFFFFFFFFFFFFFFFFFFFFFFF AND PUSH20 0xFFFFFFFFFFFFFFFFFFFFFFFFFFFFFFFFFFFFFFFF AND PUSH4 0x1E1D114 PUSH1 0x40 MLOAD DUP2 PUSH4 0xFFFFFFFF AND PUSH1 0xE0 SHL DUP2 MSTORE PUSH1 0x4 ADD PUSH1 0x20 PUSH1 0x40 MLOAD DUP1 DUP4 SUB DUP2 DUP7 GAS STATICCALL ISZERO DUP1 ISZERO PUSH2 0x2BB1 JUMPI RETURNDATASIZE PUSH0 PUSH0 RETURNDATACOPY RETURNDATASIZE PUSH0 REVERT JUMPDEST POP POP POP POP PUSH1 0x40 MLOAD RETURNDATASIZE PUSH1 0x1F NOT PUSH1 0x1F DUP3 ADD AND DUP3 ADD DUP1 PUSH1 0x40 MSTORE POP DUP2 ADD SWAP1 PUSH2 0x2BD5 SWAP2 SWAP1 PUSH2 0x4C86 JUMP JUMPDEST SWAP1 POP PUSH0 PUSH1 0x7 DUP4 DUP2 SLOAD DUP2 LT PUSH2 0x2BEC JUMPI PUSH2 0x2BEB PUSH2 0x4CB1 JUMP JUMPDEST JUMPDEST SWAP1 PUSH0 MSTORE PUSH1 0x20 PUSH0 KECCAK256 ADD PUSH0 ADD PUSH0 SWAP1 SLOAD SWAP1 PUSH2 0x100 EXP SWAP1 DIV PUSH20 0xFFFFFFFFFFFFFFFFFFFFFFFFFFFFFFFFFFFFFFFF AND PUSH20 0xFFFFFFFFFFFFFFFFFFFFFFFFFFFFFFFFFFFFFFFF AND PUSH4 0xF19993D7 PUSH1 0x40 MLOAD DUP2 PUSH4 0xFFFFFFFF AND PUSH1 0xE0 SHL DUP2 MSTORE PUSH1 0x4 ADD PUSH1 0x20 PUSH1 0x40 MLOAD DUP1 DUP4 SUB DUP2 DUP7 GAS STATICCALL ISZERO DUP1 ISZERO PUSH2 0x2C5E JUMPI RETURNDATASIZE PUSH0 PUSH0 RETURNDATACOPY RETURNDATASIZE PUSH0 REVERT JUMPDEST POP POP POP POP PUSH1 0x40 MLOAD RETURNDATASIZE PUSH1 0x1F NOT PUSH1 0x1F DUP3 ADD AND DUP3 ADD DUP1 PUSH1 0x40 MSTORE POP DUP2 ADD SWAP1 PUSH2 0x2C82 SWAP2 SWAP1 PUSH2 0x4C86 JUMP JUMPDEST SWAP1 POP DUP1 DUP3 PUSH2 0x2C90 SWAP2 SWAP1 PUSH2 0x4E02 JUMP JUMPDEST DUP6 PUSH2 0x2C9B SWAP2 SWAP1 PUSH2 0x4D0B JUMP JUMPDEST SWAP5 POP DUP2 DUP5 PUSH2 0x2CA9 SWAP2 SWAP1 PUSH2 0x4D0B JUMP JUMPDEST SWAP4 POP POP POP JUMPDEST DUP1 DUP1 PUSH1 0x1 ADD SWAP2 POP POP PUSH2 0x2AEC JUMP JUMPDEST POP PUSH0 DUP2 EQ PUSH2 0x2CD4 JUMPI DUP1 DUP3 PUSH2 0x2CCF SWAP2 SWAP1 PUSH2 0x4E70 JUMP JUMPDEST PUSH2 0x2CD6 JUMP JUMPDEST PUSH0 JUMPDEST SWAP3 POP POP POP SWAP1 JUMP JUMPDEST PUSH2 0x2CE5 PUSH2 0x313F JUMP JUMPDEST PUSH0 PUSH20 0xFFFFFFFFFFFFFFFFFFFFFFFFFFFFFFFFFFFFFFFF AND DUP2 PUSH20 0xFFFFFFFFFFFFFFFFFFFFFFFFFFFFFFFFFFFFFFFF AND SUB PUSH2 0x2D55 JUMPI PUSH0 PUSH1 0x40 MLOAD PUSH32 0x1E4FBDF700000000000000000000000000000000000000000000000000000000 DUP2 MSTORE PUSH1 0x4 ADD PUSH2 0x2D4C SWAP2 SWAP1 PUSH2 0x4530 JUMP JUMPDEST PUSH1 0x40 MLOAD DUP1 SWAP2 SUB SWAP1 REVERT JUMPDEST PUSH2 0x2D5E DUP2 PUSH2 0x34E3 JUMP JUMPDEST POP JUMP JUMPDEST PUSH1 0x6 PUSH0 CALLER PUSH20 0xFFFFFFFFFFFFFFFFFFFFFFFFFFFFFFFFFFFFFFFF AND PUSH20 0xFFFFFFFFFFFFFFFFFFFFFFFFFFFFFFFFFFFFFFFF AND DUP2 MSTORE PUSH1 0x20 ADD SWAP1 DUP2 MSTORE PUSH1 0x20 ADD PUSH0 KECCAK256 PUSH0 SWAP1 SLOAD SWAP1 PUSH2 0x100 EXP SWAP1 DIV PUSH1 0xFF AND PUSH2 0x2DEA JUMPI PUSH1 0x40 MLOAD PUSH32 0x8C379A000000000000000000000000000000000000000000000000000000000 DUP2 MSTORE PUSH1 0x4 ADD PUSH2 0x2DE1 SWAP1 PUSH2 0x4F45 JUMP JUMPDEST PUSH1 0x40 MLOAD DUP1 SWAP2 SUB SWAP1 REVERT JUMPDEST PUSH0 DUP3 DUP3 SWAP1 POP PUSH8 0xFFFFFFFFFFFFFFFF DUP2 GT ISZERO PUSH2 0x2E08 JUMPI PUSH2 0x2E07 PUSH2 0x49B1 JUMP JUMPDEST JUMPDEST PUSH1 0x40 MLOAD SWAP1 DUP1 DUP3 MSTORE DUP1 PUSH1 0x20 MUL PUSH1 0x20 ADD DUP3 ADD PUSH1 0x40 MSTORE DUP1 ISZERO PUSH2 0x2E36 JUMPI DUP2 PUSH1 0x20 ADD PUSH1 0x20 DUP3 MUL DUP1 CALLDATASIZE DUP4 CALLDATACOPY DUP1 DUP3 ADD SWAP2 POP POP SWAP1 POP JUMPDEST POP SWAP1 POP PUSH0 PUSH0 SWAP1 POP JUMPDEST DUP4 DUP4 SWAP1 POP DUP2 LT ISZERO PUSH2 0x2EB6 JUMPI PUSH1 0x64 DUP5 DUP5 DUP4 DUP2 DUP2 LT PUSH2 0x2E5E JUMPI PUSH2 0x2E5D PUSH2 0x4CB1 JUMP JUMPDEST JUMPDEST SWAP1 POP PUSH1 0x20 MUL ADD PUSH1 0x20 DUP2 ADD SWAP1 PUSH2 0x2E73 SWAP2 SWAP1 PUSH2 0x5197 JUMP JUMPDEST PUSH1 0xFF AND PUSH2 0x2E80 SWAP2 SWAP1 PUSH2 0x51C2 JUMP JUMPDEST DUP3 DUP3 DUP2 MLOAD DUP2 LT PUSH2 0x2E93 JUMPI PUSH2 0x2E92 PUSH2 0x4CB1 JUMP JUMPDEST JUMPDEST PUSH1 0x20 MUL PUSH1 0x20 ADD ADD SWAP1 PUSH2 0xFFFF AND SWAP1 DUP2 PUSH2 0xFFFF AND DUP2 MSTORE POP POP DUP1 DUP1 PUSH1 0x1 ADD SWAP2 POP POP PUSH2 0x2E3E JUMP JUMPDEST POP PUSH2 0x2EC2 DUP6 DUP6 DUP4 PUSH2 0x2782 JUMP JUMPDEST POP POP POP POP POP POP JUMP JUMPDEST PUSH0 PUSH2 0x2F1A PUSH1 0x1 PUSH2 0x2ED8 PUSH2 0x9D1 JUMP JUMPDEST PUSH2 0x2EE2 SWAP2 SWAP1 PUSH2 0x4D0B JUMP JUMPDEST PUSH2 0x2EEA PUSH2 0x3116 JUMP JUMPDEST PUSH1 0xA PUSH2 0x2EF6 SWAP2 SWAP1 PUSH2 0x532D JUMP JUMPDEST PUSH2 0x2EFE PUSH2 0xC3B JUMP JUMPDEST PUSH2 0x2F08 SWAP2 SWAP1 PUSH2 0x4D0B JUMP JUMPDEST DUP5 DUP7 PUSH2 0x3AA2 SWAP1 SWAP4 SWAP3 SWAP2 SWAP1 PUSH4 0xFFFFFFFF AND JUMP JUMPDEST SWAP1 POP SWAP3 SWAP2 POP POP JUMP JUMPDEST PUSH0 CALLER SWAP1 POP SWAP1 JUMP JUMPDEST PUSH2 0x2F36 DUP4 DUP4 DUP4 PUSH1 0x1 PUSH2 0x3AEF JUMP JUMPDEST POP POP POP JUMP JUMPDEST PUSH0 PUSH2 0x2F8B PUSH2 0x2F47 PUSH2 0x3116 JUMP JUMPDEST PUSH1 0xA PUSH2 0x2F53 SWAP2 SWAP1 PUSH2 0x532D JUMP JUMPDEST PUSH2 0x2F5B PUSH2 0xC3B JUMP JUMPDEST PUSH2 0x2F65 SWAP2 SWAP1 PUSH2 0x4D0B JUMP JUMPDEST PUSH1 0x1 PUSH2 0x2F6F PUSH2 0x9D1 JUMP JUMPDEST PUSH2 0x2F79 SWAP2 SWAP1 PUSH2 0x4D0B JUMP JUMPDEST DUP5 DUP7 PUSH2 0x3AA2 SWAP1 SWAP4 SWAP3 SWAP2 SWAP1 PUSH4 0xFFFFFFFF AND JUMP JUMPDEST SWAP1 POP SWAP3 SWAP2 POP POP JUMP JUMPDEST PUSH0 PUSH2 0x2F9E DUP5 DUP5 PUSH2 0x25BE JUMP JUMPDEST SWAP1 POP PUSH32 0xFFFFFFFFFFFFFFFFFFFFFFFFFFFFFFFFFFFFFFFFFFFFFFFFFFFFFFFFFFFFFFFF DUP2 LT ISZERO PUSH2 0x3020 JUMPI DUP2 DUP2 LT ISZERO PUSH2 0x3011 JUMPI DUP3 DUP2 DUP4 PUSH1 0x40 MLOAD PUSH32 0xFB8F41B200000000000000000000000000000000000000000000000000000000 DUP2 MSTORE PUSH1 0x4 ADD PUSH2 0x3008 SWAP4 SWAP3 SWAP2 SWAP1 PUSH2 0x4FF2 JUMP JUMPDEST PUSH1 0x40 MLOAD DUP1 SWAP2 SUB SWAP1 REVERT JUMPDEST PUSH2 0x301F DUP5 DUP5 DUP5 DUP5 SUB PUSH0 PUSH2 0x3AEF JUMP JUMPDEST JUMPDEST POP POP POP POP JUMP JUMPDEST PUSH0 PUSH20 0xFFFFFFFFFFFFFFFFFFFFFFFFFFFFFFFFFFFFFFFF AND DUP4 PUSH20 0xFFFFFFFFFFFFFFFFFFFFFFFFFFFFFFFFFFFFFFFF AND SUB PUSH2 0x3096 JUMPI PUSH0 PUSH1 0x40 MLOAD PUSH32 0x96C6FD1E00000000000000000000000000000000000000000000000000000000 DUP2 MSTORE PUSH1 0x4 ADD PUSH2 0x308D SWAP2 SWAP1 PUSH2 0x4530 JUMP JUMPDEST PUSH1 0x40 MLOAD DUP1 SWAP2 SUB SWAP1 REVERT JUMPDEST PUSH0 PUSH20 0xFFFFFFFFFFFFFFFFFFFFFFFFFFFFFFFFFFFFFFFF AND DUP3 PUSH20 0xFFFFFFFFFFFFFFFFFFFFFFFFFFFFFFFFFFFFFFFF AND SUB PUSH2 0x3106 JUMPI PUSH0 PUSH1 0x40 MLOAD PUSH32 0xEC442F0500000000000000000000000000000000000000000000000000000000 DUP2 MSTORE PUSH1 0x4 ADD PUSH2 0x30FD SWAP2 SWAP1 PUSH2 0x4530 JUMP JUMPDEST PUSH1 0x40 MLOAD DUP1 SWAP2 SUB SWAP1 REVERT JUMPDEST PUSH2 0x3111 DUP4 DUP4 DUP4 PUSH2 0x3CBE JUMP JUMPDEST POP POP POP JUMP JUMPDEST PUSH0 PUSH0 SWAP1 POP SWAP1 JUMP JUMPDEST PUSH2 0x3125 PUSH2 0x3ED7 JUMP JUMPDEST PUSH1 0x2 PUSH2 0x3137 PUSH2 0x3132 PUSH2 0x3F18 JUMP JUMPDEST PUSH2 0x3F41 JUMP JUMPDEST PUSH0 ADD DUP2 SWAP1 SSTORE POP JUMP JUMPDEST PUSH2 0x3147 PUSH2 0x2F22 JUMP JUMPDEST PUSH20 0xFFFFFFFFFFFFFFFFFFFFFFFFFFFFFFFFFFFFFFFF AND PUSH2 0x3165 PUSH2 0x17D6 JUMP JUMPDEST PUSH20 0xFFFFFFFFFFFFFFFFFFFFFFFFFFFFFFFFFFFFFFFF AND EQ PUSH2 0x31C4 JUMPI PUSH2 0x3188 PUSH2 0x2F22 JUMP JUMPDEST PUSH1 0x40 MLOAD PUSH32 0x118CDAA700000000000000000000000000000000000000000000000000000000 DUP2 MSTORE PUSH1 0x4 ADD PUSH2 0x31BB SWAP2 SWAP1 PUSH2 0x4530 JUMP JUMPDEST PUSH1 0x40 MLOAD DUP1 SWAP2 SUB SWAP1 REVERT JUMPDEST JUMP JUMPDEST PUSH2 0x31D3 DUP4 DUP4 DUP4 PUSH1 0x1 PUSH2 0x3F4A JUMP JUMPDEST PUSH2 0x3214 JUMPI DUP3 PUSH1 0x40 MLOAD PUSH32 0x5274AFE700000000000000000000000000000000000000000000000000000000 DUP2 MSTORE PUSH1 0x4 ADD PUSH2 0x320B SWAP2 SWAP1 PUSH2 0x4530 JUMP JUMPDEST PUSH1 0x40 MLOAD DUP1 SWAP2 SUB SWAP1 REVERT JUMPDEST POP POP POP JUMP JUMPDEST PUSH1 0x1 PUSH2 0x322B PUSH2 0x3226 PUSH2 0x3F18 JUMP JUMPDEST PUSH2 0x3F41 JUMP JUMPDEST PUSH0 ADD DUP2 SWAP1 SSTORE POP JUMP JUMPDEST PUSH2 0x3241 DUP5 DUP5 DUP5 DUP5 PUSH1 0x1 PUSH2 0x3FAC JUMP JUMPDEST PUSH2 0x3282 JUMPI DUP4 PUSH1 0x40 MLOAD PUSH32 0x5274AFE700000000000000000000000000000000000000000000000000000000 DUP2 MSTORE PUSH1 0x4 ADD PUSH2 0x3279 SWAP2 SWAP1 PUSH2 0x4530 JUMP JUMPDEST PUSH1 0x40 MLOAD DUP1 SWAP2 SUB SWAP1 REVERT JUMPDEST POP POP POP POP JUMP JUMPDEST PUSH0 PUSH20 0xFFFFFFFFFFFFFFFFFFFFFFFFFFFFFFFFFFFFFFFF AND DUP3 PUSH20 0xFFFFFFFFFFFFFFFFFFFFFFFFFFFFFFFFFFFFFFFF AND SUB PUSH2 0x32F8 JUMPI PUSH0 PUSH1 0x40 MLOAD PUSH32 0xEC442F0500000000000000000000000000000000000000000000000000000000 DUP2 MSTORE PUSH1 0x4 ADD PUSH2 0x32EF SWAP2 SWAP1 PUSH2 0x4530 JUMP JUMPDEST PUSH1 0x40 MLOAD DUP1 SWAP2 SUB SWAP1 REVERT JUMPDEST PUSH2 0x3303 PUSH0 DUP4 DUP4 PUSH2 0x3CBE JUMP JUMPDEST POP POP JUMP JUMPDEST PUSH0 DUP2 SUB ISZERO PUSH2 0x34E0 JUMPI PUSH0 PUSH0 SWAP1 POP JUMPDEST PUSH1 0x7 DUP1 SLOAD SWAP1 POP DUP2 LT ISZERO PUSH2 0x34DE JUMPI PUSH1 0x7 DUP2 DUP2 SLOAD DUP2 LT PUSH2 0x3335 JUMPI PUSH2 0x3334 PUSH2 0x4CB1 JUMP JUMPDEST JUMPDEST SWAP1 PUSH0 MSTORE PUSH1 0x20 PUSH0 KECCAK256 ADD PUSH0 ADD PUSH1 0x16 SWAP1 SLOAD SWAP1 PUSH2 0x100 EXP SWAP1 DIV PUSH1 0xFF AND ISZERO PUSH2 0x34D1 JUMPI PUSH0 PUSH2 0x2710 PUSH1 0x7 DUP4 DUP2 SLOAD DUP2 LT PUSH2 0x336A JUMPI PUSH2 0x3369 PUSH2 0x4CB1 JUMP JUMPDEST JUMPDEST SWAP1 PUSH0 MSTORE PUSH1 0x20 PUSH0 KECCAK256 ADD PUSH0 ADD PUSH1 0x14 SWAP1 SLOAD SWAP1 PUSH2 0x100 EXP SWAP1 DIV PUSH2 0xFFFF AND PUSH2 0xFFFF AND DUP5 PUSH2 0x3392 SWAP2 SWAP1 PUSH2 0x4E02 JUMP JUMPDEST PUSH2 0x339C SWAP2 SWAP1 PUSH2 0x4E70 JUMP JUMPDEST SWAP1 POP PUSH0 DUP2 GT ISZERO PUSH2 0x34CF JUMPI PUSH2 0x3415 PUSH1 0x7 DUP4 DUP2 SLOAD DUP2 LT PUSH2 0x33BD JUMPI PUSH2 0x33BC PUSH2 0x4CB1 JUMP JUMPDEST JUMPDEST SWAP1 PUSH0 MSTORE PUSH1 0x20 PUSH0 KECCAK256 ADD PUSH0 ADD PUSH0 SWAP1 SLOAD SWAP1 PUSH2 0x100 EXP SWAP1 DIV PUSH20 0xFFFFFFFFFFFFFFFFFFFFFFFFFFFFFFFFFFFFFFFF AND DUP3 PUSH2 0x33F0 PUSH2 0xCB1 JUMP JUMPDEST PUSH20 0xFFFFFFFFFFFFFFFFFFFFFFFFFFFFFFFFFFFFFFFF AND PUSH2 0x401D SWAP1 SWAP3 SWAP2 SWAP1 PUSH4 0xFFFFFFFF AND JUMP JUMPDEST PUSH1 0x7 DUP3 DUP2 SLOAD DUP2 LT PUSH2 0x3429 JUMPI PUSH2 0x3428 PUSH2 0x4CB1 JUMP JUMPDEST JUMPDEST SWAP1 PUSH0 MSTORE PUSH1 0x20 PUSH0 KECCAK256 ADD PUSH0 ADD PUSH0 SWAP1 SLOAD SWAP1 PUSH2 0x100 EXP SWAP1 DIV PUSH20 0xFFFFFFFFFFFFFFFFFFFFFFFFFFFFFFFFFFFFFFFF AND PUSH20 0xFFFFFFFFFFFFFFFFFFFFFFFFFFFFFFFFFFFFFFFF AND PUSH4 0x6E553F65 DUP3 ADDRESS PUSH1 0x40 MLOAD DUP4 PUSH4 0xFFFFFFFF AND PUSH1 0xE0 SHL DUP2 MSTORE PUSH1 0x4 ADD PUSH2 0x348D SWAP3 SWAP2 SWAP1 PUSH2 0x5377 JUMP JUMPDEST PUSH1 0x20 PUSH1 0x40 MLOAD DUP1 DUP4 SUB DUP2 PUSH0 DUP8 GAS CALL ISZERO DUP1 ISZERO PUSH2 0x34A9 JUMPI RETURNDATASIZE PUSH0 PUSH0 RETURNDATACOPY RETURNDATASIZE PUSH0 REVERT JUMPDEST POP POP POP POP PUSH1 0x40 MLOAD RETURNDATASIZE PUSH1 0x1F NOT PUSH1 0x1F DUP3 ADD AND DUP3 ADD DUP1 PUSH1 0x40 MSTORE POP DUP2 ADD SWAP1 PUSH2 0x34CD SWAP2 SWAP1 PUSH2 0x4C86 JUMP JUMPDEST POP JUMPDEST POP JUMPDEST DUP1 DUP1 PUSH1 0x1 ADD SWAP2 POP POP PUSH2 0x3314 JUMP JUMPDEST POP JUMPDEST POP JUMP JUMPDEST PUSH0 PUSH1 0x5 PUSH0 SWAP1 SLOAD SWAP1 PUSH2 0x100 EXP SWAP1 DIV PUSH20 0xFFFFFFFFFFFFFFFFFFFFFFFFFFFFFFFFFFFFFFFF AND SWAP1 POP DUP2 PUSH1 0x5 PUSH0 PUSH2 0x100 EXP DUP2 SLOAD DUP2 PUSH20 0xFFFFFFFFFFFFFFFFFFFFFFFFFFFFFFFFFFFFFFFF MUL NOT AND SWAP1 DUP4 PUSH20 0xFFFFFFFFFFFFFFFFFFFFFFFFFFFFFFFFFFFFFFFF AND MUL OR SWAP1 SSTORE POP DUP2 PUSH20 0xFFFFFFFFFFFFFFFFFFFFFFFFFFFFFFFFFFFFFFFF AND DUP2 PUSH20 0xFFFFFFFFFFFFFFFFFFFFFFFFFFFFFFFFFFFFFFFF AND PUSH32 0x8BE0079C531659141344CD1FD0A4F28419497F9722A3DAAFE3B4186F6B6457E0 PUSH1 0x40 MLOAD PUSH1 0x40 MLOAD DUP1 SWAP2 SUB SWAP1 LOG3 POP POP JUMP JUMPDEST PUSH2 0x35B9 PUSH2 0x35B1 PUSH2 0xCB1 JUMP JUMPDEST DUP6 ADDRESS DUP6 PUSH2 0x3233 JUMP JUMPDEST PUSH2 0x35C3 DUP4 DUP3 PUSH2 0x3288 JUMP JUMPDEST DUP3 PUSH20 0xFFFFFFFFFFFFFFFFFFFFFFFFFFFFFFFFFFFFFFFF AND DUP5 PUSH20 0xFFFFFFFFFFFFFFFFFFFFFFFFFFFFFFFFFFFFFFFF AND PUSH32 0xDCBC1C05240F31FF3AD067EF1EE35CE4997762752E3A095284754544F4C709D7 DUP5 DUP5 PUSH1 0x40 MLOAD PUSH2 0x3622 SWAP3 SWAP2 SWAP1 PUSH2 0x4FCB JUMP JUMPDEST PUSH1 0x40 MLOAD DUP1 SWAP2 SUB SWAP1 LOG3 POP POP POP POP JUMP JUMPDEST PUSH0 DUP2 SUB ISZERO PUSH2 0x3A20 JUMPI PUSH0 PUSH0 SWAP1 POP PUSH0 PUSH1 0x7 DUP1 SLOAD SWAP1 POP PUSH8 0xFFFFFFFFFFFFFFFF DUP2 GT ISZERO PUSH2 0x365C JUMPI PUSH2 0x365B PUSH2 0x49B1 JUMP JUMPDEST JUMPDEST PUSH1 0x40 MLOAD SWAP1 DUP1 DUP3 MSTORE DUP1 PUSH1 0x20 MUL PUSH1 0x20 ADD DUP3 ADD PUSH1 0x40 MSTORE DUP1 ISZERO PUSH2 0x368A JUMPI DUP2 PUSH1 0x20 ADD PUSH1 0x20 DUP3 MUL DUP1 CALLDATASIZE DUP4 CALLDATACOPY DUP1 DUP3 ADD SWAP2 POP POP SWAP1 POP JUMPDEST POP SWAP1 POP PUSH0 PUSH0 SWAP1 POP JUMPDEST PUSH1 0x7 DUP1 SLOAD SWAP1 POP DUP2 LT ISZERO PUSH2 0x37CF JUMPI PUSH1 0x7 DUP2 DUP2 SLOAD DUP2 LT PUSH2 0x36B3 JUMPI PUSH2 0x36B2 PUSH2 0x4CB1 JUMP JUMPDEST JUMPDEST SWAP1 PUSH0 MSTORE PUSH1 0x20 PUSH0 KECCAK256 ADD PUSH0 ADD PUSH1 0x16 SWAP1 SLOAD SWAP1 PUSH2 0x100 EXP SWAP1 DIV PUSH1 0xFF AND ISZERO PUSH2 0x37C2 JUMPI PUSH1 0x7 DUP2 DUP2 SLOAD DUP2 LT PUSH2 0x36E4 JUMPI PUSH2 0x36E3 PUSH2 0x4CB1 JUMP JUMPDEST JUMPDEST SWAP1 PUSH0 MSTORE PUSH1 0x20 PUSH0 KECCAK256 ADD PUSH0 ADD PUSH0 SWAP1 SLOAD SWAP1 PUSH2 0x100 EXP SWAP1 DIV PUSH20 0xFFFFFFFFFFFFFFFFFFFFFFFFFFFFFFFFFFFFFFFF AND PUSH20 0xFFFFFFFFFFFFFFFFFFFFFFFFFFFFFFFFFFFFFFFF AND PUSH4 0x1E1D114 PUSH1 0x40 MLOAD DUP2 PUSH4 0xFFFFFFFF AND PUSH1 0xE0 SHL DUP2 MSTORE PUSH1 0x4 ADD PUSH1 0x20 PUSH1 0x40 MLOAD DUP1 DUP4 SUB DUP2 DUP7 GAS STATICCALL ISZERO DUP1 ISZERO PUSH2 0x3756 JUMPI RETURNDATASIZE PUSH0 PUSH0 RETURNDATACOPY RETURNDATASIZE PUSH0 REVERT JUMPDEST POP POP POP POP PUSH1 0x40 MLOAD RETURNDATASIZE PUSH1 0x1F NOT PUSH1 0x1F DUP3 ADD AND DUP3 ADD DUP1 PUSH1 0x40 MSTORE POP DUP2 ADD SWAP1 PUSH2 0x377A SWAP2 SWAP1 PUSH2 0x4C86 JUMP JUMPDEST DUP3 DUP3 DUP2 MLOAD DUP2 LT PUSH2 0x378D JUMPI PUSH2 0x378C PUSH2 0x4CB1 JUMP JUMPDEST JUMPDEST PUSH1 0x20 MUL PUSH1 0x20 ADD ADD DUP2 DUP2 MSTORE POP POP DUP2 DUP2 DUP2 MLOAD DUP2 LT PUSH2 0x37AC JUMPI PUSH2 0x37AB PUSH2 0x4CB1 JUMP JUMPDEST JUMPDEST PUSH1 0x20 MUL PUSH1 0x20 ADD ADD MLOAD DUP4 PUSH2 0x37BF SWAP2 SWAP1 PUSH2 0x4D0B JUMP JUMPDEST SWAP3 POP JUMPDEST DUP1 DUP1 PUSH1 0x1 ADD SWAP2 POP POP PUSH2 0x3692 JUMP JUMPDEST POP PUSH0 PUSH0 SWAP1 POP PUSH0 PUSH0 SWAP1 POP JUMPDEST PUSH1 0x7 DUP1 SLOAD SWAP1 POP DUP2 LT ISZERO PUSH2 0x398F JUMPI PUSH1 0x7 DUP2 DUP2 SLOAD DUP2 LT PUSH2 0x37FA JUMPI PUSH2 0x37F9 PUSH2 0x4CB1 JUMP JUMPDEST JUMPDEST SWAP1 PUSH0 MSTORE PUSH1 0x20 PUSH0 KECCAK256 ADD PUSH0 ADD PUSH1 0x16 SWAP1 SLOAD SWAP1 PUSH2 0x100 EXP SWAP1 DIV PUSH1 0xFF AND DUP1 ISZERO PUSH2 0x3837 JUMPI POP PUSH0 DUP4 DUP3 DUP2 MLOAD DUP2 LT PUSH2 0x382D JUMPI PUSH2 0x382C PUSH2 0x4CB1 JUMP JUMPDEST JUMPDEST PUSH1 0x20 MUL PUSH1 0x20 ADD ADD MLOAD GT JUMPDEST ISZERO PUSH2 0x3982 JUMPI PUSH0 DUP5 DUP5 DUP4 DUP2 MLOAD DUP2 LT PUSH2 0x3851 JUMPI PUSH2 0x3850 PUSH2 0x4CB1 JUMP JUMPDEST JUMPDEST PUSH1 0x20 MUL PUSH1 0x20 ADD ADD MLOAD DUP8 PUSH2 0x3864 SWAP2 SWAP1 PUSH2 0x4E02 JUMP JUMPDEST PUSH2 0x386E SWAP2 SWAP1 PUSH2 0x4E70 JUMP JUMPDEST SWAP1 POP DUP4 DUP3 DUP2 MLOAD DUP2 LT PUSH2 0x3883 JUMPI PUSH2 0x3882 PUSH2 0x4CB1 JUMP JUMPDEST JUMPDEST PUSH1 0x20 MUL PUSH1 0x20 ADD ADD MLOAD DUP2 GT ISZERO PUSH2 0x38B0 JUMPI DUP4 DUP3 DUP2 MLOAD DUP2 LT PUSH2 0x38A5 JUMPI PUSH2 0x38A4 PUSH2 0x4CB1 JUMP JUMPDEST JUMPDEST PUSH1 0x20 MUL PUSH1 0x20 ADD ADD MLOAD SWAP1 POP JUMPDEST PUSH0 DUP2 GT ISZERO PUSH2 0x3980 JUMPI PUSH1 0x7 DUP3 DUP2 SLOAD DUP2 LT PUSH2 0x38CC JUMPI PUSH2 0x38CB PUSH2 0x4CB1 JUMP JUMPDEST JUMPDEST SWAP1 PUSH0 MSTORE PUSH1 0x20 PUSH0 KECCAK256 ADD PUSH0 ADD PUSH0 SWAP1 SLOAD SWAP1 PUSH2 0x100 EXP SWAP1 DIV PUSH20 0xFFFFFFFFFFFFFFFFFFFFFFFFFFFFFFFFFFFFFFFF AND PUSH20 0xFFFFFFFFFFFFFFFFFFFFFFFFFFFFFFFFFFFFFFFF AND PUSH4 0xB460AF94 DUP3 ADDRESS ADDRESS PUSH1 0x40 MLOAD DUP5 PUSH4 0xFFFFFFFF AND PUSH1 0xE0 SHL DUP2 MSTORE PUSH1 0x4 ADD PUSH2 0x3932 SWAP4 SWAP3 SWAP2 SWAP1 PUSH2 0x539E JUMP JUMPDEST PUSH1 0x20 PUSH1 0x40 MLOAD DUP1 DUP4 SUB DUP2 PUSH0 DUP8 GAS CALL ISZERO DUP1 ISZERO PUSH2 0x394E JUMPI RETURNDATASIZE PUSH0 PUSH0 RETURNDATACOPY RETURNDATASIZE PUSH0 REVERT JUMPDEST POP POP POP POP PUSH1 0x40 MLOAD RETURNDATASIZE PUSH1 0x1F NOT PUSH1 0x1F DUP3 ADD AND DUP3 ADD DUP1 PUSH1 0x40 MSTORE POP DUP2 ADD SWAP1 PUSH2 0x3972 SWAP2 SWAP1 PUSH2 0x4C86 JUMP JUMPDEST DUP4 PUSH2 0x397D SWAP2 SWAP1 PUSH2 0x4D0B JUMP JUMPDEST SWAP3 POP JUMPDEST POP JUMPDEST DUP1 DUP1 PUSH1 0x1 ADD SWAP2 POP POP PUSH2 0x37D9 JUMP JUMPDEST POP DUP4 DUP2 LT ISZERO PUSH2 0x3A1C JUMPI PUSH0 PUSH2 0x39A1 PUSH2 0xCB1 JUMP JUMPDEST PUSH20 0xFFFFFFFFFFFFFFFFFFFFFFFFFFFFFFFFFFFFFFFF AND PUSH4 0x70A08231 ADDRESS PUSH1 0x40 MLOAD DUP3 PUSH4 0xFFFFFFFF AND PUSH1 0xE0 SHL DUP2 MSTORE PUSH1 0x4 ADD PUSH2 0x39D9 SWAP2 SWAP1 PUSH2 0x4530 JUMP JUMPDEST PUSH1 0x20 PUSH1 0x40 MLOAD DUP1 DUP4 SUB DUP2 DUP7 GAS STATICCALL ISZERO DUP1 ISZERO PUSH2 0x39F4 JUMPI RETURNDATASIZE PUSH0 PUSH0 RETURNDATACOPY RETURNDATASIZE PUSH0 REVERT JUMPDEST POP POP POP POP PUSH1 0x40 MLOAD RETURNDATASIZE PUSH1 0x1F NOT PUSH1 0x1F DUP3 ADD AND DUP3 ADD DUP1 PUSH1 0x40 MSTORE POP DUP2 ADD SWAP1 PUSH2 0x3A18 SWAP2 SWAP1 PUSH2 0x4C86 JUMP JUMPDEST SWAP1 POP POP JUMPDEST POP POP POP JUMPDEST POP JUMP JUMPDEST PUSH0 PUSH20 0xFFFFFFFFFFFFFFFFFFFFFFFFFFFFFFFFFFFFFFFF AND DUP3 PUSH20 0xFFFFFFFFFFFFFFFFFFFFFFFFFFFFFFFFFFFFFFFF AND SUB PUSH2 0x3A93 JUMPI PUSH0 PUSH1 0x40 MLOAD PUSH32 0x96C6FD1E00000000000000000000000000000000000000000000000000000000 DUP2 MSTORE PUSH1 0x4 ADD PUSH2 0x3A8A SWAP2 SWAP1 PUSH2 0x4530 JUMP JUMPDEST PUSH1 0x40 MLOAD DUP1 SWAP2 SUB SWAP1 REVERT JUMPDEST PUSH2 0x3A9E DUP3 PUSH0 DUP4 PUSH2 0x3CBE JUMP JUMPDEST POP POP JUMP JUMPDEST PUSH0 PUSH2 0x3AD0 PUSH2 0x3AAF DUP4 PUSH2 0x40CF JUMP JUMPDEST DUP1 ISZERO PUSH2 0x3ACB JUMPI POP PUSH0 DUP5 DUP1 PUSH2 0x3AC6 JUMPI PUSH2 0x3AC5 PUSH2 0x4E43 JUMP JUMPDEST JUMPDEST DUP7 DUP9 MULMOD GT JUMPDEST PUSH2 0x40FC JUMP JUMPDEST PUSH2 0x3ADB DUP7 DUP7 DUP7 PUSH2 0x4107 JUMP JUMPDEST PUSH2 0x3AE5 SWAP2 SWAP1 PUSH2 0x4D0B JUMP JUMPDEST SWAP1 POP SWAP5 SWAP4 POP POP POP POP JUMP JUMPDEST PUSH0 PUSH20 0xFFFFFFFFFFFFFFFFFFFFFFFFFFFFFFFFFFFFFFFF AND DUP5 PUSH20 0xFFFFFFFFFFFFFFFFFFFFFFFFFFFFFFFFFFFFFFFF AND SUB PUSH2 0x3B5F JUMPI PUSH0 PUSH1 0x40 MLOAD PUSH32 0xE602DF0500000000000000000000000000000000000000000000000000000000 DUP2 MSTORE PUSH1 0x4 ADD PUSH2 0x3B56 SWAP2 SWAP1 PUSH2 0x4530 JUMP JUMPDEST PUSH1 0x40 MLOAD DUP1 SWAP2 SUB SWAP1 REVERT JUMPDEST PUSH0 PUSH20 0xFFFFFFFFFFFFFFFFFFFFFFFFFFFFFFFFFFFFFFFF AND DUP4 PUSH20 0xFFFFFFFFFFFFFFFFFFFFFFFFFFFFFFFFFFFFFFFF AND SUB PUSH2 0x3BCF JUMPI PUSH0 PUSH1 0x40 MLOAD PUSH32 0x94280D6200000000000000000000000000000000000000000000000000000000 DUP2 MSTORE PUSH1 0x4 ADD PUSH2 0x3BC6 SWAP2 SWAP1 PUSH2 0x4530 JUMP JUMPDEST PUSH1 0x40 MLOAD DUP1 SWAP2 SUB SWAP1 REVERT JUMPDEST DUP2 PUSH1 0x1 PUSH0 DUP7 PUSH20 0xFFFFFFFFFFFFFFFFFFFFFFFFFFFFFFFFFFFFFFFF AND PUSH20 0xFFFFFFFFFFFFFFFFFFFFFFFFFFFFFFFFFFFFFFFF AND DUP2 MSTORE PUSH1 0x20 ADD SWAP1 DUP2 MSTORE PUSH1 0x20 ADD PUSH0 KECCAK256 PUSH0 DUP6 PUSH20 0xFFFFFFFFFFFFFFFFFFFFFFFFFFFFFFFFFFFFFFFF AND PUSH20 0xFFFFFFFFFFFFFFFFFFFFFFFFFFFFFFFFFFFFFFFF AND DUP2 MSTORE PUSH1 0x20 ADD SWAP1 DUP2 MSTORE PUSH1 0x20 ADD PUSH0 KECCAK256 DUP2 SWAP1 SSTORE POP DUP1 ISZERO PUSH2 0x3CB8 JUMPI DUP3 PUSH20 0xFFFFFFFFFFFFFFFFFFFFFFFFFFFFFFFFFFFFFFFF AND DUP5 PUSH20 0xFFFFFFFFFFFFFFFFFFFFFFFFFFFFFFFFFFFFFFFF AND PUSH32 0x8C5BE1E5EBEC7D5BD14F71427D1E84F3DD0314C0F7B2291E5B200AC8C7C3B925 DUP5 PUSH1 0x40 MLOAD PUSH2 0x3CAF SWAP2 SWAP1 PUSH2 0x42C3 JUMP JUMPDEST PUSH1 0x40 MLOAD DUP1 SWAP2 SUB SWAP1 LOG3 JUMPDEST POP POP POP POP JUMP JUMPDEST PUSH0 PUSH20 0xFFFFFFFFFFFFFFFFFFFFFFFFFFFFFFFFFFFFFFFF AND DUP4 PUSH20 0xFFFFFFFFFFFFFFFFFFFFFFFFFFFFFFFFFFFFFFFF AND SUB PUSH2 0x3D0E JUMPI DUP1 PUSH1 0x2 PUSH0 DUP3 DUP3 SLOAD PUSH2 0x3D02 SWAP2 SWAP1 PUSH2 0x4D0B JUMP JUMPDEST SWAP3 POP POP DUP2 SWAP1 SSTORE POP PUSH2 0x3DDC JUMP JUMPDEST PUSH0 PUSH0 PUSH0 DUP6 PUSH20 0xFFFFFFFFFFFFFFFFFFFFFFFFFFFFFFFFFFFFFFFF AND PUSH20 0xFFFFFFFFFFFFFFFFFFFFFFFFFFFFFFFFFFFFFFFF AND DUP2 MSTORE PUSH1 0x20 ADD SWAP1 DUP2 MSTORE PUSH1 0x20 ADD PUSH0 KECCAK256 SLOAD SWAP1 POP DUP2 DUP2 LT ISZERO PUSH2 0x3D97 JUMPI DUP4 DUP2 DUP4 PUSH1 0x40 MLOAD PUSH32 0xE450D38C00000000000000000000000000000000000000000000000000000000 DUP2 MSTORE PUSH1 0x4 ADD PUSH2 0x3D8E SWAP4 SWAP3 SWAP2 SWAP1 PUSH2 0x4FF2 JUMP JUMPDEST PUSH1 0x40 MLOAD DUP1 SWAP2 SUB SWAP1 REVERT JUMPDEST DUP2 DUP2 SUB PUSH0 PUSH0 DUP7 PUSH20 0xFFFFFFFFFFFFFFFFFFFFFFFFFFFFFFFFFFFFFFFF AND PUSH20 0xFFFFFFFFFFFFFFFFFFFFFFFFFFFFFFFFFFFFFFFF AND DUP2 MSTORE PUSH1 0x20 ADD SWAP1 DUP2 MSTORE PUSH1 0x20 ADD PUSH0 KECCAK256 DUP2 SWAP1 SSTORE POP POP JUMPDEST PUSH0 PUSH20 0xFFFFFFFFFFFFFFFFFFFFFFFFFFFFFFFFFFFFFFFF AND DUP3 PUSH20 0xFFFFFFFFFFFFFFFFFFFFFFFFFFFFFFFFFFFFFFFF AND SUB PUSH2 0x3E23 JUMPI DUP1 PUSH1 0x2 PUSH0 DUP3 DUP3 SLOAD SUB SWAP3 POP POP DUP2 SWAP1 SSTORE POP PUSH2 0x3E6D JUMP JUMPDEST DUP1 PUSH0 PUSH0 DUP5 PUSH20 0xFFFFFFFFFFFFFFFFFFFFFFFFFFFFFFFFFFFFFFFF AND PUSH20 0xFFFFFFFFFFFFFFFFFFFFFFFFFFFFFFFFFFFFFFFF AND DUP2 MSTORE PUSH1 0x20 ADD SWAP1 DUP2 MSTORE PUSH1 0x20 ADD PUSH0 KECCAK256 PUSH0 DUP3 DUP3 SLOAD ADD SWAP3 POP POP DUP2 SWAP1 SSTORE POP JUMPDEST DUP2 PUSH20 0xFFFFFFFFFFFFFFFFFFFFFFFFFFFFFFFFFFFFFFFF AND DUP4 PUSH20 0xFFFFFFFFFFFFFFFFFFFFFFFFFFFFFFFFFFFFFFFF AND PUSH32 0xDDF252AD1BE2C89B69C2B068FC378DAA952BA7F163C4A11628F55A4DF523B3EF DUP4 PUSH1 0x40 MLOAD PUSH2 0x3ECA SWAP2 SWAP1 PUSH2 0x42C3 JUMP JUMPDEST PUSH1 0x40 MLOAD DUP1 SWAP2 SUB SWAP1 LOG3 POP POP POP JUMP JUMPDEST PUSH2 0x3EDF PUSH2 0x41E6 JUMP JUMPDEST ISZERO PUSH2 0x3F16 JUMPI PUSH1 0x40 MLOAD PUSH32 0x3EE5AEB500000000000000000000000000000000000000000000000000000000 DUP2 MSTORE PUSH1 0x4 ADD PUSH1 0x40 MLOAD DUP1 SWAP2 SUB SWAP1 REVERT JUMPDEST JUMP JUMPDEST PUSH0 PUSH32 0x9B779B17422D0DF92223018B32B4D1FA46E071723D6817E2486D003BECC55F00 PUSH0 SHL SWAP1 POP SWAP1 JUMP JUMPDEST PUSH0 DUP2 SWAP1 POP SWAP2 SWAP1 POP JUMP JUMPDEST PUSH0 PUSH0 PUSH4 0xA9059CBB PUSH1 0xE0 SHL SWAP1 POP PUSH1 0x40 MLOAD DUP2 PUSH0 MSTORE PUSH0 NOT PUSH1 0x60 SHR DUP7 AND PUSH1 0x4 MSTORE DUP5 PUSH1 0x24 MSTORE PUSH1 0x20 PUSH0 PUSH1 0x44 PUSH0 PUSH0 DUP12 GAS CALL SWAP3 POP PUSH1 0x1 PUSH0 MLOAD EQ DUP4 AND PUSH2 0x3F9E JUMPI DUP4 DUP4 ISZERO AND ISZERO PUSH2 0x3F92 JUMPI RETURNDATASIZE PUSH0 DUP3 RETURNDATACOPY RETURNDATASIZE DUP2 REVERT JUMPDEST PUSH0 DUP8 EXTCODESIZE GT RETURNDATASIZE ISZERO AND DUP4 AND SWAP3 POP JUMPDEST DUP1 PUSH1 0x40 MSTORE POP POP SWAP5 SWAP4 POP POP POP POP JUMP JUMPDEST PUSH0 PUSH0 PUSH4 0x23B872DD PUSH1 0xE0 SHL SWAP1 POP PUSH1 0x40 MLOAD DUP2 PUSH0 MSTORE PUSH0 NOT PUSH1 0x60 SHR DUP8 AND PUSH1 0x4 MSTORE PUSH0 NOT PUSH1 0x60 SHR DUP7 AND PUSH1 0x24 MSTORE DUP5 PUSH1 0x44 MSTORE PUSH1 0x20 PUSH0 PUSH1 0x64 PUSH0 PUSH0 DUP13 GAS CALL SWAP3 POP PUSH1 0x1 PUSH0 MLOAD EQ DUP4 AND PUSH2 0x400A JUMPI DUP4 DUP4 ISZERO AND ISZERO PUSH2 0x3FFE JUMPI RETURNDATASIZE PUSH0 DUP3 RETURNDATACOPY RETURNDATASIZE DUP2 REVERT JUMPDEST PUSH0 DUP9 EXTCODESIZE GT RETURNDATASIZE ISZERO AND DUP4 AND SWAP3 POP JUMPDEST DUP1 PUSH1 0x40 MSTORE PUSH0 PUSH1 0x60 MSTORE POP POP SWAP6 SWAP5 POP POP POP POP POP JUMP JUMPDEST PUSH2 0x4029 DUP4 DUP4 DUP4 PUSH0 PUSH2 0x4202 JUMP JUMPDEST PUSH2 0x40CA JUMPI PUSH2 0x403A DUP4 DUP4 PUSH0 PUSH1 0x1 PUSH2 0x4202 JUMP JUMPDEST PUSH2 0x407B JUMPI DUP3 PUSH1 0x40 MLOAD PUSH32 0x5274AFE700000000000000000000000000000000000000000000000000000000 DUP2 MSTORE PUSH1 0x4 ADD PUSH2 0x4072 SWAP2 SWAP1 PUSH2 0x4530 JUMP JUMPDEST PUSH1 0x40 MLOAD DUP1 SWAP2 SUB SWAP1 REVERT JUMPDEST PUSH2 0x4088 DUP4 DUP4 DUP4 PUSH1 0x1 PUSH2 0x4202 JUMP JUMPDEST PUSH2 0x40C9 JUMPI DUP3 PUSH1 0x40 MLOAD PUSH32 0x5274AFE700000000000000000000000000000000000000000000000000000000 DUP2 MSTORE PUSH1 0x4 ADD PUSH2 0x40C0 SWAP2 SWAP1 PUSH2 0x4530 JUMP JUMPDEST PUSH1 0x40 MLOAD DUP1 SWAP2 SUB SWAP1 REVERT JUMPDEST JUMPDEST POP POP POP JUMP JUMPDEST PUSH0 PUSH1 0x1 PUSH1 0x2 DUP4 PUSH1 0x3 DUP2 GT ISZERO PUSH2 0x40E7 JUMPI PUSH2 0x40E6 PUSH2 0x53D3 JUMP JUMPDEST JUMPDEST PUSH2 0x40F1 SWAP2 SWAP1 PUSH2 0x5400 JUMP JUMPDEST PUSH1 0xFF AND EQ SWAP1 POP SWAP2 SWAP1 POP JUMP JUMPDEST PUSH0 DUP2 ISZERO ISZERO SWAP1 POP SWAP2 SWAP1 POP JUMP JUMPDEST PUSH0 PUSH0 PUSH0 PUSH2 0x4114 DUP7 DUP7 PUSH2 0x4264 JUMP JUMPDEST SWAP2 POP SWAP2 POP PUSH0 DUP3 SUB PUSH2 0x4139 JUMPI DUP4 DUP2 DUP2 PUSH2 0x412F JUMPI PUSH2 0x412E PUSH2 0x4E43 JUMP JUMPDEST JUMPDEST DIV SWAP3 POP POP POP PUSH2 0x41DF JUMP JUMPDEST DUP2 DUP5 GT PUSH2 0x4158 JUMPI PUSH2 0x4157 PUSH2 0x4152 PUSH0 DUP7 EQ PUSH1 0x12 PUSH1 0x11 PUSH2 0x4281 JUMP JUMPDEST PUSH2 0x429A JUMP JUMPDEST JUMPDEST PUSH0 DUP5 DUP7 DUP9 MULMOD SWAP1 POP DUP2 DUP2 GT DUP4 SUB SWAP3 POP DUP1 DUP3 SUB SWAP2 POP PUSH0 DUP6 PUSH0 SUB DUP7 AND SWAP1 POP DUP1 DUP7 DIV SWAP6 POP DUP1 DUP4 DIV SWAP3 POP PUSH1 0x1 DUP2 DUP3 PUSH0 SUB DIV ADD SWAP1 POP DUP1 DUP5 MUL DUP4 OR SWAP3 POP PUSH0 PUSH1 0x2 DUP8 PUSH1 0x3 MUL XOR SWAP1 POP DUP1 DUP8 MUL PUSH1 0x2 SUB DUP2 MUL SWAP1 POP DUP1 DUP8 MUL PUSH1 0x2 SUB DUP2 MUL SWAP1 POP DUP1 DUP8 MUL PUSH1 0x2 SUB DUP2 MUL SWAP1 POP DUP1 DUP8 MUL PUSH1 0x2 SUB DUP2 MUL SWAP1 POP DUP1 DUP8 MUL PUSH1 0x2 SUB DUP2 MUL SWAP1 POP DUP1 DUP8 MUL PUSH1 0x2 SUB DUP2 MUL SWAP1 POP DUP1 DUP5 MUL SWAP6 POP POP POP POP POP POP JUMPDEST SWAP4 SWAP3 POP POP POP JUMP JUMPDEST PUSH0 PUSH1 0x2 PUSH2 0x41F9 PUSH2 0x41F4 PUSH2 0x3F18 JUMP JUMPDEST PUSH2 0x3F41 JUMP JUMPDEST PUSH0 ADD SLOAD EQ SWAP1 POP SWAP1 JUMP JUMPDEST PUSH0 PUSH0 PUSH4 0x95EA7B3 PUSH1 0xE0 SHL SWAP1 POP PUSH1 0x40 MLOAD DUP2 PUSH0 MSTORE PUSH0 NOT PUSH1 0x60 SHR DUP7 AND PUSH1 0x4 MSTORE DUP5 PUSH1 0x24 MSTORE PUSH1 0x20 PUSH0 PUSH1 0x44 PUSH0 PUSH0 DUP12 GAS CALL SWAP3 POP PUSH1 0x1 PUSH0 MLOAD EQ DUP4 AND PUSH2 0x4256 JUMPI DUP4 DUP4 ISZERO AND ISZERO PUSH2 0x424A JUMPI RETURNDATASIZE PUSH0 DUP3 RETURNDATACOPY RETURNDATASIZE DUP2 REVERT JUMPDEST PUSH0 DUP8 EXTCODESIZE GT RETURNDATASIZE ISZERO AND DUP4 AND SWAP3 POP JUMPDEST DUP1 PUSH1 0x40 MSTORE POP POP SWAP5 SWAP4 POP POP POP POP JUMP JUMPDEST PUSH0 PUSH0 PUSH0 NOT DUP4 DUP6 MULMOD DUP4 DUP6 MUL SWAP2 POP DUP2 DUP2 LT DUP3 DUP3 SUB SUB SWAP3 POP POP SWAP3 POP SWAP3 SWAP1 POP JUMP JUMPDEST PUSH0 PUSH2 0x428B DUP5 PUSH2 0x40FC JUMP JUMPDEST DUP3 DUP5 XOR MUL DUP3 XOR SWAP1 POP SWAP4 SWAP3 POP POP POP JUMP JUMPDEST PUSH4 0x4E487B71 PUSH0 MSTORE DUP1 PUSH1 0x20 MSTORE PUSH1 0x24 PUSH1 0x1C REVERT JUMPDEST PUSH0 DUP2 SWAP1 POP SWAP2 SWAP1 POP JUMP JUMPDEST PUSH2 0x42BD DUP2 PUSH2 0x42AB JUMP JUMPDEST DUP3 MSTORE POP POP JUMP JUMPDEST PUSH0 PUSH1 0x20 DUP3 ADD SWAP1 POP PUSH2 0x42D6 PUSH0 DUP4 ADD DUP5 PUSH2 0x42B4 JUMP JUMPDEST SWAP3 SWAP2 POP POP JUMP JUMPDEST PUSH0 DUP2 MLOAD SWAP1 POP SWAP2 SWAP1 POP JUMP JUMPDEST PUSH0 DUP3 DUP3 MSTORE PUSH1 0x20 DUP3 ADD SWAP1 POP SWAP3 SWAP2 POP POP JUMP JUMPDEST DUP3 DUP2 DUP4 MCOPY PUSH0 DUP4 DUP4 ADD MSTORE POP POP POP JUMP JUMPDEST PUSH0 PUSH1 0x1F NOT PUSH1 0x1F DUP4 ADD AND SWAP1 POP SWAP2 SWAP1 POP JUMP JUMPDEST PUSH0 PUSH2 0x431E DUP3 PUSH2 0x42DC JUMP JUMPDEST PUSH2 0x4328 DUP2 DUP6 PUSH2 0x42E6 JUMP JUMPDEST SWAP4 POP PUSH2 0x4338 DUP2 DUP6 PUSH1 0x20 DUP7 ADD PUSH2 0x42F6 JUMP JUMPDEST PUSH2 0x4341 DUP2 PUSH2 0x4304 JUMP JUMPDEST DUP5 ADD SWAP2 POP POP SWAP3 SWAP2 POP POP JUMP JUMPDEST PUSH0 PUSH1 0x20 DUP3 ADD SWAP1 POP DUP2 DUP2 SUB PUSH0 DUP4 ADD MSTORE PUSH2 0x4364 DUP2 DUP5 PUSH2 0x4314 JUMP JUMPDEST SWAP1 POP SWAP3 SWAP2 POP POP JUMP JUMPDEST PUSH0 PUSH1 0x40 MLOAD SWAP1 POP SWAP1 JUMP JUMPDEST PUSH0 PUSH0 REVERT JUMPDEST PUSH0 PUSH0 REVERT JUMPDEST PUSH2 0x4386 DUP2 PUSH2 0x42AB JUMP JUMPDEST DUP2 EQ PUSH2 0x4390 JUMPI PUSH0 PUSH0 REVERT JUMPDEST POP JUMP JUMPDEST PUSH0 DUP2 CALLDATALOAD SWAP1 POP PUSH2 0x43A1 DUP2 PUSH2 0x437D JUMP JUMPDEST SWAP3 SWAP2 POP POP JUMP JUMPDEST PUSH0 PUSH1 0x20 DUP3 DUP5 SUB SLT ISZERO PUSH2 0x43BC JUMPI PUSH2 0x43BB PUSH2 0x4375 JUMP JUMPDEST JUMPDEST PUSH0 PUSH2 0x43C9 DUP5 DUP3 DUP6 ADD PUSH2 0x4393 JUMP JUMPDEST SWAP2 POP POP SWAP3 SWAP2 POP POP JUMP JUMPDEST PUSH0 PUSH20 0xFFFFFFFFFFFFFFFFFFFFFFFFFFFFFFFFFFFFFFFF DUP3 AND SWAP1 POP SWAP2 SWAP1 POP JUMP JUMPDEST PUSH0 PUSH2 0x43FB DUP3 PUSH2 0x43D2 JUMP JUMPDEST SWAP1 POP SWAP2 SWAP1 POP JUMP JUMPDEST PUSH2 0x440B DUP2 PUSH2 0x43F1 JUMP JUMPDEST DUP2 EQ PUSH2 0x4415 JUMPI PUSH0 PUSH0 REVERT JUMPDEST POP JUMP JUMPDEST PUSH0 DUP2 CALLDATALOAD SWAP1 POP PUSH2 0x4426 DUP2 PUSH2 0x4402 JUMP JUMPDEST SWAP3 SWAP2 POP POP JUMP JUMPDEST PUSH0 PUSH0 PUSH1 0x40 DUP4 DUP6 SUB SLT ISZERO PUSH2 0x4442 JUMPI PUSH2 0x4441 PUSH2 0x4375 JUMP JUMPDEST JUMPDEST PUSH0 PUSH2 0x444F DUP6 DUP3 DUP7 ADD PUSH2 0x4418 JUMP JUMPDEST SWAP3 POP POP PUSH1 0x20 PUSH2 0x4460 DUP6 DUP3 DUP7 ADD PUSH2 0x4393 JUMP JUMPDEST SWAP2 POP POP SWAP3 POP SWAP3 SWAP1 POP JUMP JUMPDEST PUSH0 DUP2 ISZERO ISZERO SWAP1 POP SWAP2 SWAP1 POP JUMP JUMPDEST PUSH2 0x447E DUP2 PUSH2 0x446A JUMP JUMPDEST DUP3 MSTORE POP POP JUMP JUMPDEST PUSH0 PUSH1 0x20 DUP3 ADD SWAP1 POP PUSH2 0x4497 PUSH0 DUP4 ADD DUP5 PUSH2 0x4475 JUMP JUMPDEST SWAP3 SWAP2 POP POP JUMP JUMPDEST PUSH0 PUSH0 PUSH0 PUSH1 0x60 DUP5 DUP7 SUB SLT ISZERO PUSH2 0x44B4 JUMPI PUSH2 0x44B3 PUSH2 0x4375 JUMP JUMPDEST JUMPDEST PUSH0 PUSH2 0x44C1 DUP7 DUP3 DUP8 ADD PUSH2 0x4418 JUMP JUMPDEST SWAP4 POP POP PUSH1 0x20 PUSH2 0x44D2 DUP7 DUP3 DUP8 ADD PUSH2 0x4418 JUMP JUMPDEST SWAP3 POP POP PUSH1 0x40 PUSH2 0x44E3 DUP7 DUP3 DUP8 ADD PUSH2 0x4393 JUMP JUMPDEST SWAP2 POP POP SWAP3 POP SWAP3 POP SWAP3 JUMP JUMPDEST PUSH0 PUSH1 0xFF DUP3 AND SWAP1 POP SWAP2 SWAP1 POP JUMP JUMPDEST PUSH2 0x4502 DUP2 PUSH2 0x44ED JUMP JUMPDEST DUP3 MSTORE POP POP JUMP JUMPDEST PUSH0 PUSH1 0x20 DUP3 ADD SWAP1 POP PUSH2 0x451B PUSH0 DUP4 ADD DUP5 PUSH2 0x44F9 JUMP JUMPDEST SWAP3 SWAP2 POP POP JUMP JUMPDEST PUSH2 0x452A DUP2 PUSH2 0x43F1 JUMP JUMPDEST DUP3 MSTORE POP POP JUMP JUMPDEST PUSH0 PUSH1 0x20 DUP3 ADD SWAP1 POP PUSH2 0x4543 PUSH0 DUP4 ADD DUP5 PUSH2 0x4521 JUMP JUMPDEST SWAP3 SWAP2 POP POP JUMP JUMPDEST PUSH0 PUSH1 0x20 DUP3 DUP5 SUB SLT ISZERO PUSH2 0x455E JUMPI PUSH2 0x455D PUSH2 0x4375 JUMP JUMPDEST JUMPDEST PUSH0 PUSH2 0x456B DUP5 DUP3 DUP6 ADD PUSH2 0x4418 JUMP JUMPDEST SWAP2 POP POP SWAP3 SWAP2 POP POP JUMP JUMPDEST PUSH2 0x457D DUP2 PUSH2 0x446A JUMP JUMPDEST DUP2 EQ PUSH2 0x4587 JUMPI PUSH0 PUSH0 REVERT JUMPDEST POP JUMP JUMPDEST PUSH0 DUP2 CALLDATALOAD SWAP1 POP PUSH2 0x4598 DUP2 PUSH2 0x4574 JUMP JUMPDEST SWAP3 SWAP2 POP POP JUMP JUMPDEST PUSH0 PUSH0 PUSH0 PUSH1 0x60 DUP5 DUP7 SUB SLT ISZERO PUSH2 0x45B5 JUMPI PUSH2 0x45B4 PUSH2 0x4375 JUMP JUMPDEST JUMPDEST PUSH0 PUSH2 0x45C2 DUP7 DUP3 DUP8 ADD PUSH2 0x4418 JUMP JUMPDEST SWAP4 POP POP PUSH1 0x20 PUSH2 0x45D3 DUP7 DUP3 DUP8 ADD PUSH2 0x4393 JUMP JUMPDEST SWAP3 POP POP PUSH1 0x40 PUSH2 0x45E4 DUP7 DUP3 DUP8 ADD PUSH2 0x458A JUMP JUMPDEST SWAP2 POP POP SWAP3 POP SWAP3 POP SWAP3 JUMP JUMPDEST PUSH0 PUSH0 PUSH1 0x40 DUP4 DUP6 SUB SLT ISZERO PUSH2 0x4604 JUMPI PUSH2 0x4603 PUSH2 0x4375 JUMP JUMPDEST JUMPDEST PUSH0 PUSH2 0x4611 DUP6 DUP3 DUP7 ADD PUSH2 0x4418 JUMP JUMPDEST SWAP3 POP POP PUSH1 0x20 PUSH2 0x4622 DUP6 DUP3 DUP7 ADD PUSH2 0x458A JUMP JUMPDEST SWAP2 POP POP SWAP3 POP SWAP3 SWAP1 POP JUMP JUMPDEST PUSH0 PUSH0 PUSH1 0x40 DUP4 DUP6 SUB SLT ISZERO PUSH2 0x4642 JUMPI PUSH2 0x4641 PUSH2 0x4375 JUMP JUMPDEST JUMPDEST PUSH0 PUSH2 0x464F DUP6 DUP3 DUP7 ADD PUSH2 0x4393 JUMP JUMPDEST SWAP3 POP POP PUSH1 0x20 PUSH2 0x4660 DUP6 DUP3 DUP7 ADD PUSH2 0x4418 JUMP JUMPDEST SWAP2 POP POP SWAP3 POP SWAP3 SWAP1 POP JUMP JUMPDEST PUSH0 PUSH1 0x40 DUP3 ADD SWAP1 POP PUSH2 0x467D PUSH0 DUP4 ADD DUP6 PUSH2 0x4475 JUMP JUMPDEST PUSH2 0x468A PUSH1 0x20 DUP4 ADD DUP5 PUSH2 0x42B4 JUMP JUMPDEST SWAP4 SWAP3 POP POP POP JUMP JUMPDEST PUSH0 PUSH0 PUSH0 PUSH1 0x60 DUP5 DUP7 SUB SLT ISZERO PUSH2 0x46A8 JUMPI PUSH2 0x46A7 PUSH2 0x4375 JUMP JUMPDEST JUMPDEST PUSH0 PUSH2 0x46B5 DUP7 DUP3 DUP8 ADD PUSH2 0x4393 JUMP JUMPDEST SWAP4 POP POP PUSH1 0x20 PUSH2 0x46C6 DUP7 DUP3 DUP8 ADD PUSH2 0x4418 JUMP JUMPDEST SWAP3 POP POP PUSH1 0x40 PUSH2 0x46D7 DUP7 DUP3 DUP8 ADD PUSH2 0x4418 JUMP JUMPDEST SWAP2 POP POP SWAP3 POP SWAP3 POP SWAP3 JUMP JUMPDEST PUSH0 DUP2 MLOAD SWAP1 POP SWAP2 SWAP1 POP JUMP JUMPDEST PUSH0 DUP3 DUP3 MSTORE PUSH1 0x20 DUP3 ADD SWAP1 POP SWAP3 SWAP2 POP POP JUMP JUMPDEST PUSH0 DUP2 SWAP1 POP PUSH1 0x20 DUP3 ADD SWAP1 POP SWAP2 SWAP1 POP JUMP JUMPDEST PUSH2 0x4713 DUP2 PUSH2 0x43F1 JUMP JUMPDEST DUP3 MSTORE POP POP JUMP JUMPDEST PUSH0 PUSH2 0xFFFF DUP3 AND SWAP1 POP SWAP2 SWAP1 POP JUMP JUMPDEST PUSH2 0x472F DUP2 PUSH2 0x4719 JUMP JUMPDEST DUP3 MSTORE POP POP JUMP JUMPDEST PUSH2 0x473E DUP2 PUSH2 0x446A JUMP JUMPDEST DUP3 MSTORE POP POP JUMP JUMPDEST PUSH1 0x60 DUP3 ADD PUSH0 DUP3 ADD MLOAD PUSH2 0x4758 PUSH0 DUP6 ADD DUP3 PUSH2 0x470A JUMP JUMPDEST POP PUSH1 0x20 DUP3 ADD MLOAD PUSH2 0x476B PUSH1 0x20 DUP6 ADD DUP3 PUSH2 0x4726 JUMP JUMPDEST POP PUSH1 0x40 DUP3 ADD MLOAD PUSH2 0x477E PUSH1 0x40 DUP6 ADD DUP3 PUSH2 0x4735 JUMP JUMPDEST POP POP POP POP JUMP JUMPDEST PUSH0 PUSH2 0x478F DUP4 DUP4 PUSH2 0x4744 JUMP JUMPDEST PUSH1 0x60 DUP4 ADD SWAP1 POP SWAP3 SWAP2 POP POP JUMP JUMPDEST PUSH0 PUSH1 0x20 DUP3 ADD SWAP1 POP SWAP2 SWAP1 POP JUMP JUMPDEST PUSH0 PUSH2 0x47B1 DUP3 PUSH2 0x46E1 JUMP JUMPDEST PUSH2 0x47BB DUP2 DUP6 PUSH2 0x46EB JUMP JUMPDEST SWAP4 POP PUSH2 0x47C6 DUP4 PUSH2 0x46FB JUMP JUMPDEST DUP1 PUSH0 JUMPDEST DUP4 DUP2 LT ISZERO PUSH2 0x47F6 JUMPI DUP2 MLOAD PUSH2 0x47DD DUP9 DUP3 PUSH2 0x4784 JUMP JUMPDEST SWAP8 POP PUSH2 0x47E8 DUP4 PUSH2 0x479B JUMP JUMPDEST SWAP3 POP POP PUSH1 0x1 DUP2 ADD SWAP1 POP PUSH2 0x47C9 JUMP JUMPDEST POP DUP6 SWAP4 POP POP POP POP SWAP3 SWAP2 POP POP JUMP JUMPDEST PUSH0 PUSH1 0x20 DUP3 ADD SWAP1 POP DUP2 DUP2 SUB PUSH0 DUP4 ADD MSTORE PUSH2 0x481B DUP2 DUP5 PUSH2 0x47A7 JUMP JUMPDEST SWAP1 POP SWAP3 SWAP2 POP POP JUMP JUMPDEST PUSH2 0x482C DUP2 PUSH2 0x4719 JUMP JUMPDEST DUP3 MSTORE POP POP JUMP JUMPDEST PUSH0 PUSH1 0x80 DUP3 ADD SWAP1 POP PUSH2 0x4845 PUSH0 DUP4 ADD DUP8 PUSH2 0x4521 JUMP JUMPDEST PUSH2 0x4852 PUSH1 0x20 DUP4 ADD DUP7 PUSH2 0x4823 JUMP JUMPDEST PUSH2 0x485F PUSH1 0x40 DUP4 ADD DUP6 PUSH2 0x4475 JUMP JUMPDEST PUSH2 0x486C PUSH1 0x60 DUP4 ADD DUP5 PUSH2 0x42B4 JUMP JUMPDEST SWAP6 SWAP5 POP POP POP POP POP JUMP JUMPDEST PUSH2 0x487E DUP2 PUSH2 0x4719 JUMP JUMPDEST DUP2 EQ PUSH2 0x4888 JUMPI PUSH0 PUSH0 REVERT JUMPDEST POP JUMP JUMPDEST PUSH0 DUP2 CALLDATALOAD SWAP1 POP PUSH2 0x4899 DUP2 PUSH2 0x4875 JUMP JUMPDEST SWAP3 SWAP2 POP POP JUMP JUMPDEST PUSH0 PUSH0 PUSH1 0x40 DUP4 DUP6 SUB SLT ISZERO PUSH2 0x48B5 JUMPI PUSH2 0x48B4 PUSH2 0x4375 JUMP JUMPDEST JUMPDEST PUSH0 PUSH2 0x48C2 DUP6 DUP3 DUP7 ADD PUSH2 0x4418 JUMP JUMPDEST SWAP3 POP POP PUSH1 0x20 PUSH2 0x48D3 DUP6 DUP3 DUP7 ADD PUSH2 0x488B JUMP JUMPDEST SWAP2 POP POP SWAP3 POP SWAP3 SWAP1 POP JUMP JUMPDEST PUSH0 PUSH1 0x60 DUP3 ADD SWAP1 POP PUSH2 0x48F0 PUSH0 DUP4 ADD DUP7 PUSH2 0x4521 JUMP JUMPDEST PUSH2 0x48FD PUSH1 0x20 DUP4 ADD DUP6 PUSH2 0x4823 JUMP JUMPDEST PUSH2 0x490A PUSH1 0x40 DUP4 ADD DUP5 PUSH2 0x4475 JUMP JUMPDEST SWAP5 SWAP4 POP POP POP POP JUMP JUMPDEST PUSH0 PUSH0 PUSH1 0x40 DUP4 DUP6 SUB SLT ISZERO PUSH2 0x4928 JUMPI PUSH2 0x4927 PUSH2 0x4375 JUMP JUMPDEST JUMPDEST PUSH0 PUSH2 0x4935 DUP6 DUP3 DUP7 ADD PUSH2 0x4418 JUMP JUMPDEST SWAP3 POP POP PUSH1 0x20 PUSH2 0x4946 DUP6 DUP3 DUP7 ADD PUSH2 0x4418 JUMP JUMPDEST SWAP2 POP POP SWAP3 POP SWAP3 SWAP1 POP JUMP JUMPDEST PUSH0 PUSH0 REVERT JUMPDEST PUSH0 PUSH0 REVERT JUMPDEST PUSH0 PUSH0 REVERT JUMPDEST PUSH0 PUSH0 DUP4 PUSH1 0x1F DUP5 ADD SLT PUSH2 0x4971 JUMPI PUSH2 0x4970 PUSH2 0x4950 JUMP JUMPDEST JUMPDEST DUP3 CALLDATALOAD SWAP1 POP PUSH8 0xFFFFFFFFFFFFFFFF DUP2 GT ISZERO PUSH2 0x498E JUMPI PUSH2 0x498D PUSH2 0x4954 JUMP JUMPDEST JUMPDEST PUSH1 0x20 DUP4 ADD SWAP2 POP DUP4 PUSH1 0x20 DUP3 MUL DUP4 ADD GT ISZERO PUSH2 0x49AA JUMPI PUSH2 0x49A9 PUSH2 0x4958 JUMP JUMPDEST JUMPDEST SWAP3 POP SWAP3 SWAP1 POP JUMP JUMPDEST PUSH32 0x4E487B7100000000000000000000000000000000000000000000000000000000 PUSH0 MSTORE PUSH1 0x41 PUSH1 0x4 MSTORE PUSH1 0x24 PUSH0 REVERT JUMPDEST PUSH2 0x49E7 DUP3 PUSH2 0x4304 JUMP JUMPDEST DUP2 ADD DUP2 DUP2 LT PUSH8 0xFFFFFFFFFFFFFFFF DUP3 GT OR ISZERO PUSH2 0x4A06 JUMPI PUSH2 0x4A05 PUSH2 0x49B1 JUMP JUMPDEST JUMPDEST DUP1 PUSH1 0x40 MSTORE POP POP POP JUMP JUMPDEST PUSH0 PUSH2 0x4A18 PUSH2 0x436C JUMP JUMPDEST SWAP1 POP PUSH2 0x4A24 DUP3 DUP3 PUSH2 0x49DE JUMP JUMPDEST SWAP2 SWAP1 POP JUMP JUMPDEST PUSH0 PUSH8 0xFFFFFFFFFFFFFFFF DUP3 GT ISZERO PUSH2 0x4A43 JUMPI PUSH2 0x4A42 PUSH2 0x49B1 JUMP JUMPDEST JUMPDEST PUSH1 0x20 DUP3 MUL SWAP1 POP PUSH1 0x20 DUP2 ADD SWAP1 POP SWAP2 SWAP1 POP JUMP JUMPDEST PUSH0 PUSH2 0x4A66 PUSH2 0x4A61 DUP5 PUSH2 0x4A29 JUMP JUMPDEST PUSH2 0x4A0F JUMP JUMPDEST SWAP1 POP DUP1 DUP4 DUP3 MSTORE PUSH1 0x20 DUP3 ADD SWAP1 POP PUSH1 0x20 DUP5 MUL DUP4 ADD DUP6 DUP2 GT ISZERO PUSH2 0x4A89 JUMPI PUSH2 0x4A88 PUSH2 0x4958 JUMP JUMPDEST JUMPDEST DUP4 JUMPDEST DUP2 DUP2 LT ISZERO PUSH2 0x4AB2 JUMPI DUP1 PUSH2 0x4A9E DUP9 DUP3 PUSH2 0x488B JUMP JUMPDEST DUP5 MSTORE PUSH1 0x20 DUP5 ADD SWAP4 POP POP PUSH1 0x20 DUP2 ADD SWAP1 POP PUSH2 0x4A8B JUMP JUMPDEST POP POP POP SWAP4 SWAP3 POP POP POP JUMP JUMPDEST PUSH0 DUP3 PUSH1 0x1F DUP4 ADD SLT PUSH2 0x4AD0 JUMPI PUSH2 0x4ACF PUSH2 0x4950 JUMP JUMPDEST JUMPDEST DUP2 CALLDATALOAD PUSH2 0x4AE0 DUP5 DUP3 PUSH1 0x20 DUP7 ADD PUSH2 0x4A54 JUMP JUMPDEST SWAP2 POP POP SWAP3 SWAP2 POP POP JUMP JUMPDEST PUSH0 PUSH0 PUSH0 PUSH1 0x40 DUP5 DUP7 SUB SLT ISZERO PUSH2 0x4B00 JUMPI PUSH2 0x4AFF PUSH2 0x4375 JUMP JUMPDEST JUMPDEST PUSH0 DUP5 ADD CALLDATALOAD PUSH8 0xFFFFFFFFFFFFFFFF DUP2 GT ISZERO PUSH2 0x4B1D JUMPI PUSH2 0x4B1C PUSH2 0x4379 JUMP JUMPDEST JUMPDEST PUSH2 0x4B29 DUP7 DUP3 DUP8 ADD PUSH2 0x495C JUMP JUMPDEST SWAP4 POP SWAP4 POP POP PUSH1 0x20 DUP5 ADD CALLDATALOAD PUSH8 0xFFFFFFFFFFFFFFFF DUP2 GT ISZERO PUSH2 0x4B4C JUMPI PUSH2 0x4B4B PUSH2 0x4379 JUMP JUMPDEST JUMPDEST PUSH2 0x4B58 DUP7 DUP3 DUP8 ADD PUSH2 0x4ABC JUMP JUMPDEST SWAP2 POP POP SWAP3 POP SWAP3 POP SWAP3 JUMP JUMPDEST PUSH2 0x4B6B DUP2 PUSH2 0x44ED JUMP JUMPDEST DUP2 EQ PUSH2 0x4B75 JUMPI PUSH0 PUSH0 REVERT JUMPDEST POP JUMP JUMPDEST PUSH0 DUP2 CALLDATALOAD SWAP1 POP PUSH2 0x4B86 DUP2 PUSH2 0x4B62 JUMP JUMPDEST SWAP3 SWAP2 POP POP JUMP JUMPDEST PUSH0 PUSH0 DUP4 PUSH1 0x1F DUP5 ADD SLT PUSH2 0x4BA1 JUMPI PUSH2 0x4BA0 PUSH2 0x4950 JUMP JUMPDEST JUMPDEST DUP3 CALLDATALOAD SWAP1 POP PUSH8 0xFFFFFFFFFFFFFFFF DUP2 GT ISZERO PUSH2 0x4BBE JUMPI PUSH2 0x4BBD PUSH2 0x4954 JUMP JUMPDEST JUMPDEST PUSH1 0x20 DUP4 ADD SWAP2 POP DUP4 PUSH1 0x20 DUP3 MUL DUP4 ADD GT ISZERO PUSH2 0x4BDA JUMPI PUSH2 0x4BD9 PUSH2 0x4958 JUMP JUMPDEST JUMPDEST SWAP3 POP SWAP3 SWAP1 POP JUMP JUMPDEST PUSH0 PUSH0 PUSH0 PUSH0 PUSH0 PUSH1 0x60 DUP7 DUP9 SUB SLT ISZERO PUSH2 0x4BFA JUMPI PUSH2 0x4BF9 PUSH2 0x4375 JUMP JUMPDEST JUMPDEST PUSH0 PUSH2 0x4C07 DUP9 DUP3 DUP10 ADD PUSH2 0x4B78 JUMP JUMPDEST SWAP6 POP POP PUSH1 0x20 DUP7 ADD CALLDATALOAD PUSH8 0xFFFFFFFFFFFFFFFF DUP2 GT ISZERO PUSH2 0x4C28 JUMPI PUSH2 0x4C27 PUSH2 0x4379 JUMP JUMPDEST JUMPDEST PUSH2 0x4C34 DUP9 DUP3 DUP10 ADD PUSH2 0x495C JUMP JUMPDEST SWAP5 POP SWAP5 POP POP PUSH1 0x40 DUP7 ADD CALLDATALOAD PUSH8 0xFFFFFFFFFFFFFFFF DUP2 GT ISZERO PUSH2 0x4C57 JUMPI PUSH2 0x4C56 PUSH2 0x4379 JUMP JUMPDEST JUMPDEST PUSH2 0x4C63 DUP9 DUP3 DUP10 ADD PUSH2 0x4B8C JUMP JUMPDEST SWAP3 POP SWAP3 POP POP SWAP3 SWAP6 POP SWAP3 SWAP6 SWAP1 SWAP4 POP JUMP JUMPDEST PUSH0 DUP2 MLOAD SWAP1 POP PUSH2 0x4C80 DUP2 PUSH2 0x437D JUMP JUMPDEST SWAP3 SWAP2 POP POP JUMP JUMPDEST PUSH0 PUSH1 0x20 DUP3 DUP5 SUB SLT ISZERO PUSH2 0x4C9B JUMPI PUSH2 0x4C9A PUSH2 0x4375 JUMP JUMPDEST JUMPDEST PUSH0 PUSH2 0x4CA8 DUP5 DUP3 DUP6 ADD PUSH2 0x4C72 JUMP JUMPDEST SWAP2 POP POP SWAP3 SWAP2 POP POP JUMP JUMPDEST PUSH32 0x4E487B7100000000000000000000000000000000000000000000000000000000 PUSH0 MSTORE PUSH1 0x32 PUSH1 0x4 MSTORE PUSH1 0x24 PUSH0 REVERT JUMPDEST PUSH32 0x4E487B7100000000000000000000000000000000000000000000000000000000 PUSH0 MSTORE PUSH1 0x11 PUSH1 0x4 MSTORE PUSH1 0x24 PUSH0 REVERT JUMPDEST PUSH0 PUSH2 0x4D15 DUP3 PUSH2 0x42AB JUMP JUMPDEST SWAP2 POP PUSH2 0x4D20 DUP4 PUSH2 0x42AB JUMP JUMPDEST SWAP3 POP DUP3 DUP3 ADD SWAP1 POP DUP1 DUP3 GT ISZERO PUSH2 0x4D38 JUMPI PUSH2 0x4D37 PUSH2 0x4CDE JUMP JUMPDEST JUMPDEST SWAP3 SWAP2 POP POP JUMP JUMPDEST PUSH32 0x4E487B7100000000000000000000000000000000000000000000000000000000 PUSH0 MSTORE PUSH1 0x22 PUSH1 0x4 MSTORE PUSH1 0x24 PUSH0 REVERT JUMPDEST PUSH0 PUSH1 0x2 DUP3 DIV SWAP1 POP PUSH1 0x1 DUP3 AND DUP1 PUSH2 0x4D82 JUMPI PUSH1 0x7F DUP3 AND SWAP2 POP JUMPDEST PUSH1 0x20 DUP3 LT DUP2 SUB PUSH2 0x4D95 JUMPI PUSH2 0x4D94 PUSH2 0x4D3E JUMP JUMPDEST JUMPDEST POP SWAP2 SWAP1 POP JUMP JUMPDEST PUSH0 PUSH2 0x4DA5 DUP3 PUSH2 0x44ED JUMP JUMPDEST SWAP2 POP PUSH2 0x4DB0 DUP4 PUSH2 0x44ED JUMP JUMPDEST SWAP3 POP DUP3 DUP3 ADD SWAP1 POP PUSH1 0xFF DUP2 GT ISZERO PUSH2 0x4DC9 JUMPI PUSH2 0x4DC8 PUSH2 0x4CDE JUMP JUMPDEST JUMPDEST SWAP3 SWAP2 POP POP JUMP JUMPDEST PUSH0 PUSH2 0x4DD9 DUP3 PUSH2 0x42AB JUMP JUMPDEST SWAP2 POP PUSH2 0x4DE4 DUP4 PUSH2 0x42AB JUMP JUMPDEST SWAP3 POP DUP3 DUP3 SUB SWAP1 POP DUP2 DUP2 GT ISZERO PUSH2 0x4DFC JUMPI PUSH2 0x4DFB PUSH2 0x4CDE JUMP JUMPDEST JUMPDEST SWAP3 SWAP2 POP POP JUMP JUMPDEST PUSH0 PUSH2 0x4E0C DUP3 PUSH2 0x42AB JUMP JUMPDEST SWAP2 POP PUSH2 0x4E17 DUP4 PUSH2 0x42AB JUMP JUMPDEST SWAP3 POP DUP3 DUP3 MUL PUSH2 0x4E25 DUP2 PUSH2 0x42AB JUMP JUMPDEST SWAP2 POP DUP3 DUP3 DIV DUP5 EQ DUP4 ISZERO OR PUSH2 0x4E3C JUMPI PUSH2 0x4E3B PUSH2 0x4CDE JUMP JUMPDEST JUMPDEST POP SWAP3 SWAP2 POP POP JUMP JUMPDEST PUSH32 0x4E487B7100000000000000000000000000000000000000000000000000000000 PUSH0 MSTORE PUSH1 0x12 PUSH1 0x4 MSTORE PUSH1 0x24 PUSH0 REVERT JUMPDEST PUSH0 PUSH2 0x4E7A DUP3 PUSH2 0x42AB JUMP JUMPDEST SWAP2 POP PUSH2 0x4E85 DUP4 PUSH2 0x42AB JUMP JUMPDEST SWAP3 POP DUP3 PUSH2 0x4E95 JUMPI PUSH2 0x4E94 PUSH2 0x4E43 JUMP JUMPDEST JUMPDEST DUP3 DUP3 DIV SWAP1 POP SWAP3 SWAP2 POP POP JUMP JUMPDEST PUSH0 PUSH1 0x60 DUP3 ADD SWAP1 POP PUSH2 0x4EB3 PUSH0 DUP4 ADD DUP7 PUSH2 0x42B4 JUMP JUMPDEST PUSH2 0x4EC0 PUSH1 0x20 DUP4 ADD DUP6 PUSH2 0x42B4 JUMP JUMPDEST PUSH2 0x4ECD PUSH1 0x40 DUP4 ADD DUP5 PUSH2 0x42B4 JUMP JUMPDEST SWAP5 SWAP4 POP POP POP POP JUMP JUMPDEST PUSH32 0x4E6F742061207665726966696564204E6974726F6C697465206F70657261746F PUSH0 DUP3 ADD MSTORE PUSH32 0x7200000000000000000000000000000000000000000000000000000000000000 PUSH1 0x20 DUP3 ADD MSTORE POP JUMP JUMPDEST PUSH0 PUSH2 0x4F2F PUSH1 0x21 DUP4 PUSH2 0x42E6 JUMP JUMPDEST SWAP2 POP PUSH2 0x4F3A DUP3 PUSH2 0x4ED5 JUMP JUMPDEST PUSH1 0x40 DUP3 ADD SWAP1 POP SWAP2 SWAP1 POP JUMP JUMPDEST PUSH0 PUSH1 0x20 DUP3 ADD SWAP1 POP DUP2 DUP2 SUB PUSH0 DUP4 ADD MSTORE PUSH2 0x4F5C DUP2 PUSH2 0x4F23 JUMP JUMPDEST SWAP1 POP SWAP2 SWAP1 POP JUMP JUMPDEST PUSH32 0x4E6F7420696D706C656D656E7465640000000000000000000000000000000000 PUSH0 DUP3 ADD MSTORE POP JUMP JUMPDEST PUSH0 PUSH2 0x4F97 PUSH1 0xF DUP4 PUSH2 0x42E6 JUMP JUMPDEST SWAP2 POP PUSH2 0x4FA2 DUP3 PUSH2 0x4F63 JUMP JUMPDEST PUSH1 0x20 DUP3 ADD SWAP1 POP SWAP2 SWAP1 POP JUMP JUMPDEST PUSH0 PUSH1 0x20 DUP3 ADD SWAP1 POP DUP2 DUP2 SUB PUSH0 DUP4 ADD MSTORE PUSH2 0x4FC4 DUP2 PUSH2 0x4F8B JUMP JUMPDEST SWAP1 POP SWAP2 SWAP1 POP JUMP JUMPDEST PUSH0 PUSH1 0x40 DUP3 ADD SWAP1 POP PUSH2 0x4FDE PUSH0 DUP4 ADD DUP6 PUSH2 0x42B4 JUMP JUMPDEST PUSH2 0x4FEB PUSH1 0x20 DUP4 ADD DUP5 PUSH2 0x42B4 JUMP JUMPDEST SWAP4 SWAP3 POP POP POP JUMP JUMPDEST PUSH0 PUSH1 0x60 DUP3 ADD SWAP1 POP PUSH2 0x5005 PUSH0 DUP4 ADD DUP7 PUSH2 0x4521 JUMP JUMPDEST PUSH2 0x5012 PUSH1 0x20 DUP4 ADD DUP6 PUSH2 0x42B4 JUMP JUMPDEST PUSH2 0x501F PUSH1 0x40 DUP4 ADD DUP5 PUSH2 0x42B4 JUMP JUMPDEST SWAP5 SWAP4 POP POP POP POP JUMP JUMPDEST PUSH0 PUSH1 0x20 DUP3 ADD SWAP1 POP PUSH2 0x503A PUSH0 DUP4 ADD DUP5 PUSH2 0x4823 JUMP JUMPDEST SWAP3 SWAP2 POP POP JUMP JUMPDEST PUSH0 DUP3 DUP3 MSTORE PUSH1 0x20 DUP3 ADD SWAP1 POP SWAP3 SWAP2 POP POP JUMP JUMPDEST PUSH0 PUSH0 REVERT JUMPDEST DUP3 DUP2 DUP4 CALLDATACOPY POP POP POP JUMP JUMPDEST PUSH0 PUSH2 0x5068 DUP4 DUP6 PUSH2 0x5040 JUMP JUMPDEST SWAP4 POP PUSH32 0x7FFFFFFFFFFFFFFFFFFFFFFFFFFFFFFFFFFFFFFFFFFFFFFFFFFFFFFFFFFFFFF DUP4 GT ISZERO PUSH2 0x509B JUMPI PUSH2 0x509A PUSH2 0x5050 JUMP JUMPDEST JUMPDEST PUSH1 0x20 DUP4 MUL SWAP3 POP PUSH2 0x50AC DUP4 DUP6 DUP5 PUSH2 0x5054 JUMP JUMPDEST DUP3 DUP5 ADD SWAP1 POP SWAP4 SWAP3 POP POP POP JUMP JUMPDEST PUSH0 DUP2 MLOAD SWAP1 POP SWAP2 SWAP1 POP JUMP JUMPDEST PUSH0 DUP3 DUP3 MSTORE PUSH1 0x20 DUP3 ADD SWAP1 POP SWAP3 SWAP2 POP POP JUMP JUMPDEST PUSH0 DUP2 SWAP1 POP PUSH1 0x20 DUP3 ADD SWAP1 POP SWAP2 SWAP1 POP JUMP JUMPDEST PUSH0 PUSH2 0x50EC DUP4 DUP4 PUSH2 0x4726 JUMP JUMPDEST PUSH1 0x20 DUP4 ADD SWAP1 POP SWAP3 SWAP2 POP POP JUMP JUMPDEST PUSH0 PUSH1 0x20 DUP3 ADD SWAP1 POP SWAP2 SWAP1 POP JUMP JUMPDEST PUSH0 PUSH2 0x510E DUP3 PUSH2 0x50B8 JUMP JUMPDEST PUSH2 0x5118 DUP2 DUP6 PUSH2 0x50C2 JUMP JUMPDEST SWAP4 POP PUSH2 0x5123 DUP4 PUSH2 0x50D2 JUMP JUMPDEST DUP1 PUSH0 JUMPDEST DUP4 DUP2 LT ISZERO PUSH2 0x5153 JUMPI DUP2 MLOAD PUSH2 0x513A DUP9 DUP3 PUSH2 0x50E1 JUMP JUMPDEST SWAP8 POP PUSH2 0x5145 DUP4 PUSH2 0x50F8 JUMP JUMPDEST SWAP3 POP POP PUSH1 0x1 DUP2 ADD SWAP1 POP PUSH2 0x5126 JUMP JUMPDEST POP DUP6 SWAP4 POP POP POP POP SWAP3 SWAP2 POP POP JUMP JUMPDEST PUSH0 PUSH1 0x40 DUP3 ADD SWAP1 POP DUP2 DUP2 SUB PUSH0 DUP4 ADD MSTORE PUSH2 0x5179 DUP2 DUP6 DUP8 PUSH2 0x505D JUMP JUMPDEST SWAP1 POP DUP2 DUP2 SUB PUSH1 0x20 DUP4 ADD MSTORE PUSH2 0x518D DUP2 DUP5 PUSH2 0x5104 JUMP JUMPDEST SWAP1 POP SWAP5 SWAP4 POP POP POP POP JUMP JUMPDEST PUSH0 PUSH1 0x20 DUP3 DUP5 SUB SLT ISZERO PUSH2 0x51AC JUMPI PUSH2 0x51AB PUSH2 0x4375 JUMP JUMPDEST JUMPDEST PUSH0 PUSH2 0x51B9 DUP5 DUP3 DUP6 ADD PUSH2 0x4B78 JUMP JUMPDEST SWAP2 POP POP SWAP3 SWAP2 POP POP JUMP JUMPDEST PUSH0 PUSH2 0x51CC DUP3 PUSH2 0x4719 JUMP JUMPDEST SWAP2 POP PUSH2 0x51D7 DUP4 PUSH2 0x4719 JUMP JUMPDEST SWAP3 POP DUP3 DUP3 MUL PUSH2 0x51E5 DUP2 PUSH2 0x4719 JUMP JUMPDEST SWAP2 POP DUP1 DUP3 EQ PUSH2 0x51F7 JUMPI PUSH2 0x51F6 PUSH2 0x4CDE JUMP JUMPDEST JUMPDEST POP SWAP3 SWAP2 POP POP JUMP JUMPDEST PUSH0 DUP2 PUSH1 0x1 SHR SWAP1 POP SWAP2 SWAP1 POP JUMP JUMPDEST PUSH0 PUSH0 DUP3 SWAP2 POP DUP4 SWAP1 POP JUMPDEST PUSH1 0x1 DUP6 GT ISZERO PUSH2 0x5253 JUMPI DUP1 DUP7 DIV DUP2 GT ISZERO PUSH2 0x522F JUMPI PUSH2 0x522E PUSH2 0x4CDE JUMP JUMPDEST JUMPDEST PUSH1 0x1 DUP6 AND ISZERO PUSH2 0x523E JUMPI DUP1 DUP3 MUL SWAP2 POP JUMPDEST DUP1 DUP2 MUL SWAP1 POP PUSH2 0x524C DUP6 PUSH2 0x51FE JUMP JUMPDEST SWAP5 POP PUSH2 0x5213 JUMP JUMPDEST SWAP5 POP SWAP5 SWAP3 POP POP POP JUMP JUMPDEST PUSH0 DUP3 PUSH2 0x526B JUMPI PUSH1 0x1 SWAP1 POP PUSH2 0x5326 JUMP JUMPDEST DUP2 PUSH2 0x5278 JUMPI PUSH0 SWAP1 POP PUSH2 0x5326 JUMP JUMPDEST DUP2 PUSH1 0x1 DUP2 EQ PUSH2 0x528E JUMPI PUSH1 0x2 DUP2 EQ PUSH2 0x5298 JUMPI PUSH2 0x52C7 JUMP JUMPDEST PUSH1 0x1 SWAP2 POP POP PUSH2 0x5326 JUMP JUMPDEST PUSH1 0xFF DUP5 GT ISZERO PUSH2 0x52AA JUMPI PUSH2 0x52A9 PUSH2 0x4CDE JUMP JUMPDEST JUMPDEST DUP4 PUSH1 0x2 EXP SWAP2 POP DUP5 DUP3 GT ISZERO PUSH2 0x52C1 JUMPI PUSH2 0x52C0 PUSH2 0x4CDE JUMP JUMPDEST JUMPDEST POP PUSH2 0x5326 JUMP JUMPDEST POP PUSH1 0x20 DUP4 LT PUSH2 0x133 DUP4 LT AND PUSH1 0x4E DUP5 LT PUSH1 0xB DUP5 LT AND OR ISZERO PUSH2 0x52FC JUMPI DUP3 DUP3 EXP SWAP1 POP DUP4 DUP2 GT ISZERO PUSH2 0x52F7 JUMPI PUSH2 0x52F6 PUSH2 0x4CDE JUMP JUMPDEST JUMPDEST PUSH2 0x5326 JUMP JUMPDEST PUSH2 0x5309 DUP5 DUP5 DUP5 PUSH1 0x1 PUSH2 0x520A JUMP JUMPDEST SWAP3 POP SWAP1 POP DUP2 DUP5 DIV DUP2 GT ISZERO PUSH2 0x5320 JUMPI PUSH2 0x531F PUSH2 0x4CDE JUMP JUMPDEST JUMPDEST DUP2 DUP2 MUL SWAP1 POP JUMPDEST SWAP4 SWAP3 POP POP POP JUMP JUMPDEST PUSH0 PUSH2 0x5337 DUP3 PUSH2 0x42AB JUMP JUMPDEST SWAP2 POP PUSH2 0x5342 DUP4 PUSH2 0x44ED JUMP JUMPDEST SWAP3 POP PUSH2 0x536F PUSH32 0xFFFFFFFFFFFFFFFFFFFFFFFFFFFFFFFFFFFFFFFFFFFFFFFFFFFFFFFFFFFFFFFF DUP5 DUP5 PUSH2 0x525C JUMP JUMPDEST SWAP1 POP SWAP3 SWAP2 POP POP JUMP JUMPDEST PUSH0 PUSH1 0x40 DUP3 ADD SWAP1 POP PUSH2 0x538A PUSH0 DUP4 ADD DUP6 PUSH2 0x42B4 JUMP JUMPDEST PUSH2 0x5397 PUSH1 0x20 DUP4 ADD DUP5 PUSH2 0x4521 JUMP JUMPDEST SWAP4 SWAP3 POP POP POP JUMP JUMPDEST PUSH0 PUSH1 0x60 DUP3 ADD SWAP1 POP PUSH2 0x53B1 PUSH0 DUP4 ADD DUP7 PUSH2 0x42B4 JUMP JUMPDEST PUSH2 0x53BE PUSH1 0x20 DUP4 ADD DUP6 PUSH2 0x4521 JUMP JUMPDEST PUSH2 0x53CB PUSH1 0x40 DUP4 ADD DUP5 PUSH2 0x4521 JUMP JUMPDEST SWAP5 SWAP4 POP POP POP POP JUMP JUMPDEST PUSH32 0x4E487B7100000000000000000000000000000000000000000000000000000000 PUSH0 MSTORE PUSH1 0x21 PUSH1 0x4 MSTORE PUSH1 0x24 PUSH0 REVERT JUMPDEST PUSH0 PUSH2 0x540A DUP3 PUSH2 0x44ED JUMP JUMPDEST SWAP2 POP PUSH2 0x5415 DUP4 PUSH2 0x44ED JUMP JUMPDEST SWAP3 POP DUP3 PUSH2 0x5425 JUMPI PUSH2 0x5424 PUSH2 0x4E43 JUMP JUMPDEST JUMPDEST DUP3 DUP3 MOD SWAP1 POP SWAP3 SWAP2 POP POP JUMP INVALID LOG2 PUSH5 0x6970667358 0x22 SLT KECCAK256 CALL SWAP4 0x4B PUSH7 0x5BFC2DAC335AF0 PUSH17 0x6BE5F101F33770A4C32DC20B1D992FA89C 0xB6 RETURN MSIZE PUSH5 0x736F6C6343 STOP ADDMOD 0x1E STOP CALLER "
		},
		"gasEstimates": {
			"creation": {
				"codeDepositCost": "4321200",
				"executionCost": "infinite",
				"totalCost": "infinite"
			},
			"external": {
				"addStrategy(address,uint16)": "infinite",
				"allowance(address,address)": "infinite",
				"approve(address,uint256)": "infinite",
				"asset()": "infinite",
				"balanceOf(address)": "2895",
				"convertToAssets(uint256)": "infinite",
				"convertToShares(uint256)": "infinite",
				"decimals()": "infinite",
				"deposit(uint256,address)": "infinite",
				"emergencyWithdraw(uint256)": "infinite",
				"estimatedAPY()": "infinite",
				"feeRecipient()": "2554",
				"getAllStrategies()": "infinite",
				"getStrategy(uint256)": "infinite",
				"harvest()": "infinite",
				"isAllocationValid()": "infinite",
				"lastHarvestTime()": "2492",
				"maxDeposit(address)": "775",
				"maxMint(address)": "774",
				"maxRedeem(address)": "3025",
				"maxWithdraw(address)": "infinite",
				"mint(uint256,address)": "infinite",
				"name()": "infinite",
				"owner()": "2670",
				"performanceFeeBps()": "2581",
				"previewDeposit(uint256)": "infinite",
				"previewMint(uint256)": "infinite",
				"previewRedeem(uint256)": "infinite",
				"previewWithdraw(uint256)": "infinite",
				"rebalance()": "infinite",
				"redeem(uint256,address,address)": "infinite",
				"removeStrategy(uint256)": "infinite",
				"renounceOwnership()": "infinite",
				"setFeeRecipient(address)": "infinite",
				"setNitroliteOperator(address,bool)": "infinite",
				"setPerformanceFee(uint256)": "infinite",
				"settleRebalance(uint8,uint256[],uint8[])": "infinite",
				"settleTransfer(address,uint256,bool)": "3395",
				"strategies(uint256)": "9704",
				"symbol()": "infinite",
				"totalAssets()": "infinite",
				"totalHarvested()": "2493",
				"totalSupply()": "2589",
				"transfer(address,uint256)": "infinite",
				"transferFrom(address,address,uint256)": "infinite",
				"transferOwnership(address)": "infinite",
				"updateAllocations(uint256[],uint16[])": "infinite",
				"verifiedNitroliteOperators(address)": "2900",
				"withdraw(uint256,address,address)": "infinite"
			},
			"internal": {
				"_allocateToStrategies(uint256)": "infinite",
				"_withdrawFromStrategies(uint256)": "infinite"
			}
		},
		"methodIdentifiers": {
			"addStrategy(address,uint16)": "d11f519c",
			"allowance(address,address)": "dd62ed3e",
			"approve(address,uint256)": "095ea7b3",
			"asset()": "38d52e0f",
			"balanceOf(address)": "70a08231",
			"convertToAssets(uint256)": "07a2d13a",
			"convertToShares(uint256)": "c6e6f592",
			"decimals()": "313ce567",
			"deposit(uint256,address)": "6e553f65",
			"emergencyWithdraw(uint256)": "5312ea8e",
			"estimatedAPY()": "f19993d7",
			"feeRecipient()": "46904840",
			"getAllStrategies()": "c3b28864",
			"getStrategy(uint256)": "cfc0cc34",
			"harvest()": "4641257d",
			"isAllocationValid()": "810eb980",
			"lastHarvestTime()": "ceb0f626",
			"maxDeposit(address)": "402d267d",
			"maxMint(address)": "c63d75b6",
			"maxRedeem(address)": "d905777e",
			"maxWithdraw(address)": "ce96cb77",
			"mint(uint256,address)": "94bf804d",
			"name()": "06fdde03",
			"owner()": "8da5cb5b",
			"performanceFeeBps()": "b9d4e879",
			"previewDeposit(uint256)": "ef8b30f7",
			"previewMint(uint256)": "b3d7f6b9",
			"previewRedeem(uint256)": "4cdad506",
			"previewWithdraw(uint256)": "0a28a477",
			"rebalance()": "7d7c2a1c",
			"redeem(uint256,address,address)": "ba087652",
			"removeStrategy(uint256)": "c0cbbca6",
			"renounceOwnership()": "715018a6",
			"setFeeRecipient(address)": "e74b981b",
			"setNitroliteOperator(address,bool)": "6643de84",
			"setPerformanceFee(uint256)": "70897b23",
			"settleRebalance(uint8,uint256[],uint8[])": "fde6e8d5",
			"settleTransfer(address,uint256,bool)": "4b1cf0de",
			"strategies(uint256)": "d574ea3d",
			"symbol()": "95d89b41",
			"totalAssets()": "01e1d114",
			"totalHarvested()": "23dc1142",
			"totalSupply()": "18160ddd",
			"transfer(address,uint256)": "a9059cbb",
			"transferFrom(address,address,uint256)": "23b872dd",
			"transferOwnership(address)": "f2fde38b",
			"updateAllocations(uint256[],uint16[])": "f11e7a4f",
			"verifiedNitroliteOperators(address)": "bb4cc676",
			"withdraw(uint256,address,address)": "b460af94"
		}
	},
	"abi": [
		{
			"inputs": [
				{
					"internalType": "contract IERC20",
					"name": "_asset",
					"type": "address"
				},
				{
					"internalType": "string",
					"name": "_name",
					"type": "string"
				},
				{
					"internalType": "string",
					"name": "_symbol",
					"type": "string"
				},
				{
					"internalType": "address",
					"name": "_feeRecipient",
					"type": "address"
				}
			],
			"stateMutability": "nonpayable",
			"type": "constructor"
		},
		{
			"inputs": [],
			"name": "AllocationMustBe100",
			"type": "error"
		},
		{
			"inputs": [
				{
					"internalType": "address",
					"name": "spender",
					"type": "address"
				},
				{
					"internalType": "uint256",
					"name": "allowance",
					"type": "uint256"
				},
				{
					"internalType": "uint256",
					"name": "needed",
					"type": "uint256"
				}
			],
			"name": "ERC20InsufficientAllowance",
			"type": "error"
		},
		{
			"inputs": [
				{
					"internalType": "address",
					"name": "sender",
					"type": "address"
				},
				{
					"internalType": "uint256",
					"name": "balance",
					"type": "uint256"
				},
				{
					"internalType": "uint256",
					"name": "needed",
					"type": "uint256"
				}
			],
			"name": "ERC20InsufficientBalance",
			"type": "error"
		},
		{
			"inputs": [
				{
					"internalType": "address",
					"name": "approver",
					"type": "address"
				}
			],
			"name": "ERC20InvalidApprover",
			"type": "error"
		},
		{
			"inputs": [
				{
					"internalType": "address",
					"name": "receiver",
					"type": "address"
				}
			],
			"name": "ERC20InvalidReceiver",
			"type": "error"
		},
		{
			"inputs": [
				{
					"internalType": "address",
					"name": "sender",
					"type": "address"
				}
			],
			"name": "ERC20InvalidSender",
			"type": "error"
		},
		{
			"inputs": [
				{
					"internalType": "address",
					"name": "spender",
					"type": "address"
				}
			],
			"name": "ERC20InvalidSpender",
			"type": "error"
		},
		{
			"inputs": [
				{
					"internalType": "address",
					"name": "receiver",
					"type": "address"
				},
				{
					"internalType": "uint256",
					"name": "assets",
					"type": "uint256"
				},
				{
					"internalType": "uint256",
					"name": "max",
					"type": "uint256"
				}
			],
			"name": "ERC4626ExceededMaxDeposit",
			"type": "error"
		},
		{
			"inputs": [
				{
					"internalType": "address",
					"name": "receiver",
					"type": "address"
				},
				{
					"internalType": "uint256",
					"name": "shares",
					"type": "uint256"
				},
				{
					"internalType": "uint256",
					"name": "max",
					"type": "uint256"
				}
			],
			"name": "ERC4626ExceededMaxMint",
			"type": "error"
		},
		{
			"inputs": [
				{
					"internalType": "address",
					"name": "owner",
					"type": "address"
				},
				{
					"internalType": "uint256",
					"name": "shares",
					"type": "uint256"
				},
				{
					"internalType": "uint256",
					"name": "max",
					"type": "uint256"
				}
			],
			"name": "ERC4626ExceededMaxRedeem",
			"type": "error"
		},
		{
			"inputs": [
				{
					"internalType": "address",
					"name": "owner",
					"type": "address"
				},
				{
					"internalType": "uint256",
					"name": "assets",
					"type": "uint256"
				},
				{
					"internalType": "uint256",
					"name": "max",
					"type": "uint256"
				}
			],
			"name": "ERC4626ExceededMaxWithdraw",
			"type": "error"
		},
		{
			"inputs": [],
			"name": "FeeTooHigh",
			"type": "error"
		},
		{
			"inputs": [],
			"name": "InvalidAddress",
			"type": "error"
		},
		{
			"inputs": [],
			"name": "InvalidAllocation",
			"type": "error"
		},
		{
			"inputs": [],
			"name": "InvalidStrategy",
			"type": "error"
		},
		{
			"inputs": [
				{
					"internalType": "address",
					"name": "owner",
					"type": "address"
				}
			],
			"name": "OwnableInvalidOwner",
			"type": "error"
		},
		{
			"inputs": [
				{
					"internalType": "address",
					"name": "account",
					"type": "address"
				}
			],
			"name": "OwnableUnauthorizedAccount",
			"type": "error"
		},
		{
			"inputs": [],
			"name": "ReentrancyGuardReentrantCall",
			"type": "error"
		},
		{
			"inputs": [
				{
					"internalType": "address",
					"name": "token",
					"type": "address"
				}
			],
			"name": "SafeERC20FailedOperation",
			"type": "error"
		},
		{
			"inputs": [],
			"name": "StrategyNotActive",
			"type": "error"
		},
		{
			"anonymous": false,
			"inputs": [
				{
					"indexed": false,
					"internalType": "uint256[]",
					"name": "indices",
					"type": "uint256[]"
				},
				{
					"indexed": false,
					"internalType": "uint16[]",
					"name": "allocations",
					"type": "uint16[]"
				}
			],
			"name": "AllocationsUpdated",
			"type": "event"
		},
		{
			"anonymous": false,
			"inputs": [
				{
					"indexed": true,
					"internalType": "address",
					"name": "owner",
					"type": "address"
				},
				{
					"indexed": true,
					"internalType": "address",
					"name": "spender",
					"type": "address"
				},
				{
					"indexed": false,
					"internalType": "uint256",
					"name": "value",
					"type": "uint256"
				}
			],
			"name": "Approval",
			"type": "event"
		},
		{
			"anonymous": false,
			"inputs": [
				{
					"indexed": true,
					"internalType": "address",
					"name": "sender",
					"type": "address"
				},
				{
					"indexed": true,
					"internalType": "address",
					"name": "owner",
					"type": "address"
				},
				{
					"indexed": false,
					"internalType": "uint256",
					"name": "assets",
					"type": "uint256"
				},
				{
					"indexed": false,
					"internalType": "uint256",
					"name": "shares",
					"type": "uint256"
				}
			],
			"name": "Deposit",
			"type": "event"
		},
		{
			"anonymous": false,
			"inputs": [
				{
					"indexed": true,
					"internalType": "uint256",
					"name": "strategyIndex",
					"type": "uint256"
				},
				{
					"indexed": false,
					"internalType": "uint256",
					"name": "assetsRecovered",
					"type": "uint256"
				}
			],
			"name": "EmergencyExit",
			"type": "event"
		},
		{
			"anonymous": false,
			"inputs": [
				{
					"indexed": true,
					"internalType": "address",
					"name": "oldRecipient",
					"type": "address"
				},
				{
					"indexed": true,
					"internalType": "address",
					"name": "newRecipient",
					"type": "address"
				}
			],
			"name": "FeeRecipientUpdated",
			"type": "event"
		},
		{
			"anonymous": false,
			"inputs": [
				{
					"indexed": false,
					"internalType": "uint256",
					"name": "totalYield",
					"type": "uint256"
				},
				{
					"indexed": false,
					"internalType": "uint256",
					"name": "fee",
					"type": "uint256"
				},
				{
					"indexed": false,
					"internalType": "uint256",
					"name": "timestamp",
					"type": "uint256"
				}
			],
			"name": "Harvested",
			"type": "event"
		},
		{
			"anonymous": false,
			"inputs": [
				{
					"indexed": true,
					"internalType": "address",
					"name": "operator",
					"type": "address"
				},
				{
					"indexed": false,
					"internalType": "bool",
					"name": "verified",
					"type": "bool"
				}
			],
			"name": "NitroliteOperatorUpdated",
			"type": "event"
		},
		{
			"anonymous": false,
			"inputs": [
				{
					"indexed": true,
					"internalType": "address",
					"name": "previousOwner",
					"type": "address"
				},
				{
					"indexed": true,
					"internalType": "address",
					"name": "newOwner",
					"type": "address"
				}
			],
			"name": "OwnershipTransferred",
			"type": "event"
		},
		{
			"anonymous": false,
			"inputs": [
				{
					"indexed": false,
					"internalType": "uint256",
					"name": "oldFee",
					"type": "uint256"
				},
				{
					"indexed": false,
					"internalType": "uint256",
					"name": "newFee",
					"type": "uint256"
				}
			],
			"name": "PerformanceFeeUpdated",
			"type": "event"
		},
		{
			"anonymous": false,
			"inputs": [
				{
					"indexed": false,
					"internalType": "uint256",
					"name": "timestamp",
					"type": "uint256"
				},
				{
					"indexed": false,
					"internalType": "uint256",
					"name": "totalAssets",
					"type": "uint256"
				}
			],
			"name": "Rebalanced",
			"type": "event"
		},
		{
			"anonymous": false,
			"inputs": [
				{
					"indexed": true,
					"internalType": "address",
					"name": "strategy",
					"type": "address"
				},
				{
					"indexed": false,
					"internalType": "uint16",
					"name": "allocationBps",
					"type": "uint16"
				}
			],
			"name": "StrategyAdded",
			"type": "event"
		},
		{
			"anonymous": false,
			"inputs": [
				{
					"indexed": true,
					"internalType": "uint256",
					"name": "index",
					"type": "uint256"
				}
			],
			"name": "StrategyRemoved",
			"type": "event"
		},
		{
			"anonymous": false,
			"inputs": [
				{
					"indexed": true,
					"internalType": "address",
					"name": "from",
					"type": "address"
				},
				{
					"indexed": true,
					"internalType": "address",
					"name": "to",
					"type": "address"
				},
				{
					"indexed": false,
					"internalType": "uint256",
					"name": "value",
					"type": "uint256"
				}
			],
			"name": "Transfer",
			"type": "event"
		},
		{
			"anonymous": false,
			"inputs": [
				{
					"indexed": true,
					"internalType": "address",
					"name": "sender",
					"type": "address"
				},
				{
					"indexed": true,
					"internalType": "address",
					"name": "receiver",
					"type": "address"
				},
				{
					"indexed": true,
					"internalType": "address",
					"name": "owner",
					"type": "address"
				},
				{
					"indexed": false,
					"internalType": "uint256",
					"name": "assets",
					"type": "uint256"
				},
				{
					"indexed": false,
					"internalType": "uint256",
					"name": "shares",
					"type": "uint256"
				}
			],
			"name": "Withdraw",
			"type": "event"
		},
		{
			"inputs": [
				{
					"internalType": "address",
					"name": "strategy",
					"type": "address"
				},
				{
					"internalType": "uint16",
					"name": "allocationBps",
					"type": "uint16"
				}
			],
			"name": "addStrategy",
			"outputs": [],
			"stateMutability": "nonpayable",
			"type": "function"
		},
		{
			"inputs": [
				{
					"internalType": "address",
					"name": "owner",
					"type": "address"
				},
				{
					"internalType": "address",
					"name": "spender",
					"type": "address"
				}
			],
			"name": "allowance",
			"outputs": [
				{
					"internalType": "uint256",
					"name": "",
					"type": "uint256"
				}
			],
			"stateMutability": "view",
			"type": "function"
		},
		{
			"inputs": [
				{
					"internalType": "address",
					"name": "spender",
					"type": "address"
				},
				{
					"internalType": "uint256",
					"name": "value",
					"type": "uint256"
				}
			],
			"name": "approve",
			"outputs": [
				{
					"internalType": "bool",
					"name": "",
					"type": "bool"
				}
			],
			"stateMutability": "nonpayable",
			"type": "function"
		},
		{
			"inputs": [],
			"name": "asset",
			"outputs": [
				{
					"internalType": "address",
					"name": "",
					"type": "address"
				}
			],
			"stateMutability": "view",
			"type": "function"
		},
		{
			"inputs": [
				{
					"internalType": "address",
					"name": "account",
					"type": "address"
				}
			],
			"name": "balanceOf",
			"outputs": [
				{
					"internalType": "uint256",
					"name": "",
					"type": "uint256"
				}
			],
			"stateMutability": "view",
			"type": "function"
		},
		{
			"inputs": [
				{
					"internalType": "uint256",
					"name": "shares",
					"type": "uint256"
				}
			],
			"name": "convertToAssets",
			"outputs": [
				{
					"internalType": "uint256",
					"name": "",
					"type": "uint256"
				}
			],
			"stateMutability": "view",
			"type": "function"
		},
		{
			"inputs": [
				{
					"internalType": "uint256",
					"name": "assets",
					"type": "uint256"
				}
			],
			"name": "convertToShares",
			"outputs": [
				{
					"internalType": "uint256",
					"name": "",
					"type": "uint256"
				}
			],
			"stateMutability": "view",
			"type": "function"
		},
		{
			"inputs": [],
			"name": "decimals",
			"outputs": [
				{
					"internalType": "uint8",
					"name": "",
					"type": "uint8"
				}
			],
			"stateMutability": "view",
			"type": "function"
		},
		{
			"inputs": [
				{
					"internalType": "uint256",
					"name": "assets",
					"type": "uint256"
				},
				{
					"internalType": "address",
					"name": "receiver",
					"type": "address"
				}
			],
			"name": "deposit",
			"outputs": [
				{
					"internalType": "uint256",
					"name": "shares",
					"type": "uint256"
				}
			],
			"stateMutability": "nonpayable",
			"type": "function"
		},
		{
			"inputs": [
				{
					"internalType": "uint256",
					"name": "strategyIndex",
					"type": "uint256"
				}
			],
			"name": "emergencyWithdraw",
			"outputs": [],
			"stateMutability": "nonpayable",
			"type": "function"
		},
		{
			"inputs": [],
			"name": "estimatedAPY",
			"outputs": [
				{
					"internalType": "uint256",
					"name": "",
					"type": "uint256"
				}
			],
			"stateMutability": "view",
			"type": "function"
		},
		{
			"inputs": [],
			"name": "feeRecipient",
			"outputs": [
				{
					"internalType": "address",
					"name": "",
					"type": "address"
				}
			],
			"stateMutability": "view",
			"type": "function"
		},
		{
			"inputs": [],
			"name": "getAllStrategies",
			"outputs": [
				{
					"components": [
						{
							"internalType": "address",
							"name": "strategy",
							"type": "address"
						},
						{
							"internalType": "uint16",
							"name": "allocationBps",
							"type": "uint16"
						},
						{
							"internalType": "bool",
							"name": "active",
							"type": "bool"
						}
					],
					"internalType": "struct BaseVault.StrategyAllocation[]",
					"name": "",
					"type": "tuple[]"
				}
			],
			"stateMutability": "view",
			"type": "function"
		},
		{
			"inputs": [
				{
					"internalType": "uint256",
					"name": "index",
					"type": "uint256"
				}
			],
			"name": "getStrategy",
			"outputs": [
				{
					"internalType": "address",
					"name": "strategy",
					"type": "address"
				},
				{
					"internalType": "uint16",
					"name": "allocationBps",
					"type": "uint16"
				},
				{
					"internalType": "bool",
					"name": "active",
					"type": "bool"
				},
				{
					"internalType": "uint256",
					"name": "totalAssets_",
					"type": "uint256"
				}
			],
			"stateMutability": "view",
			"type": "function"
		},
		{
			"inputs": [],
			"name": "harvest",
			"outputs": [
				{
					"internalType": "uint256",
					"name": "",
					"type": "uint256"
				}
			],
			"stateMutability": "nonpayable",
			"type": "function"
		},
		{
			"inputs": [],
			"name": "isAllocationValid",
			"outputs": [
				{
					"internalType": "bool",
					"name": "",
					"type": "bool"
				},
				{
					"internalType": "uint256",
					"name": "",
					"type": "uint256"
				}
			],
			"stateMutability": "view",
			"type": "function"
		},
		{
			"inputs": [],
			"name": "lastHarvestTime",
			"outputs": [
				{
					"internalType": "uint256",
					"name": "",
					"type": "uint256"
				}
			],
			"stateMutability": "view",
			"type": "function"
		},
		{
			"inputs": [
				{
					"internalType": "address",
					"name": "",
					"type": "address"
				}
			],
			"name": "maxDeposit",
			"outputs": [
				{
					"internalType": "uint256",
					"name": "",
					"type": "uint256"
				}
			],
			"stateMutability": "view",
			"type": "function"
		},
		{
			"inputs": [
				{
					"internalType": "address",
					"name": "",
					"type": "address"
				}
			],
			"name": "maxMint",
			"outputs": [
				{
					"internalType": "uint256",
					"name": "",
					"type": "uint256"
				}
			],
			"stateMutability": "view",
			"type": "function"
		},
		{
			"inputs": [
				{
					"internalType": "address",
					"name": "owner",
					"type": "address"
				}
			],
			"name": "maxRedeem",
			"outputs": [
				{
					"internalType": "uint256",
					"name": "",
					"type": "uint256"
				}
			],
			"stateMutability": "view",
			"type": "function"
		},
		{
			"inputs": [
				{
					"internalType": "address",
					"name": "owner",
					"type": "address"
				}
			],
			"name": "maxWithdraw",
			"outputs": [
				{
					"internalType": "uint256",
					"name": "",
					"type": "uint256"
				}
			],
			"stateMutability": "view",
			"type": "function"
		},
		{
			"inputs": [
				{
					"internalType": "uint256",
					"name": "shares",
					"type": "uint256"
				},
				{
					"internalType": "address",
					"name": "receiver",
					"type": "address"
				}
			],
			"name": "mint",
			"outputs": [
				{
					"internalType": "uint256",
					"name": "",
					"type": "uint256"
				}
			],
			"stateMutability": "nonpayable",
			"type": "function"
		},
		{
			"inputs": [],
			"name": "name",
			"outputs": [
				{
					"internalType": "string",
					"name": "",
					"type": "string"
				}
			],
			"stateMutability": "view",
			"type": "function"
		},
		{
			"inputs": [],
			"name": "owner",
			"outputs": [
				{
					"internalType": "address",
					"name": "",
					"type": "address"
				}
			],
			"stateMutability": "view",
			"type": "function"
		},
		{
			"inputs": [],
			"name": "performanceFeeBps",
			"outputs": [
				{
					"internalType": "uint256",
					"name": "",
					"type": "uint256"
				}
			],
			"stateMutability": "view",
			"type": "function"
		},
		{
			"inputs": [
				{
					"internalType": "uint256",
					"name": "assets",
					"type": "uint256"
				}
			],
			"name": "previewDeposit",
			"outputs": [
				{
					"internalType": "uint256",
					"name": "",
					"type": "uint256"
				}
			],
			"stateMutability": "view",
			"type": "function"
		},
		{
			"inputs": [
				{
					"internalType": "uint256",
					"name": "shares",
					"type": "uint256"
				}
			],
			"name": "previewMint",
			"outputs": [
				{
					"internalType": "uint256",
					"name": "",
					"type": "uint256"
				}
			],
			"stateMutability": "view",
			"type": "function"
		},
		{
			"inputs": [
				{
					"internalType": "uint256",
					"name": "shares",
					"type": "uint256"
				}
			],
			"name": "previewRedeem",
			"outputs": [
				{
					"internalType": "uint256",
					"name": "",
					"type": "uint256"
				}
			],
			"stateMutability": "view",
			"type": "function"
		},
		{
			"inputs": [
				{
					"internalType": "uint256",
					"name": "assets",
					"type": "uint256"
				}
			],
			"name": "previewWithdraw",
			"outputs": [
				{
					"internalType": "uint256",
					"name": "",
					"type": "uint256"
				}
			],
			"stateMutability": "view",
			"type": "function"
		},
		{
			"inputs": [],
			"name": "rebalance",
			"outputs": [],
			"stateMutability": "nonpayable",
			"type": "function"
		},
		{
			"inputs": [
				{
					"internalType": "uint256",
					"name": "shares",
					"type": "uint256"
				},
				{
					"internalType": "address",
					"name": "receiver",
					"type": "address"
				},
				{
					"internalType": "address",
					"name": "owner",
					"type": "address"
				}
			],
			"name": "redeem",
			"outputs": [
				{
					"internalType": "uint256",
					"name": "assets",
					"type": "uint256"
				}
			],
			"stateMutability": "nonpayable",
			"type": "function"
		},
		{
			"inputs": [
				{
					"internalType": "uint256",
					"name": "index",
					"type": "uint256"
				}
			],
			"name": "removeStrategy",
			"outputs": [],
			"stateMutability": "nonpayable",
			"type": "function"
		},
		{
			"inputs": [],
			"name": "renounceOwnership",
			"outputs": [],
			"stateMutability": "nonpayable",
			"type": "function"
		},
		{
			"inputs": [
				{
					"internalType": "address",
					"name": "_feeRecipient",
					"type": "address"
				}
			],
			"name": "setFeeRecipient",
			"outputs": [],
			"stateMutability": "nonpayable",
			"type": "function"
		},
		{
			"inputs": [
				{
					"internalType": "address",
					"name": "operator",
					"type": "address"
				},
				{
					"internalType": "bool",
					"name": "verified",
					"type": "bool"
				}
			],
			"name": "setNitroliteOperator",
			"outputs": [],
			"stateMutability": "nonpayable",
			"type": "function"
		},
		{
			"inputs": [
				{
					"internalType": "uint256",
					"name": "_feeBps",
					"type": "uint256"
				}
			],
			"name": "setPerformanceFee",
			"outputs": [],
			"stateMutability": "nonpayable",
			"type": "function"
		},
		{
			"inputs": [
				{
					"internalType": "uint8",
					"name": "riskTier",
					"type": "uint8"
				},
				{
					"internalType": "uint256[]",
					"name": "indices",
					"type": "uint256[]"
				},
				{
					"internalType": "uint8[]",
					"name": "allocations",
					"type": "uint8[]"
				}
			],
			"name": "settleRebalance",
			"outputs": [],
			"stateMutability": "nonpayable",
			"type": "function"
		},
		{
			"inputs": [
				{
					"internalType": "address",
					"name": "user",
					"type": "address"
				},
				{
					"internalType": "uint256",
					"name": "amount",
					"type": "uint256"
				},
				{
					"internalType": "bool",
					"name": "isWithdraw",
					"type": "bool"
				}
			],
			"name": "settleTransfer",
			"outputs": [],
			"stateMutability": "nonpayable",
			"type": "function"
		},
		{
			"inputs": [
				{
					"internalType": "uint256",
					"name": "",
					"type": "uint256"
				}
			],
			"name": "strategies",
			"outputs": [
				{
					"internalType": "address",
					"name": "strategy",
					"type": "address"
				},
				{
					"internalType": "uint16",
					"name": "allocationBps",
					"type": "uint16"
				},
				{
					"internalType": "bool",
					"name": "active",
					"type": "bool"
				}
			],
			"stateMutability": "view",
			"type": "function"
		},
		{
			"inputs": [],
			"name": "symbol",
			"outputs": [
				{
					"internalType": "string",
					"name": "",
					"type": "string"
				}
			],
			"stateMutability": "view",
			"type": "function"
		},
		{
			"inputs": [],
			"name": "totalAssets",
			"outputs": [
				{
					"internalType": "uint256",
					"name": "",
					"type": "uint256"
				}
			],
			"stateMutability": "view",
			"type": "function"
		},
		{
			"inputs": [],
			"name": "totalHarvested",
			"outputs": [
				{
					"internalType": "uint256",
					"name": "",
					"type": "uint256"
				}
			],
			"stateMutability": "view",
			"type": "function"
		},
		{
			"inputs": [],
			"name": "totalSupply",
			"outputs": [
				{
					"internalType": "uint256",
					"name": "",
					"type": "uint256"
				}
			],
			"stateMutability": "view",
			"type": "function"
		},
		{
			"inputs": [
				{
					"internalType": "address",
					"name": "to",
					"type": "address"
				},
				{
					"internalType": "uint256",
					"name": "value",
					"type": "uint256"
				}
			],
			"name": "transfer",
			"outputs": [
				{
					"internalType": "bool",
					"name": "",
					"type": "bool"
				}
			],
			"stateMutability": "nonpayable",
			"type": "function"
		},
		{
			"inputs": [
				{
					"internalType": "address",
					"name": "from",
					"type": "address"
				},
				{
					"internalType": "address",
					"name": "to",
					"type": "address"
				},
				{
					"internalType": "uint256",
					"name": "value",
					"type": "uint256"
				}
			],
			"name": "transferFrom",
			"outputs": [
				{
					"internalType": "bool",
					"name": "",
					"type": "bool"
				}
			],
			"stateMutability": "nonpayable",
			"type": "function"
		},
		{
			"inputs": [
				{
					"internalType": "address",
					"name": "newOwner",
					"type": "address"
				}
			],
			"name": "transferOwnership",
			"outputs": [],
			"stateMutability": "nonpayable",
			"type": "function"
		},
		{
			"inputs": [
				{
					"internalType": "uint256[]",
					"name": "indices",
					"type": "uint256[]"
				},
				{
					"internalType": "uint16[]",
					"name": "allocations",
					"type": "uint16[]"
				}
			],
			"name": "updateAllocations",
			"outputs": [],
			"stateMutability": "nonpayable",
			"type": "function"
		},
		{
			"inputs": [
				{
					"internalType": "address",
					"name": "",
					"type": "address"
				}
			],
			"name": "verifiedNitroliteOperators",
			"outputs": [
				{
					"internalType": "bool",
					"name": "",
					"type": "bool"
				}
			],
			"stateMutability": "view",
			"type": "function"
		},
		{
			"inputs": [
				{
					"internalType": "uint256",
					"name": "assets",
					"type": "uint256"
				},
				{
					"internalType": "address",
					"name": "receiver",
					"type": "address"
				},
				{
					"internalType": "address",
					"name": "owner",
					"type": "address"
				}
			],
			"name": "withdraw",
			"outputs": [
				{
					"internalType": "uint256",
					"name": "shares",
					"type": "uint256"
				}
			],
			"stateMutability": "nonpayable",
			"type": "function"
		}
	]
}