{
	"data": {
		"bytecode": {
			"linkReferences": {},
			"object": "610120604052348015610010575f5ffd5b5060405161408d38038061408d83398181016040528101906100329190610475565b335f73ffffffffffffffffffffffffffffffffffffffff168173ffffffffffffffffffffffffffffffffffffffff16036100a3575f6040517f1e4fbdf700000000000000000000000000000000000000000000000000000000815260040161009a91906104fb565b60405180910390fd5b6100b28161032460201b60201c565b5060016100d16100c66103e560201b60201c565b61040e60201b60201c565b5f01819055505f73ffffffffffffffffffffffffffffffffffffffff168573ffffffffffffffffffffffffffffffffffffffff16148061013c57505f73ffffffffffffffffffffffffffffffffffffffff168473ffffffffffffffffffffffffffffffffffffffff16145b8061017257505f73ffffffffffffffffffffffffffffffffffffffff168373ffffffffffffffffffffffffffffffffffffffff16145b806101a857505f73ffffffffffffffffffffffffffffffffffffffff168273ffffffffffffffffffffffffffffffffffffffff16145b806101de57505f73ffffffffffffffffffffffffffffffffffffffff168173ffffffffffffffffffffffffffffffffffffffff16145b15610215576040517fe6c4247b00000000000000000000000000000000000000000000000000000000815260040160405180910390fd5b8473ffffffffffffffffffffffffffffffffffffffff1660808173ffffffffffffffffffffffffffffffffffffffff16815250508373ffffffffffffffffffffffffffffffffffffffff1660a08173ffffffffffffffffffffffffffffffffffffffff16815250508273ffffffffffffffffffffffffffffffffffffffff1660c08173ffffffffffffffffffffffffffffffffffffffff16815250508173ffffffffffffffffffffffffffffffffffffffff1660e08173ffffffffffffffffffffffffffffffffffffffff16815250508073ffffffffffffffffffffffffffffffffffffffff166101008173ffffffffffffffffffffffffffffffffffffffff16815250505050505050610514565b5f5f5f9054906101000a900473ffffffffffffffffffffffffffffffffffffffff169050815f5f6101000a81548173ffffffffffffffffffffffffffffffffffffffff021916908373ffffffffffffffffffffffffffffffffffffffff1602179055508173ffffffffffffffffffffffffffffffffffffffff168173ffffffffffffffffffffffffffffffffffffffff167f8be0079c531659141344cd1fd0a4f28419497f9722a3daafe3b4186f6b6457e060405160405180910390a35050565b5f7f9b779b17422d0df92223018b32b4d1fa46e071723d6817e2486d003becc55f005f1b905090565b5f819050919050565b5f5ffd5b5f73ffffffffffffffffffffffffffffffffffffffff82169050919050565b5f6104448261041b565b9050919050565b6104548161043a565b811461045e575f5ffd5b50565b5f8151905061046f8161044b565b92915050565b5f5f5f5f5f60a0868803121561048e5761048d610417565b5b5f61049b88828901610461565b95505060206104ac88828901610461565b94505060406104bd88828901610461565b93505060606104ce88828901610461565b92505060806104df88828901610461565b9150509295509295909350565b6104f58161043a565b82525050565b5f60208201905061050e5f8301846104ec565b92915050565b60805160a05160c05160e051610100516139bb6106d25f395f81816106d301528181610887015281816108f001528181610a3901528181610cd901528181610f3f0152818161135501528181611744015281816117ac01528181611af901528181611d450152818161205a0152818161252b01528181612a700152612ad801525f8181610611015281816108cf015281816109ac01528181610c2901528181610eb0015281816112a5015281816116330152818161169b01528181611a4801528181611c8c01528181611faa015281816123180152818161247a0152818161295f01526129c701525f8181610550015281816108ae0152818161091f01528181610b7a01528181610e21015281816111f6015281816115220152818161158a0152818161199801528181611bd301528181611efb01528181612259015281816123ca0152818161284e01526128b601525f8181610de601528181610ff5015281816114140152818161263001526126ff01525f81816107dd0152818161154401528181611655015281816117660152818161217e015281816127fc015281816128700152818161298101528181612a920152612c8e01526139bb5ff3fe608060405234801561000f575f5ffd5b506004361061012a575f3560e01c80637ebb8971116100ab5780639e79f7e71161006f5780639e79f7e714610337578063af3f5e2214610355578063b6b55f2514610385578063c89039c5146103b7578063f2fde38b146103d55761012a565b80637ebb89711461027b578063853828b6146102ab5780638da5cb5b146102c95780638febd76e146102e7578063996220eb146103055761012a565b8063613cf420116100f2578063613cf420146101f457806366c0757e14610228578063715018a614610246578063771aceef146102505780637d7c2a1c146102715761012a565b80631211540c1461012e5780632ca8ab4c1461015e57806344d00f821461017c57806359b9a6421461019c5780635b7c2dad146101bc575b5f5ffd5b6101486004803603810190610143919061321d565b6103f1565b6040516101559190613257565b60405180910390f35b610166610885565b60405161017391906132ea565b60405180910390f35b6101846108a9565b60405161019393929190613323565b60405180910390f35b6101a461091a565b6040516101b393929190613358565b60405180910390f35b6101d660048036038101906101d191906133b7565b610acf565b6040516101eb999897969594939291906133fa565b60405180910390f35b61020e600480360381019061020991906133b7565b610db2565b60405161021f959493929190613485565b60405180910390f35b610230610de4565b60405161023d91906134f6565b60405180910390f35b61024e610e08565b005b610258610e1b565b604051610268949392919061350f565b60405180910390f35b610279610feb565b005b610295600480360381019061029091906133b7565b611908565b6040516102a29190613257565b60405180910390f35b6102b3611e02565b6040516102c09190613257565b60405180910390f35b6102d1612230565b6040516102de9190613552565b60405180910390f35b6102ef612257565b6040516102fc91906132ea565b60405180910390f35b61031f600480360381019061031a91906133b7565b61227b565b60405161032e93929190613358565b60405180910390f35b61033f612316565b60405161034c91906132ea565b60405180910390f35b61036f600480360381019061036a91906133b7565b61233a565b60405161037c9190613257565b60405180910390f35b61039f600480360381019061039a919061321d565b6125ea565b6040516103ae93929190613358565b60405180910390f35b6103bf612c8c565b6040516103cc919061358b565b60405180910390f35b6103ef60048036038101906103ea91906133b7565b612cb0565b005b5f6103fa612d34565b5f821480610409575061271082115b15610440576040517f1f3b85d300000000000000000000000000000000000000000000000000000000815260040160405180910390fd5b5f60015f3373ffffffffffffffffffffffffffffffffffffffff1673ffffffffffffffffffffffffffffffffffffffff1681526020019081526020015f2090505f815f015414801561049557505f8160010154145b80156104a457505f8160020154145b156104db576040517fabf0f03400000000000000000000000000000000000000000000000000000000815260040160405180910390fd5b5f61271084835f01546104ee91906135d1565b6104f8919061363f565b90505f61271085846001015461050e91906135d1565b610518919061363f565b90505f61271086856002015461052e91906135d1565b610538919061363f565b90505f5f90505f5f90505f5f90505f861115610607577f000000000000000000000000000000000000000000000000000000000000000073ffffffffffffffffffffffffffffffffffffffff1663ba0876528730306040518463ffffffff1660e01b81526004016105ab9392919061366f565b6020604051808303815f875af11580156105c7573d5f5f3e3d5ffd5b505050506040513d601f19601f820116820180604052508101906105eb91906136b8565b925085875f015f8282546105ff91906136e3565b925050819055505b5f8511156106c9577f000000000000000000000000000000000000000000000000000000000000000073ffffffffffffffffffffffffffffffffffffffff1663ba0876528630306040518463ffffffff1660e01b815260040161066c9392919061366f565b6020604051808303815f875af1158015610688573d5f5f3e3d5ffd5b505050506040513d601f19601f820116820180604052508101906106ac91906136b8565b915084876001015f8282546106c191906136e3565b925050819055505b5f84111561078b577f000000000000000000000000000000000000000000000000000000000000000073ffffffffffffffffffffffffffffffffffffffff1663ba0876528530306040518463ffffffff1660e01b815260040161072e9392919061366f565b6020604051808303815f875af115801561074a573d5f5f3e3d5ffd5b505050506040513d601f19601f8201168201806040525081019061076e91906136b8565b905083876002015f82825461078391906136e3565b925050819055505b8082846107989190613716565b6107a29190613716565b9750612710896127106107b591906136e3565b88600301546107c491906135d1565b6107ce919061363f565b876003018190555061082133897f000000000000000000000000000000000000000000000000000000000000000073ffffffffffffffffffffffffffffffffffffffff16612d569092919063ffffffff16565b3373ffffffffffffffffffffffffffffffffffffffff167f1fb6e47f83f7c0e64dd70b2c8ea3ff82b17d0ec3b1f704bf9ea38095a6bc7d588a8a604051610869929190613749565b60405180910390a250505050505050610880612da9565b919050565b7f000000000000000000000000000000000000000000000000000000000000000081565b5f5f5f7f00000000000000000000000000000000000000000000000000000000000000007f00000000000000000000000000000000000000000000000000000000000000007f0000000000000000000000000000000000000000000000000000000000000000925092509250909192565b5f5f5f7f000000000000000000000000000000000000000000000000000000000000000073ffffffffffffffffffffffffffffffffffffffff1663f19993d76040518163ffffffff1660e01b8152600401602060405180830381865afa158015610986573d5f5f3e3d5ffd5b505050506040513d601f19601f820116820180604052508101906109aa91906136b8565b7f000000000000000000000000000000000000000000000000000000000000000073ffffffffffffffffffffffffffffffffffffffff1663f19993d76040518163ffffffff1660e01b8152600401602060405180830381865afa158015610a13573d5f5f3e3d5ffd5b505050506040513d601f19601f82011682018060405250810190610a3791906136b8565b7f000000000000000000000000000000000000000000000000000000000000000073ffffffffffffffffffffffffffffffffffffffff1663f19993d76040518163ffffffff1660e01b8152600401602060405180830381865afa158015610aa0573d5f5f3e3d5ffd5b505050506040513d601f19601f82011682018060405250810190610ac491906136b8565b925092509250909192565b5f5f5f5f5f5f5f5f5f5f60015f8c73ffffffffffffffffffffffffffffffffffffffff1673ffffffffffffffffffffffffffffffffffffffff1681526020019081526020015f206040518060a00160405290815f82015481526020016001820154815260200160028201548152602001600382015481526020016004820154815250509050805f0151995080602001519850806040015197505f815f015111610b78575f610c14565b7f000000000000000000000000000000000000000000000000000000000000000073ffffffffffffffffffffffffffffffffffffffff166307a2d13a825f01516040518263ffffffff1660e01b8152600401610bd49190613257565b602060405180830381865afa158015610bef573d5f5f3e3d5ffd5b505050506040513d601f19601f82011682018060405250810190610c1391906136b8565b5b96505f816020015111610c27575f610cc4565b7f000000000000000000000000000000000000000000000000000000000000000073ffffffffffffffffffffffffffffffffffffffff166307a2d13a82602001516040518263ffffffff1660e01b8152600401610c849190613257565b602060405180830381865afa158015610c9f573d5f5f3e3d5ffd5b505050506040513d601f19601f82011682018060405250810190610cc391906136b8565b5b95505f816040015111610cd7575f610d74565b7f000000000000000000000000000000000000000000000000000000000000000073ffffffffffffffffffffffffffffffffffffffff166307a2d13a82604001516040518263ffffffff1660e01b8152600401610d349190613257565b602060405180830381865afa158015610d4f573d5f5f3e3d5ffd5b505050506040513d601f19601f82011682018060405250810190610d7391906136b8565b5b9450848688610d839190613716565b610d8d9190613716565b9350806060015192508284610da29190613770565b9150509193959799909294969850565b6001602052805f5260405f205f91509050805f0154908060010154908060020154908060030154908060040154905085565b7f000000000000000000000000000000000000000000000000000000000000000081565b610e10612dc3565b610e195f612e4a565b565b5f5f5f5f7f000000000000000000000000000000000000000000000000000000000000000073ffffffffffffffffffffffffffffffffffffffff166301e1d1146040518163ffffffff1660e01b8152600401602060405180830381865afa158015610e88573d5f5f3e3d5ffd5b505050506040513d601f19601f82011682018060405250810190610eac91906136b8565b92507f000000000000000000000000000000000000000000000000000000000000000073ffffffffffffffffffffffffffffffffffffffff166301e1d1146040518163ffffffff1660e01b8152600401602060405180830381865afa158015610f17573d5f5f3e3d5ffd5b505050506040513d601f19601f82011682018060405250810190610f3b91906136b8565b91507f000000000000000000000000000000000000000000000000000000000000000073ffffffffffffffffffffffffffffffffffffffff166301e1d1146040518163ffffffff1660e01b8152600401602060405180830381865afa158015610fa6573d5f5f3e3d5ffd5b505050506040513d601f19601f82011682018060405250810190610fca91906136b8565b9050808284610fd99190613716565b610fe39190613716565b935090919293565b610ff3612d34565b7f000000000000000000000000000000000000000000000000000000000000000073ffffffffffffffffffffffffffffffffffffffff1663a787c80b336040518263ffffffff1660e01b815260040161104c9190613552565b602060405180830381865afa158015611067573d5f5f3e3d5ffd5b505050506040513d601f19601f8201168201806040525081019061108b91906137e5565b6110c1576040517f6f86092700000000000000000000000000000000000000000000000000000000815260040160405180910390fd5b5f60015f3373ffffffffffffffffffffffffffffffffffffffff1673ffffffffffffffffffffffffffffffffffffffff1681526020019081526020015f206040518060a00160405290815f820154815260200160018201548152602001600282015481526020016003820154815260200160048201548152505090505f815f015114801561115257505f8160200151145b801561116157505f8160400151145b15611198576040517fabf0f03400000000000000000000000000000000000000000000000000000000815260040160405180910390fd5b5f6111a23361233a565b90505f81036111dd576040517f1f2a200500000000000000000000000000000000000000000000000000000000815260040160405180910390fd5b5f5f90505f5f90505f5f90505f855f01511115611297577f000000000000000000000000000000000000000000000000000000000000000073ffffffffffffffffffffffffffffffffffffffff1663ba087652865f015130306040518463ffffffff1660e01b81526004016112549392919061366f565b6020604051808303815f875af1158015611270573d5f5f3e3d5ffd5b505050506040513d601f19601f8201168201806040525081019061129491906136b8565b92505b5f85602001511115611347577f000000000000000000000000000000000000000000000000000000000000000073ffffffffffffffffffffffffffffffffffffffff1663ba087652866020015130306040518463ffffffff1660e01b81526004016113049392919061366f565b6020604051808303815f875af1158015611320573d5f5f3e3d5ffd5b505050506040513d601f19601f8201168201806040525081019061134491906136b8565b91505b5f856040015111156113f7577f000000000000000000000000000000000000000000000000000000000000000073ffffffffffffffffffffffffffffffffffffffff1663ba087652866040015130306040518463ffffffff1660e01b81526004016113b49392919061366f565b6020604051808303815f875af11580156113d0573d5f5f3e3d5ffd5b505050506040513d601f19601f820116820180604052508101906113f491906136b8565b90505b5f8183856114059190613716565b61140f9190613716565b90505f7f000000000000000000000000000000000000000000000000000000000000000073ffffffffffffffffffffffffffffffffffffffff1663baf1e57f336040518263ffffffff1660e01b815260040161146b9190613552565b606060405180830381865afa158015611486573d5f5f3e3d5ffd5b505050506040513d601f19601f820116820180604052508101906114aa9190613933565b90505f6064825f015160ff16846114c191906135d1565b6114cb919061363f565b90505f6064836020015160ff16856114e391906135d1565b6114ed919061363f565b90505f8183866114fd91906136e3565b61150791906136e3565b90505f5f90505f5f90505f5f90505f861115611626576115887f0000000000000000000000000000000000000000000000000000000000000000877f000000000000000000000000000000000000000000000000000000000000000073ffffffffffffffffffffffffffffffffffffffff16612f0b9092919063ffffffff16565b7f000000000000000000000000000000000000000000000000000000000000000073ffffffffffffffffffffffffffffffffffffffff16636e553f6587306040518363ffffffff1660e01b81526004016115e392919061395e565b6020604051808303815f875af11580156115ff573d5f5f3e3d5ffd5b505050506040513d601f19601f8201168201806040525081019061162391906136b8565b92505b5f851115611737576116997f0000000000000000000000000000000000000000000000000000000000000000867f000000000000000000000000000000000000000000000000000000000000000073ffffffffffffffffffffffffffffffffffffffff16612f0b9092919063ffffffff16565b7f000000000000000000000000000000000000000000000000000000000000000073ffffffffffffffffffffffffffffffffffffffff16636e553f6586306040518363ffffffff1660e01b81526004016116f492919061395e565b6020604051808303815f875af1158015611710573d5f5f3e3d5ffd5b505050506040513d601f19601f8201168201806040525081019061173491906136b8565b91505b5f841115611848576117aa7f0000000000000000000000000000000000000000000000000000000000000000857f000000000000000000000000000000000000000000000000000000000000000073ffffffffffffffffffffffffffffffffffffffff16612f0b9092919063ffffffff16565b7f000000000000000000000000000000000000000000000000000000000000000073ffffffffffffffffffffffffffffffffffffffff16636e553f6585306040518363ffffffff1660e01b815260040161180592919061395e565b6020604051808303815f875af1158015611821573d5f5f3e3d5ffd5b505050506040513d601f19601f8201168201806040525081019061184591906136b8565b90505b5f60015f3373ffffffffffffffffffffffffffffffffffffffff1673ffffffffffffffffffffffffffffffffffffffff1681526020019081526020015f20905083815f01819055508281600101819055508181600201819055503373ffffffffffffffffffffffffffffffffffffffff167f1427d1942829759938581ce754fd0f7f116bfb7a4b77f80f0cb32cd62c2138c7426040516118e89190613257565b60405180910390a25050505050505050505050505050611906612da9565b565b5f5f60015f8473ffffffffffffffffffffffffffffffffffffffff1673ffffffffffffffffffffffffffffffffffffffff1681526020019081526020015f206040518060a00160405290815f820154815260200160018201548152602001600282015481526020016003820154815260200160048201548152505090505f5f825f015111611996575f611a32565b7f000000000000000000000000000000000000000000000000000000000000000073ffffffffffffffffffffffffffffffffffffffff166307a2d13a835f01516040518263ffffffff1660e01b81526004016119f29190613257565b602060405180830381865afa158015611a0d573d5f5f3e3d5ffd5b505050506040513d601f19601f82011682018060405250810190611a3191906136b8565b5b90505f5f836020015111611a46575f611ae3565b7f000000000000000000000000000000000000000000000000000000000000000073ffffffffffffffffffffffffffffffffffffffff166307a2d13a84602001516040518263ffffffff1660e01b8152600401611aa39190613257565b602060405180830381865afa158015611abe573d5f5f3e3d5ffd5b505050506040513d601f19601f82011682018060405250810190611ae291906136b8565b5b90505f5f846040015111611af7575f611b94565b7f000000000000000000000000000000000000000000000000000000000000000073ffffffffffffffffffffffffffffffffffffffff166307a2d13a85604001516040518263ffffffff1660e01b8152600401611b549190613257565b602060405180830381865afa158015611b6f573d5f5f3e3d5ffd5b505050506040513d601f19601f82011682018060405250810190611b9391906136b8565b5b90505f818385611ba49190613716565b611bae9190613716565b90505f8103611bc4575f95505050505050611dfd565b5f5f90505f851115611c8157817f000000000000000000000000000000000000000000000000000000000000000073ffffffffffffffffffffffffffffffffffffffff1663f19993d76040518163ffffffff1660e01b8152600401602060405180830381865afa158015611c3a573d5f5f3e3d5ffd5b505050506040513d601f19601f82011682018060405250810190611c5e91906136b8565b86611c6991906135d1565b611c73919061363f565b81611c7e9190613716565b90505b5f841115611d3a57817f000000000000000000000000000000000000000000000000000000000000000073ffffffffffffffffffffffffffffffffffffffff1663f19993d76040518163ffffffff1660e01b8152600401602060405180830381865afa158015611cf3573d5f5f3e3d5ffd5b505050506040513d601f19601f82011682018060405250810190611d1791906136b8565b85611d2291906135d1565b611d2c919061363f565b81611d379190613716565b90505b5f831115611df357817f000000000000000000000000000000000000000000000000000000000000000073ffffffffffffffffffffffffffffffffffffffff1663f19993d76040518163ffffffff1660e01b8152600401602060405180830381865afa158015611dac573d5f5f3e3d5ffd5b505050506040513d601f19601f82011682018060405250810190611dd091906136b8565b84611ddb91906135d1565b611de5919061363f565b81611df09190613716565b90505b8096505050505050505b919050565b5f611e0b612d34565b5f60015f3373ffffffffffffffffffffffffffffffffffffffff1673ffffffffffffffffffffffffffffffffffffffff1681526020019081526020015f206040518060a00160405290815f820154815260200160018201548152602001600282015481526020016003820154815260200160048201548152505090505f815f0151148015611e9c57505f8160200151145b8015611eab57505f8160400151145b15611ee2576040517fabf0f03400000000000000000000000000000000000000000000000000000000815260040160405180910390fd5b5f5f90505f5f90505f5f90505f845f01511115611f9c577f000000000000000000000000000000000000000000000000000000000000000073ffffffffffffffffffffffffffffffffffffffff1663ba087652855f015130306040518463ffffffff1660e01b8152600401611f599392919061366f565b6020604051808303815f875af1158015611f75573d5f5f3e3d5ffd5b505050506040513d601f19601f82011682018060405250810190611f9991906136b8565b92505b5f8460200151111561204c577f000000000000000000000000000000000000000000000000000000000000000073ffffffffffffffffffffffffffffffffffffffff1663ba087652856020015130306040518463ffffffff1660e01b81526004016120099392919061366f565b6020604051808303815f875af1158015612025573d5f5f3e3d5ffd5b505050506040513d601f19601f8201168201806040525081019061204991906136b8565b91505b5f846040015111156120fc577f000000000000000000000000000000000000000000000000000000000000000073ffffffffffffffffffffffffffffffffffffffff1663ba087652856040015130306040518463ffffffff1660e01b81526004016120b99392919061366f565b6020604051808303815f875af11580156120d5573d5f5f3e3d5ffd5b505050506040513d601f19601f820116820180604052508101906120f991906136b8565b90505b8082846121099190613716565b6121139190613716565b945060015f3373ffffffffffffffffffffffffffffffffffffffff1673ffffffffffffffffffffffffffffffffffffffff1681526020019081526020015f205f5f82015f9055600182015f9055600282015f9055600382015f9055600482015f905550506121c233867f000000000000000000000000000000000000000000000000000000000000000073ffffffffffffffffffffffffffffffffffffffff16612d569092919063ffffffff16565b3373ffffffffffffffffffffffffffffffffffffffff167f94ffd6b85c71b847775c89ef6496b93cee961bdc6ff827fd117f174f06f745ae86865f015187602001518860400151604051612219949392919061350f565b60405180910390a25050505061222d612da9565b90565b5f5f5f9054906101000a900473ffffffffffffffffffffffffffffffffffffffff16905090565b7f000000000000000000000000000000000000000000000000000000000000000081565b5f5f5f5f60015f8673ffffffffffffffffffffffffffffffffffffffff1673ffffffffffffffffffffffffffffffffffffffff1681526020019081526020015f206040518060a00160405290815f82015481526020016001820154815260200160028201548152602001600382015481526020016004820154815250509050805f015181602001518260400151935093509350509193909250565b7f000000000000000000000000000000000000000000000000000000000000000081565b5f5f60015f8473ffffffffffffffffffffffffffffffffffffffff1673ffffffffffffffffffffffffffffffffffffffff1681526020019081526020015f206040518060a00160405290815f820154815260200160018201548152602001600282015481526020016003820154815260200160048201548152505090505f5f825f0151116123c8575f612464565b7f000000000000000000000000000000000000000000000000000000000000000073ffffffffffffffffffffffffffffffffffffffff166307a2d13a835f01516040518263ffffffff1660e01b81526004016124249190613257565b602060405180830381865afa15801561243f573d5f5f3e3d5ffd5b505050506040513d601f19601f8201168201806040525081019061246391906136b8565b5b90505f5f836020015111612478575f612515565b7f000000000000000000000000000000000000000000000000000000000000000073ffffffffffffffffffffffffffffffffffffffff166307a2d13a84602001516040518263ffffffff1660e01b81526004016124d59190613257565b602060405180830381865afa1580156124f0573d5f5f3e3d5ffd5b505050506040513d601f19601f8201168201806040525081019061251491906136b8565b5b90505f5f846040015111612529575f6125c6565b7f000000000000000000000000000000000000000000000000000000000000000073ffffffffffffffffffffffffffffffffffffffff166307a2d13a85604001516040518263ffffffff1660e01b81526004016125869190613257565b602060405180830381865afa1580156125a1573d5f5f3e3d5ffd5b505050506040513d601f19601f820116820180604052508101906125c591906136b8565b5b90508082846125d59190613716565b6125df9190613716565b945050505050919050565b5f5f5f6125f5612d34565b5f840361262e576040517f1f2a200500000000000000000000000000000000000000000000000000000000815260040160405180910390fd5b7f000000000000000000000000000000000000000000000000000000000000000073ffffffffffffffffffffffffffffffffffffffff1663a787c80b336040518263ffffffff1660e01b81526004016126879190613552565b602060405180830381865afa1580156126a2573d5f5f3e3d5ffd5b505050506040513d601f19601f820116820180604052508101906126c691906137e5565b6126fc576040517f6f86092700000000000000000000000000000000000000000000000000000000815260040160405180910390fd5b5f7f000000000000000000000000000000000000000000000000000000000000000073ffffffffffffffffffffffffffffffffffffffff1663baf1e57f336040518263ffffffff1660e01b81526004016127569190613552565b606060405180830381865afa158015612771573d5f5f3e3d5ffd5b505050506040513d601f19601f820116820180604052508101906127959190613933565b90505f6064825f015160ff16876127ac91906135d1565b6127b6919061363f565b90505f6064836020015160ff16886127ce91906135d1565b6127d8919061363f565b90505f8183896127e891906136e3565b6127f291906136e3565b905061284133308a7f000000000000000000000000000000000000000000000000000000000000000073ffffffffffffffffffffffffffffffffffffffff16612fbd909392919063ffffffff16565b5f831115612952576128b47f0000000000000000000000000000000000000000000000000000000000000000847f000000000000000000000000000000000000000000000000000000000000000073ffffffffffffffffffffffffffffffffffffffff16612f0b9092919063ffffffff16565b7f000000000000000000000000000000000000000000000000000000000000000073ffffffffffffffffffffffffffffffffffffffff16636e553f6584306040518363ffffffff1660e01b815260040161290f92919061395e565b6020604051808303815f875af115801561292b573d5f5f3e3d5ffd5b505050506040513d601f19601f8201168201806040525081019061294f91906136b8565b96505b5f821115612a63576129c57f0000000000000000000000000000000000000000000000000000000000000000837f000000000000000000000000000000000000000000000000000000000000000073ffffffffffffffffffffffffffffffffffffffff16612f0b9092919063ffffffff16565b7f000000000000000000000000000000000000000000000000000000000000000073ffffffffffffffffffffffffffffffffffffffff16636e553f6583306040518363ffffffff1660e01b8152600401612a2092919061395e565b6020604051808303815f875af1158015612a3c573d5f5f3e3d5ffd5b505050506040513d601f19601f82011682018060405250810190612a6091906136b8565b95505b5f811115612b7457612ad67f0000000000000000000000000000000000000000000000000000000000000000827f000000000000000000000000000000000000000000000000000000000000000073ffffffffffffffffffffffffffffffffffffffff16612f0b9092919063ffffffff16565b7f000000000000000000000000000000000000000000000000000000000000000073ffffffffffffffffffffffffffffffffffffffff16636e553f6582306040518363ffffffff1660e01b8152600401612b3192919061395e565b6020604051808303815f875af1158015612b4d573d5f5f3e3d5ffd5b505050506040513d601f19601f82011682018060405250810190612b7191906136b8565b94505b5f60015f3373ffffffffffffffffffffffffffffffffffffffff1673ffffffffffffffffffffffffffffffffffffffff1681526020019081526020015f20905087815f015f828254612bc69190613716565b9250508190555086816001015f828254612be09190613716565b9250508190555085816002015f828254612bfa9190613716565b9250508190555088816003015f828254612c149190613716565b925050819055504281600401819055503373ffffffffffffffffffffffffffffffffffffffff167fe3b53cd1a44fbf11535e145d80b8ef1ed6d57a73bf5daa7e939b6b01657d65498a8a8a8a604051612c70949392919061350f565b60405180910390a25050505050612c85612da9565b9193909250565b7f000000000000000000000000000000000000000000000000000000000000000081565b612cb8612dc3565b5f73ffffffffffffffffffffffffffffffffffffffff168173ffffffffffffffffffffffffffffffffffffffff1603612d28575f6040517f1e4fbdf7000000000000000000000000000000000000000000000000000000008152600401612d1f9190613552565b60405180910390fd5b612d3181612e4a565b50565b612d3c613012565b6002612d4e612d49613053565b61307c565b5f0181905550565b612d638383836001613085565b612da457826040517f5274afe7000000000000000000000000000000000000000000000000000000008152600401612d9b9190613552565b60405180910390fd5b505050565b6001612dbb612db6613053565b61307c565b5f0181905550565b612dcb6130e7565b73ffffffffffffffffffffffffffffffffffffffff16612de9612230565b73ffffffffffffffffffffffffffffffffffffffff1614612e4857612e0c6130e7565b6040517f118cdaa7000000000000000000000000000000000000000000000000000000008152600401612e3f9190613552565b60405180910390fd5b565b5f5f5f9054906101000a900473ffffffffffffffffffffffffffffffffffffffff169050815f5f6101000a81548173ffffffffffffffffffffffffffffffffffffffff021916908373ffffffffffffffffffffffffffffffffffffffff1602179055508173ffffffffffffffffffffffffffffffffffffffff168173ffffffffffffffffffffffffffffffffffffffff167f8be0079c531659141344cd1fd0a4f28419497f9722a3daafe3b4186f6b6457e060405160405180910390a35050565b612f178383835f6130ee565b612fb857612f2883835f60016130ee565b612f6957826040517f5274afe7000000000000000000000000000000000000000000000000000000008152600401612f609190613552565b60405180910390fd5b612f7683838360016130ee565b612fb757826040517f5274afe7000000000000000000000000000000000000000000000000000000008152600401612fae9190613552565b60405180910390fd5b5b505050565b612fcb848484846001613150565b61300c57836040517f5274afe70000000000000000000000000000000000000000000000000000000081526004016130039190613552565b60405180910390fd5b50505050565b61301a6131c1565b15613051576040517f3ee5aeb500000000000000000000000000000000000000000000000000000000815260040160405180910390fd5b565b5f7f9b779b17422d0df92223018b32b4d1fa46e071723d6817e2486d003becc55f005f1b905090565b5f819050919050565b5f5f63a9059cbb60e01b9050604051815f525f1960601c86166004528460245260205f60445f5f8b5af1925060015f511483166130d95783831516156130cd573d5f823e3d81fd5b5f873b113d1516831692505b806040525050949350505050565b5f33905090565b5f5f63095ea7b360e01b9050604051815f525f1960601c86166004528460245260205f60445f5f8b5af1925060015f51148316613142578383151615613136573d5f823e3d81fd5b5f873b113d1516831692505b806040525050949350505050565b5f5f6323b872dd60e01b9050604051815f525f1960601c87166004525f1960601c86166024528460445260205f60645f5f8c5af1925060015f511483166131ae5783831516156131a2573d5f823e3d81fd5b5f883b113d1516831692505b806040525f606052505095945050505050565b5f60026131d46131cf613053565b61307c565b5f015414905090565b5f604051905090565b5f5ffd5b5f819050919050565b6131fc816131ea565b8114613206575f5ffd5b50565b5f81359050613217816131f3565b92915050565b5f60208284031215613232576132316131e6565b5b5f61323f84828501613209565b91505092915050565b613251816131ea565b82525050565b5f60208201905061326a5f830184613248565b92915050565b5f73ffffffffffffffffffffffffffffffffffffffff82169050919050565b5f819050919050565b5f6132b26132ad6132a884613270565b61328f565b613270565b9050919050565b5f6132c382613298565b9050919050565b5f6132d4826132b9565b9050919050565b6132e4816132ca565b82525050565b5f6020820190506132fd5f8301846132db565b92915050565b5f61330d82613270565b9050919050565b61331d81613303565b82525050565b5f6060820190506133365f830186613314565b6133436020830185613314565b6133506040830184613314565b949350505050565b5f60608201905061336b5f830186613248565b6133786020830185613248565b6133856040830184613248565b949350505050565b61339681613303565b81146133a0575f5ffd5b50565b5f813590506133b18161338d565b92915050565b5f602082840312156133cc576133cb6131e6565b5b5f6133d9848285016133a3565b91505092915050565b5f819050919050565b6133f4816133e2565b82525050565b5f6101208201905061340e5f83018c613248565b61341b602083018b613248565b613428604083018a613248565b6134356060830189613248565b6134426080830188613248565b61344f60a0830187613248565b61345c60c0830186613248565b61346960e0830185613248565b6134776101008301846133eb565b9a9950505050505050505050565b5f60a0820190506134985f830188613248565b6134a56020830187613248565b6134b26040830186613248565b6134bf6060830185613248565b6134cc6080830184613248565b9695505050505050565b5f6134e0826132b9565b9050919050565b6134f0816134d6565b82525050565b5f6020820190506135095f8301846134e7565b92915050565b5f6080820190506135225f830187613248565b61352f6020830186613248565b61353c6040830185613248565b6135496060830184613248565b95945050505050565b5f6020820190506135655f830184613314565b92915050565b5f613575826132b9565b9050919050565b6135858161356b565b82525050565b5f60208201905061359e5f83018461357c565b92915050565b7f4e487b71000000000000000000000000000000000000000000000000000000005f52601160045260245ffd5b5f6135db826131ea565b91506135e6836131ea565b92508282026135f4816131ea565b9150828204841483151761360b5761360a6135a4565b5b5092915050565b7f4e487b71000000000000000000000000000000000000000000000000000000005f52601260045260245ffd5b5f613649826131ea565b9150613654836131ea565b92508261366457613663613612565b5b828204905092915050565b5f6060820190506136825f830186613248565b61368f6020830185613314565b61369c6040830184613314565b949350505050565b5f815190506136b2816131f3565b92915050565b5f602082840312156136cd576136cc6131e6565b5b5f6136da848285016136a4565b91505092915050565b5f6136ed826131ea565b91506136f8836131ea565b92508282039050818111156137105761370f6135a4565b5b92915050565b5f613720826131ea565b915061372b836131ea565b9250828201905080821115613743576137426135a4565b5b92915050565b5f60408201905061375c5f830185613248565b6137696020830184613248565b9392505050565b5f61377a826133e2565b9150613785836133e2565b925082820390508181125f8412168282135f8512151617156137aa576137a96135a4565b5b92915050565b5f8115159050919050565b6137c4816137b0565b81146137ce575f5ffd5b50565b5f815190506137df816137bb565b92915050565b5f602082840312156137fa576137f96131e6565b5b5f613807848285016137d1565b91505092915050565b5f5ffd5b5f601f19601f8301169050919050565b7f4e487b71000000000000000000000000000000000000000000000000000000005f52604160045260245ffd5b61385a82613814565b810181811067ffffffffffffffff8211171561387957613878613824565b5b80604052505050565b5f61388b6131dd565b90506138978282613851565b919050565b5f60ff82169050919050565b6138b18161389c565b81146138bb575f5ffd5b50565b5f815190506138cc816138a8565b92915050565b5f606082840312156138e7576138e6613810565b5b6138f16060613882565b90505f613900848285016138be565b5f830152506020613913848285016138be565b6020830152506040613927848285016138be565b60408301525092915050565b5f60608284031215613948576139476131e6565b5b5f613955848285016138d2565b91505092915050565b5f6040820190506139715f830185613248565b61397e6020830184613314565b939250505056fea2646970667358221220bff8290564dfea5f2d652f12b97b564b847cc5be39a579f77d727d1b70bd642664736f6c634300081e0033",
			"opcodes": "PUSH2 0x120 PUSH1 0x40 MSTORE CALLVALUE DUP1 ISZERO PUSH2 0x10 JUMPI PUSH0 PUSH0 REVERT JUMPDEST POP PUSH1 0x40 MLOAD PUSH2 0x408D CODESIZE SUB DUP1 PUSH2 0x408D DUP4 CODECOPY DUP2 DUP2 ADD PUSH1 0x40 MSTORE DUP2 ADD SWAP1 PUSH2 0x32 SWAP2 SWAP1 PUSH2 0x475 JUMP JUMPDEST CALLER PUSH0 PUSH20 0xFFFFFFFFFFFFFFFFFFFFFFFFFFFFFFFFFFFFFFFF AND DUP2 PUSH20 0xFFFFFFFFFFFFFFFFFFFFFFFFFFFFFFFFFFFFFFFF AND SUB PUSH2 0xA3 JUMPI PUSH0 PUSH1 0x40 MLOAD PUSH32 0x1E4FBDF700000000000000000000000000000000000000000000000000000000 DUP2 MSTORE PUSH1 0x4 ADD PUSH2 0x9A SWAP2 SWAP1 PUSH2 0x4FB JUMP JUMPDEST PUSH1 0x40 MLOAD DUP1 SWAP2 SUB SWAP1 REVERT JUMPDEST PUSH2 0xB2 DUP2 PUSH2 0x324 PUSH1 0x20 SHL PUSH1 0x20 SHR JUMP JUMPDEST POP PUSH1 0x1 PUSH2 0xD1 PUSH2 0xC6 PUSH2 0x3E5 PUSH1 0x20 SHL PUSH1 0x20 SHR JUMP JUMPDEST PUSH2 0x40E PUSH1 0x20 SHL PUSH1 0x20 SHR JUMP JUMPDEST PUSH0 ADD DUP2 SWAP1 SSTORE POP PUSH0 PUSH20 0xFFFFFFFFFFFFFFFFFFFFFFFFFFFFFFFFFFFFFFFF AND DUP6 PUSH20 0xFFFFFFFFFFFFFFFFFFFFFFFFFFFFFFFFFFFFFFFF AND EQ DUP1 PUSH2 0x13C JUMPI POP PUSH0 PUSH20 0xFFFFFFFFFFFFFFFFFFFFFFFFFFFFFFFFFFFFFFFF AND DUP5 PUSH20 0xFFFFFFFFFFFFFFFFFFFFFFFFFFFFFFFFFFFFFFFF AND EQ JUMPDEST DUP1 PUSH2 0x172 JUMPI POP PUSH0 PUSH20 0xFFFFFFFFFFFFFFFFFFFFFFFFFFFFFFFFFFFFFFFF AND DUP4 PUSH20 0xFFFFFFFFFFFFFFFFFFFFFFFFFFFFFFFFFFFFFFFF AND EQ JUMPDEST DUP1 PUSH2 0x1A8 JUMPI POP PUSH0 PUSH20 0xFFFFFFFFFFFFFFFFFFFFFFFFFFFFFFFFFFFFFFFF AND DUP3 PUSH20 0xFFFFFFFFFFFFFFFFFFFFFFFFFFFFFFFFFFFFFFFF AND EQ JUMPDEST DUP1 PUSH2 0x1DE JUMPI POP PUSH0 PUSH20 0xFFFFFFFFFFFFFFFFFFFFFFFFFFFFFFFFFFFFFFFF AND DUP2 PUSH20 0xFFFFFFFFFFFFFFFFFFFFFFFFFFFFFFFFFFFFFFFF AND EQ JUMPDEST ISZERO PUSH2 0x215 JUMPI PUSH1 0x40 MLOAD PUSH32 0xE6C4247B00000000000000000000000000000000000000000000000000000000 DUP2 MSTORE PUSH1 0x4 ADD PUSH1 0x40 MLOAD DUP1 SWAP2 SUB SWAP1 REVERT JUMPDEST DUP5 PUSH20 0xFFFFFFFFFFFFFFFFFFFFFFFFFFFFFFFFFFFFFFFF AND PUSH1 0x80 DUP2 PUSH20 0xFFFFFFFFFFFFFFFFFFFFFFFFFFFFFFFFFFFFFFFF AND DUP2 MSTORE POP POP DUP4 PUSH20 0xFFFFFFFFFFFFFFFFFFFFFFFFFFFFFFFFFFFFFFFF AND PUSH1 0xA0 DUP2 PUSH20 0xFFFFFFFFFFFFFFFFFFFFFFFFFFFFFFFFFFFFFFFF AND DUP2 MSTORE POP POP DUP3 PUSH20 0xFFFFFFFFFFFFFFFFFFFFFFFFFFFFFFFFFFFFFFFF AND PUSH1 0xC0 DUP2 PUSH20 0xFFFFFFFFFFFFFFFFFFFFFFFFFFFFFFFFFFFFFFFF AND DUP2 MSTORE POP POP DUP2 PUSH20 0xFFFFFFFFFFFFFFFFFFFFFFFFFFFFFFFFFFFFFFFF AND PUSH1 0xE0 DUP2 PUSH20 0xFFFFFFFFFFFFFFFFFFFFFFFFFFFFFFFFFFFFFFFF AND DUP2 MSTORE POP POP DUP1 PUSH20 0xFFFFFFFFFFFFFFFFFFFFFFFFFFFFFFFFFFFFFFFF AND PUSH2 0x100 DUP2 PUSH20 0xFFFFFFFFFFFFFFFFFFFFFFFFFFFFFFFFFFFFFFFF AND DUP2 MSTORE POP POP POP POP POP POP POP PUSH2 0x514 JUMP JUMPDEST PUSH0 PUSH0 PUSH0 SWAP1 SLOAD SWAP1 PUSH2 0x100 EXP SWAP1 DIV PUSH20 0xFFFFFFFFFFFFFFFFFFFFFFFFFFFFFFFFFFFFFFFF AND SWAP1 POP DUP2 PUSH0 PUSH0 PUSH2 0x100 EXP DUP2 SLOAD DUP2 PUSH20 0xFFFFFFFFFFFFFFFFFFFFFFFFFFFFFFFFFFFFFFFF MUL NOT AND SWAP1 DUP4 PUSH20 0xFFFFFFFFFFFFFFFFFFFFFFFFFFFFFFFFFFFFFFFF AND MUL OR SWAP1 SSTORE POP DUP2 PUSH20 0xFFFFFFFFFFFFFFFFFFFFFFFFFFFFFFFFFFFFFFFF AND DUP2 PUSH20 0xFFFFFFFFFFFFFFFFFFFFFFFFFFFFFFFFFFFFFFFF AND PUSH32 0x8BE0079C531659141344CD1FD0A4F28419497F9722A3DAAFE3B4186F6B6457E0 PUSH1 0x40 MLOAD PUSH1 0x40 MLOAD DUP1 SWAP2 SUB SWAP1 LOG3 POP POP JUMP JUMPDEST PUSH0 PUSH32 0x9B779B17422D0DF92223018B32B4D1FA46E071723D6817E2486D003BECC55F00 PUSH0 SHL SWAP1 POP SWAP1 JUMP JUMPDEST PUSH0 DUP2 SWAP1 POP SWAP2 SWAP1 POP JUMP JUMPDEST PUSH0 PUSH0 REVERT JUMPDEST PUSH0 PUSH20 0xFFFFFFFFFFFFFFFFFFFFFFFFFFFFFFFFFFFFFFFF DUP3 AND SWAP1 POP SWAP2 SWAP1 POP JUMP JUMPDEST PUSH0 PUSH2 0x444 DUP3 PUSH2 0x41B JUMP JUMPDEST SWAP1 POP SWAP2 SWAP1 POP JUMP JUMPDEST PUSH2 0x454 DUP2 PUSH2 0x43A JUMP JUMPDEST DUP2 EQ PUSH2 0x45E JUMPI PUSH0 PUSH0 REVERT JUMPDEST POP JUMP JUMPDEST PUSH0 DUP2 MLOAD SWAP1 POP PUSH2 0x46F DUP2 PUSH2 0x44B JUMP JUMPDEST SWAP3 SWAP2 POP POP JUMP JUMPDEST PUSH0 PUSH0 PUSH0 PUSH0 PUSH0 PUSH1 0xA0 DUP7 DUP9 SUB SLT ISZERO PUSH2 0x48E JUMPI PUSH2 0x48D PUSH2 0x417 JUMP JUMPDEST JUMPDEST PUSH0 PUSH2 0x49B DUP9 DUP3 DUP10 ADD PUSH2 0x461 JUMP JUMPDEST SWAP6 POP POP PUSH1 0x20 PUSH2 0x4AC DUP9 DUP3 DUP10 ADD PUSH2 0x461 JUMP JUMPDEST SWAP5 POP POP PUSH1 0x40 PUSH2 0x4BD DUP9 DUP3 DUP10 ADD PUSH2 0x461 JUMP JUMPDEST SWAP4 POP POP PUSH1 0x60 PUSH2 0x4CE DUP9 DUP3 DUP10 ADD PUSH2 0x461 JUMP JUMPDEST SWAP3 POP POP PUSH1 0x80 PUSH2 0x4DF DUP9 DUP3 DUP10 ADD PUSH2 0x461 JUMP JUMPDEST SWAP2 POP POP SWAP3 SWAP6 POP SWAP3 SWAP6 SWAP1 SWAP4 POP JUMP JUMPDEST PUSH2 0x4F5 DUP2 PUSH2 0x43A JUMP JUMPDEST DUP3 MSTORE POP POP JUMP JUMPDEST PUSH0 PUSH1 0x20 DUP3 ADD SWAP1 POP PUSH2 0x50E PUSH0 DUP4 ADD DUP5 PUSH2 0x4EC JUMP JUMPDEST SWAP3 SWAP2 POP POP JUMP JUMPDEST PUSH1 0x80 MLOAD PUSH1 0xA0 MLOAD PUSH1 0xC0 MLOAD PUSH1 0xE0 MLOAD PUSH2 0x100 MLOAD PUSH2 0x39BB PUSH2 0x6D2 PUSH0 CODECOPY PUSH0 DUP2 DUP2 PUSH2 0x6D3 ADD MSTORE DUP2 DUP2 PUSH2 0x887 ADD MSTORE DUP2 DUP2 PUSH2 0x8F0 ADD MSTORE DUP2 DUP2 PUSH2 0xA39 ADD MSTORE DUP2 DUP2 PUSH2 0xCD9 ADD MSTORE DUP2 DUP2 PUSH2 0xF3F ADD MSTORE DUP2 DUP2 PUSH2 0x1355 ADD MSTORE DUP2 DUP2 PUSH2 0x1744 ADD MSTORE DUP2 DUP2 PUSH2 0x17AC ADD MSTORE DUP2 DUP2 PUSH2 0x1AF9 ADD MSTORE DUP2 DUP2 PUSH2 0x1D45 ADD MSTORE DUP2 DUP2 PUSH2 0x205A ADD MSTORE DUP2 DUP2 PUSH2 0x252B ADD MSTORE DUP2 DUP2 PUSH2 0x2A70 ADD MSTORE PUSH2 0x2AD8 ADD MSTORE PUSH0 DUP2 DUP2 PUSH2 0x611 ADD MSTORE DUP2 DUP2 PUSH2 0x8CF ADD MSTORE DUP2 DUP2 PUSH2 0x9AC ADD MSTORE DUP2 DUP2 PUSH2 0xC29 ADD MSTORE DUP2 DUP2 PUSH2 0xEB0 ADD MSTORE DUP2 DUP2 PUSH2 0x12A5 ADD MSTORE DUP2 DUP2 PUSH2 0x1633 ADD MSTORE DUP2 DUP2 PUSH2 0x169B ADD MSTORE DUP2 DUP2 PUSH2 0x1A48 ADD MSTORE DUP2 DUP2 PUSH2 0x1C8C ADD MSTORE DUP2 DUP2 PUSH2 0x1FAA ADD MSTORE DUP2 DUP2 PUSH2 0x2318 ADD MSTORE DUP2 DUP2 PUSH2 0x247A ADD MSTORE DUP2 DUP2 PUSH2 0x295F ADD MSTORE PUSH2 0x29C7 ADD MSTORE PUSH0 DUP2 DUP2 PUSH2 0x550 ADD MSTORE DUP2 DUP2 PUSH2 0x8AE ADD MSTORE DUP2 DUP2 PUSH2 0x91F ADD MSTORE DUP2 DUP2 PUSH2 0xB7A ADD MSTORE DUP2 DUP2 PUSH2 0xE21 ADD MSTORE DUP2 DUP2 PUSH2 0x11F6 ADD MSTORE DUP2 DUP2 PUSH2 0x1522 ADD MSTORE DUP2 DUP2 PUSH2 0x158A ADD MSTORE DUP2 DUP2 PUSH2 0x1998 ADD MSTORE DUP2 DUP2 PUSH2 0x1BD3 ADD MSTORE DUP2 DUP2 PUSH2 0x1EFB ADD MSTORE DUP2 DUP2 PUSH2 0x2259 ADD MSTORE DUP2 DUP2 PUSH2 0x23CA ADD MSTORE DUP2 DUP2 PUSH2 0x284E ADD MSTORE PUSH2 0x28B6 ADD MSTORE PUSH0 DUP2 DUP2 PUSH2 0xDE6 ADD MSTORE DUP2 DUP2 PUSH2 0xFF5 ADD MSTORE DUP2 DUP2 PUSH2 0x1414 ADD MSTORE DUP2 DUP2 PUSH2 0x2630 ADD MSTORE PUSH2 0x26FF ADD MSTORE PUSH0 DUP2 DUP2 PUSH2 0x7DD ADD MSTORE DUP2 DUP2 PUSH2 0x1544 ADD MSTORE DUP2 DUP2 PUSH2 0x1655 ADD MSTORE DUP2 DUP2 PUSH2 0x1766 ADD MSTORE DUP2 DUP2 PUSH2 0x217E ADD MSTORE DUP2 DUP2 PUSH2 0x27FC ADD MSTORE DUP2 DUP2 PUSH2 0x2870 ADD MSTORE DUP2 DUP2 PUSH2 0x2981 ADD MSTORE DUP2 DUP2 PUSH2 0x2A92 ADD MSTORE PUSH2 0x2C8E ADD MSTORE PUSH2 0x39BB PUSH0 RETURN INVALID PUSH1 0x80 PUSH1 0x40 MSTORE CALLVALUE DUP1 ISZERO PUSH2 0xF JUMPI PUSH0 PUSH0 REVERT JUMPDEST POP PUSH1 0x4 CALLDATASIZE LT PUSH2 0x12A JUMPI PUSH0 CALLDATALOAD PUSH1 0xE0 SHR DUP1 PUSH4 0x7EBB8971 GT PUSH2 0xAB JUMPI DUP1 PUSH4 0x9E79F7E7 GT PUSH2 0x6F JUMPI DUP1 PUSH4 0x9E79F7E7 EQ PUSH2 0x337 JUMPI DUP1 PUSH4 0xAF3F5E22 EQ PUSH2 0x355 JUMPI DUP1 PUSH4 0xB6B55F25 EQ PUSH2 0x385 JUMPI DUP1 PUSH4 0xC89039C5 EQ PUSH2 0x3B7 JUMPI DUP1 PUSH4 0xF2FDE38B EQ PUSH2 0x3D5 JUMPI PUSH2 0x12A JUMP JUMPDEST DUP1 PUSH4 0x7EBB8971 EQ PUSH2 0x27B JUMPI DUP1 PUSH4 0x853828B6 EQ PUSH2 0x2AB JUMPI DUP1 PUSH4 0x8DA5CB5B EQ PUSH2 0x2C9 JUMPI DUP1 PUSH4 0x8FEBD76E EQ PUSH2 0x2E7 JUMPI DUP1 PUSH4 0x996220EB EQ PUSH2 0x305 JUMPI PUSH2 0x12A JUMP JUMPDEST DUP1 PUSH4 0x613CF420 GT PUSH2 0xF2 JUMPI DUP1 PUSH4 0x613CF420 EQ PUSH2 0x1F4 JUMPI DUP1 PUSH4 0x66C0757E EQ PUSH2 0x228 JUMPI DUP1 PUSH4 0x715018A6 EQ PUSH2 0x246 JUMPI DUP1 PUSH4 0x771ACEEF EQ PUSH2 0x250 JUMPI DUP1 PUSH4 0x7D7C2A1C EQ PUSH2 0x271 JUMPI PUSH2 0x12A JUMP JUMPDEST DUP1 PUSH4 0x1211540C EQ PUSH2 0x12E JUMPI DUP1 PUSH4 0x2CA8AB4C EQ PUSH2 0x15E JUMPI DUP1 PUSH4 0x44D00F82 EQ PUSH2 0x17C JUMPI DUP1 PUSH4 0x59B9A642 EQ PUSH2 0x19C JUMPI DUP1 PUSH4 0x5B7C2DAD EQ PUSH2 0x1BC JUMPI JUMPDEST PUSH0 PUSH0 REVERT JUMPDEST PUSH2 0x148 PUSH1 0x4 DUP1 CALLDATASIZE SUB DUP2 ADD SWAP1 PUSH2 0x143 SWAP2 SWAP1 PUSH2 0x321D JUMP JUMPDEST PUSH2 0x3F1 JUMP JUMPDEST PUSH1 0x40 MLOAD PUSH2 0x155 SWAP2 SWAP1 PUSH2 0x3257 JUMP JUMPDEST PUSH1 0x40 MLOAD DUP1 SWAP2 SUB SWAP1 RETURN JUMPDEST PUSH2 0x166 PUSH2 0x885 JUMP JUMPDEST PUSH1 0x40 MLOAD PUSH2 0x173 SWAP2 SWAP1 PUSH2 0x32EA JUMP JUMPDEST PUSH1 0x40 MLOAD DUP1 SWAP2 SUB SWAP1 RETURN JUMPDEST PUSH2 0x184 PUSH2 0x8A9 JUMP JUMPDEST PUSH1 0x40 MLOAD PUSH2 0x193 SWAP4 SWAP3 SWAP2 SWAP1 PUSH2 0x3323 JUMP JUMPDEST PUSH1 0x40 MLOAD DUP1 SWAP2 SUB SWAP1 RETURN JUMPDEST PUSH2 0x1A4 PUSH2 0x91A JUMP JUMPDEST PUSH1 0x40 MLOAD PUSH2 0x1B3 SWAP4 SWAP3 SWAP2 SWAP1 PUSH2 0x3358 JUMP JUMPDEST PUSH1 0x40 MLOAD DUP1 SWAP2 SUB SWAP1 RETURN JUMPDEST PUSH2 0x1D6 PUSH1 0x4 DUP1 CALLDATASIZE SUB DUP2 ADD SWAP1 PUSH2 0x1D1 SWAP2 SWAP1 PUSH2 0x33B7 JUMP JUMPDEST PUSH2 0xACF JUMP JUMPDEST PUSH1 0x40 MLOAD PUSH2 0x1EB SWAP10 SWAP9 SWAP8 SWAP7 SWAP6 SWAP5 SWAP4 SWAP3 SWAP2 SWAP1 PUSH2 0x33FA JUMP JUMPDEST PUSH1 0x40 MLOAD DUP1 SWAP2 SUB SWAP1 RETURN JUMPDEST PUSH2 0x20E PUSH1 0x4 DUP1 CALLDATASIZE SUB DUP2 ADD SWAP1 PUSH2 0x209 SWAP2 SWAP1 PUSH2 0x33B7 JUMP JUMPDEST PUSH2 0xDB2 JUMP JUMPDEST PUSH1 0x40 MLOAD PUSH2 0x21F SWAP6 SWAP5 SWAP4 SWAP3 SWAP2 SWAP1 PUSH2 0x3485 JUMP JUMPDEST PUSH1 0x40 MLOAD DUP1 SWAP2 SUB SWAP1 RETURN JUMPDEST PUSH2 0x230 PUSH2 0xDE4 JUMP JUMPDEST PUSH1 0x40 MLOAD PUSH2 0x23D SWAP2 SWAP1 PUSH2 0x34F6 JUMP JUMPDEST PUSH1 0x40 MLOAD DUP1 SWAP2 SUB SWAP1 RETURN JUMPDEST PUSH2 0x24E PUSH2 0xE08 JUMP JUMPDEST STOP JUMPDEST PUSH2 0x258 PUSH2 0xE1B JUMP JUMPDEST PUSH1 0x40 MLOAD PUSH2 0x268 SWAP5 SWAP4 SWAP3 SWAP2 SWAP1 PUSH2 0x350F JUMP JUMPDEST PUSH1 0x40 MLOAD DUP1 SWAP2 SUB SWAP1 RETURN JUMPDEST PUSH2 0x279 PUSH2 0xFEB JUMP JUMPDEST STOP JUMPDEST PUSH2 0x295 PUSH1 0x4 DUP1 CALLDATASIZE SUB DUP2 ADD SWAP1 PUSH2 0x290 SWAP2 SWAP1 PUSH2 0x33B7 JUMP JUMPDEST PUSH2 0x1908 JUMP JUMPDEST PUSH1 0x40 MLOAD PUSH2 0x2A2 SWAP2 SWAP1 PUSH2 0x3257 JUMP JUMPDEST PUSH1 0x40 MLOAD DUP1 SWAP2 SUB SWAP1 RETURN JUMPDEST PUSH2 0x2B3 PUSH2 0x1E02 JUMP JUMPDEST PUSH1 0x40 MLOAD PUSH2 0x2C0 SWAP2 SWAP1 PUSH2 0x3257 JUMP JUMPDEST PUSH1 0x40 MLOAD DUP1 SWAP2 SUB SWAP1 RETURN JUMPDEST PUSH2 0x2D1 PUSH2 0x2230 JUMP JUMPDEST PUSH1 0x40 MLOAD PUSH2 0x2DE SWAP2 SWAP1 PUSH2 0x3552 JUMP JUMPDEST PUSH1 0x40 MLOAD DUP1 SWAP2 SUB SWAP1 RETURN JUMPDEST PUSH2 0x2EF PUSH2 0x2257 JUMP JUMPDEST PUSH1 0x40 MLOAD PUSH2 0x2FC SWAP2 SWAP1 PUSH2 0x32EA JUMP JUMPDEST PUSH1 0x40 MLOAD DUP1 SWAP2 SUB SWAP1 RETURN JUMPDEST PUSH2 0x31F PUSH1 0x4 DUP1 CALLDATASIZE SUB DUP2 ADD SWAP1 PUSH2 0x31A SWAP2 SWAP1 PUSH2 0x33B7 JUMP JUMPDEST PUSH2 0x227B JUMP JUMPDEST PUSH1 0x40 MLOAD PUSH2 0x32E SWAP4 SWAP3 SWAP2 SWAP1 PUSH2 0x3358 JUMP JUMPDEST PUSH1 0x40 MLOAD DUP1 SWAP2 SUB SWAP1 RETURN JUMPDEST PUSH2 0x33F PUSH2 0x2316 JUMP JUMPDEST PUSH1 0x40 MLOAD PUSH2 0x34C SWAP2 SWAP1 PUSH2 0x32EA JUMP JUMPDEST PUSH1 0x40 MLOAD DUP1 SWAP2 SUB SWAP1 RETURN JUMPDEST PUSH2 0x36F PUSH1 0x4 DUP1 CALLDATASIZE SUB DUP2 ADD SWAP1 PUSH2 0x36A SWAP2 SWAP1 PUSH2 0x33B7 JUMP JUMPDEST PUSH2 0x233A JUMP JUMPDEST PUSH1 0x40 MLOAD PUSH2 0x37C SWAP2 SWAP1 PUSH2 0x3257 JUMP JUMPDEST PUSH1 0x40 MLOAD DUP1 SWAP2 SUB SWAP1 RETURN JUMPDEST PUSH2 0x39F PUSH1 0x4 DUP1 CALLDATASIZE SUB DUP2 ADD SWAP1 PUSH2 0x39A SWAP2 SWAP1 PUSH2 0x321D JUMP JUMPDEST PUSH2 0x25EA JUMP JUMPDEST PUSH1 0x40 MLOAD PUSH2 0x3AE SWAP4 SWAP3 SWAP2 SWAP1 PUSH2 0x3358 JUMP JUMPDEST PUSH1 0x40 MLOAD DUP1 SWAP2 SUB SWAP1 RETURN JUMPDEST PUSH2 0x3BF PUSH2 0x2C8C JUMP JUMPDEST PUSH1 0x40 MLOAD PUSH2 0x3CC SWAP2 SWAP1 PUSH2 0x358B JUMP JUMPDEST PUSH1 0x40 MLOAD DUP1 SWAP2 SUB SWAP1 RETURN JUMPDEST PUSH2 0x3EF PUSH1 0x4 DUP1 CALLDATASIZE SUB DUP2 ADD SWAP1 PUSH2 0x3EA SWAP2 SWAP1 PUSH2 0x33B7 JUMP JUMPDEST PUSH2 0x2CB0 JUMP JUMPDEST STOP JUMPDEST PUSH0 PUSH2 0x3FA PUSH2 0x2D34 JUMP JUMPDEST PUSH0 DUP3 EQ DUP1 PUSH2 0x409 JUMPI POP PUSH2 0x2710 DUP3 GT JUMPDEST ISZERO PUSH2 0x440 JUMPI PUSH1 0x40 MLOAD PUSH32 0x1F3B85D300000000000000000000000000000000000000000000000000000000 DUP2 MSTORE PUSH1 0x4 ADD PUSH1 0x40 MLOAD DUP1 SWAP2 SUB SWAP1 REVERT JUMPDEST PUSH0 PUSH1 0x1 PUSH0 CALLER PUSH20 0xFFFFFFFFFFFFFFFFFFFFFFFFFFFFFFFFFFFFFFFF AND PUSH20 0xFFFFFFFFFFFFFFFFFFFFFFFFFFFFFFFFFFFFFFFF AND DUP2 MSTORE PUSH1 0x20 ADD SWAP1 DUP2 MSTORE PUSH1 0x20 ADD PUSH0 KECCAK256 SWAP1 POP PUSH0 DUP2 PUSH0 ADD SLOAD EQ DUP1 ISZERO PUSH2 0x495 JUMPI POP PUSH0 DUP2 PUSH1 0x1 ADD SLOAD EQ JUMPDEST DUP1 ISZERO PUSH2 0x4A4 JUMPI POP PUSH0 DUP2 PUSH1 0x2 ADD SLOAD EQ JUMPDEST ISZERO PUSH2 0x4DB JUMPI PUSH1 0x40 MLOAD PUSH32 0xABF0F03400000000000000000000000000000000000000000000000000000000 DUP2 MSTORE PUSH1 0x4 ADD PUSH1 0x40 MLOAD DUP1 SWAP2 SUB SWAP1 REVERT JUMPDEST PUSH0 PUSH2 0x2710 DUP5 DUP4 PUSH0 ADD SLOAD PUSH2 0x4EE SWAP2 SWAP1 PUSH2 0x35D1 JUMP JUMPDEST PUSH2 0x4F8 SWAP2 SWAP1 PUSH2 0x363F JUMP JUMPDEST SWAP1 POP PUSH0 PUSH2 0x2710 DUP6 DUP5 PUSH1 0x1 ADD SLOAD PUSH2 0x50E SWAP2 SWAP1 PUSH2 0x35D1 JUMP JUMPDEST PUSH2 0x518 SWAP2 SWAP1 PUSH2 0x363F JUMP JUMPDEST SWAP1 POP PUSH0 PUSH2 0x2710 DUP7 DUP6 PUSH1 0x2 ADD SLOAD PUSH2 0x52E SWAP2 SWAP1 PUSH2 0x35D1 JUMP JUMPDEST PUSH2 0x538 SWAP2 SWAP1 PUSH2 0x363F JUMP JUMPDEST SWAP1 POP PUSH0 PUSH0 SWAP1 POP PUSH0 PUSH0 SWAP1 POP PUSH0 PUSH0 SWAP1 POP PUSH0 DUP7 GT ISZERO PUSH2 0x607 JUMPI PUSH32 0x0 PUSH20 0xFFFFFFFFFFFFFFFFFFFFFFFFFFFFFFFFFFFFFFFF AND PUSH4 0xBA087652 DUP8 ADDRESS ADDRESS PUSH1 0x40 MLOAD DUP5 PUSH4 0xFFFFFFFF AND PUSH1 0xE0 SHL DUP2 MSTORE PUSH1 0x4 ADD PUSH2 0x5AB SWAP4 SWAP3 SWAP2 SWAP1 PUSH2 0x366F JUMP JUMPDEST PUSH1 0x20 PUSH1 0x40 MLOAD DUP1 DUP4 SUB DUP2 PUSH0 DUP8 GAS CALL ISZERO DUP1 ISZERO PUSH2 0x5C7 JUMPI RETURNDATASIZE PUSH0 PUSH0 RETURNDATACOPY RETURNDATASIZE PUSH0 REVERT JUMPDEST POP POP POP POP PUSH1 0x40 MLOAD RETURNDATASIZE PUSH1 0x1F NOT PUSH1 0x1F DUP3 ADD AND DUP3 ADD DUP1 PUSH1 0x40 MSTORE POP DUP2 ADD SWAP1 PUSH2 0x5EB SWAP2 SWAP1 PUSH2 0x36B8 JUMP JUMPDEST SWAP3 POP DUP6 DUP8 PUSH0 ADD PUSH0 DUP3 DUP3 SLOAD PUSH2 0x5FF SWAP2 SWAP1 PUSH2 0x36E3 JUMP JUMPDEST SWAP3 POP POP DUP2 SWAP1 SSTORE POP JUMPDEST PUSH0 DUP6 GT ISZERO PUSH2 0x6C9 JUMPI PUSH32 0x0 PUSH20 0xFFFFFFFFFFFFFFFFFFFFFFFFFFFFFFFFFFFFFFFF AND PUSH4 0xBA087652 DUP7 ADDRESS ADDRESS PUSH1 0x40 MLOAD DUP5 PUSH4 0xFFFFFFFF AND PUSH1 0xE0 SHL DUP2 MSTORE PUSH1 0x4 ADD PUSH2 0x66C SWAP4 SWAP3 SWAP2 SWAP1 PUSH2 0x366F JUMP JUMPDEST PUSH1 0x20 PUSH1 0x40 MLOAD DUP1 DUP4 SUB DUP2 PUSH0 DUP8 GAS CALL ISZERO DUP1 ISZERO PUSH2 0x688 JUMPI RETURNDATASIZE PUSH0 PUSH0 RETURNDATACOPY RETURNDATASIZE PUSH0 REVERT JUMPDEST POP POP POP POP PUSH1 0x40 MLOAD RETURNDATASIZE PUSH1 0x1F NOT PUSH1 0x1F DUP3 ADD AND DUP3 ADD DUP1 PUSH1 0x40 MSTORE POP DUP2 ADD SWAP1 PUSH2 0x6AC SWAP2 SWAP1 PUSH2 0x36B8 JUMP JUMPDEST SWAP2 POP DUP5 DUP8 PUSH1 0x1 ADD PUSH0 DUP3 DUP3 SLOAD PUSH2 0x6C1 SWAP2 SWAP1 PUSH2 0x36E3 JUMP JUMPDEST SWAP3 POP POP DUP2 SWAP1 SSTORE POP JUMPDEST PUSH0 DUP5 GT ISZERO PUSH2 0x78B JUMPI PUSH32 0x0 PUSH20 0xFFFFFFFFFFFFFFFFFFFFFFFFFFFFFFFFFFFFFFFF AND PUSH4 0xBA087652 DUP6 ADDRESS ADDRESS PUSH1 0x40 MLOAD DUP5 PUSH4 0xFFFFFFFF AND PUSH1 0xE0 SHL DUP2 MSTORE PUSH1 0x4 ADD PUSH2 0x72E SWAP4 SWAP3 SWAP2 SWAP1 PUSH2 0x366F JUMP JUMPDEST PUSH1 0x20 PUSH1 0x40 MLOAD DUP1 DUP4 SUB DUP2 PUSH0 DUP8 GAS CALL ISZERO DUP1 ISZERO PUSH2 0x74A JUMPI RETURNDATASIZE PUSH0 PUSH0 RETURNDATACOPY RETURNDATASIZE PUSH0 REVERT JUMPDEST POP POP POP POP PUSH1 0x40 MLOAD RETURNDATASIZE PUSH1 0x1F NOT PUSH1 0x1F DUP3 ADD AND DUP3 ADD DUP1 PUSH1 0x40 MSTORE POP DUP2 ADD SWAP1 PUSH2 0x76E SWAP2 SWAP1 PUSH2 0x36B8 JUMP JUMPDEST SWAP1 POP DUP4 DUP8 PUSH1 0x2 ADD PUSH0 DUP3 DUP3 SLOAD PUSH2 0x783 SWAP2 SWAP1 PUSH2 0x36E3 JUMP JUMPDEST SWAP3 POP POP DUP2 SWAP1 SSTORE POP JUMPDEST DUP1 DUP3 DUP5 PUSH2 0x798 SWAP2 SWAP1 PUSH2 0x3716 JUMP JUMPDEST PUSH2 0x7A2 SWAP2 SWAP1 PUSH2 0x3716 JUMP JUMPDEST SWAP8 POP PUSH2 0x2710 DUP10 PUSH2 0x2710 PUSH2 0x7B5 SWAP2 SWAP1 PUSH2 0x36E3 JUMP JUMPDEST DUP9 PUSH1 0x3 ADD SLOAD PUSH2 0x7C4 SWAP2 SWAP1 PUSH2 0x35D1 JUMP JUMPDEST PUSH2 0x7CE SWAP2 SWAP1 PUSH2 0x363F JUMP JUMPDEST DUP8 PUSH1 0x3 ADD DUP2 SWAP1 SSTORE POP PUSH2 0x821 CALLER DUP10 PUSH32 0x0 PUSH20 0xFFFFFFFFFFFFFFFFFFFFFFFFFFFFFFFFFFFFFFFF AND PUSH2 0x2D56 SWAP1 SWAP3 SWAP2 SWAP1 PUSH4 0xFFFFFFFF AND JUMP JUMPDEST CALLER PUSH20 0xFFFFFFFFFFFFFFFFFFFFFFFFFFFFFFFFFFFFFFFF AND PUSH32 0x1FB6E47F83F7C0E64DD70B2C8EA3FF82B17D0EC3B1F704BF9EA38095A6BC7D58 DUP11 DUP11 PUSH1 0x40 MLOAD PUSH2 0x869 SWAP3 SWAP2 SWAP1 PUSH2 0x3749 JUMP JUMPDEST PUSH1 0x40 MLOAD DUP1 SWAP2 SUB SWAP1 LOG2 POP POP POP POP POP POP POP PUSH2 0x880 PUSH2 0x2DA9 JUMP JUMPDEST SWAP2 SWAP1 POP JUMP JUMPDEST PUSH32 0x0 DUP2 JUMP JUMPDEST PUSH0 PUSH0 PUSH0 PUSH32 0x0 PUSH32 0x0 PUSH32 0x0 SWAP3 POP SWAP3 POP SWAP3 POP SWAP1 SWAP2 SWAP3 JUMP JUMPDEST PUSH0 PUSH0 PUSH0 PUSH32 0x0 PUSH20 0xFFFFFFFFFFFFFFFFFFFFFFFFFFFFFFFFFFFFFFFF AND PUSH4 0xF19993D7 PUSH1 0x40 MLOAD DUP2 PUSH4 0xFFFFFFFF AND PUSH1 0xE0 SHL DUP2 MSTORE PUSH1 0x4 ADD PUSH1 0x20 PUSH1 0x40 MLOAD DUP1 DUP4 SUB DUP2 DUP7 GAS STATICCALL ISZERO DUP1 ISZERO PUSH2 0x986 JUMPI RETURNDATASIZE PUSH0 PUSH0 RETURNDATACOPY RETURNDATASIZE PUSH0 REVERT JUMPDEST POP POP POP POP PUSH1 0x40 MLOAD RETURNDATASIZE PUSH1 0x1F NOT PUSH1 0x1F DUP3 ADD AND DUP3 ADD DUP1 PUSH1 0x40 MSTORE POP DUP2 ADD SWAP1 PUSH2 0x9AA SWAP2 SWAP1 PUSH2 0x36B8 JUMP JUMPDEST PUSH32 0x0 PUSH20 0xFFFFFFFFFFFFFFFFFFFFFFFFFFFFFFFFFFFFFFFF AND PUSH4 0xF19993D7 PUSH1 0x40 MLOAD DUP2 PUSH4 0xFFFFFFFF AND PUSH1 0xE0 SHL DUP2 MSTORE PUSH1 0x4 ADD PUSH1 0x20 PUSH1 0x40 MLOAD DUP1 DUP4 SUB DUP2 DUP7 GAS STATICCALL ISZERO DUP1 ISZERO PUSH2 0xA13 JUMPI RETURNDATASIZE PUSH0 PUSH0 RETURNDATACOPY RETURNDATASIZE PUSH0 REVERT JUMPDEST POP POP POP POP PUSH1 0x40 MLOAD RETURNDATASIZE PUSH1 0x1F NOT PUSH1 0x1F DUP3 ADD AND DUP3 ADD DUP1 PUSH1 0x40 MSTORE POP DUP2 ADD SWAP1 PUSH2 0xA37 SWAP2 SWAP1 PUSH2 0x36B8 JUMP JUMPDEST PUSH32 0x0 PUSH20 0xFFFFFFFFFFFFFFFFFFFFFFFFFFFFFFFFFFFFFFFF AND PUSH4 0xF19993D7 PUSH1 0x40 MLOAD DUP2 PUSH4 0xFFFFFFFF AND PUSH1 0xE0 SHL DUP2 MSTORE PUSH1 0x4 ADD PUSH1 0x20 PUSH1 0x40 MLOAD DUP1 DUP4 SUB DUP2 DUP7 GAS STATICCALL ISZERO DUP1 ISZERO PUSH2 0xAA0 JUMPI RETURNDATASIZE PUSH0 PUSH0 RETURNDATACOPY RETURNDATASIZE PUSH0 REVERT JUMPDEST POP POP POP POP PUSH1 0x40 MLOAD RETURNDATASIZE PUSH1 0x1F NOT PUSH1 0x1F DUP3 ADD AND DUP3 ADD DUP1 PUSH1 0x40 MSTORE POP DUP2 ADD SWAP1 PUSH2 0xAC4 SWAP2 SWAP1 PUSH2 0x36B8 JUMP JUMPDEST SWAP3 POP SWAP3 POP SWAP3 POP SWAP1 SWAP2 SWAP3 JUMP JUMPDEST PUSH0 PUSH0 PUSH0 PUSH0 PUSH0 PUSH0 PUSH0 PUSH0 PUSH0 PUSH0 PUSH1 0x1 PUSH0 DUP13 PUSH20 0xFFFFFFFFFFFFFFFFFFFFFFFFFFFFFFFFFFFFFFFF AND PUSH20 0xFFFFFFFFFFFFFFFFFFFFFFFFFFFFFFFFFFFFFFFF AND DUP2 MSTORE PUSH1 0x20 ADD SWAP1 DUP2 MSTORE PUSH1 0x20 ADD PUSH0 KECCAK256 PUSH1 0x40 MLOAD DUP1 PUSH1 0xA0 ADD PUSH1 0x40 MSTORE SWAP1 DUP2 PUSH0 DUP3 ADD SLOAD DUP2 MSTORE PUSH1 0x20 ADD PUSH1 0x1 DUP3 ADD SLOAD DUP2 MSTORE PUSH1 0x20 ADD PUSH1 0x2 DUP3 ADD SLOAD DUP2 MSTORE PUSH1 0x20 ADD PUSH1 0x3 DUP3 ADD SLOAD DUP2 MSTORE PUSH1 0x20 ADD PUSH1 0x4 DUP3 ADD SLOAD DUP2 MSTORE POP POP SWAP1 POP DUP1 PUSH0 ADD MLOAD SWAP10 POP DUP1 PUSH1 0x20 ADD MLOAD SWAP9 POP DUP1 PUSH1 0x40 ADD MLOAD SWAP8 POP PUSH0 DUP2 PUSH0 ADD MLOAD GT PUSH2 0xB78 JUMPI PUSH0 PUSH2 0xC14 JUMP JUMPDEST PUSH32 0x0 PUSH20 0xFFFFFFFFFFFFFFFFFFFFFFFFFFFFFFFFFFFFFFFF AND PUSH4 0x7A2D13A DUP3 PUSH0 ADD MLOAD PUSH1 0x40 MLOAD DUP3 PUSH4 0xFFFFFFFF AND PUSH1 0xE0 SHL DUP2 MSTORE PUSH1 0x4 ADD PUSH2 0xBD4 SWAP2 SWAP1 PUSH2 0x3257 JUMP JUMPDEST PUSH1 0x20 PUSH1 0x40 MLOAD DUP1 DUP4 SUB DUP2 DUP7 GAS STATICCALL ISZERO DUP1 ISZERO PUSH2 0xBEF JUMPI RETURNDATASIZE PUSH0 PUSH0 RETURNDATACOPY RETURNDATASIZE PUSH0 REVERT JUMPDEST POP POP POP POP PUSH1 0x40 MLOAD RETURNDATASIZE PUSH1 0x1F NOT PUSH1 0x1F DUP3 ADD AND DUP3 ADD DUP1 PUSH1 0x40 MSTORE POP DUP2 ADD SWAP1 PUSH2 0xC13 SWAP2 SWAP1 PUSH2 0x36B8 JUMP JUMPDEST JUMPDEST SWAP7 POP PUSH0 DUP2 PUSH1 0x20 ADD MLOAD GT PUSH2 0xC27 JUMPI PUSH0 PUSH2 0xCC4 JUMP JUMPDEST PUSH32 0x0 PUSH20 0xFFFFFFFFFFFFFFFFFFFFFFFFFFFFFFFFFFFFFFFF AND PUSH4 0x7A2D13A DUP3 PUSH1 0x20 ADD MLOAD PUSH1 0x40 MLOAD DUP3 PUSH4 0xFFFFFFFF AND PUSH1 0xE0 SHL DUP2 MSTORE PUSH1 0x4 ADD PUSH2 0xC84 SWAP2 SWAP1 PUSH2 0x3257 JUMP JUMPDEST PUSH1 0x20 PUSH1 0x40 MLOAD DUP1 DUP4 SUB DUP2 DUP7 GAS STATICCALL ISZERO DUP1 ISZERO PUSH2 0xC9F JUMPI RETURNDATASIZE PUSH0 PUSH0 RETURNDATACOPY RETURNDATASIZE PUSH0 REVERT JUMPDEST POP POP POP POP PUSH1 0x40 MLOAD RETURNDATASIZE PUSH1 0x1F NOT PUSH1 0x1F DUP3 ADD AND DUP3 ADD DUP1 PUSH1 0x40 MSTORE POP DUP2 ADD SWAP1 PUSH2 0xCC3 SWAP2 SWAP1 PUSH2 0x36B8 JUMP JUMPDEST JUMPDEST SWAP6 POP PUSH0 DUP2 PUSH1 0x40 ADD MLOAD GT PUSH2 0xCD7 JUMPI PUSH0 PUSH2 0xD74 JUMP JUMPDEST PUSH32 0x0 PUSH20 0xFFFFFFFFFFFFFFFFFFFFFFFFFFFFFFFFFFFFFFFF AND PUSH4 0x7A2D13A DUP3 PUSH1 0x40 ADD MLOAD PUSH1 0x40 MLOAD DUP3 PUSH4 0xFFFFFFFF AND PUSH1 0xE0 SHL DUP2 MSTORE PUSH1 0x4 ADD PUSH2 0xD34 SWAP2 SWAP1 PUSH2 0x3257 JUMP JUMPDEST PUSH1 0x20 PUSH1 0x40 MLOAD DUP1 DUP4 SUB DUP2 DUP7 GAS STATICCALL ISZERO DUP1 ISZERO PUSH2 0xD4F JUMPI RETURNDATASIZE PUSH0 PUSH0 RETURNDATACOPY RETURNDATASIZE PUSH0 REVERT JUMPDEST POP POP POP POP PUSH1 0x40 MLOAD RETURNDATASIZE PUSH1 0x1F NOT PUSH1 0x1F DUP3 ADD AND DUP3 ADD DUP1 PUSH1 0x40 MSTORE POP DUP2 ADD SWAP1 PUSH2 0xD73 SWAP2 SWAP1 PUSH2 0x36B8 JUMP JUMPDEST JUMPDEST SWAP5 POP DUP5 DUP7 DUP9 PUSH2 0xD83 SWAP2 SWAP1 PUSH2 0x3716 JUMP JUMPDEST PUSH2 0xD8D SWAP2 SWAP1 PUSH2 0x3716 JUMP JUMPDEST SWAP4 POP DUP1 PUSH1 0x60 ADD MLOAD SWAP3 POP DUP3 DUP5 PUSH2 0xDA2 SWAP2 SWAP1 PUSH2 0x3770 JUMP JUMPDEST SWAP2 POP POP SWAP2 SWAP4 SWAP6 SWAP8 SWAP10 SWAP1 SWAP3 SWAP5 SWAP7 SWAP9 POP JUMP JUMPDEST PUSH1 0x1 PUSH1 0x20 MSTORE DUP1 PUSH0 MSTORE PUSH1 0x40 PUSH0 KECCAK256 PUSH0 SWAP2 POP SWAP1 POP DUP1 PUSH0 ADD SLOAD SWAP1 DUP1 PUSH1 0x1 ADD SLOAD SWAP1 DUP1 PUSH1 0x2 ADD SLOAD SWAP1 DUP1 PUSH1 0x3 ADD SLOAD SWAP1 DUP1 PUSH1 0x4 ADD SLOAD SWAP1 POP DUP6 JUMP JUMPDEST PUSH32 0x0 DUP2 JUMP JUMPDEST PUSH2 0xE10 PUSH2 0x2DC3 JUMP JUMPDEST PUSH2 0xE19 PUSH0 PUSH2 0x2E4A JUMP JUMPDEST JUMP JUMPDEST PUSH0 PUSH0 PUSH0 PUSH0 PUSH32 0x0 PUSH20 0xFFFFFFFFFFFFFFFFFFFFFFFFFFFFFFFFFFFFFFFF AND PUSH4 0x1E1D114 PUSH1 0x40 MLOAD DUP2 PUSH4 0xFFFFFFFF AND PUSH1 0xE0 SHL DUP2 MSTORE PUSH1 0x4 ADD PUSH1 0x20 PUSH1 0x40 MLOAD DUP1 DUP4 SUB DUP2 DUP7 GAS STATICCALL ISZERO DUP1 ISZERO PUSH2 0xE88 JUMPI RETURNDATASIZE PUSH0 PUSH0 RETURNDATACOPY RETURNDATASIZE PUSH0 REVERT JUMPDEST POP POP POP POP PUSH1 0x40 MLOAD RETURNDATASIZE PUSH1 0x1F NOT PUSH1 0x1F DUP3 ADD AND DUP3 ADD DUP1 PUSH1 0x40 MSTORE POP DUP2 ADD SWAP1 PUSH2 0xEAC SWAP2 SWAP1 PUSH2 0x36B8 JUMP JUMPDEST SWAP3 POP PUSH32 0x0 PUSH20 0xFFFFFFFFFFFFFFFFFFFFFFFFFFFFFFFFFFFFFFFF AND PUSH4 0x1E1D114 PUSH1 0x40 MLOAD DUP2 PUSH4 0xFFFFFFFF AND PUSH1 0xE0 SHL DUP2 MSTORE PUSH1 0x4 ADD PUSH1 0x20 PUSH1 0x40 MLOAD DUP1 DUP4 SUB DUP2 DUP7 GAS STATICCALL ISZERO DUP1 ISZERO PUSH2 0xF17 JUMPI RETURNDATASIZE PUSH0 PUSH0 RETURNDATACOPY RETURNDATASIZE PUSH0 REVERT JUMPDEST POP POP POP POP PUSH1 0x40 MLOAD RETURNDATASIZE PUSH1 0x1F NOT PUSH1 0x1F DUP3 ADD AND DUP3 ADD DUP1 PUSH1 0x40 MSTORE POP DUP2 ADD SWAP1 PUSH2 0xF3B SWAP2 SWAP1 PUSH2 0x36B8 JUMP JUMPDEST SWAP2 POP PUSH32 0x0 PUSH20 0xFFFFFFFFFFFFFFFFFFFFFFFFFFFFFFFFFFFFFFFF AND PUSH4 0x1E1D114 PUSH1 0x40 MLOAD DUP2 PUSH4 0xFFFFFFFF AND PUSH1 0xE0 SHL DUP2 MSTORE PUSH1 0x4 ADD PUSH1 0x20 PUSH1 0x40 MLOAD DUP1 DUP4 SUB DUP2 DUP7 GAS STATICCALL ISZERO DUP1 ISZERO PUSH2 0xFA6 JUMPI RETURNDATASIZE PUSH0 PUSH0 RETURNDATACOPY RETURNDATASIZE PUSH0 REVERT JUMPDEST POP POP POP POP PUSH1 0x40 MLOAD RETURNDATASIZE PUSH1 0x1F NOT PUSH1 0x1F DUP3 ADD AND DUP3 ADD DUP1 PUSH1 0x40 MSTORE POP DUP2 ADD SWAP1 PUSH2 0xFCA SWAP2 SWAP1 PUSH2 0x36B8 JUMP JUMPDEST SWAP1 POP DUP1 DUP3 DUP5 PUSH2 0xFD9 SWAP2 SWAP1 PUSH2 0x3716 JUMP JUMPDEST PUSH2 0xFE3 SWAP2 SWAP1 PUSH2 0x3716 JUMP JUMPDEST SWAP4 POP SWAP1 SWAP2 SWAP3 SWAP4 JUMP JUMPDEST PUSH2 0xFF3 PUSH2 0x2D34 JUMP JUMPDEST PUSH32 0x0 PUSH20 0xFFFFFFFFFFFFFFFFFFFFFFFFFFFFFFFFFFFFFFFF AND PUSH4 0xA787C80B CALLER PUSH1 0x40 MLOAD DUP3 PUSH4 0xFFFFFFFF AND PUSH1 0xE0 SHL DUP2 MSTORE PUSH1 0x4 ADD PUSH2 0x104C SWAP2 SWAP1 PUSH2 0x3552 JUMP JUMPDEST PUSH1 0x20 PUSH1 0x40 MLOAD DUP1 DUP4 SUB DUP2 DUP7 GAS STATICCALL ISZERO DUP1 ISZERO PUSH2 0x1067 JUMPI RETURNDATASIZE PUSH0 PUSH0 RETURNDATACOPY RETURNDATASIZE PUSH0 REVERT JUMPDEST POP POP POP POP PUSH1 0x40 MLOAD RETURNDATASIZE PUSH1 0x1F NOT PUSH1 0x1F DUP3 ADD AND DUP3 ADD DUP1 PUSH1 0x40 MSTORE POP DUP2 ADD SWAP1 PUSH2 0x108B SWAP2 SWAP1 PUSH2 0x37E5 JUMP JUMPDEST PUSH2 0x10C1 JUMPI PUSH1 0x40 MLOAD PUSH32 0x6F86092700000000000000000000000000000000000000000000000000000000 DUP2 MSTORE PUSH1 0x4 ADD PUSH1 0x40 MLOAD DUP1 SWAP2 SUB SWAP1 REVERT JUMPDEST PUSH0 PUSH1 0x1 PUSH0 CALLER PUSH20 0xFFFFFFFFFFFFFFFFFFFFFFFFFFFFFFFFFFFFFFFF AND PUSH20 0xFFFFFFFFFFFFFFFFFFFFFFFFFFFFFFFFFFFFFFFF AND DUP2 MSTORE PUSH1 0x20 ADD SWAP1 DUP2 MSTORE PUSH1 0x20 ADD PUSH0 KECCAK256 PUSH1 0x40 MLOAD DUP1 PUSH1 0xA0 ADD PUSH1 0x40 MSTORE SWAP1 DUP2 PUSH0 DUP3 ADD SLOAD DUP2 MSTORE PUSH1 0x20 ADD PUSH1 0x1 DUP3 ADD SLOAD DUP2 MSTORE PUSH1 0x20 ADD PUSH1 0x2 DUP3 ADD SLOAD DUP2 MSTORE PUSH1 0x20 ADD PUSH1 0x3 DUP3 ADD SLOAD DUP2 MSTORE PUSH1 0x20 ADD PUSH1 0x4 DUP3 ADD SLOAD DUP2 MSTORE POP POP SWAP1 POP PUSH0 DUP2 PUSH0 ADD MLOAD EQ DUP1 ISZERO PUSH2 0x1152 JUMPI POP PUSH0 DUP2 PUSH1 0x20 ADD MLOAD EQ JUMPDEST DUP1 ISZERO PUSH2 0x1161 JUMPI POP PUSH0 DUP2 PUSH1 0x40 ADD MLOAD EQ JUMPDEST ISZERO PUSH2 0x1198 JUMPI PUSH1 0x40 MLOAD PUSH32 0xABF0F03400000000000000000000000000000000000000000000000000000000 DUP2 MSTORE PUSH1 0x4 ADD PUSH1 0x40 MLOAD DUP1 SWAP2 SUB SWAP1 REVERT JUMPDEST PUSH0 PUSH2 0x11A2 CALLER PUSH2 0x233A JUMP JUMPDEST SWAP1 POP PUSH0 DUP2 SUB PUSH2 0x11DD JUMPI PUSH1 0x40 MLOAD PUSH32 0x1F2A200500000000000000000000000000000000000000000000000000000000 DUP2 MSTORE PUSH1 0x4 ADD PUSH1 0x40 MLOAD DUP1 SWAP2 SUB SWAP1 REVERT JUMPDEST PUSH0 PUSH0 SWAP1 POP PUSH0 PUSH0 SWAP1 POP PUSH0 PUSH0 SWAP1 POP PUSH0 DUP6 PUSH0 ADD MLOAD GT ISZERO PUSH2 0x1297 JUMPI PUSH32 0x0 PUSH20 0xFFFFFFFFFFFFFFFFFFFFFFFFFFFFFFFFFFFFFFFF AND PUSH4 0xBA087652 DUP7 PUSH0 ADD MLOAD ADDRESS ADDRESS PUSH1 0x40 MLOAD DUP5 PUSH4 0xFFFFFFFF AND PUSH1 0xE0 SHL DUP2 MSTORE PUSH1 0x4 ADD PUSH2 0x1254 SWAP4 SWAP3 SWAP2 SWAP1 PUSH2 0x366F JUMP JUMPDEST PUSH1 0x20 PUSH1 0x40 MLOAD DUP1 DUP4 SUB DUP2 PUSH0 DUP8 GAS CALL ISZERO DUP1 ISZERO PUSH2 0x1270 JUMPI RETURNDATASIZE PUSH0 PUSH0 RETURNDATACOPY RETURNDATASIZE PUSH0 REVERT JUMPDEST POP POP POP POP PUSH1 0x40 MLOAD RETURNDATASIZE PUSH1 0x1F NOT PUSH1 0x1F DUP3 ADD AND DUP3 ADD DUP1 PUSH1 0x40 MSTORE POP DUP2 ADD SWAP1 PUSH2 0x1294 SWAP2 SWAP1 PUSH2 0x36B8 JUMP JUMPDEST SWAP3 POP JUMPDEST PUSH0 DUP6 PUSH1 0x20 ADD MLOAD GT ISZERO PUSH2 0x1347 JUMPI PUSH32 0x0 PUSH20 0xFFFFFFFFFFFFFFFFFFFFFFFFFFFFFFFFFFFFFFFF AND PUSH4 0xBA087652 DUP7 PUSH1 0x20 ADD MLOAD ADDRESS ADDRESS PUSH1 0x40 MLOAD DUP5 PUSH4 0xFFFFFFFF AND PUSH1 0xE0 SHL DUP2 MSTORE PUSH1 0x4 ADD PUSH2 0x1304 SWAP4 SWAP3 SWAP2 SWAP1 PUSH2 0x366F JUMP JUMPDEST PUSH1 0x20 PUSH1 0x40 MLOAD DUP1 DUP4 SUB DUP2 PUSH0 DUP8 GAS CALL ISZERO DUP1 ISZERO PUSH2 0x1320 JUMPI RETURNDATASIZE PUSH0 PUSH0 RETURNDATACOPY RETURNDATASIZE PUSH0 REVERT JUMPDEST POP POP POP POP PUSH1 0x40 MLOAD RETURNDATASIZE PUSH1 0x1F NOT PUSH1 0x1F DUP3 ADD AND DUP3 ADD DUP1 PUSH1 0x40 MSTORE POP DUP2 ADD SWAP1 PUSH2 0x1344 SWAP2 SWAP1 PUSH2 0x36B8 JUMP JUMPDEST SWAP2 POP JUMPDEST PUSH0 DUP6 PUSH1 0x40 ADD MLOAD GT ISZERO PUSH2 0x13F7 JUMPI PUSH32 0x0 PUSH20 0xFFFFFFFFFFFFFFFFFFFFFFFFFFFFFFFFFFFFFFFF AND PUSH4 0xBA087652 DUP7 PUSH1 0x40 ADD MLOAD ADDRESS ADDRESS PUSH1 0x40 MLOAD DUP5 PUSH4 0xFFFFFFFF AND PUSH1 0xE0 SHL DUP2 MSTORE PUSH1 0x4 ADD PUSH2 0x13B4 SWAP4 SWAP3 SWAP2 SWAP1 PUSH2 0x366F JUMP JUMPDEST PUSH1 0x20 PUSH1 0x40 MLOAD DUP1 DUP4 SUB DUP2 PUSH0 DUP8 GAS CALL ISZERO DUP1 ISZERO PUSH2 0x13D0 JUMPI RETURNDATASIZE PUSH0 PUSH0 RETURNDATACOPY RETURNDATASIZE PUSH0 REVERT JUMPDEST POP POP POP POP PUSH1 0x40 MLOAD RETURNDATASIZE PUSH1 0x1F NOT PUSH1 0x1F DUP3 ADD AND DUP3 ADD DUP1 PUSH1 0x40 MSTORE POP DUP2 ADD SWAP1 PUSH2 0x13F4 SWAP2 SWAP1 PUSH2 0x36B8 JUMP JUMPDEST SWAP1 POP JUMPDEST PUSH0 DUP2 DUP4 DUP6 PUSH2 0x1405 SWAP2 SWAP1 PUSH2 0x3716 JUMP JUMPDEST PUSH2 0x140F SWAP2 SWAP1 PUSH2 0x3716 JUMP JUMPDEST SWAP1 POP PUSH0 PUSH32 0x0 PUSH20 0xFFFFFFFFFFFFFFFFFFFFFFFFFFFFFFFFFFFFFFFF AND PUSH4 0xBAF1E57F CALLER PUSH1 0x40 MLOAD DUP3 PUSH4 0xFFFFFFFF AND PUSH1 0xE0 SHL DUP2 MSTORE PUSH1 0x4 ADD PUSH2 0x146B SWAP2 SWAP1 PUSH2 0x3552 JUMP JUMPDEST PUSH1 0x60 PUSH1 0x40 MLOAD DUP1 DUP4 SUB DUP2 DUP7 GAS STATICCALL ISZERO DUP1 ISZERO PUSH2 0x1486 JUMPI RETURNDATASIZE PUSH0 PUSH0 RETURNDATACOPY RETURNDATASIZE PUSH0 REVERT JUMPDEST POP POP POP POP PUSH1 0x40 MLOAD RETURNDATASIZE PUSH1 0x1F NOT PUSH1 0x1F DUP3 ADD AND DUP3 ADD DUP1 PUSH1 0x40 MSTORE POP DUP2 ADD SWAP1 PUSH2 0x14AA SWAP2 SWAP1 PUSH2 0x3933 JUMP JUMPDEST SWAP1 POP PUSH0 PUSH1 0x64 DUP3 PUSH0 ADD MLOAD PUSH1 0xFF AND DUP5 PUSH2 0x14C1 SWAP2 SWAP1 PUSH2 0x35D1 JUMP JUMPDEST PUSH2 0x14CB SWAP2 SWAP1 PUSH2 0x363F JUMP JUMPDEST SWAP1 POP PUSH0 PUSH1 0x64 DUP4 PUSH1 0x20 ADD MLOAD PUSH1 0xFF AND DUP6 PUSH2 0x14E3 SWAP2 SWAP1 PUSH2 0x35D1 JUMP JUMPDEST PUSH2 0x14ED SWAP2 SWAP1 PUSH2 0x363F JUMP JUMPDEST SWAP1 POP PUSH0 DUP2 DUP4 DUP7 PUSH2 0x14FD SWAP2 SWAP1 PUSH2 0x36E3 JUMP JUMPDEST PUSH2 0x1507 SWAP2 SWAP1 PUSH2 0x36E3 JUMP JUMPDEST SWAP1 POP PUSH0 PUSH0 SWAP1 POP PUSH0 PUSH0 SWAP1 POP PUSH0 PUSH0 SWAP1 POP PUSH0 DUP7 GT ISZERO PUSH2 0x1626 JUMPI PUSH2 0x1588 PUSH32 0x0 DUP8 PUSH32 0x0 PUSH20 0xFFFFFFFFFFFFFFFFFFFFFFFFFFFFFFFFFFFFFFFF AND PUSH2 0x2F0B SWAP1 SWAP3 SWAP2 SWAP1 PUSH4 0xFFFFFFFF AND JUMP JUMPDEST PUSH32 0x0 PUSH20 0xFFFFFFFFFFFFFFFFFFFFFFFFFFFFFFFFFFFFFFFF AND PUSH4 0x6E553F65 DUP8 ADDRESS PUSH1 0x40 MLOAD DUP4 PUSH4 0xFFFFFFFF AND PUSH1 0xE0 SHL DUP2 MSTORE PUSH1 0x4 ADD PUSH2 0x15E3 SWAP3 SWAP2 SWAP1 PUSH2 0x395E JUMP JUMPDEST PUSH1 0x20 PUSH1 0x40 MLOAD DUP1 DUP4 SUB DUP2 PUSH0 DUP8 GAS CALL ISZERO DUP1 ISZERO PUSH2 0x15FF JUMPI RETURNDATASIZE PUSH0 PUSH0 RETURNDATACOPY RETURNDATASIZE PUSH0 REVERT JUMPDEST POP POP POP POP PUSH1 0x40 MLOAD RETURNDATASIZE PUSH1 0x1F NOT PUSH1 0x1F DUP3 ADD AND DUP3 ADD DUP1 PUSH1 0x40 MSTORE POP DUP2 ADD SWAP1 PUSH2 0x1623 SWAP2 SWAP1 PUSH2 0x36B8 JUMP JUMPDEST SWAP3 POP JUMPDEST PUSH0 DUP6 GT ISZERO PUSH2 0x1737 JUMPI PUSH2 0x1699 PUSH32 0x0 DUP7 PUSH32 0x0 PUSH20 0xFFFFFFFFFFFFFFFFFFFFFFFFFFFFFFFFFFFFFFFF AND PUSH2 0x2F0B SWAP1 SWAP3 SWAP2 SWAP1 PUSH4 0xFFFFFFFF AND JUMP JUMPDEST PUSH32 0x0 PUSH20 0xFFFFFFFFFFFFFFFFFFFFFFFFFFFFFFFFFFFFFFFF AND PUSH4 0x6E553F65 DUP7 ADDRESS PUSH1 0x40 MLOAD DUP4 PUSH4 0xFFFFFFFF AND PUSH1 0xE0 SHL DUP2 MSTORE PUSH1 0x4 ADD PUSH2 0x16F4 SWAP3 SWAP2 SWAP1 PUSH2 0x395E JUMP JUMPDEST PUSH1 0x20 PUSH1 0x40 MLOAD DUP1 DUP4 SUB DUP2 PUSH0 DUP8 GAS CALL ISZERO DUP1 ISZERO PUSH2 0x1710 JUMPI RETURNDATASIZE PUSH0 PUSH0 RETURNDATACOPY RETURNDATASIZE PUSH0 REVERT JUMPDEST POP POP POP POP PUSH1 0x40 MLOAD RETURNDATASIZE PUSH1 0x1F NOT PUSH1 0x1F DUP3 ADD AND DUP3 ADD DUP1 PUSH1 0x40 MSTORE POP DUP2 ADD SWAP1 PUSH2 0x1734 SWAP2 SWAP1 PUSH2 0x36B8 JUMP JUMPDEST SWAP2 POP JUMPDEST PUSH0 DUP5 GT ISZERO PUSH2 0x1848 JUMPI PUSH2 0x17AA PUSH32 0x0 DUP6 PUSH32 0x0 PUSH20 0xFFFFFFFFFFFFFFFFFFFFFFFFFFFFFFFFFFFFFFFF AND PUSH2 0x2F0B SWAP1 SWAP3 SWAP2 SWAP1 PUSH4 0xFFFFFFFF AND JUMP JUMPDEST PUSH32 0x0 PUSH20 0xFFFFFFFFFFFFFFFFFFFFFFFFFFFFFFFFFFFFFFFF AND PUSH4 0x6E553F65 DUP6 ADDRESS PUSH1 0x40 MLOAD DUP4 PUSH4 0xFFFFFFFF AND PUSH1 0xE0 SHL DUP2 MSTORE PUSH1 0x4 ADD PUSH2 0x1805 SWAP3 SWAP2 SWAP1 PUSH2 0x395E JUMP JUMPDEST PUSH1 0x20 PUSH1 0x40 MLOAD DUP1 DUP4 SUB DUP2 PUSH0 DUP8 GAS CALL ISZERO DUP1 ISZERO PUSH2 0x1821 JUMPI RETURNDATASIZE PUSH0 PUSH0 RETURNDATACOPY RETURNDATASIZE PUSH0 REVERT JUMPDEST POP POP POP POP PUSH1 0x40 MLOAD RETURNDATASIZE PUSH1 0x1F NOT PUSH1 0x1F DUP3 ADD AND DUP3 ADD DUP1 PUSH1 0x40 MSTORE POP DUP2 ADD SWAP1 PUSH2 0x1845 SWAP2 SWAP1 PUSH2 0x36B8 JUMP JUMPDEST SWAP1 POP JUMPDEST PUSH0 PUSH1 0x1 PUSH0 CALLER PUSH20 0xFFFFFFFFFFFFFFFFFFFFFFFFFFFFFFFFFFFFFFFF AND PUSH20 0xFFFFFFFFFFFFFFFFFFFFFFFFFFFFFFFFFFFFFFFF AND DUP2 MSTORE PUSH1 0x20 ADD SWAP1 DUP2 MSTORE PUSH1 0x20 ADD PUSH0 KECCAK256 SWAP1 POP DUP4 DUP2 PUSH0 ADD DUP2 SWAP1 SSTORE POP DUP3 DUP2 PUSH1 0x1 ADD DUP2 SWAP1 SSTORE POP DUP2 DUP2 PUSH1 0x2 ADD DUP2 SWAP1 SSTORE POP CALLER PUSH20 0xFFFFFFFFFFFFFFFFFFFFFFFFFFFFFFFFFFFFFFFF AND PUSH32 0x1427D1942829759938581CE754FD0F7F116BFB7A4B77F80F0CB32CD62C2138C7 TIMESTAMP PUSH1 0x40 MLOAD PUSH2 0x18E8 SWAP2 SWAP1 PUSH2 0x3257 JUMP JUMPDEST PUSH1 0x40 MLOAD DUP1 SWAP2 SUB SWAP1 LOG2 POP POP POP POP POP POP POP POP POP POP POP POP POP POP PUSH2 0x1906 PUSH2 0x2DA9 JUMP JUMPDEST JUMP JUMPDEST PUSH0 PUSH0 PUSH1 0x1 PUSH0 DUP5 PUSH20 0xFFFFFFFFFFFFFFFFFFFFFFFFFFFFFFFFFFFFFFFF AND PUSH20 0xFFFFFFFFFFFFFFFFFFFFFFFFFFFFFFFFFFFFFFFF AND DUP2 MSTORE PUSH1 0x20 ADD SWAP1 DUP2 MSTORE PUSH1 0x20 ADD PUSH0 KECCAK256 PUSH1 0x40 MLOAD DUP1 PUSH1 0xA0 ADD PUSH1 0x40 MSTORE SWAP1 DUP2 PUSH0 DUP3 ADD SLOAD DUP2 MSTORE PUSH1 0x20 ADD PUSH1 0x1 DUP3 ADD SLOAD DUP2 MSTORE PUSH1 0x20 ADD PUSH1 0x2 DUP3 ADD SLOAD DUP2 MSTORE PUSH1 0x20 ADD PUSH1 0x3 DUP3 ADD SLOAD DUP2 MSTORE PUSH1 0x20 ADD PUSH1 0x4 DUP3 ADD SLOAD DUP2 MSTORE POP POP SWAP1 POP PUSH0 PUSH0 DUP3 PUSH0 ADD MLOAD GT PUSH2 0x1996 JUMPI PUSH0 PUSH2 0x1A32 JUMP JUMPDEST PUSH32 0x0 PUSH20 0xFFFFFFFFFFFFFFFFFFFFFFFFFFFFFFFFFFFFFFFF AND PUSH4 0x7A2D13A DUP4 PUSH0 ADD MLOAD PUSH1 0x40 MLOAD DUP3 PUSH4 0xFFFFFFFF AND PUSH1 0xE0 SHL DUP2 MSTORE PUSH1 0x4 ADD PUSH2 0x19F2 SWAP2 SWAP1 PUSH2 0x3257 JUMP JUMPDEST PUSH1 0x20 PUSH1 0x40 MLOAD DUP1 DUP4 SUB DUP2 DUP7 GAS STATICCALL ISZERO DUP1 ISZERO PUSH2 0x1A0D JUMPI RETURNDATASIZE PUSH0 PUSH0 RETURNDATACOPY RETURNDATASIZE PUSH0 REVERT JUMPDEST POP POP POP POP PUSH1 0x40 MLOAD RETURNDATASIZE PUSH1 0x1F NOT PUSH1 0x1F DUP3 ADD AND DUP3 ADD DUP1 PUSH1 0x40 MSTORE POP DUP2 ADD SWAP1 PUSH2 0x1A31 SWAP2 SWAP1 PUSH2 0x36B8 JUMP JUMPDEST JUMPDEST SWAP1 POP PUSH0 PUSH0 DUP4 PUSH1 0x20 ADD MLOAD GT PUSH2 0x1A46 JUMPI PUSH0 PUSH2 0x1AE3 JUMP JUMPDEST PUSH32 0x0 PUSH20 0xFFFFFFFFFFFFFFFFFFFFFFFFFFFFFFFFFFFFFFFF AND PUSH4 0x7A2D13A DUP5 PUSH1 0x20 ADD MLOAD PUSH1 0x40 MLOAD DUP3 PUSH4 0xFFFFFFFF AND PUSH1 0xE0 SHL DUP2 MSTORE PUSH1 0x4 ADD PUSH2 0x1AA3 SWAP2 SWAP1 PUSH2 0x3257 JUMP JUMPDEST PUSH1 0x20 PUSH1 0x40 MLOAD DUP1 DUP4 SUB DUP2 DUP7 GAS STATICCALL ISZERO DUP1 ISZERO PUSH2 0x1ABE JUMPI RETURNDATASIZE PUSH0 PUSH0 RETURNDATACOPY RETURNDATASIZE PUSH0 REVERT JUMPDEST POP POP POP POP PUSH1 0x40 MLOAD RETURNDATASIZE PUSH1 0x1F NOT PUSH1 0x1F DUP3 ADD AND DUP3 ADD DUP1 PUSH1 0x40 MSTORE POP DUP2 ADD SWAP1 PUSH2 0x1AE2 SWAP2 SWAP1 PUSH2 0x36B8 JUMP JUMPDEST JUMPDEST SWAP1 POP PUSH0 PUSH0 DUP5 PUSH1 0x40 ADD MLOAD GT PUSH2 0x1AF7 JUMPI PUSH0 PUSH2 0x1B94 JUMP JUMPDEST PUSH32 0x0 PUSH20 0xFFFFFFFFFFFFFFFFFFFFFFFFFFFFFFFFFFFFFFFF AND PUSH4 0x7A2D13A DUP6 PUSH1 0x40 ADD MLOAD PUSH1 0x40 MLOAD DUP3 PUSH4 0xFFFFFFFF AND PUSH1 0xE0 SHL DUP2 MSTORE PUSH1 0x4 ADD PUSH2 0x1B54 SWAP2 SWAP1 PUSH2 0x3257 JUMP JUMPDEST PUSH1 0x20 PUSH1 0x40 MLOAD DUP1 DUP4 SUB DUP2 DUP7 GAS STATICCALL ISZERO DUP1 ISZERO PUSH2 0x1B6F JUMPI RETURNDATASIZE PUSH0 PUSH0 RETURNDATACOPY RETURNDATASIZE PUSH0 REVERT JUMPDEST POP POP POP POP PUSH1 0x40 MLOAD RETURNDATASIZE PUSH1 0x1F NOT PUSH1 0x1F DUP3 ADD AND DUP3 ADD DUP1 PUSH1 0x40 MSTORE POP DUP2 ADD SWAP1 PUSH2 0x1B93 SWAP2 SWAP1 PUSH2 0x36B8 JUMP JUMPDEST JUMPDEST SWAP1 POP PUSH0 DUP2 DUP4 DUP6 PUSH2 0x1BA4 SWAP2 SWAP1 PUSH2 0x3716 JUMP JUMPDEST PUSH2 0x1BAE SWAP2 SWAP1 PUSH2 0x3716 JUMP JUMPDEST SWAP1 POP PUSH0 DUP2 SUB PUSH2 0x1BC4 JUMPI PUSH0 SWAP6 POP POP POP POP POP POP PUSH2 0x1DFD JUMP JUMPDEST PUSH0 PUSH0 SWAP1 POP PUSH0 DUP6 GT ISZERO PUSH2 0x1C81 JUMPI DUP2 PUSH32 0x0 PUSH20 0xFFFFFFFFFFFFFFFFFFFFFFFFFFFFFFFFFFFFFFFF AND PUSH4 0xF19993D7 PUSH1 0x40 MLOAD DUP2 PUSH4 0xFFFFFFFF AND PUSH1 0xE0 SHL DUP2 MSTORE PUSH1 0x4 ADD PUSH1 0x20 PUSH1 0x40 MLOAD DUP1 DUP4 SUB DUP2 DUP7 GAS STATICCALL ISZERO DUP1 ISZERO PUSH2 0x1C3A JUMPI RETURNDATASIZE PUSH0 PUSH0 RETURNDATACOPY RETURNDATASIZE PUSH0 REVERT JUMPDEST POP POP POP POP PUSH1 0x40 MLOAD RETURNDATASIZE PUSH1 0x1F NOT PUSH1 0x1F DUP3 ADD AND DUP3 ADD DUP1 PUSH1 0x40 MSTORE POP DUP2 ADD SWAP1 PUSH2 0x1C5E SWAP2 SWAP1 PUSH2 0x36B8 JUMP JUMPDEST DUP7 PUSH2 0x1C69 SWAP2 SWAP1 PUSH2 0x35D1 JUMP JUMPDEST PUSH2 0x1C73 SWAP2 SWAP1 PUSH2 0x363F JUMP JUMPDEST DUP2 PUSH2 0x1C7E SWAP2 SWAP1 PUSH2 0x3716 JUMP JUMPDEST SWAP1 POP JUMPDEST PUSH0 DUP5 GT ISZERO PUSH2 0x1D3A JUMPI DUP2 PUSH32 0x0 PUSH20 0xFFFFFFFFFFFFFFFFFFFFFFFFFFFFFFFFFFFFFFFF AND PUSH4 0xF19993D7 PUSH1 0x40 MLOAD DUP2 PUSH4 0xFFFFFFFF AND PUSH1 0xE0 SHL DUP2 MSTORE PUSH1 0x4 ADD PUSH1 0x20 PUSH1 0x40 MLOAD DUP1 DUP4 SUB DUP2 DUP7 GAS STATICCALL ISZERO DUP1 ISZERO PUSH2 0x1CF3 JUMPI RETURNDATASIZE PUSH0 PUSH0 RETURNDATACOPY RETURNDATASIZE PUSH0 REVERT JUMPDEST POP POP POP POP PUSH1 0x40 MLOAD RETURNDATASIZE PUSH1 0x1F NOT PUSH1 0x1F DUP3 ADD AND DUP3 ADD DUP1 PUSH1 0x40 MSTORE POP DUP2 ADD SWAP1 PUSH2 0x1D17 SWAP2 SWAP1 PUSH2 0x36B8 JUMP JUMPDEST DUP6 PUSH2 0x1D22 SWAP2 SWAP1 PUSH2 0x35D1 JUMP JUMPDEST PUSH2 0x1D2C SWAP2 SWAP1 PUSH2 0x363F JUMP JUMPDEST DUP2 PUSH2 0x1D37 SWAP2 SWAP1 PUSH2 0x3716 JUMP JUMPDEST SWAP1 POP JUMPDEST PUSH0 DUP4 GT ISZERO PUSH2 0x1DF3 JUMPI DUP2 PUSH32 0x0 PUSH20 0xFFFFFFFFFFFFFFFFFFFFFFFFFFFFFFFFFFFFFFFF AND PUSH4 0xF19993D7 PUSH1 0x40 MLOAD DUP2 PUSH4 0xFFFFFFFF AND PUSH1 0xE0 SHL DUP2 MSTORE PUSH1 0x4 ADD PUSH1 0x20 PUSH1 0x40 MLOAD DUP1 DUP4 SUB DUP2 DUP7 GAS STATICCALL ISZERO DUP1 ISZERO PUSH2 0x1DAC JUMPI RETURNDATASIZE PUSH0 PUSH0 RETURNDATACOPY RETURNDATASIZE PUSH0 REVERT JUMPDEST POP POP POP POP PUSH1 0x40 MLOAD RETURNDATASIZE PUSH1 0x1F NOT PUSH1 0x1F DUP3 ADD AND DUP3 ADD DUP1 PUSH1 0x40 MSTORE POP DUP2 ADD SWAP1 PUSH2 0x1DD0 SWAP2 SWAP1 PUSH2 0x36B8 JUMP JUMPDEST DUP5 PUSH2 0x1DDB SWAP2 SWAP1 PUSH2 0x35D1 JUMP JUMPDEST PUSH2 0x1DE5 SWAP2 SWAP1 PUSH2 0x363F JUMP JUMPDEST DUP2 PUSH2 0x1DF0 SWAP2 SWAP1 PUSH2 0x3716 JUMP JUMPDEST SWAP1 POP JUMPDEST DUP1 SWAP7 POP POP POP POP POP POP POP JUMPDEST SWAP2 SWAP1 POP JUMP JUMPDEST PUSH0 PUSH2 0x1E0B PUSH2 0x2D34 JUMP JUMPDEST PUSH0 PUSH1 0x1 PUSH0 CALLER PUSH20 0xFFFFFFFFFFFFFFFFFFFFFFFFFFFFFFFFFFFFFFFF AND PUSH20 0xFFFFFFFFFFFFFFFFFFFFFFFFFFFFFFFFFFFFFFFF AND DUP2 MSTORE PUSH1 0x20 ADD SWAP1 DUP2 MSTORE PUSH1 0x20 ADD PUSH0 KECCAK256 PUSH1 0x40 MLOAD DUP1 PUSH1 0xA0 ADD PUSH1 0x40 MSTORE SWAP1 DUP2 PUSH0 DUP3 ADD SLOAD DUP2 MSTORE PUSH1 0x20 ADD PUSH1 0x1 DUP3 ADD SLOAD DUP2 MSTORE PUSH1 0x20 ADD PUSH1 0x2 DUP3 ADD SLOAD DUP2 MSTORE PUSH1 0x20 ADD PUSH1 0x3 DUP3 ADD SLOAD DUP2 MSTORE PUSH1 0x20 ADD PUSH1 0x4 DUP3 ADD SLOAD DUP2 MSTORE POP POP SWAP1 POP PUSH0 DUP2 PUSH0 ADD MLOAD EQ DUP1 ISZERO PUSH2 0x1E9C JUMPI POP PUSH0 DUP2 PUSH1 0x20 ADD MLOAD EQ JUMPDEST DUP1 ISZERO PUSH2 0x1EAB JUMPI POP PUSH0 DUP2 PUSH1 0x40 ADD MLOAD EQ JUMPDEST ISZERO PUSH2 0x1EE2 JUMPI PUSH1 0x40 MLOAD PUSH32 0xABF0F03400000000000000000000000000000000000000000000000000000000 DUP2 MSTORE PUSH1 0x4 ADD PUSH1 0x40 MLOAD DUP1 SWAP2 SUB SWAP1 REVERT JUMPDEST PUSH0 PUSH0 SWAP1 POP PUSH0 PUSH0 SWAP1 POP PUSH0 PUSH0 SWAP1 POP PUSH0 DUP5 PUSH0 ADD MLOAD GT ISZERO PUSH2 0x1F9C JUMPI PUSH32 0x0 PUSH20 0xFFFFFFFFFFFFFFFFFFFFFFFFFFFFFFFFFFFFFFFF AND PUSH4 0xBA087652 DUP6 PUSH0 ADD MLOAD ADDRESS ADDRESS PUSH1 0x40 MLOAD DUP5 PUSH4 0xFFFFFFFF AND PUSH1 0xE0 SHL DUP2 MSTORE PUSH1 0x4 ADD PUSH2 0x1F59 SWAP4 SWAP3 SWAP2 SWAP1 PUSH2 0x366F JUMP JUMPDEST PUSH1 0x20 PUSH1 0x40 MLOAD DUP1 DUP4 SUB DUP2 PUSH0 DUP8 GAS CALL ISZERO DUP1 ISZERO PUSH2 0x1F75 JUMPI RETURNDATASIZE PUSH0 PUSH0 RETURNDATACOPY RETURNDATASIZE PUSH0 REVERT JUMPDEST POP POP POP POP PUSH1 0x40 MLOAD RETURNDATASIZE PUSH1 0x1F NOT PUSH1 0x1F DUP3 ADD AND DUP3 ADD DUP1 PUSH1 0x40 MSTORE POP DUP2 ADD SWAP1 PUSH2 0x1F99 SWAP2 SWAP1 PUSH2 0x36B8 JUMP JUMPDEST SWAP3 POP JUMPDEST PUSH0 DUP5 PUSH1 0x20 ADD MLOAD GT ISZERO PUSH2 0x204C JUMPI PUSH32 0x0 PUSH20 0xFFFFFFFFFFFFFFFFFFFFFFFFFFFFFFFFFFFFFFFF AND PUSH4 0xBA087652 DUP6 PUSH1 0x20 ADD MLOAD ADDRESS ADDRESS PUSH1 0x40 MLOAD DUP5 PUSH4 0xFFFFFFFF AND PUSH1 0xE0 SHL DUP2 MSTORE PUSH1 0x4 ADD PUSH2 0x2009 SWAP4 SWAP3 SWAP2 SWAP1 PUSH2 0x366F JUMP JUMPDEST PUSH1 0x20 PUSH1 0x40 MLOAD DUP1 DUP4 SUB DUP2 PUSH0 DUP8 GAS CALL ISZERO DUP1 ISZERO PUSH2 0x2025 JUMPI RETURNDATASIZE PUSH0 PUSH0 RETURNDATACOPY RETURNDATASIZE PUSH0 REVERT JUMPDEST POP POP POP POP PUSH1 0x40 MLOAD RETURNDATASIZE PUSH1 0x1F NOT PUSH1 0x1F DUP3 ADD AND DUP3 ADD DUP1 PUSH1 0x40 MSTORE POP DUP2 ADD SWAP1 PUSH2 0x2049 SWAP2 SWAP1 PUSH2 0x36B8 JUMP JUMPDEST SWAP2 POP JUMPDEST PUSH0 DUP5 PUSH1 0x40 ADD MLOAD GT ISZERO PUSH2 0x20FC JUMPI PUSH32 0x0 PUSH20 0xFFFFFFFFFFFFFFFFFFFFFFFFFFFFFFFFFFFFFFFF AND PUSH4 0xBA087652 DUP6 PUSH1 0x40 ADD MLOAD ADDRESS ADDRESS PUSH1 0x40 MLOAD DUP5 PUSH4 0xFFFFFFFF AND PUSH1 0xE0 SHL DUP2 MSTORE PUSH1 0x4 ADD PUSH2 0x20B9 SWAP4 SWAP3 SWAP2 SWAP1 PUSH2 0x366F JUMP JUMPDEST PUSH1 0x20 PUSH1 0x40 MLOAD DUP1 DUP4 SUB DUP2 PUSH0 DUP8 GAS CALL ISZERO DUP1 ISZERO PUSH2 0x20D5 JUMPI RETURNDATASIZE PUSH0 PUSH0 RETURNDATACOPY RETURNDATASIZE PUSH0 REVERT JUMPDEST POP POP POP POP PUSH1 0x40 MLOAD RETURNDATASIZE PUSH1 0x1F NOT PUSH1 0x1F DUP3 ADD AND DUP3 ADD DUP1 PUSH1 0x40 MSTORE POP DUP2 ADD SWAP1 PUSH2 0x20F9 SWAP2 SWAP1 PUSH2 0x36B8 JUMP JUMPDEST SWAP1 POP JUMPDEST DUP1 DUP3 DUP5 PUSH2 0x2109 SWAP2 SWAP1 PUSH2 0x3716 JUMP JUMPDEST PUSH2 0x2113 SWAP2 SWAP1 PUSH2 0x3716 JUMP JUMPDEST SWAP5 POP PUSH1 0x1 PUSH0 CALLER PUSH20 0xFFFFFFFFFFFFFFFFFFFFFFFFFFFFFFFFFFFFFFFF AND PUSH20 0xFFFFFFFFFFFFFFFFFFFFFFFFFFFFFFFFFFFFFFFF AND DUP2 MSTORE PUSH1 0x20 ADD SWAP1 DUP2 MSTORE PUSH1 0x20 ADD PUSH0 KECCAK256 PUSH0 PUSH0 DUP3 ADD PUSH0 SWAP1 SSTORE PUSH1 0x1 DUP3 ADD PUSH0 SWAP1 SSTORE PUSH1 0x2 DUP3 ADD PUSH0 SWAP1 SSTORE PUSH1 0x3 DUP3 ADD PUSH0 SWAP1 SSTORE PUSH1 0x4 DUP3 ADD PUSH0 SWAP1 SSTORE POP POP PUSH2 0x21C2 CALLER DUP7 PUSH32 0x0 PUSH20 0xFFFFFFFFFFFFFFFFFFFFFFFFFFFFFFFFFFFFFFFF AND PUSH2 0x2D56 SWAP1 SWAP3 SWAP2 SWAP1 PUSH4 0xFFFFFFFF AND JUMP JUMPDEST CALLER PUSH20 0xFFFFFFFFFFFFFFFFFFFFFFFFFFFFFFFFFFFFFFFF AND PUSH32 0x94FFD6B85C71B847775C89EF6496B93CEE961BDC6FF827FD117F174F06F745AE DUP7 DUP7 PUSH0 ADD MLOAD DUP8 PUSH1 0x20 ADD MLOAD DUP9 PUSH1 0x40 ADD MLOAD PUSH1 0x40 MLOAD PUSH2 0x2219 SWAP5 SWAP4 SWAP3 SWAP2 SWAP1 PUSH2 0x350F JUMP JUMPDEST PUSH1 0x40 MLOAD DUP1 SWAP2 SUB SWAP1 LOG2 POP POP POP POP PUSH2 0x222D PUSH2 0x2DA9 JUMP JUMPDEST SWAP1 JUMP JUMPDEST PUSH0 PUSH0 PUSH0 SWAP1 SLOAD SWAP1 PUSH2 0x100 EXP SWAP1 DIV PUSH20 0xFFFFFFFFFFFFFFFFFFFFFFFFFFFFFFFFFFFFFFFF AND SWAP1 POP SWAP1 JUMP JUMPDEST PUSH32 0x0 DUP2 JUMP JUMPDEST PUSH0 PUSH0 PUSH0 PUSH0 PUSH1 0x1 PUSH0 DUP7 PUSH20 0xFFFFFFFFFFFFFFFFFFFFFFFFFFFFFFFFFFFFFFFF AND PUSH20 0xFFFFFFFFFFFFFFFFFFFFFFFFFFFFFFFFFFFFFFFF AND DUP2 MSTORE PUSH1 0x20 ADD SWAP1 DUP2 MSTORE PUSH1 0x20 ADD PUSH0 KECCAK256 PUSH1 0x40 MLOAD DUP1 PUSH1 0xA0 ADD PUSH1 0x40 MSTORE SWAP1 DUP2 PUSH0 DUP3 ADD SLOAD DUP2 MSTORE PUSH1 0x20 ADD PUSH1 0x1 DUP3 ADD SLOAD DUP2 MSTORE PUSH1 0x20 ADD PUSH1 0x2 DUP3 ADD SLOAD DUP2 MSTORE PUSH1 0x20 ADD PUSH1 0x3 DUP3 ADD SLOAD DUP2 MSTORE PUSH1 0x20 ADD PUSH1 0x4 DUP3 ADD SLOAD DUP2 MSTORE POP POP SWAP1 POP DUP1 PUSH0 ADD MLOAD DUP2 PUSH1 0x20 ADD MLOAD DUP3 PUSH1 0x40 ADD MLOAD SWAP4 POP SWAP4 POP SWAP4 POP POP SWAP2 SWAP4 SWAP1 SWAP3 POP JUMP JUMPDEST PUSH32 0x0 DUP2 JUMP JUMPDEST PUSH0 PUSH0 PUSH1 0x1 PUSH0 DUP5 PUSH20 0xFFFFFFFFFFFFFFFFFFFFFFFFFFFFFFFFFFFFFFFF AND PUSH20 0xFFFFFFFFFFFFFFFFFFFFFFFFFFFFFFFFFFFFFFFF AND DUP2 MSTORE PUSH1 0x20 ADD SWAP1 DUP2 MSTORE PUSH1 0x20 ADD PUSH0 KECCAK256 PUSH1 0x40 MLOAD DUP1 PUSH1 0xA0 ADD PUSH1 0x40 MSTORE SWAP1 DUP2 PUSH0 DUP3 ADD SLOAD DUP2 MSTORE PUSH1 0x20 ADD PUSH1 0x1 DUP3 ADD SLOAD DUP2 MSTORE PUSH1 0x20 ADD PUSH1 0x2 DUP3 ADD SLOAD DUP2 MSTORE PUSH1 0x20 ADD PUSH1 0x3 DUP3 ADD SLOAD DUP2 MSTORE PUSH1 0x20 ADD PUSH1 0x4 DUP3 ADD SLOAD DUP2 MSTORE POP POP SWAP1 POP PUSH0 PUSH0 DUP3 PUSH0 ADD MLOAD GT PUSH2 0x23C8 JUMPI PUSH0 PUSH2 0x2464 JUMP JUMPDEST PUSH32 0x0 PUSH20 0xFFFFFFFFFFFFFFFFFFFFFFFFFFFFFFFFFFFFFFFF AND PUSH4 0x7A2D13A DUP4 PUSH0 ADD MLOAD PUSH1 0x40 MLOAD DUP3 PUSH4 0xFFFFFFFF AND PUSH1 0xE0 SHL DUP2 MSTORE PUSH1 0x4 ADD PUSH2 0x2424 SWAP2 SWAP1 PUSH2 0x3257 JUMP JUMPDEST PUSH1 0x20 PUSH1 0x40 MLOAD DUP1 DUP4 SUB DUP2 DUP7 GAS STATICCALL ISZERO DUP1 ISZERO PUSH2 0x243F JUMPI RETURNDATASIZE PUSH0 PUSH0 RETURNDATACOPY RETURNDATASIZE PUSH0 REVERT JUMPDEST POP POP POP POP PUSH1 0x40 MLOAD RETURNDATASIZE PUSH1 0x1F NOT PUSH1 0x1F DUP3 ADD AND DUP3 ADD DUP1 PUSH1 0x40 MSTORE POP DUP2 ADD SWAP1 PUSH2 0x2463 SWAP2 SWAP1 PUSH2 0x36B8 JUMP JUMPDEST JUMPDEST SWAP1 POP PUSH0 PUSH0 DUP4 PUSH1 0x20 ADD MLOAD GT PUSH2 0x2478 JUMPI PUSH0 PUSH2 0x2515 JUMP JUMPDEST PUSH32 0x0 PUSH20 0xFFFFFFFFFFFFFFFFFFFFFFFFFFFFFFFFFFFFFFFF AND PUSH4 0x7A2D13A DUP5 PUSH1 0x20 ADD MLOAD PUSH1 0x40 MLOAD DUP3 PUSH4 0xFFFFFFFF AND PUSH1 0xE0 SHL DUP2 MSTORE PUSH1 0x4 ADD PUSH2 0x24D5 SWAP2 SWAP1 PUSH2 0x3257 JUMP JUMPDEST PUSH1 0x20 PUSH1 0x40 MLOAD DUP1 DUP4 SUB DUP2 DUP7 GAS STATICCALL ISZERO DUP1 ISZERO PUSH2 0x24F0 JUMPI RETURNDATASIZE PUSH0 PUSH0 RETURNDATACOPY RETURNDATASIZE PUSH0 REVERT JUMPDEST POP POP POP POP PUSH1 0x40 MLOAD RETURNDATASIZE PUSH1 0x1F NOT PUSH1 0x1F DUP3 ADD AND DUP3 ADD DUP1 PUSH1 0x40 MSTORE POP DUP2 ADD SWAP1 PUSH2 0x2514 SWAP2 SWAP1 PUSH2 0x36B8 JUMP JUMPDEST JUMPDEST SWAP1 POP PUSH0 PUSH0 DUP5 PUSH1 0x40 ADD MLOAD GT PUSH2 0x2529 JUMPI PUSH0 PUSH2 0x25C6 JUMP JUMPDEST PUSH32 0x0 PUSH20 0xFFFFFFFFFFFFFFFFFFFFFFFFFFFFFFFFFFFFFFFF AND PUSH4 0x7A2D13A DUP6 PUSH1 0x40 ADD MLOAD PUSH1 0x40 MLOAD DUP3 PUSH4 0xFFFFFFFF AND PUSH1 0xE0 SHL DUP2 MSTORE PUSH1 0x4 ADD PUSH2 0x2586 SWAP2 SWAP1 PUSH2 0x3257 JUMP JUMPDEST PUSH1 0x20 PUSH1 0x40 MLOAD DUP1 DUP4 SUB DUP2 DUP7 GAS STATICCALL ISZERO DUP1 ISZERO PUSH2 0x25A1 JUMPI RETURNDATASIZE PUSH0 PUSH0 RETURNDATACOPY RETURNDATASIZE PUSH0 REVERT JUMPDEST POP POP POP POP PUSH1 0x40 MLOAD RETURNDATASIZE PUSH1 0x1F NOT PUSH1 0x1F DUP3 ADD AND DUP3 ADD DUP1 PUSH1 0x40 MSTORE POP DUP2 ADD SWAP1 PUSH2 0x25C5 SWAP2 SWAP1 PUSH2 0x36B8 JUMP JUMPDEST JUMPDEST SWAP1 POP DUP1 DUP3 DUP5 PUSH2 0x25D5 SWAP2 SWAP1 PUSH2 0x3716 JUMP JUMPDEST PUSH2 0x25DF SWAP2 SWAP1 PUSH2 0x3716 JUMP JUMPDEST SWAP5 POP POP POP POP POP SWAP2 SWAP1 POP JUMP JUMPDEST PUSH0 PUSH0 PUSH0 PUSH2 0x25F5 PUSH2 0x2D34 JUMP JUMPDEST PUSH0 DUP5 SUB PUSH2 0x262E JUMPI PUSH1 0x40 MLOAD PUSH32 0x1F2A200500000000000000000000000000000000000000000000000000000000 DUP2 MSTORE PUSH1 0x4 ADD PUSH1 0x40 MLOAD DUP1 SWAP2 SUB SWAP1 REVERT JUMPDEST PUSH32 0x0 PUSH20 0xFFFFFFFFFFFFFFFFFFFFFFFFFFFFFFFFFFFFFFFF AND PUSH4 0xA787C80B CALLER PUSH1 0x40 MLOAD DUP3 PUSH4 0xFFFFFFFF AND PUSH1 0xE0 SHL DUP2 MSTORE PUSH1 0x4 ADD PUSH2 0x2687 SWAP2 SWAP1 PUSH2 0x3552 JUMP JUMPDEST PUSH1 0x20 PUSH1 0x40 MLOAD DUP1 DUP4 SUB DUP2 DUP7 GAS STATICCALL ISZERO DUP1 ISZERO PUSH2 0x26A2 JUMPI RETURNDATASIZE PUSH0 PUSH0 RETURNDATACOPY RETURNDATASIZE PUSH0 REVERT JUMPDEST POP POP POP POP PUSH1 0x40 MLOAD RETURNDATASIZE PUSH1 0x1F NOT PUSH1 0x1F DUP3 ADD AND DUP3 ADD DUP1 PUSH1 0x40 MSTORE POP DUP2 ADD SWAP1 PUSH2 0x26C6 SWAP2 SWAP1 PUSH2 0x37E5 JUMP JUMPDEST PUSH2 0x26FC JUMPI PUSH1 0x40 MLOAD PUSH32 0x6F86092700000000000000000000000000000000000000000000000000000000 DUP2 MSTORE PUSH1 0x4 ADD PUSH1 0x40 MLOAD DUP1 SWAP2 SUB SWAP1 REVERT JUMPDEST PUSH0 PUSH32 0x0 PUSH20 0xFFFFFFFFFFFFFFFFFFFFFFFFFFFFFFFFFFFFFFFF AND PUSH4 0xBAF1E57F CALLER PUSH1 0x40 MLOAD DUP3 PUSH4 0xFFFFFFFF AND PUSH1 0xE0 SHL DUP2 MSTORE PUSH1 0x4 ADD PUSH2 0x2756 SWAP2 SWAP1 PUSH2 0x3552 JUMP JUMPDEST PUSH1 0x60 PUSH1 0x40 MLOAD DUP1 DUP4 SUB DUP2 DUP7 GAS STATICCALL ISZERO DUP1 ISZERO PUSH2 0x2771 JUMPI RETURNDATASIZE PUSH0 PUSH0 RETURNDATACOPY RETURNDATASIZE PUSH0 REVERT JUMPDEST POP POP POP POP PUSH1 0x40 MLOAD RETURNDATASIZE PUSH1 0x1F NOT PUSH1 0x1F DUP3 ADD AND DUP3 ADD DUP1 PUSH1 0x40 MSTORE POP DUP2 ADD SWAP1 PUSH2 0x2795 SWAP2 SWAP1 PUSH2 0x3933 JUMP JUMPDEST SWAP1 POP PUSH0 PUSH1 0x64 DUP3 PUSH0 ADD MLOAD PUSH1 0xFF AND DUP8 PUSH2 0x27AC SWAP2 SWAP1 PUSH2 0x35D1 JUMP JUMPDEST PUSH2 0x27B6 SWAP2 SWAP1 PUSH2 0x363F JUMP JUMPDEST SWAP1 POP PUSH0 PUSH1 0x64 DUP4 PUSH1 0x20 ADD MLOAD PUSH1 0xFF AND DUP9 PUSH2 0x27CE SWAP2 SWAP1 PUSH2 0x35D1 JUMP JUMPDEST PUSH2 0x27D8 SWAP2 SWAP1 PUSH2 0x363F JUMP JUMPDEST SWAP1 POP PUSH0 DUP2 DUP4 DUP10 PUSH2 0x27E8 SWAP2 SWAP1 PUSH2 0x36E3 JUMP JUMPDEST PUSH2 0x27F2 SWAP2 SWAP1 PUSH2 0x36E3 JUMP JUMPDEST SWAP1 POP PUSH2 0x2841 CALLER ADDRESS DUP11 PUSH32 0x0 PUSH20 0xFFFFFFFFFFFFFFFFFFFFFFFFFFFFFFFFFFFFFFFF AND PUSH2 0x2FBD SWAP1 SWAP4 SWAP3 SWAP2 SWAP1 PUSH4 0xFFFFFFFF AND JUMP JUMPDEST PUSH0 DUP4 GT ISZERO PUSH2 0x2952 JUMPI PUSH2 0x28B4 PUSH32 0x0 DUP5 PUSH32 0x0 PUSH20 0xFFFFFFFFFFFFFFFFFFFFFFFFFFFFFFFFFFFFFFFF AND PUSH2 0x2F0B SWAP1 SWAP3 SWAP2 SWAP1 PUSH4 0xFFFFFFFF AND JUMP JUMPDEST PUSH32 0x0 PUSH20 0xFFFFFFFFFFFFFFFFFFFFFFFFFFFFFFFFFFFFFFFF AND PUSH4 0x6E553F65 DUP5 ADDRESS PUSH1 0x40 MLOAD DUP4 PUSH4 0xFFFFFFFF AND PUSH1 0xE0 SHL DUP2 MSTORE PUSH1 0x4 ADD PUSH2 0x290F SWAP3 SWAP2 SWAP1 PUSH2 0x395E JUMP JUMPDEST PUSH1 0x20 PUSH1 0x40 MLOAD DUP1 DUP4 SUB DUP2 PUSH0 DUP8 GAS CALL ISZERO DUP1 ISZERO PUSH2 0x292B JUMPI RETURNDATASIZE PUSH0 PUSH0 RETURNDATACOPY RETURNDATASIZE PUSH0 REVERT JUMPDEST POP POP POP POP PUSH1 0x40 MLOAD RETURNDATASIZE PUSH1 0x1F NOT PUSH1 0x1F DUP3 ADD AND DUP3 ADD DUP1 PUSH1 0x40 MSTORE POP DUP2 ADD SWAP1 PUSH2 0x294F SWAP2 SWAP1 PUSH2 0x36B8 JUMP JUMPDEST SWAP7 POP JUMPDEST PUSH0 DUP3 GT ISZERO PUSH2 0x2A63 JUMPI PUSH2 0x29C5 PUSH32 0x0 DUP4 PUSH32 0x0 PUSH20 0xFFFFFFFFFFFFFFFFFFFFFFFFFFFFFFFFFFFFFFFF AND PUSH2 0x2F0B SWAP1 SWAP3 SWAP2 SWAP1 PUSH4 0xFFFFFFFF AND JUMP JUMPDEST PUSH32 0x0 PUSH20 0xFFFFFFFFFFFFFFFFFFFFFFFFFFFFFFFFFFFFFFFF AND PUSH4 0x6E553F65 DUP4 ADDRESS PUSH1 0x40 MLOAD DUP4 PUSH4 0xFFFFFFFF AND PUSH1 0xE0 SHL DUP2 MSTORE PUSH1 0x4 ADD PUSH2 0x2A20 SWAP3 SWAP2 SWAP1 PUSH2 0x395E JUMP JUMPDEST PUSH1 0x20 PUSH1 0x40 MLOAD DUP1 DUP4 SUB DUP2 PUSH0 DUP8 GAS CALL ISZERO DUP1 ISZERO PUSH2 0x2A3C JUMPI RETURNDATASIZE PUSH0 PUSH0 RETURNDATACOPY RETURNDATASIZE PUSH0 REVERT JUMPDEST POP POP POP POP PUSH1 0x40 MLOAD RETURNDATASIZE PUSH1 0x1F NOT PUSH1 0x1F DUP3 ADD AND DUP3 ADD DUP1 PUSH1 0x40 MSTORE POP DUP2 ADD SWAP1 PUSH2 0x2A60 SWAP2 SWAP1 PUSH2 0x36B8 JUMP JUMPDEST SWAP6 POP JUMPDEST PUSH0 DUP2 GT ISZERO PUSH2 0x2B74 JUMPI PUSH2 0x2AD6 PUSH32 0x0 DUP3 PUSH32 0x0 PUSH20 0xFFFFFFFFFFFFFFFFFFFFFFFFFFFFFFFFFFFFFFFF AND PUSH2 0x2F0B SWAP1 SWAP3 SWAP2 SWAP1 PUSH4 0xFFFFFFFF AND JUMP JUMPDEST PUSH32 0x0 PUSH20 0xFFFFFFFFFFFFFFFFFFFFFFFFFFFFFFFFFFFFFFFF AND PUSH4 0x6E553F65 DUP3 ADDRESS PUSH1 0x40 MLOAD DUP4 PUSH4 0xFFFFFFFF AND PUSH1 0xE0 SHL DUP2 MSTORE PUSH1 0x4 ADD PUSH2 0x2B31 SWAP3 SWAP2 SWAP1 PUSH2 0x395E JUMP JUMPDEST PUSH1 0x20 PUSH1 0x40 MLOAD DUP1 DUP4 SUB DUP2 PUSH0 DUP8 GAS CALL ISZERO DUP1 ISZERO PUSH2 0x2B4D JUMPI RETURNDATASIZE PUSH0 PUSH0 RETURNDATACOPY RETURNDATASIZE PUSH0 REVERT JUMPDEST POP POP POP POP PUSH1 0x40 MLOAD RETURNDATASIZE PUSH1 0x1F NOT PUSH1 0x1F DUP3 ADD AND DUP3 ADD DUP1 PUSH1 0x40 MSTORE POP DUP2 ADD SWAP1 PUSH2 0x2B71 SWAP2 SWAP1 PUSH2 0x36B8 JUMP JUMPDEST SWAP5 POP JUMPDEST PUSH0 PUSH1 0x1 PUSH0 CALLER PUSH20 0xFFFFFFFFFFFFFFFFFFFFFFFFFFFFFFFFFFFFFFFF AND PUSH20 0xFFFFFFFFFFFFFFFFFFFFFFFFFFFFFFFFFFFFFFFF AND DUP2 MSTORE PUSH1 0x20 ADD SWAP1 DUP2 MSTORE PUSH1 0x20 ADD PUSH0 KECCAK256 SWAP1 POP DUP8 DUP2 PUSH0 ADD PUSH0 DUP3 DUP3 SLOAD PUSH2 0x2BC6 SWAP2 SWAP1 PUSH2 0x3716 JUMP JUMPDEST SWAP3 POP POP DUP2 SWAP1 SSTORE POP DUP7 DUP2 PUSH1 0x1 ADD PUSH0 DUP3 DUP3 SLOAD PUSH2 0x2BE0 SWAP2 SWAP1 PUSH2 0x3716 JUMP JUMPDEST SWAP3 POP POP DUP2 SWAP1 SSTORE POP DUP6 DUP2 PUSH1 0x2 ADD PUSH0 DUP3 DUP3 SLOAD PUSH2 0x2BFA SWAP2 SWAP1 PUSH2 0x3716 JUMP JUMPDEST SWAP3 POP POP DUP2 SWAP1 SSTORE POP DUP9 DUP2 PUSH1 0x3 ADD PUSH0 DUP3 DUP3 SLOAD PUSH2 0x2C14 SWAP2 SWAP1 PUSH2 0x3716 JUMP JUMPDEST SWAP3 POP POP DUP2 SWAP1 SSTORE POP TIMESTAMP DUP2 PUSH1 0x4 ADD DUP2 SWAP1 SSTORE POP CALLER PUSH20 0xFFFFFFFFFFFFFFFFFFFFFFFFFFFFFFFFFFFFFFFF AND PUSH32 0xE3B53CD1A44FBF11535E145D80B8EF1ED6D57A73BF5DAA7E939B6B01657D6549 DUP11 DUP11 DUP11 DUP11 PUSH1 0x40 MLOAD PUSH2 0x2C70 SWAP5 SWAP4 SWAP3 SWAP2 SWAP1 PUSH2 0x350F JUMP JUMPDEST PUSH1 0x40 MLOAD DUP1 SWAP2 SUB SWAP1 LOG2 POP POP POP POP POP PUSH2 0x2C85 PUSH2 0x2DA9 JUMP JUMPDEST SWAP2 SWAP4 SWAP1 SWAP3 POP JUMP JUMPDEST PUSH32 0x0 DUP2 JUMP JUMPDEST PUSH2 0x2CB8 PUSH2 0x2DC3 JUMP JUMPDEST PUSH0 PUSH20 0xFFFFFFFFFFFFFFFFFFFFFFFFFFFFFFFFFFFFFFFF AND DUP2 PUSH20 0xFFFFFFFFFFFFFFFFFFFFFFFFFFFFFFFFFFFFFFFF AND SUB PUSH2 0x2D28 JUMPI PUSH0 PUSH1 0x40 MLOAD PUSH32 0x1E4FBDF700000000000000000000000000000000000000000000000000000000 DUP2 MSTORE PUSH1 0x4 ADD PUSH2 0x2D1F SWAP2 SWAP1 PUSH2 0x3552 JUMP JUMPDEST PUSH1 0x40 MLOAD DUP1 SWAP2 SUB SWAP1 REVERT JUMPDEST PUSH2 0x2D31 DUP2 PUSH2 0x2E4A JUMP JUMPDEST POP JUMP JUMPDEST PUSH2 0x2D3C PUSH2 0x3012 JUMP JUMPDEST PUSH1 0x2 PUSH2 0x2D4E PUSH2 0x2D49 PUSH2 0x3053 JUMP JUMPDEST PUSH2 0x307C JUMP JUMPDEST PUSH0 ADD DUP2 SWAP1 SSTORE POP JUMP JUMPDEST PUSH2 0x2D63 DUP4 DUP4 DUP4 PUSH1 0x1 PUSH2 0x3085 JUMP JUMPDEST PUSH2 0x2DA4 JUMPI DUP3 PUSH1 0x40 MLOAD PUSH32 0x5274AFE700000000000000000000000000000000000000000000000000000000 DUP2 MSTORE PUSH1 0x4 ADD PUSH2 0x2D9B SWAP2 SWAP1 PUSH2 0x3552 JUMP JUMPDEST PUSH1 0x40 MLOAD DUP1 SWAP2 SUB SWAP1 REVERT JUMPDEST POP POP POP JUMP JUMPDEST PUSH1 0x1 PUSH2 0x2DBB PUSH2 0x2DB6 PUSH2 0x3053 JUMP JUMPDEST PUSH2 0x307C JUMP JUMPDEST PUSH0 ADD DUP2 SWAP1 SSTORE POP JUMP JUMPDEST PUSH2 0x2DCB PUSH2 0x30E7 JUMP JUMPDEST PUSH20 0xFFFFFFFFFFFFFFFFFFFFFFFFFFFFFFFFFFFFFFFF AND PUSH2 0x2DE9 PUSH2 0x2230 JUMP JUMPDEST PUSH20 0xFFFFFFFFFFFFFFFFFFFFFFFFFFFFFFFFFFFFFFFF AND EQ PUSH2 0x2E48 JUMPI PUSH2 0x2E0C PUSH2 0x30E7 JUMP JUMPDEST PUSH1 0x40 MLOAD PUSH32 0x118CDAA700000000000000000000000000000000000000000000000000000000 DUP2 MSTORE PUSH1 0x4 ADD PUSH2 0x2E3F SWAP2 SWAP1 PUSH2 0x3552 JUMP JUMPDEST PUSH1 0x40 MLOAD DUP1 SWAP2 SUB SWAP1 REVERT JUMPDEST JUMP JUMPDEST PUSH0 PUSH0 PUSH0 SWAP1 SLOAD SWAP1 PUSH2 0x100 EXP SWAP1 DIV PUSH20 0xFFFFFFFFFFFFFFFFFFFFFFFFFFFFFFFFFFFFFFFF AND SWAP1 POP DUP2 PUSH0 PUSH0 PUSH2 0x100 EXP DUP2 SLOAD DUP2 PUSH20 0xFFFFFFFFFFFFFFFFFFFFFFFFFFFFFFFFFFFFFFFF MUL NOT AND SWAP1 DUP4 PUSH20 0xFFFFFFFFFFFFFFFFFFFFFFFFFFFFFFFFFFFFFFFF AND MUL OR SWAP1 SSTORE POP DUP2 PUSH20 0xFFFFFFFFFFFFFFFFFFFFFFFFFFFFFFFFFFFFFFFF AND DUP2 PUSH20 0xFFFFFFFFFFFFFFFFFFFFFFFFFFFFFFFFFFFFFFFF AND PUSH32 0x8BE0079C531659141344CD1FD0A4F28419497F9722A3DAAFE3B4186F6B6457E0 PUSH1 0x40 MLOAD PUSH1 0x40 MLOAD DUP1 SWAP2 SUB SWAP1 LOG3 POP POP JUMP JUMPDEST PUSH2 0x2F17 DUP4 DUP4 DUP4 PUSH0 PUSH2 0x30EE JUMP JUMPDEST PUSH2 0x2FB8 JUMPI PUSH2 0x2F28 DUP4 DUP4 PUSH0 PUSH1 0x1 PUSH2 0x30EE JUMP JUMPDEST PUSH2 0x2F69 JUMPI DUP3 PUSH1 0x40 MLOAD PUSH32 0x5274AFE700000000000000000000000000000000000000000000000000000000 DUP2 MSTORE PUSH1 0x4 ADD PUSH2 0x2F60 SWAP2 SWAP1 PUSH2 0x3552 JUMP JUMPDEST PUSH1 0x40 MLOAD DUP1 SWAP2 SUB SWAP1 REVERT JUMPDEST PUSH2 0x2F76 DUP4 DUP4 DUP4 PUSH1 0x1 PUSH2 0x30EE JUMP JUMPDEST PUSH2 0x2FB7 JUMPI DUP3 PUSH1 0x40 MLOAD PUSH32 0x5274AFE700000000000000000000000000000000000000000000000000000000 DUP2 MSTORE PUSH1 0x4 ADD PUSH2 0x2FAE SWAP2 SWAP1 PUSH2 0x3552 JUMP JUMPDEST PUSH1 0x40 MLOAD DUP1 SWAP2 SUB SWAP1 REVERT JUMPDEST JUMPDEST POP POP POP JUMP JUMPDEST PUSH2 0x2FCB DUP5 DUP5 DUP5 DUP5 PUSH1 0x1 PUSH2 0x3150 JUMP JUMPDEST PUSH2 0x300C JUMPI DUP4 PUSH1 0x40 MLOAD PUSH32 0x5274AFE700000000000000000000000000000000000000000000000000000000 DUP2 MSTORE PUSH1 0x4 ADD PUSH2 0x3003 SWAP2 SWAP1 PUSH2 0x3552 JUMP JUMPDEST PUSH1 0x40 MLOAD DUP1 SWAP2 SUB SWAP1 REVERT JUMPDEST POP POP POP POP JUMP JUMPDEST PUSH2 0x301A PUSH2 0x31C1 JUMP JUMPDEST ISZERO PUSH2 0x3051 JUMPI PUSH1 0x40 MLOAD PUSH32 0x3EE5AEB500000000000000000000000000000000000000000000000000000000 DUP2 MSTORE PUSH1 0x4 ADD PUSH1 0x40 MLOAD DUP1 SWAP2 SUB SWAP1 REVERT JUMPDEST JUMP JUMPDEST PUSH0 PUSH32 0x9B779B17422D0DF92223018B32B4D1FA46E071723D6817E2486D003BECC55F00 PUSH0 SHL SWAP1 POP SWAP1 JUMP JUMPDEST PUSH0 DUP2 SWAP1 POP SWAP2 SWAP1 POP JUMP JUMPDEST PUSH0 PUSH0 PUSH4 0xA9059CBB PUSH1 0xE0 SHL SWAP1 POP PUSH1 0x40 MLOAD DUP2 PUSH0 MSTORE PUSH0 NOT PUSH1 0x60 SHR DUP7 AND PUSH1 0x4 MSTORE DUP5 PUSH1 0x24 MSTORE PUSH1 0x20 PUSH0 PUSH1 0x44 PUSH0 PUSH0 DUP12 GAS CALL SWAP3 POP PUSH1 0x1 PUSH0 MLOAD EQ DUP4 AND PUSH2 0x30D9 JUMPI DUP4 DUP4 ISZERO AND ISZERO PUSH2 0x30CD JUMPI RETURNDATASIZE PUSH0 DUP3 RETURNDATACOPY RETURNDATASIZE DUP2 REVERT JUMPDEST PUSH0 DUP8 EXTCODESIZE GT RETURNDATASIZE ISZERO AND DUP4 AND SWAP3 POP JUMPDEST DUP1 PUSH1 0x40 MSTORE POP POP SWAP5 SWAP4 POP POP POP POP JUMP JUMPDEST PUSH0 CALLER SWAP1 POP SWAP1 JUMP JUMPDEST PUSH0 PUSH0 PUSH4 0x95EA7B3 PUSH1 0xE0 SHL SWAP1 POP PUSH1 0x40 MLOAD DUP2 PUSH0 MSTORE PUSH0 NOT PUSH1 0x60 SHR DUP7 AND PUSH1 0x4 MSTORE DUP5 PUSH1 0x24 MSTORE PUSH1 0x20 PUSH0 PUSH1 0x44 PUSH0 PUSH0 DUP12 GAS CALL SWAP3 POP PUSH1 0x1 PUSH0 MLOAD EQ DUP4 AND PUSH2 0x3142 JUMPI DUP4 DUP4 ISZERO AND ISZERO PUSH2 0x3136 JUMPI RETURNDATASIZE PUSH0 DUP3 RETURNDATACOPY RETURNDATASIZE DUP2 REVERT JUMPDEST PUSH0 DUP8 EXTCODESIZE GT RETURNDATASIZE ISZERO AND DUP4 AND SWAP3 POP JUMPDEST DUP1 PUSH1 0x40 MSTORE POP POP SWAP5 SWAP4 POP POP POP POP JUMP JUMPDEST PUSH0 PUSH0 PUSH4 0x23B872DD PUSH1 0xE0 SHL SWAP1 POP PUSH1 0x40 MLOAD DUP2 PUSH0 MSTORE PUSH0 NOT PUSH1 0x60 SHR DUP8 AND PUSH1 0x4 MSTORE PUSH0 NOT PUSH1 0x60 SHR DUP7 AND PUSH1 0x24 MSTORE DUP5 PUSH1 0x44 MSTORE PUSH1 0x20 PUSH0 PUSH1 0x64 PUSH0 PUSH0 DUP13 GAS CALL SWAP3 POP PUSH1 0x1 PUSH0 MLOAD EQ DUP4 AND PUSH2 0x31AE JUMPI DUP4 DUP4 ISZERO AND ISZERO PUSH2 0x31A2 JUMPI RETURNDATASIZE PUSH0 DUP3 RETURNDATACOPY RETURNDATASIZE DUP2 REVERT JUMPDEST PUSH0 DUP9 EXTCODESIZE GT RETURNDATASIZE ISZERO AND DUP4 AND SWAP3 POP JUMPDEST DUP1 PUSH1 0x40 MSTORE PUSH0 PUSH1 0x60 MSTORE POP POP SWAP6 SWAP5 POP POP POP POP POP JUMP JUMPDEST PUSH0 PUSH1 0x2 PUSH2 0x31D4 PUSH2 0x31CF PUSH2 0x3053 JUMP JUMPDEST PUSH2 0x307C JUMP JUMPDEST PUSH0 ADD SLOAD EQ SWAP1 POP SWAP1 JUMP JUMPDEST PUSH0 PUSH1 0x40 MLOAD SWAP1 POP SWAP1 JUMP JUMPDEST PUSH0 PUSH0 REVERT JUMPDEST PUSH0 DUP2 SWAP1 POP SWAP2 SWAP1 POP JUMP JUMPDEST PUSH2 0x31FC DUP2 PUSH2 0x31EA JUMP JUMPDEST DUP2 EQ PUSH2 0x3206 JUMPI PUSH0 PUSH0 REVERT JUMPDEST POP JUMP JUMPDEST PUSH0 DUP2 CALLDATALOAD SWAP1 POP PUSH2 0x3217 DUP2 PUSH2 0x31F3 JUMP JUMPDEST SWAP3 SWAP2 POP POP JUMP JUMPDEST PUSH0 PUSH1 0x20 DUP3 DUP5 SUB SLT ISZERO PUSH2 0x3232 JUMPI PUSH2 0x3231 PUSH2 0x31E6 JUMP JUMPDEST JUMPDEST PUSH0 PUSH2 0x323F DUP5 DUP3 DUP6 ADD PUSH2 0x3209 JUMP JUMPDEST SWAP2 POP POP SWAP3 SWAP2 POP POP JUMP JUMPDEST PUSH2 0x3251 DUP2 PUSH2 0x31EA JUMP JUMPDEST DUP3 MSTORE POP POP JUMP JUMPDEST PUSH0 PUSH1 0x20 DUP3 ADD SWAP1 POP PUSH2 0x326A PUSH0 DUP4 ADD DUP5 PUSH2 0x3248 JUMP JUMPDEST SWAP3 SWAP2 POP POP JUMP JUMPDEST PUSH0 PUSH20 0xFFFFFFFFFFFFFFFFFFFFFFFFFFFFFFFFFFFFFFFF DUP3 AND SWAP1 POP SWAP2 SWAP1 POP JUMP JUMPDEST PUSH0 DUP2 SWAP1 POP SWAP2 SWAP1 POP JUMP JUMPDEST PUSH0 PUSH2 0x32B2 PUSH2 0x32AD PUSH2 0x32A8 DUP5 PUSH2 0x3270 JUMP JUMPDEST PUSH2 0x328F JUMP JUMPDEST PUSH2 0x3270 JUMP JUMPDEST SWAP1 POP SWAP2 SWAP1 POP JUMP JUMPDEST PUSH0 PUSH2 0x32C3 DUP3 PUSH2 0x3298 JUMP JUMPDEST SWAP1 POP SWAP2 SWAP1 POP JUMP JUMPDEST PUSH0 PUSH2 0x32D4 DUP3 PUSH2 0x32B9 JUMP JUMPDEST SWAP1 POP SWAP2 SWAP1 POP JUMP JUMPDEST PUSH2 0x32E4 DUP2 PUSH2 0x32CA JUMP JUMPDEST DUP3 MSTORE POP POP JUMP JUMPDEST PUSH0 PUSH1 0x20 DUP3 ADD SWAP1 POP PUSH2 0x32FD PUSH0 DUP4 ADD DUP5 PUSH2 0x32DB JUMP JUMPDEST SWAP3 SWAP2 POP POP JUMP JUMPDEST PUSH0 PUSH2 0x330D DUP3 PUSH2 0x3270 JUMP JUMPDEST SWAP1 POP SWAP2 SWAP1 POP JUMP JUMPDEST PUSH2 0x331D DUP2 PUSH2 0x3303 JUMP JUMPDEST DUP3 MSTORE POP POP JUMP JUMPDEST PUSH0 PUSH1 0x60 DUP3 ADD SWAP1 POP PUSH2 0x3336 PUSH0 DUP4 ADD DUP7 PUSH2 0x3314 JUMP JUMPDEST PUSH2 0x3343 PUSH1 0x20 DUP4 ADD DUP6 PUSH2 0x3314 JUMP JUMPDEST PUSH2 0x3350 PUSH1 0x40 DUP4 ADD DUP5 PUSH2 0x3314 JUMP JUMPDEST SWAP5 SWAP4 POP POP POP POP JUMP JUMPDEST PUSH0 PUSH1 0x60 DUP3 ADD SWAP1 POP PUSH2 0x336B PUSH0 DUP4 ADD DUP7 PUSH2 0x3248 JUMP JUMPDEST PUSH2 0x3378 PUSH1 0x20 DUP4 ADD DUP6 PUSH2 0x3248 JUMP JUMPDEST PUSH2 0x3385 PUSH1 0x40 DUP4 ADD DUP5 PUSH2 0x3248 JUMP JUMPDEST SWAP5 SWAP4 POP POP POP POP JUMP JUMPDEST PUSH2 0x3396 DUP2 PUSH2 0x3303 JUMP JUMPDEST DUP2 EQ PUSH2 0x33A0 JUMPI PUSH0 PUSH0 REVERT JUMPDEST POP JUMP JUMPDEST PUSH0 DUP2 CALLDATALOAD SWAP1 POP PUSH2 0x33B1 DUP2 PUSH2 0x338D JUMP JUMPDEST SWAP3 SWAP2 POP POP JUMP JUMPDEST PUSH0 PUSH1 0x20 DUP3 DUP5 SUB SLT ISZERO PUSH2 0x33CC JUMPI PUSH2 0x33CB PUSH2 0x31E6 JUMP JUMPDEST JUMPDEST PUSH0 PUSH2 0x33D9 DUP5 DUP3 DUP6 ADD PUSH2 0x33A3 JUMP JUMPDEST SWAP2 POP POP SWAP3 SWAP2 POP POP JUMP JUMPDEST PUSH0 DUP2 SWAP1 POP SWAP2 SWAP1 POP JUMP JUMPDEST PUSH2 0x33F4 DUP2 PUSH2 0x33E2 JUMP JUMPDEST DUP3 MSTORE POP POP JUMP JUMPDEST PUSH0 PUSH2 0x120 DUP3 ADD SWAP1 POP PUSH2 0x340E PUSH0 DUP4 ADD DUP13 PUSH2 0x3248 JUMP JUMPDEST PUSH2 0x341B PUSH1 0x20 DUP4 ADD DUP12 PUSH2 0x3248 JUMP JUMPDEST PUSH2 0x3428 PUSH1 0x40 DUP4 ADD DUP11 PUSH2 0x3248 JUMP JUMPDEST PUSH2 0x3435 PUSH1 0x60 DUP4 ADD DUP10 PUSH2 0x3248 JUMP JUMPDEST PUSH2 0x3442 PUSH1 0x80 DUP4 ADD DUP9 PUSH2 0x3248 JUMP JUMPDEST PUSH2 0x344F PUSH1 0xA0 DUP4 ADD DUP8 PUSH2 0x3248 JUMP JUMPDEST PUSH2 0x345C PUSH1 0xC0 DUP4 ADD DUP7 PUSH2 0x3248 JUMP JUMPDEST PUSH2 0x3469 PUSH1 0xE0 DUP4 ADD DUP6 PUSH2 0x3248 JUMP JUMPDEST PUSH2 0x3477 PUSH2 0x100 DUP4 ADD DUP5 PUSH2 0x33EB JUMP JUMPDEST SWAP11 SWAP10 POP POP POP POP POP POP POP POP POP POP JUMP JUMPDEST PUSH0 PUSH1 0xA0 DUP3 ADD SWAP1 POP PUSH2 0x3498 PUSH0 DUP4 ADD DUP9 PUSH2 0x3248 JUMP JUMPDEST PUSH2 0x34A5 PUSH1 0x20 DUP4 ADD DUP8 PUSH2 0x3248 JUMP JUMPDEST PUSH2 0x34B2 PUSH1 0x40 DUP4 ADD DUP7 PUSH2 0x3248 JUMP JUMPDEST PUSH2 0x34BF PUSH1 0x60 DUP4 ADD DUP6 PUSH2 0x3248 JUMP JUMPDEST PUSH2 0x34CC PUSH1 0x80 DUP4 ADD DUP5 PUSH2 0x3248 JUMP JUMPDEST SWAP7 SWAP6 POP POP POP POP POP POP JUMP JUMPDEST PUSH0 PUSH2 0x34E0 DUP3 PUSH2 0x32B9 JUMP JUMPDEST SWAP1 POP SWAP2 SWAP1 POP JUMP JUMPDEST PUSH2 0x34F0 DUP2 PUSH2 0x34D6 JUMP JUMPDEST DUP3 MSTORE POP POP JUMP JUMPDEST PUSH0 PUSH1 0x20 DUP3 ADD SWAP1 POP PUSH2 0x3509 PUSH0 DUP4 ADD DUP5 PUSH2 0x34E7 JUMP JUMPDEST SWAP3 SWAP2 POP POP JUMP JUMPDEST PUSH0 PUSH1 0x80 DUP3 ADD SWAP1 POP PUSH2 0x3522 PUSH0 DUP4 ADD DUP8 PUSH2 0x3248 JUMP JUMPDEST PUSH2 0x352F PUSH1 0x20 DUP4 ADD DUP7 PUSH2 0x3248 JUMP JUMPDEST PUSH2 0x353C PUSH1 0x40 DUP4 ADD DUP6 PUSH2 0x3248 JUMP JUMPDEST PUSH2 0x3549 PUSH1 0x60 DUP4 ADD DUP5 PUSH2 0x3248 JUMP JUMPDEST SWAP6 SWAP5 POP POP POP POP POP JUMP JUMPDEST PUSH0 PUSH1 0x20 DUP3 ADD SWAP1 POP PUSH2 0x3565 PUSH0 DUP4 ADD DUP5 PUSH2 0x3314 JUMP JUMPDEST SWAP3 SWAP2 POP POP JUMP JUMPDEST PUSH0 PUSH2 0x3575 DUP3 PUSH2 0x32B9 JUMP JUMPDEST SWAP1 POP SWAP2 SWAP1 POP JUMP JUMPDEST PUSH2 0x3585 DUP2 PUSH2 0x356B JUMP JUMPDEST DUP3 MSTORE POP POP JUMP JUMPDEST PUSH0 PUSH1 0x20 DUP3 ADD SWAP1 POP PUSH2 0x359E PUSH0 DUP4 ADD DUP5 PUSH2 0x357C JUMP JUMPDEST SWAP3 SWAP2 POP POP JUMP JUMPDEST PUSH32 0x4E487B7100000000000000000000000000000000000000000000000000000000 PUSH0 MSTORE PUSH1 0x11 PUSH1 0x4 MSTORE PUSH1 0x24 PUSH0 REVERT JUMPDEST PUSH0 PUSH2 0x35DB DUP3 PUSH2 0x31EA JUMP JUMPDEST SWAP2 POP PUSH2 0x35E6 DUP4 PUSH2 0x31EA JUMP JUMPDEST SWAP3 POP DUP3 DUP3 MUL PUSH2 0x35F4 DUP2 PUSH2 0x31EA JUMP JUMPDEST SWAP2 POP DUP3 DUP3 DIV DUP5 EQ DUP4 ISZERO OR PUSH2 0x360B JUMPI PUSH2 0x360A PUSH2 0x35A4 JUMP JUMPDEST JUMPDEST POP SWAP3 SWAP2 POP POP JUMP JUMPDEST PUSH32 0x4E487B7100000000000000000000000000000000000000000000000000000000 PUSH0 MSTORE PUSH1 0x12 PUSH1 0x4 MSTORE PUSH1 0x24 PUSH0 REVERT JUMPDEST PUSH0 PUSH2 0x3649 DUP3 PUSH2 0x31EA JUMP JUMPDEST SWAP2 POP PUSH2 0x3654 DUP4 PUSH2 0x31EA JUMP JUMPDEST SWAP3 POP DUP3 PUSH2 0x3664 JUMPI PUSH2 0x3663 PUSH2 0x3612 JUMP JUMPDEST JUMPDEST DUP3 DUP3 DIV SWAP1 POP SWAP3 SWAP2 POP POP JUMP JUMPDEST PUSH0 PUSH1 0x60 DUP3 ADD SWAP1 POP PUSH2 0x3682 PUSH0 DUP4 ADD DUP7 PUSH2 0x3248 JUMP JUMPDEST PUSH2 0x368F PUSH1 0x20 DUP4 ADD DUP6 PUSH2 0x3314 JUMP JUMPDEST PUSH2 0x369C PUSH1 0x40 DUP4 ADD DUP5 PUSH2 0x3314 JUMP JUMPDEST SWAP5 SWAP4 POP POP POP POP JUMP JUMPDEST PUSH0 DUP2 MLOAD SWAP1 POP PUSH2 0x36B2 DUP2 PUSH2 0x31F3 JUMP JUMPDEST SWAP3 SWAP2 POP POP JUMP JUMPDEST PUSH0 PUSH1 0x20 DUP3 DUP5 SUB SLT ISZERO PUSH2 0x36CD JUMPI PUSH2 0x36CC PUSH2 0x31E6 JUMP JUMPDEST JUMPDEST PUSH0 PUSH2 0x36DA DUP5 DUP3 DUP6 ADD PUSH2 0x36A4 JUMP JUMPDEST SWAP2 POP POP SWAP3 SWAP2 POP POP JUMP JUMPDEST PUSH0 PUSH2 0x36ED DUP3 PUSH2 0x31EA JUMP JUMPDEST SWAP2 POP PUSH2 0x36F8 DUP4 PUSH2 0x31EA JUMP JUMPDEST SWAP3 POP DUP3 DUP3 SUB SWAP1 POP DUP2 DUP2 GT ISZERO PUSH2 0x3710 JUMPI PUSH2 0x370F PUSH2 0x35A4 JUMP JUMPDEST JUMPDEST SWAP3 SWAP2 POP POP JUMP JUMPDEST PUSH0 PUSH2 0x3720 DUP3 PUSH2 0x31EA JUMP JUMPDEST SWAP2 POP PUSH2 0x372B DUP4 PUSH2 0x31EA JUMP JUMPDEST SWAP3 POP DUP3 DUP3 ADD SWAP1 POP DUP1 DUP3 GT ISZERO PUSH2 0x3743 JUMPI PUSH2 0x3742 PUSH2 0x35A4 JUMP JUMPDEST JUMPDEST SWAP3 SWAP2 POP POP JUMP JUMPDEST PUSH0 PUSH1 0x40 DUP3 ADD SWAP1 POP PUSH2 0x375C PUSH0 DUP4 ADD DUP6 PUSH2 0x3248 JUMP JUMPDEST PUSH2 0x3769 PUSH1 0x20 DUP4 ADD DUP5 PUSH2 0x3248 JUMP JUMPDEST SWAP4 SWAP3 POP POP POP JUMP JUMPDEST PUSH0 PUSH2 0x377A DUP3 PUSH2 0x33E2 JUMP JUMPDEST SWAP2 POP PUSH2 0x3785 DUP4 PUSH2 0x33E2 JUMP JUMPDEST SWAP3 POP DUP3 DUP3 SUB SWAP1 POP DUP2 DUP2 SLT PUSH0 DUP5 SLT AND DUP3 DUP3 SGT PUSH0 DUP6 SLT ISZERO AND OR ISZERO PUSH2 0x37AA JUMPI PUSH2 0x37A9 PUSH2 0x35A4 JUMP JUMPDEST JUMPDEST SWAP3 SWAP2 POP POP JUMP JUMPDEST PUSH0 DUP2 ISZERO ISZERO SWAP1 POP SWAP2 SWAP1 POP JUMP JUMPDEST PUSH2 0x37C4 DUP2 PUSH2 0x37B0 JUMP JUMPDEST DUP2 EQ PUSH2 0x37CE JUMPI PUSH0 PUSH0 REVERT JUMPDEST POP JUMP JUMPDEST PUSH0 DUP2 MLOAD SWAP1 POP PUSH2 0x37DF DUP2 PUSH2 0x37BB JUMP JUMPDEST SWAP3 SWAP2 POP POP JUMP JUMPDEST PUSH0 PUSH1 0x20 DUP3 DUP5 SUB SLT ISZERO PUSH2 0x37FA JUMPI PUSH2 0x37F9 PUSH2 0x31E6 JUMP JUMPDEST JUMPDEST PUSH0 PUSH2 0x3807 DUP5 DUP3 DUP6 ADD PUSH2 0x37D1 JUMP JUMPDEST SWAP2 POP POP SWAP3 SWAP2 POP POP JUMP JUMPDEST PUSH0 PUSH0 REVERT JUMPDEST PUSH0 PUSH1 0x1F NOT PUSH1 0x1F DUP4 ADD AND SWAP1 POP SWAP2 SWAP1 POP JUMP JUMPDEST PUSH32 0x4E487B7100000000000000000000000000000000000000000000000000000000 PUSH0 MSTORE PUSH1 0x41 PUSH1 0x4 MSTORE PUSH1 0x24 PUSH0 REVERT JUMPDEST PUSH2 0x385A DUP3 PUSH2 0x3814 JUMP JUMPDEST DUP2 ADD DUP2 DUP2 LT PUSH8 0xFFFFFFFFFFFFFFFF DUP3 GT OR ISZERO PUSH2 0x3879 JUMPI PUSH2 0x3878 PUSH2 0x3824 JUMP JUMPDEST JUMPDEST DUP1 PUSH1 0x40 MSTORE POP POP POP JUMP JUMPDEST PUSH0 PUSH2 0x388B PUSH2 0x31DD JUMP JUMPDEST SWAP1 POP PUSH2 0x3897 DUP3 DUP3 PUSH2 0x3851 JUMP JUMPDEST SWAP2 SWAP1 POP JUMP JUMPDEST PUSH0 PUSH1 0xFF DUP3 AND SWAP1 POP SWAP2 SWAP1 POP JUMP JUMPDEST PUSH2 0x38B1 DUP2 PUSH2 0x389C JUMP JUMPDEST DUP2 EQ PUSH2 0x38BB JUMPI PUSH0 PUSH0 REVERT JUMPDEST POP JUMP JUMPDEST PUSH0 DUP2 MLOAD SWAP1 POP PUSH2 0x38CC DUP2 PUSH2 0x38A8 JUMP JUMPDEST SWAP3 SWAP2 POP POP JUMP JUMPDEST PUSH0 PUSH1 0x60 DUP3 DUP5 SUB SLT ISZERO PUSH2 0x38E7 JUMPI PUSH2 0x38E6 PUSH2 0x3810 JUMP JUMPDEST JUMPDEST PUSH2 0x38F1 PUSH1 0x60 PUSH2 0x3882 JUMP JUMPDEST SWAP1 POP PUSH0 PUSH2 0x3900 DUP5 DUP3 DUP6 ADD PUSH2 0x38BE JUMP JUMPDEST PUSH0 DUP4 ADD MSTORE POP PUSH1 0x20 PUSH2 0x3913 DUP5 DUP3 DUP6 ADD PUSH2 0x38BE JUMP JUMPDEST PUSH1 0x20 DUP4 ADD MSTORE POP PUSH1 0x40 PUSH2 0x3927 DUP5 DUP3 DUP6 ADD PUSH2 0x38BE JUMP JUMPDEST PUSH1 0x40 DUP4 ADD MSTORE POP SWAP3 SWAP2 POP POP JUMP JUMPDEST PUSH0 PUSH1 0x60 DUP3 DUP5 SUB SLT ISZERO PUSH2 0x3948 JUMPI PUSH2 0x3947 PUSH2 0x31E6 JUMP JUMPDEST JUMPDEST PUSH0 PUSH2 0x3955 DUP5 DUP3 DUP6 ADD PUSH2 0x38D2 JUMP JUMPDEST SWAP2 POP POP SWAP3 SWAP2 POP POP JUMP JUMPDEST PUSH0 PUSH1 0x40 DUP3 ADD SWAP1 POP PUSH2 0x3971 PUSH0 DUP4 ADD DUP6 PUSH2 0x3248 JUMP JUMPDEST PUSH2 0x397E PUSH1 0x20 DUP4 ADD DUP5 PUSH2 0x3314 JUMP JUMPDEST SWAP4 SWAP3 POP POP POP JUMP INVALID LOG2 PUSH5 0x6970667358 0x22 SLT KECCAK256 0xBF EXTCALL 0x29 SDIV PUSH5 0xDFEA5F2D65 0x2F SLT 0xB9 PUSH28 0x564B847CC5BE39A579F77D727D1B70BD642664736F6C634300081E00 CALLER "
		},
		"gasEstimates": {
			"creation": {
				"codeDepositCost": "2955800",
				"executionCost": "infinite",
				"totalCost": "infinite"
			},
			"external": {
				"deposit(uint256)": "infinite",
				"depositToken()": "infinite",
				"getProtocolStats()": "infinite",
				"getUserEstimatedAPY(address)": "infinite",
				"getUserPosition(address)": "infinite",
				"getUserTotalValue(address)": "infinite",
				"getUserVaultShares(address)": "infinite",
				"getVaultAPYs()": "infinite",
				"getVaults()": "infinite",
				"highRiskVault()": "infinite",
				"lowRiskVault()": "infinite",
				"medRiskVault()": "infinite",
				"owner()": "2581",
				"rebalance()": "infinite",
				"renounceOwnership()": "infinite",
				"riskNFT()": "infinite",
				"transferOwnership(address)": "infinite",
				"userPositions(address)": "infinite",
				"withdrawAll()": "infinite",
				"withdrawPartial(uint256)": "infinite"
			}
		},
		"methodIdentifiers": {
			"deposit(uint256)": "b6b55f25",
			"depositToken()": "c89039c5",
			"getProtocolStats()": "771aceef",
			"getUserEstimatedAPY(address)": "7ebb8971",
			"getUserPosition(address)": "5b7c2dad",
			"getUserTotalValue(address)": "af3f5e22",
			"getUserVaultShares(address)": "996220eb",
			"getVaultAPYs()": "59b9a642",
			"getVaults()": "44d00f82",
			"highRiskVault()": "2ca8ab4c",
			"lowRiskVault()": "8febd76e",
			"medRiskVault()": "9e79f7e7",
			"owner()": "8da5cb5b",
			"rebalance()": "7d7c2a1c",
			"renounceOwnership()": "715018a6",
			"riskNFT()": "66c0757e",
			"transferOwnership(address)": "f2fde38b",
			"userPositions(address)": "613cf420",
			"withdrawAll()": "853828b6",
			"withdrawPartial(uint256)": "1211540c"
		}
	},
	"abi": [
		{
			"inputs": [
				{
					"internalType": "address",
					"name": "_depositToken",
					"type": "address"
				},
				{
					"internalType": "address",
					"name": "_riskNFT",
					"type": "address"
				},
				{
					"internalType": "address",
					"name": "_lowRiskVault",
					"type": "address"
				},
				{
					"internalType": "address",
					"name": "_medRiskVault",
					"type": "address"
				},
				{
					"internalType": "address",
					"name": "_highRiskVault",
					"type": "address"
				}
			],
			"stateMutability": "nonpayable",
			"type": "constructor"
		},
		{
			"inputs": [],
			"name": "InsufficientShares",
			"type": "error"
		},
		{
			"inputs": [],
			"name": "InvalidAddress",
			"type": "error"
		},
		{
			"inputs": [],
			"name": "InvalidPercentage",
			"type": "error"
		},
		{
			"inputs": [],
			"name": "NoPosition",
			"type": "error"
		},
		{
			"inputs": [],
			"name": "NoProfile",
			"type": "error"
		},
		{
			"inputs": [
				{
					"internalType": "address",
					"name": "owner",
					"type": "address"
				}
			],
			"name": "OwnableInvalidOwner",
			"type": "error"
		},
		{
			"inputs": [
				{
					"internalType": "address",
					"name": "account",
					"type": "address"
				}
			],
			"name": "OwnableUnauthorizedAccount",
			"type": "error"
		},
		{
			"inputs": [],
			"name": "ReentrancyGuardReentrantCall",
			"type": "error"
		},
		{
			"inputs": [
				{
					"internalType": "address",
					"name": "token",
					"type": "address"
				}
			],
			"name": "SafeERC20FailedOperation",
			"type": "error"
		},
		{
			"inputs": [],
			"name": "ZeroAmount",
			"type": "error"
		},
		{
			"anonymous": false,
			"inputs": [
				{
					"indexed": true,
					"internalType": "address",
					"name": "user",
					"type": "address"
				},
				{
					"indexed": false,
					"internalType": "uint256",
					"name": "amount",
					"type": "uint256"
				},
				{
					"indexed": false,
					"internalType": "uint256",
					"name": "lowShares",
					"type": "uint256"
				},
				{
					"indexed": false,
					"internalType": "uint256",
					"name": "medShares",
					"type": "uint256"
				},
				{
					"indexed": false,
					"internalType": "uint256",
					"name": "highShares",
					"type": "uint256"
				}
			],
			"name": "Deposited",
			"type": "event"
		},
		{
			"anonymous": false,
			"inputs": [
				{
					"indexed": true,
					"internalType": "address",
					"name": "previousOwner",
					"type": "address"
				},
				{
					"indexed": true,
					"internalType": "address",
					"name": "newOwner",
					"type": "address"
				}
			],
			"name": "OwnershipTransferred",
			"type": "event"
		},
		{
			"anonymous": false,
			"inputs": [
				{
					"indexed": true,
					"internalType": "address",
					"name": "user",
					"type": "address"
				},
				{
					"indexed": false,
					"internalType": "uint256",
					"name": "percentage",
					"type": "uint256"
				},
				{
					"indexed": false,
					"internalType": "uint256",
					"name": "amountReceived",
					"type": "uint256"
				}
			],
			"name": "PartialWithdrawal",
			"type": "event"
		},
		{
			"anonymous": false,
			"inputs": [
				{
					"indexed": true,
					"internalType": "address",
					"name": "user",
					"type": "address"
				},
				{
					"indexed": false,
					"internalType": "uint256",
					"name": "timestamp",
					"type": "uint256"
				}
			],
			"name": "Rebalanced",
			"type": "event"
		},
		{
			"anonymous": false,
			"inputs": [
				{
					"indexed": true,
					"internalType": "address",
					"name": "user",
					"type": "address"
				},
				{
					"indexed": false,
					"internalType": "uint256",
					"name": "amountReceived",
					"type": "uint256"
				},
				{
					"indexed": false,
					"internalType": "uint256",
					"name": "lowSharesBurned",
					"type": "uint256"
				},
				{
					"indexed": false,
					"internalType": "uint256",
					"name": "medSharesBurned",
					"type": "uint256"
				},
				{
					"indexed": false,
					"internalType": "uint256",
					"name": "highSharesBurned",
					"type": "uint256"
				}
			],
			"name": "Withdrawn",
			"type": "event"
		},
		{
			"inputs": [
				{
					"internalType": "uint256",
					"name": "amount",
					"type": "uint256"
				}
			],
			"name": "deposit",
			"outputs": [
				{
					"internalType": "uint256",
					"name": "lowShares",
					"type": "uint256"
				},
				{
					"internalType": "uint256",
					"name": "medShares",
					"type": "uint256"
				},
				{
					"internalType": "uint256",
					"name": "highShares",
					"type": "uint256"
				}
			],
			"stateMutability": "nonpayable",
			"type": "function"
		},
		{
			"inputs": [],
			"name": "depositToken",
			"outputs": [
				{
					"internalType": "contract IERC20",
					"name": "",
					"type": "address"
				}
			],
			"stateMutability": "view",
			"type": "function"
		},
		{
			"inputs": [],
			"name": "getProtocolStats",
			"outputs": [
				{
					"internalType": "uint256",
					"name": "totalValueLocked",
					"type": "uint256"
				},
				{
					"internalType": "uint256",
					"name": "lowVaultTVL",
					"type": "uint256"
				},
				{
					"internalType": "uint256",
					"name": "medVaultTVL",
					"type": "uint256"
				},
				{
					"internalType": "uint256",
					"name": "highVaultTVL",
					"type": "uint256"
				}
			],
			"stateMutability": "view",
			"type": "function"
		},
		{
			"inputs": [
				{
					"internalType": "address",
					"name": "user",
					"type": "address"
				}
			],
			"name": "getUserEstimatedAPY",
			"outputs": [
				{
					"internalType": "uint256",
					"name": "",
					"type": "uint256"
				}
			],
			"stateMutability": "view",
			"type": "function"
		},
		{
			"inputs": [
				{
					"internalType": "address",
					"name": "user",
					"type": "address"
				}
			],
			"name": "getUserPosition",
			"outputs": [
				{
					"internalType": "uint256",
					"name": "lowShares",
					"type": "uint256"
				},
				{
					"internalType": "uint256",
					"name": "medShares",
					"type": "uint256"
				},
				{
					"internalType": "uint256",
					"name": "highShares",
					"type": "uint256"
				},
				{
					"internalType": "uint256",
					"name": "lowValue",
					"type": "uint256"
				},
				{
					"internalType": "uint256",
					"name": "medValue",
					"type": "uint256"
				},
				{
					"internalType": "uint256",
					"name": "highValue",
					"type": "uint256"
				},
				{
					"internalType": "uint256",
					"name": "totalValue",
					"type": "uint256"
				},
				{
					"internalType": "uint256",
					"name": "totalDeposited",
					"type": "uint256"
				},
				{
					"internalType": "int256",
					"name": "profitLoss",
					"type": "int256"
				}
			],
			"stateMutability": "view",
			"type": "function"
		},
		{
			"inputs": [
				{
					"internalType": "address",
					"name": "user",
					"type": "address"
				}
			],
			"name": "getUserTotalValue",
			"outputs": [
				{
					"internalType": "uint256",
					"name": "",
					"type": "uint256"
				}
			],
			"stateMutability": "view",
			"type": "function"
		},
		{
			"inputs": [
				{
					"internalType": "address",
					"name": "user",
					"type": "address"
				}
			],
			"name": "getUserVaultShares",
			"outputs": [
				{
					"internalType": "uint256",
					"name": "lowShares",
					"type": "uint256"
				},
				{
					"internalType": "uint256",
					"name": "medShares",
					"type": "uint256"
				},
				{
					"internalType": "uint256",
					"name": "highShares",
					"type": "uint256"
				}
			],
			"stateMutability": "view",
			"type": "function"
		},
		{
			"inputs": [],
			"name": "getVaultAPYs",
			"outputs": [
				{
					"internalType": "uint256",
					"name": "lowAPY",
					"type": "uint256"
				},
				{
					"internalType": "uint256",
					"name": "medAPY",
					"type": "uint256"
				},
				{
					"internalType": "uint256",
					"name": "highAPY",
					"type": "uint256"
				}
			],
			"stateMutability": "view",
			"type": "function"
		},
		{
			"inputs": [],
			"name": "getVaults",
			"outputs": [
				{
					"internalType": "address",
					"name": "low",
					"type": "address"
				},
				{
					"internalType": "address",
					"name": "med",
					"type": "address"
				},
				{
					"internalType": "address",
					"name": "high",
					"type": "address"
				}
			],
			"stateMutability": "view",
			"type": "function"
		},
		{
			"inputs": [],
			"name": "highRiskVault",
			"outputs": [
				{
					"internalType": "contract IVault",
					"name": "",
					"type": "address"
				}
			],
			"stateMutability": "view",
			"type": "function"
		},
		{
			"inputs": [],
			"name": "lowRiskVault",
			"outputs": [
				{
					"internalType": "contract IVault",
					"name": "",
					"type": "address"
				}
			],
			"stateMutability": "view",
			"type": "function"
		},
		{
			"inputs": [],
			"name": "medRiskVault",
			"outputs": [
				{
					"internalType": "contract IVault",
					"name": "",
					"type": "address"
				}
			],
			"stateMutability": "view",
			"type": "function"
		},
		{
			"inputs": [],
			"name": "owner",
			"outputs": [
				{
					"internalType": "address",
					"name": "",
					"type": "address"
				}
			],
			"stateMutability": "view",
			"type": "function"
		},
		{
			"inputs": [],
			"name": "rebalance",
			"outputs": [],
			"stateMutability": "nonpayable",
			"type": "function"
		},
		{
			"inputs": [],
			"name": "renounceOwnership",
			"outputs": [],
			"stateMutability": "nonpayable",
			"type": "function"
		},
		{
			"inputs": [],
			"name": "riskNFT",
			"outputs": [
				{
					"internalType": "contract IRiskNFT",
					"name": "",
					"type": "address"
				}
			],
			"stateMutability": "view",
			"type": "function"
		},
		{
			"inputs": [
				{
					"internalType": "address",
					"name": "newOwner",
					"type": "address"
				}
			],
			"name": "transferOwnership",
			"outputs": [],
			"stateMutability": "nonpayable",
			"type": "function"
		},
		{
			"inputs": [
				{
					"internalType": "address",
					"name": "",
					"type": "address"
				}
			],
			"name": "userPositions",
			"outputs": [
				{
					"internalType": "uint256",
					"name": "lowShares",
					"type": "uint256"
				},
				{
					"internalType": "uint256",
					"name": "medShares",
					"type": "uint256"
				},
				{
					"internalType": "uint256",
					"name": "highShares",
					"type": "uint256"
				},
				{
					"internalType": "uint256",
					"name": "totalDeposited",
					"type": "uint256"
				},
				{
					"internalType": "uint256",
					"name": "depositTimestamp",
					"type": "uint256"
				}
			],
			"stateMutability": "view",
			"type": "function"
		},
		{
			"inputs": [],
			"name": "withdrawAll",
			"outputs": [
				{
					"internalType": "uint256",
					"name": "totalReceived",
					"type": "uint256"
				}
			],
			"stateMutability": "nonpayable",
			"type": "function"
		},
		{
			"inputs": [
				{
					"internalType": "uint256",
					"name": "percentageBps",
					"type": "uint256"
				}
			],
			"name": "withdrawPartial",
			"outputs": [
				{
					"internalType": "uint256",
					"name": "totalReceived",
					"type": "uint256"
				}
			],
			"stateMutability": "nonpayable",
			"type": "function"
		}
	]
}